{
  "_format": "hh-sol-artifact-1",
  "contractName": "BoundsChecker",
  "sourceName": "contracts/utility/BoundsChecker.sol",
  "abi": [
    {
      "inputs": [],
      "name": "MAX_ACTIONS",
      "outputs": [
        {
          "internalType": "uint256",
          "name": "",
          "type": "uint256"
        }
      ],
      "stateMutability": "view",
      "type": "function"
    },
    {
      "inputs": [],
      "name": "MAX_ARRAY_LENGTH",
      "outputs": [
        {
          "internalType": "uint256",
          "name": "",
          "type": "uint256"
        }
      ],
      "stateMutability": "view",
      "type": "function"
    },
    {
      "inputs": [],
      "name": "MAX_AUDIT_ENTRIES",
      "outputs": [
        {
          "internalType": "uint256",
          "name": "",
          "type": "uint256"
        }
      ],
      "stateMutability": "view",
      "type": "function"
    },
    {
      "inputs": [],
      "name": "MAX_CREDENTIALS",
      "outputs": [
        {
          "internalType": "uint256",
          "name": "",
          "type": "uint256"
        }
      ],
      "stateMutability": "view",
      "type": "function"
    },
    {
      "inputs": [],
      "name": "MAX_JURISDICTIONS",
      "outputs": [
        {
          "internalType": "uint256",
          "name": "",
          "type": "uint256"
        }
      ],
      "stateMutability": "view",
      "type": "function"
    },
    {
      "inputs": [],
      "name": "MAX_OPERATIONS",
      "outputs": [
        {
          "internalType": "uint256",
          "name": "",
          "type": "uint256"
        }
      ],
      "stateMutability": "view",
      "type": "function"
    },
    {
      "inputs": [],
      "name": "MAX_SIGNERS",
      "outputs": [
        {
          "internalType": "uint256",
          "name": "",
          "type": "uint256"
        }
      ],
      "stateMutability": "view",
      "type": "function"
    },
    {
      "inputs": [],
      "name": "MAX_TENANTS",
      "outputs": [
        {
          "internalType": "uint256",
          "name": "",
          "type": "uint256"
        }
      ],
      "stateMutability": "view",
      "type": "function"
    }
  ],
  "bytecode": "0x6080806040523461001a576101259081610020823930815050f35b600080fdfe6080806040526004361015601257600080fd5b6000803560e01c9182633156a9da1460a6575081634cb91dd514609057816359ecd6571460745781635dc2803a1460705781638a937fad1460785750806396def709146070578063a71c216f1460745763cf2a8f9b14607057600080fd5b60d9565b60be565b80600319360112608d57602060405160c88152f35b80fd5b80600319360112608d5760206040516101f48152f35b8160031936011260ba57806103e860209252f35b5080fd5b600036600319011260d457602060405160328152f35b600080fd5b600036600319011260d457602060405160648152f3fea264697066735822122063dc3a2e076969476ff8a6dae016bd476a2e2978cb5f87865cd974324a89b35464736f6c63430008140033",
  "linkReferences": {},
  "deployedLinkReferences": {}
}