{
  "_format": "hh-sol-artifact-1",
  "contractName": "BoundsChecker",
  "sourceName": "contracts/utility/BoundsChecker.sol",
  "abi": [
    {
      "inputs": [],
      "name": "MAX_ACTIONS",
      "outputs": [
        {
          "internalType": "uint256",
          "name": "",
          "type": "uint256"
        }
      ],
      "stateMutability": "view",
      "type": "function"
    },
    {
      "inputs": [],
      "name": "MAX_ARRAY_LENGTH",
      "outputs": [
        {
          "internalType": "uint256",
          "name": "",
          "type": "uint256"
        }
      ],
      "stateMutability": "view",
      "type": "function"
    },
    {
      "inputs": [],
      "name": "MAX_AUDIT_ENTRIES",
      "outputs": [
        {
          "internalType": "uint256",
          "name": "",
          "type": "uint256"
        }
      ],
      "stateMutability": "view",
      "type": "function"
    },
    {
      "inputs": [],
      "name": "MAX_CREDENTIALS",
      "outputs": [
        {
          "internalType": "uint256",
          "name": "",
          "type": "uint256"
        }
      ],
      "stateMutability": "view",
      "type": "function"
    },
    {
      "inputs": [],
      "name": "MAX_JURISDICTIONS",
      "outputs": [
        {
          "internalType": "uint256",
          "name": "",
          "type": "uint256"
        }
      ],
      "stateMutability": "view",
      "type": "function"
    },
    {
      "inputs": [],
      "name": "MAX_OPERATIONS",
      "outputs": [
        {
          "internalType": "uint256",
          "name": "",
          "type": "uint256"
        }
      ],
      "stateMutability": "view",
      "type": "function"
    },
    {
      "inputs": [],
      "name": "MAX_SIGNERS",
      "outputs": [
        {
          "internalType": "uint256",
          "name": "",
          "type": "uint256"
        }
      ],
      "stateMutability": "view",
      "type": "function"
    },
    {
      "inputs": [],
      "name": "MAX_TENANTS",
      "outputs": [
        {
          "internalType": "uint256",
          "name": "",
          "type": "uint256"
        }
      ],
      "stateMutability": "view",
      "type": "function"
    }
  ],
  "bytecode": "0x6080806040523461001a5761011f908161001f823930815050f35b5f80fdfe60808060405260043610156011575f80fd5b5f803560e01c9182633156a9da1460a3575081634cb91dd514608d57816359ecd6571460715781635dc2803a14606d5781638a937fad1460755750806396def70914606d578063a71c216f1460715763cf2a8f9b14606d575f80fd5b60d4565b60bb565b80600319360112608a57602060405160c88152f35b80fd5b80600319360112608a5760206040516101f48152f35b8160031936011260b757806103e860209252f35b5080fd5b5f36600319011260d057602060405160328152f35b5f80fd5b5f36600319011260d057602060405160648152f3fea2646970667358221220c53200d545ec6e4d515c358da1035be5ffe9fb3fff9e8807c761e9df1890229e64736f6c63430008140033",
  "linkReferences": {},
  "deployedLinkReferences": {}
}