{
  "_format": "hh-sol-artifact-1",
  "contractName": "EmergencyManager",
  "sourceName": "contracts/system/EmergencyManager.sol",
  "abi": [
    {
      "inputs": [
        {
          "internalType": "address",
          "name": "_multisigManager",
          "type": "address"
        }
      ],
      "stateMutability": "nonpayable",
      "type": "constructor"
    },
    {
      "anonymous": false,
      "inputs": [
        {
          "indexed": true,
          "internalType": "uint256",
          "name": "actionId",
          "type": "uint256"
        },
        {
          "indexed": false,
          "internalType": "string",
          "name": "action",
          "type": "string"
        },
        {
          "indexed": false,
          "internalType": "address",
          "name": "executor",
          "type": "address"
        },
        {
          "indexed": false,
          "internalType": "string",
          "name": "reason",
          "type": "string"
        }
      ],
      "name": "EmergencyActionLogged",
      "type": "event"
    },
    {
      "anonymous": false,
      "inputs": [
        {
          "indexed": true,
          "internalType": "address",
          "name": "contact",
          "type": "address"
        },
        {
          "indexed": false,
          "internalType": "bool",
          "name": "authorized",
          "type": "bool"
        },
        {
          "indexed": false,
          "internalType": "address",
          "name": "updatedBy",
          "type": "address"
        }
      ],
      "name": "EmergencyContactUpdated",
      "type": "event"
    },
    {
      "anonymous": false,
      "inputs": [
        {
          "indexed": true,
          "internalType": "address",
          "name": "declaredBy",
          "type": "address"
        },
        {
          "indexed": false,
          "internalType": "string",
          "name": "reason",
          "type": "string"
        },
        {
          "indexed": false,
          "internalType": "uint256",
          "name": "timestamp",
          "type": "uint256"
        }
      ],
      "name": "EmergencyDeclared",
      "type": "event"
    },
    {
      "anonymous": false,
      "inputs": [
        {
          "indexed": true,
          "internalType": "string",
          "name": "functionName",
          "type": "string"
        },
        {
          "indexed": false,
          "internalType": "address",
          "name": "target",
          "type": "address"
        },
        {
          "indexed": false,
          "internalType": "address",
          "name": "executor",
          "type": "address"
        },
        {
          "indexed": false,
          "internalType": "bool",
          "name": "success",
          "type": "bool"
        },
        {
          "indexed": false,
          "internalType": "uint256",
          "name": "timestamp",
          "type": "uint256"
        }
      ],
      "name": "EmergencyOverrideExecuted",
      "type": "event"
    },
    {
      "anonymous": false,
      "inputs": [
        {
          "indexed": true,
          "internalType": "address",
          "name": "resolvedBy",
          "type": "address"
        },
        {
          "indexed": false,
          "internalType": "uint256",
          "name": "duration",
          "type": "uint256"
        },
        {
          "indexed": false,
          "internalType": "uint256",
          "name": "timestamp",
          "type": "uint256"
        }
      ],
      "name": "EmergencyResolved",
      "type": "event"
    },
    {
      "anonymous": false,
      "inputs": [
        {
          "indexed": true,
          "internalType": "address",
          "name": "signer",
          "type": "address"
        },
        {
          "indexed": false,
          "internalType": "address",
          "name": "addedBy",
          "type": "address"
        },
        {
          "indexed": false,
          "internalType": "uint256",
          "name": "timestamp",
          "type": "uint256"
        }
      ],
      "name": "EmergencySignerAdded",
      "type": "event"
    },
    {
      "anonymous": false,
      "inputs": [
        {
          "indexed": true,
          "internalType": "address",
          "name": "signer",
          "type": "address"
        },
        {
          "indexed": false,
          "internalType": "address",
          "name": "removedBy",
          "type": "address"
        },
        {
          "indexed": false,
          "internalType": "uint256",
          "name": "timestamp",
          "type": "uint256"
        }
      ],
      "name": "EmergencySignerRemoved",
      "type": "event"
    },
    {
      "anonymous": false,
      "inputs": [
        {
          "indexed": true,
          "internalType": "address",
          "name": "disabledBy",
          "type": "address"
        },
        {
          "indexed": false,
          "internalType": "uint256",
          "name": "timestamp",
          "type": "uint256"
        }
      ],
      "name": "EmergencySystemDisabled",
      "type": "event"
    },
    {
      "anonymous": false,
      "inputs": [
        {
          "indexed": true,
          "internalType": "address",
          "name": "enabledBy",
          "type": "address"
        },
        {
          "indexed": false,
          "internalType": "uint256",
          "name": "timestamp",
          "type": "uint256"
        }
      ],
      "name": "EmergencySystemEnabled",
      "type": "event"
    },
    {
      "inputs": [],
      "name": "CONTRACT_NAME",
      "outputs": [
        {
          "internalType": "string",
          "name": "",
          "type": "string"
        }
      ],
      "stateMutability": "view",
      "type": "function"
    },
    {
      "inputs": [],
      "name": "VERSION",
      "outputs": [
        {
          "internalType": "uint256",
          "name": "",
          "type": "uint256"
        }
      ],
      "stateMutability": "view",
      "type": "function"
    },
    {
      "inputs": [
        {
          "internalType": "address",
          "name": "contact",
          "type": "address"
        }
      ],
      "name": "addEmergencyContact",
      "outputs": [],
      "stateMutability": "nonpayable",
      "type": "function"
    },
    {
      "inputs": [
        {
          "internalType": "address",
          "name": "signer",
          "type": "address"
        },
        {
          "internalType": "string",
          "name": "reason",
          "type": "string"
        }
      ],
      "name": "addEmergencySigner",
      "outputs": [],
      "stateMutability": "nonpayable",
      "type": "function"
    },
    {
      "inputs": [
        {
          "internalType": "string",
          "name": "",
          "type": "string"
        }
      ],
      "name": "allowedEmergencyFunctions",
      "outputs": [
        {
          "internalType": "bool",
          "name": "",
          "type": "bool"
        }
      ],
      "stateMutability": "view",
      "type": "function"
    },
    {
      "inputs": [
        {
          "internalType": "string",
          "name": "reason",
          "type": "string"
        }
      ],
      "name": "declareEmergency",
      "outputs": [],
      "stateMutability": "nonpayable",
      "type": "function"
    },
    {
      "inputs": [],
      "name": "disableEmergencySystem",
      "outputs": [],
      "stateMutability": "nonpayable",
      "type": "function"
    },
    {
      "inputs": [],
      "name": "emergencyActionCounter",
      "outputs": [
        {
          "internalType": "uint256",
          "name": "",
          "type": "uint256"
        }
      ],
      "stateMutability": "view",
      "type": "function"
    },
    {
      "inputs": [
        {
          "internalType": "uint256",
          "name": "",
          "type": "uint256"
        }
      ],
      "name": "emergencyActions",
      "outputs": [
        {
          "internalType": "string",
          "name": "action",
          "type": "string"
        },
        {
          "internalType": "address",
          "name": "executor",
          "type": "address"
        },
        {
          "internalType": "uint256",
          "name": "timestamp",
          "type": "uint256"
        },
        {
          "internalType": "string",
          "name": "reason",
          "type": "string"
        },
        {
          "internalType": "bool",
          "name": "executed",
          "type": "bool"
        }
      ],
      "stateMutability": "view",
      "type": "function"
    },
    {
      "inputs": [
        {
          "internalType": "address",
          "name": "",
          "type": "address"
        }
      ],
      "name": "emergencyContacts",
      "outputs": [
        {
          "internalType": "bool",
          "name": "",
          "type": "bool"
        }
      ],
      "stateMutability": "view",
      "type": "function"
    },
    {
      "inputs": [],
      "name": "emergencyDeclaredAt",
      "outputs": [
        {
          "internalType": "uint256",
          "name": "",
          "type": "uint256"
        }
      ],
      "stateMutability": "view",
      "type": "function"
    },
    {
      "inputs": [],
      "name": "emergencyDeclaredBy",
      "outputs": [
        {
          "internalType": "address",
          "name": "",
          "type": "address"
        }
      ],
      "stateMutability": "view",
      "type": "function"
    },
    {
      "inputs": [
        {
          "internalType": "string",
          "name": "reason",
          "type": "string"
        }
      ],
      "name": "emergencyDisableAllMultisig",
      "outputs": [],
      "stateMutability": "nonpayable",
      "type": "function"
    },
    {
      "inputs": [],
      "name": "emergencyMode",
      "outputs": [
        {
          "internalType": "bool",
          "name": "",
          "type": "bool"
        }
      ],
      "stateMutability": "view",
      "type": "function"
    },
    {
      "inputs": [
        {
          "internalType": "string",
          "name": "functionName",
          "type": "string"
        },
        {
          "internalType": "address",
          "name": "target",
          "type": "address"
        },
        {
          "internalType": "bytes",
          "name": "data",
          "type": "bytes"
        },
        {
          "internalType": "string",
          "name": "reason",
          "type": "string"
        }
      ],
      "name": "emergencyOverride",
      "outputs": [],
      "stateMutability": "nonpayable",
      "type": "function"
    },
    {
      "inputs": [],
      "name": "emergencyReason",
      "outputs": [
        {
          "internalType": "string",
          "name": "",
          "type": "string"
        }
      ],
      "stateMutability": "view",
      "type": "function"
    },
    {
      "inputs": [
        {
          "internalType": "address",
          "name": "",
          "type": "address"
        }
      ],
      "name": "emergencySigners",
      "outputs": [
        {
          "internalType": "bool",
          "name": "",
          "type": "bool"
        }
      ],
      "stateMutability": "view",
      "type": "function"
    },
    {
      "inputs": [],
      "name": "emergencySystemEnabled",
      "outputs": [
        {
          "internalType": "bool",
          "name": "",
          "type": "bool"
        }
      ],
      "stateMutability": "view",
      "type": "function"
    },
    {
      "inputs": [],
      "name": "enableEmergencySystem",
      "outputs": [],
      "stateMutability": "nonpayable",
      "type": "function"
    },
    {
      "inputs": [
        {
          "internalType": "uint256",
          "name": "actionId",
          "type": "uint256"
        }
      ],
      "name": "getEmergencyAction",
      "outputs": [
        {
          "components": [
            {
              "internalType": "string",
              "name": "action",
              "type": "string"
            },
            {
              "internalType": "address",
              "name": "executor",
              "type": "address"
            },
            {
              "internalType": "uint256",
              "name": "timestamp",
              "type": "uint256"
            },
            {
              "internalType": "string",
              "name": "reason",
              "type": "string"
            },
            {
              "internalType": "bool",
              "name": "executed",
              "type": "bool"
            }
          ],
          "internalType": "struct EmergencyManager.EmergencyAction",
          "name": "",
          "type": "tuple"
        }
      ],
      "stateMutability": "view",
      "type": "function"
    },
    {
      "inputs": [],
      "name": "getEmergencyActionCount",
      "outputs": [
        {
          "internalType": "uint256",
          "name": "",
          "type": "uint256"
        }
      ],
      "stateMutability": "view",
      "type": "function"
    },
    {
      "inputs": [],
      "name": "getEmergencyStatus",
      "outputs": [
        {
          "internalType": "bool",
          "name": "isEmergency",
          "type": "bool"
        },
        {
          "internalType": "uint256",
          "name": "declaredAt",
          "type": "uint256"
        },
        {
          "internalType": "address",
          "name": "declaredBy",
          "type": "address"
        },
        {
          "internalType": "string",
          "name": "reason",
          "type": "string"
        },
        {
          "internalType": "uint256",
          "name": "duration",
          "type": "uint256"
        }
      ],
      "stateMutability": "view",
      "type": "function"
    },
    {
      "inputs": [],
      "name": "getEmergencySystemStatus",
      "outputs": [
        {
          "internalType": "bool",
          "name": "systemEnabled",
          "type": "bool"
        },
        {
          "internalType": "bool",
          "name": "isEmergency",
          "type": "bool"
        },
        {
          "internalType": "uint256",
          "name": "declaredAt",
          "type": "uint256"
        },
        {
          "internalType": "address",
          "name": "declaredBy",
          "type": "address"
        },
        {
          "internalType": "string",
          "name": "reason",
          "type": "string"
        },
        {
          "internalType": "uint256",
          "name": "duration",
          "type": "uint256"
        }
      ],
      "stateMutability": "view",
      "type": "function"
    },
    {
      "inputs": [
        {
          "internalType": "address",
          "name": "contact",
          "type": "address"
        }
      ],
      "name": "isEmergencyContact",
      "outputs": [
        {
          "internalType": "bool",
          "name": "",
          "type": "bool"
        }
      ],
      "stateMutability": "view",
      "type": "function"
    },
    {
      "inputs": [
        {
          "internalType": "address",
          "name": "signer",
          "type": "address"
        }
      ],
      "name": "isEmergencySigner",
      "outputs": [
        {
          "internalType": "bool",
          "name": "",
          "type": "bool"
        }
      ],
      "stateMutability": "view",
      "type": "function"
    },
    {
      "inputs": [],
      "name": "isEmergencySystemEnabled",
      "outputs": [
        {
          "internalType": "bool",
          "name": "",
          "type": "bool"
        }
      ],
      "stateMutability": "view",
      "type": "function"
    },
    {
      "inputs": [],
      "name": "multisigManager",
      "outputs": [
        {
          "internalType": "contract MultisigManager",
          "name": "",
          "type": "address"
        }
      ],
      "stateMutability": "view",
      "type": "function"
    },
    {
      "inputs": [],
      "name": "owner",
      "outputs": [
        {
          "internalType": "address",
          "name": "",
          "type": "address"
        }
      ],
      "stateMutability": "view",
      "type": "function"
    },
    {
      "inputs": [
        {
          "internalType": "address",
          "name": "contact",
          "type": "address"
        }
      ],
      "name": "removeEmergencyContact",
      "outputs": [],
      "stateMutability": "nonpayable",
      "type": "function"
    },
    {
      "inputs": [
        {
          "internalType": "address",
          "name": "signer",
          "type": "address"
        },
        {
          "internalType": "string",
          "name": "reason",
          "type": "string"
        }
      ],
      "name": "removeEmergencySigner",
      "outputs": [],
      "stateMutability": "nonpayable",
      "type": "function"
    },
    {
      "inputs": [],
      "name": "resolveEmergency",
      "outputs": [],
      "stateMutability": "nonpayable",
      "type": "function"
    },
    {
      "inputs": [
        {
          "internalType": "string",
          "name": "functionName",
          "type": "string"
        },
        {
          "internalType": "bool",
          "name": "allowed",
          "type": "bool"
        }
      ],
      "name": "setAllowedEmergencyFunction",
      "outputs": [],
      "stateMutability": "nonpayable",
      "type": "function"
    }
  ],
  "bytecode": "0x6080346200042157601f6200382538819003918201601f191683019291906001600160401b03841183851017620004265781602092849260409687528339810103126200042157516001600160a01b038116908190036200042157600190816000558015620003de5760018060a01b031933816002541617600255825416178155336000526006602052816000209060ff19918183825416179055600160a01b60ff60a01b196002541617600255603883516e7570646174654b5943436f6e66696760881b8152602f600a9182600f820152208385825416179055603685517f75706461746543726564656e7469616c436f6e666967000000000000000000008152826016820152208385825416179055603685517f757064617465436f6d706c69616e6365436f6e66696700000000000000000000815282601682015220838582541617905560318551707570646174654175646974436f6e66696760781b81528260118201522083858254161790558185517f7570646174654a7572697364696374696f6e436f6e66696700000000000000008152826018820152208385825416179055603785517f7570646174654a7572697364696374696f6e52756c65730000000000000000008152826017820152208385825416179055602d85516c39b2ba29bab832b920b236b4b760991b815282600d820152208385825416179055603585517f757064617465526f6c655065726d697373696f6e7300000000000000000000008152826015820152208385825416179055603385517f736574417574686f72697a6564577269746572000000000000000000000000008152826013820152208385825416179055603385517f736574417574686f72697a6564497373756572000000000000000000000000008152826013820152208385825416179055602e85516d1c9959da5cdd195c95195b985b9d60921b815282600e820152208385825416179055603285517175706461746554656e616e74436f6e66696760701b815282601282015220838582541617905560318551703ab83230ba32aa32b730b73a20b236b4b760791b8152826011820152208385825416179055603085516f19195858dd1a5d985d1955195b985b9d60821b81528260108201522083858254161790556032855171636c6561725573657241756469744c6f677360701b81528260128201522083858254161790556031855170636c6561724f6c6441756469744c6f677360781b81528260118201522083858254161790558451907f736574416c6c6f77656443726564656e7469616c547970650000000000000000825260188201522091825416179055516133e890816200043d8239f35b6064835162461bcd60e51b815260206004820152602060248201527f496e76616c6964206d756c7469736967206d616e6167657220616464726573736044820152fd5b600080fd5b634e487b7160e01b600052604160045260246000fdfe608080604052600436101561001357600080fd5b600090813560e01c9081630905f560146129f857508063133834451461131b57806315c73afd146128cb5780631991b608146128ad5780631d5782ab146128545780631e8b8c52146117f65780632a3a545a146111d15780632f80123f146127cc578063324ed1981461274057806335a475c514611ee2578063410e898d14611e7f57806350f0a35214611d8c5780635ae4fad114611d5c578063614d08f814611cfa578063651efbc6146118d35780638da5cb5b146118ac57806396f207e81461181c5780639e8cfed7146117f65780639fbdb775146117cf578063a55231f414611516578063bed3c702146113ca578063bf925ce114611339578063c664f6571461131b578063c7a04c15146112de578063cdbef3ed1461120e578063d0f694cb146111d1578063d7dcc3e814610848578063df74588514610388578063f5841a511461024b578063fa37273c146101c6578063fe7627ce1461019f5763ffa1ad741461018157600080fd5b3461019c578060031936011261019c57602060405160018152f35b80fd5b503461019c578060031936011261019c5760206001600160a01b0360045416604051908152f35b503461019c578060031936011261019c5760ff60025460a81c16600354916001600160a01b0360045416908260001461024157506102376102078442612ec2565b915b610211612b98565b90604051958695151586526020860152604085015260a0606085015260a0840190612b39565b9060808301520390f35b6102379091610209565b503461019c578060031936011261019c576002546102736001600160a01b03821633146130d7565b60ff8160a01c166103445760ff8160a81c166102da5760ff60a01b19740100000000000000000000000000000000000000009116176002556040514281527f32ecb8fe9a0c6dc0c608bd246e191071e466345b8635a252c3137ef00820dbd160203392a280f35b608460405162461bcd60e51b815260206004820152602560248201527f43616e6e6f7420656e61626c6520647572696e672061637469766520656d657260448201527f67656e63790000000000000000000000000000000000000000000000000000006064820152fd5b606460405162461bcd60e51b815260206004820152602060248201527f456d657267656e63792073797374656d20616c726561647920656e61626c65646044820152fd5b503461019c5761039736612cfa565b338352600660205260ff604084205416801561082f575b6103b790612d3a565b6103d660ff6002546103cd828260a81c16612e77565b60a01c16612d85565b6103ea6001600160a01b0383161515612ee5565b6103f681511515612dd0565b826001600160a01b0360015416803b1561082b578180916044604051809481936303ae718f60e41b83526001600160a01b038a166004840152600160248401525af1801561082057610808575b50506001600160a01b0382168352600760205260408320600160ff19825416179055610470600954612f69565b918260095561047e81613133565b6104d1603660405180937f4144445f454d455247454e43595f5349474e45523a200000000000000000000060208301526104c18151809260208686019101612b16565b8101036016810184520182612a83565b604051906104de82612a37565b81523360208201524260408201528260608201526001608082015283855260086020526040852090805180519067ffffffffffffffff82116107f45781906105308261052a8754612b5e565b87612e32565b602090601f831160011461078b578992610780575b50508160011b916000199060031b1c19161782555b600182016001600160a01b036020830151166001600160a01b03198254161790556040810151600283015560038201606082015180519067ffffffffffffffff821161076c576105b4826105ae8554612b5e565b85612e32565b60209089601f84116001146106d7579461062a948461067298956004956080957f66629eb4b2c9ae00314af0568b27913b3d4ca8fc7baa28c764c2a532fbe2604e9d9c9a926106cc575b50508160011b916000199060031b1c19161790555b0151151591019060ff801983541691151516179055565b604080513381524260208201526001600160a01b038316917f52a06ed25f89c5637810e7b0e79e8b6ee8db542ae024623778f5557d891b66e59190819081015b0390a2613133565b6106b5603660405180937f4144445f454d455247454e43595f5349474e45523a200000000000000000000060208301526104c18151809260208686019101612b16565b6106c6604051928392339084612f78565b0390a280f35b0151905038806105fe565b50838a5260208a209190601f1984168b5b8181106107545750946001856004956080957f66629eb4b2c9ae00314af0568b27913b3d4ca8fc7baa28c764c2a532fbe2604e9d9c9a956106729c9961062a9b1061073b575b505050811b019055610613565b015160001960f88460031b161c1916905538808061072e565b929360206001819287860151815501950193016106e8565b602489634e487b7160e01b81526041600452fd5b015190503880610545565b9250848952602089209089935b601f19841685106107d9576001945083601f198116106107c0575b505050811b01825561055a565b015160001960f88460031b161c191690553880806107b3565b81810151835560209485019460019093019290910190610798565b602488634e487b7160e01b81526041600452fd5b61081190612a53565b61081c578238610443565b8280fd5b6040513d84823e3d90fd5b5080fd5b506103b76001600160a01b0360025416331490506103ae565b503461019c57602036600319011261019c5760043567ffffffffffffffff811161082b5761087a903690600401612af8565b338252600660205260ff60408320541680156111b8575b61089a90612d3a565b6108b060ff6002546103cd828260a81c16612e77565b6108bc81511515612dd0565b604051610240810181811067ffffffffffffffff8211176111a257604052601181528290815b610220811061118c57506040516108f881612a67565b600f81527f7570646174654b5943436f6e6669670000000000000000000000000000000000602082015261092b82612faa565b5261093581612faa565b5060405161094281612a67565b601681527f75706461746543726564656e7469616c436f6e66696700000000000000000000602082015261097582612fcd565b5261097f81612fcd565b5060405161098c81612a67565b601681527f757064617465436f6d706c69616e6365436f6e6669670000000000000000000060208201526109bf82612fdd565b526109c981612fdd565b506040516109d681612a67565b601181527f7570646174654175646974436f6e6669670000000000000000000000000000006020820152610a0982612fed565b52610a1381612fed565b50604051610a2081612a67565b601881527f7570646174654a7572697364696374696f6e436f6e66696700000000000000006020820152610a5382612ffd565b52610a5d81612ffd565b50604051610a6a81612a67565b601781527f7570646174654a7572697364696374696f6e52756c65730000000000000000006020820152610a9d8261300d565b52610aa78161300d565b50604051610ab481612a67565b600d81527f736574537570657241646d696e000000000000000000000000000000000000006020820152610ae78261301d565b52610af18161301d565b50604051610afe81612a67565b601581527f757064617465526f6c655065726d697373696f6e7300000000000000000000006020820152610b318261302d565b52610b3b8161302d565b50604051610b4881612a67565b601381527f736574417574686f72697a6564577269746572000000000000000000000000006020820152610b7b8261303e565b52610b858161303e565b50604051610b9281612a67565b601381527f736574417574686f72697a6564497373756572000000000000000000000000006020820152610bc58261304f565b52610bcf8161304f565b50604051610bdc81612a67565b600e81527f726567697374657254656e616e740000000000000000000000000000000000006020820152610c0f82613060565b52610c1981613060565b50604051610c2681612a67565b601281527f75706461746554656e616e74436f6e66696700000000000000000000000000006020820152610c5982613071565b52610c6381613071565b50604051610c7081612a67565b601181527f75706461746554656e616e7441646d696e0000000000000000000000000000006020820152610ca382613082565b52610cad81613082565b50604051610cba81612a67565b601081527f6465616374697661746554656e616e74000000000000000000000000000000006020820152610ced82613093565b52610cf781613093565b50604051610d0481612a67565b601281527f636c6561725573657241756469744c6f677300000000000000000000000000006020820152610d37826130a4565b52610d41816130a4565b50604051610d4e81612a67565b601181527f636c6561724f6c6441756469744c6f67730000000000000000000000000000006020820152610d81826130b5565b52610d8b816130b5565b50604051610d9881612a67565b601881527f736574416c6c6f77656443726564656e7469616c5479706500000000000000006020820152610dcb826130c6565b52610dd5816130c6565b50815b8151811015610e89576001600160a01b036001541660208260051b8401015190803b15610e8557610e4485929183926040519485809481937f9394fa15000000000000000000000000000000000000000000000000000000008352602060048401526024830190612b39565b03925af1908115610e7a578491610e66575b5050610e6190612f69565b610dd8565b610e6f90612a53565b61081c578238610e56565b6040513d86823e3d90fd5b8480fd5b505050610e97600954612f69565b9081600955604051610ea881612a37565b604051610eb481612a67565b601e81527f454d455247454e43595f44495341424c455f414c4c5f4d554c544953494700006020820152815260208101338152604082014281526060830190848252608084019260018452868852600860205260408820945180519067ffffffffffffffff8211611178578190610f3582610f2f8a54612b5e565b8a612e32565b602090601f831160011461110f578b92611104575b50508160011b916000199060031b1c19161785555b6001600160a01b03600186019151166001600160a01b031982541617905551600284015560038301905180519067ffffffffffffffff82116107f457610fa9826105ae8554612b5e565b602090601f8311600114611073579361101a93836106c697946004947f66629eb4b2c9ae00314af0568b27913b3d4ca8fc7baa28c764c2a532fbe2604e9a988d92611068575b50508160011b916000199060031b1c19161790555b51151591019060ff801983541691151516179055565b60405191829160608352601e60608401527f454d455247454e43595f44495341424c455f414c4c5f4d554c54495349470000608084015233602084015260a0604084015260a0830190612b39565b015190503880610fef565b838952602089209190601f1984168a5b8181106110ec5750846004947f66629eb4b2c9ae00314af0568b27913b3d4ca8fc7baa28c764c2a532fbe2604e9a989461101a98946106c69b98600195106110d3575b505050811b019055611004565b015160001960f88460031b161c191690553880806110c6565b92936020600181928786015181550195019301611083565b015190503880610f4a565b9250878b5260208b20908b935b601f198416851061115d576001945083601f19811610611144575b505050811b018555610f5f565b015160001960f88460031b161c19169055388080611137565b8181015183556020948501946001909301929091019061111c565b60248a634e487b7160e01b81526041600452fd5b81925060606020828194010152019083916108e2565b634e487b7160e01b600052604160045260246000fd5b5061089a6001600160a01b036002541633149050610891565b503461019c57602036600319011261019c5760ff60406020926001600160a01b036111fa612a1c565b168152600784522054166040519015158152f35b503461019c57602036600319011261019c57611228612a1c565b6001600160a01b038060025416916112418333146130d7565b169061124e821515612ee5565b811461129a5780825260066020526040822060ff1981541690557f37fda55237b88b6087cdedf4c7caf6e6aa56d74feba1c9e637f29473511e458e60408051848152336020820152a280f35b606460405162461bcd60e51b815260206004820152601360248201527f43616e6e6f742072656d6f7665206f776e6572000000000000000000000000006044820152fd5b503461019c57602036600319011261019c5760ff60406020926001600160a01b03611307612a1c565b168152600684522054166040519015158152f35b503461019c578060031936011261019c576020600954604051908152f35b503461019c57602036600319011261019c5760406113a691600435815260086020522061136581612c56565b906113be6001600160a01b0360018301541660028301549260ff600461138d60038401612c56565b920154169360405196879660a0885260a0880190612b39565b92602087015260408601528482036060860152612b39565b90151560808301520390f35b503461019c578060031936011261019c576002546113f26001600160a01b03821633146130d7565b60ff8160a01c16156114ac5760ff8160a81c166114425760ff60a01b19166002556040514281527fb0bb595c3a1ba6aa3bf930bc639cd8c631a09fe1c15d388094d7212d612ffa1c60203392a280f35b608460405162461bcd60e51b815260206004820152602660248201527f43616e6e6f742064697361626c6520647572696e672061637469766520656d6560448201527f7267656e637900000000000000000000000000000000000000000000000000006064820152fd5b608460405162461bcd60e51b815260206004820152602160248201527f456d657267656e63792073797374656d20616c72656164792064697361626c6560448201527f64000000000000000000000000000000000000000000000000000000000000006064820152fd5b503461019c576020908160031936011261019c5767ffffffffffffffff9160043583811161081c5761154c903690600401612af8565b3383526006825260ff60408420541680156117b6575b61156b90612d3a565b60025461157d60ff8260a01c16612d85565b60ff8160a81c166117725760ff60a81b197501000000000000000000000000000000000000000000916115b284511515612dd0565b161760025542600355336001600160a01b03196004541617600455805193841161175e5760056115e28154612b5e565b601f8111611708575b5082601f861160011461166857948085967f1a018e3bc96dc34b78be11d6dbfbb46be3b2b62d0b5e6d9d0d4404d1d2c0f59695969161165d575b508160011b916000199060031b1c19161790555b61164e60405191604083526040830190612b39565b9242908201528033930390a280f35b905083015138611625565b8185527f036b6384b5eca791c62761152d0c79bb0604c104a5fb6f4eb0703f3154bb3db090601f198716865b8181106116f157509187917f1a018e3bc96dc34b78be11d6dbfbb46be3b2b62d0b5e6d9d0d4404d1d2c0f596969798600194106116d8575b5050811b019055611639565b85015160001960f88460031b161c1916905538806116cc565b919286600181928689015181550194019201611694565b61174e90826000527f036b6384b5eca791c62761152d0c79bb0604c104a5fb6f4eb0703f3154bb3db0601f8801841c810191868910611754575b601f01841c0190612e1b565b386115eb565b9091508190611742565b602483634e487b7160e01b81526041600452fd5b6064836040519062461bcd60e51b82526004820152601960248201527f416c726561647920696e20656d657267656e6379206d6f6465000000000000006044820152fd5b5061156b6001600160a01b036002541633149050611562565b503461019c578060031936011261019c5760206001600160a01b0360015416604051908152f35b503461019c578060031936011261019c57602060ff60025460a01c166040519015158152f35b503461019c578060031936011261019c5760ff906002549061189c838360a81c16600354926001600160a01b036004541690826000146118a657506118618442612ec2565b935b61186b612b98565b9260405197889760a01c1615158752151560208701526040860152606085015260c0608085015260c0840190612b39565b9060a08301520390f35b93611863565b503461019c578060031936011261019c5760206001600160a01b0360025416604051908152f35b503461019c576118e236612cfa565b338352600660205260ff6040842054168015611ce1575b61190290612d3a565b61191860ff6002546103cd828260a81c16612e77565b61192c6001600160a01b0383161515612ee5565b61193881511515612dd0565b826001600160a01b0360015416803b1561082b5781906044604051809481936303ae718f60e41b83526001600160a01b03891660048401528160248401525af18015610e7a57611cce575b506001600160a01b038216835260076020526040832060ff1981541690556119ac600954612f69565b91826009556119ba81613133565b611a0d603960405180937f52454d4f56455f454d455247454e43595f5349474e45523a200000000000000060208301526119fd8151809260208686019101612b16565b8101036019810184520182612a83565b60405190611a1a82612a37565b81523360208201524260408201528260608201526001608082015283855260086020526040852090805180519067ffffffffffffffff82116107f4578190611a668261052a8754612b5e565b602090601f8311600114611c65578992611c5a575b50508160011b916000199060031b1c19161782555b600182016001600160a01b036020830151166001600160a01b03198254161790556040810151600283015560038201606082015180519067ffffffffffffffff821161076c57611ae4826105ae8554612b5e565b60209089601f8411600114611bdf5794611b589484611b9c98956004956080957f66629eb4b2c9ae00314af0568b27913b3d4ca8fc7baa28c764c2a532fbe2604e9d9c9a926106cc5750508160011b916000199060031b1c19161790550151151591019060ff801983541691151516179055565b604080513381524260208201526001600160a01b038316917f785e6a4aa4be18bd5535f680d1f80285b141e7f43ea6706f9ab4d61971efa51091908190810161066a565b6106b5603960405180937f52454d4f56455f454d455247454e43595f5349474e45523a200000000000000060208301526119fd8151809260208686019101612b16565b50838a5260208a209190601f1984168b5b818110611c425750946001856004956080957f66629eb4b2c9ae00314af0568b27913b3d4ca8fc7baa28c764c2a532fbe2604e9d9c9a95611b9c9c99611b589b1061073b57505050811b019055610613565b92936020600181928786015181550195019301611bf0565b015190503880611a7b565b9250848952602089209089935b601f1984168510611cb3576001945083601f19811610611c9a575b505050811b018255611a90565b015160001960f88460031b161c19169055388080611c8d565b81810151835560209485019460019093019290910190611c72565b611cda90939193612a53565b9138611983565b506119026001600160a01b0360025416331490506118f9565b503461019c578060031936011261019c57611d58604051611d1a81612a67565b601081527f456d657267656e63794d616e61676572000000000000000000000000000000006020820152604051918291602083526020830190612b39565b0390f35b503461019c578060031936011261019c57611d58611d78612b98565b604051918291602083526020830190612b39565b503461019c5760208060031936011261082b5760408260a09360808351611db281612a37565b606081528286820152828582015260608082015201526004358152600883522090611e7260405192611de384612a37565b611dec81612c56565b84526001600160a01b0390816001820154169184860192835260028201549060408701918252611e5260ff6004611e2560038701612c56565b9560608b0196875201541696608089019715158852604051998a99828b5251918a015260c0890190612b39565b935116604087015251606086015251848203601f19016080860152612b39565b9051151560a08301520390f35b503461019c57602036600319011261019c576004359067ffffffffffffffff821161019c57602060ff611ecc82611eb93660048801612af8565b8160405193828580945193849201612b16565b8101600a81520301902054166040519015158152f35b503461019c57608036600319011261019c5760043567ffffffffffffffff811161082b57611f14903690600401612af8565b90602435916001600160a01b038316830361082b5760443567ffffffffffffffff811161081c573660238201121561081c57611f5a903690602481600401359101612ac1565b9060643567ffffffffffffffff811161273c57611f7b903690600401612af8565b91338452600660205260ff6040852054168015612723575b611f9c90612d3a565b611fb260ff6002546103cd828260a81c16612e77565b6001600160a01b0385161515611fc781612ee5565b60028554146126df576121e99060028655611fe9611fe3612f30565b856132df565b7f3a207a65726f20616464726573730000000000000000000000000000000000006120f86120b16120e6603860405161202181612a67565b60068152602081017f7461726765740000000000000000000000000000000000000000000000000000815261209960405167024b73b30b634b2160c51b998a6020830152612094603683875160289d818f92612080908486018c612b16565b830191820152036016810185520183612a83565b6132af565b60405194859289602085015251809289850190612b16565b81017f3a2063616e6e6f742062652073656c660000000000000000000000000000000087820152036018810184520182612a83565b306001600160a01b038b1614156132af565b61209460386040519361210a85612a67565b6004855260208501937f6461746100000000000000000000000000000000000000000000000000000000855261219288511515604051908460208301526120946035838b5161215d818d8a850190612b16565b81017f3a20656d7074792062797465730000000000000000000000000000000000000088820152036015810185520183612a83565b7f3a20627974657320746f6f206c6f6e670000000000000000000000000000000061040089511115956121d5604051988995602087015251809285870190612b16565b830191820152036018810185520183612a83565b6122286040516121f881612a67565b600681527f726561736f6e00000000000000000000000000000000000000000000000000006020820152846132df565b60ff604051602081855161223f8183858a01612b16565b8101600a8152030190205416156126755783816020829351910182885af1913d15612670573d61226e81612aa5565b9061227c6040519283612a83565b81528460203d92013e5b612291600954612f69565b9182600955604051957f454d455247454e43595f4f564552524944453a2000000000000000000000000060208801526122e860348884516122d88184840160208901612b16565b810103601481018a520188612a83565b604051966122f588612a37565b87523360208801524260408801528260608801528415156080880152838652600860205260408620875180519067ffffffffffffffff821161076c578190612347826123418654612b5e565b86612e32565b602090601f8311600114612607578a926125fc575b50508160011b916000199060031b1c19161781555b600181016001600160a01b0360208a0151166001600160a01b031982541617905560408801516002820155606088015197885167ffffffffffffffff811161076c576123cd816123c46003860154612b5e565b60038601612e32565b6020601f8211600114612563576124409392826004936080938d9e7f66629eb4b2c9ae00314af0568b27913b3d4ca8fc7baa28c764c2a532fbe2604e9c9d9e92612558575b50508160011b916000199060031b1c19161760038501550151151591019060ff801983541691151516179055565b7fc91509e0d556ad24ac29cb3153945721052c705d58662b73bb72de867fb132b46080604051808551612477818360208a01612b16565b8101039020926001600160a01b03604051911681523360208201528815156040820152426060820152a26124f4603460405180937f454d455247454e43595f4f564552524944453a2000000000000000000000000060208301526124e48151809260208686019101612b16565b8101036014810184520182612a83565b612505604051928392339084612f78565b0390a215612514576001815580f35b606460405162461bcd60e51b815260206004820152601960248201527f456d657267656e6379206f76657272696465206661696c6564000000000000006044820152fd5b015190503880612412565b600384018a5260208a209a8a5b601f19841681106125e45750926001837f66629eb4b2c9ae00314af0568b27913b3d4ca8fc7baa28c764c2a532fbe2604e9a9b9c9d6080946124409897600497601f198116106125cb575b505050811b016003850155610613565b015160001960f88460031b161c191690553880806125bb565b828201518d556001909c019b60209283019201612570565b01519050388061235c565b9250838a5260208a20908a935b601f1984168510612655576001945083601f1981161061263c575b505050811b018155612371565b015160001960f88460031b161c1916905538808061262f565b81810151835560209485019460019093019290910190612614565b612286565b608460405162461bcd60e51b815260206004820152602160248201527f46756e6374696f6e206e6f7420616c6c6f77656420696e20656d657267656e6360448201527f79000000000000000000000000000000000000000000000000000000000000006064820152fd5b606460405162461bcd60e51b815260206004820152601f60248201527f5265656e7472616e637947756172643a207265656e7472616e742063616c6c006044820152fd5b50611f9c6001600160a01b036002541633149050611f93565b8380fd5b503461019c57604036600319011261019c5760043567ffffffffffffffff811161082b57612772903690600401612af8565b602435801515810361081c576127ae60206127c99361279d6001600160a01b036002541633146130d7565b611eb96127a8612f30565b826132df565b8101600a8152030190209060ff801983541691151516179055565b80f35b503461019c57602036600319011261019c576127e6612a1c565b6001600160a01b03906127fe826002541633146130d7565b1661280a811515612ee5565b808252600660205260408220600160ff198254161790557f37fda55237b88b6087cdedf4c7caf6e6aa56d74feba1c9e637f29473511e458e6040805160018152336020820152a280f35b503461019c57602036600319011261019c576020906001600160a01b039060ff60408361287f612a1c565b16928381526006865220541691821561289f575b50506040519015158152f35b600254161490503880612893565b503461019c578060031936011261019c576020600354604051908152f35b503461019c578060031936011261019c57338152600660205260ff60408220541680156129df575b6128fc90612d3a565b60025461290e60ff8260a81c16612e77565b61291d60ff8260a01c16612d85565b60ff60a81b1961292f60035442612ec2565b9116600255816003556001600160a01b031960045416600455612953600554612b5e565b601f8111612997575b5060006005556040519081524260208201527f695499dddbcf53c79d9b8aa959c97a83430711a8d6eeff01acd41e09bde4add460403392a280f35b60058352601f7f036b6384b5eca791c62761152d0c79bb0604c104a5fb6f4eb0703f3154bb3db0910160051c8101905b8181106129d4575061295c565b8381556001016129c7565b506128fc6001600160a01b0360025416331490506128f3565b90503461082b578160031936011261082b5760209060ff60025460a81c1615158152f35b600435906001600160a01b0382168203612a3257565b600080fd5b60a0810190811067ffffffffffffffff8211176111a257604052565b67ffffffffffffffff81116111a257604052565b6040810190811067ffffffffffffffff8211176111a257604052565b90601f8019910116810190811067ffffffffffffffff8211176111a257604052565b67ffffffffffffffff81116111a257601f01601f191660200190565b929192612acd82612aa5565b91612adb6040519384612a83565b829481845281830111612a32578281602093846000960137010152565b9080601f83011215612a3257816020612b1393359101612ac1565b90565b60005b838110612b295750506000910152565b8181015183820152602001612b19565b90602091612b5281518092818552858086019101612b16565b601f01601f1916010190565b90600182811c92168015612b8e575b6020831014612b7857565b634e487b7160e01b600052602260045260246000fd5b91607f1691612b6d565b6040519060008260055491612bac83612b5e565b80835292600190818116908115612c345750600114612bd5575b50612bd392500383612a83565b565b6005600090815291507f036b6384b5eca791c62761152d0c79bb0604c104a5fb6f4eb0703f3154bb3db05b848310612c195750612bd3935050810160200138612bc6565b81935090816020925483858a01015201910190918592612c00565b905060209250612bd394915060ff191682840152151560051b82010138612bc6565b9060405191826000825492612c6a84612b5e565b908184526001948581169081600014612cd75750600114612c94575b5050612bd392500383612a83565b9093915060005260209081600020936000915b818310612cbf575050612bd393508201013880612c86565b85548884018501529485019487945091830191612ca7565b915050612bd394506020925060ff191682840152151560051b8201013880612c86565b906040600319830112612a32576004356001600160a01b0381168103612a3257916024359067ffffffffffffffff8211612a3257612b1391600401612af8565b15612d4157565b606460405162461bcd60e51b815260206004820152601560248201527f4e6f7420656d657267656e637920636f6e7461637400000000000000000000006044820152fd5b15612d8c57565b606460405162461bcd60e51b815260206004820152601960248201527f456d657267656e63792073797374656d2064697361626c6564000000000000006044820152fd5b15612dd757565b606460405162461bcd60e51b815260206004820152600e60248201527f496e76616c696420726561736f6e0000000000000000000000000000000000006044820152fd5b818110612e26575050565b60008155600101612e1b565b9190601f8111612e4157505050565b612bd3926000526020600020906020601f840160051c83019310612e6d575b601f0160051c0190612e1b565b9091508190612e60565b15612e7e57565b606460405162461bcd60e51b815260206004820152601560248201527f4e6f7420696e20656d657267656e6379206d6f646500000000000000000000006044820152fd5b91908203918211612ecf57565b634e487b7160e01b600052601160045260246000fd5b15612eec57565b606460405162461bcd60e51b815260206004820152600f60248201527f496e76616c6964206164647265737300000000000000000000000000000000006044820152fd5b60405190612f3d82612a67565b600c82527f66756e6374696f6e4e616d6500000000000000000000000000000000000000006020830152565b6000198114612ecf5760010190565b6001600160a01b03612f96612b139593606084526060840190612b39565b931660208201526040818403910152612b39565b805115612fb75760200190565b634e487b7160e01b600052603260045260246000fd5b805160011015612fb75760400190565b805160021015612fb75760600190565b805160031015612fb75760800190565b805160041015612fb75760a00190565b805160051015612fb75760c00190565b805160061015612fb75760e00190565b805160071015612fb7576101000190565b805160081015612fb7576101200190565b805160091015612fb7576101400190565b8051600a1015612fb7576101600190565b8051600b1015612fb7576101800190565b8051600c1015612fb7576101a00190565b8051600d1015612fb7576101c00190565b8051600e1015612fb7576101e00190565b8051600f1015612fb7576102000190565b805160101015612fb7576102200190565b156130de57565b606460405162461bcd60e51b815260206004820152600a60248201527f4f6e6c79206f776e6572000000000000000000000000000000000000000000006044820152fd5b908151811015612fb7570160200190565b6001600160a01b03166040519061314982612a67565b6010825260207f303132333435363738396162636465660000000000000000000000000000000081840152604051926060840184811067ffffffffffffffff8211176111a257604052602a84528184016040368237845115612fb75760309053835192600193841015612fb7576078602186015360005b601481106131d057505050505090565b600c8101808211612ecf5784811015612fb75782901a60047fff00000000000000000000000000000000000000000000000000000000000000600f8161321a85851c831689613122565b511693858a1b9460029087870482148815171561329a5786820180921161329a5761324f6132579493928e9260001a92613122565b531687613122565b511690600392830180931161328557509061327a613280939260001a9189613122565b53612f69565b6131c0565b601190634e487b7160e01b6000525260246000fd5b601186634e487b7160e01b6000525260246000fd5b156132b75750565b6132db9060405191829162461bcd60e51b8352602060048401526024830190612b39565b0390fd5b9060206120946039612bd394610100815115159161335d60405167024b73b30b634b2160c51b9485898301526120946036838c61332781519d8e92019d8e6028850190612b16565b81017f3a20656d70747920737472696e670000000000000000000000000000000000006028820152036016810185520183612a83565b5111159361337c60405196879360208501525180926028850190612b16565b81017f3a20737472696e6720746f6f206c6f6e670000000000000000000000000000006028820152036019810185520183612a8356fea2646970667358221220f5603a11cda77c574341b5343128e4d4e279b407ed55b862298fe8945b276cbe64736f6c63430008140033",
  "linkReferences": {},
  "deployedLinkReferences": {}
}