{
  "_format": "hh-sol-artifact-1",
  "contractName": "EmergencyManager",
  "sourceName": "contracts/system/EmergencyManager.sol",
  "abi": [
    {
      "inputs": [
        {
          "internalType": "address",
          "name": "_multisigManager",
          "type": "address"
        }
      ],
      "stateMutability": "nonpayable",
      "type": "constructor"
    },
    {
      "anonymous": false,
      "inputs": [
        {
          "indexed": true,
          "internalType": "uint256",
          "name": "actionId",
          "type": "uint256"
        },
        {
          "indexed": false,
          "internalType": "string",
          "name": "action",
          "type": "string"
        },
        {
          "indexed": false,
          "internalType": "address",
          "name": "executor",
          "type": "address"
        },
        {
          "indexed": false,
          "internalType": "string",
          "name": "reason",
          "type": "string"
        }
      ],
      "name": "EmergencyActionLogged",
      "type": "event"
    },
    {
      "anonymous": false,
      "inputs": [
        {
          "indexed": true,
          "internalType": "address",
          "name": "contact",
          "type": "address"
        },
        {
          "indexed": false,
          "internalType": "bool",
          "name": "authorized",
          "type": "bool"
        },
        {
          "indexed": false,
          "internalType": "address",
          "name": "updatedBy",
          "type": "address"
        }
      ],
      "name": "EmergencyContactUpdated",
      "type": "event"
    },
    {
      "anonymous": false,
      "inputs": [
        {
          "indexed": true,
          "internalType": "address",
          "name": "declaredBy",
          "type": "address"
        },
        {
          "indexed": false,
          "internalType": "string",
          "name": "reason",
          "type": "string"
        },
        {
          "indexed": false,
          "internalType": "uint256",
          "name": "timestamp",
          "type": "uint256"
        }
      ],
      "name": "EmergencyDeclared",
      "type": "event"
    },
    {
      "anonymous": false,
      "inputs": [
        {
          "indexed": true,
          "internalType": "string",
          "name": "functionName",
          "type": "string"
        },
        {
          "indexed": false,
          "internalType": "address",
          "name": "target",
          "type": "address"
        },
        {
          "indexed": false,
          "internalType": "address",
          "name": "executor",
          "type": "address"
        },
        {
          "indexed": false,
          "internalType": "bool",
          "name": "success",
          "type": "bool"
        },
        {
          "indexed": false,
          "internalType": "uint256",
          "name": "timestamp",
          "type": "uint256"
        }
      ],
      "name": "EmergencyOverrideExecuted",
      "type": "event"
    },
    {
      "anonymous": false,
      "inputs": [
        {
          "indexed": true,
          "internalType": "address",
          "name": "resolvedBy",
          "type": "address"
        },
        {
          "indexed": false,
          "internalType": "uint256",
          "name": "duration",
          "type": "uint256"
        },
        {
          "indexed": false,
          "internalType": "uint256",
          "name": "timestamp",
          "type": "uint256"
        }
      ],
      "name": "EmergencyResolved",
      "type": "event"
    },
    {
      "anonymous": false,
      "inputs": [
        {
          "indexed": true,
          "internalType": "address",
          "name": "signer",
          "type": "address"
        },
        {
          "indexed": false,
          "internalType": "address",
          "name": "addedBy",
          "type": "address"
        },
        {
          "indexed": false,
          "internalType": "uint256",
          "name": "timestamp",
          "type": "uint256"
        }
      ],
      "name": "EmergencySignerAdded",
      "type": "event"
    },
    {
      "anonymous": false,
      "inputs": [
        {
          "indexed": true,
          "internalType": "address",
          "name": "signer",
          "type": "address"
        },
        {
          "indexed": false,
          "internalType": "address",
          "name": "removedBy",
          "type": "address"
        },
        {
          "indexed": false,
          "internalType": "uint256",
          "name": "timestamp",
          "type": "uint256"
        }
      ],
      "name": "EmergencySignerRemoved",
      "type": "event"
    },
    {
      "anonymous": false,
      "inputs": [
        {
          "indexed": true,
          "internalType": "address",
          "name": "disabledBy",
          "type": "address"
        },
        {
          "indexed": false,
          "internalType": "uint256",
          "name": "timestamp",
          "type": "uint256"
        }
      ],
      "name": "EmergencySystemDisabled",
      "type": "event"
    },
    {
      "anonymous": false,
      "inputs": [
        {
          "indexed": true,
          "internalType": "address",
          "name": "enabledBy",
          "type": "address"
        },
        {
          "indexed": false,
          "internalType": "uint256",
          "name": "timestamp",
          "type": "uint256"
        }
      ],
      "name": "EmergencySystemEnabled",
      "type": "event"
    },
    {
      "inputs": [],
      "name": "CONTRACT_NAME",
      "outputs": [
        {
          "internalType": "string",
          "name": "",
          "type": "string"
        }
      ],
      "stateMutability": "view",
      "type": "function"
    },
    {
      "inputs": [],
      "name": "VERSION",
      "outputs": [
        {
          "internalType": "uint256",
          "name": "",
          "type": "uint256"
        }
      ],
      "stateMutability": "view",
      "type": "function"
    },
    {
      "inputs": [
        {
          "internalType": "address",
          "name": "contact",
          "type": "address"
        }
      ],
      "name": "addEmergencyContact",
      "outputs": [],
      "stateMutability": "nonpayable",
      "type": "function"
    },
    {
      "inputs": [
        {
          "internalType": "address",
          "name": "signer",
          "type": "address"
        },
        {
          "internalType": "string",
          "name": "reason",
          "type": "string"
        }
      ],
      "name": "addEmergencySigner",
      "outputs": [],
      "stateMutability": "nonpayable",
      "type": "function"
    },
    {
      "inputs": [
        {
          "internalType": "string",
          "name": "",
          "type": "string"
        }
      ],
      "name": "allowedEmergencyFunctions",
      "outputs": [
        {
          "internalType": "bool",
          "name": "",
          "type": "bool"
        }
      ],
      "stateMutability": "view",
      "type": "function"
    },
    {
      "inputs": [
        {
          "internalType": "string",
          "name": "reason",
          "type": "string"
        }
      ],
      "name": "declareEmergency",
      "outputs": [],
      "stateMutability": "nonpayable",
      "type": "function"
    },
    {
      "inputs": [],
      "name": "disableEmergencySystem",
      "outputs": [],
      "stateMutability": "nonpayable",
      "type": "function"
    },
    {
      "inputs": [],
      "name": "emergencyActionCounter",
      "outputs": [
        {
          "internalType": "uint256",
          "name": "",
          "type": "uint256"
        }
      ],
      "stateMutability": "view",
      "type": "function"
    },
    {
      "inputs": [
        {
          "internalType": "uint256",
          "name": "",
          "type": "uint256"
        }
      ],
      "name": "emergencyActions",
      "outputs": [
        {
          "internalType": "string",
          "name": "action",
          "type": "string"
        },
        {
          "internalType": "address",
          "name": "executor",
          "type": "address"
        },
        {
          "internalType": "uint256",
          "name": "timestamp",
          "type": "uint256"
        },
        {
          "internalType": "string",
          "name": "reason",
          "type": "string"
        },
        {
          "internalType": "bool",
          "name": "executed",
          "type": "bool"
        }
      ],
      "stateMutability": "view",
      "type": "function"
    },
    {
      "inputs": [
        {
          "internalType": "address",
          "name": "",
          "type": "address"
        }
      ],
      "name": "emergencyContacts",
      "outputs": [
        {
          "internalType": "bool",
          "name": "",
          "type": "bool"
        }
      ],
      "stateMutability": "view",
      "type": "function"
    },
    {
      "inputs": [],
      "name": "emergencyDeclaredAt",
      "outputs": [
        {
          "internalType": "uint256",
          "name": "",
          "type": "uint256"
        }
      ],
      "stateMutability": "view",
      "type": "function"
    },
    {
      "inputs": [],
      "name": "emergencyDeclaredBy",
      "outputs": [
        {
          "internalType": "address",
          "name": "",
          "type": "address"
        }
      ],
      "stateMutability": "view",
      "type": "function"
    },
    {
      "inputs": [
        {
          "internalType": "string",
          "name": "reason",
          "type": "string"
        }
      ],
      "name": "emergencyDisableAllMultisig",
      "outputs": [],
      "stateMutability": "nonpayable",
      "type": "function"
    },
    {
      "inputs": [],
      "name": "emergencyMode",
      "outputs": [
        {
          "internalType": "bool",
          "name": "",
          "type": "bool"
        }
      ],
      "stateMutability": "view",
      "type": "function"
    },
    {
      "inputs": [
        {
          "internalType": "string",
          "name": "functionName",
          "type": "string"
        },
        {
          "internalType": "address",
          "name": "target",
          "type": "address"
        },
        {
          "internalType": "bytes",
          "name": "data",
          "type": "bytes"
        },
        {
          "internalType": "string",
          "name": "reason",
          "type": "string"
        }
      ],
      "name": "emergencyOverride",
      "outputs": [],
      "stateMutability": "nonpayable",
      "type": "function"
    },
    {
      "inputs": [],
      "name": "emergencyReason",
      "outputs": [
        {
          "internalType": "string",
          "name": "",
          "type": "string"
        }
      ],
      "stateMutability": "view",
      "type": "function"
    },
    {
      "inputs": [
        {
          "internalType": "address",
          "name": "",
          "type": "address"
        }
      ],
      "name": "emergencySigners",
      "outputs": [
        {
          "internalType": "bool",
          "name": "",
          "type": "bool"
        }
      ],
      "stateMutability": "view",
      "type": "function"
    },
    {
      "inputs": [],
      "name": "emergencySystemEnabled",
      "outputs": [
        {
          "internalType": "bool",
          "name": "",
          "type": "bool"
        }
      ],
      "stateMutability": "view",
      "type": "function"
    },
    {
      "inputs": [],
      "name": "enableEmergencySystem",
      "outputs": [],
      "stateMutability": "nonpayable",
      "type": "function"
    },
    {
      "inputs": [
        {
          "internalType": "uint256",
          "name": "actionId",
          "type": "uint256"
        }
      ],
      "name": "getEmergencyAction",
      "outputs": [
        {
          "components": [
            {
              "internalType": "string",
              "name": "action",
              "type": "string"
            },
            {
              "internalType": "address",
              "name": "executor",
              "type": "address"
            },
            {
              "internalType": "uint256",
              "name": "timestamp",
              "type": "uint256"
            },
            {
              "internalType": "string",
              "name": "reason",
              "type": "string"
            },
            {
              "internalType": "bool",
              "name": "executed",
              "type": "bool"
            }
          ],
          "internalType": "struct EmergencyManager.EmergencyAction",
          "name": "",
          "type": "tuple"
        }
      ],
      "stateMutability": "view",
      "type": "function"
    },
    {
      "inputs": [],
      "name": "getEmergencyActionCount",
      "outputs": [
        {
          "internalType": "uint256",
          "name": "",
          "type": "uint256"
        }
      ],
      "stateMutability": "view",
      "type": "function"
    },
    {
      "inputs": [],
      "name": "getEmergencyStatus",
      "outputs": [
        {
          "internalType": "bool",
          "name": "isEmergency",
          "type": "bool"
        },
        {
          "internalType": "uint256",
          "name": "declaredAt",
          "type": "uint256"
        },
        {
          "internalType": "address",
          "name": "declaredBy",
          "type": "address"
        },
        {
          "internalType": "string",
          "name": "reason",
          "type": "string"
        },
        {
          "internalType": "uint256",
          "name": "duration",
          "type": "uint256"
        }
      ],
      "stateMutability": "view",
      "type": "function"
    },
    {
      "inputs": [],
      "name": "getEmergencySystemStatus",
      "outputs": [
        {
          "internalType": "bool",
          "name": "systemEnabled",
          "type": "bool"
        },
        {
          "internalType": "bool",
          "name": "isEmergency",
          "type": "bool"
        },
        {
          "internalType": "uint256",
          "name": "declaredAt",
          "type": "uint256"
        },
        {
          "internalType": "address",
          "name": "declaredBy",
          "type": "address"
        },
        {
          "internalType": "string",
          "name": "reason",
          "type": "string"
        },
        {
          "internalType": "uint256",
          "name": "duration",
          "type": "uint256"
        }
      ],
      "stateMutability": "view",
      "type": "function"
    },
    {
      "inputs": [
        {
          "internalType": "address",
          "name": "contact",
          "type": "address"
        }
      ],
      "name": "isEmergencyContact",
      "outputs": [
        {
          "internalType": "bool",
          "name": "",
          "type": "bool"
        }
      ],
      "stateMutability": "view",
      "type": "function"
    },
    {
      "inputs": [
        {
          "internalType": "address",
          "name": "signer",
          "type": "address"
        }
      ],
      "name": "isEmergencySigner",
      "outputs": [
        {
          "internalType": "bool",
          "name": "",
          "type": "bool"
        }
      ],
      "stateMutability": "view",
      "type": "function"
    },
    {
      "inputs": [],
      "name": "isEmergencySystemEnabled",
      "outputs": [
        {
          "internalType": "bool",
          "name": "",
          "type": "bool"
        }
      ],
      "stateMutability": "view",
      "type": "function"
    },
    {
      "inputs": [],
      "name": "multisigManager",
      "outputs": [
        {
          "internalType": "contract MultisigManager",
          "name": "",
          "type": "address"
        }
      ],
      "stateMutability": "view",
      "type": "function"
    },
    {
      "inputs": [],
      "name": "owner",
      "outputs": [
        {
          "internalType": "address",
          "name": "",
          "type": "address"
        }
      ],
      "stateMutability": "view",
      "type": "function"
    },
    {
      "inputs": [
        {
          "internalType": "address",
          "name": "contact",
          "type": "address"
        }
      ],
      "name": "removeEmergencyContact",
      "outputs": [],
      "stateMutability": "nonpayable",
      "type": "function"
    },
    {
      "inputs": [
        {
          "internalType": "address",
          "name": "signer",
          "type": "address"
        },
        {
          "internalType": "string",
          "name": "reason",
          "type": "string"
        }
      ],
      "name": "removeEmergencySigner",
      "outputs": [],
      "stateMutability": "nonpayable",
      "type": "function"
    },
    {
      "inputs": [],
      "name": "resolveEmergency",
      "outputs": [],
      "stateMutability": "nonpayable",
      "type": "function"
    },
    {
      "inputs": [
        {
          "internalType": "string",
          "name": "functionName",
          "type": "string"
        },
        {
          "internalType": "bool",
          "name": "allowed",
          "type": "bool"
        }
      ],
      "name": "setAllowedEmergencyFunction",
      "outputs": [],
      "stateMutability": "nonpayable",
      "type": "function"
    }
  ],
  "bytecode": "0x6080346200041e57601f620037e938819003918201601f191683019291906001600160401b03841183851017620004225781602092849260409687528339810103126200041e57516001600160a01b038116908190036200041e57600190815f558015620003db5760018060a01b031933816002541617600255825416178155335f526006602052815f209060ff19918183825416179055600160a01b60ff60a01b196002541617600255603883516e7570646174654b5943436f6e66696760881b8152602f600a9182600f820152208385825416179055603685517f75706461746543726564656e7469616c436f6e666967000000000000000000008152826016820152208385825416179055603685517f757064617465436f6d706c69616e6365436f6e66696700000000000000000000815282601682015220838582541617905560318551707570646174654175646974436f6e66696760781b81528260118201522083858254161790558185517f7570646174654a7572697364696374696f6e436f6e66696700000000000000008152826018820152208385825416179055603785517f7570646174654a7572697364696374696f6e52756c65730000000000000000008152826017820152208385825416179055602d85516c39b2ba29bab832b920b236b4b760991b815282600d820152208385825416179055603585517f757064617465526f6c655065726d697373696f6e7300000000000000000000008152826015820152208385825416179055603385517f736574417574686f72697a6564577269746572000000000000000000000000008152826013820152208385825416179055603385517f736574417574686f72697a6564497373756572000000000000000000000000008152826013820152208385825416179055602e85516d1c9959da5cdd195c95195b985b9d60921b815282600e820152208385825416179055603285517175706461746554656e616e74436f6e66696760701b815282601282015220838582541617905560318551703ab83230ba32aa32b730b73a20b236b4b760791b8152826011820152208385825416179055603085516f19195858dd1a5d985d1955195b985b9d60821b81528260108201522083858254161790556032855171636c6561725573657241756469744c6f677360701b81528260128201522083858254161790556031855170636c6561724f6c6441756469744c6f677360781b81528260118201522083858254161790558451907f736574416c6c6f77656443726564656e7469616c547970650000000000000000825260188201522091825416179055516133b29081620004378239f35b6064835162461bcd60e51b815260206004820152602060248201527f496e76616c6964206d756c7469736967206d616e6167657220616464726573736044820152fd5b5f80fd5b634e487b7160e01b5f52604160045260245ffdfe6080806040526004361015610012575f80fd5b5f90813560e01c9081630905f560146129de57508063133834451461130d57806315c73afd146128b25780631991b608146128945780631d5782ab1461283b5780631e8b8c52146117e55780632a3a545a146111c35780632f80123f146127b3578063324ed1981461272757806335a475c514611ecd578063410e898d14611e6a57806350f0a35214611d775780635ae4fad114611d47578063614d08f814611ce5578063651efbc6146118c15780638da5cb5b1461189a57806396f207e81461180b5780639e8cfed7146117e55780639fbdb775146117be578063a55231f414611508578063bed3c702146113bc578063bf925ce11461132b578063c664f6571461130d578063c7a04c15146112d0578063cdbef3ed14611200578063d0f694cb146111c3578063d7dcc3e814610840578063df74588514610384578063f5841a5114610247578063fa37273c146101c3578063fe7627ce1461019c5763ffa1ad741461017e575f80fd5b34610199578060031936011261019957602060405160018152f35b80fd5b503461019957806003193601126101995760206001600160a01b0360045416604051908152f35b503461019957806003193601126101995760ff60025460a81c16600354916001600160a01b036004541690825f1461023d57506102336102038442612e98565b915b61020d612b78565b90604051958695151586526020860152604085015260a0606085015260a0840190612b1b565b9060808301520390f35b6102339091610205565b503461019957806003193601126101995760025461026f6001600160a01b03821633146130a8565b60ff8160a01c166103405760ff8160a81c166102d65760ff60a01b19740100000000000000000000000000000000000000009116176002556040514281527f32ecb8fe9a0c6dc0c608bd246e191071e466345b8635a252c3137ef00820dbd160203392a280f35b608460405162461bcd60e51b815260206004820152602560248201527f43616e6e6f7420656e61626c6520647572696e672061637469766520656d657260448201527f67656e63790000000000000000000000000000000000000000000000000000006064820152fd5b606460405162461bcd60e51b815260206004820152602060248201527f456d657267656e63792073797374656d20616c726561647920656e61626c65646044820152fd5b50346101995761039336612cd3565b338352600660205260ff6040842054168015610827575b6103b390612d13565b6103d260ff6002546103c9828260a81c16612e4d565b60a01c16612d5e565b6103e66001600160a01b0383161515612eb9565b6103f281511515612da9565b826001600160a01b0360015416803b15610823578180916044604051809481936303ae718f60e41b83526001600160a01b038a166004840152600160248401525af1801561081857610800575b50506001600160a01b0382168352600760205260408320600160ff1982541617905561046c600954612f3d565b918260095561047a81613104565b6104cd603660405180937f4144445f454d455247454e43595f5349474e45523a200000000000000000000060208301526104bd8151809260208686019101612afa565b8101036016810184520182612a68565b604051906104da82612a1c565b81523360208201524260408201528260608201526001608082015283855260086020526040852090805180519067ffffffffffffffff82116107ec57819061052c826105268754612b40565b87612e0a565b602090601f8311600114610784578992610779575b50508160011b915f199060031b1c19161782555b600182016001600160a01b036020830151166001600160a01b03198254161790556040810151600283015560038201606082015180519067ffffffffffffffff8211610765576105af826105a98554612b40565b85612e0a565b60209089601f84116001146106d15794610624948461066c98956004956080957f66629eb4b2c9ae00314af0568b27913b3d4ca8fc7baa28c764c2a532fbe2604e9d9c9a926106c6575b50508160011b915f199060031b1c19161790555b0151151591019060ff801983541691151516179055565b604080513381524260208201526001600160a01b038316917f52a06ed25f89c5637810e7b0e79e8b6ee8db542ae024623778f5557d891b66e59190819081015b0390a2613104565b6106af603660405180937f4144445f454d455247454e43595f5349474e45523a200000000000000000000060208301526104bd8151809260208686019101612afa565b6106c0604051928392339084612f4b565b0390a280f35b015190505f806105f9565b50838a5260208a209190601f1984168b5b81811061074d5750946001856004956080957f66629eb4b2c9ae00314af0568b27913b3d4ca8fc7baa28c764c2a532fbe2604e9d9c9a9561066c9c996106249b10610735575b505050811b01905561060d565b01515f1960f88460031b161c191690555f8080610728565b929360206001819287860151815501950193016106e2565b602489634e487b7160e01b81526041600452fd5b015190505f80610541565b9250848952602089209089935b601f19841685106107d1576001945083601f198116106107b9575b505050811b018255610555565b01515f1960f88460031b161c191690555f80806107ac565b81810151835560209485019460019093019290910190610791565b602488634e487b7160e01b81526041600452fd5b61080990612a38565b61081457825f61043f565b8280fd5b6040513d84823e3d90fd5b5080fd5b506103b36001600160a01b0360025416331490506103aa565b50346101995760203660031901126101995760043567ffffffffffffffff811161082357610872903690600401612adc565b338252600660205260ff60408320541680156111aa575b61089290612d13565b6108a860ff6002546103c9828260a81c16612e4d565b6108b481511515612da9565b604051610240810181811067ffffffffffffffff82111761119657604052601181528290815b610220811061118057506040516108f081612a4c565b600f81527f7570646174654b5943436f6e6669670000000000000000000000000000000000602082015261092382612f7d565b5261092d81612f7d565b5060405161093a81612a4c565b601681527f75706461746543726564656e7469616c436f6e66696700000000000000000000602082015261096d82612f9e565b5261097781612f9e565b5060405161098481612a4c565b601681527f757064617465436f6d706c69616e6365436f6e6669670000000000000000000060208201526109b782612fae565b526109c181612fae565b506040516109ce81612a4c565b601181527f7570646174654175646974436f6e6669670000000000000000000000000000006020820152610a0182612fbe565b52610a0b81612fbe565b50604051610a1881612a4c565b601881527f7570646174654a7572697364696374696f6e436f6e66696700000000000000006020820152610a4b82612fce565b52610a5581612fce565b50604051610a6281612a4c565b601781527f7570646174654a7572697364696374696f6e52756c65730000000000000000006020820152610a9582612fde565b52610a9f81612fde565b50604051610aac81612a4c565b600d81527f736574537570657241646d696e000000000000000000000000000000000000006020820152610adf82612fee565b52610ae981612fee565b50604051610af681612a4c565b601581527f757064617465526f6c655065726d697373696f6e7300000000000000000000006020820152610b2982612ffe565b52610b3381612ffe565b50604051610b4081612a4c565b601381527f736574417574686f72697a6564577269746572000000000000000000000000006020820152610b738261300f565b52610b7d8161300f565b50604051610b8a81612a4c565b601381527f736574417574686f72697a6564497373756572000000000000000000000000006020820152610bbd82613020565b52610bc781613020565b50604051610bd481612a4c565b600e81527f726567697374657254656e616e740000000000000000000000000000000000006020820152610c0782613031565b52610c1181613031565b50604051610c1e81612a4c565b601281527f75706461746554656e616e74436f6e66696700000000000000000000000000006020820152610c5182613042565b52610c5b81613042565b50604051610c6881612a4c565b601181527f75706461746554656e616e7441646d696e0000000000000000000000000000006020820152610c9b82613053565b52610ca581613053565b50604051610cb281612a4c565b601081527f6465616374697661746554656e616e74000000000000000000000000000000006020820152610ce582613064565b52610cef81613064565b50604051610cfc81612a4c565b601281527f636c6561725573657241756469744c6f677300000000000000000000000000006020820152610d2f82613075565b52610d3981613075565b50604051610d4681612a4c565b601181527f636c6561724f6c6441756469744c6f67730000000000000000000000000000006020820152610d7982613086565b52610d8381613086565b50604051610d9081612a4c565b601881527f736574416c6c6f77656443726564656e7469616c5479706500000000000000006020820152610dc382613097565b52610dcd81613097565b50815b8151811015610e81576001600160a01b036001541660208260051b8401015190803b15610e7d57610e3c85929183926040519485809481937f9394fa15000000000000000000000000000000000000000000000000000000008352602060048401526024830190612b1b565b03925af1908115610e72578491610e5e575b5050610e5990612f3d565b610dd0565b610e6790612a38565b61081457825f610e4e565b6040513d86823e3d90fd5b8480fd5b505050610e8f600954612f3d565b9081600955604051610ea081612a1c565b604051610eac81612a4c565b601e81527f454d455247454e43595f44495341424c455f414c4c5f4d554c544953494700006020820152815260208101338152604082014281526060830190848252608084019260018452868852600860205260408820945180519067ffffffffffffffff821161116c578190610f2d82610f278a54612b40565b8a612e0a565b602090601f8311600114611104578b926110f9575b50508160011b915f199060031b1c19161785555b6001600160a01b03600186019151166001600160a01b031982541617905551600284015560038301905180519067ffffffffffffffff82116107ec57610fa0826105a98554612b40565b602090601f8311600114611069579361101093836106c097946004947f66629eb4b2c9ae00314af0568b27913b3d4ca8fc7baa28c764c2a532fbe2604e9a988d9261105e575b50508160011b915f199060031b1c19161790555b51151591019060ff801983541691151516179055565b60405191829160608352601e60608401527f454d455247454e43595f44495341424c455f414c4c5f4d554c54495349470000608084015233602084015260a0604084015260a0830190612b1b565b015190505f80610fe6565b838952602089209190601f1984168a5b8181106110e15750846004947f66629eb4b2c9ae00314af0568b27913b3d4ca8fc7baa28c764c2a532fbe2604e9a989461101098946106c09b98600195106110c9575b505050811b019055610ffa565b01515f1960f88460031b161c191690555f80806110bc565b92936020600181928786015181550195019301611079565b015190505f80610f42565b9250878b5260208b20908b935b601f1984168510611151576001945083601f19811610611139575b505050811b018555610f56565b01515f1960f88460031b161c191690555f808061112c565b81810151835560209485019460019093019290910190611111565b60248a634e487b7160e01b81526041600452fd5b81925060606020828194010152019083916108da565b634e487b7160e01b5f52604160045260245ffd5b506108926001600160a01b036002541633149050610889565b50346101995760203660031901126101995760ff60406020926001600160a01b036111ec612a02565b168152600784522054166040519015158152f35b50346101995760203660031901126101995761121a612a02565b6001600160a01b038060025416916112338333146130a8565b1690611240821515612eb9565b811461128c5780825260066020526040822060ff1981541690557f37fda55237b88b6087cdedf4c7caf6e6aa56d74feba1c9e637f29473511e458e60408051848152336020820152a280f35b606460405162461bcd60e51b815260206004820152601360248201527f43616e6e6f742072656d6f7665206f776e6572000000000000000000000000006044820152fd5b50346101995760203660031901126101995760ff60406020926001600160a01b036112f9612a02565b168152600684522054166040519015158152f35b50346101995780600319360112610199576020600954604051908152f35b503461019957602036600319011261019957604061139891600435815260086020522061135781612c34565b906113b06001600160a01b0360018301541660028301549260ff600461137f60038401612c34565b920154169360405196879660a0885260a0880190612b1b565b92602087015260408601528482036060860152612b1b565b90151560808301520390f35b50346101995780600319360112610199576002546113e46001600160a01b03821633146130a8565b60ff8160a01c161561149e5760ff8160a81c166114345760ff60a01b19166002556040514281527fb0bb595c3a1ba6aa3bf930bc639cd8c631a09fe1c15d388094d7212d612ffa1c60203392a280f35b608460405162461bcd60e51b815260206004820152602660248201527f43616e6e6f742064697361626c6520647572696e672061637469766520656d6560448201527f7267656e637900000000000000000000000000000000000000000000000000006064820152fd5b608460405162461bcd60e51b815260206004820152602160248201527f456d657267656e63792073797374656d20616c72656164792064697361626c6560448201527f64000000000000000000000000000000000000000000000000000000000000006064820152fd5b503461019957602090816003193601126101995767ffffffffffffffff916004358381116108145761153e903690600401612adc565b3383526006825260ff60408420541680156117a5575b61155d90612d13565b60025461156f60ff8260a01c16612d5e565b60ff8160a81c166117615760ff60a81b197501000000000000000000000000000000000000000000916115a484511515612da9565b161760025542600355336001600160a01b03196004541617600455805193841161174d5760056115d48154612b40565b601f81116116f8575b5082601f861160011461165957948085967f1a018e3bc96dc34b78be11d6dbfbb46be3b2b62d0b5e6d9d0d4404d1d2c0f59695969161164e575b508160011b915f199060031b1c19161790555b61163f60405191604083526040830190612b1b565b9242908201528033930390a280f35b90508301515f611617565b8185527f036b6384b5eca791c62761152d0c79bb0604c104a5fb6f4eb0703f3154bb3db090601f198716865b8181106116e157509187917f1a018e3bc96dc34b78be11d6dbfbb46be3b2b62d0b5e6d9d0d4404d1d2c0f596969798600194106116c9575b5050811b01905561162a565b8501515f1960f88460031b161c191690555f806116bd565b919286600181928689015181550194019201611685565b61173d90825f527f036b6384b5eca791c62761152d0c79bb0604c104a5fb6f4eb0703f3154bb3db0601f8801841c810191868910611743575b601f01841c0190612df4565b5f6115dd565b9091508190611731565b602483634e487b7160e01b81526041600452fd5b6064836040519062461bcd60e51b82526004820152601960248201527f416c726561647920696e20656d657267656e6379206d6f6465000000000000006044820152fd5b5061155d6001600160a01b036002541633149050611554565b503461019957806003193601126101995760206001600160a01b0360015416604051908152f35b5034610199578060031936011261019957602060ff60025460a01c166040519015158152f35b503461019957806003193601126101995760ff906002549061188a838360a81c16600354926001600160a01b036004541690825f14611894575061184f8442612e98565b935b611859612b78565b9260405197889760a01c1615158752151560208701526040860152606085015260c0608085015260c0840190612b1b565b9060a08301520390f35b93611851565b503461019957806003193601126101995760206001600160a01b0360025416604051908152f35b5034610199576118d036612cd3565b338352600660205260ff6040842054168015611ccc575b6118f090612d13565b61190660ff6002546103c9828260a81c16612e4d565b61191a6001600160a01b0383161515612eb9565b61192681511515612da9565b826001600160a01b0360015416803b156108235781906044604051809481936303ae718f60e41b83526001600160a01b03891660048401528160248401525af18015610e7257611cb9575b506001600160a01b038216835260076020526040832060ff19815416905561199a600954612f3d565b91826009556119a881613104565b6119fb603960405180937f52454d4f56455f454d455247454e43595f5349474e45523a200000000000000060208301526119eb8151809260208686019101612afa565b8101036019810184520182612a68565b60405190611a0882612a1c565b81523360208201524260408201528260608201526001608082015283855260086020526040852090805180519067ffffffffffffffff82116107ec578190611a54826105268754612b40565b602090601f8311600114611c51578992611c46575b50508160011b915f199060031b1c19161782555b600182016001600160a01b036020830151166001600160a01b03198254161790556040810151600283015560038201606082015180519067ffffffffffffffff821161076557611ad1826105a98554612b40565b60209089601f8411600114611bcb5794611b449484611b8898956004956080957f66629eb4b2c9ae00314af0568b27913b3d4ca8fc7baa28c764c2a532fbe2604e9d9c9a926106c65750508160011b915f199060031b1c19161790550151151591019060ff801983541691151516179055565b604080513381524260208201526001600160a01b038316917f785e6a4aa4be18bd5535f680d1f80285b141e7f43ea6706f9ab4d61971efa510919081908101610664565b6106af603960405180937f52454d4f56455f454d455247454e43595f5349474e45523a200000000000000060208301526119eb8151809260208686019101612afa565b50838a5260208a209190601f1984168b5b818110611c2e5750946001856004956080957f66629eb4b2c9ae00314af0568b27913b3d4ca8fc7baa28c764c2a532fbe2604e9d9c9a95611b889c99611b449b1061073557505050811b01905561060d565b92936020600181928786015181550195019301611bdc565b015190505f80611a69565b9250848952602089209089935b601f1984168510611c9e576001945083601f19811610611c86575b505050811b018255611a7d565b01515f1960f88460031b161c191690555f8080611c79565b81810151835560209485019460019093019290910190611c5e565b611cc590939193612a38565b915f611971565b506118f06001600160a01b0360025416331490506118e7565b5034610199578060031936011261019957611d43604051611d0581612a4c565b601081527f456d657267656e63794d616e61676572000000000000000000000000000000006020820152604051918291602083526020830190612b1b565b0390f35b5034610199578060031936011261019957611d43611d63612b78565b604051918291602083526020830190612b1b565b5034610199576020806003193601126108235760408260a09360808351611d9d81612a1c565b606081528286820152828582015260608082015201526004358152600883522090611e5d60405192611dce84612a1c565b611dd781612c34565b84526001600160a01b0390816001820154169184860192835260028201549060408701918252611e3d60ff6004611e1060038701612c34565b9560608b0196875201541696608089019715158852604051998a99828b5251918a015260c0890190612b1b565b935116604087015251606086015251848203601f19016080860152612b1b565b9051151560a08301520390f35b5034610199576020366003190112610199576004359067ffffffffffffffff821161019957602060ff611eb782611ea43660048801612adc565b8160405193828580945193849201612afa565b8101600a81520301902054166040519015158152f35b50346101995760803660031901126101995760043567ffffffffffffffff811161082357611eff903690600401612adc565b90602435916001600160a01b03831683036108235760443567ffffffffffffffff8111610814573660238201121561081457611f45903690602481600401359101612aa6565b9060643567ffffffffffffffff811161272357611f66903690600401612adc565b91338452600660205260ff604085205416801561270a575b611f8790612d13565b611f9d60ff6002546103c9828260a81c16612e4d565b6001600160a01b0385161515611fb281612eb9565b60028554146126c6576121d49060028655611fd4611fce612f04565b856132a9565b7f3a207a65726f20616464726573730000000000000000000000000000000000006120e361209c6120d1603860405161200c81612a4c565b60068152602081017f7461726765740000000000000000000000000000000000000000000000000000815261208460405167024b73b30b634b2160c51b998a602083015261207f603683875160289d818f9261206b908486018c612afa565b830191820152036016810185520183612a68565b613279565b60405194859289602085015251809289850190612afa565b81017f3a2063616e6e6f742062652073656c660000000000000000000000000000000087820152036018810184520182612a68565b306001600160a01b038b161415613279565b61207f6038604051936120f585612a4c565b6004855260208501937f6461746100000000000000000000000000000000000000000000000000000000855261217d885115156040519084602083015261207f6035838b51612148818d8a850190612afa565b81017f3a20656d7074792062797465730000000000000000000000000000000000000088820152036015810185520183612a68565b7f3a20627974657320746f6f206c6f6e670000000000000000000000000000000061040089511115956121c0604051988995602087015251809285870190612afa565b830191820152036018810185520183612a68565b6122136040516121e381612a4c565b600681527f726561736f6e00000000000000000000000000000000000000000000000000006020820152846132a9565b60ff604051602081855161222a8183858a01612afa565b8101600a81520301902054161561265c5783816020829351910182885af1913d15612657573d61225981612a8a565b906122676040519283612a68565b81528460203d92013e5b61227c600954612f3d565b9182600955604051957f454d455247454e43595f4f564552524944453a2000000000000000000000000060208801526122d360348884516122c38184840160208901612afa565b810103601481018a520188612a68565b604051966122e088612a1c565b87523360208801524260408801528260608801528415156080880152838652600860205260408620875180519067ffffffffffffffff82116107655781906123328261232c8654612b40565b86612e0a565b602090601f83116001146125ef578a926125e4575b50508160011b915f199060031b1c19161781555b600181016001600160a01b0360208a0151166001600160a01b031982541617905560408801516002820155606088015197885167ffffffffffffffff8111610765576123b7816123ae6003860154612b40565b60038601612e0a565b6020601f821160011461254c576124299392826004936080938d9e7f66629eb4b2c9ae00314af0568b27913b3d4ca8fc7baa28c764c2a532fbe2604e9c9d9e92612541575b50508160011b915f199060031b1c19161760038501550151151591019060ff801983541691151516179055565b7fc91509e0d556ad24ac29cb3153945721052c705d58662b73bb72de867fb132b46080604051808551612460818360208a01612afa565b8101039020926001600160a01b03604051911681523360208201528815156040820152426060820152a26124dd603460405180937f454d455247454e43595f4f564552524944453a2000000000000000000000000060208301526124cd8151809260208686019101612afa565b8101036014810184520182612a68565b6124ee604051928392339084612f4b565b0390a2156124fd576001815580f35b606460405162461bcd60e51b815260206004820152601960248201527f456d657267656e6379206f76657272696465206661696c6564000000000000006044820152fd5b015190505f806123fc565b600384018a5260208a209a8a5b601f19841681106125cc5750926001837f66629eb4b2c9ae00314af0568b27913b3d4ca8fc7baa28c764c2a532fbe2604e9a9b9c9d6080946124299897600497601f198116106125b4575b505050811b01600385015561060d565b01515f1960f88460031b161c191690555f80806125a4565b828201518d556001909c019b60209283019201612559565b015190505f80612347565b9250838a5260208a20908a935b601f198416851061263c576001945083601f19811610612624575b505050811b01815561235b565b01515f1960f88460031b161c191690555f8080612617565b818101518355602094850194600190930192909101906125fc565b612271565b608460405162461bcd60e51b815260206004820152602160248201527f46756e6374696f6e206e6f7420616c6c6f77656420696e20656d657267656e6360448201527f79000000000000000000000000000000000000000000000000000000000000006064820152fd5b606460405162461bcd60e51b815260206004820152601f60248201527f5265656e7472616e637947756172643a207265656e7472616e742063616c6c006044820152fd5b50611f876001600160a01b036002541633149050611f7e565b8380fd5b50346101995760403660031901126101995760043567ffffffffffffffff811161082357612759903690600401612adc565b60243580151581036108145761279560206127b0936127846001600160a01b036002541633146130a8565b611ea461278f612f04565b826132a9565b8101600a8152030190209060ff801983541691151516179055565b80f35b5034610199576020366003190112610199576127cd612a02565b6001600160a01b03906127e5826002541633146130a8565b166127f1811515612eb9565b808252600660205260408220600160ff198254161790557f37fda55237b88b6087cdedf4c7caf6e6aa56d74feba1c9e637f29473511e458e6040805160018152336020820152a280f35b5034610199576020366003190112610199576020906001600160a01b039060ff604083612866612a02565b169283815260068652205416918215612886575b50506040519015158152f35b600254161490505f8061287a565b50346101995780600319360112610199576020600354604051908152f35b5034610199578060031936011261019957338152600660205260ff60408220541680156129c5575b6128e390612d13565b6002546128f560ff8260a81c16612e4d565b61290460ff8260a01c16612d5e565b60ff60a81b1961291660035442612e98565b9116600255816003556001600160a01b03196004541660045561293a600554612b40565b601f811161297d575b505f6005556040519081524260208201527f695499dddbcf53c79d9b8aa959c97a83430711a8d6eeff01acd41e09bde4add460403392a280f35b60058352601f7f036b6384b5eca791c62761152d0c79bb0604c104a5fb6f4eb0703f3154bb3db0910160051c8101905b8181106129ba5750612943565b8381556001016129ad565b506128e36001600160a01b0360025416331490506128da565b90503461082357816003193601126108235760209060ff60025460a81c1615158152f35b600435906001600160a01b0382168203612a1857565b5f80fd5b60a0810190811067ffffffffffffffff82111761119657604052565b67ffffffffffffffff811161119657604052565b6040810190811067ffffffffffffffff82111761119657604052565b90601f8019910116810190811067ffffffffffffffff82111761119657604052565b67ffffffffffffffff811161119657601f01601f191660200190565b929192612ab282612a8a565b91612ac06040519384612a68565b829481845281830111612a18578281602093845f960137010152565b9080601f83011215612a1857816020612af793359101612aa6565b90565b5f5b838110612b0b5750505f910152565b8181015183820152602001612afc565b90602091612b3481518092818552858086019101612afa565b601f01601f1916010190565b90600182811c92168015612b6e575b6020831014612b5a57565b634e487b7160e01b5f52602260045260245ffd5b91607f1691612b4f565b604051905f8260055491612b8b83612b40565b80835292600190818116908115612c125750600114612bb4575b50612bb292500383612a68565b565b60055f90815291507f036b6384b5eca791c62761152d0c79bb0604c104a5fb6f4eb0703f3154bb3db05b848310612bf75750612bb293505081016020015f612ba5565b81935090816020925483858a01015201910190918592612bde565b905060209250612bb294915060ff191682840152151560051b8201015f612ba5565b9060405191825f825492612c4784612b40565b9081845260019485811690815f14612cb05750600114612c70575b5050612bb292500383612a68565b909391505f52602090815f20935f915b818310612c98575050612bb293508201015f80612c62565b85548884018501529485019487945091830191612c80565b915050612bb294506020925060ff191682840152151560051b8201015f80612c62565b906040600319830112612a18576004356001600160a01b0381168103612a1857916024359067ffffffffffffffff8211612a1857612af791600401612adc565b15612d1a57565b606460405162461bcd60e51b815260206004820152601560248201527f4e6f7420656d657267656e637920636f6e7461637400000000000000000000006044820152fd5b15612d6557565b606460405162461bcd60e51b815260206004820152601960248201527f456d657267656e63792073797374656d2064697361626c6564000000000000006044820152fd5b15612db057565b606460405162461bcd60e51b815260206004820152600e60248201527f496e76616c696420726561736f6e0000000000000000000000000000000000006044820152fd5b818110612dff575050565b5f8155600101612df4565b9190601f8111612e1957505050565b612bb2925f5260205f20906020601f840160051c83019310612e43575b601f0160051c0190612df4565b9091508190612e36565b15612e5457565b606460405162461bcd60e51b815260206004820152601560248201527f4e6f7420696e20656d657267656e6379206d6f646500000000000000000000006044820152fd5b91908203918211612ea557565b634e487b7160e01b5f52601160045260245ffd5b15612ec057565b606460405162461bcd60e51b815260206004820152600f60248201527f496e76616c6964206164647265737300000000000000000000000000000000006044820152fd5b60405190612f1182612a4c565b600c82527f66756e6374696f6e4e616d6500000000000000000000000000000000000000006020830152565b5f198114612ea55760010190565b6001600160a01b03612f69612af79593606084526060840190612b1b565b931660208201526040818403910152612b1b565b805115612f8a5760200190565b634e487b7160e01b5f52603260045260245ffd5b805160011015612f8a5760400190565b805160021015612f8a5760600190565b805160031015612f8a5760800190565b805160041015612f8a5760a00190565b805160051015612f8a5760c00190565b805160061015612f8a5760e00190565b805160071015612f8a576101000190565b805160081015612f8a576101200190565b805160091015612f8a576101400190565b8051600a1015612f8a576101600190565b8051600b1015612f8a576101800190565b8051600c1015612f8a576101a00190565b8051600d1015612f8a576101c00190565b8051600e1015612f8a576101e00190565b8051600f1015612f8a576102000190565b805160101015612f8a576102200190565b156130af57565b606460405162461bcd60e51b815260206004820152600a60248201527f4f6e6c79206f776e6572000000000000000000000000000000000000000000006044820152fd5b908151811015612f8a570160200190565b6001600160a01b03166040519061311a82612a4c565b6010825260207f303132333435363738396162636465660000000000000000000000000000000081840152604051926060840184811067ffffffffffffffff82111761119657604052602a84528184016040368237845115612f8a5760309053835192600193841015612f8a57607860218601535f5b601481106131a057505050505090565b600c8101808211612ea55784811015612f8a5782901a60047fff00000000000000000000000000000000000000000000000000000000000000600f816131ea85851c8316896130f3565b511693858a1b94600290878704821488151715613266578682018092116132665761321e6132269493928e925f1a926130f3565b5316876130f3565b511690600392830180931161325357509061324861324e93925f1a91896130f3565b53612f3d565b613190565b601190634e487b7160e01b5f525260245ffd5b601186634e487b7160e01b5f525260245ffd5b156132815750565b6132a59060405191829162461bcd60e51b8352602060048401526024830190612b1b565b0390fd5b90602061207f6039612bb294610100815115159161332760405167024b73b30b634b2160c51b94858983015261207f6036838c6132f181519d8e92019d8e6028850190612afa565b81017f3a20656d70747920737472696e670000000000000000000000000000000000006028820152036016810185520183612a68565b5111159361334660405196879360208501525180926028850190612afa565b81017f3a20737472696e6720746f6f206c6f6e670000000000000000000000000000006028820152036019810185520183612a6856fea26469706673582212208df7291c5d1b95a2ad0d769cb459998f05fdc2d6d1cafd4656e578cd357adb3764736f6c63430008140033",
  "linkReferences": {},
  "deployedLinkReferences": {}
}