{
  "_format": "hh-sol-artifact-1",
  "contractName": "JurisdictionConfig",
  "sourceName": "contracts/utility/JurisdictionConfig.sol",
  "abi": [
    {
      "inputs": [],
      "stateMutability": "nonpayable",
      "type": "constructor"
    },
    {
      "anonymous": false,
      "inputs": [
        {
          "indexed": true,
          "internalType": "address",
          "name": "writer",
          "type": "address"
        },
        {
          "indexed": false,
          "internalType": "bool",
          "name": "authorized",
          "type": "bool"
        }
      ],
      "name": "AuthorizedWriterUpdated",
      "type": "event"
    },
    {
      "anonymous": false,
      "inputs": [
        {
          "indexed": true,
          "internalType": "string",
          "name": "ruleId",
          "type": "string"
        },
        {
          "indexed": false,
          "internalType": "enum JurisdictionConfig.Jurisdiction",
          "name": "fromJurisdiction",
          "type": "uint8"
        },
        {
          "indexed": false,
          "internalType": "enum JurisdictionConfig.Jurisdiction",
          "name": "toJurisdiction",
          "type": "uint8"
        }
      ],
      "name": "CrossJurisdictionRuleCreated",
      "type": "event"
    },
    {
      "anonymous": false,
      "inputs": [
        {
          "indexed": true,
          "internalType": "string",
          "name": "ruleId",
          "type": "string"
        },
        {
          "indexed": false,
          "internalType": "bool",
          "name": "isActive",
          "type": "bool"
        }
      ],
      "name": "CrossJurisdictionRuleUpdated",
      "type": "event"
    },
    {
      "anonymous": false,
      "inputs": [
        {
          "indexed": true,
          "internalType": "enum JurisdictionConfig.Jurisdiction",
          "name": "jurisdiction",
          "type": "uint8"
        },
        {
          "indexed": false,
          "internalType": "enum JurisdictionConfig.ComplianceLevel",
          "name": "complianceLevel",
          "type": "uint8"
        }
      ],
      "name": "JurisdictionSettingsUpdated",
      "type": "event"
    },
    {
      "inputs": [
        {
          "internalType": "address",
          "name": "",
          "type": "address"
        }
      ],
      "name": "authorizedWriters",
      "outputs": [
        {
          "internalType": "bool",
          "name": "",
          "type": "bool"
        }
      ],
      "stateMutability": "view",
      "type": "function"
    },
    {
      "inputs": [
        {
          "internalType": "enum JurisdictionConfig.Jurisdiction",
          "name": "fromJurisdiction",
          "type": "uint8"
        },
        {
          "internalType": "enum JurisdictionConfig.Jurisdiction",
          "name": "toJurisdiction",
          "type": "uint8"
        }
      ],
      "name": "checkCrossJurisdictionCompliance",
      "outputs": [
        {
          "internalType": "bool",
          "name": "requiresReVerification",
          "type": "bool"
        },
        {
          "internalType": "uint256",
          "name": "validityPeriod",
          "type": "uint256"
        }
      ],
      "stateMutability": "view",
      "type": "function"
    },
    {
      "inputs": [
        {
          "internalType": "string",
          "name": "ruleId",
          "type": "string"
        },
        {
          "internalType": "enum JurisdictionConfig.Jurisdiction",
          "name": "fromJurisdiction",
          "type": "uint8"
        },
        {
          "internalType": "enum JurisdictionConfig.Jurisdiction",
          "name": "toJurisdiction",
          "type": "uint8"
        },
        {
          "internalType": "bool",
          "name": "requiresReVerification",
          "type": "bool"
        },
        {
          "internalType": "uint256",
          "name": "validityPeriod",
          "type": "uint256"
        },
        {
          "internalType": "string",
          "name": "description",
          "type": "string"
        }
      ],
      "name": "createCrossJurisdictionRule",
      "outputs": [],
      "stateMutability": "nonpayable",
      "type": "function"
    },
    {
      "inputs": [
        {
          "internalType": "uint256",
          "name": "",
          "type": "uint256"
        }
      ],
      "name": "crossJurisdictionRuleIds",
      "outputs": [
        {
          "internalType": "string",
          "name": "",
          "type": "string"
        }
      ],
      "stateMutability": "view",
      "type": "function"
    },
    {
      "inputs": [
        {
          "internalType": "string",
          "name": "",
          "type": "string"
        }
      ],
      "name": "crossJurisdictionRules",
      "outputs": [
        {
          "internalType": "bool",
          "name": "isActive",
          "type": "bool"
        },
        {
          "internalType": "enum JurisdictionConfig.Jurisdiction",
          "name": "fromJurisdiction",
          "type": "uint8"
        },
        {
          "internalType": "enum JurisdictionConfig.Jurisdiction",
          "name": "toJurisdiction",
          "type": "uint8"
        },
        {
          "internalType": "bool",
          "name": "requiresReVerification",
          "type": "bool"
        },
        {
          "internalType": "uint256",
          "name": "validityPeriod",
          "type": "uint256"
        },
        {
          "internalType": "string",
          "name": "description",
          "type": "string"
        }
      ],
      "stateMutability": "view",
      "type": "function"
    },
    {
      "inputs": [
        {
          "internalType": "enum JurisdictionConfig.Jurisdiction",
          "name": "jurisdiction",
          "type": "uint8"
        }
      ],
      "name": "getComplianceLevel",
      "outputs": [
        {
          "internalType": "enum JurisdictionConfig.ComplianceLevel",
          "name": "complianceLevel",
          "type": "uint8"
        }
      ],
      "stateMutability": "view",
      "type": "function"
    },
    {
      "inputs": [
        {
          "internalType": "string",
          "name": "ruleId",
          "type": "string"
        }
      ],
      "name": "getCrossJurisdictionRule",
      "outputs": [
        {
          "components": [
            {
              "internalType": "bool",
              "name": "isActive",
              "type": "bool"
            },
            {
              "internalType": "enum JurisdictionConfig.Jurisdiction",
              "name": "fromJurisdiction",
              "type": "uint8"
            },
            {
              "internalType": "enum JurisdictionConfig.Jurisdiction",
              "name": "toJurisdiction",
              "type": "uint8"
            },
            {
              "internalType": "bool",
              "name": "requiresReVerification",
              "type": "bool"
            },
            {
              "internalType": "uint256",
              "name": "validityPeriod",
              "type": "uint256"
            },
            {
              "internalType": "string",
              "name": "description",
              "type": "string"
            }
          ],
          "internalType": "struct JurisdictionConfig.CrossJurisdictionRule",
          "name": "rule",
          "type": "tuple"
        }
      ],
      "stateMutability": "view",
      "type": "function"
    },
    {
      "inputs": [],
      "name": "getCrossJurisdictionRuleIds",
      "outputs": [
        {
          "internalType": "string[]",
          "name": "ruleIds",
          "type": "string[]"
        }
      ],
      "stateMutability": "view",
      "type": "function"
    },
    {
      "inputs": [
        {
          "internalType": "enum JurisdictionConfig.Jurisdiction",
          "name": "jurisdiction",
          "type": "uint8"
        }
      ],
      "name": "getJurisdictionSettings",
      "outputs": [
        {
          "components": [
            {
              "internalType": "bool",
              "name": "isActive",
              "type": "bool"
            },
            {
              "internalType": "enum JurisdictionConfig.ComplianceLevel",
              "name": "complianceLevel",
              "type": "uint8"
            },
            {
              "internalType": "uint256",
              "name": "minAge",
              "type": "uint256"
            },
            {
              "internalType": "uint256",
              "name": "maxAge",
              "type": "uint256"
            },
            {
              "internalType": "bool",
              "name": "requiresBiometric",
              "type": "bool"
            },
            {
              "internalType": "bool",
              "name": "requiresAddressProof",
              "type": "bool"
            },
            {
              "internalType": "bool",
              "name": "requiresIncomeProof",
              "type": "bool"
            },
            {
              "internalType": "uint256",
              "name": "maxTransactionLimit",
              "type": "uint256"
            },
            {
              "internalType": "uint256",
              "name": "dailyLimit",
              "type": "uint256"
            },
            {
              "internalType": "uint256",
              "name": "monthlyLimit",
              "type": "uint256"
            },
            {
              "internalType": "uint256",
              "name": "kycValidityPeriod",
              "type": "uint256"
            },
            {
              "internalType": "string[]",
              "name": "requiredDocuments",
              "type": "string[]"
            },
            {
              "internalType": "string[]",
              "name": "allowedCountries",
              "type": "string[]"
            },
            {
              "internalType": "string",
              "name": "description",
              "type": "string"
            }
          ],
          "internalType": "struct JurisdictionConfig.JurisdictionSettings",
          "name": "settings",
          "type": "tuple"
        }
      ],
      "stateMutability": "view",
      "type": "function"
    },
    {
      "inputs": [],
      "name": "getSupportedJurisdictions",
      "outputs": [
        {
          "internalType": "enum JurisdictionConfig.Jurisdiction[]",
          "name": "jurisdictions",
          "type": "uint8[]"
        }
      ],
      "stateMutability": "view",
      "type": "function"
    },
    {
      "inputs": [
        {
          "internalType": "address",
          "name": "writer",
          "type": "address"
        }
      ],
      "name": "isAuthorizedWriter",
      "outputs": [
        {
          "internalType": "bool",
          "name": "",
          "type": "bool"
        }
      ],
      "stateMutability": "view",
      "type": "function"
    },
    {
      "inputs": [
        {
          "internalType": "enum JurisdictionConfig.Jurisdiction",
          "name": "jurisdiction",
          "type": "uint8"
        }
      ],
      "name": "isJurisdictionActive",
      "outputs": [
        {
          "internalType": "bool",
          "name": "",
          "type": "bool"
        }
      ],
      "stateMutability": "view",
      "type": "function"
    },
    {
      "inputs": [
        {
          "internalType": "enum JurisdictionConfig.Jurisdiction",
          "name": "",
          "type": "uint8"
        }
      ],
      "name": "jurisdictionSettings",
      "outputs": [
        {
          "internalType": "bool",
          "name": "isActive",
          "type": "bool"
        },
        {
          "internalType": "enum JurisdictionConfig.ComplianceLevel",
          "name": "complianceLevel",
          "type": "uint8"
        },
        {
          "internalType": "uint256",
          "name": "minAge",
          "type": "uint256"
        },
        {
          "internalType": "uint256",
          "name": "maxAge",
          "type": "uint256"
        },
        {
          "internalType": "bool",
          "name": "requiresBiometric",
          "type": "bool"
        },
        {
          "internalType": "bool",
          "name": "requiresAddressProof",
          "type": "bool"
        },
        {
          "internalType": "bool",
          "name": "requiresIncomeProof",
          "type": "bool"
        },
        {
          "internalType": "uint256",
          "name": "maxTransactionLimit",
          "type": "uint256"
        },
        {
          "internalType": "uint256",
          "name": "dailyLimit",
          "type": "uint256"
        },
        {
          "internalType": "uint256",
          "name": "monthlyLimit",
          "type": "uint256"
        },
        {
          "internalType": "uint256",
          "name": "kycValidityPeriod",
          "type": "uint256"
        },
        {
          "internalType": "string",
          "name": "description",
          "type": "string"
        }
      ],
      "stateMutability": "view",
      "type": "function"
    },
    {
      "inputs": [],
      "name": "owner",
      "outputs": [
        {
          "internalType": "address",
          "name": "",
          "type": "address"
        }
      ],
      "stateMutability": "view",
      "type": "function"
    },
    {
      "inputs": [
        {
          "internalType": "address",
          "name": "writer",
          "type": "address"
        },
        {
          "internalType": "bool",
          "name": "authorized",
          "type": "bool"
        }
      ],
      "name": "setAuthorizedWriter",
      "outputs": [],
      "stateMutability": "nonpayable",
      "type": "function"
    },
    {
      "inputs": [
        {
          "internalType": "uint256",
          "name": "",
          "type": "uint256"
        }
      ],
      "name": "supportedJurisdictions",
      "outputs": [
        {
          "internalType": "enum JurisdictionConfig.Jurisdiction",
          "name": "",
          "type": "uint8"
        }
      ],
      "stateMutability": "view",
      "type": "function"
    },
    {
      "inputs": [
        {
          "internalType": "string",
          "name": "ruleId",
          "type": "string"
        },
        {
          "internalType": "bool",
          "name": "isActive",
          "type": "bool"
        }
      ],
      "name": "updateCrossJurisdictionRule",
      "outputs": [],
      "stateMutability": "nonpayable",
      "type": "function"
    },
    {
      "inputs": [
        {
          "internalType": "enum JurisdictionConfig.Jurisdiction",
          "name": "jurisdiction",
          "type": "uint8"
        },
        {
          "components": [
            {
              "internalType": "bool",
              "name": "isActive",
              "type": "bool"
            },
            {
              "internalType": "enum JurisdictionConfig.ComplianceLevel",
              "name": "complianceLevel",
              "type": "uint8"
            },
            {
              "internalType": "uint256",
              "name": "minAge",
              "type": "uint256"
            },
            {
              "internalType": "uint256",
              "name": "maxAge",
              "type": "uint256"
            },
            {
              "internalType": "bool",
              "name": "requiresBiometric",
              "type": "bool"
            },
            {
              "internalType": "bool",
              "name": "requiresAddressProof",
              "type": "bool"
            },
            {
              "internalType": "bool",
              "name": "requiresIncomeProof",
              "type": "bool"
            },
            {
              "internalType": "uint256",
              "name": "maxTransactionLimit",
              "type": "uint256"
            },
            {
              "internalType": "uint256",
              "name": "dailyLimit",
              "type": "uint256"
            },
            {
              "internalType": "uint256",
              "name": "monthlyLimit",
              "type": "uint256"
            },
            {
              "internalType": "uint256",
              "name": "kycValidityPeriod",
              "type": "uint256"
            },
            {
              "internalType": "string[]",
              "name": "requiredDocuments",
              "type": "string[]"
            },
            {
              "internalType": "string[]",
              "name": "allowedCountries",
              "type": "string[]"
            },
            {
              "internalType": "string",
              "name": "description",
              "type": "string"
            }
          ],
          "internalType": "struct JurisdictionConfig.JurisdictionSettings",
          "name": "settings",
          "type": "tuple"
        }
      ],
      "name": "updateJurisdictionSettings",
      "outputs": [],
      "stateMutability": "nonpayable",
      "type": "function"
    }
  ],
  "bytecode": "0x608034620023315760015f81815581546001600160a01b0319163390811783558152600260205260409020805460ff1916909117905560a081016001600160401b0381118282101762000f47576040525f8152600160208201526002604082015260036060820152600460808201526005546005805580600510620022c5575b5060055f5260205f205f915f5b600581106200229557505055620000a26200238e565b620000ac620023bf565b620000b662002335565b91600183526001602084015260126040840152606460608401525f6080840152600160a08401525f60c084015269d3c21bcecceda100000060e084015269021e19e0c9bab240000061010084015269152d02c7e14af680000061012084015261016d6101408401526101608301526101808201526200013462002356565b602981527f554b204b594320726571756972656d656e747320756e6465722046434120726560208201526867756c6174696f6e7360b81b60408201526101a08201525f8052600360205260405f20906200019d81511515839060ff801983541691151516179055565b60208101516004811015620012915761ff0083549160081b169061ff0019161782556040810151600183015560608101516002830155620001f360808201511515600384019060ff801983541691151516179055565b60a08101511515600383015461ff0062ff000060c0850151151560101b169260081b169062ffff0019161717600383015560e0810151600483015561010081015160058301556101208101516006830155610140810151600783015561016081015180519068010000000000000000821162000f4757600884015482600886015580831062002215575b5060200190600884015f5260205f20915f905b828210620020f757858561018081015180519068010000000000000000821162000f4757600984015482600986015580831062002077575b5060200190600984015f5260205f20915f905b82821062001f59576101a0850151805187916001600160401b03821162000f47576200030b600a84015462002406565b601f811162001f22575b50602090601f831160011462001eb157600a92915f918362001ea5575b50508160011b915f199060031b1c1916179101555b6040516001600160401b03608082019081119082111762000f475760808101604052600381525f5b6060811062001e9357506040516001600160401b0361038082019081119082111762000f47576103808101604052601b81525f5b610360811062001e815750620003b862002335565b916001835260026020840152601260408401526064606084015260016080840152600160a0840152600160c08401526969e10de76676d080000060e084015269010f0cf064dd59200000610100840152690a968163f0a57b4000006101208401526102da6101408401526101608301526101808201526200043862002356565b602b81527f4555204b594320726571756972656d656e747320756e64657220414d4c44352060208201526a726567756c6174696f6e7360a81b60408201526101a082015260015f52600360205260405f2090620004a481511515839060ff801983541691151516179055565b60208101516004811015620012915761ff0083549160081b169061ff001916178255604081015160018301556060810151600283015560038201620004fb60808301511515829060ff801983541691151516179055565b60a08201511515815461ff0062ff000060c0860151151560101b169260081b169062ffff0019161717905560e0810151600483015561010081015160058301556101208101516006830155610140810151600783015561016081015180519068010000000000000000821162000f4757600884015482600886015580831062001e02575b5060200190600884015f5260205f20915f905b82821062001ce457858561018081015180519068010000000000000000821162000f4757600984015482600986015580831062001c65575b5060200190600984015f5260205f20915f905b82821062001b47576101a0850151805187916001600160401b03821162000f47576200060d600a84015462002406565b601f811162001b10575b50602090601f831160011462001a9f57600a92915f918362001a93575b50508160011b915f199060031b1c1916179101555b6040516001600160401b0360a082019081119082111762000f475760a08101604052600481525f5b6080811062001a81575062000685620023bf565b6200068f62002335565b916001835260036020840152601260408401526064606084015260016080840152600160a0840152600160c08401526a084595161401484a00000060e084015269152d02c7e14af680000061010084015269d3c21bcecceda100000061012084015261016d6101408401526101608301526101808201526200071062002356565b602d81527f5553204b594320726571756972656d656e747320756e646572204253412f414d60208201526c4c20726567756c6174696f6e7360981b60408201526101a082015260025f52600360205260405f20906200077e81511515839060ff801983541691151516179055565b60208101516004811015620012915761ff0083549160081b169061ff001916178255604081015160018301556060810151600283015560038201620007d560808301511515829060ff801983541691151516179055565b60a08201511515815461ff0062ff000060c0860151151560101b169260081b169062ffff0019161717905560e0810151600483015561010081015160058301556101208101516006830155610140810151600783015561016081015180519068010000000000000000821162000f4757600884015482600886015580831062001a02575b5060200190600884015f5260205f20915f905b828210620018e457858561018081015180519068010000000000000000821162000f4757600984015482600986015580831062001865575b5060200190600984015f5260205f20915f905b82821062001747576101a0850151805187916001600160401b03821162000f4757620008e7600a84015462002406565b601f811162001710575b50602090601f83116001146200169f57600a92915f918362001693575b50508160011b915f199060031b1c1916179101555b6200092d6200238e565b62000937620023bf565b6200094162002335565b91600183526001602084015260126040840152606460608401525f6080840152600160a08401525f60c08401526a0422ca8b0a00a42500000060e0840152690a968163f0a57b4000006101008401526969e10de76676d080000061012084015261016d610140840152610160830152610180820152620009c062002356565b603481527f4175737472616c6961204b594320726571756972656d656e747320756e64657260208201527f204155535452414320726567756c6174696f6e7300000000000000000000000060408201526101a082015260035f52600360205260405f209062000a3e81511515839060ff801983541691151516179055565b60208101516004811015620012915761ff0083549160081b169061ff00191617825560408101516001830155606081015160028301556003820162000a9560808301511515829060ff801983541691151516179055565b60a08201511515815461ff0062ff000060c0860151151560101b169260081b169062ffff0019161717905560e0810151600483015561010081015160058301556101208101516006830155610140810151600783015561016081015180519068010000000000000000821162000f4757600884015482600886015580831062001614575b5060200190600884015f5260205f20915f905b828210620014f657858561018081015180519068010000000000000000821162000f4757600984015482600986015580831062001477575b5060200190600984015f5260205f20915f905b82821062001359576101a0850151805187916001600160401b03821162000f475762000ba7600a84015462002406565b601f811162001322575b50602090601f8311600114620012b157600a92915f9183620012a5575b50508160011b915f199060031b1c1916179101555b62000bed6200238e565b62000bf7620023bf565b62000c0162002335565b91600183525f602084015260126040840152606460608401525f6080840152600160a08401525f60c084015269d3c21bcecceda100000060e084015269021e19e0c9bab240000061010084015269152d02c7e14af680000061012084015261016d61014084015261016083015261018082015262000c7e62002356565b602b81527f536f75746820416672696361204b594320726571756972656d656e747320756e60208201526a19195c88119250c81058dd60aa1b60408201526101a082015260045f52600360205260405f2062000ce982511515829060ff801983541691151516179055565b60208201516004811015620012915761ff0082549160081b169061ff00191617815560408201516001820155606082015160028201556003810162000d4060808401511515829060ff801983541691151516179055565b60a08301511515815461ff0062ff000060c0870151151560101b169260081b169062ffff0019161717905560e0820151600482015561010082015160058201556101208201516006820155610140820151600782015561016082015180519068010000000000000000821162000f4757600883015482600885015580831062001212575b5060200190600883015f5260205f20915f905b828210620010f45785856009810161018083015180519068010000000000000000821162000f4757825482845580831062001079575b50602001915f5260205f20915f905b82821062000f5b576101a08601518051600a8701906001600160401b03811162000f475762000e4c825462002406565b601f811162000f07575b50602092601f821160011462000ea257928192935f9262000e96575b50508160011b915f199060031b1c19161790555b6040516129659081620024428239f35b01519050838062000e72565b601f19821693835f5260205f20915f5b86811062000eee575083600195961062000ed5575b505050811b01905562000e86565b01515f1960f88460031b161c1916905583808062000ec7565b9192602060018192868501518155019401920162000eb2565b62000f3590835f5260205f20601f840160051c8101916020851062000f3c575b601f0160051c019062002376565b8362000e56565b909150819062000f27565b634e487b7160e01b5f52604160045260245ffd5b80518051906001600160401b03821162000f475762000f7b865462002406565b601f811162001045575b50602090601f831160011462000fd45792826001949360209386955f9262000fc8575b50505f19600383901b1c191690841b1787555b0194019101909262000e1c565b015190508b8062000fa8565b90865f5260205f20915f5b601f19851681106200102c575083602093600196938796938794601f1981161062001013575b505050811b01875562000fbb565b01515f1960f88460031b161c191690558b808062001005565b9192602060018192868501518155019401920162000fdf565b6200107290875f5260205f20601f850160051c8101916020861062000f3c57601f0160051c019062002376565b8862000f85565b835f528260205f2091820191015b81811062001096575062000e0d565b80620010a56001925462002406565b80620010b4575b500162001087565b601f81118314620010cb57505f81555b88620010ac565b5f90828252620010ea601f60208420920160051c820185830162002376565b81835555620010c4565b80518051906001600160401b03821162000f475762001114865462002406565b601f8111620011de575b50602090601f83116001146200116d5792826001949360209386955f9262001161575b50505f19600383901b1c191690841b1787555b0194019101909262000dd7565b015190508b8062001141565b90865f5260205f20915f5b601f1985168110620011c5575083602093600196938796938794601f19811610620011ac575b505050811b01875562001154565b01515f1960f88460031b161c191690558b80806200119e565b9192602060018192868501518155019401920162001178565b6200120b90875f5260205f20601f850160051c8101916020861062000f3c57601f0160051c019062002376565b886200111e565b600884015f5260205f20908382015b81830181106200123357505062000dc4565b80620012426001925462002406565b8062001251575b500162001221565b601f811183146200126857505f81555b8862001249565b5f9082825262001287601f60208420920160051c820185830162002376565b8183555562001261565b634e487b7160e01b5f52602160045260245ffd5b01519050848062000bce565b90600a84015f5260205f20915f5b601f1985168110620013095750918391600193600a95601f19811610620012f0575b505050811b0191015562000be3565b01515f1960f88460031b161c19169055848080620012e1565b91926020600181928685015181550194019201620012bf565b6200135290600a85015f5260205f20601f850160051c8101916020861062000f3c57601f0160051c019062002376565b8362000bb1565b80518051906001600160401b03821162000f475762001379865462002406565b601f811162001443575b50602090601f8311600114620013d25792826001949360209386955f92620013c6575b50505f19600383901b1c191690841b1787555b0194019101909262000b77565b015190508b80620013a6565b90865f5260205f20915f5b601f19851681106200142a575083602093600196938796938794601f1981161062001411575b505050811b018755620013b9565b01515f1960f88460031b161c191690558b808062001403565b91926020600181928685015181550194019201620013dd565b6200147090875f5260205f20601f850160051c8101916020861062000f3c57601f0160051c019062002376565b8862001383565b600985015f5260205f20908382015b81830181106200149857505062000b64565b80620014a76001925462002406565b80620014b6575b500162001486565b601f81118314620014cd57505f81555b88620014ae565b5f90828252620014ec601f60208420920160051c820185830162002376565b81835555620014c6565b80518051906001600160401b03821162000f475762001516865462002406565b601f8111620015e0575b50602090601f83116001146200156f5792826001949360209386955f9262001563575b50505f19600383901b1c191690841b1787555b0194019101909262000b2c565b015190508b8062001543565b90865f5260205f20915f5b601f1985168110620015c7575083602093600196938796938794601f19811610620015ae575b505050811b01875562001556565b01515f1960f88460031b161c191690558b8080620015a0565b919260206001819286850151815501940192016200157a565b6200160d90875f5260205f20601f850160051c8101916020861062000f3c57601f0160051c019062002376565b8862001520565b600885015f5260205f20908382015b81830181106200163557505062000b19565b80620016446001925462002406565b8062001653575b500162001623565b601f811183146200166a57505f81555b886200164b565b5f9082825262001689601f60208420920160051c820185830162002376565b8183555562001663565b0151905084806200090e565b90600a84015f5260205f20915f5b601f1985168110620016f75750918391600193600a95601f19811610620016de575b505050811b0191015562000923565b01515f1960f88460031b161c19169055848080620016cf565b91926020600181928685015181550194019201620016ad565b6200174090600a85015f5260205f20601f850160051c8101916020861062000f3c57601f0160051c019062002376565b83620008f1565b80518051906001600160401b03821162000f475762001767865462002406565b601f811162001831575b50602090601f8311600114620017c05792826001949360209386955f92620017b4575b50505f19600383901b1c191690841b1787555b01940191019092620008b7565b015190508b8062001794565b90865f5260205f20915f5b601f198516811062001818575083602093600196938796938794601f19811610620017ff575b505050811b018755620017a7565b01515f1960f88460031b161c191690558b8080620017f1565b91926020600181928685015181550194019201620017cb565b6200185e90875f5260205f20601f850160051c8101916020861062000f3c57601f0160051c019062002376565b8862001771565b600985015f5260205f20908382015b818301811062001886575050620008a4565b80620018956001925462002406565b80620018a4575b500162001874565b601f81118314620018bb57505f81555b886200189c565b5f90828252620018da601f60208420920160051c820185830162002376565b81835555620018b4565b80518051906001600160401b03821162000f475762001904865462002406565b601f8111620019ce575b50602090601f83116001146200195d5792826001949360209386955f9262001951575b50505f19600383901b1c191690841b1787555b019401910190926200086c565b015190508b8062001931565b90865f5260205f20915f5b601f1985168110620019b5575083602093600196938796938794601f198116106200199c575b505050811b01875562001944565b01515f1960f88460031b161c191690558b80806200198e565b9192602060018192868501518155019401920162001968565b620019fb90875f5260205f20601f850160051c8101916020861062000f3c57601f0160051c019062002376565b886200190e565b600885015f5260205f20908382015b818301811062001a2357505062000859565b8062001a326001925462002406565b8062001a41575b500162001a11565b601f8111831462001a5857505f81555b8862001a39565b5f9082825262001a77601f60208420920160051c820185830162002376565b8183555562001a51565b80606060208093850101520162000671565b01519050848062000634565b90600a84015f5260205f20915f5b601f198516811062001af75750918391600193600a95601f1981161062001ade575b505050811b0191015562000649565b01515f1960f88460031b161c1916905584808062001acf565b9192602060018192868501518155019401920162001aad565b62001b4090600a85015f5260205f20601f850160051c8101916020861062000f3c57601f0160051c019062002376565b8362000617565b80518051906001600160401b03821162000f475762001b67865462002406565b601f811162001c31575b50602090601f831160011462001bc05792826001949360209386955f9262001bb4575b50505f19600383901b1c191690841b1787555b01940191019092620005dd565b015190508b8062001b94565b90865f5260205f20915f5b601f198516811062001c18575083602093600196938796938794601f1981161062001bff575b505050811b01875562001ba7565b01515f1960f88460031b161c191690558b808062001bf1565b9192602060018192868501518155019401920162001bcb565b62001c5e90875f5260205f20601f850160051c8101916020861062000f3c57601f0160051c019062002376565b8862001b71565b600985015f5260205f20908382015b818301811062001c86575050620005ca565b8062001c956001925462002406565b8062001ca4575b500162001c74565b601f8111831462001cbb57505f81555b8862001c9c565b5f9082825262001cda601f60208420920160051c820185830162002376565b8183555562001cb4565b80518051906001600160401b03821162000f475762001d04865462002406565b601f811162001dce575b50602090601f831160011462001d5d5792826001949360209386955f9262001d51575b50505f19600383901b1c191690841b1787555b0194019101909262000592565b015190508b8062001d31565b90865f5260205f20915f5b601f198516811062001db5575083602093600196938796938794601f1981161062001d9c575b505050811b01875562001d44565b01515f1960f88460031b161c191690558b808062001d8e565b9192602060018192868501518155019401920162001d68565b62001dfb90875f5260205f20601f850160051c8101916020861062000f3c57601f0160051c019062002376565b8862001d0e565b600885015f5260205f20908382015b818301811062001e235750506200057f565b8062001e326001925462002406565b8062001e41575b500162001e11565b601f8111831462001e5857505f81555b8862001e39565b5f9082825262001e77601f60208420920160051c820185830162002376565b8183555562001e51565b806060602080938501015201620003a3565b8060606020809385010152016200036f565b01519050848062000332565b90600a84015f5260205f20915f5b601f198516811062001f095750918391600193600a95601f1981161062001ef0575b505050811b0191015562000347565b01515f1960f88460031b161c1916905584808062001ee1565b9192602060018192868501518155019401920162001ebf565b62001f5290600a85015f5260205f20601f850160051c8101916020861062000f3c57601f0160051c019062002376565b8362000315565b80518051906001600160401b03821162000f475762001f79865462002406565b601f811162002043575b50602090601f831160011462001fd25792826001949360209386955f9262001fc6575b50505f19600383901b1c191690841b1787555b01940191019092620002db565b015190508b8062001fa6565b90865f5260205f20915f5b601f19851681106200202a575083602093600196938796938794601f1981161062002011575b505050811b01875562001fb9565b01515f1960f88460031b161c191690558b808062002003565b9192602060018192868501518155019401920162001fdd565b6200207090875f5260205f20601f850160051c8101916020861062000f3c57601f0160051c019062002376565b8862001f83565b600985015f5260205f20908382015b818301811062002098575050620002c8565b80620020a76001925462002406565b80620020b6575b500162002086565b601f908181118414620020d05750505f81555b88620020ae565b620020ed5f9284845260208420920160051c820185830162002376565b81835555620020c9565b80518051906001600160401b03821162000f475762002117865462002406565b601f8111620021e1575b50602090601f8311600114620021705792826001949360209386955f9262002164575b50505f19600383901b1c191690841b1787555b0194019101909262000290565b015190505f8062002144565b90865f5260205f20915f5b601f1985168110620021c8575083602093600196938796938794601f19811610620021af575b505050811b01875562002157565b01515f1960f88460031b161c191690555f8080620021a1565b919260206001819286850151815501940192016200217b565b6200220e90875f5260205f20601f850160051c8101916020861062000f3c57601f0160051c019062002376565b5f62002121565b600885015f5260205f20908382015b8183018110620022365750506200027d565b80620022456001925462002406565b8062002254575b500162002224565b601f9081811184146200226e5750505f81555b5f6200224c565b6200228b5f9284845260208420920160051c820185830162002376565b8183555562002267565b9092835190600582101562001291576001916020918460031b9160ff809116831b921b191617940191016200008c565b60055f8190527f036b6384b5eca791c62761152d0c79bb0604c104a5fb6f4eb0703f3154bb3db0805464ffffffffff1681556200232a92601f0190911c017f036b6384b5eca791c62761152d0c79bb0604c104a5fb6f4eb0703f3154bb3db162002376565b5f6200007f565b5f80fd5b604051906101c082016001600160401b0381118382101762000f4757604052565b60405190606082016001600160401b0381118382101762000f4757604052565b81811062002382575050565b5f815560010162002376565b6200239862002356565b9060028252815f5b60408110620023ad575050565b806060602080938501015201620023a0565b604080519081016001600160401b0381118282101762000f475760405260018152805f5b6020808210156200240057906060602092828501015201620023e3565b50505090565b90600182811c9216801562002436575b60208310146200242257565b634e487b7160e01b5f52602260045260245ffd5b91607f16916200241656fe6080806040526004361015610012575f80fd5b5f3560e01c90816302d607e614611e5f575080630c2cd733146116a25780632f4feae7146114f8578063342cfd1c146114645780633da789b4146113b85780634659622c1461126c57806349fd2ff51461120e578063526241a8146111d1578063542a086c146110c957806372f79b21146110775780638337376814610e3b57806384318c71146106525780638da5cb5b1461062c578063a3b940f8146105f0578063ad6e823b14610588578063b9a37f0014610208578063de3385d3146101bf5763fb9d513d146100e2575f80fd5b346101bb5760203660031901126101bb5760043560058110156101bb5760206101b761010f60ff93612231565b80549060018101546002820154600383015487600485015491600586015493600687015495610162610148600a60078b01549a0161208b565b996040519d8e9d8e82841615158152019160081c1661218b565b60408b015260608a0152818116151560808a0152818160081c16151560a08a015260101c16151560c088015260e087015261010086015261012085015261014084015261018080610160850152830190611fd3565b0390f35b5f80fd5b346101bb5760203660031901126101bb57600435600581109081156101bb576101f460ff916101ef602094612293565b612231565b5460081c16610206604051809261218b565bf35b346101bb5760c03660031901126101bb5767ffffffffffffffff6004358181116101bb5761023a903690600401611f40565b6024918235916005938484109485156101bb57604435938185109081156101bb576064358015158091036101bb576084359160a4359081116101bb576102876102b2913690600401611f40565b93335f526102ad60209b60028d5260ff60405f205416801561056f575b6102ad90612248565b612293565b6102ba61242a565b6102cb6102c561264a565b876124ad565b6102dc6102d66122de565b846124ad565b61031a6040516102eb81611f02565b600e81527f76616c6964697479506572696f640000000000000000000000000000000000008b82015283612585565b6040519360ff8751958b81818b019861033481838c611fb2565b810160048152030190205460081c168181101561055c57158061052a575b156104e75787896103d36103b38d6040519961036d8b611ec9565b60018b5261037e828c019586612683565b61038c60408c019687612683565b60608b0197885260808b0198895260a08b01998a528c604051938492839251928391611fb2565b8101600481520301902097511515889060ff801983541691151516179055565b5192828410156104d45786549151928310156104d4579162ff000061042d9796949261ff0063ff0000006002989651151560181b169460081b169063ffffff001916179160101b161717845551600184015551910161232d565b600654680100000000000000008110156104c157806001610451920160065561212c565b9190916104b057506040926104948361048f7f1acb731433168e455a9261db376c01539f78db6d5bcf522287f5182c86b9614d97956104a99561232d565b61268f565b956104a185518095611ebc565b830190611ebc565ba260015f55005b634e487b7160e01b5f525f6004525ffd5b50634e487b7160e01b5f5260416004525ffd5b87634e487b7160e01b5f5260216004525ffd5b60648a6013886040519262461bcd60e51b845260048401528201527f52756c6520616c726561647920657869737473000000000000000000000000006044820152fd5b5060ff6040518b818a5161053f81838c611fb2565b810160048152030190205460101c168181101561055c5715610352565b86634e487b7160e01b5f5260216004525ffd5b506102ad6001600160a01b0360015416331490506102a4565b346101bb5760203660031901126101bb5760206105a3612175565b6105b46105ae61287c565b826128b5565b6001600160a01b03809116805f526002835260ff60405f2054169182156105e2575b50506040519015158152f35b6001541614905082806105d6565b346101bb5760203660031901126101bb57600435600581109081156101bb5761062060ff916101ef602094612293565b54166040519015158152f35b346101bb575f3660031901126101bb5760206001600160a01b0360015416604051908152f35b346101bb576003196040368201126101bb57600560043510156101bb5767ffffffffffffffff602435116101bb576101c090602435360301126101bb5760405161069b81611ee5565b6106a9602435600401611fa5565b8152600460248035013510156101bb576024803590810135602083015260448101356040830152606481013560608301526106e690608401611fa5565b60808201526106f960a460243501611fa5565b60a082015261070c60c460243501611fa5565b60c082015260243560e481013560e0830152610104810135610100830152610124810135610120830152610144810135610140830152610164013567ffffffffffffffff81116101bb57610768906004369160243501016121b0565b610160820152610184602435013567ffffffffffffffff81116101bb57610797906004369160243501016121b0565b6101808201526101a4602435013567ffffffffffffffff81116101bb576107c690600436916024350101611f40565b6101a0820152335f52600260205260ff60405f2054168015610e22575b6107ec90612248565b6107fa600435600511612293565b61080261242a565b60408101516040519061081482611f02565b6006825260208201917f6d696e416765000000000000000000000000000000000000000000000000000083526040519267024b73b30b634b2160c51b91826020860152805191602892808488019061086c9184611fb2565b860195807f3a2062656c6f77206d696e696d756d0000000000000000000000000000000000978886820152036017810182526037016108ab9082611f1e565b6108b990601087101561247d565b604051918460208401525190818484016108d292611fb2565b810193817f3a2061626f7665206d6178696d756d0000000000000000000000000000000000958685820152036017810183526037016109119083611f1e565b606410159061091f9161247d565b60608501519260408601516040519561093787611f02565b6006875260208701917f6d61784167650000000000000000000000000000000000000000000000000000835260405180928760208301528951808884019061097f9188611fb2565b820190878201520360178101835260370161099a9083611f1e565b861015906109a79161247d565b60405195869460208601525190818486016109c192611fb2565b830191820152036017810183526037016109db9083611f1e565b60781015906109e99161247d565b60e08101516040516109fa81611f02565b601381527f6d61785472616e73616374696f6e4c696d6974000000000000000000000000006020820152610a2d91612585565b610100810151604051610a3f81611f02565b600a81527f6461696c794c696d6974000000000000000000000000000000000000000000006020820152610a7291612585565b610120810151604051610a8481611f02565b600c81527f6d6f6e74686c794c696d697400000000000000000000000000000000000000006020820152610ab791612585565b610140810151604051610ac981611f02565b601181527f6b796356616c6964697479506572696f640000000000000000000000000000006020820152610afc91612585565b6101a0810151610b0a6122de565b610b13916124ad565b602081015160041115610cd657610b2b600435612231565b90610b4581511515839060ff801983541691151516179055565b60208101516004811015610cd65761ff0083549160081b169061ff001916178255604081015160018301556060810151600283015560038201610b9a60808301511515829060ff801983541691151516179055565b60a08201511515815461ff0062ff000060c0860151151560101b169260081b169062ffff0019161717905560e08101516004830155610100810151600583015561012081015160068301556101408101516007830155610160810151805190680100000000000000008211610d7c576008840154826008860155808310610dad575b50602001600884015f5260205f205f915b838310610d90578585610180810151805190680100000000000000008211610d7c576009840154826009860155808310610d07575b50602001600984015f5260205f205f915b838310610cea57602085610c9088600a6101a0840151910161232d565b01516004811015610cd657610ca8604051809261218b565b7f770e83011c132c5ff8504dfde4a8a50791604aa212c636a6c3ed45704faa0dfc602060043592a260015f55005b634e487b7160e01b5f52602160045260245ffd5b6001602082610cfb8394518661232d565b01920192019190610c73565b600985015f5260205f20908382015b8183018110610d26575050610c62565b80610d3360019254612053565b80610d40575b5001610d16565b601f908181118414610d585750505f81555b88610d39565b610d735f9284845260208420920160051c8201858301612317565b81835555610d52565b634e487b7160e01b5f52604160045260245ffd5b6001602082610da18394518661232d565b01920192019190610c2d565b600885015f5260205f20908382015b8183018110610dcc575050610c1c565b80610dd960019254612053565b80610de6575b5001610dbc565b601f908181118414610dfe5750505f81555b88610ddf565b610e195f9284845260208420920160051c8201858301612317565b81835555610df8565b506107ec6001600160a01b0360015416331490506107e3565b346101bb5760203660031901126101bb57600435600581109081156101bb576101ef610ec89260606101a0604051610e7281611ee5565b5f81525f60208201525f60408201525f838201525f60808201525f60a08201525f60c08201525f60e08201525f6101008201525f6101208201525f61014082015282610160820152826101808201520152612293565b604051610ed481611ee5565b81549160ff831615158252600460ff8460081c161015610cd657600a610f959160ff6101b79560081c166020850152600181015460408501526002810154606085015260ff600382015481811615156080870152818160081c16151560a087015260101c16151560c0850152600481015460e0850152600581015461010085015260068101546101208501526007810154610140850152610f77600882016125f6565b610160850152610f89600982016125f6565b6101808501520161208b565b6101a082015260405191829160208352805115156020840152610fc06020820151604085019061218b565b60408101516060840152606081015160808401526080810151151560a084015260a0810151151560c084015260c0810151151560e084015260e08101516101008401526101008101516101208401526101208101516101408401526101408101516101608401526101608101516110466101c091826101808701526101e0860190611ff8565b906101a061106661018085015193601f19948589830301848a0152611ff8565b930151918584030190850152611fd3565b346101bb5760403660031901126101bb57600435600581109081156101bb57602435600581109182156101bb576110b66110bb936102ad604096612293565b6126af565b825191151582526020820152f35b346101bb5760403660031901126101bb576110e2612175565b6110ea611f96565b906001600160a01b039081600154163303611167577e8ebc621f24e0e9d1fd4ee2f7df9bb80c8d61ee30a9167a4fee6cefcf8c021e9160209161112b61242a565b6111366105ae61287c565b1692835f52600282526111588160405f209060ff801983541691151516179055565b6040519015158152a260015f55005b608460405162461bcd60e51b815260206004820152602160248201527f4f6e6c79206f776e65722063616e2063616c6c20746869732066756e6374696f60448201527f6e000000000000000000000000000000000000000000000000000000000000006064820152fd5b346101bb5760203660031901126101bb576001600160a01b036111f2612175565b165f526002602052602060ff60405f2054166040519015158152f35b346101bb5760203660031901126101bb576004356006548110156101bb576112359061212c565b611259576112456101b79161208b565b604051918291602083526020830190611fd3565b634e487b7160e01b5f525f60045260245ffd5b346101bb576020806003193601126101bb5760043567ffffffffffffffff81116101bb57816112a26112f1923690600401611f40565b606060a06040516112b281611ec9565b5f81525f858201525f60408201525f838201525f608082015201526112de6112d861264a565b826124ad565b8160405193828580945193849201611fb2565b810160048152030190206101b76040519161130b83611ec9565b80549060ff8216151584528484019161132a60ff8260081c1684612683565b6113996040860161134160ff8460101c1682612683565b60ff606088019360181c161515835261138e61136b600260018701549660808b019788520161208b565b9560a08901968752604051998a99818b52511515908a0152516040890190611ebc565b516060870190611ebc565b51151560808501525160a08401525160c08084015260e0830190611fd3565b346101bb5760203660031901126101bb5760043567ffffffffffffffff81116101bb576113f060206112de60ff933690600401611f40565b810160048152030190206101b781549161141160026001830154920161208b565b906040519484818796161515865261143160208701838360081c16611ebc565b61144360408701838360101c16611ebc565b60181c1615156060850152608084015260c060a084015260c0830190611fd3565b346101bb575f3660031901126101bb5760065461148081612198565b9061148e6040519283611f1e565b80825260209081830160065f527ff652222313e28459528d920b65115c16c04f3efc82aaedc97be59f3f377c0d3f835f925b8484106114da57604051828152806101b78185018a611ff8565b60019182916114e88561208b565b81520192019201919084906114c0565b346101bb5760403660031901126101bb5760043567ffffffffffffffff81116101bb57611529903690600401611f40565b611531611f96565b90335f526020906002825260ff60405f2054168015611689575b61155490612248565b61155c61242a565b6115676112d861264a565b60405160ff825191848181860194611580818388611fb2565b810160048152030190205460081c166005811015610cd65715801590611655575b1561161157829161048f856115e67f5673cc323b1349f86b1f25c1529e7c6e715a47eb5d5f96900c9c6cd2098ca2899661160195604051809381928851928391611fb2565b810160048152030190209060ff801983541691151516179055565b926040519015158152a260015f55005b6064836040519062461bcd60e51b82526004820152600e60248201527f52756c65206e6f7420666f756e640000000000000000000000000000000000006044820152fd5b5060ff6040518481855161166a818388611fb2565b810160048152030190205460101c166005811015610cd65715156115a1565b506115546001600160a01b03600154163314905061154b565b346101bb575f3660031901126101bb57604051806005549081835260208093019181848460055f527f036b6384b5eca791c62761152d0c79bb0604c104a5fb6f4eb0703f3154bb3db05f905b85601f830110611bef579461180c95549184828210611bd5575b828210611bb8575b828210611b9b575b828210611b7e575b828210611b62575b828210611b45575b828210611b28575b828210611b0b575b828210611aee575b828210611ad1575b828210611ab4575b828210611a97575b828210611a7a575b828210611a5d575b828210611a40575b828210611a23575b828210611a06575b8282106119e9575b8282106119cc575b8282106119af575b828210611992575b828210611975575b828210611958575b82821061193b575b82821061191e575b828210611901575b8282106118e4575b8282106118c7575b8282106118aa575b82821061188d575b828210611870575b501061185a575b5090509392930383611f1e565b60405192839281840190828552518091526040840192915f5b82811061183457505050500390f35b919383955090808261184a600194839751611ebc565b0195019101918594939192611825565b816118679160f81c611ebc565b018590876117ff565b846118846001939660ff8760f01c16611ebc565b019301846117f8565b846118a16001939660ff8760e81c16611ebc565b019301846117f0565b846118be6001939660ff8760e01c16611ebc565b019301846117e8565b846118db6001939660ff8760d81c16611ebc565b019301846117e0565b846118f86001939660ff8760d01c16611ebc565b019301846117d8565b846119156001939660ff8760c81c16611ebc565b019301846117d0565b846119326001939660ff8760c01c16611ebc565b019301846117c8565b8461194f6001939660ff8760b81c16611ebc565b019301846117c0565b8461196c6001939660ff8760b01c16611ebc565b019301846117b8565b846119896001939660ff8760a81c16611ebc565b019301846117b0565b846119a66001939660ff8760a01c16611ebc565b019301846117a8565b846119c36001939660ff8760981c16611ebc565b019301846117a0565b846119e06001939660ff8760901c16611ebc565b01930184611798565b846119fd6001939660ff8760881c16611ebc565b01930184611790565b84611a1a6001939660ff8760801c16611ebc565b01930184611788565b84611a376001939660ff8760781c16611ebc565b01930184611780565b84611a546001939660ff8760701c16611ebc565b01930184611778565b84611a716001939660ff8760681c16611ebc565b01930184611770565b84611a8e6001939660ff8760601c16611ebc565b01930184611768565b84611aab6001939660ff8760581c16611ebc565b01930184611760565b84611ac86001939660ff8760501c16611ebc565b01930184611758565b84611ae56001939660ff8760481c16611ebc565b01930184611750565b84611b026001939660ff8760401c16611ebc565b01930184611748565b84611b1f6001939660ff8760381c16611ebc565b01930184611740565b84611b3c6001939660ff8760301c16611ebc565b01930184611738565b84611b596001939660ff8760281c16611ebc565b01930184611730565b84611b756001939660ff87851c16611ebc565b01930184611728565b84611b926001939660ff8760181c16611ebc565b01930184611720565b84611baf6001939660ff8760101c16611ebc565b01930184611718565b84611bcc6001939660ff8760081c16611ebc565b01930184611710565b84611be66001939660ff8716611ebc565b01930184611708565b9350916001610400829693611e508754611e4260ff611c1085828516611ebc565b611c21888601828560081c16611ebc565b611c3360408601828560101c16611ebc565b611dd385611d8b6060611c4d818401868960181c16611ebc565b611d438c611c64608091888b848901921c16611ebc565b611cfb60a093611c7b8588018a8d60281c16611ebc565b888b61018060c099611c948b8201858560301c16611ebc565b611ca660e08201858560381c16611ebc565b611cb96101008201858560401c16611ebc565b611ccc6101208201858560481c16611ebc565b611cdf6101408201858560501c16611ebc565b611cf26101608201858560581c16611ebc565b01921c16611ebc565b611d0e6101a08c01888b60681c16611ebc565b611d216101c08c01888b60701c16611ebc565b611d346101e08c01888b60781c16611ebc565b86896102008d01921c16611ebc565b611d566102208a01868960881c16611ebc565b611d696102408a01868960901c16611ebc565b611d7c6102608a01868960981c16611ebc565b84876102808b01921c16611ebc565b611d9e6102a08801848760a81c16611ebc565b611db16102c08801848760b01c16611ebc565b611dc46102e08801848760b81c16611ebc565b82856103008901921c16611ebc565b611de66103208601828560c81c16611ebc565b611df96103408601828560d01c16611ebc565b611e0c6103608601828560d81c16611ebc565b611e1f6103808601828560e01c16611ebc565b611e326103a08601828560e81c16611ebc565b6103c08501908360f01c16611ebc565b6103e083019060f81c611ebc565b019401920185939194926116ee565b346101bb5760203660031901126101bb57600435906005548210156101bb576102068160ff60209460055f5260f88160051c7f036b6384b5eca791c62761152d0c79bb0604c104a5fb6f4eb0703f3154bb3db001549160031b161c165b906005821015610cd65752565b60c0810190811067ffffffffffffffff821117610d7c57604052565b6101c0810190811067ffffffffffffffff821117610d7c57604052565b6040810190811067ffffffffffffffff821117610d7c57604052565b90601f8019910116810190811067ffffffffffffffff821117610d7c57604052565b81601f820112156101bb5780359067ffffffffffffffff8211610d7c5760405192611f75601f8401601f191660200185611f1e565b828452602083830101116101bb57815f926020809301838601378301015290565b6024359081151582036101bb57565b359081151582036101bb57565b5f5b838110611fc35750505f910152565b8181015183820152602001611fb4565b90602091611fec81518092818552858086019101611fb2565b601f01601f1916010190565b908082519081815260208091019281808460051b8301019501935f915b8483106120255750505050505090565b9091929394958480612043600193601f198682030187528a51611fd3565b9801930193019194939290612015565b90600182811c92168015612081575b602083101461206d57565b634e487b7160e01b5f52602260045260245ffd5b91607f1691612062565b9060405191825f82549261209e84612053565b9081845260019485811690815f1461210957506001146120c9575b50506120c792500383611f1e565b565b909391505f52602090815f20935f915b8183106120f15750506120c793508201015f806120b9565b855488840185015294850194879450918301916120d9565b9150506120c794506020925060ff191682840152151560051b8201015f806120b9565b6006548110156121615760065f527ff652222313e28459528d920b65115c16c04f3efc82aaedc97be59f3f377c0d3f01905f90565b634e487b7160e01b5f52603260045260245ffd5b600435906001600160a01b03821682036101bb57565b906004821015610cd65752565b67ffffffffffffffff8111610d7c5760051b60200190565b9080601f830112156101bb578135906121c882612198565b926121d66040519485611f1e565b828452602092838086019160051b830101928084116101bb57848301915b8483106122045750505050505090565b823567ffffffffffffffff81116101bb57869161222684848094890101611f40565b8152019201916121f4565b6005811015610cd6575f52600360205260405f2090565b1561224f57565b606460405162461bcd60e51b815260206004820152601760248201527f4e6f7420617574686f72697a656420746f2077726974650000000000000000006044820152fd5b1561229a57565b606460405162461bcd60e51b815260206004820152601460248201527f496e76616c6964206a7572697364696374696f6e0000000000000000000000006044820152fd5b604051906122eb82611f02565b600b82527f6465736372697074696f6e0000000000000000000000000000000000000000006020830152565b818110612322575050565b5f8155600101612317565b919091825167ffffffffffffffff8111610d7c5761234b8254612053565b601f81116123ef575b50602080601f831160011461238f5750819293945f92612384575b50508160011b915f199060031b1c1916179055565b015190505f8061236f565b90601f19831695845f52825f20925f905b8882106123d7575050836001959697106123bf575b505050811b019055565b01515f1960f88460031b161c191690555f80806123b5565b806001859682949686015181550195019301906123a0565b61241a90835f5260205f20601f840160051c81019160208510612420575b601f0160051c0190612317565b5f612354565b909150819061240d565b60025f54146124395760025f55565b606460405162461bcd60e51b815260206004820152601f60248201527f5265656e7472616e637947756172643a207265656e7472616e742063616c6c006044820152fd5b156124855750565b6124a99060405191829162461bcd60e51b8352602060048401526024830190611fd3565b0390fd5b90602061252b60396120c794610100815115159161253060405167024b73b30b634b2160c51b94858983015261252b6036838c6124f581519d8e92019d8e6028850190611fb2565b81017f3a20656d70747920737472696e670000000000000000000000000000000000006028820152036016810185520183611f1e565b61247d565b5111159361254f60405196879360208501525180926028850190611fb2565b81017f3a20737472696e6720746f6f206c6f6e670000000000000000000000000000006028820152036019810185520183611f1e565b906120c7916125ef603a604051809467024b73b30b634b2160c51b60208301526125b9815180926020602886019101611fb2565b81017f3a206d75737420626520706f7369746976650000000000000000000000000000602882015203601a810185520183611f1e565b151561247d565b90815461260281612198565b926126106040519485611f1e565b8184525f90815260208082208186015b84841061262e575050505050565b600183819261263c8561208b565b815201920193019290612620565b6040519061265782611f02565b600682527f72756c65496400000000000000000000000000000000000000000000000000006020830152565b6005821015610cd65752565b6126a790602060405192828480945193849201611fb2565b810103902090565b600654915f5b8381106126c657505050505f905f90565b6126cf8161212c565b506040908151915f8254926126e384612053565b9060019485811690815f146128655750600114612833575b50508360049182815260209586910301902093825161271981611ec9565b61276d600287549660ff948589161515855284019661273d868a60081c1689612683565b84019461274f818a60101c1687612683565b606085019860181c161515885288015497608084019889520161208b565b60a08201525115159283612802575b50826127be575b50506127af5750505f19811461279b576001016126b5565b634e487b7160e01b5f52601160045260245ffd5b93509493505050511515915190565b5191506005808310156127ef578610156127dc575084145f80612783565b602190634e487b7160e01b5f525260245ffd5b602182634e487b7160e01b5f525260245ffd5b90925051600580821015612820578810156127ef578714915f61277c565b602183634e487b7160e01b5f525260245ffd5b9091505f526020805f205f905b85848310612855575050505083015f806126fb565b8154888401529183019101612840565b60ff19168752505080151502840190505f806126fb565b6040519061288982611f02565b600682527f77726974657200000000000000000000000000000000000000000000000000006020830152565b906001600160a01b036120c7926129276036604051809567024b73b30b634b2160c51b60208301526128f1815180926020602886019101611fb2565b81017f3a207a65726f20616464726573730000000000000000000000000000000000006028820152036016810186520184611f1e565b16151561247d56fea2646970667358221220aca03a9c0dc760441cb4859dcbfaa0859255dbcb96527b9a802ad1827393e58664736f6c63430008140033",
  "linkReferences": {},
  "deployedLinkReferences": {}
}