{
  "_format": "hh-sol-artifact-1",
  "contractName": "JurisdictionConfig",
  "sourceName": "contracts/utility/JurisdictionConfig.sol",
  "abi": [
    {
      "inputs": [],
      "stateMutability": "nonpayable",
      "type": "constructor"
    },
    {
      "anonymous": false,
      "inputs": [
        {
          "indexed": true,
          "internalType": "address",
          "name": "writer",
          "type": "address"
        },
        {
          "indexed": false,
          "internalType": "bool",
          "name": "authorized",
          "type": "bool"
        }
      ],
      "name": "AuthorizedWriterUpdated",
      "type": "event"
    },
    {
      "anonymous": false,
      "inputs": [
        {
          "indexed": true,
          "internalType": "string",
          "name": "ruleId",
          "type": "string"
        },
        {
          "indexed": false,
          "internalType": "enum JurisdictionConfig.Jurisdiction",
          "name": "fromJurisdiction",
          "type": "uint8"
        },
        {
          "indexed": false,
          "internalType": "enum JurisdictionConfig.Jurisdiction",
          "name": "toJurisdiction",
          "type": "uint8"
        }
      ],
      "name": "CrossJurisdictionRuleCreated",
      "type": "event"
    },
    {
      "anonymous": false,
      "inputs": [
        {
          "indexed": true,
          "internalType": "string",
          "name": "ruleId",
          "type": "string"
        },
        {
          "indexed": false,
          "internalType": "bool",
          "name": "isActive",
          "type": "bool"
        }
      ],
      "name": "CrossJurisdictionRuleUpdated",
      "type": "event"
    },
    {
      "anonymous": false,
      "inputs": [
        {
          "indexed": true,
          "internalType": "enum JurisdictionConfig.Jurisdiction",
          "name": "jurisdiction",
          "type": "uint8"
        },
        {
          "indexed": false,
          "internalType": "enum JurisdictionConfig.ComplianceLevel",
          "name": "complianceLevel",
          "type": "uint8"
        }
      ],
      "name": "JurisdictionSettingsUpdated",
      "type": "event"
    },
    {
      "inputs": [
        {
          "internalType": "address",
          "name": "",
          "type": "address"
        }
      ],
      "name": "authorizedWriters",
      "outputs": [
        {
          "internalType": "bool",
          "name": "",
          "type": "bool"
        }
      ],
      "stateMutability": "view",
      "type": "function"
    },
    {
      "inputs": [
        {
          "internalType": "enum JurisdictionConfig.Jurisdiction",
          "name": "fromJurisdiction",
          "type": "uint8"
        },
        {
          "internalType": "enum JurisdictionConfig.Jurisdiction",
          "name": "toJurisdiction",
          "type": "uint8"
        }
      ],
      "name": "checkCrossJurisdictionCompliance",
      "outputs": [
        {
          "internalType": "bool",
          "name": "requiresReVerification",
          "type": "bool"
        },
        {
          "internalType": "uint256",
          "name": "validityPeriod",
          "type": "uint256"
        }
      ],
      "stateMutability": "view",
      "type": "function"
    },
    {
      "inputs": [
        {
          "internalType": "string",
          "name": "ruleId",
          "type": "string"
        },
        {
          "internalType": "enum JurisdictionConfig.Jurisdiction",
          "name": "fromJurisdiction",
          "type": "uint8"
        },
        {
          "internalType": "enum JurisdictionConfig.Jurisdiction",
          "name": "toJurisdiction",
          "type": "uint8"
        },
        {
          "internalType": "bool",
          "name": "requiresReVerification",
          "type": "bool"
        },
        {
          "internalType": "uint256",
          "name": "validityPeriod",
          "type": "uint256"
        },
        {
          "internalType": "string",
          "name": "description",
          "type": "string"
        }
      ],
      "name": "createCrossJurisdictionRule",
      "outputs": [],
      "stateMutability": "nonpayable",
      "type": "function"
    },
    {
      "inputs": [
        {
          "internalType": "uint256",
          "name": "",
          "type": "uint256"
        }
      ],
      "name": "crossJurisdictionRuleIds",
      "outputs": [
        {
          "internalType": "string",
          "name": "",
          "type": "string"
        }
      ],
      "stateMutability": "view",
      "type": "function"
    },
    {
      "inputs": [
        {
          "internalType": "string",
          "name": "",
          "type": "string"
        }
      ],
      "name": "crossJurisdictionRules",
      "outputs": [
        {
          "internalType": "bool",
          "name": "isActive",
          "type": "bool"
        },
        {
          "internalType": "enum JurisdictionConfig.Jurisdiction",
          "name": "fromJurisdiction",
          "type": "uint8"
        },
        {
          "internalType": "enum JurisdictionConfig.Jurisdiction",
          "name": "toJurisdiction",
          "type": "uint8"
        },
        {
          "internalType": "bool",
          "name": "requiresReVerification",
          "type": "bool"
        },
        {
          "internalType": "uint256",
          "name": "validityPeriod",
          "type": "uint256"
        },
        {
          "internalType": "string",
          "name": "description",
          "type": "string"
        }
      ],
      "stateMutability": "view",
      "type": "function"
    },
    {
      "inputs": [
        {
          "internalType": "enum JurisdictionConfig.Jurisdiction",
          "name": "jurisdiction",
          "type": "uint8"
        }
      ],
      "name": "getComplianceLevel",
      "outputs": [
        {
          "internalType": "enum JurisdictionConfig.ComplianceLevel",
          "name": "complianceLevel",
          "type": "uint8"
        }
      ],
      "stateMutability": "view",
      "type": "function"
    },
    {
      "inputs": [
        {
          "internalType": "string",
          "name": "ruleId",
          "type": "string"
        }
      ],
      "name": "getCrossJurisdictionRule",
      "outputs": [
        {
          "components": [
            {
              "internalType": "bool",
              "name": "isActive",
              "type": "bool"
            },
            {
              "internalType": "enum JurisdictionConfig.Jurisdiction",
              "name": "fromJurisdiction",
              "type": "uint8"
            },
            {
              "internalType": "enum JurisdictionConfig.Jurisdiction",
              "name": "toJurisdiction",
              "type": "uint8"
            },
            {
              "internalType": "bool",
              "name": "requiresReVerification",
              "type": "bool"
            },
            {
              "internalType": "uint256",
              "name": "validityPeriod",
              "type": "uint256"
            },
            {
              "internalType": "string",
              "name": "description",
              "type": "string"
            }
          ],
          "internalType": "struct JurisdictionConfig.CrossJurisdictionRule",
          "name": "rule",
          "type": "tuple"
        }
      ],
      "stateMutability": "view",
      "type": "function"
    },
    {
      "inputs": [],
      "name": "getCrossJurisdictionRuleIds",
      "outputs": [
        {
          "internalType": "string[]",
          "name": "ruleIds",
          "type": "string[]"
        }
      ],
      "stateMutability": "view",
      "type": "function"
    },
    {
      "inputs": [
        {
          "internalType": "enum JurisdictionConfig.Jurisdiction",
          "name": "jurisdiction",
          "type": "uint8"
        }
      ],
      "name": "getJurisdictionSettings",
      "outputs": [
        {
          "components": [
            {
              "internalType": "bool",
              "name": "isActive",
              "type": "bool"
            },
            {
              "internalType": "enum JurisdictionConfig.ComplianceLevel",
              "name": "complianceLevel",
              "type": "uint8"
            },
            {
              "internalType": "uint256",
              "name": "minAge",
              "type": "uint256"
            },
            {
              "internalType": "uint256",
              "name": "maxAge",
              "type": "uint256"
            },
            {
              "internalType": "bool",
              "name": "requiresBiometric",
              "type": "bool"
            },
            {
              "internalType": "bool",
              "name": "requiresAddressProof",
              "type": "bool"
            },
            {
              "internalType": "bool",
              "name": "requiresIncomeProof",
              "type": "bool"
            },
            {
              "internalType": "uint256",
              "name": "maxTransactionLimit",
              "type": "uint256"
            },
            {
              "internalType": "uint256",
              "name": "dailyLimit",
              "type": "uint256"
            },
            {
              "internalType": "uint256",
              "name": "monthlyLimit",
              "type": "uint256"
            },
            {
              "internalType": "uint256",
              "name": "kycValidityPeriod",
              "type": "uint256"
            },
            {
              "internalType": "string[]",
              "name": "requiredDocuments",
              "type": "string[]"
            },
            {
              "internalType": "string[]",
              "name": "allowedCountries",
              "type": "string[]"
            },
            {
              "internalType": "string",
              "name": "description",
              "type": "string"
            }
          ],
          "internalType": "struct JurisdictionConfig.JurisdictionSettings",
          "name": "settings",
          "type": "tuple"
        }
      ],
      "stateMutability": "view",
      "type": "function"
    },
    {
      "inputs": [],
      "name": "getSupportedJurisdictions",
      "outputs": [
        {
          "internalType": "enum JurisdictionConfig.Jurisdiction[]",
          "name": "jurisdictions",
          "type": "uint8[]"
        }
      ],
      "stateMutability": "view",
      "type": "function"
    },
    {
      "inputs": [
        {
          "internalType": "address",
          "name": "writer",
          "type": "address"
        }
      ],
      "name": "isAuthorizedWriter",
      "outputs": [
        {
          "internalType": "bool",
          "name": "",
          "type": "bool"
        }
      ],
      "stateMutability": "view",
      "type": "function"
    },
    {
      "inputs": [
        {
          "internalType": "enum JurisdictionConfig.Jurisdiction",
          "name": "jurisdiction",
          "type": "uint8"
        }
      ],
      "name": "isJurisdictionActive",
      "outputs": [
        {
          "internalType": "bool",
          "name": "",
          "type": "bool"
        }
      ],
      "stateMutability": "view",
      "type": "function"
    },
    {
      "inputs": [
        {
          "internalType": "enum JurisdictionConfig.Jurisdiction",
          "name": "",
          "type": "uint8"
        }
      ],
      "name": "jurisdictionSettings",
      "outputs": [
        {
          "internalType": "bool",
          "name": "isActive",
          "type": "bool"
        },
        {
          "internalType": "enum JurisdictionConfig.ComplianceLevel",
          "name": "complianceLevel",
          "type": "uint8"
        },
        {
          "internalType": "uint256",
          "name": "minAge",
          "type": "uint256"
        },
        {
          "internalType": "uint256",
          "name": "maxAge",
          "type": "uint256"
        },
        {
          "internalType": "bool",
          "name": "requiresBiometric",
          "type": "bool"
        },
        {
          "internalType": "bool",
          "name": "requiresAddressProof",
          "type": "bool"
        },
        {
          "internalType": "bool",
          "name": "requiresIncomeProof",
          "type": "bool"
        },
        {
          "internalType": "uint256",
          "name": "maxTransactionLimit",
          "type": "uint256"
        },
        {
          "internalType": "uint256",
          "name": "dailyLimit",
          "type": "uint256"
        },
        {
          "internalType": "uint256",
          "name": "monthlyLimit",
          "type": "uint256"
        },
        {
          "internalType": "uint256",
          "name": "kycValidityPeriod",
          "type": "uint256"
        },
        {
          "internalType": "string",
          "name": "description",
          "type": "string"
        }
      ],
      "stateMutability": "view",
      "type": "function"
    },
    {
      "inputs": [],
      "name": "owner",
      "outputs": [
        {
          "internalType": "address",
          "name": "",
          "type": "address"
        }
      ],
      "stateMutability": "view",
      "type": "function"
    },
    {
      "inputs": [
        {
          "internalType": "address",
          "name": "writer",
          "type": "address"
        },
        {
          "internalType": "bool",
          "name": "authorized",
          "type": "bool"
        }
      ],
      "name": "setAuthorizedWriter",
      "outputs": [],
      "stateMutability": "nonpayable",
      "type": "function"
    },
    {
      "inputs": [
        {
          "internalType": "uint256",
          "name": "",
          "type": "uint256"
        }
      ],
      "name": "supportedJurisdictions",
      "outputs": [
        {
          "internalType": "enum JurisdictionConfig.Jurisdiction",
          "name": "",
          "type": "uint8"
        }
      ],
      "stateMutability": "view",
      "type": "function"
    },
    {
      "inputs": [
        {
          "internalType": "string",
          "name": "ruleId",
          "type": "string"
        },
        {
          "internalType": "bool",
          "name": "isActive",
          "type": "bool"
        }
      ],
      "name": "updateCrossJurisdictionRule",
      "outputs": [],
      "stateMutability": "nonpayable",
      "type": "function"
    },
    {
      "inputs": [
        {
          "internalType": "enum JurisdictionConfig.Jurisdiction",
          "name": "jurisdiction",
          "type": "uint8"
        },
        {
          "components": [
            {
              "internalType": "bool",
              "name": "isActive",
              "type": "bool"
            },
            {
              "internalType": "enum JurisdictionConfig.ComplianceLevel",
              "name": "complianceLevel",
              "type": "uint8"
            },
            {
              "internalType": "uint256",
              "name": "minAge",
              "type": "uint256"
            },
            {
              "internalType": "uint256",
              "name": "maxAge",
              "type": "uint256"
            },
            {
              "internalType": "bool",
              "name": "requiresBiometric",
              "type": "bool"
            },
            {
              "internalType": "bool",
              "name": "requiresAddressProof",
              "type": "bool"
            },
            {
              "internalType": "bool",
              "name": "requiresIncomeProof",
              "type": "bool"
            },
            {
              "internalType": "uint256",
              "name": "maxTransactionLimit",
              "type": "uint256"
            },
            {
              "internalType": "uint256",
              "name": "dailyLimit",
              "type": "uint256"
            },
            {
              "internalType": "uint256",
              "name": "monthlyLimit",
              "type": "uint256"
            },
            {
              "internalType": "uint256",
              "name": "kycValidityPeriod",
              "type": "uint256"
            },
            {
              "internalType": "string[]",
              "name": "requiredDocuments",
              "type": "string[]"
            },
            {
              "internalType": "string[]",
              "name": "allowedCountries",
              "type": "string[]"
            },
            {
              "internalType": "string",
              "name": "description",
              "type": "string"
            }
          ],
          "internalType": "struct JurisdictionConfig.JurisdictionSettings",
          "name": "settings",
          "type": "tuple"
        }
      ],
      "name": "updateJurisdictionSettings",
      "outputs": [],
      "stateMutability": "nonpayable",
      "type": "function"
    }
  ],
  "bytecode": "0x6080346200240e576001600081815581546001600160a01b0319163390811783558152600260205260409020805460ff1916909117905560a081016001600160401b0381118282101762000f8f5760405260008152600160208201526002604082015260036060820152600460808201526005546005805580600510620023a1575b506005600052602060002060009160005b600581106200237157505055620000a86200246d565b620000b26200249f565b620000bc62002413565b916001835260016020840152601260408401526064606084015260006080840152600160a0840152600060c084015269d3c21bcecceda100000060e084015269021e19e0c9bab240000061010084015269152d02c7e14af680000061012084015261016d6101408401526101608301526101808201526200013c62002434565b602981527f554b204b594320726571756972656d656e747320756e6465722046434120726560208201526867756c6174696f6e7360b81b60408201526101a0820152600080526003602052604060002090620001a781511515839060ff801983541691151516179055565b60208101516004811015620012f35761ff0083549160081b169061ff0019161782556040810151600183015560608101516002830155620001fd60808201511515600384019060ff801983541691151516179055565b60a08101511515600383015461ff0062ff000060c0850151151560101b169260081b169062ffff0019161717600383015560e0810151600483015561010081015160058301556101208101516006830155610140810151600783015561016081015180519068010000000000000000821162000f8f576008840154826008860155808310620022ed575b5060200190600884016000526020600020916000905b828210620021c757858561018081015180519068010000000000000000821162000f8f57600984015482600986015580831062002143575b5060200190600984016000526020600020916000905b8282106200201d576101a0850151805187916001600160401b03821162000f8f576200031b600a840154620024e7565b601f811162001fe4575b50602090601f831160011462001f6f57600a92916000918362001f63575b50508160011b916000199060031b1c1916179101555b6040516001600160401b03608082019081119082111762000f8f57608081016040526003815260005b6060811062001f5157506040516001600160401b0361038082019081119082111762000f8f576103808101604052601b815260005b610360811062001f3f5750620003cc62002413565b916001835260026020840152601260408401526064606084015260016080840152600160a0840152600160c08401526969e10de76676d080000060e084015269010f0cf064dd59200000610100840152690a968163f0a57b4000006101208401526102da6101408401526101608301526101808201526200044c62002434565b602b81527f4555204b594320726571756972656d656e747320756e64657220414d4c44352060208201526a726567756c6174696f6e7360a81b60408201526101a082015260016000526003602052604060002090620004ba81511515839060ff801983541691151516179055565b60208101516004811015620012f35761ff0083549160081b169061ff0019161782556040810151600183015560608101516002830155600382016200051160808301511515829060ff801983541691151516179055565b60a08201511515815461ff0062ff000060c0860151151560101b169260081b169062ffff0019161717905560e0810151600483015561010081015160058301556101208101516006830155610140810151600783015561016081015180519068010000000000000000821162000f8f57600884015482600886015580831062001ebc575b5060200190600884016000526020600020916000905b82821062001d9657858561018081015180519068010000000000000000821162000f8f57600984015482600986015580831062001d13575b5060200190600984016000526020600020916000905b82821062001bed576101a0850151805187916001600160401b03821162000f8f5762000629600a840154620024e7565b601f811162001bb4575b50602090601f831160011462001b3f57600a92916000918362001b33575b50508160011b916000199060031b1c1916179101555b6040516001600160401b0360a082019081119082111762000f8f5760a081016040526004815260005b6080811062001b215750620006a46200249f565b620006ae62002413565b916001835260036020840152601260408401526064606084015260016080840152600160a0840152600160c08401526a084595161401484a00000060e084015269152d02c7e14af680000061010084015269d3c21bcecceda100000061012084015261016d6101408401526101608301526101808201526200072f62002434565b602d81527f5553204b594320726571756972656d656e747320756e646572204253412f414d60208201526c4c20726567756c6174696f6e7360981b60408201526101a0820152600260005260036020526040600020906200079f81511515839060ff801983541691151516179055565b60208101516004811015620012f35761ff0083549160081b169061ff001916178255604081015160018301556060810151600283015560038201620007f660808301511515829060ff801983541691151516179055565b60a08201511515815461ff0062ff000060c0860151151560101b169260081b169062ffff0019161717905560e0810151600483015561010081015160058301556101208101516006830155610140810151600783015561016081015180519068010000000000000000821162000f8f57600884015482600886015580831062001a9e575b5060200190600884016000526020600020916000905b8282106200197857858561018081015180519068010000000000000000821162000f8f576009840154826009860155808310620018f5575b5060200190600984016000526020600020916000905b828210620017cf576101a0850151805187916001600160401b03821162000f8f576200090e600a840154620024e7565b601f811162001796575b50602090601f83116001146200172157600a92916000918362001715575b50508160011b916000199060031b1c1916179101555b620009566200246d565b620009606200249f565b6200096a62002413565b916001835260016020840152601260408401526064606084015260006080840152600160a0840152600060c08401526a0422ca8b0a00a42500000060e0840152690a968163f0a57b4000006101008401526969e10de76676d080000061012084015261016d610140840152610160830152610180820152620009eb62002434565b603481527f4175737472616c6961204b594320726571756972656d656e747320756e64657260208201527f204155535452414320726567756c6174696f6e7300000000000000000000000060408201526101a08201526003600052600360205260406000209062000a6b81511515839060ff801983541691151516179055565b60208101516004811015620012f35761ff0083549160081b169061ff00191617825560408101516001830155606081015160028301556003820162000ac260808301511515829060ff801983541691151516179055565b60a08201511515815461ff0062ff000060c0860151151560101b169260081b169062ffff0019161717905560e0810151600483015561010081015160058301556101208101516006830155610140810151600783015561016081015180519068010000000000000000821162000f8f57600884015482600886015580831062001692575b5060200190600884016000526020600020916000905b8282106200156c57858561018081015180519068010000000000000000821162000f8f576009840154826009860155808310620014e9575b5060200190600984016000526020600020916000905b828210620013c3576101a0850151805187916001600160401b03821162000f8f5762000bda600a840154620024e7565b601f81116200138a575b50602090601f83116001146200131557600a92916000918362001309575b50508160011b916000199060031b1c1916179101555b62000c226200246d565b62000c2c6200249f565b62000c3662002413565b916001835260006020840152601260408401526064606084015260006080840152600160a0840152600060c084015269d3c21bcecceda100000060e084015269021e19e0c9bab240000061010084015269152d02c7e14af680000061012084015261016d61014084015261016083015261018082015262000cb662002434565b602b81527f536f75746820416672696361204b594320726571756972656d656e747320756e60208201526a19195c88119250c81058dd60aa1b60408201526101a082015260046000526003602052604060002062000d2382511515829060ff801983541691151516179055565b60208201516004811015620012f35761ff0082549160081b169061ff00191617815560408201516001820155606082015160028201556003810162000d7a60808401511515829060ff801983541691151516179055565b60a08301511515815461ff0062ff000060c0870151151560101b169260081b169062ffff0019161717905560e0820151600482015561010082015160058201556101208201516006820155610140820151600782015561016082015180519068010000000000000000821162000f8f57600883015482600885015580831062001270575b5060200190600883016000526020600020916000905b8282106200114a5785856009810161018083015180519068010000000000000000821162000f8f578254828455808310620010cb575b50602001916000526020600020916000905b82821062000fa5576101a08601518051600a8701906001600160401b03811162000f8f5762000e8c8254620024e7565b601f811162000f4d575b50602092601f821160011462000ee4579281929360009262000ed8575b50508160011b916000199060031b1c19161790555b6040516129de9081620025258239f35b01519050838062000eb3565b601f198216938360005260206000209160005b86811062000f34575083600195961062000f1a575b505050811b01905562000ec8565b015160001960f88460031b161c1916905583808062000f0c565b9192602060018192868501518155019401920162000ef7565b62000f7d90836000526020600020601f840160051c8101916020851062000f84575b601f0160051c019062002454565b8362000e96565b909150819062000f6f565b634e487b7160e01b600052604160045260246000fd5b80518051906001600160401b03821162000f8f5762000fc58654620024e7565b601f811162001095575b50602090601f83116001146200102057928260019493602093869560009262001014575b5050600019600383901b1c191690841b1787555b0194019101909262000e5c565b015190508b8062000ff3565b908660005260206000209160005b601f19851681106200107c575083602093600196938796938794601f1981161062001062575b505050811b01875562001007565b015160001960f88460031b161c191690558b808062001054565b919260206001819286850151815501940192016200102e565b620010c490876000526020600020601f850160051c8101916020861062000f8457601f0160051c019062002454565b8862000fcf565b8360005282602060002091820191015b818110620010ea575062000e4a565b80620010f960019254620024e7565b8062001108575b5001620010db565b601f81118314620011205750600081555b8862001100565b60009082825262001140601f60208420920160051c820185830162002454565b8183555562001119565b80518051906001600160401b03821162000f8f576200116a8654620024e7565b601f81116200123a575b50602090601f8311600114620011c5579282600194936020938695600092620011b9575b5050600019600383901b1c191690841b1787555b0194019101909262000e14565b015190508b8062001198565b908660005260206000209160005b601f198516811062001221575083602093600196938796938794601f1981161062001207575b505050811b018755620011ac565b015160001960f88460031b161c191690558b8080620011f9565b91926020600181928685015181550194019201620011d3565b6200126990876000526020600020601f850160051c8101916020861062000f8457601f0160051c019062002454565b8862001174565b600884016000526020600020908382015b81830181106200129357505062000dfe565b80620012a260019254620024e7565b80620012b1575b500162001281565b601f81118314620012c95750600081555b88620012a9565b600090828252620012e9601f60208420920160051c820185830162002454565b81835555620012c2565b634e487b7160e01b600052602160045260246000fd5b01519050848062000c02565b90600a840160005260206000209160005b601f1985168110620013715750918391600193600a95601f1981161062001357575b505050811b0191015562000c18565b015160001960f88460031b161c1916905584808062001348565b9192602060018192868501518155019401920162001326565b620013bc90600a85016000526020600020601f850160051c8101916020861062000f8457601f0160051c019062002454565b8362000be4565b80518051906001600160401b03821162000f8f57620013e38654620024e7565b601f8111620014b3575b50602090601f83116001146200143e57928260019493602093869560009262001432575b5050600019600383901b1c191690841b1787555b0194019101909262000baa565b015190508b8062001411565b908660005260206000209160005b601f19851681106200149a575083602093600196938796938794601f1981161062001480575b505050811b01875562001425565b015160001960f88460031b161c191690558b808062001472565b919260206001819286850151815501940192016200144c565b620014e290876000526020600020601f850160051c8101916020861062000f8457601f0160051c019062002454565b88620013ed565b600985016000526020600020908382015b81830181106200150c57505062000b94565b806200151b60019254620024e7565b806200152a575b5001620014fa565b601f81118314620015425750600081555b8862001522565b60009082825262001562601f60208420920160051c820185830162002454565b818355556200153b565b80518051906001600160401b03821162000f8f576200158c8654620024e7565b601f81116200165c575b50602090601f8311600114620015e7579282600194936020938695600092620015db575b5050600019600383901b1c191690841b1787555b0194019101909262000b5c565b015190508b80620015ba565b908660005260206000209160005b601f198516811062001643575083602093600196938796938794601f1981161062001629575b505050811b018755620015ce565b015160001960f88460031b161c191690558b80806200161b565b91926020600181928685015181550194019201620015f5565b6200168b90876000526020600020601f850160051c8101916020861062000f8457601f0160051c019062002454565b8862001596565b600885016000526020600020908382015b8183018110620016b557505062000b46565b80620016c460019254620024e7565b80620016d3575b5001620016a3565b601f81118314620016eb5750600081555b88620016cb565b6000908282526200170b601f60208420920160051c820185830162002454565b81835555620016e4565b01519050848062000936565b90600a840160005260206000209160005b601f19851681106200177d5750918391600193600a95601f1981161062001763575b505050811b019101556200094c565b015160001960f88460031b161c1916905584808062001754565b9192602060018192868501518155019401920162001732565b620017c890600a85016000526020600020601f850160051c8101916020861062000f8457601f0160051c019062002454565b8362000918565b80518051906001600160401b03821162000f8f57620017ef8654620024e7565b601f8111620018bf575b50602090601f83116001146200184a5792826001949360209386956000926200183e575b5050600019600383901b1c191690841b1787555b01940191019092620008de565b015190508b806200181d565b908660005260206000209160005b601f1985168110620018a6575083602093600196938796938794601f198116106200188c575b505050811b01875562001831565b015160001960f88460031b161c191690558b80806200187e565b9192602060018192868501518155019401920162001858565b620018ee90876000526020600020601f850160051c8101916020861062000f8457601f0160051c019062002454565b88620017f9565b600985016000526020600020908382015b818301811062001918575050620008c8565b806200192760019254620024e7565b8062001936575b500162001906565b601f811183146200194e5750600081555b886200192e565b6000908282526200196e601f60208420920160051c820185830162002454565b8183555562001947565b80518051906001600160401b03821162000f8f57620019988654620024e7565b601f811162001a68575b50602090601f8311600114620019f3579282600194936020938695600092620019e7575b5050600019600383901b1c191690841b1787555b0194019101909262000890565b015190508b80620019c6565b908660005260206000209160005b601f198516811062001a4f575083602093600196938796938794601f1981161062001a35575b505050811b018755620019da565b015160001960f88460031b161c191690558b808062001a27565b9192602060018192868501518155019401920162001a01565b62001a9790876000526020600020601f850160051c8101916020861062000f8457601f0160051c019062002454565b88620019a2565b600885016000526020600020908382015b818301811062001ac15750506200087a565b8062001ad060019254620024e7565b8062001adf575b500162001aaf565b601f8111831462001af75750600081555b8862001ad7565b60009082825262001b17601f60208420920160051c820185830162002454565b8183555562001af0565b80606060208093850101520162000690565b01519050848062000651565b90600a840160005260206000209160005b601f198516811062001b9b5750918391600193600a95601f1981161062001b81575b505050811b0191015562000667565b015160001960f88460031b161c1916905584808062001b72565b9192602060018192868501518155019401920162001b50565b62001be690600a85016000526020600020601f850160051c8101916020861062000f8457601f0160051c019062002454565b8362000633565b80518051906001600160401b03821162000f8f5762001c0d8654620024e7565b601f811162001cdd575b50602090601f831160011462001c6857928260019493602093869560009262001c5c575b5050600019600383901b1c191690841b1787555b01940191019092620005f9565b015190508b8062001c3b565b908660005260206000209160005b601f198516811062001cc4575083602093600196938796938794601f1981161062001caa575b505050811b01875562001c4f565b015160001960f88460031b161c191690558b808062001c9c565b9192602060018192868501518155019401920162001c76565b62001d0c90876000526020600020601f850160051c8101916020861062000f8457601f0160051c019062002454565b8862001c17565b600985016000526020600020908382015b818301811062001d36575050620005e3565b8062001d4560019254620024e7565b8062001d54575b500162001d24565b601f8111831462001d6c5750600081555b8862001d4c565b60009082825262001d8c601f60208420920160051c820185830162002454565b8183555562001d65565b80518051906001600160401b03821162000f8f5762001db68654620024e7565b601f811162001e86575b50602090601f831160011462001e1157928260019493602093869560009262001e05575b5050600019600383901b1c191690841b1787555b01940191019092620005ab565b015190508b8062001de4565b908660005260206000209160005b601f198516811062001e6d575083602093600196938796938794601f1981161062001e53575b505050811b01875562001df8565b015160001960f88460031b161c191690558b808062001e45565b9192602060018192868501518155019401920162001e1f565b62001eb590876000526020600020601f850160051c8101916020861062000f8457601f0160051c019062002454565b8862001dc0565b600885016000526020600020908382015b818301811062001edf57505062000595565b8062001eee60019254620024e7565b8062001efd575b500162001ecd565b601f8111831462001f155750600081555b8862001ef5565b60009082825262001f35601f60208420920160051c820185830162002454565b8183555562001f0e565b806060602080938501015201620003b7565b80606060208093850101520162000382565b01519050848062000343565b90600a840160005260206000209160005b601f198516811062001fcb5750918391600193600a95601f1981161062001fb1575b505050811b0191015562000359565b015160001960f88460031b161c1916905584808062001fa2565b9192602060018192868501518155019401920162001f80565b6200201690600a85016000526020600020601f850160051c8101916020861062000f8457601f0160051c019062002454565b8362000325565b80518051906001600160401b03821162000f8f576200203d8654620024e7565b601f81116200210d575b50602090601f8311600114620020985792826001949360209386956000926200208c575b5050600019600383901b1c191690841b1787555b01940191019092620002eb565b015190508b806200206b565b908660005260206000209160005b601f1985168110620020f4575083602093600196938796938794601f19811610620020da575b505050811b0187556200207f565b015160001960f88460031b161c191690558b8080620020cc565b91926020600181928685015181550194019201620020a6565b6200213c90876000526020600020601f850160051c8101916020861062000f8457601f0160051c019062002454565b8862002047565b600985016000526020600020908382015b818301811062002166575050620002d5565b806200217560019254620024e7565b8062002184575b500162002154565b601f9081811184146200219f575050600081555b886200217c565b620021bd60009284845260208420920160051c820185830162002454565b8183555562002198565b80518051906001600160401b03821162000f8f57620021e78654620024e7565b601f8111620022b7575b50602090601f83116001146200224257928260019493602093869560009262002236575b5050600019600383901b1c191690841b1787555b019401910190926200029d565b01519050388062002215565b908660005260206000209160005b601f19851681106200229e575083602093600196938796938794601f1981161062002284575b505050811b01875562002229565b015160001960f88460031b161c1916905538808062002276565b9192602060018192868501518155019401920162002250565b620022e690876000526020600020601f850160051c8101916020861062000f8457601f0160051c019062002454565b38620021f1565b600885016000526020600020908382015b81830181106200231057505062000287565b806200231f60019254620024e7565b806200232e575b5001620022fe565b601f90818111841462002349575050600081555b3862002326565b6200236760009284845260208420920160051c820185830162002454565b8183555562002342565b90928351906005821015620012f3576001916020918460031b9160ff809116831b921b1916179401910162000092565b600560008190527f036b6384b5eca791c62761152d0c79bb0604c104a5fb6f4eb0703f3154bb3db0805464ffffffffff1681556200240792601f0190911c017f036b6384b5eca791c62761152d0c79bb0604c104a5fb6f4eb0703f3154bb3db162002454565b3862000081565b600080fd5b604051906101c082016001600160401b0381118382101762000f8f57604052565b60405190606082016001600160401b0381118382101762000f8f57604052565b81811062002460575050565b6000815560010162002454565b6200247762002434565b90600282528160005b604081106200248d575050565b80606060208093850101520162002480565b604080519081016001600160401b0381118282101762000f8f57604052600181528060005b602080821015620024e157906060602092828501015201620024c4565b50505090565b90600182811c9216801562002519575b60208310146200250357565b634e487b7160e01b600052602260045260246000fd5b91607f1691620024f756fe608080604052600436101561001357600080fd5b60003560e01c90816302d607e614611ea9575080630c2cd733146116e85780632f4feae71461153b578063342cfd1c146114a45780633da789b4146113f85780634659622c146112a757806349fd2ff514611246578063526241a814611207578063542a086c146110fc57806372f79b21146110aa5780638337376814610e6357806384318c71146106655780638da5cb5b1461063e578063a3b940f814610602578063ad6e823b14610598578063b9a37f001461020c578063de3385d3146101c35763fb9d513d146100e557600080fd5b346101be5760203660031901126101be5760043560058110156101be5760206101ba61011260ff9361228b565b8054906001810154600282015460038301548760048501549160058601549360068701549561016561014b600a60078b01549a016120dc565b996040519d8e9d8e82841615158152019160081c166121e5565b60408b015260608a0152818116151560808a0152818160081c16151560a08a015260101c16151560c088015260e087015261010086015261012085015261014084015261018080610160850152830190612021565b0390f35b600080fd5b346101be5760203660031901126101be57600435600581109081156101be576101f860ff916101f36020946122ef565b61228b565b5460081c1661020a60405180926121e5565bf35b346101be5760c03660031901126101be5767ffffffffffffffff6004358181116101be5761023e903690600401611f8b565b6024918235916005938484109485156101be57604435938185109081156101be576064358015158091036101be576084359160a4359081116101be5761028b6102b8913690600401611f8b565b93336000526102b360209b60028d5260ff60406000205416801561057f575b6102b3906122a4565b6122ef565b6102c061248f565b6102d16102cb6126b2565b87612514565b6102e26102dc61233a565b84612514565b6103206040516102f181611f4d565b600e81527f76616c6964697479506572696f640000000000000000000000000000000000008b820152836125ec565b6040519360ff8751958b81818b019861033a81838c611ffe565b810160048152030190205460081c168181101561056a571580610538575b156104f55787896103d96103b98d604051996103738b611f14565b60018b52610384828c0195866126eb565b61039260408c0196876126eb565b60608b0197885260808b0198895260a08b01998a528c604051938492839251928391611ffe565b8101600481520301902097511515889060ff801983541691151516179055565b5192828410156104e05786549151928310156104e0579162ff00006104339796949261ff0063ff0000006002989651151560181b169460081b169063ffffff001916179160101b161717845551600184015551910161238a565b600654680100000000000000008110156104cb578060016104579201600655612182565b9190916104b7575060409261049a836104957f1acb731433168e455a9261db376c01539f78db6d5bcf522287f5182c86b9614d97956104af9561238a565b6126f7565b956104a785518095611f07565b830190611f07565ba26001600055005b634e487b7160e01b60005260006004526000fd5b50634e487b7160e01b60005260416004526000fd5b87634e487b7160e01b60005260216004526000fd5b60648a6013886040519262461bcd60e51b845260048401528201527f52756c6520616c726561647920657869737473000000000000000000000000006044820152fd5b5060ff6040518b818a5161054d81838c611ffe565b810160048152030190205460101c168181101561056a5715610358565b86634e487b7160e01b60005260216004526000fd5b506102b36001600160a01b0360015416331490506102aa565b346101be5760203660031901126101be5760206105b36121cf565b6105c46105be6128f5565b8261292e565b6001600160a01b03809116806000526002835260ff604060002054169182156105f4575b50506040519015158152f35b6001541614905082806105e8565b346101be5760203660031901126101be57600435600581109081156101be5761063260ff916101f36020946122ef565b54166040519015158152f35b346101be5760003660031901126101be5760206001600160a01b0360015416604051908152f35b346101be576003196040368201126101be57600560043510156101be5767ffffffffffffffff602435116101be576101c090602435360301126101be576040516106ae81611f30565b6106bc602435600401611ff1565b8152600460248035013510156101be576024803590810135602083015260448101356040830152606481013560608301526106f990608401611ff1565b608082015261070c60a460243501611ff1565b60a082015261071f60c460243501611ff1565b60c082015260243560e481013560e0830152610104810135610100830152610124810135610120830152610144810135610140830152610164013567ffffffffffffffff81116101be5761077b9060043691602435010161220a565b610160820152610184602435013567ffffffffffffffff81116101be576107aa9060043691602435010161220a565b6101808201526101a4602435013567ffffffffffffffff81116101be576107d990600436916024350101611f8b565b6101a082015233600052600260205260ff604060002054168015610e4a575b610801906122a4565b61080f6004356005116122ef565b61081761248f565b60408101516040519061082982611f4d565b6006825260208201917f6d696e416765000000000000000000000000000000000000000000000000000083526040519267024b73b30b634b2160c51b9182602086015280519160289280848801906108819184611ffe565b860195807f3a2062656c6f77206d696e696d756d0000000000000000000000000000000000978886820152036017810182526037016108c09082611f69565b6108ce9060108710156124e4565b604051918460208401525190818484016108e792611ffe565b810193817f3a2061626f7665206d6178696d756d0000000000000000000000000000000000958685820152036017810183526037016109269083611f69565b6064101590610934916124e4565b60608501519260408601516040519561094c87611f4d565b6006875260208701917f6d6178416765000000000000000000000000000000000000000000000000000083526040518092876020830152895180888401906109949188611ffe565b82019087820152036017810183526037016109af9083611f69565b861015906109bc916124e4565b60405195869460208601525190818486016109d692611ffe565b830191820152036017810183526037016109f09083611f69565b60781015906109fe916124e4565b60e0810151604051610a0f81611f4d565b601381527f6d61785472616e73616374696f6e4c696d6974000000000000000000000000006020820152610a42916125ec565b610100810151604051610a5481611f4d565b600a81527f6461696c794c696d6974000000000000000000000000000000000000000000006020820152610a87916125ec565b610120810151604051610a9981611f4d565b600c81527f6d6f6e74686c794c696d697400000000000000000000000000000000000000006020820152610acc916125ec565b610140810151604051610ade81611f4d565b601181527f6b796356616c6964697479506572696f640000000000000000000000000000006020820152610b11916125ec565b6101a0810151610b1f61233a565b610b2891612514565b602081015160041115610cf257610b4060043561228b565b90610b5a81511515839060ff801983541691151516179055565b60208101516004811015610cf25761ff0083549160081b169061ff001916178255604081015160018301556060810151600283015560038201610baf60808301511515829060ff801983541691151516179055565b60a08201511515815461ff0062ff000060c0860151151560101b169260081b169062ffff0019161717905560e08101516004830155610100810151600583015561012081015160068301556101408101516007830155610160810151805190680100000000000000008211610d9e576008840154826008860155808310610dd1575b506020016008840160005260206000206000915b838310610db4578585610180810151805190680100000000000000008211610d9e576009840154826009860155808310610d25575b506020016009840160005260206000206000915b838310610d0857602085610cab88600a6101a0840151910161238a565b01516004811015610cf257610cc360405180926121e5565b7f770e83011c132c5ff8504dfde4a8a50791604aa212c636a6c3ed45704faa0dfc602060043592a26001600055005b634e487b7160e01b600052602160045260246000fd5b6001602082610d198394518661238a565b01920192019190610c8e565b600985016000526020600020908382015b8183018110610d46575050610c7a565b80610d53600192546120a2565b80610d60575b5001610d36565b601f908181118414610d79575050600081555b88610d59565b610d9560009284845260208420920160051c8201858301612373565b81835555610d73565b634e487b7160e01b600052604160045260246000fd5b6001602082610dc58394518661238a565b01920192019190610c45565b600885016000526020600020908382015b8183018110610df2575050610c31565b80610dff600192546120a2565b80610e0c575b5001610de2565b601f908181118414610e25575050600081555b88610e05565b610e4160009284845260208420920160051c8201858301612373565b81835555610e1f565b506108016001600160a01b0360015416331490506107f8565b346101be5760203660031901126101be57600435600581109081156101be576101f3610efb9260606101a0604051610e9a81611f30565b60008152600060208201526000604082015260008382015260006080820152600060a0820152600060c0820152600060e0820152600061010082015260006101208201526000610140820152826101608201528261018082015201526122ef565b604051610f0781611f30565b81549160ff831615158252600460ff8460081c161015610cf257600a610fc89160ff6101ba9560081c166020850152600181015460408501526002810154606085015260ff600382015481811615156080870152818160081c16151560a087015260101c16151560c0850152600481015460e0850152600581015461010085015260068101546101208501526007810154610140850152610faa6008820161265d565b610160850152610fbc6009820161265d565b610180850152016120dc565b6101a082015260405191829160208352805115156020840152610ff3602082015160408501906121e5565b60408101516060840152606081015160808401526080810151151560a084015260a0810151151560c084015260c0810151151560e084015260e08101516101008401526101008101516101208401526101208101516101408401526101408101516101608401526101608101516110796101c091826101808701526101e0860190612046565b906101a061109961018085015193601f19948589830301848a0152612046565b930151918584030190850152612021565b346101be5760403660031901126101be57600435600581109081156101be57602435600581109182156101be576110e96110ee936102b36040966122ef565b612717565b825191151582526020820152f35b346101be5760403660031901126101be576111156121cf565b61111d611fe2565b906001600160a01b03908160015416330361119d577e8ebc621f24e0e9d1fd4ee2f7df9bb80c8d61ee30a9167a4fee6cefcf8c021e9160209161115e61248f565b6111696105be6128f5565b1692836000526002825261118d8160406000209060ff801983541691151516179055565b6040519015158152a26001600055005b608460405162461bcd60e51b815260206004820152602160248201527f4f6e6c79206f776e65722063616e2063616c6c20746869732066756e6374696f60448201527f6e000000000000000000000000000000000000000000000000000000000000006064820152fd5b346101be5760203660031901126101be576001600160a01b036112286121cf565b166000526002602052602060ff604060002054166040519015158152f35b346101be5760203660031901126101be576004356006548110156101be5761126d90612182565b6112915761127d6101ba916120dc565b604051918291602083526020830190612021565b634e487b7160e01b600052600060045260246000fd5b346101be576020806003193601126101be5760043567ffffffffffffffff81116101be57816112dd611331923690600401611f8b565b606060a06040516112ed81611f14565b600081526000858201526000604082015260008382015260006080820152015261131e6113186126b2565b82612514565b8160405193828580945193849201611ffe565b810160048152030190206101ba6040519161134b83611f14565b80549060ff8216151584528484019161136a60ff8260081c16846126eb565b6113d96040860161138160ff8460101c16826126eb565b60ff606088019360181c16151583526113ce6113ab600260018701549660808b01978852016120dc565b9560a08901968752604051998a99818b52511515908a0152516040890190611f07565b516060870190611f07565b51151560808501525160a08401525160c08084015260e0830190612021565b346101be5760203660031901126101be5760043567ffffffffffffffff81116101be57611430602061131e60ff933690600401611f8b565b810160048152030190206101ba8154916114516002600183015492016120dc565b906040519484818796161515865261147160208701838360081c16611f07565b61148360408701838360101c16611f07565b60181c1615156060850152608084015260c060a084015260c0830190612021565b346101be5760003660031901126101be576006546114c1816121f2565b906114cf6040519283611f69565b80825260209081830160066000527ff652222313e28459528d920b65115c16c04f3efc82aaedc97be59f3f377c0d3f836000925b84841061151d57604051828152806101ba8185018a612046565b600191829161152b856120dc565b8152019201920191908490611503565b346101be5760403660031901126101be5760043567ffffffffffffffff81116101be5761156c903690600401611f8b565b611574611fe2565b90336000526020906002825260ff6040600020541680156116cf575b611599906122a4565b6115a161248f565b6115ac6113186126b2565b60405160ff8251918481818601946115c5818388611ffe565b810160048152030190205460081c166005811015610cf2571580159061169b575b156116575782916104958561162b7f5673cc323b1349f86b1f25c1529e7c6e715a47eb5d5f96900c9c6cd2098ca2899661164695604051809381928851928391611ffe565b810160048152030190209060ff801983541691151516179055565b926040519015158152a26001600055005b6064836040519062461bcd60e51b82526004820152600e60248201527f52756c65206e6f7420666f756e640000000000000000000000000000000000006044820152fd5b5060ff604051848185516116b0818388611ffe565b810160048152030190205460101c166005811015610cf25715156115e6565b506115996001600160a01b036001541633149050611590565b346101be5760003660031901126101be57604051806005549081835260208093019181848460056000527f036b6384b5eca791c62761152d0c79bb0604c104a5fb6f4eb0703f3154bb3db06000905b85601f830110611c39579461185595549184828210611c1f575b828210611c02575b828210611be5575b828210611bc8575b828210611bac575b828210611b8f575b828210611b72575b828210611b55575b828210611b38575b828210611b1b575b828210611afe575b828210611ae1575b828210611ac4575b828210611aa7575b828210611a8a575b828210611a6d575b828210611a50575b828210611a33575b828210611a16575b8282106119f9575b8282106119dc575b8282106119bf575b8282106119a2575b828210611985575b828210611968575b82821061194b575b82821061192e575b828210611911575b8282106118f4575b8282106118d7575b8282106118ba575b50106118a4575b5090509392930383611f69565b604051928392818401908285525180915260408401929160005b82811061187e57505050500390f35b9193839550908082611894600194839751611f07565b019501910191859493919261186f565b816118b19160f81c611f07565b01859087611848565b846118ce6001939660ff8760f01c16611f07565b01930184611841565b846118eb6001939660ff8760e81c16611f07565b01930184611839565b846119086001939660ff8760e01c16611f07565b01930184611831565b846119256001939660ff8760d81c16611f07565b01930184611829565b846119426001939660ff8760d01c16611f07565b01930184611821565b8461195f6001939660ff8760c81c16611f07565b01930184611819565b8461197c6001939660ff8760c01c16611f07565b01930184611811565b846119996001939660ff8760b81c16611f07565b01930184611809565b846119b66001939660ff8760b01c16611f07565b01930184611801565b846119d36001939660ff8760a81c16611f07565b019301846117f9565b846119f06001939660ff8760a01c16611f07565b019301846117f1565b84611a0d6001939660ff8760981c16611f07565b019301846117e9565b84611a2a6001939660ff8760901c16611f07565b019301846117e1565b84611a476001939660ff8760881c16611f07565b019301846117d9565b84611a646001939660ff8760801c16611f07565b019301846117d1565b84611a816001939660ff8760781c16611f07565b019301846117c9565b84611a9e6001939660ff8760701c16611f07565b019301846117c1565b84611abb6001939660ff8760681c16611f07565b019301846117b9565b84611ad86001939660ff8760601c16611f07565b019301846117b1565b84611af56001939660ff8760581c16611f07565b019301846117a9565b84611b126001939660ff8760501c16611f07565b019301846117a1565b84611b2f6001939660ff8760481c16611f07565b01930184611799565b84611b4c6001939660ff8760401c16611f07565b01930184611791565b84611b696001939660ff8760381c16611f07565b01930184611789565b84611b866001939660ff8760301c16611f07565b01930184611781565b84611ba36001939660ff8760281c16611f07565b01930184611779565b84611bbf6001939660ff87851c16611f07565b01930184611771565b84611bdc6001939660ff8760181c16611f07565b01930184611769565b84611bf96001939660ff8760101c16611f07565b01930184611761565b84611c166001939660ff8760081c16611f07565b01930184611759565b84611c306001939660ff8716611f07565b01930184611751565b9350916001610400829693611e9a8754611e8c60ff611c5a85828516611f07565b611c6b888601828560081c16611f07565b611c7d60408601828560101c16611f07565b611e1d85611dd56060611c97818401868960181c16611f07565b611d8d8c611cae608091888b848901921c16611f07565b611d4560a093611cc58588018a8d60281c16611f07565b888b61018060c099611cde8b8201858560301c16611f07565b611cf060e08201858560381c16611f07565b611d036101008201858560401c16611f07565b611d166101208201858560481c16611f07565b611d296101408201858560501c16611f07565b611d3c6101608201858560581c16611f07565b01921c16611f07565b611d586101a08c01888b60681c16611f07565b611d6b6101c08c01888b60701c16611f07565b611d7e6101e08c01888b60781c16611f07565b86896102008d01921c16611f07565b611da06102208a01868960881c16611f07565b611db36102408a01868960901c16611f07565b611dc66102608a01868960981c16611f07565b84876102808b01921c16611f07565b611de86102a08801848760a81c16611f07565b611dfb6102c08801848760b01c16611f07565b611e0e6102e08801848760b81c16611f07565b82856103008901921c16611f07565b611e306103208601828560c81c16611f07565b611e436103408601828560d01c16611f07565b611e566103608601828560d81c16611f07565b611e696103808601828560e01c16611f07565b611e7c6103a08601828560e81c16611f07565b6103c08501908360f01c16611f07565b6103e083019060f81c611f07565b01940192018593919492611737565b346101be5760203660031901126101be57600435906005548210156101be5761020a8160ff602094600560005260f88160051c7f036b6384b5eca791c62761152d0c79bb0604c104a5fb6f4eb0703f3154bb3db001549160031b161c165b906005821015610cf25752565b60c0810190811067ffffffffffffffff821117610d9e57604052565b6101c0810190811067ffffffffffffffff821117610d9e57604052565b6040810190811067ffffffffffffffff821117610d9e57604052565b90601f8019910116810190811067ffffffffffffffff821117610d9e57604052565b81601f820112156101be5780359067ffffffffffffffff8211610d9e5760405192611fc0601f8401601f191660200185611f69565b828452602083830101116101be57816000926020809301838601378301015290565b6024359081151582036101be57565b359081151582036101be57565b60005b8381106120115750506000910152565b8181015183820152602001612001565b9060209161203a81518092818552858086019101611ffe565b601f01601f1916010190565b908082519081815260208091019281808460051b8301019501936000915b8483106120745750505050505090565b9091929394958480612092600193601f198682030187528a51612021565b9801930193019194939290612064565b90600182811c921680156120d2575b60208310146120bc57565b634e487b7160e01b600052602260045260246000fd5b91607f16916120b1565b90604051918260008254926120f0846120a2565b90818452600194858116908160001461215f575060011461211c575b505061211a92500383611f69565b565b9093915060005260209081600020936000915b81831061214757505061211a9350820101388061210c565b8554888401850152948501948794509183019161212f565b91505061211a94506020925060ff191682840152151560051b820101388061210c565b6006548110156121b95760066000527ff652222313e28459528d920b65115c16c04f3efc82aaedc97be59f3f377c0d3f0190600090565b634e487b7160e01b600052603260045260246000fd5b600435906001600160a01b03821682036101be57565b906004821015610cf25752565b67ffffffffffffffff8111610d9e5760051b60200190565b9080601f830112156101be57813590612222826121f2565b926122306040519485611f69565b828452602092838086019160051b830101928084116101be57848301915b84831061225e5750505050505090565b823567ffffffffffffffff81116101be57869161228084848094890101611f8b565b81520192019161224e565b6005811015610cf2576000526003602052604060002090565b156122ab57565b606460405162461bcd60e51b815260206004820152601760248201527f4e6f7420617574686f72697a656420746f2077726974650000000000000000006044820152fd5b156122f657565b606460405162461bcd60e51b815260206004820152601460248201527f496e76616c6964206a7572697364696374696f6e0000000000000000000000006044820152fd5b6040519061234782611f4d565b600b82527f6465736372697074696f6e0000000000000000000000000000000000000000006020830152565b81811061237e575050565b60008155600101612373565b919091825167ffffffffffffffff8111610d9e576123a882546120a2565b601f8111612452575b50602080601f83116001146123ee5750819293946000926123e3575b50508160011b916000199060031b1c1916179055565b0151905038806123cd565b90601f198316958460005282600020926000905b88821061243a57505083600195969710612421575b505050811b019055565b015160001960f88460031b161c19169055388080612417565b80600185968294968601518155019501930190612402565b61247f90836000526020600020601f840160051c81019160208510612485575b601f0160051c0190612373565b386123b1565b9091508190612472565b6002600054146124a0576002600055565b606460405162461bcd60e51b815260206004820152601f60248201527f5265656e7472616e637947756172643a207265656e7472616e742063616c6c006044820152fd5b156124ec5750565b6125109060405191829162461bcd60e51b8352602060048401526024830190612021565b0390fd5b906020612592603961211a94610100815115159161259760405167024b73b30b634b2160c51b9485898301526125926036838c61255c81519d8e92019d8e6028850190611ffe565b81017f3a20656d70747920737472696e670000000000000000000000000000000000006028820152036016810185520183611f69565b6124e4565b511115936125b660405196879360208501525180926028850190611ffe565b81017f3a20737472696e6720746f6f206c6f6e670000000000000000000000000000006028820152036019810185520183611f69565b9061211a91612656603a604051809467024b73b30b634b2160c51b6020830152612620815180926020602886019101611ffe565b81017f3a206d75737420626520706f7369746976650000000000000000000000000000602882015203601a810185520183611f69565b15156124e4565b908154612669816121f2565b926126776040519485611f69565b818452600090815260208082208186015b848410612696575050505050565b60018381926126a4856120dc565b815201920193019290612688565b604051906126bf82611f4d565b600682527f72756c65496400000000000000000000000000000000000000000000000000006020830152565b6005821015610cf25752565b61270f90602060405192828480945193849201611ffe565b810103902090565b6006549160005b8381106127315750505050600090600090565b61273a81612182565b50604090815191600082549261274f846120a2565b9060019485811690816000146128de57506001146128a9575b50508360049182815260209586910301902093825161278681611f14565b6127da600287549660ff94858916151585528401966127aa868a60081c16896126eb565b8401946127bc818a60101c16876126eb565b606085019860181c16151588528801549760808401988952016120dc565b60a08201525115159283612876575b508261282e575b505061281f57505060001981146128095760010161271e565b634e487b7160e01b600052601160045260246000fd5b93509493505050511515915190565b5191506005808310156128615786101561284c5750841438806127f0565b602190634e487b7160e01b6000525260246000fd5b602182634e487b7160e01b6000525260246000fd5b909250516005808210156128945788101561286157871491386127e9565b602183634e487b7160e01b6000525260246000fd5b9091506000526020806000206000905b858483106128ce575050505083013880612768565b81548884015291830191016128b9565b60ff19168752505080151502840190503880612768565b6040519061290282611f4d565b600682527f77726974657200000000000000000000000000000000000000000000000000006020830152565b906001600160a01b0361211a926129a06036604051809567024b73b30b634b2160c51b602083015261296a815180926020602886019101611ffe565b81017f3a207a65726f20616464726573730000000000000000000000000000000000006028820152036016810186520184611f69565b1615156124e456fea2646970667358221220a55fdf147810dedda92b482edbe83e0e0ff49d677b9b5cb87ee0a1418df3bd1964736f6c63430008140033",
  "linkReferences": {},
  "deployedLinkReferences": {}
}