{
  "_format": "hh-sol-artifact-1",
  "contractName": "KYCDataStorage",
  "sourceName": "contracts/storage/KYCDataStorage.sol",
  "abi": [
    {
      "inputs": [],
      "stateMutability": "nonpayable",
      "type": "constructor"
    },
    {
      "anonymous": false,
      "inputs": [
        {
          "indexed": true,
          "internalType": "address",
          "name": "writer",
          "type": "address"
        },
        {
          "indexed": false,
          "internalType": "bool",
          "name": "authorized",
          "type": "bool"
        }
      ],
      "name": "AuthorizedWriterUpdated",
      "type": "event"
    },
    {
      "anonymous": false,
      "inputs": [
        {
          "indexed": false,
          "internalType": "string",
          "name": "jurisdiction",
          "type": "string"
        },
        {
          "indexed": false,
          "internalType": "string",
          "name": "field",
          "type": "string"
        },
        {
          "indexed": false,
          "internalType": "uint256",
          "name": "value",
          "type": "uint256"
        }
      ],
      "name": "JurisdictionConfigUpdated",
      "type": "event"
    },
    {
      "anonymous": false,
      "inputs": [
        {
          "indexed": false,
          "internalType": "string",
          "name": "field",
          "type": "string"
        },
        {
          "indexed": false,
          "internalType": "uint256",
          "name": "oldValue",
          "type": "uint256"
        },
        {
          "indexed": false,
          "internalType": "uint256",
          "name": "newValue",
          "type": "uint256"
        }
      ],
      "name": "KYCConfigUpdated",
      "type": "event"
    },
    {
      "anonymous": false,
      "inputs": [
        {
          "indexed": true,
          "internalType": "address",
          "name": "user",
          "type": "address"
        },
        {
          "indexed": false,
          "internalType": "string",
          "name": "jurisdiction",
          "type": "string"
        },
        {
          "indexed": false,
          "internalType": "string",
          "name": "tenantId",
          "type": "string"
        },
        {
          "indexed": false,
          "internalType": "uint256",
          "name": "riskScore",
          "type": "uint256"
        },
        {
          "indexed": false,
          "internalType": "uint256",
          "name": "expiresAt",
          "type": "uint256"
        }
      ],
      "name": "KYCDataStored",
      "type": "event"
    },
    {
      "anonymous": false,
      "inputs": [
        {
          "indexed": true,
          "internalType": "address",
          "name": "user",
          "type": "address"
        },
        {
          "indexed": false,
          "internalType": "string",
          "name": "field",
          "type": "string"
        },
        {
          "indexed": false,
          "internalType": "uint256",
          "name": "timestamp",
          "type": "uint256"
        }
      ],
      "name": "KYCDataUpdated",
      "type": "event"
    },
    {
      "anonymous": false,
      "inputs": [
        {
          "indexed": true,
          "internalType": "address",
          "name": "user",
          "type": "address"
        },
        {
          "indexed": true,
          "internalType": "address",
          "name": "wallet",
          "type": "address"
        },
        {
          "indexed": false,
          "internalType": "uint256",
          "name": "walletCount",
          "type": "uint256"
        }
      ],
      "name": "WalletLinked",
      "type": "event"
    },
    {
      "anonymous": false,
      "inputs": [
        {
          "indexed": true,
          "internalType": "address",
          "name": "user",
          "type": "address"
        },
        {
          "indexed": true,
          "internalType": "address",
          "name": "wallet",
          "type": "address"
        },
        {
          "indexed": false,
          "internalType": "uint256",
          "name": "walletCount",
          "type": "uint256"
        }
      ],
      "name": "WalletUnlinked",
      "type": "event"
    },
    {
      "inputs": [],
      "name": "CONTRACT_NAME",
      "outputs": [
        {
          "internalType": "string",
          "name": "",
          "type": "string"
        }
      ],
      "stateMutability": "view",
      "type": "function"
    },
    {
      "inputs": [],
      "name": "VERSION",
      "outputs": [
        {
          "internalType": "uint256",
          "name": "",
          "type": "uint256"
        }
      ],
      "stateMutability": "view",
      "type": "function"
    },
    {
      "inputs": [
        {
          "internalType": "address",
          "name": "",
          "type": "address"
        }
      ],
      "name": "authorizedWriters",
      "outputs": [
        {
          "internalType": "bool",
          "name": "",
          "type": "bool"
        }
      ],
      "stateMutability": "view",
      "type": "function"
    },
    {
      "inputs": [
        {
          "internalType": "address",
          "name": "user",
          "type": "address"
        },
        {
          "internalType": "uint256",
          "name": "additionalTime",
          "type": "uint256"
        }
      ],
      "name": "extendKYCExpiry",
      "outputs": [],
      "stateMutability": "nonpayable",
      "type": "function"
    },
    {
      "inputs": [
        {
          "internalType": "string",
          "name": "jurisdiction",
          "type": "string"
        }
      ],
      "name": "getJurisdictionConfig",
      "outputs": [
        {
          "internalType": "uint256",
          "name": "expiryDuration",
          "type": "uint256"
        },
        {
          "internalType": "uint256",
          "name": "riskThreshold",
          "type": "uint256"
        }
      ],
      "stateMutability": "view",
      "type": "function"
    },
    {
      "inputs": [],
      "name": "getKYCConfig",
      "outputs": [
        {
          "components": [
            {
              "internalType": "uint256",
              "name": "defaultExpiryDuration",
              "type": "uint256"
            },
            {
              "internalType": "uint256",
              "name": "maxRiskScore",
              "type": "uint256"
            },
            {
              "internalType": "bool",
              "name": "allowMultipleWallets",
              "type": "bool"
            },
            {
              "internalType": "uint256",
              "name": "maxWalletsPerUser",
              "type": "uint256"
            },
            {
              "internalType": "bool",
              "name": "requireJurisdictionMatch",
              "type": "bool"
            }
          ],
          "internalType": "struct KYCDataStorage.KYCConfig",
          "name": "",
          "type": "tuple"
        }
      ],
      "stateMutability": "view",
      "type": "function"
    },
    {
      "inputs": [
        {
          "internalType": "address",
          "name": "user",
          "type": "address"
        }
      ],
      "name": "getKYCData",
      "outputs": [
        {
          "components": [
            {
              "internalType": "bool",
              "name": "isVerified",
              "type": "bool"
            },
            {
              "internalType": "string",
              "name": "verificationHash",
              "type": "string"
            },
            {
              "internalType": "uint256",
              "name": "verificationDate",
              "type": "uint256"
            },
            {
              "internalType": "uint256",
              "name": "riskScore",
              "type": "uint256"
            },
            {
              "internalType": "bool",
              "name": "isActive",
              "type": "bool"
            },
            {
              "internalType": "uint256",
              "name": "expiresAt",
              "type": "uint256"
            },
            {
              "internalType": "address",
              "name": "linkedWallet",
              "type": "address"
            },
            {
              "internalType": "string",
              "name": "jurisdiction",
              "type": "string"
            },
            {
              "internalType": "string",
              "name": "tenantId",
              "type": "string"
            }
          ],
          "internalType": "struct KYCDataStorage.KYCData",
          "name": "",
          "type": "tuple"
        }
      ],
      "stateMutability": "view",
      "type": "function"
    },
    {
      "inputs": [
        {
          "internalType": "address",
          "name": "user",
          "type": "address"
        }
      ],
      "name": "getKYCStatus",
      "outputs": [
        {
          "internalType": "bool",
          "name": "isVerified",
          "type": "bool"
        },
        {
          "internalType": "bool",
          "name": "isActive",
          "type": "bool"
        },
        {
          "internalType": "bool",
          "name": "isExpired",
          "type": "bool"
        }
      ],
      "stateMutability": "view",
      "type": "function"
    },
    {
      "inputs": [
        {
          "internalType": "address",
          "name": "user",
          "type": "address"
        }
      ],
      "name": "getLinkedWallets",
      "outputs": [
        {
          "internalType": "address[]",
          "name": "",
          "type": "address[]"
        }
      ],
      "stateMutability": "view",
      "type": "function"
    },
    {
      "inputs": [
        {
          "internalType": "string",
          "name": "tenantId",
          "type": "string"
        }
      ],
      "name": "getTenantUsers",
      "outputs": [
        {
          "internalType": "address[]",
          "name": "",
          "type": "address[]"
        }
      ],
      "stateMutability": "view",
      "type": "function"
    },
    {
      "inputs": [
        {
          "internalType": "address",
          "name": "user",
          "type": "address"
        }
      ],
      "name": "getWalletCount",
      "outputs": [
        {
          "internalType": "uint256",
          "name": "",
          "type": "uint256"
        }
      ],
      "stateMutability": "view",
      "type": "function"
    },
    {
      "inputs": [
        {
          "internalType": "address",
          "name": "writer",
          "type": "address"
        }
      ],
      "name": "isAuthorizedWriter",
      "outputs": [
        {
          "internalType": "bool",
          "name": "",
          "type": "bool"
        }
      ],
      "stateMutability": "view",
      "type": "function"
    },
    {
      "inputs": [
        {
          "internalType": "address",
          "name": "user",
          "type": "address"
        }
      ],
      "name": "isKYCValid",
      "outputs": [
        {
          "internalType": "bool",
          "name": "",
          "type": "bool"
        }
      ],
      "stateMutability": "view",
      "type": "function"
    },
    {
      "inputs": [
        {
          "internalType": "string",
          "name": "",
          "type": "string"
        }
      ],
      "name": "jurisdictionExpiryDurations",
      "outputs": [
        {
          "internalType": "uint256",
          "name": "",
          "type": "uint256"
        }
      ],
      "stateMutability": "view",
      "type": "function"
    },
    {
      "inputs": [
        {
          "internalType": "string",
          "name": "",
          "type": "string"
        }
      ],
      "name": "jurisdictionRiskThresholds",
      "outputs": [
        {
          "internalType": "uint256",
          "name": "",
          "type": "uint256"
        }
      ],
      "stateMutability": "view",
      "type": "function"
    },
    {
      "inputs": [],
      "name": "kycConfig",
      "outputs": [
        {
          "internalType": "uint256",
          "name": "defaultExpiryDuration",
          "type": "uint256"
        },
        {
          "internalType": "uint256",
          "name": "maxRiskScore",
          "type": "uint256"
        },
        {
          "internalType": "bool",
          "name": "allowMultipleWallets",
          "type": "bool"
        },
        {
          "internalType": "uint256",
          "name": "maxWalletsPerUser",
          "type": "uint256"
        },
        {
          "internalType": "bool",
          "name": "requireJurisdictionMatch",
          "type": "bool"
        }
      ],
      "stateMutability": "view",
      "type": "function"
    },
    {
      "inputs": [
        {
          "internalType": "address",
          "name": "",
          "type": "address"
        }
      ],
      "name": "kycData",
      "outputs": [
        {
          "internalType": "bool",
          "name": "isVerified",
          "type": "bool"
        },
        {
          "internalType": "string",
          "name": "verificationHash",
          "type": "string"
        },
        {
          "internalType": "uint256",
          "name": "verificationDate",
          "type": "uint256"
        },
        {
          "internalType": "uint256",
          "name": "riskScore",
          "type": "uint256"
        },
        {
          "internalType": "bool",
          "name": "isActive",
          "type": "bool"
        },
        {
          "internalType": "uint256",
          "name": "expiresAt",
          "type": "uint256"
        },
        {
          "internalType": "address",
          "name": "linkedWallet",
          "type": "address"
        },
        {
          "internalType": "string",
          "name": "jurisdiction",
          "type": "string"
        },
        {
          "internalType": "string",
          "name": "tenantId",
          "type": "string"
        }
      ],
      "stateMutability": "view",
      "type": "function"
    },
    {
      "inputs": [
        {
          "internalType": "address",
          "name": "user",
          "type": "address"
        },
        {
          "internalType": "address",
          "name": "wallet",
          "type": "address"
        }
      ],
      "name": "linkWallet",
      "outputs": [],
      "stateMutability": "nonpayable",
      "type": "function"
    },
    {
      "inputs": [
        {
          "internalType": "address",
          "name": "",
          "type": "address"
        },
        {
          "internalType": "uint256",
          "name": "",
          "type": "uint256"
        }
      ],
      "name": "linkedWallets",
      "outputs": [
        {
          "internalType": "address",
          "name": "",
          "type": "address"
        }
      ],
      "stateMutability": "view",
      "type": "function"
    },
    {
      "inputs": [],
      "name": "owner",
      "outputs": [
        {
          "internalType": "address",
          "name": "",
          "type": "address"
        }
      ],
      "stateMutability": "view",
      "type": "function"
    },
    {
      "inputs": [
        {
          "internalType": "address",
          "name": "writer",
          "type": "address"
        },
        {
          "internalType": "bool",
          "name": "authorized",
          "type": "bool"
        }
      ],
      "name": "setAuthorizedWriter",
      "outputs": [],
      "stateMutability": "nonpayable",
      "type": "function"
    },
    {
      "inputs": [
        {
          "internalType": "address",
          "name": "user",
          "type": "address"
        },
        {
          "internalType": "string",
          "name": "verificationHash",
          "type": "string"
        },
        {
          "internalType": "uint256",
          "name": "riskScore",
          "type": "uint256"
        },
        {
          "internalType": "string",
          "name": "jurisdiction",
          "type": "string"
        },
        {
          "internalType": "string",
          "name": "tenantId",
          "type": "string"
        }
      ],
      "name": "storeKYCData",
      "outputs": [],
      "stateMutability": "nonpayable",
      "type": "function"
    },
    {
      "inputs": [
        {
          "internalType": "string",
          "name": "",
          "type": "string"
        },
        {
          "internalType": "uint256",
          "name": "",
          "type": "uint256"
        }
      ],
      "name": "tenantUsers",
      "outputs": [
        {
          "internalType": "address",
          "name": "",
          "type": "address"
        }
      ],
      "stateMutability": "view",
      "type": "function"
    },
    {
      "inputs": [
        {
          "internalType": "address",
          "name": "user",
          "type": "address"
        },
        {
          "internalType": "address",
          "name": "wallet",
          "type": "address"
        }
      ],
      "name": "unlinkWallet",
      "outputs": [],
      "stateMutability": "nonpayable",
      "type": "function"
    },
    {
      "inputs": [
        {
          "internalType": "string",
          "name": "jurisdiction",
          "type": "string"
        },
        {
          "internalType": "uint256",
          "name": "expiryDuration",
          "type": "uint256"
        },
        {
          "internalType": "uint256",
          "name": "riskThreshold",
          "type": "uint256"
        }
      ],
      "name": "updateJurisdictionConfig",
      "outputs": [],
      "stateMutability": "nonpayable",
      "type": "function"
    },
    {
      "inputs": [
        {
          "internalType": "uint256",
          "name": "_defaultExpiryDuration",
          "type": "uint256"
        },
        {
          "internalType": "uint256",
          "name": "_maxRiskScore",
          "type": "uint256"
        },
        {
          "internalType": "bool",
          "name": "_allowMultipleWallets",
          "type": "bool"
        },
        {
          "internalType": "uint256",
          "name": "_maxWalletsPerUser",
          "type": "uint256"
        },
        {
          "internalType": "bool",
          "name": "_requireJurisdictionMatch",
          "type": "bool"
        }
      ],
      "name": "updateKYCConfig",
      "outputs": [],
      "stateMutability": "nonpayable",
      "type": "function"
    },
    {
      "inputs": [
        {
          "internalType": "address",
          "name": "user",
          "type": "address"
        },
        {
          "internalType": "bool",
          "name": "isActive",
          "type": "bool"
        }
      ],
      "name": "updateKYCStatus",
      "outputs": [],
      "stateMutability": "nonpayable",
      "type": "function"
    },
    {
      "inputs": [
        {
          "internalType": "address",
          "name": "user",
          "type": "address"
        },
        {
          "internalType": "uint256",
          "name": "newRiskScore",
          "type": "uint256"
        }
      ],
      "name": "updateRiskScore",
      "outputs": [],
      "stateMutability": "nonpayable",
      "type": "function"
    },
    {
      "inputs": [
        {
          "internalType": "address",
          "name": "",
          "type": "address"
        }
      ],
      "name": "userWalletCount",
      "outputs": [
        {
          "internalType": "uint256",
          "name": "",
          "type": "uint256"
        }
      ],
      "stateMutability": "view",
      "type": "function"
    }
  ],
  "bytecode": "0x60803461017d5760016000818155600d80546001600160a01b031916339081179091558152600c602052604090819020805460ff199081168417909155909260a081019290916001600160401b038411838510176101675760289385528160806301e1338094858152606460208201528288820152600560608201520152826005556064600655818160075416176007556005600855600954161760095580600b8451603261554b60f01b91828152600292600a8483015260229687809320558851908152848482015220556032848751858261455560f01b92838152600a8782015220558851908152848482015220556046848751858261555360f01b92838152600a878201522055885190815284848201522055603c848751858261415560f01b92838152600a87820152205588519081528484820152205585519284615a4160f01b94858152600a848201522055855192835282015220555161250a90816101838239f35b634e487b7160e01b600052604160045260246000fd5b600080fdfe6080604052600436101561001257600080fd5b60003560e01c80620c8df014611dca578063076f356514611ced578063194c68d814611bc85780633476abd014611b7e578063439092b014611a7b578063526241a814611a3c57806353df9d761461192a578063542a086c146117b4578063614d08f8146117565780636f7b47851461171c578063767841f9146116975780637d5ce8f0146114775780637ec2d0e514610d7e5780638666948814610bcf578063878023d414610b8a57806387aa7cd114610ae65780638ce1b19114610a8c5780638da5cb5b14610a65578063913c65de14610a1b5780639974e669146109d15780639ff1192d146108c9578063a9bbaea714610612578063ab47a2f914610483578063ad6e823b1461042b578063ba2e529d146103aa578063cdb0ec6b14610324578063cf0e0f9d14610230578063e48a45e41461017b5763ffa1ad741461015a57600080fd5b3461017657600036600319011261017657602060405160018152f35b600080fd5b34610176576020806003193601126101765760043567ffffffffffffffff811161017657816101b16101c492369060040161207b565b8160405193828580945193849201612024565b8101600381520301902090604051908181845491828152019360005281600020916000905b8282106102105761020c8561020081890382611f5c565b60405191829182612100565b0390f35b83546001600160a01b0316865294850194600193840193909101906101e9565b346101765760203660031901126101765760206001600160a01b0380610254611ea1565b1661026081151561227a565b6000526001825260406000209060405161027981611f07565b60ff8354161515815261028e60018401611f7e565b8482015260028301546040820152600383015460608201526102ec600860ff6004860154169460808401951515865260058101549460a0850195865260068201541660c08501526102e160078201611f7e565b60e085015201611f7e565b6101008201525115159182610319575b508161030e575b506040519015158152f35b905051421082610303565b5115159150836102fc565b3461017657602080600319360112610176576001600160a01b0380610347611ea1565b1661035381151561227a565b60005260028252604060002091604051809282855492838152019460005282600020926000915b8383106103915761020c86610200818a0382611f5c565b845481168752958101956001948501949092019161037a565b346101765760203660031901126101765760043567ffffffffffffffff8111610176576103dd604091369060040161207b565b610414602083518351908281818701936103f8818387612024565b8101600a81520301902054938551938492839251928391612024565b8101600b8152030190205482519182526020820152f35b346101765760203660031901126101765760206001600160a01b038061044f611ea1565b1680600052600c835260ff60406000205416918215610475575b50506040519015158152f35b600d54161490508280610469565b34610176576020806003193601126101765761049d611ea1565b9061020c6040516104ad81611f07565b6000815260609081848201526000604082015260008282015260006080820152600060a0820152600060c08201528160e082015281610100809201526001600160a01b038095166104ff81151561227a565b600052600184526040600020916106026040519361051c85611f07565b60ff815416151585528461053260018301611f7e565b98888201998a5260028301549260408301938452600381015486840190815260ff60048301541660808501901515815260058301549160a0860192835261059c6008866006870154169560c0890196875260e061059160078301611f7e565b990198895201611f7e565b9a8a81019b8c526040519e8f9e8f928184525115159083015251996105cf6101209b8c6040850152610140840190612047565b98519101525160808d015251151560a08c01525160c08b0152511660e089015251601f1994858984030190890152612047565b9251918584030190850152612047565b346101765760403660031901126101765761062b611ea1565b610633611eb7565b90336000526020600c815260ff6040600020541680156108b0575b6106579061222f565b6001600160a01b03908183169061066f82151561227a565b8285169261067e841515612390565b6106866121da565b8260005260019586958684526106a360ff60406000205416612345565b60075460ff161561083e576106c0916106bb91612435565b6123ea565b82600052600282526040600020856000905b61071a575b5050507f34f98ba7d16464b2771771f1c509668a77fc2ee7daa3503f23815cada55f650f919293505b8260005260048152604060002054604051908152a3600055005b8154808210156108385783908761073184866120d2565b939054600394851b1c161461075157505061074b906123db565b866106d2565b969750949560001995939186820191821161080c57610785836107776107a594876120d2565b905490881b1c1691856120d2565b90919082549060031b916001600160a01b03809116831b921b1916179055565b81548015610822578501926107ba84846120d2565b81939154921b1b191690555582600052600481526040600020805492831561080c577f34f98ba7d16464b2771771f1c509668a77fc2ee7daa3503f23815cada55f650f930190558493929186806106d7565b634e487b7160e01b600052601160045260246000fd5b634e487b7160e01b600052603160045260246000fd5b506106d7565b50508383949550610881917f34f98ba7d16464b2771771f1c509668a77fc2ee7daa3503f23815cada55f650f9460005287845260066040600020015416146123ea565b82600052848152600660406000200173ffffffffffffffffffffffffffffffffffffffff198154169055610700565b506106576001600160a01b03600d54163314905061064e565b34610176576040366003190112610176576108e2611ea1565b6001600160a01b036024359133600052600c60205260ff6040600020541680156109c4575b6109109061222f565b169061091d82151561227a565b6109256121da565b81600052600160205261093f60ff60406000205416612345565b61094d6006548211156122c5565b8160005260016020526003604060002001557f6b442a4e9869d11d6b034724b2129d1c4669ec035247e8845e548894faf6f87a608060405160408152600960408201527f7269736b53636f726500000000000000000000000000000000000000000000006060820152426020820152a26001600055005b50600d5482163314610907565b346101765760003660031901126101765760a060055460065460ff600754166008549060ff6009541692604051948552602085015215156040840152606083015215156080820152f35b346101765760203660031901126101765760043567ffffffffffffffff811161017657610a5260206101b18193369060040161207b565b8101600b81520301902054604051908152f35b346101765760003660031901126101765760206001600160a01b03600d5416604051908152f35b3461017657604036600319011261017657610aa5611ea1565b602435906001600160a01b0380911660005260026020526040600020805483101561017657602092610ad6916120d2565b9190546040519260031b1c168152f35b346101765760003660031901126101765760006080604051610b0781611f24565b828152826020820152826040820152826060820152015260a0604051610b2c81611f24565b600554908181526006546020820190815260ff600754166040830190151581526008549160608401928352608060ff600954169401931515845260405194855251602085015251151560408401525160608301525115156080820152f35b34610176576020366003190112610176576001600160a01b03610bab611ea1565b16610bb781151561227a565b60005260046020526020604060002054604051908152f35b346101765760603660031901126101765760043567ffffffffffffffff811161017657610c0090369060040161207b565b60243590604435610c1d6001600160a01b03600d54163314612144565b610c298251151561218f565b6006548111610d3a5782816040948593610c718551875160209682888094818d0194610c56818388612024565b8101600a815203019020558751809381928b51928391612024565b8101600b81520301902055835160608152610c8f6060820187612047565b917f6578706972794475726174696f6e00000000000000000000000000000000000085838503948582860152600e81520152858201527fafb3fcd3cd1c3938b0bf08d1a283ef4c2888046e6c8167f0227683820194e3739687920190a17f7269736b5468726573686f6c6400000000000000000000000000000000000000610d21845195606087526060870190612047565b92858403938482880152600d81520152828401520190a1005b606460405162461bcd60e51b815260206004820152601760248201527f5269736b207468726573686f6c6420746f6f20686967680000000000000000006044820152fd5b346101765760a036600319011261017657610d97611ea1565b60243567ffffffffffffffff811161017657610db790369060040161207b565b9060643567ffffffffffffffff811161017657610dd890369060040161207b565b9060843567ffffffffffffffff811161017657610df990369060040161207b565b9233600052600c60205260ff60406000205416801561145e575b610e1c9061222f565b610e306001600160a01b038316151561227a565b80511561141a57610e4760065460443511156122c5565b610e538351151561218f565b8351156113d6576040516020818551610e6f8183858a01612024565b8101600a815203019020549081156113cc575b610e8c8242612310565b60405191610e9983611f07565b60018352602083015242604083015260443560608301526001608083015260a0820152600060c08201528360e0820152846101008201526001600160a01b0383166000526001602052604060002090610f0181511515839060ff801983541691151516179055565b602081015180519067ffffffffffffffff8211611220578190610f276001860154611ecd565b601f8111611379575b50602090601f8311600114611307576000926112fc575b50508160011b916000199060031b1c19161760018301555b6040810151600283015560608101516003830155610f9260808201511515600484019060ff801983541691151516179055565b60a08101516005830155600682016001600160a01b0360c08301511673ffffffffffffffffffffffffffffffffffffffff1982541617905560e081015180519067ffffffffffffffff821161122057610fee6007850154611ecd565b601f81116112b5575b50602090601f83116001146112415761010093929160009183611236575b50508160011b916000199060031b1c19161760078401555b015180519067ffffffffffffffff82116112205761104e6008840154611ecd565b601f81116111d9575b50602090601f8311600114611135577f177918b2847c79cb027659541d44864a8299031f09a4fa6cb4bdd9ffd196ec3596946001600160a01b03946008856111079996611115966110f29660009261112a575b50508160011b916000199060031b1c1916179101555b6110ec846110dd60208c8160405193828580945193849201612024565b8101600381520301902061231d565b42612310565b96604051958695608087526080870190612047565b908582036020870152612047565b956044356040850152606084015216930390a2005b015190508d806110aa565b90601f198316916008850160005260206000209260005b8181106111c15750946008600186611115966110f2967f177918b2847c79cb027659541d44864a8299031f09a4fa6cb4bdd9ffd196ec359d9b966111079d9a6001600160a01b039c106111a8575b505050811b019101556110c0565b015160001960f88460031b161c191690558d808061119a565b9293602060018192878601518155019501930161114c565b600884016000526020600020601f840160051c810160208510611219575b601f830160051c8201811061120d575050611057565b600081556001016111f7565b50806111f7565b634e487b7160e01b600052604160045260246000fd5b015190508980611015565b906007850160005260206000209160005b601f198516811061129d57509183916001936101009695601f19811610611284575b505050811b01600784015561102d565b015160001960f88460031b161c19169055898080611274565b91926020600181928685015181550194019201611252565b600785016000526020600020601f840160051c8101602085106112f5575b601f830160051c820181106112e9575050610ff7565b600081556001016112d3565b50806112d3565b015190508880610f47565b9250600185016000526020600020906000935b601f198416851061135e576001945083601f19811610611345575b505050811b016001830155610f5f565b015160001960f88460031b161c19169055888080611335565b8181015183556020948501946001909301929091019061131a565b909150600185016000526020600020601f840160051c8101602085106113c5575b90849392915b601f830160051c820181106113b6575050610f30565b600081558594506001016113a0565b508061139a565b6005549150610e82565b606460405162461bcd60e51b815260206004820152601160248201527f496e76616c69642074656e616e742049440000000000000000000000000000006044820152fd5b606460405162461bcd60e51b815260206004820152601960248201527f496e76616c696420766572696669636174696f6e2068617368000000000000006044820152fd5b50610e1c6001600160a01b03600d541633149050610e13565b3461017657604036600319011261017657611490611ea1565b611498611eb7565b336000526020600c815260ff60406000205416801561167e575b6114bb9061222f565b6001600160a01b0391828416926114d384151561227a565b8116936114e1851515612390565b6114e96121da565b836000526001835261150260ff60406000205416612345565b60075460ff161561162857836000526004835260406000205460085411156115e4578161152e91612435565b6115a0579061156a7fccfd3469417235511f66427c514b0e2cebc11ad48ded134b8cfae296ce18059a928460005260028352604060002061231d565b8260005260048152604060002061158181546123db565b90555b8260005260048152604060002054604051908152a36001600055005b6064826040519062461bcd60e51b82526004820152601560248201527f57616c6c657420616c7265616479206c696e6b656400000000000000000000006044820152fd5b6064836040519062461bcd60e51b82526004820152601360248201527f4d61782077616c6c6574732072656163686564000000000000000000000000006044820152fd5b50507fccfd3469417235511f66427c514b0e2cebc11ad48ded134b8cfae296ce18059a90826000526001815260066040600020018473ffffffffffffffffffffffffffffffffffffffff19825416179055611584565b506114bb6001600160a01b03600d5416331490506114b2565b346101765760403660031901126101765760043567ffffffffffffffff8111610176576116c890369060040161207b565b6116e46020602435928160405193828580945193849201612024565b810160038152030190209081548110156101765761170c6001600160a01b03916020936120d2565b90549060031b1c16604051908152f35b34610176576020366003190112610176576001600160a01b0361173d611ea1565b1660005260046020526020604060002054604051908152f35b346101765760003660031901126101765761020c60405161177681611f40565b600e81527f4b59434461746153746f726167650000000000000000000000000000000000006020820152604051918291602083526020830190612047565b34610176576040366003190112610176576117cd611ea1565b6117d561206c565b6118706118a660366001600160a01b036117f481600d54163314612144565b6117fc6121da565b6040519061180982611f40565b6006825260208201967f7772697465720000000000000000000000000000000000000000000000000000885216956040519485927f496e76616c69642000000000000000000000000000000000000000000000000060208501525180926028850190612024565b81017f3a207a65726f20616464726573730000000000000000000000000000000000006028820152036016810184520182611f5c565b8215611902575060207e8ebc621f24e0e9d1fd4ee2f7df9bb80c8d61ee30a9167a4fee6cefcf8c021e9183600052600c82526118f28160406000209060ff801983541691151516179055565b6040519015158152a26001600055005b6119269060405191829162461bcd60e51b8352602060048401526024830190612047565b0390fd5b3461017657604036600319011261017657611943611ea1565b6119ca6001600160a01b0361195661206c565b9233600052600c60205260ff604060002054168015611a2f575b6119799061222f565b169161198683151561227a565b61198e6121da565b8260005260016020526119a860ff60406000205416612345565b82600052600160205260046040600020019060ff801983541691151516179055565b7f6b442a4e9869d11d6b034724b2129d1c4669ec035247e8845e548894faf6f87a608060405160408152600660408201527f73746174757300000000000000000000000000000000000000000000000000006060820152426020820152a26001600055005b50600d5482163314611970565b34610176576020366003190112610176576001600160a01b03611a5d611ea1565b16600052600c602052602060ff604060002054166040519015158152f35b34610176576040366003190112610176576001600160a01b03611a9c611ea1565b33600052600c60205260ff604060002054168015611b71575b611abe9061222f565b16611aca81151561227a565b611ad26121da565b806000526001602052611aec60ff60406000205416612345565b8060005260016020526005604060002001611b0a6024358254612310565b90557f6b442a4e9869d11d6b034724b2129d1c4669ec035247e8845e548894faf6f87a608060405160408152600660408201527f65787069727900000000000000000000000000000000000000000000000000006060820152426020820152a26001600055005b50600d5482163314611ab5565b346101765760203660031901126101765760043567ffffffffffffffff811161017657611bb560206101b18193369060040161207b565b8101600a81520301902054604051908152f35b346101765760a0366003190112610176576004356024359060443580151580910361017657608435928315158094036101765760a0938493611c166001600160a01b03600d54163314612144565b6005549160ff600654958360055585600655811990828260075416911617600755606435600855600954169116176009556040519160608352601560608401527f64656661756c744578706972794475726174696f6e00000000000000000000006080840152602083015260408201527ff52cae2ad4683cfd4c2655c008b9f5aa77cee5e058df5373596dbcf2025b5f91948591a16040519160608352600c60608401527f6d61785269736b53636f72650000000000000000000000000000000000000000608084015260208301526040820152a1005b34610176576020366003190112610176576001600160a01b0380611d0f611ea1565b16600052600160205260406000209061020c60ff83541691611dbb611d3660018601611f7e565b9460028101549060038101549360ff6004830154169060058301549060068401541691611d716008611d6a60078701611f7e565b9501611f7e565b96611d926040519b8c9b15158c5260208c61012091829101528c0190612047565b9560408b015260608a01521515608089015260a088015260c087015285820360e0870152612047565b90838203610100850152612047565b346101765760203660031901126101765760606001600160a01b0380611dee611ea1565b16611dfa81151561227a565b6000526001602052604060002090604051611e1481611f07565b60ff83541615158152611e2960018401611f7e565b602082015260028301546040820152600383015484820152611e7c600860ff6004860154169460808401951515865260058101549460a0850195865260068201541660c08501526102e160078201611f7e565b6101008201525115159151151590514210159060405192835260208301526040820152f35b600435906001600160a01b038216820361017657565b602435906001600160a01b038216820361017657565b90600182811c92168015611efd575b6020831014611ee757565b634e487b7160e01b600052602260045260246000fd5b91607f1691611edc565b610120810190811067ffffffffffffffff82111761122057604052565b60a0810190811067ffffffffffffffff82111761122057604052565b6040810190811067ffffffffffffffff82111761122057604052565b90601f8019910116810190811067ffffffffffffffff82111761122057604052565b9060405191826000825492611f9284611ecd565b9081845260019485811690816000146120015750600114611fbe575b5050611fbc92500383611f5c565b565b9093915060005260209081600020936000915b818310611fe9575050611fbc93508201013880611fae565b85548884018501529485019487945091830191611fd1565b915050611fbc94506020925060ff191682840152151560051b8201013880611fae565b60005b8381106120375750506000910152565b8181015183820152602001612027565b9060209161206081518092818552858086019101612024565b601f01601f1916010190565b60243590811515820361017657565b81601f820112156101765780359067ffffffffffffffff821161122057604051926120b0601f8401601f191660200185611f5c565b8284526020838301011161017657816000926020809301838601378301015290565b80548210156120ea5760005260206000200190600090565b634e487b7160e01b600052603260045260246000fd5b6020908160408183019282815285518094520193019160005b828110612127575050505090565b83516001600160a01b031685529381019392810192600101612119565b1561214b57565b606460405162461bcd60e51b815260206004820152600a60248201527f4f6e6c79206f776e6572000000000000000000000000000000000000000000006044820152fd5b1561219657565b606460405162461bcd60e51b815260206004820152601460248201527f496e76616c6964206a7572697364696374696f6e0000000000000000000000006044820152fd5b6002600054146121eb576002600055565b606460405162461bcd60e51b815260206004820152601f60248201527f5265656e7472616e637947756172643a207265656e7472616e742063616c6c006044820152fd5b1561223657565b606460405162461bcd60e51b815260206004820152600e60248201527f4e6f7420617574686f72697a65640000000000000000000000000000000000006044820152fd5b1561228157565b606460405162461bcd60e51b815260206004820152601460248201527f496e76616c6964207573657220616464726573730000000000000000000000006044820152fd5b156122cc57565b606460405162461bcd60e51b815260206004820152601360248201527f5269736b2073636f726520746f6f2068696768000000000000000000000000006044820152fd5b9190820180921161080c57565b90815491680100000000000000008310156112205782610785916001611fbc950181556120d2565b1561234c57565b606460405162461bcd60e51b815260206004820152601160248201527f55736572206e6f742076657269666965640000000000000000000000000000006044820152fd5b1561239757565b606460405162461bcd60e51b815260206004820152601660248201527f496e76616c69642077616c6c65742061646472657373000000000000000000006044820152fd5b600019811461080c5760010190565b156123f157565b606460405162461bcd60e51b815260206004820152601160248201527f57616c6c6574206e6f74206c696e6b65640000000000000000000000000000006044820152fd5b906001600160a01b038060009316835260206002815260408420604051808284829454938481520190885284882092885b868282106124bc5750505061247d92500382611f5c565b845b81518110156124b45783838260051b8401015116848616146124a9576124a4906123db565b61247f565b505050505050600190565b505050505090565b8554891684526001958601958795509301920161246656fea2646970667358221220d8aac339908550c116c667b4d463f9140985cb7bf79a59dd7ca5272459e4dc0464736f6c63430008140033",
  "linkReferences": {},
  "deployedLinkReferences": {}
}