{
  "_format": "hh-sol-artifact-1",
  "contractName": "FeatureFlags",
  "sourceName": "contracts/utility/FeatureFlags.sol",
  "abi": [
    {
      "inputs": [],
      "stateMutability": "nonpayable",
      "type": "constructor"
    },
    {
      "anonymous": false,
      "inputs": [
        {
          "indexed": true,
          "internalType": "address",
          "name": "writer",
          "type": "address"
        },
        {
          "indexed": false,
          "internalType": "bool",
          "name": "authorized",
          "type": "bool"
        }
      ],
      "name": "AuthorizedWriterUpdated",
      "type": "event"
    },
    {
      "anonymous": false,
      "inputs": [
        {
          "indexed": true,
          "internalType": "string",
          "name": "featureId",
          "type": "string"
        },
        {
          "indexed": false,
          "internalType": "string",
          "name": "name",
          "type": "string"
        },
        {
          "indexed": false,
          "internalType": "enum FeatureFlags.FeatureCategory",
          "name": "category",
          "type": "uint8"
        }
      ],
      "name": "FeatureFlagCreated",
      "type": "event"
    },
    {
      "anonymous": false,
      "inputs": [
        {
          "indexed": true,
          "internalType": "string",
          "name": "featureId",
          "type": "string"
        }
      ],
      "name": "FeatureFlagDeleted",
      "type": "event"
    },
    {
      "anonymous": false,
      "inputs": [
        {
          "indexed": true,
          "internalType": "string",
          "name": "featureId",
          "type": "string"
        },
        {
          "indexed": false,
          "internalType": "enum FeatureFlags.FeatureStatus",
          "name": "status",
          "type": "uint8"
        },
        {
          "indexed": false,
          "internalType": "uint256",
          "name": "rolloutPercentage",
          "type": "uint256"
        }
      ],
      "name": "FeatureFlagUpdated",
      "type": "event"
    },
    {
      "anonymous": false,
      "inputs": [
        {
          "indexed": true,
          "internalType": "string",
          "name": "featureId",
          "type": "string"
        },
        {
          "indexed": true,
          "internalType": "address",
          "name": "user",
          "type": "address"
        },
        {
          "indexed": false,
          "internalType": "uint256",
          "name": "usageCount",
          "type": "uint256"
        }
      ],
      "name": "FeatureUsageTracked",
      "type": "event"
    },
    {
      "inputs": [
        {
          "internalType": "uint256",
          "name": "",
          "type": "uint256"
        }
      ],
      "name": "allCategories",
      "outputs": [
        {
          "internalType": "enum FeatureFlags.FeatureCategory",
          "name": "",
          "type": "uint8"
        }
      ],
      "stateMutability": "view",
      "type": "function"
    },
    {
      "inputs": [
        {
          "internalType": "uint256",
          "name": "",
          "type": "uint256"
        }
      ],
      "name": "allFeatureIds",
      "outputs": [
        {
          "internalType": "string",
          "name": "",
          "type": "string"
        }
      ],
      "stateMutability": "view",
      "type": "function"
    },
    {
      "inputs": [
        {
          "internalType": "address",
          "name": "",
          "type": "address"
        }
      ],
      "name": "authorizedWriters",
      "outputs": [
        {
          "internalType": "bool",
          "name": "",
          "type": "bool"
        }
      ],
      "stateMutability": "view",
      "type": "function"
    },
    {
      "inputs": [
        {
          "internalType": "string",
          "name": "featureId",
          "type": "string"
        },
        {
          "internalType": "string",
          "name": "name",
          "type": "string"
        },
        {
          "internalType": "string",
          "name": "description",
          "type": "string"
        },
        {
          "internalType": "enum FeatureFlags.FeatureCategory",
          "name": "category",
          "type": "uint8"
        },
        {
          "internalType": "enum FeatureFlags.FeatureStatus",
          "name": "status",
          "type": "uint8"
        },
        {
          "internalType": "uint256",
          "name": "rolloutPercentage",
          "type": "uint256"
        },
        {
          "internalType": "uint256",
          "name": "endTime",
          "type": "uint256"
        },
        {
          "internalType": "bool",
          "name": "requiresAuth",
          "type": "bool"
        },
        {
          "internalType": "string[]",
          "name": "dependencies",
          "type": "string[]"
        },
        {
          "internalType": "string",
          "name": "version",
          "type": "string"
        },
        {
          "internalType": "string",
          "name": "metadata",
          "type": "string"
        }
      ],
      "name": "createFeatureFlag",
      "outputs": [],
      "stateMutability": "nonpayable",
      "type": "function"
    },
    {
      "inputs": [
        {
          "internalType": "string",
          "name": "featureId",
          "type": "string"
        }
      ],
      "name": "deleteFeatureFlag",
      "outputs": [],
      "stateMutability": "nonpayable",
      "type": "function"
    },
    {
      "inputs": [
        {
          "internalType": "string",
          "name": "",
          "type": "string"
        }
      ],
      "name": "featureConfigs",
      "outputs": [
        {
          "internalType": "bool",
          "name": "allowOverride",
          "type": "bool"
        },
        {
          "internalType": "bool",
          "name": "logUsage",
          "type": "bool"
        },
        {
          "internalType": "bool",
          "name": "trackMetrics",
          "type": "bool"
        },
        {
          "internalType": "uint256",
          "name": "maxUsagePerUser",
          "type": "uint256"
        }
      ],
      "stateMutability": "view",
      "type": "function"
    },
    {
      "inputs": [
        {
          "internalType": "string",
          "name": "",
          "type": "string"
        }
      ],
      "name": "featureFlags",
      "outputs": [
        {
          "internalType": "string",
          "name": "featureId",
          "type": "string"
        },
        {
          "internalType": "string",
          "name": "name",
          "type": "string"
        },
        {
          "internalType": "string",
          "name": "description",
          "type": "string"
        },
        {
          "internalType": "enum FeatureFlags.FeatureCategory",
          "name": "category",
          "type": "uint8"
        },
        {
          "internalType": "enum FeatureFlags.FeatureStatus",
          "name": "status",
          "type": "uint8"
        },
        {
          "internalType": "uint256",
          "name": "rolloutPercentage",
          "type": "uint256"
        },
        {
          "internalType": "uint256",
          "name": "startTime",
          "type": "uint256"
        },
        {
          "internalType": "uint256",
          "name": "endTime",
          "type": "uint256"
        },
        {
          "internalType": "address",
          "name": "createdBy",
          "type": "address"
        },
        {
          "internalType": "string",
          "name": "version",
          "type": "string"
        },
        {
          "internalType": "bool",
          "name": "requiresAuth",
          "type": "bool"
        },
        {
          "internalType": "string",
          "name": "metadata",
          "type": "string"
        }
      ],
      "stateMutability": "view",
      "type": "function"
    },
    {
      "inputs": [
        {
          "internalType": "string",
          "name": "",
          "type": "string"
        },
        {
          "internalType": "address",
          "name": "",
          "type": "address"
        }
      ],
      "name": "featureUsageCount",
      "outputs": [
        {
          "internalType": "uint256",
          "name": "",
          "type": "uint256"
        }
      ],
      "stateMutability": "view",
      "type": "function"
    },
    {
      "inputs": [
        {
          "internalType": "enum FeatureFlags.FeatureCategory",
          "name": "",
          "type": "uint8"
        },
        {
          "internalType": "uint256",
          "name": "",
          "type": "uint256"
        }
      ],
      "name": "featuresByCategory",
      "outputs": [
        {
          "internalType": "string",
          "name": "",
          "type": "string"
        }
      ],
      "stateMutability": "view",
      "type": "function"
    },
    {
      "inputs": [],
      "name": "getAllCategories",
      "outputs": [
        {
          "internalType": "enum FeatureFlags.FeatureCategory[]",
          "name": "categories",
          "type": "uint8[]"
        }
      ],
      "stateMutability": "view",
      "type": "function"
    },
    {
      "inputs": [],
      "name": "getAllFeatureIds",
      "outputs": [
        {
          "internalType": "string[]",
          "name": "featureIds",
          "type": "string[]"
        }
      ],
      "stateMutability": "view",
      "type": "function"
    },
    {
      "inputs": [
        {
          "internalType": "string",
          "name": "featureId",
          "type": "string"
        }
      ],
      "name": "getFeatureConfig",
      "outputs": [
        {
          "components": [
            {
              "internalType": "bool",
              "name": "allowOverride",
              "type": "bool"
            },
            {
              "internalType": "bool",
              "name": "logUsage",
              "type": "bool"
            },
            {
              "internalType": "bool",
              "name": "trackMetrics",
              "type": "bool"
            },
            {
              "internalType": "uint256",
              "name": "maxUsagePerUser",
              "type": "uint256"
            },
            {
              "internalType": "string[]",
              "name": "allowedUsers",
              "type": "string[]"
            },
            {
              "internalType": "string[]",
              "name": "blockedUsers",
              "type": "string[]"
            },
            {
              "internalType": "string[]",
              "name": "allowedTenants",
              "type": "string[]"
            },
            {
              "internalType": "string[]",
              "name": "blockedTenants",
              "type": "string[]"
            }
          ],
          "internalType": "struct FeatureFlags.FeatureConfig",
          "name": "config",
          "type": "tuple"
        }
      ],
      "stateMutability": "view",
      "type": "function"
    },
    {
      "inputs": [
        {
          "internalType": "string",
          "name": "featureId",
          "type": "string"
        }
      ],
      "name": "getFeatureFlag",
      "outputs": [
        {
          "components": [
            {
              "internalType": "string",
              "name": "featureId",
              "type": "string"
            },
            {
              "internalType": "string",
              "name": "name",
              "type": "string"
            },
            {
              "internalType": "string",
              "name": "description",
              "type": "string"
            },
            {
              "internalType": "enum FeatureFlags.FeatureCategory",
              "name": "category",
              "type": "uint8"
            },
            {
              "internalType": "enum FeatureFlags.FeatureStatus",
              "name": "status",
              "type": "uint8"
            },
            {
              "internalType": "uint256",
              "name": "rolloutPercentage",
              "type": "uint256"
            },
            {
              "internalType": "uint256",
              "name": "startTime",
              "type": "uint256"
            },
            {
              "internalType": "uint256",
              "name": "endTime",
              "type": "uint256"
            },
            {
              "internalType": "address",
              "name": "createdBy",
              "type": "address"
            },
            {
              "internalType": "string",
              "name": "version",
              "type": "string"
            },
            {
              "internalType": "bool",
              "name": "requiresAuth",
              "type": "bool"
            },
            {
              "internalType": "string[]",
              "name": "dependencies",
              "type": "string[]"
            },
            {
              "internalType": "string",
              "name": "metadata",
              "type": "string"
            }
          ],
          "internalType": "struct FeatureFlags.FeatureFlag",
          "name": "feature",
          "type": "tuple"
        }
      ],
      "stateMutability": "view",
      "type": "function"
    },
    {
      "inputs": [
        {
          "internalType": "string",
          "name": "featureId",
          "type": "string"
        }
      ],
      "name": "getFeatureUsageStats",
      "outputs": [
        {
          "internalType": "uint256",
          "name": "totalUsage",
          "type": "uint256"
        },
        {
          "internalType": "uint256",
          "name": "uniqueUsers",
          "type": "uint256"
        }
      ],
      "stateMutability": "view",
      "type": "function"
    },
    {
      "inputs": [
        {
          "internalType": "enum FeatureFlags.FeatureCategory",
          "name": "category",
          "type": "uint8"
        }
      ],
      "name": "getFeaturesByCategory",
      "outputs": [
        {
          "internalType": "string[]",
          "name": "featureIds",
          "type": "string[]"
        }
      ],
      "stateMutability": "view",
      "type": "function"
    },
    {
      "inputs": [
        {
          "internalType": "address",
          "name": "writer",
          "type": "address"
        }
      ],
      "name": "isAuthorizedWriter",
      "outputs": [
        {
          "internalType": "bool",
          "name": "",
          "type": "bool"
        }
      ],
      "stateMutability": "view",
      "type": "function"
    },
    {
      "inputs": [
        {
          "internalType": "string",
          "name": "featureId",
          "type": "string"
        },
        {
          "internalType": "address",
          "name": "user",
          "type": "address"
        },
        {
          "internalType": "string",
          "name": "tenantId",
          "type": "string"
        }
      ],
      "name": "isFeatureEnabled",
      "outputs": [
        {
          "internalType": "bool",
          "name": "",
          "type": "bool"
        }
      ],
      "stateMutability": "view",
      "type": "function"
    },
    {
      "inputs": [],
      "name": "owner",
      "outputs": [
        {
          "internalType": "address",
          "name": "",
          "type": "address"
        }
      ],
      "stateMutability": "view",
      "type": "function"
    },
    {
      "inputs": [
        {
          "internalType": "address",
          "name": "writer",
          "type": "address"
        },
        {
          "internalType": "bool",
          "name": "authorized",
          "type": "bool"
        }
      ],
      "name": "setAuthorizedWriter",
      "outputs": [],
      "stateMutability": "nonpayable",
      "type": "function"
    },
    {
      "inputs": [
        {
          "internalType": "string",
          "name": "",
          "type": "string"
        }
      ],
      "name": "totalFeatureUsage",
      "outputs": [
        {
          "internalType": "uint256",
          "name": "",
          "type": "uint256"
        }
      ],
      "stateMutability": "view",
      "type": "function"
    },
    {
      "inputs": [
        {
          "internalType": "string",
          "name": "featureId",
          "type": "string"
        },
        {
          "internalType": "address",
          "name": "user",
          "type": "address"
        }
      ],
      "name": "trackFeatureUsage",
      "outputs": [],
      "stateMutability": "nonpayable",
      "type": "function"
    },
    {
      "inputs": [
        {
          "internalType": "string",
          "name": "featureId",
          "type": "string"
        },
        {
          "components": [
            {
              "internalType": "bool",
              "name": "allowOverride",
              "type": "bool"
            },
            {
              "internalType": "bool",
              "name": "logUsage",
              "type": "bool"
            },
            {
              "internalType": "bool",
              "name": "trackMetrics",
              "type": "bool"
            },
            {
              "internalType": "uint256",
              "name": "maxUsagePerUser",
              "type": "uint256"
            },
            {
              "internalType": "string[]",
              "name": "allowedUsers",
              "type": "string[]"
            },
            {
              "internalType": "string[]",
              "name": "blockedUsers",
              "type": "string[]"
            },
            {
              "internalType": "string[]",
              "name": "allowedTenants",
              "type": "string[]"
            },
            {
              "internalType": "string[]",
              "name": "blockedTenants",
              "type": "string[]"
            }
          ],
          "internalType": "struct FeatureFlags.FeatureConfig",
          "name": "config",
          "type": "tuple"
        }
      ],
      "name": "updateFeatureConfig",
      "outputs": [],
      "stateMutability": "nonpayable",
      "type": "function"
    },
    {
      "inputs": [
        {
          "internalType": "string",
          "name": "featureId",
          "type": "string"
        },
        {
          "internalType": "enum FeatureFlags.FeatureStatus",
          "name": "status",
          "type": "uint8"
        },
        {
          "internalType": "uint256",
          "name": "rolloutPercentage",
          "type": "uint256"
        }
      ],
      "name": "updateFeatureFlag",
      "outputs": [],
      "stateMutability": "nonpayable",
      "type": "function"
    }
  ],
  "bytecode": "0x3462001da6576001600081815581546001600160a01b0319163390811783558152600260208190526040808320805460ff1916851790556101809052608091825260a09290925260c091909152600360e0526004610100526005610120526006610140526007610160819052805460089182905590811162001d39575b506007600052602060002060009160005b6008811062001d09575050556001546001600160a01b0316620000af62001e25565b620000b962001dab565b91620000c462001dcc565b600c81526b616476616e6365642d6b796360a01b60208201528352620000e962001dcc565b601581527f416476616e636564204b594320466561747572657300000000000000000000006020820152602084015260405180608081011060018060401b03608083011117620011245760808101604052604381527f416476616e636564204b594320766572696669636174696f6e2066656174757260208201527f657320696e636c7564696e672062696f6d65747269632076657269666963617460408201526234b7b760e91b606082015260408401526000606084015260026080840152601960a08401524260c0840152600060e0840152610100830152620001cd62001dcc565b60058152640312e302e360dc1b60208201526101208301526001610140830152610160820152620001fd62001dec565b602f81527f416476616e636564204b594320666561747572657320666f7220656e68616e6360208201526e32b2103b32b934b334b1b0ba34b7b760891b6040820152610180820152602c6040516b616476616e6365642d6b796360a01b81526003600c8201522090805191825160018060401b0381116200112457620002908162000289845462001e49565b8462001eb3565b6020601f821160011462001c9c578192939460009262001c90575b50508160011b916000199060031b1c19161781555b602082015180519092906001600160401b0381116200112457620002f781620002ed600186015462001e49565b6001860162001eb3565b6020601f821160011462001c1d578192939460009262001c11575b50508160011b916000199060031b1c19161760018301555b604081015180519092906001600160401b0381116200112457620003618162000357600285015462001e49565b6002850162001eb3565b6020601f821160011462001b9e578192939460009262001b92575b50508160011b916000199060031b1c19161760028201555b60608201516008811015620013a257600382015460808401516004811015620013a25761ff0060ff9160081b1692169061ffff19161717600382015560a0820151600482015560c0820151600582015560e082015160068201556007810160018060a01b036101008401511660018060a01b031982541617905561012082015191825160018060401b0381116200112457620004438162000439600886015462001e49565b6008860162001eb3565b6020601f821160011462001b1f578192939460009262001b13575b50508160011b916000199060031b1c19161760088301555b620004976101408201511515600984019060ff801983541691151516179055565b6101608101518051906801000000000000000082116200112457600a84015482600a86015580831062001a90575b5060200190600a84016000526020600020916000905b828210620019a657610180850151805187916001600160401b03821162001124576200051a8262000510600b86015462001e49565b600b860162001eb3565b602090601f83116001146200193157600b92916000918362001925575b50508160011b916000199060031b1c1916179101555b6001546001600160a01b03166200056362001dcc565b6001815260005b602081106200191357506200057e62001dab565b916200058962001dcc565b600e81526d7265616c2d74696d652d7269736b60901b60208201528352620005b062001dcc565b601981527f5265616c2d74696d65205269736b204173736573736d656e740000000000000060208201526020840152620005e962001dec565b603081527f5265616c2d74696d65207269736b206173736573736d656e74207573696e672060208201526f41492f4d4c20616c676f726974686d7360801b604082015260408401526002606084015260036080840152603260a08401524260c0840152600060e08401526101008301526200066362001dcc565b60058152640312e302e360dc1b602082015261012083015260016101408301526101608201526200069362001dec565b602281527f5265616c2d74696d65207269736b206173736573736d656e7420666561747572602082015261657360f01b6040820152610180820152602e6040516d7265616c2d74696d652d7269736b60901b81526003600e8201522090805191825160018060401b0381116200112457620007148162000289845462001e49565b6020601f8211600114620018a657819293946000926200189a575b50508160011b916000199060031b1c19161781555b602082015180519092906001600160401b03811162001124576200077181620002ed600186015462001e49565b6020601f82116001146200182757819293946000926200181b575b50508160011b916000199060031b1c19161760018301555b604081015180519092906001600160401b0381116200112457620007d18162000357600285015462001e49565b6020601f8211600114620017a857819293946000926200179c575b50508160011b916000199060031b1c19161760028201555b60608201516008811015620013a257600382015460808401516004811015620013a25761ff0060ff9160081b1692169061ffff19161717600382015560a0820151600482015560c0820151600582015560e082015160068201556007810160018060a01b036101008401511660018060a01b031982541617905561012082015191825160018060401b0381116200112457620008a98162000439600886015462001e49565b6020601f82116001146200172957819293946000926200171d575b50508160011b916000199060031b1c19161760088301555b620008fd6101408201511515600984019060ff801983541691151516179055565b6101608101518051906801000000000000000082116200112457600a84015482600a8601558083106200169a575b5060200190600a84016000526020600020916000905b828210620015b057610180850151805187916001600160401b0382116200112457620009768262000510600b86015462001e49565b602090601f83116001146200153b57600b9291600091836200152f575b50508160011b916000199060031b1c1916179101555b6001546001600160a01b0316620009bf62001e25565b620009c962001dab565b91620009d462001dcc565b6012815271656e68616e6365642d616e616c797469637360701b60208201528352620009ff62001dcc565b6012815271456e68616e63656420416e616c797469637360701b6020820152602084015262000a2d62001dec565b602981527f456e68616e63656420616e616c797469637320616e64207265706f7274696e6760208201526820666561747572657360b81b604082015260408401526006606084015260016080840152606460a08401524260c0840152600060e084015261010083015262000aa062001dcc565b60058152640312e302e360dc1b6020820152610120830152600161014083015261016082015262000ad062001dcc565b601c81527f456e68616e63656420616e616c79746963732064617368626f61726400000000602082015261018082015260405171656e68616e6365642d616e616c797469637360701b81526003601282015260329020815180519092906001600160401b038111620011245762000b548162000b4d855462001e49565b8562001eb3565b6020601f8211600114620014c25781929394600092620014b6575b50508160011b916000199060031b1c19161782555b602081015180519092906001600160401b038111620011245762000bbb8162000bb1600185015462001e49565b6001850162001eb3565b6020601f821160011462001443578192939460009262001437575b50508160011b916000199060031b1c19161760018201555b604082015180519092906001600160401b038111620011245762000c258162000c1b600286015462001e49565b6002860162001eb3565b6020601f8211600114620013c45781929394600092620013b8575b50508160011b916000199060031b1c19161760028301555b60608101516008811015620013a257600383015460808301516004811015620013a25761ff0060ff9160081b1692169061ffff19161717600383015560a0810151600483015560c0810151600583015560e081015160068301556007820160018060a01b036101008301511660018060a01b031982541617905561012081015191825160018060401b038111620011245762000d078162000cfd600885015462001e49565b6008850162001eb3565b6020601f82116001146200132f578192939460009262001323575b50508160011b916000199060031b1c19161760088201555b62000d5b6101408301511515600983019060ff801983541691151516179055565b6101608201518051906801000000000000000082116200112457600a83015482600a850155808310620012a0575b5060200190600a83016000526020600020916000905b828210620011af576101808601518051600b8701906001600160401b038111620011245762000dd48162000289845462001e49565b602092601f82116001146200114657928192936000926200113a575b50508160011b916000199060031b1c19161790555b60065468010000000000000000811015620011245780600162000e2c920160065562001efd565b6200110e5762000e4862000e41825462001e49565b8262001e86565b7f616476616e6365642d6b796300000000000000000000000000000000000000189081905560065468010000000000000000811015620011245780600162000e94920160065562001efd565b9190916200110e5762000eb362000eac835462001e49565b8362001e86565b7f7265616c2d74696d652d7269736b00000000000000000000000000000000001c9182905560065468010000000000000000811015620011245780600162000eff920160065562001efd565b9290926200110e5762000f1e62000f17845462001e49565b8462001e86565b7f656e68616e6365642d616e616c79746963730000000000000000000000000024928390556000805260056020527f05b8ccbb9d4d8fb16ea74ce3c29a41f1b461fbdaff4714a0d9a8eb05499746bc80546024939168010000000000000000821015620010f9579062000f979160018201815562001f2f565b620010e45762000fac62000e41825462001e49565b55600260005260056020527f89832631fb3c3307a103ba2c84ab569c64d6182a18893dcd163f0f1c2090733a80549068010000000000000000821015620010cf579062000fff9160018201815562001f2f565b620010ba576200101462000e41825462001e49565b55600660005260056020527f069400f22b28c6c362558d92f66163cec5671cba50b61abd2eecfcd0eaeac51880549068010000000000000000821015620010a55790620010679160018201815562001f2f565b9190916200109157506200108062000e41825462001e49565b55604051613a92908162001f498239f35b634e487b7160e01b60005260006004526000fd5b82634e487b7160e01b60005260416004526000fd5b82634e487b7160e01b60005260006004526000fd5b83634e487b7160e01b60005260416004526000fd5b83634e487b7160e01b60005260006004526000fd5b84634e487b7160e01b60005260416004526000fd5b634e487b7160e01b600052600060045260246000fd5b634e487b7160e01b600052604160045260246000fd5b01519050838062000df0565b601f198216938360005260206000209160005b8681106200119657508360019596106200117c575b505050811b01905562000e05565b015160001960f88460031b161c191690558380806200116e565b9192602060018192868501518155019401920162001159565b80518051906001600160401b0382116200112457620011db82620011d4885462001e49565b8862001eb3565b602090601f83116001146200122b5792826001949360209386956000926200121f575b5050600019600383901b1c191690841b1787555b0194019101909262000d9f565b015190508b80620011fe565b908660005260206000209160005b601f198516811062001287575083602093600196938796938794601f198116106200126d575b505050811b01875562001212565b015160001960f88460031b161c191690558b80806200125f565b9192602060018192868501518155019401920162001239565b600a84016000526020600020908382015b8183018110620012c357505062000d89565b80620012d26001925462001e49565b80620012e1575b5001620012b1565b601f81118314620012f95750600081555b88620012d9565b60009082825262001319601f60208420920160051c820185830162001e0c565b81835555620012f2565b01519050848062000d22565b6008830160005260206000209060005b601f1984168110620013895750600193949583601f198116106200136f575b505050811b01600882015562000d3a565b015160001960f88460031b161c191690558480806200135e565b9091602060018192858a0151815501930191016200133f565b634e487b7160e01b600052602160045260246000fd5b01519050848062000c40565b6002840160005260206000209060005b601f19841681106200141e5750600193949583601f1981161062001404575b505050811b01600283015562000c58565b015160001960f88460031b161c19169055848080620013f3565b9091602060018192858a015181550193019101620013d4565b01519050848062000bd6565b6001830160005260206000209060005b601f19841681106200149d5750600193949583601f1981161062001483575b505050811b01600182015562000bee565b015160001960f88460031b161c1916905584808062001472565b9091602060018192858a01518155019301910162001453565b01519050848062000b6f565b8360005260206000209060005b601f1984168110620015165750600193949583601f19811610620014fc575b505050811b01825562000b84565b015160001960f88460031b161c19169055848080620014ee565b9091602060018192858a015181550193019101620014cf565b01519050848062000993565b90600b840160005260206000209160005b601f1985168110620015975750918391600193600b95601f198116106200157d575b505050811b01910155620009a9565b015160001960f88460031b161c191690558480806200156e565b919260206001819286850151815501940192016200154c565b80518051906001600160401b0382116200112457620015d582620011d4885462001e49565b602090601f83116001146200162557928260019493602093869560009262001619575b5050600019600383901b1c191690841b1787555b0194019101909262000941565b015190508b80620015f8565b908660005260206000209160005b601f198516811062001681575083602093600196938796938794601f1981161062001667575b505050811b0187556200160c565b015160001960f88460031b161c191690558b808062001659565b9192602060018192868501518155019401920162001633565b600a85016000526020600020908382015b8183018110620016bd5750506200092b565b80620016cc6001925462001e49565b80620016db575b5001620016ab565b601f81118314620016f35750600081555b88620016d3565b60009082825262001713601f60208420920160051c820185830162001e0c565b81835555620016ec565b015190508480620008c4565b6008840160005260206000209060005b601f1984168110620017835750600193949583601f1981161062001769575b505050811b016008830155620008dc565b015160001960f88460031b161c1916905584808062001758565b9091602060018192858a01518155019301910162001739565b015190508480620007ec565b6002830160005260206000209060005b601f1984168110620018025750600193949583601f19811610620017e8575b505050811b01600282015562000804565b015160001960f88460031b161c19169055848080620017d7565b9091602060018192858a015181550193019101620017b8565b0151905084806200078c565b6001840160005260206000209060005b601f1984168110620018815750600193949583601f1981161062001867575b505050811b016001830155620007a4565b015160001960f88460031b161c1916905584808062001856565b9091602060018192858a01518155019301910162001837565b0151905084806200072f565b8260005260206000209060005b601f1984168110620018fa5750600193949583601f19811610620018e0575b505050811b01815562000744565b015160001960f88460031b161c19169055848080620018d2565b9091602060018192858a015181550193019101620018b3565b8060606020809385010152016200056a565b01519050848062000537565b90600b840160005260206000209160005b601f19851681106200198d5750918391600193600b95601f1981161062001973575b505050811b019101556200054d565b015160001960f88460031b161c1916905584808062001964565b9192602060018192868501518155019401920162001942565b80518051906001600160401b0382116200112457620019cb82620011d4885462001e49565b602090601f831160011462001a1b57928260019493602093869560009262001a0f575b5050600019600383901b1c191690841b1787555b01940191019092620004db565b015190503880620019ee565b908660005260206000209160005b601f198516811062001a77575083602093600196938796938794601f1981161062001a5d575b505050811b01875562001a02565b015160001960f88460031b161c1916905538808062001a4f565b9192602060018192868501518155019401920162001a29565b600a85016000526020600020908382015b818301811062001ab3575050620004c5565b8062001ac26001925462001e49565b8062001ad1575b500162001aa1565b601f8111831462001ae95750600081555b3862001ac9565b60009082825262001b09601f60208420920160051c820185830162001e0c565b8183555562001ae2565b0151905038806200045e565b6008840160005260206000209060005b601f198416811062001b795750600193949583601f1981161062001b5f575b505050811b01600883015562000476565b015160001960f88460031b161c1916905538808062001b4e565b9091602060018192858a01518155019301910162001b2f565b0151905038806200037c565b6002830160005260206000209060005b601f198416811062001bf85750600193949583601f1981161062001bde575b505050811b01600282015562000394565b015160001960f88460031b161c1916905538808062001bcd565b9091602060018192858a01518155019301910162001bae565b01519050388062000312565b6001840160005260206000209060005b601f198416811062001c775750600193949583601f1981161062001c5d575b505050811b0160018301556200032a565b015160001960f88460031b161c1916905538808062001c4c565b9091602060018192858a01518155019301910162001c2d565b015190503880620002ab565b8260005260206000209060005b601f198416811062001cf05750600193949583601f1981161062001cd6575b505050811b018155620002c0565b015160001960f88460031b161c1916905538808062001cc8565b9091602060018192858a01518155019301910162001ca9565b90928351906008821015620013a2576001916020918460031b9160ff809116831b921b191617940191016200008d565b60076000527fa66cc928b5edb82af9bd49922954155ab7b0942694bea4ce44661d9a8736c68880546001600160401b0316815562001d9f91601f0160051c017fa66cc928b5edb82af9bd49922954155ab7b0942694bea4ce44661d9a8736c68962001e0c565b386200007c565b600080fd5b604051906101a082016001600160401b038111838210176200112457604052565b60408051919082016001600160401b038111838210176200112457604052565b60405190606082016001600160401b038111838210176200112457604052565b81811062001e18575050565b6000815560010162001e0c565b604051602081016001600160401b0381118282101762001124576040526000815290565b90600182811c9216801562001e7b575b602083101462001e6557565b634e487b7160e01b600052602260045260246000fd5b91607f169162001e59565b90601f811162001e94575050565b62001eb191600052601f6020600020910160051c81019062001e0c565b565b9190601f811162001ec357505050565b62001eb1926000526020600020906020601f840160051c8301931062001ef2575b601f0160051c019062001e0c565b909150819062001ee4565b60065481101562001f1957600660005260206000200190600090565b634e487b7160e01b600052603260045260246000fd5b805482101562001f19576000526020600020019060009056fe6080604052600436101561001257600080fd5b60003560e01c8063013b47831461207d578063149ac1b914611dad5780631bd5d61414611d285780632eae16c214611c8a578063415434f114611c405780634a0f8c2814611a8d578063511764a8146114df578063526241a8146114a0578063542a086c14611393578063673530bc1461130b578063685496f0146112a45780637842676414611221578063786e128b146111935780638da5cb5b1461116c5780638e31410f1461113f578063977ec54d14610f8e578063989e35a714610f46578063ad6e823b14610edc578063c259c07a14610d77578063c822247314610d16578063d80646e114610cc4578063dadd0a57146105035763fd8d634a1461011957600080fd5b346104fe576003196040368201126104fe5767ffffffffffffffff6004358181116104fe5761014c903690600401612473565b91602435908282116104fe576101009082360301126104fe576040519261017284612418565b61017e826004016125ea565b845261018c602483016125ea565b936020938482019586526101a2604485016125ea565b6040830190815260608301906064860135825260848601358381116104fe576101d1906004369189010161260f565b976080850198895260a48701358481116104fe576101f590600436918a010161260f565b9660a0860197885260c48101358581116104fe57610219906004369184010161260f565b9460c0870195865260e48201359081116104fe5789610244610387936004610367943692010161260f565b9860e08901998a52336000526002825260ff6040600020541680156104e5575b61026d90612851565b604051906102a66001600160a01b03600783519486818187019761029281838b6124ca565b810160038152030190200154161515612c56565b6102ae612c01565b6102bf6102b96128e7565b826138b9565b610356610320603e6040516102d381612435565b600f81528681017f6d61785573616765506572557365720000000000000000000000000000000000815260405193849267024b73b30b634b2160c51b8a85015251809260288501906124ca565b81017f3a206d757374206265206e6f6e2d6e6567617469766500000000000000000000602882015203601e810183520190612451565b6040519384928392519283916124ca565b8101600481520301902095511515869060ff801983541691151516179055565b5115159061ff0062ff000086549251151560101b169260081b169062ffff00191617178355519360019687958685015560028401905190878251926103cc8484612b93565b019060005287600020876000925b8a8585106104ca5750505050505060038301905190868251926103fd8484612b93565b019060005286600020866000925b898585106104af57505050505050600482019051908582519261042e8484612b93565b01906000528560002085876000935b85851061049257508187600588019051928084519461045c8685612b93565b0191600052806000206000925b858410610477576000859055005b84838261048683945186612a1a565b01920193019290610469565b90816104a084935186612a1a565b0192019201919087879161043d565b816104bc84935186612a1a565b01920192019190879061040b565b816104d784935186612a1a565b0192019201919088906103da565b5061026d6001600160a01b036001541633149050610264565b600080fd5b346104fe5760003660031901126104fe57604051806007549081835260208093019181848460076000527fa66cc928b5edb82af9bd49922954155ab7b0942694bea4ce44661d9a8736c6886000905b85601f830110610a54579461067095549184828210610a3a575b828210610a1d575b828210610a00575b8282106109e3575b8282106109c7575b8282106109aa575b82821061098d575b828210610970575b828210610953575b828210610936575b828210610919575b8282106108fc575b8282106108df575b8282106108c2575b8282106108a5575b828210610888575b82821061086b575b82821061084e575b828210610831575b828210610814575b8282106107f7575b8282106107da575b8282106107bd575b8282106107a0575b828210610783575b828210610766575b828210610749575b82821061072c575b82821061070f575b8282106106f2575b8282106106d5575b50106106bf575b5090509392930383612451565b604051928392818401908285525180915260408401929160005b82811061069957505050500390f35b91938395509080826106af600194839751612512565b019501910191859493919261068a565b816106cc9160f81c612512565b01859087610663565b846106e96001939660ff8760f01c16612512565b0193018461065c565b846107066001939660ff8760e81c16612512565b01930184610654565b846107236001939660ff8760e01c16612512565b0193018461064c565b846107406001939660ff8760d81c16612512565b01930184610644565b8461075d6001939660ff8760d01c16612512565b0193018461063c565b8461077a6001939660ff8760c81c16612512565b01930184610634565b846107976001939660ff8760c01c16612512565b0193018461062c565b846107b46001939660ff8760b81c16612512565b01930184610624565b846107d16001939660ff8760b01c16612512565b0193018461061c565b846107ee6001939660ff8760a81c16612512565b01930184610614565b8461080b6001939660ff8760a01c16612512565b0193018461060c565b846108286001939660ff8760981c16612512565b01930184610604565b846108456001939660ff8760901c16612512565b019301846105fc565b846108626001939660ff8760881c16612512565b019301846105f4565b8461087f6001939660ff8760801c16612512565b019301846105ec565b8461089c6001939660ff8760781c16612512565b019301846105e4565b846108b96001939660ff8760701c16612512565b019301846105dc565b846108d66001939660ff8760681c16612512565b019301846105d4565b846108f36001939660ff8760601c16612512565b019301846105cc565b846109106001939660ff8760581c16612512565b019301846105c4565b8461092d6001939660ff8760501c16612512565b019301846105bc565b8461094a6001939660ff8760481c16612512565b019301846105b4565b846109676001939660ff8760401c16612512565b019301846105ac565b846109846001939660ff8760381c16612512565b019301846105a4565b846109a16001939660ff8760301c16612512565b0193018461059c565b846109be6001939660ff8760281c16612512565b01930184610594565b846109da6001939660ff87851c16612512565b0193018461058c565b846109f76001939660ff8760181c16612512565b01930184610584565b84610a146001939660ff8760101c16612512565b0193018461057c565b84610a316001939660ff8760081c16612512565b01930184610574565b84610a4b6001939660ff8716612512565b0193018461056c565b9350916001610400829693610cb58754610ca760ff610a7585828516612512565b610a86888601828560081c16612512565b610a9860408601828560101c16612512565b610c3885610bf06060610ab2818401868960181c16612512565b610ba88c610ac9608091888b848901921c16612512565b610b6060a093610ae08588018a8d60281c16612512565b888b61018060c099610af98b8201858560301c16612512565b610b0b60e08201858560381c16612512565b610b1e6101008201858560401c16612512565b610b316101208201858560481c16612512565b610b446101408201858560501c16612512565b610b576101608201858560581c16612512565b01921c16612512565b610b736101a08c01888b60681c16612512565b610b866101c08c01888b60701c16612512565b610b996101e08c01888b60781c16612512565b86896102008d01921c16612512565b610bbb6102208a01868960881c16612512565b610bce6102408a01868960901c16612512565b610be16102608a01868960981c16612512565b84876102808b01921c16612512565b610c036102a08801848760a81c16612512565b610c166102c08801848760b01c16612512565b610c296102e08801848760b81c16612512565b82856103008901921c16612512565b610c4b6103208601828560c81c16612512565b610c5e6103408601828560d01c16612512565b610c716103608601828560d81c16612512565b610c846103808601828560e01c16612512565b610c976103a08601828560e81c16612512565b6103c08501908360f01c16612512565b6103e083019060f81c612512565b01940192018593919492610552565b346104fe5760206001600160a01b03610cf4610cdf366126a6565b939081604051938285809451938492016124ca565b8101600881520301902091166000526020526020604060002054604051908152f35b346104fe5760403660031901126104fe5760043560088110156104fe57610d3f60243591612838565b9081548110156104fe57610d59610d5f91610d7393612735565b9061281d565b6040519182916020835260208301906124ed565b0390f35b346104fe5760603660031901126104fe5760043567ffffffffffffffff81116104fe57610da8903690600401612473565b602435906004821080156104fe57610e6492610e9a610eab7feb43a5ae3424237786e08023f15bd2142c3f3d06d5e5138411751b9b3d2cc74e946040946004604435948592336000528460209b8c926002845260ff8c60002054168015610ec3575b610e1390612851565b610e356001600160a01b0360078e51878181895199019861029281838c6124ca565b610e3d612c01565b610e4e610e486128e7565b896138b9565b610e5f610e59612920565b88613991565b612959565b610e8a8960038c5185818b51610e7b81838a6124ca565b81018481520301902001612ae2565b89518093819288519283916124ca565b810160038152030190200155612be1565b94610eb88451809461251f565b820152a26001600055005b50610e136001600160a01b036001541633149050610e0a565b346104fe5760203660031901126104fe576020610ef7612690565b610f08610f02613513565b8261383f565b6001600160a01b03809116806000526002835260ff60406000205416918215610f38575b50506040519015158152f35b600154161490508280610f2c565b346104fe5760203660031901126104fe57600435600881109081156104fe57610f7d610f8291610f78610d739461289c565b612838565b612dd5565b60405191829182612588565b346104fe5760203660031901126104fe5760043567ffffffffffffffff81116104fe57610fbf903690600401612473565b6040518181809351602081930191610fd6926124ca565b81016003815203602001902060405180610ff08184612787565b03610ffb9082612451565b604051918261100d8160018401612787565b036110189084612451565b604051806110298160028501612787565b036110349082612451565b60038201546004830154906005840154600685015460078601546001600160a01b03169160405194858060088a019061106c91612787565b036110779087612451565b600988015460ff169660405180600b819b019061109391612787565b0361109e908a612451565b6040519a8b9a610180808d528c016110b5916124ed565b8b810360208d01526110c6916124ed565b8a810360408c01526110d7916124ed565b946110e860608b0160ff8316612512565b60808a019060081c60ff16906110fd9161251f565b60a089015260c088015260e0870152610100860152848103610120860152611124916124ed565b901515610140840152828103610160840152610d73916124ed565b346104fe5760203660031901126104fe576004356006548110156104fe57610d5f610d59610d73926126e8565b346104fe5760003660031901126104fe5760206001600160a01b0360015416604051908152f35b346104fe5760603660031901126104fe5767ffffffffffffffff6004358181116104fe576111c5903690600401612473565b906001600160a01b0360243581811681036104fe576044359283116104fe576020936112126111fb611217953690600401612473565b936007604051888186516102928183858b016124ca565b612e4e565b6040519015158152f35b346104fe57611284611232366126a6565b9033600052600260205260ff60406000205416801561128b575b61125590612851565b6112776001600160a01b03600760405160208186516102928183858b016124ca565b61127f612c01565b613337565b6001600055005b506112556001600160a01b03600154163314905061124c565b346104fe5760203660031901126104fe576004356007548110156104fe5760f8611309602092600760005260ff8160051c7fa66cc928b5edb82af9bd49922954155ab7b0942694bea4ce44661d9a8736c688015460405194859360031b161c16612512565bf35b346104fe5760203660031901126104fe5760043567ffffffffffffffff81116104fe5761135660206113436080933690600401612473565b81604051938285809451938492016124ca565b810160048152030190206001815491015460ff6040519281811615158452818160081c161515602085015260101c16151560408301526060820152f35b346104fe5760403660031901126104fe576113ac612690565b602435908115158083036104fe576001600160a01b039081600154163303611436576114286020927e8ebc621f24e0e9d1fd4ee2f7df9bb80c8d61ee30a9167a4fee6cefcf8c021e946113fd612c01565b611408610f02613513565b1694856000526002845260406000209060ff801983541691151516179055565b604051908152a26001600055005b608460405162461bcd60e51b815260206004820152602160248201527f4f6e6c79206f776e65722063616e2063616c6c20746869732066756e6374696f60448201527f6e000000000000000000000000000000000000000000000000000000000000006064820152fd5b346104fe5760203660031901126104fe576001600160a01b036114c1612690565b166000526002602052602060ff604060002054166040519015158152f35b346104fe576101603660031901126104fe5767ffffffffffffffff6004358181116104fe57611512903690600401612473565b6024358281116104fe5761152a903690600401612473565b916044358181116104fe57611543903690600401612473565b90600860643510156104fe57600460843510156104fe5760e43580151581036104fe57610104358281116104fe5761157f90369060040161260f565b90610124358381116104fe57611599903690600401612473565b9261014435116104fe576115b33661014435600401612473565b9233600052600260205260ff604060002054168015611a74575b6115d690612851565b6115e460086064351061289c565b6115ec612c01565b6115fd6115f76128e7565b876138b9565b61163c60405161160c81612435565b600481527f6e616d65000000000000000000000000000000000000000000000000000000006020820152886138b9565b61167b60405161164b81612435565b600b81527f6465736372697074696f6e0000000000000000000000000000000000000000006020820152866138b9565b6116ba60405161168a81612435565b600781527f76657273696f6e000000000000000000000000000000000000000000000000006020820152826138b9565b6116f96040516116c981612435565b600881527f6d657461646174610000000000000000000000000000000000000000000000006020820152856138b9565b61170c611704612920565b60a435613991565b6001600160a01b0360076040516020818161172d8c838151938492016124ca565b81016003815203019020015416611a305761174c600460843510612959565b60405194611759866123fb565b8686528760208701526040860152611776606435606087016129a4565b611785608435608087016129b0565b60a43560a08601524260c086015260c43560e086015233610100860152610120850152151561014084015261016083015261018082015260405160208184516117d181838589016124ca565b81016003815203019020906117e7815183612a1a565b6117f8602082015160018401612a1a565b611809604082015160028401612a1a565b6003820160608201516008811015611a1a5760ff8019835416911617815560808201516004811015611a1a5761183e91612ae2565b60a0810151600483015560c0810151600583015560e08101516006830155600782016001600160a01b03610100830151167fffffffffffffffffffffffff00000000000000000000000000000000000000008254161790556118a861012082015160088401612a1a565b6118c86101408201511515600984019060ff801983541691151516179055565b600a82016101608201519060208251926118e28484612b93565b019060005260206000206000915b8383106119fd57878761190c88600b6101808a01519101612a1a565b611917606435612838565b8054906801000000000000000091828110156119e75761193c91600182018155612735565b6119d1578261194a91612a1a565b600654908110156119e75780600161196592016006556126e8565b9190916119d1576119a38161199e6119b8937f3719f491e5bb0f6f5a25da2d4dd31fdaa1774f54f9eb58941c9156680fbe8e0c95612a1a565b612be1565b926040519182916040835260408301906124ed565b6119c760208301606435612512565b0390a26001600055005b634e487b7160e01b600052600060045260246000fd5b634e487b7160e01b600052604160045260246000fd5b6001602082611a0e83945186612a1a565b019201920191906118f0565b634e487b7160e01b600052602160045260246000fd5b606460405162461bcd60e51b815260206004820152601b60248201527f4665617475726520666c616720616c72656164792065786973747300000000006044820152fd5b506115d66001600160a01b0360015416331490506115cd565b346104fe576020806003193601126104fe5760043567ffffffffffffffff81116104fe57610d73611b2983611ac860e0943690600401612473565b604051611ad481612418565b600081526000838201526000604082015260609581600088809401528260808201528260a08201528260c08201520152604051906103566001600160a01b03600783519486818187019761029281838b6124ca565b810160048152030190209160405192611b4184612418565b80549060ff821615158552611c308686019360ff8460081c161515855260ff604088019460101c16151584526001830154818801908152611b8460028501612dd5565b9160808901928352611b9860038601612dd5565b9560a08a01968752611bbf6005611bb160048901612dd5565b9760c08d0198895201612dd5565b9760e08b019889526040519b8c9b818d52511515908c015251151560408b0152511515908901525160808801525191611c1f611c09610100948560a08b01526101208a019061252c565b945194601f1995868a83030160c08b015261252c565b9051848883030160e089015261252c565b925191858403019085015261252c565b346104fe5760203660031901126104fe5760043567ffffffffffffffff81116104fe57611c77602061134381933690600401612473565b8101600981520301902054604051908152f35b346104fe5760003660031901126104fe57600654611ca7816125f7565b611cb46040519182612451565b81815260209182820160066000527ff652222313e28459528d920b65115c16c04f3efc82aaedc97be59f3f377c0d3f936000915b838310611cfd5760405180610d738782612588565b6001828192604051611d1a81611d13818d612787565b0382612451565b815201960192019194611ce8565b346104fe5760203660031901126104fe5760043567ffffffffffffffff81116104fe57611d946020611d606040933690600401612473565b835190611d846001600160a01b03600783519486818187019761029281838b6124ca565b84519384928392519283916124ca565b8101600981520301902054815190815260006020820152f35b346104fe5760203660031901126104fe5760043567ffffffffffffffff81116104fe57611e6c6020611de6610d73933690600401612473565b6060610180604051611df7816123fb565b828152828582015282604082015260008382015260006080820152600060a0820152600060c0820152600060e08201526000610100820152826101208201526000610140820152826101608201520152604051906103566001600160a01b03600783519486818187019761029281838b6124ca565b81016003815203019020600b611f7160405192611e88846123fb565b604051611e9981611d138185612787565b8452604051611eaf81611d138160018601612787565b6020850152604051611ec881611d138160028601612787565b6040850152611ef360ff6003830154611ee6828216606089016129a4565b60081c16608086016129b0565b600481015460a0850152600581015460c0850152600681015460e08501526001600160a01b03600782015416610100850152604051611f3981611d138160088601612787565b61012085015260ff6009820154161515610140850152611f5b600a8201612dd5565b610160850152611d136040518094819301612787565b61018082015260405191829160208352610180612068612044611fd4611fbe611fa886516101a060208b01526101c08a01906124ed565b6020870151898203601f190160408b01526124ed565b6040860151888203601f190160608a01526124ed565b611fe660608601516080890190612512565b611ff8608086015160a089019061251f565b60a085015160c088015260c085015160e088015260e08501516101008801526001600160a01b0361010086015116610120880152610120850151601f19888303016101408901526124ed565b6101408401511515610160870152610160840151601f19878303018488015261252c565b910151838203601f19016101a08501526124ed565b346104fe576020806003193601126104fe5760043567ffffffffffffffff81116104fe576120af903690600401612473565b336000526002825260ff6040600020541680156123e2575b6120d090612851565b60405181519161210b6001600160a01b036007868401956120f28187896124ca565b8501948781600397888152030190200154161515612c56565b612113612c01565b61211e6102b96128e7565b60ff826040518681855161213381838b6124ca565b8101848152030190200154169260005b61214c85612838565b548110156123d857611d1361217961216c8361216789612838565b612735565b5060405192838092612787565b86815191012083518320146121965761219190612ca1565b612143565b909192936121a381612838565b906121ad81612838565b5460001993848201939184116123a8576121db6121d06121e195610f7894612735565b509161216785612838565b90612d8d565b90815480156123925701906121ff6121f98383612735565b90612b4a565b555b60005b60068054808310156123be57611d1361221f61216c856126e8565b878151910120855185201461223e57505061223990612ca1565b612204565b600095929193949519918282019182116123a8576121db612261612268936126e8565b50916126e8565b82548015612392576123669661199e956005956123549461232b9401906122916121f9836126e8565b555b61231a600b60405184818c516122aa8183896124ca565b81018a8152030190206122bc81612b01565b6122c860018201612b01565b6122d460028201612b01565b60008882015560006004820155600089820155600060068201556000600782015561230160088201612b01565b60006009820155612314600a8201612b59565b01612b01565b604051809381928a519283916124ca565b8101600481520301902091600083556000600184015561234d60028401612b59565b8201612b59565b61236060048201612b59565b01612b59565b7f9a7f0558b401472fc94648f0ab983f71e7be898839e74a0f072f5eb0ba0ae710600080a26001600055005b634e487b7160e01b600052603160045260246000fd5b634e487b7160e01b600052601160045260246000fd5b50505061199e919261235461232b61236696600594612293565b5090919250612201565b506120d06001600160a01b0360015416331490506120c7565b6101a0810190811067ffffffffffffffff8211176119e757604052565b610100810190811067ffffffffffffffff8211176119e757604052565b6040810190811067ffffffffffffffff8211176119e757604052565b90601f8019910116810190811067ffffffffffffffff8211176119e757604052565b81601f820112156104fe5780359067ffffffffffffffff82116119e757604051926124a8601f8401601f191660200185612451565b828452602083830101116104fe57816000926020809301838601378301015290565b60005b8381106124dd5750506000910152565b81810151838201526020016124cd565b90602091612506815180928185528580860191016124ca565b601f01601f1916010190565b906008821015611a1a5752565b906004821015611a1a5752565b908082519081815260208091019281808460051b8301019501936000915b84831061255a5750505050505090565b9091929394958480612578600193601f198682030187528a516124ed565b980193019301919493929061254a565b602080820190808352835180925260408301928160408460051b8301019501936000915b8483106125bc5750505050505090565b90919293949584806125da600193603f198682030187528a516124ed565b98019301930191949392906125ac565b359081151582036104fe57565b67ffffffffffffffff81116119e75760051b60200190565b9080601f830112156104fe57813590612627826125f7565b926126356040519485612451565b828452602092838086019160051b830101928084116104fe57848301915b8483106126635750505050505090565b823567ffffffffffffffff81116104fe57869161268584848094890101612473565b815201920191612653565b600435906001600160a01b03821682036104fe57565b60406003198201126104fe576004359067ffffffffffffffff82116104fe576126d191600401612473565b906024356001600160a01b03811681036104fe5790565b60065481101561271f5760066000527ff652222313e28459528d920b65115c16c04f3efc82aaedc97be59f3f377c0d3f0190600090565b634e487b7160e01b600052603260045260246000fd5b805482101561271f5760005260206000200190600090565b90600182811c9216801561277d575b602083101461276757565b634e487b7160e01b600052602260045260246000fd5b91607f169161275c565b90600092918054916127988361274d565b9182825260019384811690816000146127fa57506001146127ba575b50505050565b90919394506000526020928360002092846000945b8386106127e65750505050010190388080806127b4565b8054858701830152940193859082016127cf565b9294505050602093945060ff191683830152151560051b010190388080806127b4565b906119d157612835611d139160405192838092612787565b90565b6008811015611a1a576000526005602052604060002090565b1561285857565b606460405162461bcd60e51b815260206004820152601760248201527f4e6f7420617574686f72697a656420746f2077726974650000000000000000006044820152fd5b156128a357565b606460405162461bcd60e51b815260206004820152601860248201527f496e76616c696420666561747572652063617465676f727900000000000000006044820152fd5b604051906128f482612435565b600982527f66656174757265496400000000000000000000000000000000000000000000006020830152565b6040519061292d82612435565b601182527f726f6c6c6f757450657263656e746167650000000000000000000000000000006020830152565b1561296057565b606460405162461bcd60e51b815260206004820152601660248201527f496e76616c6964206665617475726520737461747573000000000000000000006044820152fd5b6008821015611a1a5752565b6004821015611a1a5752565b8181106129c7575050565b600081556001016129bc565b9190601f81116129e257505050565b612a0e926000526020600020906020601f840160051c83019310612a10575b601f0160051c01906129bc565b565b9091508190612a01565b919091825167ffffffffffffffff81116119e757612a4281612a3c845461274d565b846129d3565b602080601f8311600114612a7e575081929394600092612a73575b50508160011b916000199060031b1c1916179055565b015190503880612a5d565b90601f198316958460005282600020926000905b888210612aca57505083600195969710612ab1575b505050811b019055565b015160001960f88460031b161c19169055388080612aa7565b80600185968294968601518155019501930190612a92565b906004811015611a1a5761ff0082549160081b169061ff001916179055565b612b0b815461274d565b9081612b15575050565b81601f60009311600114612b27575055565b908083918252612b46601f60208420940160051c8401600185016129bc565b5555565b906119d157612b0b815461274d565b8054906000815581612b69575050565b6000526020600020908101905b818110612b81575050565b80612b8d600192612b01565b01612b76565b906801000000000000000081116119e757815491818155828210612bb657505050565b600052602060002091820191015b818110612bcf575050565b80612bdb600192612b01565b01612bc4565b612bf9906020604051928284809451938492016124ca565b810103902090565b600260005414612c12576002600055565b606460405162461bcd60e51b815260206004820152601f60248201527f5265656e7472616e637947756172643a207265656e7472616e742063616c6c006044820152fd5b15612c5d57565b606460405162461bcd60e51b815260206004820152601660248201527f4665617475726520666c6167206e6f7420666f756e64000000000000000000006044820152fd5b60001981146123a85760010190565b90808214612d8957612cc2815461274d565b9067ffffffffffffffff82116119e7578190612ce882612ce2865461274d565b866129d3565b600090601f8311600114612d1e57600092612d135750508160011b916000199060031b1c1916179055565b015490503880612a5d565b81526020808220858352818320935090601f1985169083905b828210612d70575050908460019594939210612d5757505050811b019055565b015460001960f88460031b161c19169055388080612aa7565b8495819295850154815560018091019601940190612d37565b5050565b91906119d157612a0e91612cb0565b60405190612da982612435565b600482527f75736572000000000000000000000000000000000000000000000000000000006020830152565b908154612de1816125f7565b92604093612df185519182612451565b828152809460208092019260005281600020906000935b858510612e1757505050505050565b60018481928451612e2c81611d13818a612787565b815201930194019391612e08565b805182101561271f5760209160051b010190565b91612e60612e5a6128e7565b846138b9565b612e71612e6b612d9c565b8361383f565b604090815192845194602094858181840198612e8e81838c6124ca565b8101600381520301902094845196612ea5886123fb565b8551612eb581611d13818b612787565b8852855195600196612ecd81611d13818b8d01612787565b838a01528051612ee481611d138160028d01612787565b818a015260038801549860ff96612f00888c16606084016129a4565b612f1388608084019c60081c168c6129b0565b6004998a808201549960a085019a8b52600583015460c0860152600b61018060068501549660e08101978852612fa86001600160a01b0396876007820154166101008401528a51612f6b81611d138160088601612787565b610120840152856009820154161515610140840152612f8c600a8201612dd5565b610160840152612fa18b518096819301612787565b0384612451565b0152855189518f91908a908290612fc081838e6124ca565b81018681520301902095875192612fd684612418565b875481811615158552818160081c1615158c86015260101c161515888401528d870154606084015261300a60028801612dd5565b936080840194855261301e60038901612dd5565b9260a0850193845260e06130466005613038858d01612dd5565b9b60c089019c8d5201612dd5565b95019485525190811015613321571561328957518015159081613317575b5061330357908c809493928c6000925b6132a7575b5050508451613233575b5090916000905b6131d6575b5050508051613170575b505088518881101561315b57600314613105575050505050508251828110156130f057149182156130c957505090565b519150808210156130db575060021490565b602190634e487b7160e01b6000525260246000fd5b602183634e487b7160e01b6000525260246000fd5b6034939598506064975061315194965061314190519586938401976bffffffffffffffffffffffff199060601b168852518092858501906124ca565b8101036014810184520182612451565b5190200690511190565b602189634e487b7160e01b6000525260246000fd5b908482019060008a5b613185575b5050613099565b815180518210156131d0578161319a91612e3a565b5187815191012084518420146131c057906131b78b949392612ca1565b90919293613179565b5050505050505050505091505090565b5061317e565b8151805182101561322d57816131eb91612e3a565b518881519101206131fd848c1661354c565b8981519101201461321c57906132148c9392612ca1565b90919261308a565b505050505050505050505091505090565b5061308f565b836000918a8701915b613248575b5050613083565b9091929394815190815185101561329e57508361326491612e3a565b518a815191012086518320146132895761327e8e93612ca1565b91908395949361323c565b50505050505050505050505050505050600090565b95949350613241565b90919293949582519081518510156132f75750866132c8856132d693612e3a565b518d8151910120921661354c565b8b815191012014613289576132eb8e92612ca1565b908c8396959493613074565b96959493505080613079565b505050505050505050505050505050600090565b9050421138613064565b5060218f634e487b7160e01b6000525260246000fd5b6133426102b96128e7565b61334d612e6b612d9c565b60409081518151916020918281818401956133698183896124ca565b81016004815203019020845161337e81612418565b81549060ff82161515815260ff8260081c1615158582015260ff8782019260101c161515825260e06133f16005600186015495606085019687526133c460028201612dd5565b60808601526133d560038201612dd5565b60a08601526133e660048201612dd5565b60c086015201612dd5565b910152511561350b578051151590816134d0575b506134c9576134a3827fbdc7afbbef2174feb0bcffc959aaa75c1ae501824c71db13783d9bf76718e4f7946001600160a01b038751838187516134498183886124ca565b810160088152030190209816978860005282528660002061346a8154612ca1565b905586518281865161347d8183876124ca565b810160098152030190206134918154612ca1565b905586518093819286519283916124ca565b810160088152030190208560005282526134c1846000205491612be1565b9351908152a3565b5050505050565b90508451838184516134e381838a6124ca565b810160088152030190206001600160a01b038716600052835284600020549051111538613405565b505050505050565b6040519061352082612435565b600682527f77726974657200000000000000000000000000000000000000000000000000006020830152565b80156137d55760019081811461379c5760028114613763576003811461372a57600481146136f157600581146136b8576006811461367f5760078114613646576008811461360d576009146135d557506040516135a881612435565b600381527f31302b0000000000000000000000000000000000000000000000000000000000602082015290565b604051906135e282612435565b81527f3900000000000000000000000000000000000000000000000000000000000000602082015290565b506040519061361b82612435565b81527f3800000000000000000000000000000000000000000000000000000000000000602082015290565b506040519061365482612435565b81527f3700000000000000000000000000000000000000000000000000000000000000602082015290565b506040519061368d82612435565b81527f3600000000000000000000000000000000000000000000000000000000000000602082015290565b50604051906136c682612435565b81527f3500000000000000000000000000000000000000000000000000000000000000602082015290565b50604051906136ff82612435565b81527f3400000000000000000000000000000000000000000000000000000000000000602082015290565b506040519061373882612435565b81527f3300000000000000000000000000000000000000000000000000000000000000602082015290565b506040519061377182612435565b81527f3200000000000000000000000000000000000000000000000000000000000000602082015290565b50604051906137aa82612435565b81527f3100000000000000000000000000000000000000000000000000000000000000602082015290565b506040516137e281612435565b600181527f3000000000000000000000000000000000000000000000000000000000000000602082015290565b156138175750565b61383b9060405191829162461bcd60e51b83526020600484015260248301906124ed565b0390fd5b906001600160a01b03612a0e926138b16036604051809567024b73b30b634b2160c51b602083015261387b8151809260206028860191016124ca565b81017f3a207a65726f20616464726573730000000000000000000000000000000000006028820152036016810186520184612451565b16151561380f565b9060206139376039612a0e94610100815115159161393c60405167024b73b30b634b2160c51b9485898301526139376036838c61390181519d8e92019d8e60288501906124ca565b81017f3a20656d70747920737472696e670000000000000000000000000000000000006028820152036016810185520183612451565b61380f565b5111159361395b604051968793602085015251809260288501906124ca565b81017f3a20737472696e6720746f6f206c6f6e670000000000000000000000000000006028820152036019810185520183612451565b906064612a0e92613a55603760405167024b73b30b634b2160c51b90816020820152613a04875191848160208b01946139ce8160288401886124ca565b81017f3a2062656c6f77206d696e696d756d00000000000000000000000000000000006028820152036017810183520190612451565b613a1f604051978893602085015251809260288501906124ca565b81017f3a2061626f7665206d6178696d756d00000000000000000000000000000000006028820152036017810186520184612451565b111561380f56fea2646970667358221220ebaf341027385177151399a119aefe5ab2843b8c32f542e81b49c0d66c7ea8be64736f6c63430008140033",
  "linkReferences": {},
  "deployedLinkReferences": {}
}