{
  "_format": "hh-sol-artifact-1",
  "contractName": "FeatureFlags",
  "sourceName": "contracts/utility/FeatureFlags.sol",
  "abi": [
    {
      "inputs": [],
      "stateMutability": "nonpayable",
      "type": "constructor"
    },
    {
      "anonymous": false,
      "inputs": [
        {
          "indexed": true,
          "internalType": "address",
          "name": "writer",
          "type": "address"
        },
        {
          "indexed": false,
          "internalType": "bool",
          "name": "authorized",
          "type": "bool"
        }
      ],
      "name": "AuthorizedWriterUpdated",
      "type": "event"
    },
    {
      "anonymous": false,
      "inputs": [
        {
          "indexed": true,
          "internalType": "string",
          "name": "featureId",
          "type": "string"
        },
        {
          "indexed": false,
          "internalType": "string",
          "name": "name",
          "type": "string"
        },
        {
          "indexed": false,
          "internalType": "enum FeatureFlags.FeatureCategory",
          "name": "category",
          "type": "uint8"
        }
      ],
      "name": "FeatureFlagCreated",
      "type": "event"
    },
    {
      "anonymous": false,
      "inputs": [
        {
          "indexed": true,
          "internalType": "string",
          "name": "featureId",
          "type": "string"
        }
      ],
      "name": "FeatureFlagDeleted",
      "type": "event"
    },
    {
      "anonymous": false,
      "inputs": [
        {
          "indexed": true,
          "internalType": "string",
          "name": "featureId",
          "type": "string"
        },
        {
          "indexed": false,
          "internalType": "enum FeatureFlags.FeatureStatus",
          "name": "status",
          "type": "uint8"
        },
        {
          "indexed": false,
          "internalType": "uint256",
          "name": "rolloutPercentage",
          "type": "uint256"
        }
      ],
      "name": "FeatureFlagUpdated",
      "type": "event"
    },
    {
      "anonymous": false,
      "inputs": [
        {
          "indexed": true,
          "internalType": "string",
          "name": "featureId",
          "type": "string"
        },
        {
          "indexed": true,
          "internalType": "address",
          "name": "user",
          "type": "address"
        },
        {
          "indexed": false,
          "internalType": "uint256",
          "name": "usageCount",
          "type": "uint256"
        }
      ],
      "name": "FeatureUsageTracked",
      "type": "event"
    },
    {
      "inputs": [
        {
          "internalType": "uint256",
          "name": "",
          "type": "uint256"
        }
      ],
      "name": "allCategories",
      "outputs": [
        {
          "internalType": "enum FeatureFlags.FeatureCategory",
          "name": "",
          "type": "uint8"
        }
      ],
      "stateMutability": "view",
      "type": "function"
    },
    {
      "inputs": [
        {
          "internalType": "uint256",
          "name": "",
          "type": "uint256"
        }
      ],
      "name": "allFeatureIds",
      "outputs": [
        {
          "internalType": "string",
          "name": "",
          "type": "string"
        }
      ],
      "stateMutability": "view",
      "type": "function"
    },
    {
      "inputs": [
        {
          "internalType": "address",
          "name": "",
          "type": "address"
        }
      ],
      "name": "authorizedWriters",
      "outputs": [
        {
          "internalType": "bool",
          "name": "",
          "type": "bool"
        }
      ],
      "stateMutability": "view",
      "type": "function"
    },
    {
      "inputs": [
        {
          "internalType": "string",
          "name": "featureId",
          "type": "string"
        },
        {
          "internalType": "string",
          "name": "name",
          "type": "string"
        },
        {
          "internalType": "string",
          "name": "description",
          "type": "string"
        },
        {
          "internalType": "enum FeatureFlags.FeatureCategory",
          "name": "category",
          "type": "uint8"
        },
        {
          "internalType": "enum FeatureFlags.FeatureStatus",
          "name": "status",
          "type": "uint8"
        },
        {
          "internalType": "uint256",
          "name": "rolloutPercentage",
          "type": "uint256"
        },
        {
          "internalType": "uint256",
          "name": "endTime",
          "type": "uint256"
        },
        {
          "internalType": "bool",
          "name": "requiresAuth",
          "type": "bool"
        },
        {
          "internalType": "string[]",
          "name": "dependencies",
          "type": "string[]"
        },
        {
          "internalType": "string",
          "name": "version",
          "type": "string"
        },
        {
          "internalType": "string",
          "name": "metadata",
          "type": "string"
        }
      ],
      "name": "createFeatureFlag",
      "outputs": [],
      "stateMutability": "nonpayable",
      "type": "function"
    },
    {
      "inputs": [
        {
          "internalType": "string",
          "name": "featureId",
          "type": "string"
        }
      ],
      "name": "deleteFeatureFlag",
      "outputs": [],
      "stateMutability": "nonpayable",
      "type": "function"
    },
    {
      "inputs": [
        {
          "internalType": "string",
          "name": "",
          "type": "string"
        }
      ],
      "name": "featureConfigs",
      "outputs": [
        {
          "internalType": "bool",
          "name": "allowOverride",
          "type": "bool"
        },
        {
          "internalType": "bool",
          "name": "logUsage",
          "type": "bool"
        },
        {
          "internalType": "bool",
          "name": "trackMetrics",
          "type": "bool"
        },
        {
          "internalType": "uint256",
          "name": "maxUsagePerUser",
          "type": "uint256"
        }
      ],
      "stateMutability": "view",
      "type": "function"
    },
    {
      "inputs": [
        {
          "internalType": "string",
          "name": "",
          "type": "string"
        }
      ],
      "name": "featureFlags",
      "outputs": [
        {
          "internalType": "string",
          "name": "featureId",
          "type": "string"
        },
        {
          "internalType": "string",
          "name": "name",
          "type": "string"
        },
        {
          "internalType": "string",
          "name": "description",
          "type": "string"
        },
        {
          "internalType": "enum FeatureFlags.FeatureCategory",
          "name": "category",
          "type": "uint8"
        },
        {
          "internalType": "enum FeatureFlags.FeatureStatus",
          "name": "status",
          "type": "uint8"
        },
        {
          "internalType": "uint256",
          "name": "rolloutPercentage",
          "type": "uint256"
        },
        {
          "internalType": "uint256",
          "name": "startTime",
          "type": "uint256"
        },
        {
          "internalType": "uint256",
          "name": "endTime",
          "type": "uint256"
        },
        {
          "internalType": "address",
          "name": "createdBy",
          "type": "address"
        },
        {
          "internalType": "string",
          "name": "version",
          "type": "string"
        },
        {
          "internalType": "bool",
          "name": "requiresAuth",
          "type": "bool"
        },
        {
          "internalType": "string",
          "name": "metadata",
          "type": "string"
        }
      ],
      "stateMutability": "view",
      "type": "function"
    },
    {
      "inputs": [
        {
          "internalType": "string",
          "name": "",
          "type": "string"
        },
        {
          "internalType": "address",
          "name": "",
          "type": "address"
        }
      ],
      "name": "featureUsageCount",
      "outputs": [
        {
          "internalType": "uint256",
          "name": "",
          "type": "uint256"
        }
      ],
      "stateMutability": "view",
      "type": "function"
    },
    {
      "inputs": [
        {
          "internalType": "enum FeatureFlags.FeatureCategory",
          "name": "",
          "type": "uint8"
        },
        {
          "internalType": "uint256",
          "name": "",
          "type": "uint256"
        }
      ],
      "name": "featuresByCategory",
      "outputs": [
        {
          "internalType": "string",
          "name": "",
          "type": "string"
        }
      ],
      "stateMutability": "view",
      "type": "function"
    },
    {
      "inputs": [],
      "name": "getAllCategories",
      "outputs": [
        {
          "internalType": "enum FeatureFlags.FeatureCategory[]",
          "name": "categories",
          "type": "uint8[]"
        }
      ],
      "stateMutability": "view",
      "type": "function"
    },
    {
      "inputs": [],
      "name": "getAllFeatureIds",
      "outputs": [
        {
          "internalType": "string[]",
          "name": "featureIds",
          "type": "string[]"
        }
      ],
      "stateMutability": "view",
      "type": "function"
    },
    {
      "inputs": [
        {
          "internalType": "string",
          "name": "featureId",
          "type": "string"
        }
      ],
      "name": "getFeatureConfig",
      "outputs": [
        {
          "components": [
            {
              "internalType": "bool",
              "name": "allowOverride",
              "type": "bool"
            },
            {
              "internalType": "bool",
              "name": "logUsage",
              "type": "bool"
            },
            {
              "internalType": "bool",
              "name": "trackMetrics",
              "type": "bool"
            },
            {
              "internalType": "uint256",
              "name": "maxUsagePerUser",
              "type": "uint256"
            },
            {
              "internalType": "string[]",
              "name": "allowedUsers",
              "type": "string[]"
            },
            {
              "internalType": "string[]",
              "name": "blockedUsers",
              "type": "string[]"
            },
            {
              "internalType": "string[]",
              "name": "allowedTenants",
              "type": "string[]"
            },
            {
              "internalType": "string[]",
              "name": "blockedTenants",
              "type": "string[]"
            }
          ],
          "internalType": "struct FeatureFlags.FeatureConfig",
          "name": "config",
          "type": "tuple"
        }
      ],
      "stateMutability": "view",
      "type": "function"
    },
    {
      "inputs": [
        {
          "internalType": "string",
          "name": "featureId",
          "type": "string"
        }
      ],
      "name": "getFeatureFlag",
      "outputs": [
        {
          "components": [
            {
              "internalType": "string",
              "name": "featureId",
              "type": "string"
            },
            {
              "internalType": "string",
              "name": "name",
              "type": "string"
            },
            {
              "internalType": "string",
              "name": "description",
              "type": "string"
            },
            {
              "internalType": "enum FeatureFlags.FeatureCategory",
              "name": "category",
              "type": "uint8"
            },
            {
              "internalType": "enum FeatureFlags.FeatureStatus",
              "name": "status",
              "type": "uint8"
            },
            {
              "internalType": "uint256",
              "name": "rolloutPercentage",
              "type": "uint256"
            },
            {
              "internalType": "uint256",
              "name": "startTime",
              "type": "uint256"
            },
            {
              "internalType": "uint256",
              "name": "endTime",
              "type": "uint256"
            },
            {
              "internalType": "address",
              "name": "createdBy",
              "type": "address"
            },
            {
              "internalType": "string",
              "name": "version",
              "type": "string"
            },
            {
              "internalType": "bool",
              "name": "requiresAuth",
              "type": "bool"
            },
            {
              "internalType": "string[]",
              "name": "dependencies",
              "type": "string[]"
            },
            {
              "internalType": "string",
              "name": "metadata",
              "type": "string"
            }
          ],
          "internalType": "struct FeatureFlags.FeatureFlag",
          "name": "feature",
          "type": "tuple"
        }
      ],
      "stateMutability": "view",
      "type": "function"
    },
    {
      "inputs": [
        {
          "internalType": "string",
          "name": "featureId",
          "type": "string"
        }
      ],
      "name": "getFeatureUsageStats",
      "outputs": [
        {
          "internalType": "uint256",
          "name": "totalUsage",
          "type": "uint256"
        },
        {
          "internalType": "uint256",
          "name": "uniqueUsers",
          "type": "uint256"
        }
      ],
      "stateMutability": "view",
      "type": "function"
    },
    {
      "inputs": [
        {
          "internalType": "enum FeatureFlags.FeatureCategory",
          "name": "category",
          "type": "uint8"
        }
      ],
      "name": "getFeaturesByCategory",
      "outputs": [
        {
          "internalType": "string[]",
          "name": "featureIds",
          "type": "string[]"
        }
      ],
      "stateMutability": "view",
      "type": "function"
    },
    {
      "inputs": [
        {
          "internalType": "address",
          "name": "writer",
          "type": "address"
        }
      ],
      "name": "isAuthorizedWriter",
      "outputs": [
        {
          "internalType": "bool",
          "name": "",
          "type": "bool"
        }
      ],
      "stateMutability": "view",
      "type": "function"
    },
    {
      "inputs": [
        {
          "internalType": "string",
          "name": "featureId",
          "type": "string"
        },
        {
          "internalType": "address",
          "name": "user",
          "type": "address"
        },
        {
          "internalType": "string",
          "name": "tenantId",
          "type": "string"
        }
      ],
      "name": "isFeatureEnabled",
      "outputs": [
        {
          "internalType": "bool",
          "name": "",
          "type": "bool"
        }
      ],
      "stateMutability": "view",
      "type": "function"
    },
    {
      "inputs": [],
      "name": "owner",
      "outputs": [
        {
          "internalType": "address",
          "name": "",
          "type": "address"
        }
      ],
      "stateMutability": "view",
      "type": "function"
    },
    {
      "inputs": [
        {
          "internalType": "address",
          "name": "writer",
          "type": "address"
        },
        {
          "internalType": "bool",
          "name": "authorized",
          "type": "bool"
        }
      ],
      "name": "setAuthorizedWriter",
      "outputs": [],
      "stateMutability": "nonpayable",
      "type": "function"
    },
    {
      "inputs": [
        {
          "internalType": "string",
          "name": "",
          "type": "string"
        }
      ],
      "name": "totalFeatureUsage",
      "outputs": [
        {
          "internalType": "uint256",
          "name": "",
          "type": "uint256"
        }
      ],
      "stateMutability": "view",
      "type": "function"
    },
    {
      "inputs": [
        {
          "internalType": "string",
          "name": "featureId",
          "type": "string"
        },
        {
          "internalType": "address",
          "name": "user",
          "type": "address"
        }
      ],
      "name": "trackFeatureUsage",
      "outputs": [],
      "stateMutability": "nonpayable",
      "type": "function"
    },
    {
      "inputs": [
        {
          "internalType": "string",
          "name": "featureId",
          "type": "string"
        },
        {
          "components": [
            {
              "internalType": "bool",
              "name": "allowOverride",
              "type": "bool"
            },
            {
              "internalType": "bool",
              "name": "logUsage",
              "type": "bool"
            },
            {
              "internalType": "bool",
              "name": "trackMetrics",
              "type": "bool"
            },
            {
              "internalType": "uint256",
              "name": "maxUsagePerUser",
              "type": "uint256"
            },
            {
              "internalType": "string[]",
              "name": "allowedUsers",
              "type": "string[]"
            },
            {
              "internalType": "string[]",
              "name": "blockedUsers",
              "type": "string[]"
            },
            {
              "internalType": "string[]",
              "name": "allowedTenants",
              "type": "string[]"
            },
            {
              "internalType": "string[]",
              "name": "blockedTenants",
              "type": "string[]"
            }
          ],
          "internalType": "struct FeatureFlags.FeatureConfig",
          "name": "config",
          "type": "tuple"
        }
      ],
      "name": "updateFeatureConfig",
      "outputs": [],
      "stateMutability": "nonpayable",
      "type": "function"
    },
    {
      "inputs": [
        {
          "internalType": "string",
          "name": "featureId",
          "type": "string"
        },
        {
          "internalType": "enum FeatureFlags.FeatureStatus",
          "name": "status",
          "type": "uint8"
        },
        {
          "internalType": "uint256",
          "name": "rolloutPercentage",
          "type": "uint256"
        }
      ],
      "name": "updateFeatureFlag",
      "outputs": [],
      "stateMutability": "nonpayable",
      "type": "function"
    }
  ],
  "bytecode": "0x3462001d015760015f81815581546001600160a01b0319163390811783558152600260208190526040808320805460ff1916851790556101809052608091825260a09290925260c091909152600360e0526004610100526005610120526006610140526007610160819052805460089182905590811162001c95575b5060075f5260205f205f915f5b6008811062001c65575050556001546001600160a01b0316620000aa62001d7e565b620000b462001d05565b91620000bf62001d26565b600c81526b616476616e6365642d6b796360a01b60208201528352620000e462001d26565b601581527f416476616e636564204b594320466561747572657300000000000000000000006020820152602084015260405180608081011060018060401b03608083011117620010de5760808101604052604381527f416476616e636564204b594320766572696669636174696f6e2066656174757260208201527f657320696e636c7564696e672062696f6d65747269632076657269666963617460408201526234b7b760e91b606082015260408401525f606084015260026080840152601960a08401524260c08401525f60e0840152610100830152620001c662001d26565b60058152640312e302e360dc1b60208201526101208301526001610140830152610160820152620001f662001d46565b602f81527f416476616e636564204b594320666561747572657320666f7220656e68616e6360208201526e32b2103b32b934b334b1b0ba34b7b760891b6040820152610180820152602c6040516b616476616e6365642d6b796360a01b81526003600c8201522090805191825160018060401b038111620010de57620002898162000282845462001da1565b8462001e07565b6020601f821160011462001bfc57819293945f9262001bf0575b50508160011b915f199060031b1c19161781555b602082015180519092906001600160401b038111620010de57620002ee81620002e4600186015462001da1565b6001860162001e07565b6020601f821160011462001b8157819293945f9262001b75575b50508160011b915f199060031b1c19161760018301555b604081015180519092906001600160401b038111620010de5762000356816200034c600285015462001da1565b6002850162001e07565b6020601f821160011462001b0657819293945f9262001afa575b50508160011b915f199060031b1c19161760028201555b606082015160088110156200134857600382015460808401516004811015620013485761ff0060ff9160081b1692169061ffff19161717600382015560a0820151600482015560c0820151600582015560e082015160068201556007810160018060a01b036101008401511660018060a01b031982541617905561012082015191825160018060401b038111620010de5762000436816200042c600886015462001da1565b6008860162001e07565b6020601f821160011462001a8b57819293945f9262001a7f575b50508160011b915f199060031b1c19161760088301555b620004886101408201511515600984019060ff801983541691151516179055565b610160810151805190680100000000000000008211620010de57600a84015482600a86015580831062001a00575b5060200190600a84015f5260205f20915f905b8282106200191c57610180850151805187916001600160401b038211620010de576200050882620004fe600b86015462001da1565b600b860162001e07565b602090601f8311600114620018ab57600b92915f91836200189f575b50508160011b915f199060031b1c1916179101555b6001546001600160a01b03166200054f62001d26565b600181525f5b602081106200188d57506200056962001d05565b916200057462001d26565b600e81526d7265616c2d74696d652d7269736b60901b602082015283526200059b62001d26565b601981527f5265616c2d74696d65205269736b204173736573736d656e740000000000000060208201526020840152620005d462001d46565b603081527f5265616c2d74696d65207269736b206173736573736d656e74207573696e672060208201526f41492f4d4c20616c676f726974686d7360801b604082015260408401526002606084015260036080840152603260a08401524260c08401525f60e08401526101008301526200064d62001d26565b60058152640312e302e360dc1b602082015261012083015260016101408301526101608201526200067d62001d46565b602281527f5265616c2d74696d65207269736b206173736573736d656e7420666561747572602082015261657360f01b6040820152610180820152602e6040516d7265616c2d74696d652d7269736b60901b81526003600e8201522090805191825160018060401b038111620010de57620006fe8162000282845462001da1565b6020601f82116001146200182457819293945f9262001818575b50508160011b915f199060031b1c19161781555b602082015180519092906001600160401b038111620010de576200075981620002e4600186015462001da1565b6020601f8211600114620017a957819293945f926200179d575b50508160011b915f199060031b1c19161760018301555b604081015180519092906001600160401b038111620010de57620007b7816200034c600285015462001da1565b6020601f82116001146200172e57819293945f9262001722575b50508160011b915f199060031b1c19161760028201555b606082015160088110156200134857600382015460808401516004811015620013485761ff0060ff9160081b1692169061ffff19161717600382015560a0820151600482015560c0820151600582015560e082015160068201556007810160018060a01b036101008401511660018060a01b031982541617905561012082015191825160018060401b038111620010de576200088d816200042c600886015462001da1565b6020601f8211600114620016b357819293945f92620016a7575b50508160011b915f199060031b1c19161760088301555b620008df6101408201511515600984019060ff801983541691151516179055565b610160810151805190680100000000000000008211620010de57600a84015482600a86015580831062001628575b5060200190600a84015f5260205f20915f905b8282106200154457610180850151805187916001600160401b038211620010de576200095582620004fe600b86015462001da1565b602090601f8311600114620014d357600b92915f9183620014c7575b50508160011b915f199060031b1c1916179101555b6001546001600160a01b03166200099c62001d7e565b620009a662001d05565b91620009b162001d26565b6012815271656e68616e6365642d616e616c797469637360701b60208201528352620009dc62001d26565b6012815271456e68616e63656420416e616c797469637360701b6020820152602084015262000a0a62001d46565b602981527f456e68616e63656420616e616c797469637320616e64207265706f7274696e6760208201526820666561747572657360b81b604082015260408401526006606084015260016080840152606460a08401524260c08401525f60e084015261010083015262000a7c62001d26565b60058152640312e302e360dc1b6020820152610120830152600161014083015261016082015262000aac62001d26565b601c81527f456e68616e63656420616e616c79746963732064617368626f61726400000000602082015261018082015260405171656e68616e6365642d616e616c797469637360701b81526003601282015260329020815180519092906001600160401b038111620010de5762000b308162000b29855462001da1565b8562001e07565b6020601f82116001146200145e57819293945f9262001452575b50508160011b915f199060031b1c19161782555b602081015180519092906001600160401b038111620010de5762000b958162000b8b600185015462001da1565b6001850162001e07565b6020601f8211600114620013e357819293945f92620013d7575b50508160011b915f199060031b1c19161760018201555b604082015180519092906001600160401b038111620010de5762000bfd8162000bf3600286015462001da1565b6002860162001e07565b6020601f82116001146200136857819293945f926200135c575b50508160011b915f199060031b1c19161760028301555b606081015160088110156200134857600383015460808301516004811015620013485761ff0060ff9160081b1692169061ffff19161717600383015560a0810151600483015560c0810151600583015560e081015160068301556007820160018060a01b036101008301511660018060a01b031982541617905561012081015191825160018060401b038111620010de5762000cdd8162000cd3600885015462001da1565b6008850162001e07565b6020601f8211600114620012d957819293945f92620012cd575b50508160011b915f199060031b1c19161760088201555b62000d2f6101408301511515600983019060ff801983541691151516179055565b610160820151805190680100000000000000008211620010de57600a83015482600a8501558083106200124e575b5060200190600a83015f5260205f20915f905b82821062001163576101808601518051600b8701906001600160401b038111620010de5762000da58162000282845462001da1565b602092601f8211600114620010fe57928192935f92620010f2575b50508160011b915f199060031b1c19161790555b60065468010000000000000000811015620010de5780600162000dfb920160065562001e4f565b620010cb5762000e1762000e10825462001da1565b8262001ddc565b7f616476616e6365642d6b796300000000000000000000000000000000000000189081905560065468010000000000000000811015620010de5780600162000e63920160065562001e4f565b919091620010cb5762000e8262000e7b835462001da1565b8362001ddc565b7f7265616c2d74696d652d7269736b00000000000000000000000000000000001c9182905560065468010000000000000000811015620010de5780600162000ece920160065562001e4f565b929092620010cb5762000eed62000ee6845462001da1565b8462001ddc565b7f656e68616e6365642d616e616c79746963730000000000000000000000000024928390555f805260056020527f05b8ccbb9d4d8fb16ea74ce3c29a41f1b461fbdaff4714a0d9a8eb05499746bc80546024939168010000000000000000821015620010b8579062000f659160018201815562001e7c565b620010a65762000f7a62000e10825462001da1565b5560025f5260056020527f89832631fb3c3307a103ba2c84ab569c64d6182a18893dcd163f0f1c2090733a8054906801000000000000000082101562001093579062000fcc9160018201815562001e7c565b620010815762000fe162000e10825462001da1565b5560065f5260056020527f069400f22b28c6c362558d92f66163cec5671cba50b61abd2eecfcd0eaeac518805490680100000000000000008210156200106e5790620010339160018201815562001e7c565b9190916200105d57506200104c62000e10825462001da1565b556040516139f8908162001e938239f35b634e487b7160e01b5f525f6004525ffd5b82634e487b7160e01b5f5260416004525ffd5b82634e487b7160e01b5f525f6004525ffd5b83634e487b7160e01b5f5260416004525ffd5b83634e487b7160e01b5f525f6004525ffd5b84634e487b7160e01b5f5260416004525ffd5b634e487b7160e01b5f525f60045260245ffd5b634e487b7160e01b5f52604160045260245ffd5b01519050838062000dc0565b601f19821693835f5260205f20915f5b8681106200114a575083600195961062001131575b505050811b01905562000dd4565b01515f1960f88460031b161c1916905583808062001123565b919260206001819286850151815501940192016200110e565b80518051906001600160401b038211620010de576200118f8262001188885462001da1565b8862001e07565b602090601f8311600114620011dd5792826001949360209386955f92620011d1575b50505f19600383901b1c191690841b1787555b0194019101909262000d70565b015190508b80620011b1565b90865f5260205f20915f5b601f198516811062001235575083602093600196938796938794601f198116106200121c575b505050811b018755620011c4565b01515f1960f88460031b161c191690558b80806200120e565b91926020600181928685015181550194019201620011e8565b600a84015f5260205f20908382015b81830181106200126f57505062000d5d565b806200127e6001925462001da1565b806200128d575b50016200125d565b601f81118314620012a457505f81555b8862001285565b5f90828252620012c3601f60208420920160051c820185830162001d66565b818355556200129d565b01519050848062000cf7565b600883015f5260205f20905f5b601f19841681106200132f5750600193949583601f1981161062001316575b505050811b01600882015562000d0e565b01515f1960f88460031b161c1916905584808062001305565b9091602060018192858a015181550193019101620012e6565b634e487b7160e01b5f52602160045260245ffd5b01519050848062000c17565b600284015f5260205f20905f5b601f1984168110620013be5750600193949583601f19811610620013a5575b505050811b01600283015562000c2e565b01515f1960f88460031b161c1916905584808062001394565b9091602060018192858a01518155019301910162001375565b01519050848062000baf565b600183015f5260205f20905f5b601f1984168110620014395750600193949583601f1981161062001420575b505050811b01600182015562000bc6565b01515f1960f88460031b161c191690558480806200140f565b9091602060018192858a015181550193019101620013f0565b01519050848062000b4a565b835f5260205f20905f5b601f1984168110620014ae5750600193949583601f1981161062001495575b505050811b01825562000b5e565b01515f1960f88460031b161c1916905584808062001487565b9091602060018192858a01518155019301910162001468565b01519050848062000971565b90600b84015f5260205f20915f5b601f19851681106200152b5750918391600193600b95601f1981161062001512575b505050811b0191015562000986565b01515f1960f88460031b161c1916905584808062001503565b91926020600181928685015181550194019201620014e1565b80518051906001600160401b038211620010de57620015698262001188885462001da1565b602090601f8311600114620015b75792826001949360209386955f92620015ab575b50505f19600383901b1c191690841b1787555b0194019101909262000920565b015190508b806200158b565b90865f5260205f20915f5b601f19851681106200160f575083602093600196938796938794601f19811610620015f6575b505050811b0187556200159e565b01515f1960f88460031b161c191690558b8080620015e8565b91926020600181928685015181550194019201620015c2565b600a85015f5260205f20908382015b8183018110620016495750506200090d565b80620016586001925462001da1565b8062001667575b500162001637565b601f811183146200167e57505f81555b886200165f565b5f908282526200169d601f60208420920160051c820185830162001d66565b8183555562001677565b015190508480620008a7565b600884015f5260205f20905f5b601f1984168110620017095750600193949583601f19811610620016f0575b505050811b016008830155620008be565b01515f1960f88460031b161c19169055848080620016df565b9091602060018192858a015181550193019101620016c0565b015190508480620007d1565b600283015f5260205f20905f5b601f1984168110620017845750600193949583601f198116106200176b575b505050811b016002820155620007e8565b01515f1960f88460031b161c191690558480806200175a565b9091602060018192858a0151815501930191016200173b565b01519050848062000773565b600184015f5260205f20905f5b601f1984168110620017ff5750600193949583601f19811610620017e6575b505050811b0160018301556200078a565b01515f1960f88460031b161c19169055848080620017d5565b9091602060018192858a015181550193019101620017b6565b01519050848062000718565b825f5260205f20905f5b601f1984168110620018745750600193949583601f198116106200185b575b505050811b0181556200072c565b01515f1960f88460031b161c191690558480806200184d565b9091602060018192858a0151815501930191016200182e565b80606060208093850101520162000555565b01519050848062000524565b90600b84015f5260205f20915f5b601f1985168110620019035750918391600193600b95601f19811610620018ea575b505050811b0191015562000539565b01515f1960f88460031b161c19169055848080620018db565b91926020600181928685015181550194019201620018b9565b80518051906001600160401b038211620010de57620019418262001188885462001da1565b602090601f83116001146200198f5792826001949360209386955f9262001983575b50505f19600383901b1c191690841b1787555b01940191019092620004c9565b015190505f8062001963565b90865f5260205f20915f5b601f1985168110620019e7575083602093600196938796938794601f19811610620019ce575b505050811b01875562001976565b01515f1960f88460031b161c191690555f8080620019c0565b919260206001819286850151815501940192016200199a565b600a85015f5260205f20908382015b818301811062001a21575050620004b6565b8062001a306001925462001da1565b8062001a3f575b500162001a0f565b601f8111831462001a5657505f81555b5f62001a37565b5f9082825262001a75601f60208420920160051c820185830162001d66565b8183555562001a4f565b015190505f8062000450565b600884015f5260205f20905f5b601f198416811062001ae15750600193949583601f1981161062001ac8575b505050811b01600883015562000467565b01515f1960f88460031b161c191690555f808062001ab7565b9091602060018192858a01518155019301910162001a98565b015190505f8062000370565b600283015f5260205f20905f5b601f198416811062001b5c5750600193949583601f1981161062001b43575b505050811b01600282015562000387565b01515f1960f88460031b161c191690555f808062001b32565b9091602060018192858a01518155019301910162001b13565b015190505f8062000308565b600184015f5260205f20905f5b601f198416811062001bd75750600193949583601f1981161062001bbe575b505050811b0160018301556200031f565b01515f1960f88460031b161c191690555f808062001bad565b9091602060018192858a01518155019301910162001b8e565b015190505f80620002a3565b825f5260205f20905f5b601f198416811062001c4c5750600193949583601f1981161062001c33575b505050811b018155620002b7565b01515f1960f88460031b161c191690555f808062001c25565b9091602060018192858a01518155019301910162001c06565b9092835190600882101562001348576001916020918460031b9160ff809116831b921b1916179401910162000088565b60075f527fa66cc928b5edb82af9bd49922954155ab7b0942694bea4ce44661d9a8736c68880546001600160401b0316815562001cfa91601f0160051c017fa66cc928b5edb82af9bd49922954155ab7b0942694bea4ce44661d9a8736c68962001d66565b5f6200007b565b5f80fd5b604051906101a082016001600160401b03811183821017620010de57604052565b60408051919082016001600160401b03811183821017620010de57604052565b60405190606082016001600160401b03811183821017620010de57604052565b81811062001d72575050565b5f815560010162001d66565b604051602081016001600160401b03811182821017620010de576040525f815290565b90600182811c9216801562001dd1575b602083101462001dbd57565b634e487b7160e01b5f52602260045260245ffd5b91607f169162001db1565b90601f811162001dea575050565b62001e05915f52601f60205f20910160051c81019062001d66565b565b9190601f811162001e1757505050565b62001e05925f5260205f20906020601f840160051c8301931062001e44575b601f0160051c019062001d66565b909150819062001e36565b60065481101562001e685760065f5260205f2001905f90565b634e487b7160e01b5f52603260045260245ffd5b805482101562001e68575f5260205f2001905f9056fe60806040526004361015610011575f80fd5b5f3560e01c8063013b478314612039578063149ac1b914611d705780631bd5d61414611cec5780632eae16c214611c51578063415434f114611c075780634a0f8c2814611a58578063511764a8146114b7578063526241a81461147a578063542a086c14611370578063673530bc146112e8578063685496f0146112825780637842676414611202578063786e128b146111745780638da5cb5b1461114e5780638e31410f14611121578063977ec54d14610f70578063989e35a714610f28578063ad6e823b14610ec0578063c259c07a14610d5e578063c822247314610cfd578063d80646e114610cad578063dadd0a57146104f05763fd8d634a14610116575f80fd5b346104ec576003196040368201126104ec5767ffffffffffffffff6004358181116104ec5761014990369060040161241b565b91602435908282116104ec576101009082360301126104ec576040519261016f846123c0565b61017b8260040161258d565b84526101896024830161258d565b9360209384820195865261019f6044850161258d565b6040830190815260608301906064860135825260848601358381116104ec576101ce90600436918901016125b2565b976080850198895260a48701358481116104ec576101f290600436918a01016125b2565b9660a0860197885260c48101358581116104ec5761021690600436918401016125b2565b9460c0870195865260e48201359081116104ec578961024161038293600461036294369201016125b2565b9860e08901998a52335f526002825260ff60405f20541680156104d3575b610268906127e4565b604051906102a16001600160a01b03600783519486818187019761028d81838b612471565b810160038152030190200154161515612bd8565b6102a9612b85565b6102ba6102b461287a565b8261381f565b61035161031b603e6040516102ce816123dd565b600f81528681017f6d61785573616765506572557365720000000000000000000000000000000000815260405193849267024b73b30b634b2160c51b8a8501525180926028850190612471565b81017f3a206d757374206265206e6f6e2d6e6567617469766500000000000000000000602882015203601e8101835201906123f9565b604051938492839251928391612471565b8101600481520301902095511515869060ff801983541691151516179055565b5115159061ff0062ff000086549251151560101b169260081b169062ffff00191617178355519360019687958685015560028401905190878251926103c78484612b19565b01905f52875f20875f925b8a8585106104b85750505050505060038301905190868251926103f58484612b19565b01905f52865f20865f925b8985851061049d5750505050505060048201905190858251926104238484612b19565b01905f52855f2085875f935b85851061048057508187600588019051928084519461044e8685612b19565b01915f52805f205f925b858410610465575f859055005b848382610474839451866129aa565b01920193019290610458565b908161048e849351866129aa565b0192019201919087879161042f565b816104aa849351866129aa565b019201920191908790610400565b816104c5849351866129aa565b0192019201919088906103d2565b506102686001600160a01b03600154163314905061025f565b5f80fd5b346104ec575f3660031901126104ec57604051806007549081835260208093019181848460075f527fa66cc928b5edb82af9bd49922954155ab7b0942694bea4ce44661d9a8736c6885f905b85601f830110610a3d579461065a95549184828210610a23575b828210610a06575b8282106109e9575b8282106109cc575b8282106109b0575b828210610993575b828210610976575b828210610959575b82821061093c575b82821061091f575b828210610902575b8282106108e5575b8282106108c8575b8282106108ab575b82821061088e575b828210610871575b828210610854575b828210610837575b82821061081a575b8282106107fd575b8282106107e0575b8282106107c3575b8282106107a6575b828210610789575b82821061076c575b82821061074f575b828210610732575b828210610715575b8282106106f8575b8282106106db575b8282106106be575b50106106a8575b50905093929303836123f9565b60405192839281840190828552518091526040840192915f5b82811061068257505050500390f35b91938395509080826106986001948397516124b7565b0195019101918594939192610673565b816106b59160f81c6124b7565b0185908761064d565b846106d26001939660ff8760f01c166124b7565b01930184610646565b846106ef6001939660ff8760e81c166124b7565b0193018461063e565b8461070c6001939660ff8760e01c166124b7565b01930184610636565b846107296001939660ff8760d81c166124b7565b0193018461062e565b846107466001939660ff8760d01c166124b7565b01930184610626565b846107636001939660ff8760c81c166124b7565b0193018461061e565b846107806001939660ff8760c01c166124b7565b01930184610616565b8461079d6001939660ff8760b81c166124b7565b0193018461060e565b846107ba6001939660ff8760b01c166124b7565b01930184610606565b846107d76001939660ff8760a81c166124b7565b019301846105fe565b846107f46001939660ff8760a01c166124b7565b019301846105f6565b846108116001939660ff8760981c166124b7565b019301846105ee565b8461082e6001939660ff8760901c166124b7565b019301846105e6565b8461084b6001939660ff8760881c166124b7565b019301846105de565b846108686001939660ff8760801c166124b7565b019301846105d6565b846108856001939660ff8760781c166124b7565b019301846105ce565b846108a26001939660ff8760701c166124b7565b019301846105c6565b846108bf6001939660ff8760681c166124b7565b019301846105be565b846108dc6001939660ff8760601c166124b7565b019301846105b6565b846108f96001939660ff8760581c166124b7565b019301846105ae565b846109166001939660ff8760501c166124b7565b019301846105a6565b846109336001939660ff8760481c166124b7565b0193018461059e565b846109506001939660ff8760401c166124b7565b01930184610596565b8461096d6001939660ff8760381c166124b7565b0193018461058e565b8461098a6001939660ff8760301c166124b7565b01930184610586565b846109a76001939660ff8760281c166124b7565b0193018461057e565b846109c36001939660ff87851c166124b7565b01930184610576565b846109e06001939660ff8760181c166124b7565b0193018461056e565b846109fd6001939660ff8760101c166124b7565b01930184610566565b84610a1a6001939660ff8760081c166124b7565b0193018461055e565b84610a346001939660ff87166124b7565b01930184610556565b9350916001610400829693610c9e8754610c9060ff610a5e858285166124b7565b610a6f888601828560081c166124b7565b610a8160408601828560101c166124b7565b610c2185610bd96060610a9b818401868960181c166124b7565b610b918c610ab2608091888b848901921c166124b7565b610b4960a093610ac98588018a8d60281c166124b7565b888b61018060c099610ae28b8201858560301c166124b7565b610af460e08201858560381c166124b7565b610b076101008201858560401c166124b7565b610b1a6101208201858560481c166124b7565b610b2d6101408201858560501c166124b7565b610b406101608201858560581c166124b7565b01921c166124b7565b610b5c6101a08c01888b60681c166124b7565b610b6f6101c08c01888b60701c166124b7565b610b826101e08c01888b60781c166124b7565b86896102008d01921c166124b7565b610ba46102208a01868960881c166124b7565b610bb76102408a01868960901c166124b7565b610bca6102608a01868960981c166124b7565b84876102808b01921c166124b7565b610bec6102a08801848760a81c166124b7565b610bff6102c08801848760b01c166124b7565b610c126102e08801848760b81c166124b7565b82856103008901921c166124b7565b610c346103208601828560c81c166124b7565b610c476103408601828560d01c166124b7565b610c5a6103608601828560d81c166124b7565b610c6d6103808601828560e01c166124b7565b610c806103a08601828560e81c166124b7565b6103c08501908360f01c166124b7565b6103e083019060f81c6124b7565b0194019201859391949261053c565b346104ec5760206001600160a01b03610cdd610cc836612649565b93908160405193828580945193849201612471565b8101600881520301902091165f52602052602060405f2054604051908152f35b346104ec5760403660031901126104ec5760043560088110156104ec57610d26602435916127cd565b9081548110156104ec57610d40610d4691610d5a936126d4565b906127b2565b604051918291602083526020830190612492565b0390f35b346104ec5760603660031901126104ec5760043567ffffffffffffffff81116104ec57610d8f90369060040161241b565b602435906004821080156104ec57610e4992610e7f610e907feb43a5ae3424237786e08023f15bd2142c3f3d06d5e5138411751b9b3d2cc74e946040946004604435948592335f528460209b8c926002845260ff8c5f2054168015610ea7575b610df8906127e4565b610e1a6001600160a01b0360078e51878181895199019861028d81838c612471565b610e22612b85565b610e33610e2d61287a565b8961381f565b610e44610e3e6128b3565b886138f7565b6128ec565b610e6f8960038c5185818b51610e6081838a612471565b81018481520301902001612a6c565b8951809381928851928391612471565b810160038152030190200155612b65565b94610e9d845180946124c4565b820152a260015f55005b50610df86001600160a01b036001541633149050610def565b346104ec5760203660031901126104ec576020610edb612633565b610eec610ee6613479565b826137a5565b6001600160a01b03809116805f526002835260ff60405f205416918215610f1a575b50506040519015158152f35b600154161490508280610f0e565b346104ec5760203660031901126104ec57600435600881109081156104ec57610f5f610f6491610f5a610d5a9461282f565b6127cd565b612d52565b6040519182918261252c565b346104ec5760203660031901126104ec5760043567ffffffffffffffff81116104ec57610fa190369060040161241b565b6040518181809351602081930191610fb892612471565b81016003815203602001902060405180610fd28184612721565b03610fdd90826123f9565b6040519182610fef8160018401612721565b03610ffa90846123f9565b6040518061100b8160028501612721565b0361101690826123f9565b60038201546004830154906005840154600685015460078601546001600160a01b03169160405194858060088a019061104e91612721565b0361105990876123f9565b600988015460ff169660405180600b819b019061107591612721565b03611080908a6123f9565b6040519a8b9a610180808d528c0161109791612492565b8b810360208d01526110a891612492565b8a810360408c01526110b991612492565b946110ca60608b0160ff83166124b7565b60808a019060081c60ff16906110df916124c4565b60a089015260c088015260e087015261010086015284810361012086015261110691612492565b901515610140840152828103610160840152610d5a91612492565b346104ec5760203660031901126104ec576004356006548110156104ec57610d46610d40610d5a9261268b565b346104ec575f3660031901126104ec5760206001600160a01b0360015416604051908152f35b346104ec5760603660031901126104ec5767ffffffffffffffff6004358181116104ec576111a690369060040161241b565b906001600160a01b0360243581811681036104ec576044359283116104ec576020936111f36111dc6111f895369060040161241b565b9360076040518881865161028d8183858b01612471565b612dc8565b6040519015158152f35b346104ec5761126361121336612649565b90335f52600260205260ff60405f2054168015611269575b611234906127e4565b6112566001600160a01b036007604051602081865161028d8183858b01612471565b61125e612b85565b6132a3565b60015f55005b506112346001600160a01b03600154163314905061122b565b346104ec5760203660031901126104ec576004356007548110156104ec5760f86112e660209260075f5260ff8160051c7fa66cc928b5edb82af9bd49922954155ab7b0942694bea4ce44661d9a8736c688015460405194859360031b161c166124b7565bf35b346104ec5760203660031901126104ec5760043567ffffffffffffffff81116104ec576113336020611320608093369060040161241b565b8160405193828580945193849201612471565b810160048152030190206001815491015460ff6040519281811615158452818160081c161515602085015260101c16151560408301526060820152f35b346104ec5760403660031901126104ec57611389612633565b602435908115158083036104ec576001600160a01b039081600154163303611410576114036020927e8ebc621f24e0e9d1fd4ee2f7df9bb80c8d61ee30a9167a4fee6cefcf8c021e946113da612b85565b6113e5610ee6613479565b1694855f526002845260405f209060ff801983541691151516179055565b604051908152a260015f55005b608460405162461bcd60e51b815260206004820152602160248201527f4f6e6c79206f776e65722063616e2063616c6c20746869732066756e6374696f60448201527f6e000000000000000000000000000000000000000000000000000000000000006064820152fd5b346104ec5760203660031901126104ec576001600160a01b0361149b612633565b165f526002602052602060ff60405f2054166040519015158152f35b346104ec576101603660031901126104ec5767ffffffffffffffff6004358181116104ec576114ea90369060040161241b565b6024358281116104ec5761150290369060040161241b565b916044358181116104ec5761151b90369060040161241b565b90600860643510156104ec57600460843510156104ec5760e43580151581036104ec57610104358281116104ec576115579036906004016125b2565b90610124358381116104ec5761157190369060040161241b565b9261014435116104ec5761158b366101443560040161241b565b92335f52600260205260ff60405f2054168015611a3f575b6115ac906127e4565b6115ba60086064351061282f565b6115c2612b85565b6115d36115cd61287a565b8761381f565b6116126040516115e2816123dd565b600481527f6e616d650000000000000000000000000000000000000000000000000000000060208201528861381f565b611651604051611621816123dd565b600b81527f6465736372697074696f6e00000000000000000000000000000000000000000060208201528661381f565b611690604051611660816123dd565b600781527f76657273696f6e0000000000000000000000000000000000000000000000000060208201528261381f565b6116cf60405161169f816123dd565b600881527f6d6574616461746100000000000000000000000000000000000000000000000060208201528561381f565b6116e26116da6128b3565b60a4356138f7565b6001600160a01b036007604051602081816117038c83815193849201612471565b810160038152030190200154166119fb576117226004608435106128ec565b6040519461172f866123a3565b868652876020870152604086015261174c60643560608701612937565b61175b60843560808701612943565b60a43560a08601524260c086015260c43560e086015233610100860152610120850152151561014084015261016083015261018082015260405160208184516117a78183858901612471565b81016003815203019020906117bd8151836129aa565b6117ce6020820151600184016129aa565b6117df6040820151600284016129aa565b60038201606082015160088110156119e75760ff80198354169116178155608082015160048110156119e75761181491612a6c565b60a0810151600483015560c0810151600583015560e08101516006830155600782016001600160a01b03610100830151167fffffffffffffffffffffffff000000000000000000000000000000000000000082541617905561187e610120820151600884016129aa565b61189e6101408201511515600984019060ff801983541691151516179055565b600a82016101608201519060208251926118b88484612b19565b01905f5260205f205f915b8383106119ca5787876118df88600b6101808a015191016129aa565b6118ea6064356127cd565b8054906801000000000000000091828110156119b65761190f916001820181556126d4565b6119a3578261191d916129aa565b600654908110156119b657806001611938920160065561268b565b9190916119a3576119768161197161198b937f3719f491e5bb0f6f5a25da2d4dd31fdaa1774f54f9eb58941c9156680fbe8e0c956129aa565b612b65565b92604051918291604083526040830190612492565b61199a602083016064356124b7565b0390a260015f55005b634e487b7160e01b5f525f60045260245ffd5b634e487b7160e01b5f52604160045260245ffd5b60016020826119db839451866129aa565b019201920191906118c3565b634e487b7160e01b5f52602160045260245ffd5b606460405162461bcd60e51b815260206004820152601b60248201527f4665617475726520666c616720616c72656164792065786973747300000000006044820152fd5b506115ac6001600160a01b0360015416331490506115a3565b346104ec576020806003193601126104ec5760043567ffffffffffffffff81116104ec57610d5a611af083611a9360e094369060040161241b565b604051611a9f816123c0565b5f81525f838201525f6040820152606095815f88809401528260808201528260a08201528260c08201520152604051906103516001600160a01b03600783519486818187019761028d81838b612471565b810160048152030190209160405192611b08846123c0565b80549060ff821615158552611bf78686019360ff8460081c161515855260ff604088019460101c16151584526001830154818801908152611b4b60028501612d52565b9160808901928352611b5f60038601612d52565b9560a08a01968752611b866005611b7860048901612d52565b9760c08d0198895201612d52565b9760e08b019889526040519b8c9b818d52511515908c015251151560408b0152511515908901525160808801525191611be6611bd0610100948560a08b01526101208a01906124d1565b945194601f1995868a83030160c08b01526124d1565b9051848883030160e08901526124d1565b92519185840301908501526124d1565b346104ec5760203660031901126104ec5760043567ffffffffffffffff81116104ec57611c3e60206113208193369060040161241b565b8101600981520301902054604051908152f35b346104ec575f3660031901126104ec57600654611c6d8161259a565b611c7a60405191826123f9565b81815260209182820160065f527ff652222313e28459528d920b65115c16c04f3efc82aaedc97be59f3f377c0d3f935f915b838310611cc15760405180610d5a878261252c565b6001828192604051611cde81611cd7818d612721565b03826123f9565b815201960192019194611cac565b346104ec5760203660031901126104ec5760043567ffffffffffffffff81116104ec57611d586020611d24604093369060040161241b565b835190611d486001600160a01b03600783519486818187019761028d81838b612471565b8451938492839251928391612471565b810160098152030190205481519081525f6020820152f35b346104ec5760203660031901126104ec5760043567ffffffffffffffff81116104ec57611e286020611da9610d5a93369060040161241b565b6060610180604051611dba816123a3565b82815282858201528260408201525f838201525f60808201525f60a08201525f60c08201525f60e08201525f610100820152826101208201525f610140820152826101608201520152604051906103516001600160a01b03600783519486818187019761028d81838b612471565b81016003815203019020600b611f2d60405192611e44846123a3565b604051611e5581611cd78185612721565b8452604051611e6b81611cd78160018601612721565b6020850152604051611e8481611cd78160028601612721565b6040850152611eaf60ff6003830154611ea282821660608901612937565b60081c1660808601612943565b600481015460a0850152600581015460c0850152600681015460e08501526001600160a01b03600782015416610100850152604051611ef581611cd78160088601612721565b61012085015260ff6009820154161515610140850152611f17600a8201612d52565b610160850152611cd76040518094819301612721565b61018082015260405191829160208352610180612024612000611f90611f7a611f6486516101a060208b01526101c08a0190612492565b6020870151898203601f190160408b0152612492565b6040860151888203601f190160608a0152612492565b611fa2606086015160808901906124b7565b611fb4608086015160a08901906124c4565b60a085015160c088015260c085015160e088015260e08501516101008801526001600160a01b0361010086015116610120880152610120850151601f1988830301610140890152612492565b6101408401511515610160870152610160840151601f1987830301848801526124d1565b910151838203601f19016101a0850152612492565b346104ec576020806003193601126104ec5760043567ffffffffffffffff81116104ec5761206b90369060040161241b565b335f526002825260ff60405f205416801561238a575b61208a906127e4565b6040518151916120c56001600160a01b036007868401956120ac818789612471565b8501948781600397888152030190200154161515612bd8565b6120cd612b85565b6120d86102b461287a565b60ff82604051868185516120ed81838b612471565b810184815203019020015416925f5b612105856127cd565b5481101561238057611cd761213261212583612120896127cd565b6126d4565b5060405192838092612721565b868151910120835183201461214f5761214a90612c23565b6120fc565b9091929361215c816127cd565b90612166816127cd565b545f1993848201939184116123525761219361218861219995610f5a946126d4565b5091612120856127cd565b90612d0a565b908154801561233e5701906121b76121b183836126d4565b90612ad3565b555b5f5b600680548083101561236657611cd76121d66121258561268b565b87815191012085518520146121f55750506121f090612c23565b6121bb565b5f95929193949519918282019182116123525761219361221761221e9361268b565b509161268b565b8254801561233e576123149661197195600595612302946122db9401906122476121b18361268b565b555b6122ca600b60405184818c51612260818389612471565b81018a81520301902061227281612a8b565b61227e60018201612a8b565b61228a60028201612a8b565b5f888201555f60048201555f898201555f60068201555f60078201556122b260088201612a8b565b5f60098201556122c4600a8201612ae2565b01612a8b565b604051809381928a51928391612471565b81016004815203019020915f83555f60018401556122fb60028401612ae2565b8201612ae2565b61230e60048201612ae2565b01612ae2565b7f9a7f0558b401472fc94648f0ab983f71e7be898839e74a0f072f5eb0ba0ae7105f80a260015f55005b634e487b7160e01b5f52603160045260245ffd5b634e487b7160e01b5f52601160045260245ffd5b50505061197191926123026122db61231496600594612249565b50909192506121b9565b5061208a6001600160a01b036001541633149050612081565b6101a0810190811067ffffffffffffffff8211176119b657604052565b610100810190811067ffffffffffffffff8211176119b657604052565b6040810190811067ffffffffffffffff8211176119b657604052565b90601f8019910116810190811067ffffffffffffffff8211176119b657604052565b81601f820112156104ec5780359067ffffffffffffffff82116119b65760405192612450601f8401601f1916602001856123f9565b828452602083830101116104ec57815f926020809301838601378301015290565b5f5b8381106124825750505f910152565b8181015183820152602001612473565b906020916124ab81518092818552858086019101612471565b601f01601f1916010190565b9060088210156119e75752565b9060048210156119e75752565b908082519081815260208091019281808460051b8301019501935f915b8483106124fe5750505050505090565b909192939495848061251c600193601f198682030187528a51612492565b98019301930191949392906124ee565b602080820190808352835180925260408301928160408460051b8301019501935f915b84831061255f5750505050505090565b909192939495848061257d600193603f198682030187528a51612492565b980193019301919493929061254f565b359081151582036104ec57565b67ffffffffffffffff81116119b65760051b60200190565b9080601f830112156104ec578135906125ca8261259a565b926125d860405194856123f9565b828452602092838086019160051b830101928084116104ec57848301915b8483106126065750505050505090565b823567ffffffffffffffff81116104ec5786916126288484809489010161241b565b8152019201916125f6565b600435906001600160a01b03821682036104ec57565b60406003198201126104ec576004359067ffffffffffffffff82116104ec576126749160040161241b565b906024356001600160a01b03811681036104ec5790565b6006548110156126c05760065f527ff652222313e28459528d920b65115c16c04f3efc82aaedc97be59f3f377c0d3f01905f90565b634e487b7160e01b5f52603260045260245ffd5b80548210156126c0575f5260205f2001905f90565b90600182811c92168015612717575b602083101461270357565b634e487b7160e01b5f52602260045260245ffd5b91607f16916126f8565b905f9291805491612731836126e9565b9182825260019384811690815f1461278f5750600114612752575b50505050565b90919394505f52602092835f2092845f945b83861061277b57505050500101905f80808061274c565b805485870183015294019385908201612764565b9294505050602093945060ff191683830152151560051b0101905f80808061274c565b906119a3576127ca611cd79160405192838092612721565b90565b60088110156119e7575f52600560205260405f2090565b156127eb57565b606460405162461bcd60e51b815260206004820152601760248201527f4e6f7420617574686f72697a656420746f2077726974650000000000000000006044820152fd5b1561283657565b606460405162461bcd60e51b815260206004820152601860248201527f496e76616c696420666561747572652063617465676f727900000000000000006044820152fd5b60405190612887826123dd565b600982527f66656174757265496400000000000000000000000000000000000000000000006020830152565b604051906128c0826123dd565b601182527f726f6c6c6f757450657263656e746167650000000000000000000000000000006020830152565b156128f357565b606460405162461bcd60e51b815260206004820152601660248201527f496e76616c6964206665617475726520737461747573000000000000000000006044820152fd5b60088210156119e75752565b60048210156119e75752565b81811061295a575050565b5f815560010161294f565b9190601f811161297457505050565b61299e925f5260205f20906020601f840160051c830193106129a0575b601f0160051c019061294f565b565b9091508190612991565b919091825167ffffffffffffffff81116119b6576129d2816129cc84546126e9565b84612965565b602080601f8311600114612a0c5750819293945f92612a01575b50508160011b915f199060031b1c1916179055565b015190505f806129ec565b90601f19831695845f52825f20925f905b888210612a5457505083600195969710612a3c575b505050811b019055565b01515f1960f88460031b161c191690555f8080612a32565b80600185968294968601518155019501930190612a1d565b9060048110156119e75761ff0082549160081b169061ff001916179055565b612a9581546126e9565b9081612a9f575050565b81601f5f9311600114612ab0575055565b908083918252612acf601f60208420940160051c84016001850161294f565b5555565b906119a357612a9581546126e9565b8054905f815581612af1575050565b5f5260205f20908101905b818110612b07575050565b80612b13600192612a8b565b01612afc565b906801000000000000000081116119b657815491818155828210612b3c57505050565b5f5260205f2091820191015b818110612b53575050565b80612b5f600192612a8b565b01612b48565b612b7d90602060405192828480945193849201612471565b810103902090565b60025f5414612b945760025f55565b606460405162461bcd60e51b815260206004820152601f60248201527f5265656e7472616e637947756172643a207265656e7472616e742063616c6c006044820152fd5b15612bdf57565b606460405162461bcd60e51b815260206004820152601660248201527f4665617475726520666c6167206e6f7420666f756e64000000000000000000006044820152fd5b5f1981146123525760010190565b90808214612d0657612c4381546126e9565b9067ffffffffffffffff82116119b6578190612c6982612c6386546126e9565b86612965565b5f90601f8311600114612c9c575f92612c915750508160011b915f199060031b1c1916179055565b015490505f806129ec565b81526020808220858352818320935090601f1985169083905b828210612ced575050908460019594939210612cd557505050811b019055565b01545f1960f88460031b161c191690555f8080612a32565b8495819295850154815560018091019601940190612cb5565b5050565b91906119a35761299e91612c31565b60405190612d26826123dd565b600482527f75736572000000000000000000000000000000000000000000000000000000006020830152565b908154612d5e8161259a565b92604093612d6e855191826123f9565b82815280946020809201925f52815f20905f935b858510612d9157505050505050565b60018481928451612da681611cd7818a612721565b815201930194019391612d82565b80518210156126c05760209160051b010190565b91612dda612dd461287a565b8461381f565b612deb612de5612d19565b836137a5565b604090815192845194602094858181840198612e0881838c612471565b8101600381520301902094845196612e1f886123a3565b8551612e2f81611cd7818b612721565b8852855195600196612e4781611cd7818b8d01612721565b838a01528051612e5e81611cd78160028d01612721565b818a015260038801549860ff96612e7a888c1660608401612937565b612e8d88608084019c60081c168c612943565b6004998a808201549960a085019a8b52600583015460c0860152600b61018060068501549660e08101978852612f226001600160a01b0396876007820154166101008401528a51612ee581611cd78160088601612721565b610120840152856009820154161515610140840152612f06600a8201612d52565b610160840152612f1b8b518096819301612721565b03846123f9565b0152855189518f91908a908290612f3a81838e612471565b81018681520301902095875192612f50846123c0565b875481811615158552818160081c1615158c86015260101c161515888401528d8701546060840152612f8460028801612d52565b9360808401948552612f9860038901612d52565b9260a0850193845260e0612fc06005612fb2858d01612d52565b9b60c089019c8d5201612d52565b9501948552519081101561328f57156131f957518015159081613285575b5061327257908c809493928c5f925b613216575b50505084516131a4575b5090915f905b613147575b50505080516130e2575b50508851888110156130cf5760031461307957505050505050825182811015613066571491821561304157505090565b51915080821015613053575060021490565b602190634e487b7160e01b5f525260245ffd5b602183634e487b7160e01b5f525260245ffd5b603493959850606497506130c59496506130b590519586938401976bffffffffffffffffffffffff199060601b16885251809285850190612471565b81010360148101845201826123f9565b5190200690511190565b602189634e487b7160e01b5f525260245ffd5b90848201905f8a5b6130f6575b5050613011565b81518051821015613141578161310b91612db4565b51878151910120845184201461313157906131288b949392612c23565b909192936130ea565b5050505050505050505091505090565b506130ef565b8151805182101561319e578161315c91612db4565b5188815191012061316e848c166134b2565b8981519101201461318d57906131858c9392612c23565b909192613002565b505050505050505050505091505090565b50613007565b835f918a8701915b6131b8575b5050612ffc565b9091929394815190815185101561320d5750836131d491612db4565b518a815191012086518320146131f9576131ee8e93612c23565b9190839594936131ac565b505050505050505050505050505050505f90565b959493506131b1565b90919293949582519081518510156132665750866132378561324593612db4565b518d815191012092166134b2565b8b8151910120146131f95761325a8e92612c23565b908c8396959493612fed565b96959493505080612ff2565b5050505050505050505050505050505f90565b905042115f612fde565b5060218f634e487b7160e01b5f525260245ffd5b6132ae6102b461287a565b6132b9612de5612d19565b60409081518151916020918281818401956132d5818389612471565b8101600481520301902084516132ea816123c0565b81549060ff82161515815260ff8260081c1615158582015260ff8782019260101c161515825260e061335d60056001860154956060850196875261333060028201612d52565b608086015261334160038201612d52565b60a086015261335260048201612d52565b60c086015201612d52565b910152511561347157805115159081613438575b506134315761340d827fbdc7afbbef2174feb0bcffc959aaa75c1ae501824c71db13783d9bf76718e4f7946001600160a01b038751838187516133b5818388612471565b81016008815203019020981697885f528252865f206133d48154612c23565b90558651828186516133e7818387612471565b810160098152030190206133fb8154612c23565b90558651809381928651928391612471565b81016008815203019020855f528252613429845f205491612b65565b9351908152a3565b5050505050565b905084518381845161344b81838a612471565b810160088152030190206001600160a01b0387165f528352845f2054905111155f613371565b505050505050565b60405190613486826123dd565b600682527f77726974657200000000000000000000000000000000000000000000000000006020830152565b801561373b5760019081811461370257600281146136c957600381146136905760048114613657576005811461361e57600681146135e557600781146135ac57600881146135735760091461353b575060405161350e816123dd565b600381527f31302b0000000000000000000000000000000000000000000000000000000000602082015290565b60405190613548826123dd565b81527f3900000000000000000000000000000000000000000000000000000000000000602082015290565b5060405190613581826123dd565b81527f3800000000000000000000000000000000000000000000000000000000000000602082015290565b50604051906135ba826123dd565b81527f3700000000000000000000000000000000000000000000000000000000000000602082015290565b50604051906135f3826123dd565b81527f3600000000000000000000000000000000000000000000000000000000000000602082015290565b506040519061362c826123dd565b81527f3500000000000000000000000000000000000000000000000000000000000000602082015290565b5060405190613665826123dd565b81527f3400000000000000000000000000000000000000000000000000000000000000602082015290565b506040519061369e826123dd565b81527f3300000000000000000000000000000000000000000000000000000000000000602082015290565b50604051906136d7826123dd565b81527f3200000000000000000000000000000000000000000000000000000000000000602082015290565b5060405190613710826123dd565b81527f3100000000000000000000000000000000000000000000000000000000000000602082015290565b50604051613748816123dd565b600181527f3000000000000000000000000000000000000000000000000000000000000000602082015290565b1561377d5750565b6137a19060405191829162461bcd60e51b8352602060048401526024830190612492565b0390fd5b906001600160a01b0361299e926138176036604051809567024b73b30b634b2160c51b60208301526137e1815180926020602886019101612471565b81017f3a207a65726f206164647265737300000000000000000000000000000000000060288201520360168101865201846123f9565b161515613775565b90602061389d603961299e9461010081511515916138a260405167024b73b30b634b2160c51b94858983015261389d6036838c61386781519d8e92019d8e6028850190612471565b81017f3a20656d70747920737472696e6700000000000000000000000000000000000060288201520360168101855201836123f9565b613775565b511115936138c160405196879360208501525180926028850190612471565b81017f3a20737472696e6720746f6f206c6f6e6700000000000000000000000000000060288201520360198101855201836123f9565b90606461299e926139bb603760405167024b73b30b634b2160c51b9081602082015261396a875191848160208b0194613934816028840188612471565b81017f3a2062656c6f77206d696e696d756d000000000000000000000000000000000060288201520360178101835201906123f9565b61398560405197889360208501525180926028850190612471565b81017f3a2061626f7665206d6178696d756d000000000000000000000000000000000060288201520360178101865201846123f9565b111561377556fea2646970667358221220bc0620f4af1c5ca5ae714397eaa90e264dd3179a61fa407f6f749418539bed5b64736f6c63430008140033",
  "linkReferences": {},
  "deployedLinkReferences": {}
}