{
  "_format": "hh-sol-artifact-1",
  "contractName": "TenantConfigStorage",
  "sourceName": "contracts/storage/TenantConfigStorage.sol",
  "abi": [
    {
      "inputs": [],
      "stateMutability": "nonpayable",
      "type": "constructor"
    },
    {
      "anonymous": false,
      "inputs": [
        {
          "indexed": true,
          "internalType": "address",
          "name": "writer",
          "type": "address"
        },
        {
          "indexed": false,
          "internalType": "bool",
          "name": "authorized",
          "type": "bool"
        }
      ],
      "name": "AuthorizedWriterUpdated",
      "type": "event"
    },
    {
      "anonymous": false,
      "inputs": [
        {
          "indexed": true,
          "internalType": "string",
          "name": "tenantId",
          "type": "string"
        },
        {
          "indexed": false,
          "internalType": "address",
          "name": "oldAdmin",
          "type": "address"
        },
        {
          "indexed": false,
          "internalType": "address",
          "name": "newAdmin",
          "type": "address"
        }
      ],
      "name": "TenantAdminChanged",
      "type": "event"
    },
    {
      "anonymous": false,
      "inputs": [
        {
          "indexed": true,
          "internalType": "string",
          "name": "tenantId",
          "type": "string"
        },
        {
          "indexed": false,
          "internalType": "string",
          "name": "field",
          "type": "string"
        },
        {
          "indexed": false,
          "internalType": "string",
          "name": "value",
          "type": "string"
        }
      ],
      "name": "TenantConfigUpdated",
      "type": "event"
    },
    {
      "anonymous": false,
      "inputs": [
        {
          "indexed": true,
          "internalType": "string",
          "name": "tenantId",
          "type": "string"
        }
      ],
      "name": "TenantDeactivated",
      "type": "event"
    },
    {
      "anonymous": false,
      "inputs": [
        {
          "indexed": true,
          "internalType": "string",
          "name": "tenantId",
          "type": "string"
        },
        {
          "indexed": false,
          "internalType": "string",
          "name": "field",
          "type": "string"
        },
        {
          "indexed": false,
          "internalType": "uint256",
          "name": "value",
          "type": "uint256"
        }
      ],
      "name": "TenantLimitsUpdated",
      "type": "event"
    },
    {
      "anonymous": false,
      "inputs": [
        {
          "indexed": true,
          "internalType": "string",
          "name": "tenantId",
          "type": "string"
        }
      ],
      "name": "TenantReactivated",
      "type": "event"
    },
    {
      "anonymous": false,
      "inputs": [
        {
          "indexed": true,
          "internalType": "string",
          "name": "tenantId",
          "type": "string"
        },
        {
          "indexed": false,
          "internalType": "string",
          "name": "name",
          "type": "string"
        },
        {
          "indexed": false,
          "internalType": "address",
          "name": "admin",
          "type": "address"
        },
        {
          "indexed": false,
          "internalType": "uint256",
          "name": "maxRiskScore",
          "type": "uint256"
        }
      ],
      "name": "TenantRegistered",
      "type": "event"
    },
    {
      "inputs": [],
      "name": "CONTRACT_NAME",
      "outputs": [
        {
          "internalType": "string",
          "name": "",
          "type": "string"
        }
      ],
      "stateMutability": "view",
      "type": "function"
    },
    {
      "inputs": [],
      "name": "VERSION",
      "outputs": [
        {
          "internalType": "uint256",
          "name": "",
          "type": "uint256"
        }
      ],
      "stateMutability": "view",
      "type": "function"
    },
    {
      "inputs": [
        {
          "internalType": "uint256",
          "name": "",
          "type": "uint256"
        }
      ],
      "name": "activeTenants",
      "outputs": [
        {
          "internalType": "string",
          "name": "",
          "type": "string"
        }
      ],
      "stateMutability": "view",
      "type": "function"
    },
    {
      "inputs": [
        {
          "internalType": "address",
          "name": "",
          "type": "address"
        },
        {
          "internalType": "uint256",
          "name": "",
          "type": "uint256"
        }
      ],
      "name": "adminTenants",
      "outputs": [
        {
          "internalType": "string",
          "name": "",
          "type": "string"
        }
      ],
      "stateMutability": "view",
      "type": "function"
    },
    {
      "inputs": [
        {
          "internalType": "uint256",
          "name": "",
          "type": "uint256"
        }
      ],
      "name": "allTenants",
      "outputs": [
        {
          "internalType": "string",
          "name": "",
          "type": "string"
        }
      ],
      "stateMutability": "view",
      "type": "function"
    },
    {
      "inputs": [
        {
          "internalType": "address",
          "name": "",
          "type": "address"
        }
      ],
      "name": "authorizedWriters",
      "outputs": [
        {
          "internalType": "bool",
          "name": "",
          "type": "bool"
        }
      ],
      "stateMutability": "view",
      "type": "function"
    },
    {
      "inputs": [
        {
          "internalType": "string",
          "name": "tenantId",
          "type": "string"
        }
      ],
      "name": "deactivateTenant",
      "outputs": [],
      "stateMutability": "nonpayable",
      "type": "function"
    },
    {
      "inputs": [],
      "name": "getActiveTenantCount",
      "outputs": [
        {
          "internalType": "uint256",
          "name": "",
          "type": "uint256"
        }
      ],
      "stateMutability": "view",
      "type": "function"
    },
    {
      "inputs": [],
      "name": "getActiveTenants",
      "outputs": [
        {
          "internalType": "string[]",
          "name": "",
          "type": "string[]"
        }
      ],
      "stateMutability": "view",
      "type": "function"
    },
    {
      "inputs": [
        {
          "internalType": "address",
          "name": "admin",
          "type": "address"
        }
      ],
      "name": "getAdminTenants",
      "outputs": [
        {
          "internalType": "string[]",
          "name": "",
          "type": "string[]"
        }
      ],
      "stateMutability": "view",
      "type": "function"
    },
    {
      "inputs": [],
      "name": "getAllTenants",
      "outputs": [
        {
          "internalType": "string[]",
          "name": "",
          "type": "string[]"
        }
      ],
      "stateMutability": "view",
      "type": "function"
    },
    {
      "inputs": [
        {
          "internalType": "string",
          "name": "tenantId",
          "type": "string"
        }
      ],
      "name": "getTenantConfig",
      "outputs": [
        {
          "internalType": "string",
          "name": "name",
          "type": "string"
        },
        {
          "internalType": "string[]",
          "name": "requiredCredentials",
          "type": "string[]"
        },
        {
          "internalType": "uint256",
          "name": "maxRiskScore",
          "type": "uint256"
        },
        {
          "internalType": "string[]",
          "name": "allowedJurisdictions",
          "type": "string[]"
        },
        {
          "internalType": "bool",
          "name": "isActive",
          "type": "bool"
        },
        {
          "internalType": "address",
          "name": "admin",
          "type": "address"
        }
      ],
      "stateMutability": "view",
      "type": "function"
    },
    {
      "inputs": [],
      "name": "getTenantCount",
      "outputs": [
        {
          "internalType": "uint256",
          "name": "",
          "type": "uint256"
        }
      ],
      "stateMutability": "view",
      "type": "function"
    },
    {
      "inputs": [
        {
          "internalType": "string",
          "name": "tenantId",
          "type": "string"
        }
      ],
      "name": "getTenantLimits",
      "outputs": [
        {
          "components": [
            {
              "internalType": "uint256",
              "name": "maxUsers",
              "type": "uint256"
            },
            {
              "internalType": "uint256",
              "name": "maxVerificationsPerDay",
              "type": "uint256"
            },
            {
              "internalType": "uint256",
              "name": "maxVerificationsPerMonth",
              "type": "uint256"
            },
            {
              "internalType": "uint256",
              "name": "maxStorageGB",
              "type": "uint256"
            }
          ],
          "internalType": "struct TenantConfigStorage.TenantLimits",
          "name": "",
          "type": "tuple"
        }
      ],
      "stateMutability": "view",
      "type": "function"
    },
    {
      "inputs": [
        {
          "internalType": "string",
          "name": "tenantId",
          "type": "string"
        },
        {
          "internalType": "string",
          "name": "key",
          "type": "string"
        }
      ],
      "name": "getTenantSetting",
      "outputs": [
        {
          "internalType": "string",
          "name": "",
          "type": "string"
        }
      ],
      "stateMutability": "view",
      "type": "function"
    },
    {
      "inputs": [
        {
          "internalType": "string",
          "name": "tenantId",
          "type": "string"
        }
      ],
      "name": "getTenantStats",
      "outputs": [
        {
          "components": [
            {
              "internalType": "uint256",
              "name": "totalUsers",
              "type": "uint256"
            },
            {
              "internalType": "uint256",
              "name": "activeUsers",
              "type": "uint256"
            },
            {
              "internalType": "uint256",
              "name": "totalVerifications",
              "type": "uint256"
            },
            {
              "internalType": "uint256",
              "name": "lastActivity",
              "type": "uint256"
            }
          ],
          "internalType": "struct TenantConfigStorage.TenantStats",
          "name": "",
          "type": "tuple"
        }
      ],
      "stateMutability": "view",
      "type": "function"
    },
    {
      "inputs": [
        {
          "internalType": "string",
          "name": "tenantId",
          "type": "string"
        }
      ],
      "name": "incrementVerificationCount",
      "outputs": [],
      "stateMutability": "nonpayable",
      "type": "function"
    },
    {
      "inputs": [
        {
          "internalType": "address",
          "name": "writer",
          "type": "address"
        }
      ],
      "name": "isAuthorizedWriter",
      "outputs": [
        {
          "internalType": "bool",
          "name": "",
          "type": "bool"
        }
      ],
      "stateMutability": "view",
      "type": "function"
    },
    {
      "inputs": [
        {
          "internalType": "string",
          "name": "tenantId",
          "type": "string"
        }
      ],
      "name": "isTenantActive",
      "outputs": [
        {
          "internalType": "bool",
          "name": "",
          "type": "bool"
        }
      ],
      "stateMutability": "view",
      "type": "function"
    },
    {
      "inputs": [
        {
          "internalType": "string",
          "name": "tenantId",
          "type": "string"
        }
      ],
      "name": "isTenantExists",
      "outputs": [
        {
          "internalType": "bool",
          "name": "",
          "type": "bool"
        }
      ],
      "stateMutability": "view",
      "type": "function"
    },
    {
      "inputs": [],
      "name": "owner",
      "outputs": [
        {
          "internalType": "address",
          "name": "",
          "type": "address"
        }
      ],
      "stateMutability": "view",
      "type": "function"
    },
    {
      "inputs": [
        {
          "internalType": "string",
          "name": "tenantId",
          "type": "string"
        }
      ],
      "name": "reactivateTenant",
      "outputs": [],
      "stateMutability": "nonpayable",
      "type": "function"
    },
    {
      "inputs": [
        {
          "internalType": "string",
          "name": "tenantId",
          "type": "string"
        },
        {
          "internalType": "string",
          "name": "name",
          "type": "string"
        },
        {
          "internalType": "string[]",
          "name": "requiredCredentials",
          "type": "string[]"
        },
        {
          "internalType": "uint256",
          "name": "maxRiskScore",
          "type": "uint256"
        },
        {
          "internalType": "string[]",
          "name": "allowedJurisdictions",
          "type": "string[]"
        },
        {
          "internalType": "address",
          "name": "admin",
          "type": "address"
        },
        {
          "internalType": "string[]",
          "name": "customFields",
          "type": "string[]"
        }
      ],
      "name": "registerTenant",
      "outputs": [],
      "stateMutability": "nonpayable",
      "type": "function"
    },
    {
      "inputs": [
        {
          "internalType": "address",
          "name": "writer",
          "type": "address"
        },
        {
          "internalType": "bool",
          "name": "authorized",
          "type": "bool"
        }
      ],
      "name": "setAuthorizedWriter",
      "outputs": [],
      "stateMutability": "nonpayable",
      "type": "function"
    },
    {
      "inputs": [
        {
          "internalType": "string",
          "name": "",
          "type": "string"
        }
      ],
      "name": "tenantConfigs",
      "outputs": [
        {
          "internalType": "string",
          "name": "tenantId",
          "type": "string"
        },
        {
          "internalType": "string",
          "name": "name",
          "type": "string"
        },
        {
          "internalType": "uint256",
          "name": "maxRiskScore",
          "type": "uint256"
        },
        {
          "internalType": "bool",
          "name": "isActive",
          "type": "bool"
        },
        {
          "internalType": "uint256",
          "name": "createdAt",
          "type": "uint256"
        },
        {
          "internalType": "address",
          "name": "admin",
          "type": "address"
        }
      ],
      "stateMutability": "view",
      "type": "function"
    },
    {
      "inputs": [
        {
          "internalType": "string",
          "name": "",
          "type": "string"
        }
      ],
      "name": "tenantExists",
      "outputs": [
        {
          "internalType": "bool",
          "name": "",
          "type": "bool"
        }
      ],
      "stateMutability": "view",
      "type": "function"
    },
    {
      "inputs": [
        {
          "internalType": "string",
          "name": "",
          "type": "string"
        }
      ],
      "name": "tenantLimits",
      "outputs": [
        {
          "internalType": "uint256",
          "name": "maxUsers",
          "type": "uint256"
        },
        {
          "internalType": "uint256",
          "name": "maxVerificationsPerDay",
          "type": "uint256"
        },
        {
          "internalType": "uint256",
          "name": "maxVerificationsPerMonth",
          "type": "uint256"
        },
        {
          "internalType": "uint256",
          "name": "maxStorageGB",
          "type": "uint256"
        }
      ],
      "stateMutability": "view",
      "type": "function"
    },
    {
      "inputs": [
        {
          "internalType": "string",
          "name": "",
          "type": "string"
        }
      ],
      "name": "tenantStats",
      "outputs": [
        {
          "internalType": "uint256",
          "name": "totalUsers",
          "type": "uint256"
        },
        {
          "internalType": "uint256",
          "name": "activeUsers",
          "type": "uint256"
        },
        {
          "internalType": "uint256",
          "name": "totalVerifications",
          "type": "uint256"
        },
        {
          "internalType": "uint256",
          "name": "lastActivity",
          "type": "uint256"
        }
      ],
      "stateMutability": "view",
      "type": "function"
    },
    {
      "inputs": [
        {
          "internalType": "string",
          "name": "tenantId",
          "type": "string"
        },
        {
          "internalType": "address",
          "name": "newAdmin",
          "type": "address"
        }
      ],
      "name": "updateTenantAdmin",
      "outputs": [],
      "stateMutability": "nonpayable",
      "type": "function"
    },
    {
      "inputs": [
        {
          "internalType": "string",
          "name": "tenantId",
          "type": "string"
        },
        {
          "internalType": "string",
          "name": "name",
          "type": "string"
        },
        {
          "internalType": "uint256",
          "name": "maxRiskScore",
          "type": "uint256"
        },
        {
          "internalType": "string[]",
          "name": "allowedJurisdictions",
          "type": "string[]"
        }
      ],
      "name": "updateTenantConfig",
      "outputs": [],
      "stateMutability": "nonpayable",
      "type": "function"
    },
    {
      "inputs": [
        {
          "internalType": "string",
          "name": "tenantId",
          "type": "string"
        },
        {
          "internalType": "uint256",
          "name": "maxUsers",
          "type": "uint256"
        },
        {
          "internalType": "uint256",
          "name": "maxVerificationsPerDay",
          "type": "uint256"
        },
        {
          "internalType": "uint256",
          "name": "maxVerificationsPerMonth",
          "type": "uint256"
        },
        {
          "internalType": "uint256",
          "name": "maxStorageGB",
          "type": "uint256"
        }
      ],
      "name": "updateTenantLimits",
      "outputs": [],
      "stateMutability": "nonpayable",
      "type": "function"
    },
    {
      "inputs": [
        {
          "internalType": "string",
          "name": "tenantId",
          "type": "string"
        },
        {
          "internalType": "string",
          "name": "key",
          "type": "string"
        },
        {
          "internalType": "string",
          "name": "value",
          "type": "string"
        }
      ],
      "name": "updateTenantSetting",
      "outputs": [],
      "stateMutability": "nonpayable",
      "type": "function"
    },
    {
      "inputs": [
        {
          "internalType": "string",
          "name": "tenantId",
          "type": "string"
        },
        {
          "internalType": "uint256",
          "name": "totalUsers",
          "type": "uint256"
        },
        {
          "internalType": "uint256",
          "name": "activeUsers",
          "type": "uint256"
        },
        {
          "internalType": "uint256",
          "name": "totalVerifications",
          "type": "uint256"
        }
      ],
      "name": "updateTenantStats",
      "outputs": [],
      "stateMutability": "nonpayable",
      "type": "function"
    }
  ],
  "bytecode": "0x608080604052346100425760015f553360018060a01b03196009541617600955335f52600860205260405f20600160ff1982541617905561273c90816100478239f35b5f80fdfe60806040526004361015610011575f80fd5b5f3560e01c80630218c7b014611bd15780630f1e11f414611d9f5780631146e07914611d455780632dcdb23f14611c205780633518dc3514611bd15780633d5e82da14611b3557806342abec481461197a578063526241a81461193d57806352c40340146117ad578063542a086c14611692578063578ae0a0146111295780635dc2a03f146110de578063614d08f81461106e578063618bff8b146110245780636eb954d614610ff1578063711e608614610f1f5780638d55722614610e825780638da5cb5b14610e5c5780639149cd4914610e3f57806395ac56e914610da35780639854ceef14610d4c5780639f5298f814610cbc578063a93a4f0314610bcc578063aa5987c014610a7e578063ab1dd0c4146109e3578063ad6e823b1461098d578063b4d7ead61461087a578063c5b0b975146107ee578063cb51b42514610567578063d2fc78911461044c578063e1bb4f9f146101c0578063e45be34f146101a35763ffa1ad7414610184575f80fd5b3461019f575f36600319011261019f57602060405160018152f35b5f80fd5b3461019f575f36600319011261019f576020600754604051908152f35b3461019f57608036600319011261019f5767ffffffffffffffff60043581811161019f576101f2903690600401611e56565b60243582811161019f5761020a903690600401611e56565b6044359260643590811161019f576102269036906004016120e2565b335f5260046102fb602080966008825260ff60405f2054168015610433575b61024e906121b6565b61025a8751151561224c565b6040519061028860ff8951938581818d019661027781838a611eac565b81016005815203019020541661250d565b61029487511515612297565b6102a160648211156122e2565b6102cb6040519789516102b5818b87611eac565b8901898660019b838d8095520301902001612388565b600360405184818b516102df818389611eac565b81018b8152030190200155604051809381928951928391611eac565b81018681520301902001815191600160401b831161041f57859082548484558085106103ea575b5001905f52845f20855f925b8484106103cd57507f0c28a3c338632147673a0b4934d02d377ff73aef84a9be78e05ae0e368a8364060c0610362886124ed565b9260806040519160408352600660408401527f636f6e66696700000000000000000000000000000000000000000000000000006060840152820152600760808201527f757064617465640000000000000000000000000000000000000000000000000060a0820152a2005b8591816103dc84935186612388565b01920192019190869061032e565b835f528585845f2092830192015b828110610406575050610322565b90919293506104148161244a565b0190858893926103f8565b634e487b7160e01b5f52604160045260245ffd5b5061024e6001600160a01b036009541633149050610245565b3461019f57602036600319011261019f5760043567ffffffffffffffff811161019f576104bf6020610485610535933690600401611e56565b6104918151151561224c565b604051906104ae60ff82519385818186019661027781838a611eac565b604051938492839251928391611eac565b81016001815203019020600381015460ff600583015416906105566001600160a01b036007850154169160405194610505866104fe8160018501611f75565b0387611e34565b610543610520600461051960028501612566565b9301612566565b9160405198899860c08a5260c08a0190612034565b9088820360208a0152612059565b9160408701528582036060870152612059565b911515608084015260a08301520390f35b3461019f57604036600319011261019f5760043567ffffffffffffffff811161019f57610598903690600401611e56565b6001600160a01b03602480358281169081900361019f57335f5260209384936008855260ff60405f20541680156107e1575b6105d3906121b6565b6105df8251151561224c565b604051906105fc60ff84519388818188019661027781838a611eac565b610607841515612201565b604051906007845161061a818587611eac565b83019288816001958681520301902001541694855f526002875260405f2090825f905b6106cf575b887f62d5bc026dd250a74c1719b0bfea2920d52b0129db24a295aaa84e29147b272460408a8a6106c38b6007610697888e8e875f5260028352610687868b5f206124d0565b8951809481938851928391611eac565b820190815203019020018373ffffffffffffffffffffffffffffffffffffffff198254161790556124ed565b948351928352820152a2005b8254808210156107db576106f66106fd6106e98487611f28565b5060405192838092611f75565b0382611e34565b8a81519101208751872014610721575090610719849392612558565b90919261063d565b92939495969798505f19928381019081116107c8579061074f6107476107559387611f28565b509186611f28565b906126f7565b82549081156107b6575088604097956106c3957f62d5bc026dd250a74c1719b0bfea2920d52b0129db24a295aaa84e29147b27249a98956007956106979501906107a86107a28383611f28565b90612492565b559496979850945097610642565b634e487b7160e01b5f5260316004525ffd5b82634e487b7160e01b5f5260116004525ffd5b50610642565b50600954811633146105ca565b3461019f57602036600319011261019f5760043567ffffffffffffffff811161019f5761084d61083e60206108296080943690600401611e56565b6108316125c8565b506104918151151561224c565b810160048152030190206125ec565b6108786040518092606080918051845260208101516020850152604081015160408501520151910152565bf35b3461019f57602036600319011261019f5760043567ffffffffffffffff811161019f576108ae61094a913690600401611e56565b335f52600860205260ff60405f2054168015610974575b6108ce906121b6565b6108da8151151561224c565b6005610926602060405161090d60ff8651928481818a01956108fd818389611eac565b810189815203019020541661250d565b610915612163565b604051809381928751928391611eac565b8101600181520301902001600160ff19825416179055610945816124a1565b6124ed565b7fb598f4313f51eca69647bde6740c92660610de8d5ab5a012184bafe51e8ecdfc5f80a260015f55005b506108ce6001600160a01b0360095416331490506108c5565b3461019f57602036600319011261019f5760206001600160a01b03806109b16120b4565b16805f526008835260ff60405f2054169182156109d5575b50506040519015158152f35b6009541614905082806109c9565b3461019f57602036600319011261019f5760043567ffffffffffffffff811161019f57610a166020913690600401611e56565b60405160ff825191848181860194610a2f818388611eac565b8101600581520301902054169182610a4d5750506040519015158152f35b60ff925083600592610a6a92604051938492839251928391611eac565b8101600181520301902001541682806109c9565b3461019f57606036600319011261019f5767ffffffffffffffff60043581811161019f57610ab0903690600401611e56565b9060243581811161019f57610ac9903690600401611e56565b9060443590811161019f577f0c28a3c338632147673a0b4934d02d377ff73aef84a9be78e05ae0e368a8364091610bae610b8b610b0d610ba0943690600401611e56565b95335f52600860205260ff60405f2054168015610bb3575b610b2e906121b6565b610b3a8151151561224c565b61094587610b866009610b756020604051610b6460ff8951928481818d0195610277818389611eac565b604051809381928a51928391611eac565b810160018152030190200187611ecd565b612388565b94604051938493604085526040850190612034565b908382036020850152612034565b0390a2005b50610b2e6001600160a01b036009541633149050610b25565b3461019f5760208060031936011261019f5760043567ffffffffffffffff811161019f57610c006003913690600401611e56565b335f526008835260ff60405f2054168015610ca3575b610c1f906121b6565b610c2b8151151561224c565b60405190610c4860ff82519386818186019661027781838a611eac565b610c50612163565b600260405185818451610c64818389611eac565b81018781520301902001610c788154612558565b9055610c8c60405192839251928391611eac565b81019282845281429403019020015560015f555f80f35b50610c1f6001600160a01b036009541633149050610c16565b3461019f57602036600319011261019f5760043567ffffffffffffffff811161019f576020610cf2610d05923690600401611e56565b8160405193828580945193849201611eac565b810160048152030190208054610d486001830154926003600282015491015490604051948594859094939260609260808301968352602083015260408201520152565b0390f35b3461019f57602036600319011261019f576001600160a01b03610d6d6120b4565b16610d79811515612201565b5f526002602052610d48610d8f60405f20612566565b604051918291602083526020830190612059565b3461019f575f36600319011261019f57600654610dbf816120ca565b90610dcd6040519283611e34565b80825260209081830160065f527ff652222313e28459528d920b65115c16c04f3efc82aaedc97be59f3f377c0d3f835f925b848410610e195760405182815280610d488185018a612059565b6001918291604051610e2f816106f68189611f75565b8152019201920191908490610dff565b3461019f575f36600319011261019f576020600654604051908152f35b3461019f575f36600319011261019f5760206001600160a01b0360095416604051908152f35b3461019f57604036600319011261019f5767ffffffffffffffff60043581811161019f57610eb4903690600401611e56565b9060243590811161019f57610f0b610eff610d48936009610eee6020610ee16106f6973690600401611e56565b936104918151151561224c565b810160018152030190200190611ecd565b60405192838092611f75565b604051918291602083526020830190612034565b3461019f57602036600319011261019f5760043567ffffffffffffffff811161019f57610f586020610cf2610fc8933690600401611e56565b8101600181520301902060405190610f7b82610f748184611f75565b0383611e34565b604051610f8f816106f68160018601611f75565b60038201549160ff600582015416610fd66001600160a01b0360076006850154940154169360405197889760c0895260c0890190612034565b908782036020890152612034565b93604086015215156060850152608084015260a08301520390f35b3461019f57602036600319011261019f5760043560075481101561019f57610f0b61101e610d4892611ef3565b90612006565b3461019f57602036600319011261019f5760043567ffffffffffffffff811161019f5761084d61105f60206108296080943690600401611e56565b810160038152030190206125ec565b3461019f575f36600319011261019f57604051604081019080821067ffffffffffffffff83111761041f57610d4891604052601381527f54656e616e74436f6e66696753746f72616765000000000000000000000000006020820152604051918291602083526020830190612034565b3461019f57604036600319011261019f576110f76120b4565b6001600160a01b0360243591165f52600260205260405f2090815481101561019f5761101e610f0b91610d4893611f28565b3461019f5760e036600319011261019f5767ffffffffffffffff60043581811161019f5761115b903690600401611e56565b60243582811161019f57611173903690600401611e56565b9060443583811161019f5761118c9036906004016120e2565b9160843584811161019f576111a59036906004016120e2565b60a435936001600160a01b0395868616860361019f5760c43590811161019f576111d39036906004016120e2565b91335f52600860205260ff60405f2054168015611685575b6111f4906121b6565b6112018787161515612201565b61120d8551151561224c565b61121984511515612297565b60ff60405160208188516112308183858d01611eac565b8101600581520301902054166116415761124e6064803511156122e2565b60405160208187516112638183858c01611eac565b81016001815203019020916112788684612388565b6112858560018501612388565b805190600160401b821161041f576002840154826002860155808310611610575b50602001600284015f5260205f205f915b8383106115f357505050506064356003830155805190600160401b821161041f5760048301548260048501558083106115c2575b50602001600483015f5260205f205f915b8383106115a5575050505060058101805460ff1916600117905542600682015560078101805473ffffffffffffffffffffffffffffffffffffffff1916868816179055815191600160401b831161041f576008820154836008840155808410611574575b5060206008910191015f5260205f205f915b83831061155757505050506113e560405161138c81611e18565b5f81525f60208201525f604082015242606082015260405160208186516113b68183858b01611eac565b810160038152030190209060606003918051845560208101516001850155604081015160028501550151910155565b6114546040516113f481611e18565b61271081526103e8602082015261753060408201526064606082015260405160208186516114258183858b01611eac565b810160048152030190209060606003918051845560208101516001850155604081015160028501550151910155565b8383165f52600260205261146b8260405f206124d0565b60065492600160401b84101561041f5760018401806006558410156115435761151a836114e261152f957f6fb7a1f0657bf53eaebf88042f2c7c6095ef1cddd1d3befa7793a3e3abe428c89760065f527ff652222313e28459528d920b65115c16c04f3efc82aaedc97be59f3f377c0d3f01612388565b6114eb816124a1565b60405160208183516115008183858801611eac565b81016005815203019020600160ff198254161790556124ed565b94604051938493606085526060850190612034565b9116602083015260643560408301520390a2005b634e487b7160e01b5f52603260045260245ffd5b600160208261156883945186612388565b01920192019190611372565b600883015f5260205f20908482015b8183018110611593575050611360565b8061159f60019261244a565b01611583565b60016020826115b683945186612388565b019201920191906112fc565b600484015f5260205f20908382015b81830181106115e15750506112eb565b806115ed60019261244a565b016115d1565b600160208261160483945186612388565b019201920191906112b7565b600285015f5260205f20908382015b818301811061162f5750506112a6565b8061163b60019261244a565b0161161f565b606460405162461bcd60e51b815260206004820152601560248201527f54656e616e7420616c72656164792065786973747300000000000000000000006044820152fd5b50600954871633146111eb565b3461019f57604036600319011261019f576116ab6120b4565b6024359081151580920361019f576001600160a01b039081600954163303611769576116d5612163565b169081156117255760207e8ebc621f24e0e9d1fd4ee2f7df9bb80c8d61ee30a9167a4fee6cefcf8c021e91835f526008825260405f2060ff1981541660ff8316179055604051908152a260015f55005b606460405162461bcd60e51b815260206004820152601660248201527f496e76616c6964207772697465722061646472657373000000000000000000006044820152fd5b606460405162461bcd60e51b815260206004820152600a60248201527f4f6e6c79206f776e6572000000000000000000000000000000000000000000006044820152fd5b3461019f5760a036600319011261019f5760043567ffffffffffffffff811161019f576117de903690600401611e56565b335f527fb00c5974d1628a5096ba154a69cb9145de39aef740e54e185c35bcdab01c92d260806118e76020936008855260ff60405f2054168015611924575b611826906121b6565b6118328151151561224c565b6118cf600360405161185360ff8551928a8181890195610277818389611eac565b6040518451611863818385611eac565b81019060048252898160243593030190205560405160018551611887818486611eac565b820191600483528a8160443594030190200155604051600285516118ac818486611eac565b820191600483528a81606435940301902001556040519283918551928391611eac565b820191600483528781608435940301902001556124ed565b925f6040519160408352600660408401527f6c696d69747300000000000000000000000000000000000000000000000000006060840152820152a2005b506118266001600160a01b03600954163314905061181d565b3461019f57602036600319011261019f576001600160a01b0361195e6120b4565b165f526008602052602060ff60405f2054166040519015158152f35b3461019f5760208060031936011261019f5760043567ffffffffffffffff811161019f576119ac903690600401611e56565b90335f526008815260ff60405f2054168015611b1c575b6119cc906121b6565b6119d88251151561224c565b604051916119f560ff82519484818186019761027781838b611eac565b6119fd612163565b604051928151611a0e818684611eac565b60019085018181528590038401909420600501805460ff1916905583925f845b611a65575b84611a3d856124ed565b7fe3f18630d9b6647c148b77178e18cc6a7eabd8ba039ce0dd9e476acf4c1b71875f80a25f55005b6007805480831015611b15576106f6611a806106e985611ef3565b8481519101208651862014611aa0575050611a9a90612558565b84611a2e565b5f19965090935085810192508211611b015761074f611ac1611ac893611ef3565b5091611ef3565b8054928315611aed57611a3d930190611ae36107a283611ef3565b5582918480611a33565b634e487b7160e01b5f52603160045260245ffd5b634e487b7160e01b5f52601160045260245ffd5b5050611a33565b506119cc6001600160a01b0360095416331490506119c3565b3461019f575f36600319011261019f57600754611b51816120ca565b90611b5f6040519283611e34565b80825260209081830160075f527fa66cc928b5edb82af9bd49922954155ab7b0942694bea4ce44661d9a8736c688835f925b848410611bab5760405182815280610d488185018a612059565b6001918291604051611bc1816106f68189611f75565b8152019201920191908490611b91565b3461019f57602036600319011261019f5760043567ffffffffffffffff811161019f5760ff611c0a6020610cf281943690600401611e56565b8101600581520301902054166040519015158152f35b3461019f57608036600319011261019f5760043567ffffffffffffffff811161019f57611c51903690600401611e56565b335f5260036020916008835260ff60405f2054168015611d2c575b611c75906121b6565b611c818151151561224c565b60405190611c9e60ff82519386818186019661027781838a611eac565b6040518151611cae818386611eac565b810190848252858160243593030190205560405160018251611cd1818487611eac565b82019185835286816044359403019020015560405160028251611cf5818487611eac565b820191858352868160643594030190200155611d1960405192839251928391611eac565b8101928284528142940301902001555f80f35b50611c756001600160a01b036009541633149050611c6c565b3461019f57602036600319011261019f5760043560065481101561019f576106f6610f0b610d489260065f52604051928380927ff652222313e28459528d920b65115c16c04f3efc82aaedc97be59f3f377c0d3f01611f75565b3461019f57602036600319011261019f5760043567ffffffffffffffff811161019f576020610cf2611dd5923690600401611e56565b810160038152030190208054610d486001830154926003600282015491015490604051948594859094939260609260808301968352602083015260408201520152565b6080810190811067ffffffffffffffff82111761041f57604052565b90601f8019910116810190811067ffffffffffffffff82111761041f57604052565b81601f8201121561019f5780359067ffffffffffffffff821161041f5760405192611e8b601f8401601f191660200185611e34565b8284526020838301011161019f57815f926020809301838601378301015290565b5f5b838110611ebd5750505f910152565b8181015183820152602001611eae565b602090611ee7928260405194838680955193849201611eac565b82019081520301902090565b6007548110156115435760075f527fa66cc928b5edb82af9bd49922954155ab7b0942694bea4ce44661d9a8736c68801905f90565b8054821015611543575f5260205f2001905f90565b90600182811c92168015611f6b575b6020831014611f5757565b634e487b7160e01b5f52602260045260245ffd5b91607f1691611f4c565b905f9291805491611f8583611f3d565b9182825260019384811690815f14611fe35750600114611fa6575b50505050565b90919394505f52602092835f2092845f945b838610611fcf57505050500101905f808080611fa0565b805485870183015294019385908201611fb8565b9294505050602093945060ff191683830152151560051b0101905f808080611fa0565b906120215761201e6106f69160405192838092611f75565b90565b634e487b7160e01b5f525f60045260245ffd5b9060209161204d81518092818552858086019101611eac565b601f01601f1916010190565b908082519081815260208091019281808460051b8301019501935f915b8483106120865750505050505090565b90919293949584806120a4600193601f198682030187528a51612034565b9801930193019194939290612076565b600435906001600160a01b038216820361019f57565b67ffffffffffffffff811161041f5760051b60200190565b9080601f8301121561019f578135906120fa826120ca565b926121086040519485611e34565b828452602092838086019160051b8301019280841161019f57848301915b8483106121365750505050505090565b823567ffffffffffffffff811161019f57869161215884848094890101611e56565b815201920191612126565b60025f54146121725760025f55565b606460405162461bcd60e51b815260206004820152601f60248201527f5265656e7472616e637947756172643a207265656e7472616e742063616c6c006044820152fd5b156121bd57565b606460405162461bcd60e51b815260206004820152600e60248201527f4e6f7420617574686f72697a65640000000000000000000000000000000000006044820152fd5b1561220857565b606460405162461bcd60e51b815260206004820152601560248201527f496e76616c69642061646d696e206164647265737300000000000000000000006044820152fd5b1561225357565b606460405162461bcd60e51b815260206004820152601160248201527f496e76616c69642074656e616e742049440000000000000000000000000000006044820152fd5b1561229e57565b606460405162461bcd60e51b815260206004820152601360248201527f496e76616c69642074656e616e74206e616d65000000000000000000000000006044820152fd5b156122e957565b606460405162461bcd60e51b815260206004820152601660248201527f496e76616c6964206d6178207269736b2073636f7265000000000000000000006044820152fd5b818110612338575050565b5f815560010161232d565b9190601f811161235257505050565b61237c925f5260205f20906020601f840160051c8301931061237e575b601f0160051c019061232d565b565b909150819061236f565b919091825167ffffffffffffffff811161041f576123b0816123aa8454611f3d565b84612343565b602080601f83116001146123ea5750819293945f926123df575b50508160011b915f199060031b1c1916179055565b015190505f806123ca565b90601f19831695845f52825f20925f905b8882106124325750508360019596971061241a575b505050811b019055565b01515f1960f88460031b161c191690555f8080612410565b806001859682949686015181550195019301906123fb565b6124548154611f3d565b908161245e575050565b81601f5f931160011461246f575055565b90808391825261248e601f60208420940160051c84016001850161232d565b5555565b90612021576124548154611f3d565b600754600160401b81101561041f578060016124c09201600755611ef3565b9190916120215761237c91612388565b8054600160401b81101561041f576124c091600182018155611f28565b61250590602060405192828480945193849201611eac565b810103902090565b1561251457565b606460405162461bcd60e51b815260206004820152601560248201527f54656e616e7420646f6573206e6f7420657869737400000000000000000000006044820152fd5b5f198114611b015760010190565b908154612572816120ca565b9260409361258285519182611e34565b82815280946020809201925f52815f20905f935b8585106125a557505050505050565b600184819284516125ba816106f6818a611f75565b815201930194019391612596565b604051906125d582611e18565b5f6060838281528260208201528260408201520152565b906040516125f981611e18565b6060600382948054845260018101546020850152600281015460408501520154910152565b908082146126f3576126308154611f3d565b9067ffffffffffffffff821161041f578190612656826126508654611f3d565b86612343565b5f90601f8311600114612689575f9261267e5750508160011b915f199060031b1c1916179055565b015490505f806123ca565b81526020808220858352818320935090601f1985169083905b8282106126da5750509084600195949392106126c257505050811b019055565b01545f1960f88460031b161c191690555f8080612410565b84958192958501548155600180910196019401906126a2565b5050565b91906120215761237c9161261e56fea26469706673582212207ee73bbeb8ad23ac9aab219c1b6318f11850bf4c23da0cb70feb88ba77cd6d4c64736f6c63430008140033",
  "linkReferences": {},
  "deployedLinkReferences": {}
}