{
  "_format": "hh-sol-artifact-1",
  "contractName": "TenantConfigStorage",
  "sourceName": "contracts/storage/TenantConfigStorage.sol",
  "abi": [
    {
      "inputs": [],
      "stateMutability": "nonpayable",
      "type": "constructor"
    },
    {
      "anonymous": false,
      "inputs": [
        {
          "indexed": true,
          "internalType": "address",
          "name": "writer",
          "type": "address"
        },
        {
          "indexed": false,
          "internalType": "bool",
          "name": "authorized",
          "type": "bool"
        }
      ],
      "name": "AuthorizedWriterUpdated",
      "type": "event"
    },
    {
      "anonymous": false,
      "inputs": [
        {
          "indexed": true,
          "internalType": "string",
          "name": "tenantId",
          "type": "string"
        },
        {
          "indexed": false,
          "internalType": "address",
          "name": "oldAdmin",
          "type": "address"
        },
        {
          "indexed": false,
          "internalType": "address",
          "name": "newAdmin",
          "type": "address"
        }
      ],
      "name": "TenantAdminChanged",
      "type": "event"
    },
    {
      "anonymous": false,
      "inputs": [
        {
          "indexed": true,
          "internalType": "string",
          "name": "tenantId",
          "type": "string"
        },
        {
          "indexed": false,
          "internalType": "string",
          "name": "field",
          "type": "string"
        },
        {
          "indexed": false,
          "internalType": "string",
          "name": "value",
          "type": "string"
        }
      ],
      "name": "TenantConfigUpdated",
      "type": "event"
    },
    {
      "anonymous": false,
      "inputs": [
        {
          "indexed": true,
          "internalType": "string",
          "name": "tenantId",
          "type": "string"
        }
      ],
      "name": "TenantDeactivated",
      "type": "event"
    },
    {
      "anonymous": false,
      "inputs": [
        {
          "indexed": true,
          "internalType": "string",
          "name": "tenantId",
          "type": "string"
        },
        {
          "indexed": false,
          "internalType": "string",
          "name": "field",
          "type": "string"
        },
        {
          "indexed": false,
          "internalType": "uint256",
          "name": "value",
          "type": "uint256"
        }
      ],
      "name": "TenantLimitsUpdated",
      "type": "event"
    },
    {
      "anonymous": false,
      "inputs": [
        {
          "indexed": true,
          "internalType": "string",
          "name": "tenantId",
          "type": "string"
        }
      ],
      "name": "TenantReactivated",
      "type": "event"
    },
    {
      "anonymous": false,
      "inputs": [
        {
          "indexed": true,
          "internalType": "string",
          "name": "tenantId",
          "type": "string"
        },
        {
          "indexed": false,
          "internalType": "string",
          "name": "name",
          "type": "string"
        },
        {
          "indexed": false,
          "internalType": "address",
          "name": "admin",
          "type": "address"
        },
        {
          "indexed": false,
          "internalType": "uint256",
          "name": "maxRiskScore",
          "type": "uint256"
        }
      ],
      "name": "TenantRegistered",
      "type": "event"
    },
    {
      "inputs": [],
      "name": "CONTRACT_NAME",
      "outputs": [
        {
          "internalType": "string",
          "name": "",
          "type": "string"
        }
      ],
      "stateMutability": "view",
      "type": "function"
    },
    {
      "inputs": [],
      "name": "VERSION",
      "outputs": [
        {
          "internalType": "uint256",
          "name": "",
          "type": "uint256"
        }
      ],
      "stateMutability": "view",
      "type": "function"
    },
    {
      "inputs": [
        {
          "internalType": "uint256",
          "name": "",
          "type": "uint256"
        }
      ],
      "name": "activeTenants",
      "outputs": [
        {
          "internalType": "string",
          "name": "",
          "type": "string"
        }
      ],
      "stateMutability": "view",
      "type": "function"
    },
    {
      "inputs": [
        {
          "internalType": "address",
          "name": "",
          "type": "address"
        },
        {
          "internalType": "uint256",
          "name": "",
          "type": "uint256"
        }
      ],
      "name": "adminTenants",
      "outputs": [
        {
          "internalType": "string",
          "name": "",
          "type": "string"
        }
      ],
      "stateMutability": "view",
      "type": "function"
    },
    {
      "inputs": [
        {
          "internalType": "uint256",
          "name": "",
          "type": "uint256"
        }
      ],
      "name": "allTenants",
      "outputs": [
        {
          "internalType": "string",
          "name": "",
          "type": "string"
        }
      ],
      "stateMutability": "view",
      "type": "function"
    },
    {
      "inputs": [
        {
          "internalType": "address",
          "name": "",
          "type": "address"
        }
      ],
      "name": "authorizedWriters",
      "outputs": [
        {
          "internalType": "bool",
          "name": "",
          "type": "bool"
        }
      ],
      "stateMutability": "view",
      "type": "function"
    },
    {
      "inputs": [
        {
          "internalType": "string",
          "name": "tenantId",
          "type": "string"
        }
      ],
      "name": "deactivateTenant",
      "outputs": [],
      "stateMutability": "nonpayable",
      "type": "function"
    },
    {
      "inputs": [],
      "name": "getActiveTenantCount",
      "outputs": [
        {
          "internalType": "uint256",
          "name": "",
          "type": "uint256"
        }
      ],
      "stateMutability": "view",
      "type": "function"
    },
    {
      "inputs": [],
      "name": "getActiveTenants",
      "outputs": [
        {
          "internalType": "string[]",
          "name": "",
          "type": "string[]"
        }
      ],
      "stateMutability": "view",
      "type": "function"
    },
    {
      "inputs": [
        {
          "internalType": "address",
          "name": "admin",
          "type": "address"
        }
      ],
      "name": "getAdminTenants",
      "outputs": [
        {
          "internalType": "string[]",
          "name": "",
          "type": "string[]"
        }
      ],
      "stateMutability": "view",
      "type": "function"
    },
    {
      "inputs": [],
      "name": "getAllTenants",
      "outputs": [
        {
          "internalType": "string[]",
          "name": "",
          "type": "string[]"
        }
      ],
      "stateMutability": "view",
      "type": "function"
    },
    {
      "inputs": [
        {
          "internalType": "string",
          "name": "tenantId",
          "type": "string"
        }
      ],
      "name": "getTenantConfig",
      "outputs": [
        {
          "internalType": "string",
          "name": "name",
          "type": "string"
        },
        {
          "internalType": "string[]",
          "name": "requiredCredentials",
          "type": "string[]"
        },
        {
          "internalType": "uint256",
          "name": "maxRiskScore",
          "type": "uint256"
        },
        {
          "internalType": "string[]",
          "name": "allowedJurisdictions",
          "type": "string[]"
        },
        {
          "internalType": "bool",
          "name": "isActive",
          "type": "bool"
        },
        {
          "internalType": "address",
          "name": "admin",
          "type": "address"
        }
      ],
      "stateMutability": "view",
      "type": "function"
    },
    {
      "inputs": [],
      "name": "getTenantCount",
      "outputs": [
        {
          "internalType": "uint256",
          "name": "",
          "type": "uint256"
        }
      ],
      "stateMutability": "view",
      "type": "function"
    },
    {
      "inputs": [
        {
          "internalType": "string",
          "name": "tenantId",
          "type": "string"
        }
      ],
      "name": "getTenantLimits",
      "outputs": [
        {
          "components": [
            {
              "internalType": "uint256",
              "name": "maxUsers",
              "type": "uint256"
            },
            {
              "internalType": "uint256",
              "name": "maxVerificationsPerDay",
              "type": "uint256"
            },
            {
              "internalType": "uint256",
              "name": "maxVerificationsPerMonth",
              "type": "uint256"
            },
            {
              "internalType": "uint256",
              "name": "maxStorageGB",
              "type": "uint256"
            }
          ],
          "internalType": "struct TenantConfigStorage.TenantLimits",
          "name": "",
          "type": "tuple"
        }
      ],
      "stateMutability": "view",
      "type": "function"
    },
    {
      "inputs": [
        {
          "internalType": "string",
          "name": "tenantId",
          "type": "string"
        },
        {
          "internalType": "string",
          "name": "key",
          "type": "string"
        }
      ],
      "name": "getTenantSetting",
      "outputs": [
        {
          "internalType": "string",
          "name": "",
          "type": "string"
        }
      ],
      "stateMutability": "view",
      "type": "function"
    },
    {
      "inputs": [
        {
          "internalType": "string",
          "name": "tenantId",
          "type": "string"
        }
      ],
      "name": "getTenantStats",
      "outputs": [
        {
          "components": [
            {
              "internalType": "uint256",
              "name": "totalUsers",
              "type": "uint256"
            },
            {
              "internalType": "uint256",
              "name": "activeUsers",
              "type": "uint256"
            },
            {
              "internalType": "uint256",
              "name": "totalVerifications",
              "type": "uint256"
            },
            {
              "internalType": "uint256",
              "name": "lastActivity",
              "type": "uint256"
            }
          ],
          "internalType": "struct TenantConfigStorage.TenantStats",
          "name": "",
          "type": "tuple"
        }
      ],
      "stateMutability": "view",
      "type": "function"
    },
    {
      "inputs": [
        {
          "internalType": "string",
          "name": "tenantId",
          "type": "string"
        }
      ],
      "name": "incrementVerificationCount",
      "outputs": [],
      "stateMutability": "nonpayable",
      "type": "function"
    },
    {
      "inputs": [
        {
          "internalType": "address",
          "name": "writer",
          "type": "address"
        }
      ],
      "name": "isAuthorizedWriter",
      "outputs": [
        {
          "internalType": "bool",
          "name": "",
          "type": "bool"
        }
      ],
      "stateMutability": "view",
      "type": "function"
    },
    {
      "inputs": [
        {
          "internalType": "string",
          "name": "tenantId",
          "type": "string"
        }
      ],
      "name": "isTenantActive",
      "outputs": [
        {
          "internalType": "bool",
          "name": "",
          "type": "bool"
        }
      ],
      "stateMutability": "view",
      "type": "function"
    },
    {
      "inputs": [
        {
          "internalType": "string",
          "name": "tenantId",
          "type": "string"
        }
      ],
      "name": "isTenantExists",
      "outputs": [
        {
          "internalType": "bool",
          "name": "",
          "type": "bool"
        }
      ],
      "stateMutability": "view",
      "type": "function"
    },
    {
      "inputs": [],
      "name": "owner",
      "outputs": [
        {
          "internalType": "address",
          "name": "",
          "type": "address"
        }
      ],
      "stateMutability": "view",
      "type": "function"
    },
    {
      "inputs": [
        {
          "internalType": "string",
          "name": "tenantId",
          "type": "string"
        }
      ],
      "name": "reactivateTenant",
      "outputs": [],
      "stateMutability": "nonpayable",
      "type": "function"
    },
    {
      "inputs": [
        {
          "internalType": "string",
          "name": "tenantId",
          "type": "string"
        },
        {
          "internalType": "string",
          "name": "name",
          "type": "string"
        },
        {
          "internalType": "string[]",
          "name": "requiredCredentials",
          "type": "string[]"
        },
        {
          "internalType": "uint256",
          "name": "maxRiskScore",
          "type": "uint256"
        },
        {
          "internalType": "string[]",
          "name": "allowedJurisdictions",
          "type": "string[]"
        },
        {
          "internalType": "address",
          "name": "admin",
          "type": "address"
        },
        {
          "internalType": "string[]",
          "name": "customFields",
          "type": "string[]"
        }
      ],
      "name": "registerTenant",
      "outputs": [],
      "stateMutability": "nonpayable",
      "type": "function"
    },
    {
      "inputs": [
        {
          "internalType": "address",
          "name": "writer",
          "type": "address"
        },
        {
          "internalType": "bool",
          "name": "authorized",
          "type": "bool"
        }
      ],
      "name": "setAuthorizedWriter",
      "outputs": [],
      "stateMutability": "nonpayable",
      "type": "function"
    },
    {
      "inputs": [
        {
          "internalType": "string",
          "name": "",
          "type": "string"
        }
      ],
      "name": "tenantConfigs",
      "outputs": [
        {
          "internalType": "string",
          "name": "tenantId",
          "type": "string"
        },
        {
          "internalType": "string",
          "name": "name",
          "type": "string"
        },
        {
          "internalType": "uint256",
          "name": "maxRiskScore",
          "type": "uint256"
        },
        {
          "internalType": "bool",
          "name": "isActive",
          "type": "bool"
        },
        {
          "internalType": "uint256",
          "name": "createdAt",
          "type": "uint256"
        },
        {
          "internalType": "address",
          "name": "admin",
          "type": "address"
        }
      ],
      "stateMutability": "view",
      "type": "function"
    },
    {
      "inputs": [
        {
          "internalType": "string",
          "name": "",
          "type": "string"
        }
      ],
      "name": "tenantExists",
      "outputs": [
        {
          "internalType": "bool",
          "name": "",
          "type": "bool"
        }
      ],
      "stateMutability": "view",
      "type": "function"
    },
    {
      "inputs": [
        {
          "internalType": "string",
          "name": "",
          "type": "string"
        }
      ],
      "name": "tenantLimits",
      "outputs": [
        {
          "internalType": "uint256",
          "name": "maxUsers",
          "type": "uint256"
        },
        {
          "internalType": "uint256",
          "name": "maxVerificationsPerDay",
          "type": "uint256"
        },
        {
          "internalType": "uint256",
          "name": "maxVerificationsPerMonth",
          "type": "uint256"
        },
        {
          "internalType": "uint256",
          "name": "maxStorageGB",
          "type": "uint256"
        }
      ],
      "stateMutability": "view",
      "type": "function"
    },
    {
      "inputs": [
        {
          "internalType": "string",
          "name": "",
          "type": "string"
        }
      ],
      "name": "tenantStats",
      "outputs": [
        {
          "internalType": "uint256",
          "name": "totalUsers",
          "type": "uint256"
        },
        {
          "internalType": "uint256",
          "name": "activeUsers",
          "type": "uint256"
        },
        {
          "internalType": "uint256",
          "name": "totalVerifications",
          "type": "uint256"
        },
        {
          "internalType": "uint256",
          "name": "lastActivity",
          "type": "uint256"
        }
      ],
      "stateMutability": "view",
      "type": "function"
    },
    {
      "inputs": [
        {
          "internalType": "string",
          "name": "tenantId",
          "type": "string"
        },
        {
          "internalType": "address",
          "name": "newAdmin",
          "type": "address"
        }
      ],
      "name": "updateTenantAdmin",
      "outputs": [],
      "stateMutability": "nonpayable",
      "type": "function"
    },
    {
      "inputs": [
        {
          "internalType": "string",
          "name": "tenantId",
          "type": "string"
        },
        {
          "internalType": "string",
          "name": "name",
          "type": "string"
        },
        {
          "internalType": "uint256",
          "name": "maxRiskScore",
          "type": "uint256"
        },
        {
          "internalType": "string[]",
          "name": "allowedJurisdictions",
          "type": "string[]"
        }
      ],
      "name": "updateTenantConfig",
      "outputs": [],
      "stateMutability": "nonpayable",
      "type": "function"
    },
    {
      "inputs": [
        {
          "internalType": "string",
          "name": "tenantId",
          "type": "string"
        },
        {
          "internalType": "uint256",
          "name": "maxUsers",
          "type": "uint256"
        },
        {
          "internalType": "uint256",
          "name": "maxVerificationsPerDay",
          "type": "uint256"
        },
        {
          "internalType": "uint256",
          "name": "maxVerificationsPerMonth",
          "type": "uint256"
        },
        {
          "internalType": "uint256",
          "name": "maxStorageGB",
          "type": "uint256"
        }
      ],
      "name": "updateTenantLimits",
      "outputs": [],
      "stateMutability": "nonpayable",
      "type": "function"
    },
    {
      "inputs": [
        {
          "internalType": "string",
          "name": "tenantId",
          "type": "string"
        },
        {
          "internalType": "string",
          "name": "key",
          "type": "string"
        },
        {
          "internalType": "string",
          "name": "value",
          "type": "string"
        }
      ],
      "name": "updateTenantSetting",
      "outputs": [],
      "stateMutability": "nonpayable",
      "type": "function"
    },
    {
      "inputs": [
        {
          "internalType": "string",
          "name": "tenantId",
          "type": "string"
        },
        {
          "internalType": "uint256",
          "name": "totalUsers",
          "type": "uint256"
        },
        {
          "internalType": "uint256",
          "name": "activeUsers",
          "type": "uint256"
        },
        {
          "internalType": "uint256",
          "name": "totalVerifications",
          "type": "uint256"
        }
      ],
      "name": "updateTenantStats",
      "outputs": [],
      "stateMutability": "nonpayable",
      "type": "function"
    }
  ],
  "bytecode": "0x608080604052346100455760016000553360018060a01b031960095416176009553360005260086020526040600020600160ff198254161790556127c7908161004b8239f35b600080fdfe6080604052600436101561001257600080fd5b60003560e01c80630218c7b014611c305780630f1e11f414611e025780631146e07914611da75780632dcdb23f14611c7f5780633518dc3514611c305780633d5e82da14611b9157806342abec48146119cc578063526241a81461198d57806352c40340146117fa578063542a086c146116dc578063578ae0a01461115a5780635dc2a03f1461110d578063614d08f81461109c578063618bff8b146110525780636eb954d61461101f578063711e608614610f4d5780638d55722614610eb05780638da5cb5b14610e895780639149cd4914610e6b57806395ac56e914610dcc5780639854ceef14610d735780639f5298f814610ce3578063a93a4f0314610bef578063aa5987c014610a9f578063ab1dd0c414610a04578063ad6e823b146109ac578063b4d7ead614610895578063c5b0b97514610809578063cb51b42514610576578063d2fc78911461045b578063e1bb4f9f146101c6578063e45be34f146101a85763ffa1ad741461018757600080fd5b346101a35760003660031901126101a357602060405160018152f35b600080fd5b346101a35760003660031901126101a3576020600754604051908152f35b346101a35760803660031901126101a35767ffffffffffffffff6004358181116101a3576101f8903690600401611eb9565b6024358281116101a357610210903690600401611eb9565b604435926064359081116101a35761022c903690600401612158565b336000526004610303602080966008825260ff604060002054168015610442575b6102569061222e565b610262875115156122c4565b6040519061029060ff8951938581818d019661027f81838a611f10565b81016005815203019020541661258f565b61029c8751151561230f565b6102a9606482111561235a565b6102d36040519789516102bd818b87611f10565b8901898660019b838d8095520301902001612403565b600360405184818b516102e7818389611f10565b81018b8152030190200155604051809381928951928391611f10565b81018681520301902001815191600160401b831161042c57859082548484558085106103f5575b50019060005284600020856000925b8484106103d857507f0c28a3c338632147673a0b4934d02d377ff73aef84a9be78e05ae0e368a8364060c061036d8861256f565b9260806040519160408352600660408401527f636f6e66696700000000000000000000000000000000000000000000000000006060840152820152600760808201527f757064617465640000000000000000000000000000000000000000000000000060a0820152a2005b8591816103e784935186612403565b019201920191908690610339565b8360005285858460002092830192015b82811061041357505061032a565b9091929350610421816124cb565b019085889392610405565b634e487b7160e01b600052604160045260246000fd5b506102566001600160a01b03600954163314905061024d565b346101a35760203660031901126101a35760043567ffffffffffffffff81116101a3576104ce6020610494610544933690600401611eb9565b6104a0815115156122c4565b604051906104bd60ff82519385818186019661027f81838a611f10565b604051938492839251928391611f10565b81016001815203019020600381015460ff600583015416906105656001600160a01b0360078501541691604051946105148661050d8160018501611fe2565b0387611e97565b61055261052f6004610528600285016125e9565b93016125e9565b9160405198899860c08a5260c08a01906120a9565b9088820360208a01526120ce565b91604087015285820360608701526120ce565b911515608084015260a08301520390f35b346101a35760403660031901126101a35760043567ffffffffffffffff81116101a3576105a7903690600401611eb9565b6001600160a01b0360248035828116908190036101a3573360005260209384936008855260ff6040600020541680156107fc575b6105e49061222e565b6105f0825115156122c4565b6040519061060d60ff84519388818188019661027f81838a611f10565b610618841515612279565b604051906007845161062b818587611f10565b830192888160019586815203019020015416948560005260028752604060002090826000905b6106e5575b887f62d5bc026dd250a74c1719b0bfea2920d52b0129db24a295aaa84e29147b272460408a8a6106d98b60076106ad888e8e876000526002835261069d868b600020612552565b8951809481938851928391611f10565b820190815203019020018373ffffffffffffffffffffffffffffffffffffffff1982541617905561256f565b948351928352820152a2005b8254808210156107f65761070c6107136106ff8487611f90565b5060405192838092611fe2565b0382611e97565b8a8151910120875187201461073757509061072f8493926125da565b909192610651565b9293949596979850600019928381019081116107e1579061076661075e61076c9387611f90565b509186611f90565b90612782565b82549081156107cd575088604097956106d9957f62d5bc026dd250a74c1719b0bfea2920d52b0129db24a295aaa84e29147b27249a98956007956106ad9501906107bf6107b98383611f90565b90612514565b559496979850945097610656565b634e487b7160e01b60005260316004526000fd5b82634e487b7160e01b60005260116004526000fd5b50610656565b50600954811633146105db565b346101a35760203660031901126101a35760043567ffffffffffffffff81116101a35761086861085960206108446080943690600401611eb9565b61084c61264e565b506104a0815115156122c4565b81016004815203019020612673565b6108936040518092606080918051845260208101516020850152604081015160408501520151910152565bf35b346101a35760203660031901126101a35760043567ffffffffffffffff81116101a3576108c9610967913690600401611eb9565b33600052600860205260ff604060002054168015610993575b6108eb9061222e565b6108f7815115156122c4565b6005610943602060405161092a60ff8651928481818a019561091a818389611f10565b810189815203019020541661258f565b6109326121d9565b604051809381928751928391611f10565b8101600181520301902001600160ff1982541617905561096281612523565b61256f565b7fb598f4313f51eca69647bde6740c92660610de8d5ab5a012184bafe51e8ecdfc600080a26001600055005b506108eb6001600160a01b0360095416331490506108e2565b346101a35760203660031901126101a35760206001600160a01b03806109d061212a565b16806000526008835260ff604060002054169182156109f6575b50506040519015158152f35b6009541614905082806109ea565b346101a35760203660031901126101a35760043567ffffffffffffffff81116101a357610a376020913690600401611eb9565b60405160ff825191848181860194610a50818388611f10565b8101600581520301902054169182610a6e5750506040519015158152f35b60ff925083600592610a8b92604051938492839251928391611f10565b8101600181520301902001541682806109ea565b346101a35760603660031901126101a35767ffffffffffffffff6004358181116101a357610ad1903690600401611eb9565b906024358181116101a357610aea903690600401611eb9565b906044359081116101a3577f0c28a3c338632147673a0b4934d02d377ff73aef84a9be78e05ae0e368a8364091610bd1610bae610b2e610bc3943690600401611eb9565b9533600052600860205260ff604060002054168015610bd6575b610b519061222e565b610b5d815115156122c4565b61096287610ba96009610b986020604051610b8760ff8951928481818d019561027f818389611f10565b604051809381928a51928391611f10565b810160018152030190200187611f33565b612403565b946040519384936040855260408501906120a9565b9083820360208501526120a9565b0390a2005b50610b516001600160a01b036009541633149050610b48565b346101a3576020806003193601126101a35760043567ffffffffffffffff81116101a357610c236003913690600401611eb9565b336000526008835260ff604060002054168015610cca575b610c449061222e565b610c50815115156122c4565b60405190610c6d60ff82519386818186019661027f81838a611f10565b610c756121d9565b600260405185818451610c89818389611f10565b81018781520301902001610c9d81546125da565b9055610cb160405192839251928391611f10565b8101928284528142940301902001556001600055600080f35b50610c446001600160a01b036009541633149050610c3b565b346101a35760203660031901126101a35760043567ffffffffffffffff81116101a3576020610d19610d2c923690600401611eb9565b8160405193828580945193849201611f10565b810160048152030190208054610d6f6001830154926003600282015491015490604051948594859094939260609260808301968352602083015260408201520152565b0390f35b346101a35760203660031901126101a3576001600160a01b03610d9461212a565b16610da0811515612279565b6000526002602052610d6f610db860406000206125e9565b6040519182916020835260208301906120ce565b346101a35760003660031901126101a357600654610de981612140565b90610df76040519283611e97565b80825260209081830160066000527ff652222313e28459528d920b65115c16c04f3efc82aaedc97be59f3f377c0d3f836000925b848410610e455760405182815280610d6f8185018a6120ce565b6001918291604051610e5b8161070c8189611fe2565b8152019201920191908490610e2b565b346101a35760003660031901126101a3576020600654604051908152f35b346101a35760003660031901126101a35760206001600160a01b0360095416604051908152f35b346101a35760403660031901126101a35767ffffffffffffffff6004358181116101a357610ee2903690600401611eb9565b906024359081116101a357610f39610f2d610d6f936009610f1c6020610f0f61070c973690600401611eb9565b936104a0815115156122c4565b810160018152030190200190611f33565b60405192838092611fe2565b6040519182916020835260208301906120a9565b346101a35760203660031901126101a35760043567ffffffffffffffff81116101a357610f866020610d19610ff6933690600401611eb9565b8101600181520301902060405190610fa982610fa28184611fe2565b0383611e97565b604051610fbd8161070c8160018601611fe2565b60038201549160ff6005820154166110046001600160a01b0360076006850154940154169360405197889760c0895260c08901906120a9565b9087820360208901526120a9565b93604086015215156060850152608084015260a08301520390f35b346101a35760203660031901126101a3576004356007548110156101a357610f3961104c610d6f92611f59565b90612078565b346101a35760203660031901126101a35760043567ffffffffffffffff81116101a35761086861108d60206108446080943690600401611eb9565b81016003815203019020612673565b346101a35760003660031901126101a357604051604081019080821067ffffffffffffffff83111761042c57610d6f91604052601381527f54656e616e74436f6e66696753746f726167650000000000000000000000000060208201526040519182916020835260208301906120a9565b346101a35760403660031901126101a35761112661212a565b6001600160a01b036024359116600052600260205260406000209081548110156101a35761104c610f3991610d6f93611f90565b346101a35760e03660031901126101a35767ffffffffffffffff6004358181116101a35761118c903690600401611eb9565b6024358281116101a3576111a4903690600401611eb9565b906044358381116101a3576111bd903690600401612158565b916084358481116101a3576111d6903690600401612158565b60a435936001600160a01b039586861686036101a35760c4359081116101a357611204903690600401612158565b9133600052600860205260ff6040600020541680156116cf575b6112279061222e565b6112348787161515612279565b611240855115156122c4565b61124c8451151561230f565b60ff60405160208188516112638183858d01611f10565b81016005815203019020541661168b5761128160648035111561235a565b60405160208187516112968183858c01611f10565b81016001815203019020916112ab8684612403565b6112b88560018501612403565b805190600160401b821161042c576002840154826002860155808310611658575b506020016002840160005260206000206000915b83831061163b57505050506064356003830155805190600160401b821161042c576004830154826004850155808310611608575b506020016004830160005260206000206000915b8383106115eb575050505060058101805460ff1916600117905542600682015560078101805473ffffffffffffffffffffffffffffffffffffffff1916868816179055815191600160401b831161042c5760088201548360088401558084106115b8575b50602060089101910160005260206000206000915b83831061159b57505050506114246040516113c881611e7b565b60008152600060208201526000604082015242606082015260405160208186516113f58183858b01611f10565b810160038152030190209060606003918051845560208101516001850155604081015160028501550151910155565b61149360405161143381611e7b565b61271081526103e8602082015261753060408201526064606082015260405160208186516114648183858b01611f10565b810160048152030190209060606003918051845560208101516001850155604081015160028501550151910155565b83831660005260026020526114ac826040600020612552565b60065492600160401b84101561042c5760018401806006558410156115855761155c83611524611571957f6fb7a1f0657bf53eaebf88042f2c7c6095ef1cddd1d3befa7793a3e3abe428c89760066000527ff652222313e28459528d920b65115c16c04f3efc82aaedc97be59f3f377c0d3f01612403565b61152d81612523565b60405160208183516115428183858801611f10565b81016005815203019020600160ff1982541617905561256f565b946040519384936060855260608501906120a9565b9116602083015260643560408301520390a2005b634e487b7160e01b600052603260045260246000fd5b60016020826115ac83945186612403565b019201920191906113ae565b600883016000526020600020908482015b81830181106115d9575050611399565b806115e56001926124cb565b016115c9565b60016020826115fc83945186612403565b01920192019190611335565b600484016000526020600020908382015b8183018110611629575050611321565b806116356001926124cb565b01611619565b600160208261164c83945186612403565b019201920191906112ed565b600285016000526020600020908382015b81830181106116795750506112d9565b806116856001926124cb565b01611669565b606460405162461bcd60e51b815260206004820152601560248201527f54656e616e7420616c72656164792065786973747300000000000000000000006044820152fd5b506009548716331461121e565b346101a35760403660031901126101a3576116f561212a565b602435908115158092036101a3576001600160a01b0390816009541633036117b65761171f6121d9565b169081156117725760207e8ebc621f24e0e9d1fd4ee2f7df9bb80c8d61ee30a9167a4fee6cefcf8c021e918360005260088252604060002060ff1981541660ff8316179055604051908152a26001600055005b606460405162461bcd60e51b815260206004820152601660248201527f496e76616c6964207772697465722061646472657373000000000000000000006044820152fd5b606460405162461bcd60e51b815260206004820152600a60248201527f4f6e6c79206f776e6572000000000000000000000000000000000000000000006044820152fd5b346101a35760a03660031901126101a35760043567ffffffffffffffff81116101a35761182b903690600401611eb9565b336000527fb00c5974d1628a5096ba154a69cb9145de39aef740e54e185c35bcdab01c92d260806119366020936008855260ff604060002054168015611974575b6118759061222e565b611881815115156122c4565b61191e60036040516118a260ff8551928a818189019561027f818389611f10565b60405184516118b2818385611f10565b810190600482528981602435930301902055604051600185516118d6818486611f10565b820191600483528a8160443594030190200155604051600285516118fb818486611f10565b820191600483528a81606435940301902001556040519283918551928391611f10565b8201916004835287816084359403019020015561256f565b9260006040519160408352600660408401527f6c696d69747300000000000000000000000000000000000000000000000000006060840152820152a2005b506118756001600160a01b03600954163314905061186c565b346101a35760203660031901126101a3576001600160a01b036119ae61212a565b166000526008602052602060ff604060002054166040519015158152f35b346101a3576020806003193601126101a35760043567ffffffffffffffff81116101a3576119fe903690600401611eb9565b90336000526008815260ff604060002054168015611b78575b611a209061222e565b611a2c825115156122c4565b60405191611a4960ff82519484818186019761027f81838b611f10565b611a516121d9565b604051928151611a62818684611f10565b60019085018181528590038401909420600501805460ff1916905583926000845b611abc575b84611a928561256f565b7fe3f18630d9b6647c148b77178e18cc6a7eabd8ba039ce0dd9e476acf4c1b7187600080a2600055005b6007805480831015611b715761070c611ad76106ff85611f59565b8481519101208651862014611af7575050611af1906125da565b84611a83565b600019965090935085810192508211611b5b57610766611b19611b2093611f59565b5091611f59565b8054928315611b4557611a92930190611b3b6107b983611f59565b5582918480611a88565b634e487b7160e01b600052603160045260246000fd5b634e487b7160e01b600052601160045260246000fd5b5050611a88565b50611a206001600160a01b036009541633149050611a17565b346101a35760003660031901126101a357600754611bae81612140565b90611bbc6040519283611e97565b80825260209081830160076000527fa66cc928b5edb82af9bd49922954155ab7b0942694bea4ce44661d9a8736c688836000925b848410611c0a5760405182815280610d6f8185018a6120ce565b6001918291604051611c208161070c8189611fe2565b8152019201920191908490611bf0565b346101a35760203660031901126101a35760043567ffffffffffffffff81116101a35760ff611c696020610d1981943690600401611eb9565b8101600581520301902054166040519015158152f35b346101a35760803660031901126101a35760043567ffffffffffffffff81116101a357611cb0903690600401611eb9565b3360005260036020916008835260ff604060002054168015611d8e575b611cd69061222e565b611ce2815115156122c4565b60405190611cff60ff82519386818186019661027f81838a611f10565b6040518151611d0f818386611f10565b810190848252858160243593030190205560405160018251611d32818487611f10565b82019185835286816044359403019020015560405160028251611d56818487611f10565b820191858352868160643594030190200155611d7a60405192839251928391611f10565b810192828452814294030190200155600080f35b50611cd66001600160a01b036009541633149050611ccd565b346101a35760203660031901126101a3576004356006548110156101a35761070c610f39610d6f926006600052604051928380927ff652222313e28459528d920b65115c16c04f3efc82aaedc97be59f3f377c0d3f01611fe2565b346101a35760203660031901126101a35760043567ffffffffffffffff81116101a3576020610d19611e38923690600401611eb9565b810160038152030190208054610d6f6001830154926003600282015491015490604051948594859094939260609260808301968352602083015260408201520152565b6080810190811067ffffffffffffffff82111761042c57604052565b90601f8019910116810190811067ffffffffffffffff82111761042c57604052565b81601f820112156101a35780359067ffffffffffffffff821161042c5760405192611eee601f8401601f191660200185611e97565b828452602083830101116101a357816000926020809301838601378301015290565b60005b838110611f235750506000910152565b8181015183820152602001611f13565b602090611f4d928260405194838680955193849201611f10565b82019081520301902090565b6007548110156115855760076000527fa66cc928b5edb82af9bd49922954155ab7b0942694bea4ce44661d9a8736c6880190600090565b80548210156115855760005260206000200190600090565b90600182811c92168015611fd8575b6020831014611fc257565b634e487b7160e01b600052602260045260246000fd5b91607f1691611fb7565b9060009291805491611ff383611fa8565b9182825260019384811690816000146120555750600114612015575b50505050565b90919394506000526020928360002092846000945b83861061204157505050500101903880808061200f565b80548587018301529401938590820161202a565b9294505050602093945060ff191683830152151560051b0101903880808061200f565b906120935761209061070c9160405192838092611fe2565b90565b634e487b7160e01b600052600060045260246000fd5b906020916120c281518092818552858086019101611f10565b601f01601f1916010190565b908082519081815260208091019281808460051b8301019501936000915b8483106120fc5750505050505090565b909192939495848061211a600193601f198682030187528a516120a9565b98019301930191949392906120ec565b600435906001600160a01b03821682036101a357565b67ffffffffffffffff811161042c5760051b60200190565b9080601f830112156101a35781359061217082612140565b9261217e6040519485611e97565b828452602092838086019160051b830101928084116101a357848301915b8483106121ac5750505050505090565b823567ffffffffffffffff81116101a35786916121ce84848094890101611eb9565b81520192019161219c565b6002600054146121ea576002600055565b606460405162461bcd60e51b815260206004820152601f60248201527f5265656e7472616e637947756172643a207265656e7472616e742063616c6c006044820152fd5b1561223557565b606460405162461bcd60e51b815260206004820152600e60248201527f4e6f7420617574686f72697a65640000000000000000000000000000000000006044820152fd5b1561228057565b606460405162461bcd60e51b815260206004820152601560248201527f496e76616c69642061646d696e206164647265737300000000000000000000006044820152fd5b156122cb57565b606460405162461bcd60e51b815260206004820152601160248201527f496e76616c69642074656e616e742049440000000000000000000000000000006044820152fd5b1561231657565b606460405162461bcd60e51b815260206004820152601360248201527f496e76616c69642074656e616e74206e616d65000000000000000000000000006044820152fd5b1561236157565b606460405162461bcd60e51b815260206004820152601660248201527f496e76616c6964206d6178207269736b2073636f7265000000000000000000006044820152fd5b8181106123b0575050565b600081556001016123a5565b9190601f81116123cb57505050565b6123f7926000526020600020906020601f840160051c830193106123f9575b601f0160051c01906123a5565b565b90915081906123ea565b919091825167ffffffffffffffff811161042c5761242b816124258454611fa8565b846123bc565b602080601f831160011461246757508192939460009261245c575b50508160011b916000199060031b1c1916179055565b015190503880612446565b90601f198316958460005282600020926000905b8882106124b35750508360019596971061249a575b505050811b019055565b015160001960f88460031b161c19169055388080612490565b8060018596829496860151815501950193019061247b565b6124d58154611fa8565b90816124df575050565b81601f600093116001146124f1575055565b908083918252612510601f60208420940160051c8401600185016123a5565b5555565b90612093576124d58154611fa8565b600754600160401b81101561042c578060016125429201600755611f59565b919091612093576123f791612403565b8054600160401b81101561042c5761254291600182018155611f90565b61258790602060405192828480945193849201611f10565b810103902090565b1561259657565b606460405162461bcd60e51b815260206004820152601560248201527f54656e616e7420646f6573206e6f7420657869737400000000000000000000006044820152fd5b6000198114611b5b5760010190565b9081546125f581612140565b9260409361260585519182611e97565b828152809460208092019260005281600020906000935b85851061262b57505050505050565b600184819284516126408161070c818a611fe2565b81520193019401939161261c565b6040519061265b82611e7b565b60006060838281528260208201528260408201520152565b9060405161268081611e7b565b6060600382948054845260018101546020850152600281015460408501520154910152565b9080821461277e576126b78154611fa8565b9067ffffffffffffffff821161042c5781906126dd826126d78654611fa8565b866123bc565b600090601f8311600114612713576000926127085750508160011b916000199060031b1c1916179055565b015490503880612446565b81526020808220858352818320935090601f1985169083905b82821061276557505090846001959493921061274c57505050811b019055565b015460001960f88460031b161c19169055388080612490565b849581929585015481556001809101960194019061272c565b5050565b9190612093576123f7916126a556fea26469706673582212208ef24a58af8d46bb47e095993f2848f41426819e1e75dee155f48651956f0fa964736f6c63430008140033",
  "linkReferences": {},
  "deployedLinkReferences": {}
}