{
  "_format": "hh-sol-artifact-1",
  "contractName": "MultisigManager",
  "sourceName": "contracts/system/MultisigManager.sol",
  "abi": [
    {
      "inputs": [],
      "stateMutability": "nonpayable",
      "type": "constructor"
    },
    {
      "anonymous": false,
      "inputs": [
        {
          "indexed": true,
          "internalType": "address",
          "name": "signer",
          "type": "address"
        },
        {
          "indexed": false,
          "internalType": "bool",
          "name": "authorized",
          "type": "bool"
        }
      ],
      "name": "AuthorizedSignerUpdated",
      "type": "event"
    },
    {
      "anonymous": false,
      "inputs": [
        {
          "indexed": true,
          "internalType": "address",
          "name": "writer",
          "type": "address"
        },
        {
          "indexed": false,
          "internalType": "bool",
          "name": "authorized",
          "type": "bool"
        }
      ],
      "name": "AuthorizedWriterUpdated",
      "type": "event"
    },
    {
      "anonymous": false,
      "inputs": [
        {
          "indexed": true,
          "internalType": "bytes32",
          "name": "functionId",
          "type": "bytes32"
        },
        {
          "indexed": false,
          "internalType": "bool",
          "name": "isEnabled",
          "type": "bool"
        },
        {
          "indexed": false,
          "internalType": "uint256",
          "name": "requiredSignatures",
          "type": "uint256"
        },
        {
          "indexed": false,
          "internalType": "uint256",
          "name": "timelockDuration",
          "type": "uint256"
        }
      ],
      "name": "MultisigConfigUpdated",
      "type": "event"
    },
    {
      "anonymous": false,
      "inputs": [
        {
          "indexed": true,
          "internalType": "uint256",
          "name": "operationId",
          "type": "uint256"
        },
        {
          "indexed": false,
          "internalType": "address",
          "name": "cancelledBy",
          "type": "address"
        }
      ],
      "name": "OperationCancelled",
      "type": "event"
    },
    {
      "anonymous": false,
      "inputs": [
        {
          "indexed": true,
          "internalType": "uint256",
          "name": "operationId",
          "type": "uint256"
        },
        {
          "indexed": true,
          "internalType": "bytes32",
          "name": "functionId",
          "type": "bytes32"
        },
        {
          "indexed": false,
          "internalType": "address",
          "name": "target",
          "type": "address"
        },
        {
          "indexed": false,
          "internalType": "bool",
          "name": "success",
          "type": "bool"
        }
      ],
      "name": "OperationExecuted",
      "type": "event"
    },
    {
      "anonymous": false,
      "inputs": [
        {
          "indexed": true,
          "internalType": "uint256",
          "name": "operationId",
          "type": "uint256"
        },
        {
          "indexed": true,
          "internalType": "bytes32",
          "name": "functionId",
          "type": "bytes32"
        },
        {
          "indexed": false,
          "internalType": "address",
          "name": "target",
          "type": "address"
        },
        {
          "indexed": false,
          "internalType": "address",
          "name": "proposer",
          "type": "address"
        },
        {
          "indexed": false,
          "internalType": "uint256",
          "name": "requiredSignatures",
          "type": "uint256"
        },
        {
          "indexed": false,
          "internalType": "uint256",
          "name": "timelockExpiry",
          "type": "uint256"
        }
      ],
      "name": "OperationProposed",
      "type": "event"
    },
    {
      "anonymous": false,
      "inputs": [
        {
          "indexed": true,
          "internalType": "uint256",
          "name": "operationId",
          "type": "uint256"
        },
        {
          "indexed": false,
          "internalType": "address",
          "name": "signer",
          "type": "address"
        },
        {
          "indexed": false,
          "internalType": "uint256",
          "name": "signatureCount",
          "type": "uint256"
        }
      ],
      "name": "OperationSigned",
      "type": "event"
    },
    {
      "inputs": [],
      "name": "CONTRACT_NAME",
      "outputs": [
        {
          "internalType": "string",
          "name": "",
          "type": "string"
        }
      ],
      "stateMutability": "view",
      "type": "function"
    },
    {
      "inputs": [],
      "name": "VERSION",
      "outputs": [
        {
          "internalType": "uint256",
          "name": "",
          "type": "uint256"
        }
      ],
      "stateMutability": "view",
      "type": "function"
    },
    {
      "inputs": [
        {
          "internalType": "address",
          "name": "",
          "type": "address"
        }
      ],
      "name": "authorizedSigners",
      "outputs": [
        {
          "internalType": "bool",
          "name": "",
          "type": "bool"
        }
      ],
      "stateMutability": "view",
      "type": "function"
    },
    {
      "inputs": [
        {
          "internalType": "address",
          "name": "",
          "type": "address"
        }
      ],
      "name": "authorizedWriters",
      "outputs": [
        {
          "internalType": "bool",
          "name": "",
          "type": "bool"
        }
      ],
      "stateMutability": "view",
      "type": "function"
    },
    {
      "inputs": [
        {
          "internalType": "uint256",
          "name": "operationId",
          "type": "uint256"
        }
      ],
      "name": "canExecuteOperation",
      "outputs": [
        {
          "internalType": "bool",
          "name": "",
          "type": "bool"
        }
      ],
      "stateMutability": "view",
      "type": "function"
    },
    {
      "inputs": [
        {
          "internalType": "uint256",
          "name": "operationId",
          "type": "uint256"
        }
      ],
      "name": "cancelOperation",
      "outputs": [],
      "stateMutability": "nonpayable",
      "type": "function"
    },
    {
      "inputs": [
        {
          "internalType": "string",
          "name": "functionName",
          "type": "string"
        }
      ],
      "name": "disableMultisig",
      "outputs": [],
      "stateMutability": "nonpayable",
      "type": "function"
    },
    {
      "inputs": [
        {
          "internalType": "string",
          "name": "functionName",
          "type": "string"
        },
        {
          "internalType": "uint256",
          "name": "requiredSignatures",
          "type": "uint256"
        },
        {
          "internalType": "uint256",
          "name": "timelockDuration",
          "type": "uint256"
        }
      ],
      "name": "enableMultisig",
      "outputs": [],
      "stateMutability": "nonpayable",
      "type": "function"
    },
    {
      "inputs": [
        {
          "internalType": "uint256",
          "name": "operationId",
          "type": "uint256"
        }
      ],
      "name": "executeOperation",
      "outputs": [],
      "stateMutability": "nonpayable",
      "type": "function"
    },
    {
      "inputs": [],
      "name": "getAuthorizedSignerCount",
      "outputs": [
        {
          "internalType": "uint256",
          "name": "count",
          "type": "uint256"
        }
      ],
      "stateMutability": "view",
      "type": "function"
    },
    {
      "inputs": [
        {
          "internalType": "string",
          "name": "functionName",
          "type": "string"
        }
      ],
      "name": "getMultisigConfig",
      "outputs": [
        {
          "components": [
            {
              "internalType": "bool",
              "name": "isEnabled",
              "type": "bool"
            },
            {
              "internalType": "uint256",
              "name": "requiredSignatures",
              "type": "uint256"
            },
            {
              "internalType": "uint256",
              "name": "timelockDuration",
              "type": "uint256"
            },
            {
              "internalType": "bool",
              "name": "isActive",
              "type": "bool"
            }
          ],
          "internalType": "struct MultisigManager.MultisigConfig",
          "name": "",
          "type": "tuple"
        }
      ],
      "stateMutability": "view",
      "type": "function"
    },
    {
      "inputs": [
        {
          "internalType": "uint256",
          "name": "operationId",
          "type": "uint256"
        }
      ],
      "name": "getOperationDetails",
      "outputs": [
        {
          "internalType": "address",
          "name": "target",
          "type": "address"
        },
        {
          "internalType": "bytes",
          "name": "data",
          "type": "bytes"
        },
        {
          "internalType": "uint256",
          "name": "timestamp",
          "type": "uint256"
        },
        {
          "internalType": "uint256",
          "name": "requiredSignatures",
          "type": "uint256"
        },
        {
          "internalType": "uint256",
          "name": "currentSignatures",
          "type": "uint256"
        },
        {
          "internalType": "uint256",
          "name": "timelockExpiry",
          "type": "uint256"
        },
        {
          "internalType": "bool",
          "name": "executed",
          "type": "bool"
        },
        {
          "internalType": "bool",
          "name": "canExecute",
          "type": "bool"
        },
        {
          "internalType": "uint256",
          "name": "timeRemaining",
          "type": "uint256"
        }
      ],
      "stateMutability": "view",
      "type": "function"
    },
    {
      "inputs": [
        {
          "internalType": "uint256",
          "name": "operationId",
          "type": "uint256"
        }
      ],
      "name": "getOperationSigners",
      "outputs": [
        {
          "internalType": "address[]",
          "name": "signers",
          "type": "address[]"
        }
      ],
      "stateMutability": "view",
      "type": "function"
    },
    {
      "inputs": [
        {
          "internalType": "uint256",
          "name": "operationId",
          "type": "uint256"
        }
      ],
      "name": "getPendingOperation",
      "outputs": [
        {
          "internalType": "address",
          "name": "target",
          "type": "address"
        },
        {
          "internalType": "bytes",
          "name": "data",
          "type": "bytes"
        },
        {
          "internalType": "uint256",
          "name": "timestamp",
          "type": "uint256"
        },
        {
          "internalType": "uint256",
          "name": "requiredSignatures",
          "type": "uint256"
        },
        {
          "internalType": "uint256",
          "name": "currentSignatures",
          "type": "uint256"
        },
        {
          "internalType": "uint256",
          "name": "timelockExpiry",
          "type": "uint256"
        },
        {
          "internalType": "bool",
          "name": "executed",
          "type": "bool"
        }
      ],
      "stateMutability": "view",
      "type": "function"
    },
    {
      "inputs": [
        {
          "internalType": "uint256",
          "name": "operationId",
          "type": "uint256"
        }
      ],
      "name": "getSignatureStatus",
      "outputs": [
        {
          "internalType": "uint256",
          "name": "currentSignatures",
          "type": "uint256"
        },
        {
          "internalType": "uint256",
          "name": "requiredSignatures",
          "type": "uint256"
        },
        {
          "internalType": "bool",
          "name": "isComplete",
          "type": "bool"
        }
      ],
      "stateMutability": "view",
      "type": "function"
    },
    {
      "inputs": [
        {
          "internalType": "uint256",
          "name": "operationId",
          "type": "uint256"
        },
        {
          "internalType": "address",
          "name": "signer",
          "type": "address"
        }
      ],
      "name": "hasSignedOperation",
      "outputs": [
        {
          "internalType": "bool",
          "name": "",
          "type": "bool"
        }
      ],
      "stateMutability": "view",
      "type": "function"
    },
    {
      "inputs": [
        {
          "internalType": "address",
          "name": "signer",
          "type": "address"
        }
      ],
      "name": "isAuthorizedSigner",
      "outputs": [
        {
          "internalType": "bool",
          "name": "",
          "type": "bool"
        }
      ],
      "stateMutability": "view",
      "type": "function"
    },
    {
      "inputs": [
        {
          "internalType": "address",
          "name": "writer",
          "type": "address"
        }
      ],
      "name": "isAuthorizedWriter",
      "outputs": [
        {
          "internalType": "bool",
          "name": "",
          "type": "bool"
        }
      ],
      "stateMutability": "view",
      "type": "function"
    },
    {
      "inputs": [
        {
          "internalType": "bytes32",
          "name": "",
          "type": "bytes32"
        }
      ],
      "name": "multisigConfigs",
      "outputs": [
        {
          "internalType": "bool",
          "name": "isEnabled",
          "type": "bool"
        },
        {
          "internalType": "uint256",
          "name": "requiredSignatures",
          "type": "uint256"
        },
        {
          "internalType": "uint256",
          "name": "timelockDuration",
          "type": "uint256"
        },
        {
          "internalType": "bool",
          "name": "isActive",
          "type": "bool"
        }
      ],
      "stateMutability": "view",
      "type": "function"
    },
    {
      "inputs": [],
      "name": "operationCounter",
      "outputs": [
        {
          "internalType": "uint256",
          "name": "",
          "type": "uint256"
        }
      ],
      "stateMutability": "view",
      "type": "function"
    },
    {
      "inputs": [
        {
          "internalType": "uint256",
          "name": "",
          "type": "uint256"
        }
      ],
      "name": "operationIds",
      "outputs": [
        {
          "internalType": "bytes32",
          "name": "",
          "type": "bytes32"
        }
      ],
      "stateMutability": "view",
      "type": "function"
    },
    {
      "inputs": [],
      "name": "owner",
      "outputs": [
        {
          "internalType": "address",
          "name": "",
          "type": "address"
        }
      ],
      "stateMutability": "view",
      "type": "function"
    },
    {
      "inputs": [
        {
          "internalType": "bytes32",
          "name": "",
          "type": "bytes32"
        }
      ],
      "name": "pendingOperations",
      "outputs": [
        {
          "internalType": "address",
          "name": "target",
          "type": "address"
        },
        {
          "internalType": "bytes",
          "name": "data",
          "type": "bytes"
        },
        {
          "internalType": "uint256",
          "name": "timestamp",
          "type": "uint256"
        },
        {
          "internalType": "uint256",
          "name": "requiredSignatures",
          "type": "uint256"
        },
        {
          "internalType": "uint256",
          "name": "timelockExpiry",
          "type": "uint256"
        },
        {
          "internalType": "uint256",
          "name": "signatureCount",
          "type": "uint256"
        },
        {
          "internalType": "bool",
          "name": "executed",
          "type": "bool"
        }
      ],
      "stateMutability": "view",
      "type": "function"
    },
    {
      "inputs": [
        {
          "internalType": "string",
          "name": "functionName",
          "type": "string"
        },
        {
          "internalType": "address",
          "name": "target",
          "type": "address"
        },
        {
          "internalType": "bytes",
          "name": "data",
          "type": "bytes"
        }
      ],
      "name": "proposeOperation",
      "outputs": [
        {
          "internalType": "uint256",
          "name": "",
          "type": "uint256"
        }
      ],
      "stateMutability": "nonpayable",
      "type": "function"
    },
    {
      "inputs": [
        {
          "internalType": "string",
          "name": "functionName",
          "type": "string"
        }
      ],
      "name": "requiresMultisig",
      "outputs": [
        {
          "internalType": "bool",
          "name": "",
          "type": "bool"
        }
      ],
      "stateMutability": "view",
      "type": "function"
    },
    {
      "inputs": [
        {
          "internalType": "address",
          "name": "signer",
          "type": "address"
        },
        {
          "internalType": "bool",
          "name": "authorized",
          "type": "bool"
        }
      ],
      "name": "setAuthorizedSigner",
      "outputs": [],
      "stateMutability": "nonpayable",
      "type": "function"
    },
    {
      "inputs": [
        {
          "internalType": "address",
          "name": "writer",
          "type": "address"
        },
        {
          "internalType": "bool",
          "name": "authorized",
          "type": "bool"
        }
      ],
      "name": "setAuthorizedWriter",
      "outputs": [],
      "stateMutability": "nonpayable",
      "type": "function"
    },
    {
      "inputs": [
        {
          "internalType": "string",
          "name": "functionName",
          "type": "string"
        },
        {
          "internalType": "bool",
          "name": "isEnabled",
          "type": "bool"
        },
        {
          "internalType": "uint256",
          "name": "requiredSignatures",
          "type": "uint256"
        },
        {
          "internalType": "uint256",
          "name": "timelockDuration",
          "type": "uint256"
        }
      ],
      "name": "setMultisigConfig",
      "outputs": [],
      "stateMutability": "nonpayable",
      "type": "function"
    },
    {
      "inputs": [
        {
          "internalType": "uint256",
          "name": "operationId",
          "type": "uint256"
        }
      ],
      "name": "signOperation",
      "outputs": [],
      "stateMutability": "nonpayable",
      "type": "function"
    }
  ],
  "bytecode": "0x608060405234620004055760016000553360018060a01b0319600354161760035533600052620003f5602060048152604060002060ff199060018282541617905560018060a01b03600354166000526005825260016040600020918254161790556200008f6200006e6200040a565b600f81526e7570646174654b5943436f6e66696760881b8382015262000440565b620000cc6200009d6200040a565b601681527f75706461746543726564656e7469616c436f6e666967000000000000000000008382015262000440565b62000109620000da6200040a565b601681527f757064617465436f6d706c69616e6365436f6e666967000000000000000000008382015262000440565b6200013a620001176200040a565b60118152707570646174654175646974436f6e66696760781b8382015262000440565b62000177620001486200040a565b601881527f7570646174654a7572697364696374696f6e436f6e66696700000000000000008382015262000440565b620001b4620001856200040a565b601781527f7570646174654a7572697364696374696f6e52756c65730000000000000000008382015262000440565b620001e1620001c26200040a565b600d81526c39b2ba29bab832b920b236b4b760991b8382015262000440565b6200021e620001ef6200040a565b601581527f757064617465526f6c655065726d697373696f6e7300000000000000000000008382015262000440565b6200025b6200022c6200040a565b601381527f736574417574686f72697a6564577269746572000000000000000000000000008382015262000440565b62000298620002696200040a565b601381527f736574417574686f72697a6564497373756572000000000000000000000000008382015262000440565b620002c6620002a66200040a565b600e81526d1c9959da5cdd195c95195b985b9d60921b8382015262000440565b620002f8620002d46200040a565b601281527175706461746554656e616e74436f6e66696760701b8382015262000440565b62000329620003066200040a565b60118152703ab83230ba32aa32b730b73a20b236b4b760791b8382015262000440565b62000359620003376200040a565b601081526f19195858dd1a5d985d1955195b985b9d60821b8382015262000440565b6200038b620003676200040a565b6012815271636c6561725573657241756469744c6f677360701b8382015262000440565b620003bc620003996200040a565b6011815270636c6561724f6c6441756469744c6f677360781b8382015262000440565b7f736574416c6c6f77656443726564656e7469616c547970650000000000000000620003e76200040a565b916018835282015262000440565b60405161280a9081620005098239f35b600080fd5b60408051919082016001600160401b038111838210176200042a57604052565b634e487b7160e01b600052604160045260246000fd5b8051602090910120604080519060808201908282106001600160401b038311176200042a577f2cfa70dc1722e16aa2f45c8db500f9f2abf06ff404f8b43ca5c982d2099d660c926060928252620004f56000918281526003602082016001815285830185815287840191600183528a87526001602052620004d388882095511515869060ff801983541691151516179055565b51600185015551600284015551151591019060ff801983541691151516179055565b81519181835260016020840152820152a256fe6040608081526004908136101561001557600080fd5b600091823560e01c90816305e03fa8146112d85781630e70306d1461126c57816316b913561461117b5781633ae718f0146110de57816344e367561461105c57816349045e1614610ff65781634dbc5a4a14610ed9578163526241a814610e9d578163542a086c14610dec57816355293fe314610bef5781635c94522714610ab15781635d2b6a4e14610a76578163614d08f814610a1957816373eb7b4c146109ba57816375df264d146109195781637faef328146108f1578163880957b11461089d5781638da5cb5b146108755781639394fa151461076b57816394c49cac14610703578163955565591461065257816399c378b314610633578163ad6e823b146105c9578163c5150a06146105ad578163f0bb9b331461058d578163fd055f6b146104ba578163fe48d24414610486578163fedbb73b14610180575063ffa1ad741461016257600080fd5b3461017c578160031936011261017c576020905160018152f35b5080fd5b83833461017c57602090816003193601126104825783356101a081612737565b835260078252808320546101b5811515611eb8565b835260028252808320916003830154926102516101d061210b565b610247603d865180937f417272617920000000000000000000000000000000000000000000000000000088830152610211815180928a6026860191016113f1565b81017f2065786365656473206d6178696d756d206c656e677468000000000000000000602682015203601d810184520182611487565b60328611156122f0565b849061026461025e612144565b8661237f565b61026d85612195565b906001600160a01b03976005896003541692838a5201855260ff86892054166103f2575b50506102a86102a2969493966121f1565b8361237f565b6102b182612195565b9461035a7f546f6f206d616e7920697465726174696f6e7320666f722000000000000000006038896102e16121f1565b61034a8951917f496e76616c696420697465726174696f6e20626f756e647320666f722000000084840152610336815193603d8187850196610326818484018a6113f1565b810103601d810183520190611487565b8a51958694850152518092858501906113f1565b8101036018810183520190611487565b845b8381106103a057505050508051938080860192818752855180945286019401925b82811061038a5785850386f35b835187168552938101939281019260010161037d565b6103e9906103ba6103b3999697996121f1565b8683612320565b6103cc6103c5612144565b8483612320565b896103d782866121c7565b51166103e3828a6121c7565b526118ac565b9694939661035c565b90919250610459610401612144565b6104516038885180937f496e646578206f7574206f6620626f756e647320666f722000000000000000008a830152610441815180928c86860191016113f1565b8101036018810184520182611487565b8715156122f0565b82511561046f5750828201526001908780610291565b866032602492634e487b7160e01b835252fd5b8280fd5b8284346104b757816003193601126104b757506104ae6020926104a7611535565b9035612292565b90519015158152f35b80fd5b91905034610482576020918260031936011261058957803567ffffffffffffffff811161058557936104f28392608096369101611501565b816060845161050081611439565b82815282888201528286820152015261052061051a6116cb565b826124dc565b848151910120815260018452209080519161053a83611439565b60ff8154161515938484526001820154818501908152606060ff6003600286015495878901968752015416950194151585528351958652519085015251908301525115156060820152f35b8480fd5b8380fd5b8284346104b75760203660031901126104b757506104ae6020923561222a565b50503461017c578160031936011261017c576020905160018152f35b50503461017c57602036600319011261017c57906020916105e861151f565b916105fa6105f46117dd565b84612462565b60ff826001600160a01b038095169283815260058752205416928315610625575b5050519015158152f35b60035416149150388061061b565b50503461017c578160031936011261017c576020906006549051908152f35b9050346104825760603660031901126104825767ffffffffffffffff8135818111610585576106849036908401611501565b61068c611535565b916044359081116106ff57366023820112156106ff579060ff856020976106c16106df97969536906024818a013591016114c5565b95338252895220541680156106e6575b6106da90611816565b611916565b9051908152f35b506106da6001600160a01b0360035416331490506106d1565b8580fd5b8284346104b75760203660031901126104b757816107679184358152600260205220916001600160a01b038354169261073e600182016115da565b946002820154906003830154908301549160ff600760068601549501541694519788978861155a565b0390f35b9050346104825760203660031901126104825780359067ffffffffffffffff82116105895761079c91369101611501565b6107b26001600160a01b03600354163314611680565b6107ba611704565b6107c561051a6116cb565b602081519101207f2cfa70dc1722e16aa2f45c8db500f9f2abf06ff404f8b43ca5c982d2099d660c60608351936107fb85611439565b85855261085f602086019560036001978881528483018a8152868401918a8352898c528a60205261083e878d2095511515869060ff801983541691151516179055565b518a85015551600284015551151591019060ff801983541691151516179055565b85815191818352866020840152820152a2815580f35b50503461017c578160031936011261017c576020906001600160a01b03600354169051908152f35b9050346104825760203660031901126104825760809282913581526001602052209060ff8254169160018101549160ff60036002840154930154169281519415158552602085015283015215156060820152f35b9050346104825760203660031901126104825760209282913581526007845220549051908152f35b90503461048257602036600319011261048257803567ffffffffffffffff8111610589579261094e8392602095369101611501565b61095961051a6116cb565b848151910120815260018452209080519161097383611439565b60ff815416151592838152606060ff600360018501549485898601526002810154878601520154161515910152826109af575b50519015158152f35b6001109150386109a6565b905034610482576020366003190112610482576060928291356109dc81612737565b81526007602052818120546109f2811515611eb8565b81526002602052209060036006830154920154815192808452816020850152101590820152f35b50503461017c578160031936011261017c57805161076791610a3a8261146b565b600f82527f4d756c74697369674d616e616765720000000000000000000000000000000000602083015251918291602083526020830190611414565b905034610482576020366003190112610482578160209360ff926001600160a01b03610aa061151f565b168252855220541690519015158152f35b9190503461048257602090816003193601126105895782359233855280835260ff82862054168015610bd6575b610ae790611816565b610aef611704565b610af884612737565b8385526007835281852054610b0e811515611eb8565b85526002835281852060078101916005835492610b2e60ff851615611f03565b33895201855260ff84882054168015610bc2575b15610b80575060ff19166001179055513381527ffd6081567ca53e7c77aff76e8cc9cfb2872b64e660f64d885730829bc5a18ca19190a26001815580f35b6064908585519162461bcd60e51b8352820152601860248201527f4e6f7420617574686f72697a656420746f2063616e63656c00000000000000006044820152fd5b506001600160a01b03600354163314610b42565b50610ae76001600160a01b036003541633149050610ade565b9190503461048257602091826003193601126105895780359233855281815260ff83862054168015610dd3575b610c2590611816565b610c2d611704565b610c3684612737565b8385526007815282852054610c4c811515611eb8565b85526002815282852092610c6760ff60078601541615611f03565b600584019033875281835260ff8188205416610d9157610c8e610c89336120d8565b611861565b6006850192835492600387019384541115610d2957917fcd9f060020ea14ff6396a686f3f9e768d1a8d706f2d71827248591a66cc8b94a918893338b528152818a20600160ff19825416179055610ce586546118ac565b80965585825191338352820152a25411159182610d1b575b5050610d0c575b506001815580f35b610d1590611f4e565b38610d04565b015442101590503880610cfd565b6084868385519162461bcd60e51b8352820152602760248201527f4f7065726174696f6e20616c72656164792068617320656e6f7567682073696760448201527f6e617475726573000000000000000000000000000000000000000000000000006064820152fd5b8383606492519162461bcd60e51b8352820152600e60248201527f416c7265616479207369676e65640000000000000000000000000000000000006044820152fd5b50610c256001600160a01b036003541633149050610c1c565b50503461017c578060031936011261017c577e8ebc621f24e0e9d1fd4ee2f7df9bb80c8d61ee30a9167a4fee6cefcf8c021e6020610e2861151f565b92610e3161154b565b90610e706001600160a01b03610e4c81600354163314611680565b861695610e5a871515611759565b610e62611704565b610e6a6117dd565b90612462565b84865260058352610e8f828288209060ff801983541691151516179055565b519015158152a26001815580f35b50503461017c57602036600319011261017c5760ff816020936001600160a01b03610ec661151f565b1681526005855220541690519015158152f35b9050346104825760803660031901126104825780359067ffffffffffffffff821161058957610f2e6060917f2cfa70dc1722e16aa2f45c8db500f9f2abf06ff404f8b43ca5c982d2099d660c93369101611501565b610f3661154b565b906044359460643591610f556001600160a01b03600354163314611680565b610f6061051a6116cb565b610f6a83886125af565b6020815191012095610fe5825194610f8186611439565b1515948581526003898b60208401868152610fc388808701938b85528d88019560018752815260016020522095511515869060ff801983541691151516179055565b51600185015551600284015551151591019060ff801983541691151516179055565b81519384526020840152820152a280f35b83833461017c57602036600319011261017c5760209260ff8261101761151f565b946110296110236117a4565b87612462565b6001600160a01b0380961693848252875220541692831561104e575050519015158152f35b60035416149150838061061b565b905082346104b75760203660031901126104b7578261076791833561108081612737565b8152600760205281812054611096811515611eb8565b81526002602052206001600160a01b03815416926002820154906003830154600684015491840154926110d3600160ff60078801541696016115da565b97519788978861155a565b90503461048257816003193601126104825760207ffc434b0362aed83a09eb9c1e156519bbaa55c1a15933f661daad7a13943604729161111c61151f565b9361112561154b565b9161115e6001600160a01b0361114081600354163314611680565b87169661114e881515611759565b611156611704565b610e6a6117a4565b8587528352610e8f828288209060ff801983541691151516179055565b9050346104825760603660031901126104825780359067ffffffffffffffff8211610589576111d06060917f2cfa70dc1722e16aa2f45c8db500f9f2abf06ff404f8b43ca5c982d2099d660c93369101611501565b60243590604435906111ee6001600160a01b03600354163314611680565b6111f961051a6116cb565b61120382846125af565b6020815191012094611259815161121981611439565b600181526003888a60208401888152610fc387808701938a85528c88019560018752815260016020522095511515869060ff801983541691151516179055565b805192600184526020840152820152a280f35b9050346104825760203660031901126104825760ff6112b8928235923386526020528420541680156112bf575b6112a290611816565b6112aa611704565b6112b381612737565b611f4e565b6001815580f35b506112a26001600160a01b036003541633149050611299565b919050346104825760203660031901126104825781356112f781612737565b835260076020528083205461130d811515611eb8565b835260026020528083209282840154928342109160068601549460038701549560ff60078901541615938493846113e6575b856113dd575b80966113b1575b50506001600160a01b038854169661136b600160028b01549a016115da565b9861138788519a8b9a8b526101208060208d01528b0190611414565b978901526060880152608087015260a08601521560c0850152151560e08401526101008301520390f35b90919550428303918383116113ca57505093388061134c565b906011602492634e487b7160e01b835252fd5b86159550611345565b88831015955061133f565b60005b8381106114045750506000910152565b81810151838201526020016113f4565b9060209161142d815180928185528580860191016113f1565b601f01601f1916010190565b6080810190811067ffffffffffffffff82111761145557604052565b634e487b7160e01b600052604160045260246000fd5b6040810190811067ffffffffffffffff82111761145557604052565b90601f8019910116810190811067ffffffffffffffff82111761145557604052565b67ffffffffffffffff811161145557601f01601f191660200190565b9291926114d1826114a9565b916114df6040519384611487565b8294818452818301116114fc578281602093846000960137010152565b600080fd5b9080601f830112156114fc5781602061151c933591016114c5565b90565b600435906001600160a01b03821682036114fc57565b602435906001600160a01b03821682036114fc57565b6024359081151582036114fc57565b95929796939060c095926001600160a01b036115849216885260e0602089015260e0880190611414565b9760408701526060860152608085015260a08401521515910152565b90600182811c921680156115d0575b60208310146115ba57565b634e487b7160e01b600052602260045260246000fd5b91607f16916115af565b90604051918260008254926115ee846115a0565b90818452600194858116908160001461165d575060011461161a575b505061161892500383611487565b565b9093915060005260209081600020936000915b8183106116455750506116189350820101388061160a565b8554888401850152948501948794509183019161162d565b91505061161894506020925060ff191682840152151560051b820101388061160a565b1561168757565b606460405162461bcd60e51b815260206004820152600a60248201527f4f6e6c79206f776e6572000000000000000000000000000000000000000000006044820152fd5b604051906116d88261146b565b600c82527f66756e6374696f6e4e616d6500000000000000000000000000000000000000006020830152565b600260005414611715576002600055565b606460405162461bcd60e51b815260206004820152601f60248201527f5265656e7472616e637947756172643a207265656e7472616e742063616c6c006044820152fd5b1561176057565b606460405162461bcd60e51b815260206004820152601660248201527f496e76616c6964207369676e65722061646472657373000000000000000000006044820152fd5b604051906117b18261146b565b600682527f7369676e657200000000000000000000000000000000000000000000000000006020830152565b604051906117ea8261146b565b600682527f77726974657200000000000000000000000000000000000000000000000000006020830152565b1561181d57565b606460405162461bcd60e51b815260206004820152601560248201527f4e6f7420617574686f72697a6564207369676e657200000000000000000000006044820152fd5b1561186857565b606460405162461bcd60e51b815260206004820152601860248201527f4e6f7420616e20617574686f72697a6564207369676e657200000000000000006044820152fd5b60001981146118bb5760010190565b634e487b7160e01b600052601160045260246000fd5b91607495949391835260208301526bffffffffffffffffffffffff199060601b16604082015261190b8251809360206054850191016113f1565b019060548201520190565b91909161192461051a6116cb565b611ad56040516119338161146b565b60068152602081017f746172676574000000000000000000000000000000000000000000000000000081526119688287612462565b6119df6040516119cd60388267024b73b30b634b2160c51b968760208301525161199881602898898501906113f1565b81017f3a2063616e6e6f742062652073656c660000000000000000000000000000000087820152036018810184520182611487565b306001600160a01b03891614156122f0565b611a796038604051936119f18561146b565b6004855260208501937f64617461000000000000000000000000000000000000000000000000000000008552611a7e8951151560405190846020830152611a796035838b51611a44818d8a8501906113f1565b81017f3a20656d7074792062797465730000000000000000000000000000000000000088820152036015810185520183611487565b6122f0565b7f3a20627974657320746f6f206c6f6e67000000000000000000000000000000006104008a51111595611ac16040519889956020870152518092858701906113f1565b830191820152036018810185520183611487565b602081519101209081600052600160205260406000209160ff600360405194611afd86611439565b828154161515865260018101546020870152600281015460408701520154161580156060850152611e7457611b34610c89336120d8565b825115611dea57611b466006546118ac565b93846006556040516020810190611b7381611b65428887898d896118d1565b03601f198101835282611487565b5190208560005260076020528060406000205560005260026020526040600020926001600160a01b0382167fffffffffffffffffffffffff000000000000000000000000000000000000000085541617845580519067ffffffffffffffff8211611455578190611be660018701546115a0565b601f8111611d94575b50602090601f8311600114611d2757600092611d1c575b50508160011b916000199060031b1c19161760018401555b4260028401556020840151926003810193845560408501514201948542116118bb57869260206080928460047f9eed3b6475eb931a528f0d50a3b05846d8bf7361246d16c5baeb8c4514b1b5b09601998a5533600052600581018352600760406000209160ff1992600184825416179055600160068201550190815416905501519654966001600160a01b03604051921682523360208301526040820152866060820152a3827fcd9f060020ea14ff6396a686f3f9e768d1a8d706f2d71827248591a66cc8b94a6040805133815260016020820152a254600110159081611d11575b50611d085790565b61151c81611f4e565b905042101538611d00565b015190503880611c06565b600187016000908152602081209350601f198516905b818110611d7c5750908460019594939210611d63575b505050811b016001840155611c1e565b015160001960f88460031b161c19169055388080611d53565b92936020600181928786015181550195019301611d3d565b909150600186016000526020600020601f840160051c81019160208510611de0575b90601f859493920160051c01905b818110611dd15750611bef565b60008155849350600101611dc4565b9091508190611db6565b91507fde924554b88334c438966539d2dd630f77a52ad8f1b32eea241db81d3d4ca0e4611e5593611e1c6006546118ac565b948593846006556040516020810190611e3d81611b654286898d8d896118d1565b5190208560005260076020526040600020558261209e565b604080516001600160a01b03939093168352901515602083015290a390565b606460405162461bcd60e51b815260206004820152601760248201527f46756e6374696f6e206e6f7420636f6e666967757265640000000000000000006044820152fd5b15611ebf57565b606460405162461bcd60e51b815260206004820152601360248201527f4f7065726174696f6e206e6f7420666f756e64000000000000000000000000006044820152fd5b15611f0a57565b606460405162461bcd60e51b815260206004820152601a60248201527f4f7065726174696f6e20616c72656164792065786563757465640000000000006044820152fd5b8060005260076020526040600020549081600052600260205260406000206007810190815491611f8160ff841615611f03565b600682015460038301541161205a57600482015442106120165760017fde924554b88334c438966539d2dd630f77a52ad8f1b32eea241db81d3d4ca0e49360ff19161790556001600160a01b03611fe781835416611fe1600185016115da565b9061209e565b915416612011604051928392839092916020906001600160a01b0360408401951683521515910152565b0390a3565b606460405162461bcd60e51b815260206004820152601460248201527f54696d656c6f636b206e6f7420657870697265640000000000000000000000006044820152fd5b606460405162461bcd60e51b815260206004820152601760248201527f496e73756666696369656e74207369676e6174757265730000000000000000006044820152fd5b600091829182602083519301915af13d1561151c573d6120bd816114a9565b906120cb6040519283611487565b8152600060203d92013e90565b6001600160a01b0380911680600052600460205260ff6040600020541691821561210157505090565b6003541614919050565b604051906121188261146b565b601282527f72657175697265645369676e61747572657300000000000000000000000000006020830152565b604051906121518261146b565b600b82527f74656d705369676e6572730000000000000000000000000000000000000000006020830152565b67ffffffffffffffff81116114555760051b60200190565b9061219f8261217d565b6121ac6040519182611487565b82815280926121bd601f199161217d565b0190602036910137565b80518210156121db5760209160051b010190565b634e487b7160e01b600052603260045260246000fd5b604051906121fe8261146b565b600782527f7369676e657273000000000000000000000000000000000000000000000000006020830152565b61223381612737565b6000526007602052604060002054801561228c576000526002602052604060002060ff600782015416159081612279575b8161226d575090565b60049150015442101590565b6006810154600382015411159150612264565b50600090565b9061229c82612737565b6122ad6122a76117a4565b82612462565b60009182526007602052604082205480156122eb579160409160ff93825260026020526001600160a01b036005848420019116825260205220541690565b505090565b156122f85750565b61231c9060405191829162461bcd60e51b8352602060048401526024830190611414565b0390fd5b906116189291612379603860405180957f496e646578206f7574206f6620626f756e647320666f72200000000000000000602083015261236981518092602086860191016113f1565b8101036018810186520184611487565b106122f0565b61244b9061245b604c611618946040517f4d656d6f727920616c6c6f636174696f6e20746f6f206c6172676520666f722060208201526123ed8251916123e360408260208701956123d381848401896113f1565b8101036020810184520182611487565b60328711156122f0565b6040519586927f4d656d6f727920616c6c6f636174696f6e2073697a65206d757374206265207060208501527f6f73697469766520666f722000000000000000000000000000000000000000006040850152518092858501906113f1565b810103602c810185520183611487565b15156122f0565b906001600160a01b03611618926124d46036604051809567024b73b30b634b2160c51b602083015261249e8151809260206028860191016113f1565b81017f3a207a65726f20616464726573730000000000000000000000000000000000006028820152036016810186520184611487565b1615156122f0565b906020611a79603961161894610100815115159161255a60405167024b73b30b634b2160c51b948589830152611a796036838c61252481519d8e92019d8e60288501906113f1565b81017f3a20656d70747920737472696e670000000000000000000000000000000000006028820152036016810185520183611487565b51111593612579604051968793602085015251809260288501906113f1565b81017f3a20737472696e6720746f6f206c6f6e670000000000000000000000000000006028820152036019810185520183611487565b6301e133806116189261269a60376125c561210b565b946126096040519167024b73b30b634b2160c51b976126a1896032602096828882015261265d8551956126498a82019361263f8d828b60289e8f9d8e84018b6113f1565b81017f3a2062656c6f77206d696e696d756d0000000000000000000000000000000000809d820152036017810184520182611487565b60018a10156122f0565b604051948a860152518092898601906113f1565b82019461269a89847f3a2061626f7665206d6178696d756d000000000000000000000000000000000098898b820152036017810186520184611487565b11156122f0565b6127236040516126b08161146b565b6010815261270e868201937f74696d656c6f636b4475726174696f6e000000000000000000000000000000008552888d6040519283918b83015285516126f9818c85018b6113f1565b8201908a820152036017810183520190611487565b6040519a8b96870152518092858701906113f1565b830191820152036017810186520184611487565b61279e6116189161245b603a60405161274f8161146b565b600b8152602081017f6f7065726174696f6e4964000000000000000000000000000000000000000000815260405195869267024b73b30b634b2160c51b602085015251809260288501906113f1565b81017f3a206d75737420626520706f7369746976650000000000000000000000000000602882015203601a81018552018361148756fea2646970667358221220a6e46d550a0dd7561113741f1d42f598622a0a0d391dc594803c989e9405883164736f6c63430008140033",
  "linkReferences": {},
  "deployedLinkReferences": {}
}