{
  "_format": "hh-sol-artifact-1",
  "contractName": "MultisigManager",
  "sourceName": "contracts/system/MultisigManager.sol",
  "abi": [
    {
      "inputs": [],
      "stateMutability": "nonpayable",
      "type": "constructor"
    },
    {
      "anonymous": false,
      "inputs": [
        {
          "indexed": true,
          "internalType": "address",
          "name": "signer",
          "type": "address"
        },
        {
          "indexed": false,
          "internalType": "bool",
          "name": "authorized",
          "type": "bool"
        }
      ],
      "name": "AuthorizedSignerUpdated",
      "type": "event"
    },
    {
      "anonymous": false,
      "inputs": [
        {
          "indexed": true,
          "internalType": "address",
          "name": "writer",
          "type": "address"
        },
        {
          "indexed": false,
          "internalType": "bool",
          "name": "authorized",
          "type": "bool"
        }
      ],
      "name": "AuthorizedWriterUpdated",
      "type": "event"
    },
    {
      "anonymous": false,
      "inputs": [
        {
          "indexed": true,
          "internalType": "bytes32",
          "name": "functionId",
          "type": "bytes32"
        },
        {
          "indexed": false,
          "internalType": "bool",
          "name": "isEnabled",
          "type": "bool"
        },
        {
          "indexed": false,
          "internalType": "uint256",
          "name": "requiredSignatures",
          "type": "uint256"
        },
        {
          "indexed": false,
          "internalType": "uint256",
          "name": "timelockDuration",
          "type": "uint256"
        }
      ],
      "name": "MultisigConfigUpdated",
      "type": "event"
    },
    {
      "anonymous": false,
      "inputs": [
        {
          "indexed": true,
          "internalType": "uint256",
          "name": "operationId",
          "type": "uint256"
        },
        {
          "indexed": false,
          "internalType": "address",
          "name": "cancelledBy",
          "type": "address"
        }
      ],
      "name": "OperationCancelled",
      "type": "event"
    },
    {
      "anonymous": false,
      "inputs": [
        {
          "indexed": true,
          "internalType": "uint256",
          "name": "operationId",
          "type": "uint256"
        },
        {
          "indexed": true,
          "internalType": "bytes32",
          "name": "functionId",
          "type": "bytes32"
        },
        {
          "indexed": false,
          "internalType": "address",
          "name": "target",
          "type": "address"
        },
        {
          "indexed": false,
          "internalType": "bool",
          "name": "success",
          "type": "bool"
        }
      ],
      "name": "OperationExecuted",
      "type": "event"
    },
    {
      "anonymous": false,
      "inputs": [
        {
          "indexed": true,
          "internalType": "uint256",
          "name": "operationId",
          "type": "uint256"
        },
        {
          "indexed": true,
          "internalType": "bytes32",
          "name": "functionId",
          "type": "bytes32"
        },
        {
          "indexed": false,
          "internalType": "address",
          "name": "target",
          "type": "address"
        },
        {
          "indexed": false,
          "internalType": "address",
          "name": "proposer",
          "type": "address"
        },
        {
          "indexed": false,
          "internalType": "uint256",
          "name": "requiredSignatures",
          "type": "uint256"
        },
        {
          "indexed": false,
          "internalType": "uint256",
          "name": "timelockExpiry",
          "type": "uint256"
        }
      ],
      "name": "OperationProposed",
      "type": "event"
    },
    {
      "anonymous": false,
      "inputs": [
        {
          "indexed": true,
          "internalType": "uint256",
          "name": "operationId",
          "type": "uint256"
        },
        {
          "indexed": false,
          "internalType": "address",
          "name": "signer",
          "type": "address"
        },
        {
          "indexed": false,
          "internalType": "uint256",
          "name": "signatureCount",
          "type": "uint256"
        }
      ],
      "name": "OperationSigned",
      "type": "event"
    },
    {
      "inputs": [],
      "name": "CONTRACT_NAME",
      "outputs": [
        {
          "internalType": "string",
          "name": "",
          "type": "string"
        }
      ],
      "stateMutability": "view",
      "type": "function"
    },
    {
      "inputs": [],
      "name": "VERSION",
      "outputs": [
        {
          "internalType": "uint256",
          "name": "",
          "type": "uint256"
        }
      ],
      "stateMutability": "view",
      "type": "function"
    },
    {
      "inputs": [
        {
          "internalType": "address",
          "name": "",
          "type": "address"
        }
      ],
      "name": "authorizedSigners",
      "outputs": [
        {
          "internalType": "bool",
          "name": "",
          "type": "bool"
        }
      ],
      "stateMutability": "view",
      "type": "function"
    },
    {
      "inputs": [
        {
          "internalType": "address",
          "name": "",
          "type": "address"
        }
      ],
      "name": "authorizedWriters",
      "outputs": [
        {
          "internalType": "bool",
          "name": "",
          "type": "bool"
        }
      ],
      "stateMutability": "view",
      "type": "function"
    },
    {
      "inputs": [
        {
          "internalType": "uint256",
          "name": "operationId",
          "type": "uint256"
        }
      ],
      "name": "canExecuteOperation",
      "outputs": [
        {
          "internalType": "bool",
          "name": "",
          "type": "bool"
        }
      ],
      "stateMutability": "view",
      "type": "function"
    },
    {
      "inputs": [
        {
          "internalType": "uint256",
          "name": "operationId",
          "type": "uint256"
        }
      ],
      "name": "cancelOperation",
      "outputs": [],
      "stateMutability": "nonpayable",
      "type": "function"
    },
    {
      "inputs": [
        {
          "internalType": "string",
          "name": "functionName",
          "type": "string"
        }
      ],
      "name": "disableMultisig",
      "outputs": [],
      "stateMutability": "nonpayable",
      "type": "function"
    },
    {
      "inputs": [
        {
          "internalType": "string",
          "name": "functionName",
          "type": "string"
        },
        {
          "internalType": "uint256",
          "name": "requiredSignatures",
          "type": "uint256"
        },
        {
          "internalType": "uint256",
          "name": "timelockDuration",
          "type": "uint256"
        }
      ],
      "name": "enableMultisig",
      "outputs": [],
      "stateMutability": "nonpayable",
      "type": "function"
    },
    {
      "inputs": [
        {
          "internalType": "uint256",
          "name": "operationId",
          "type": "uint256"
        }
      ],
      "name": "executeOperation",
      "outputs": [],
      "stateMutability": "nonpayable",
      "type": "function"
    },
    {
      "inputs": [],
      "name": "getAuthorizedSignerCount",
      "outputs": [
        {
          "internalType": "uint256",
          "name": "count",
          "type": "uint256"
        }
      ],
      "stateMutability": "view",
      "type": "function"
    },
    {
      "inputs": [
        {
          "internalType": "string",
          "name": "functionName",
          "type": "string"
        }
      ],
      "name": "getMultisigConfig",
      "outputs": [
        {
          "components": [
            {
              "internalType": "bool",
              "name": "isEnabled",
              "type": "bool"
            },
            {
              "internalType": "uint256",
              "name": "requiredSignatures",
              "type": "uint256"
            },
            {
              "internalType": "uint256",
              "name": "timelockDuration",
              "type": "uint256"
            },
            {
              "internalType": "bool",
              "name": "isActive",
              "type": "bool"
            }
          ],
          "internalType": "struct MultisigManager.MultisigConfig",
          "name": "",
          "type": "tuple"
        }
      ],
      "stateMutability": "view",
      "type": "function"
    },
    {
      "inputs": [
        {
          "internalType": "uint256",
          "name": "operationId",
          "type": "uint256"
        }
      ],
      "name": "getOperationDetails",
      "outputs": [
        {
          "internalType": "address",
          "name": "target",
          "type": "address"
        },
        {
          "internalType": "bytes",
          "name": "data",
          "type": "bytes"
        },
        {
          "internalType": "uint256",
          "name": "timestamp",
          "type": "uint256"
        },
        {
          "internalType": "uint256",
          "name": "requiredSignatures",
          "type": "uint256"
        },
        {
          "internalType": "uint256",
          "name": "currentSignatures",
          "type": "uint256"
        },
        {
          "internalType": "uint256",
          "name": "timelockExpiry",
          "type": "uint256"
        },
        {
          "internalType": "bool",
          "name": "executed",
          "type": "bool"
        },
        {
          "internalType": "bool",
          "name": "canExecute",
          "type": "bool"
        },
        {
          "internalType": "uint256",
          "name": "timeRemaining",
          "type": "uint256"
        }
      ],
      "stateMutability": "view",
      "type": "function"
    },
    {
      "inputs": [
        {
          "internalType": "uint256",
          "name": "operationId",
          "type": "uint256"
        }
      ],
      "name": "getOperationSigners",
      "outputs": [
        {
          "internalType": "address[]",
          "name": "signers",
          "type": "address[]"
        }
      ],
      "stateMutability": "view",
      "type": "function"
    },
    {
      "inputs": [
        {
          "internalType": "uint256",
          "name": "operationId",
          "type": "uint256"
        }
      ],
      "name": "getPendingOperation",
      "outputs": [
        {
          "internalType": "address",
          "name": "target",
          "type": "address"
        },
        {
          "internalType": "bytes",
          "name": "data",
          "type": "bytes"
        },
        {
          "internalType": "uint256",
          "name": "timestamp",
          "type": "uint256"
        },
        {
          "internalType": "uint256",
          "name": "requiredSignatures",
          "type": "uint256"
        },
        {
          "internalType": "uint256",
          "name": "currentSignatures",
          "type": "uint256"
        },
        {
          "internalType": "uint256",
          "name": "timelockExpiry",
          "type": "uint256"
        },
        {
          "internalType": "bool",
          "name": "executed",
          "type": "bool"
        }
      ],
      "stateMutability": "view",
      "type": "function"
    },
    {
      "inputs": [
        {
          "internalType": "uint256",
          "name": "operationId",
          "type": "uint256"
        }
      ],
      "name": "getSignatureStatus",
      "outputs": [
        {
          "internalType": "uint256",
          "name": "currentSignatures",
          "type": "uint256"
        },
        {
          "internalType": "uint256",
          "name": "requiredSignatures",
          "type": "uint256"
        },
        {
          "internalType": "bool",
          "name": "isComplete",
          "type": "bool"
        }
      ],
      "stateMutability": "view",
      "type": "function"
    },
    {
      "inputs": [
        {
          "internalType": "uint256",
          "name": "operationId",
          "type": "uint256"
        },
        {
          "internalType": "address",
          "name": "signer",
          "type": "address"
        }
      ],
      "name": "hasSignedOperation",
      "outputs": [
        {
          "internalType": "bool",
          "name": "",
          "type": "bool"
        }
      ],
      "stateMutability": "view",
      "type": "function"
    },
    {
      "inputs": [
        {
          "internalType": "address",
          "name": "signer",
          "type": "address"
        }
      ],
      "name": "isAuthorizedSigner",
      "outputs": [
        {
          "internalType": "bool",
          "name": "",
          "type": "bool"
        }
      ],
      "stateMutability": "view",
      "type": "function"
    },
    {
      "inputs": [
        {
          "internalType": "address",
          "name": "writer",
          "type": "address"
        }
      ],
      "name": "isAuthorizedWriter",
      "outputs": [
        {
          "internalType": "bool",
          "name": "",
          "type": "bool"
        }
      ],
      "stateMutability": "view",
      "type": "function"
    },
    {
      "inputs": [
        {
          "internalType": "bytes32",
          "name": "",
          "type": "bytes32"
        }
      ],
      "name": "multisigConfigs",
      "outputs": [
        {
          "internalType": "bool",
          "name": "isEnabled",
          "type": "bool"
        },
        {
          "internalType": "uint256",
          "name": "requiredSignatures",
          "type": "uint256"
        },
        {
          "internalType": "uint256",
          "name": "timelockDuration",
          "type": "uint256"
        },
        {
          "internalType": "bool",
          "name": "isActive",
          "type": "bool"
        }
      ],
      "stateMutability": "view",
      "type": "function"
    },
    {
      "inputs": [],
      "name": "operationCounter",
      "outputs": [
        {
          "internalType": "uint256",
          "name": "",
          "type": "uint256"
        }
      ],
      "stateMutability": "view",
      "type": "function"
    },
    {
      "inputs": [
        {
          "internalType": "uint256",
          "name": "",
          "type": "uint256"
        }
      ],
      "name": "operationIds",
      "outputs": [
        {
          "internalType": "bytes32",
          "name": "",
          "type": "bytes32"
        }
      ],
      "stateMutability": "view",
      "type": "function"
    },
    {
      "inputs": [],
      "name": "owner",
      "outputs": [
        {
          "internalType": "address",
          "name": "",
          "type": "address"
        }
      ],
      "stateMutability": "view",
      "type": "function"
    },
    {
      "inputs": [
        {
          "internalType": "bytes32",
          "name": "",
          "type": "bytes32"
        }
      ],
      "name": "pendingOperations",
      "outputs": [
        {
          "internalType": "address",
          "name": "target",
          "type": "address"
        },
        {
          "internalType": "bytes",
          "name": "data",
          "type": "bytes"
        },
        {
          "internalType": "uint256",
          "name": "timestamp",
          "type": "uint256"
        },
        {
          "internalType": "uint256",
          "name": "requiredSignatures",
          "type": "uint256"
        },
        {
          "internalType": "uint256",
          "name": "timelockExpiry",
          "type": "uint256"
        },
        {
          "internalType": "uint256",
          "name": "signatureCount",
          "type": "uint256"
        },
        {
          "internalType": "bool",
          "name": "executed",
          "type": "bool"
        }
      ],
      "stateMutability": "view",
      "type": "function"
    },
    {
      "inputs": [
        {
          "internalType": "string",
          "name": "functionName",
          "type": "string"
        },
        {
          "internalType": "address",
          "name": "target",
          "type": "address"
        },
        {
          "internalType": "bytes",
          "name": "data",
          "type": "bytes"
        }
      ],
      "name": "proposeOperation",
      "outputs": [
        {
          "internalType": "uint256",
          "name": "",
          "type": "uint256"
        }
      ],
      "stateMutability": "nonpayable",
      "type": "function"
    },
    {
      "inputs": [
        {
          "internalType": "string",
          "name": "functionName",
          "type": "string"
        }
      ],
      "name": "requiresMultisig",
      "outputs": [
        {
          "internalType": "bool",
          "name": "",
          "type": "bool"
        }
      ],
      "stateMutability": "view",
      "type": "function"
    },
    {
      "inputs": [
        {
          "internalType": "address",
          "name": "signer",
          "type": "address"
        },
        {
          "internalType": "bool",
          "name": "authorized",
          "type": "bool"
        }
      ],
      "name": "setAuthorizedSigner",
      "outputs": [],
      "stateMutability": "nonpayable",
      "type": "function"
    },
    {
      "inputs": [
        {
          "internalType": "address",
          "name": "writer",
          "type": "address"
        },
        {
          "internalType": "bool",
          "name": "authorized",
          "type": "bool"
        }
      ],
      "name": "setAuthorizedWriter",
      "outputs": [],
      "stateMutability": "nonpayable",
      "type": "function"
    },
    {
      "inputs": [
        {
          "internalType": "string",
          "name": "functionName",
          "type": "string"
        },
        {
          "internalType": "bool",
          "name": "isEnabled",
          "type": "bool"
        },
        {
          "internalType": "uint256",
          "name": "requiredSignatures",
          "type": "uint256"
        },
        {
          "internalType": "uint256",
          "name": "timelockDuration",
          "type": "uint256"
        }
      ],
      "name": "setMultisigConfig",
      "outputs": [],
      "stateMutability": "nonpayable",
      "type": "function"
    },
    {
      "inputs": [
        {
          "internalType": "uint256",
          "name": "operationId",
          "type": "uint256"
        }
      ],
      "name": "signOperation",
      "outputs": [],
      "stateMutability": "nonpayable",
      "type": "function"
    }
  ],
  "bytecode": "0x608060405234620004005760015f553360018060a01b03196003541617600355335f52620003f060206004815260405f2060ff199060018282541617905560018060a01b03600354165f5260058252600160405f20918254161790556200008a6200006962000404565b600f81526e7570646174654b5943436f6e66696760881b8382015262000438565b620000c76200009862000404565b601681527f75706461746543726564656e7469616c436f6e666967000000000000000000008382015262000438565b62000104620000d562000404565b601681527f757064617465436f6d706c69616e6365436f6e666967000000000000000000008382015262000438565b620001356200011262000404565b60118152707570646174654175646974436f6e66696760781b8382015262000438565b620001726200014362000404565b601881527f7570646174654a7572697364696374696f6e436f6e66696700000000000000008382015262000438565b620001af6200018062000404565b601781527f7570646174654a7572697364696374696f6e52756c65730000000000000000008382015262000438565b620001dc620001bd62000404565b600d81526c39b2ba29bab832b920b236b4b760991b8382015262000438565b62000219620001ea62000404565b601581527f757064617465526f6c655065726d697373696f6e7300000000000000000000008382015262000438565b620002566200022762000404565b601381527f736574417574686f72697a6564577269746572000000000000000000000000008382015262000438565b620002936200026462000404565b601381527f736574417574686f72697a6564497373756572000000000000000000000000008382015262000438565b620002c1620002a162000404565b600e81526d1c9959da5cdd195c95195b985b9d60921b8382015262000438565b620002f3620002cf62000404565b601281527175706461746554656e616e74436f6e66696760701b8382015262000438565b620003246200030162000404565b60118152703ab83230ba32aa32b730b73a20b236b4b760791b8382015262000438565b620003546200033262000404565b601081526f19195858dd1a5d985d1955195b985b9d60821b8382015262000438565b620003866200036262000404565b6012815271636c6561725573657241756469744c6f677360701b8382015262000438565b620003b76200039462000404565b6011815270636c6561724f6c6441756469744c6f677360781b8382015262000438565b7f736574416c6c6f77656443726564656e7469616c547970650000000000000000620003e262000404565b916018835282015262000438565b6040516127d49081620005008239f35b5f80fd5b60408051919082016001600160401b038111838210176200042457604052565b634e487b7160e01b5f52604160045260245ffd5b8051602090910120604080519060808201908282106001600160401b0383111762000424577f2cfa70dc1722e16aa2f45c8db500f9f2abf06ff404f8b43ca5c982d2099d660c926060928252620004ec5f918281526003602082016001815285830185815287840191600183528a87526001602052620004ca88882095511515869060ff801983541691151516179055565b51600185015551600284015551151591019060ff801983541691151516179055565b81519181835260016020840152820152a256fe60406080815260049081361015610014575f80fd5b5f91823560e01c90816305e03fa8146112d55781630e70306d1461126957816316b91356146111785781633ae718f0146110db57816344e367561461105957816349045e1614610ff35781634dbc5a4a14610ed6578163526241a814610e9a578163542a086c14610de957816355293fe314610bec5781635c94522714610aae5781635d2b6a4e14610a73578163614d08f814610a1657816373eb7b4c146109b757816375df264d146109165781637faef328146108ee578163880957b11461089a5781638da5cb5b146108725781639394fa151461076857816394c49cac14610700578163955565591461064f57816399c378b314610630578163ad6e823b146105c6578163c5150a06146105aa578163f0bb9b331461058a578163fd055f6b146104b7578163fe48d24414610483578163fedbb73b1461017d575063ffa1ad741461015f575f80fd5b346101795781600319360112610179576020905160018152f35b5080fd5b838334610179576020908160031936011261047f57833561019d81612701565b835260078252808320546101b2811515611e92565b8352600282528083209160038301549261024e6101cd6120dd565b610244603d865180937f41727261792000000000000000000000000000000000000000000000000000008883015261020e815180928a6026860191016113ee565b81017f2065786365656473206d6178696d756d206c656e677468000000000000000000602682015203601d810184520182611480565b60328611156122ba565b849061026161025b612116565b86612349565b61026a85612167565b906001600160a01b03976005896003541692838a5201855260ff86892054166103ef575b50506102a561029f969493966121c1565b83612349565b6102ae82612167565b946103577f546f6f206d616e7920697465726174696f6e7320666f722000000000000000006038896102de6121c1565b6103478951917f496e76616c696420697465726174696f6e20626f756e647320666f722000000084840152610333815193603d8187850196610323818484018a6113ee565b810103601d810183520190611480565b8a51958694850152518092858501906113ee565b8101036018810183520190611480565b845b83811061039d57505050508051938080860192818752855180945286019401925b8281106103875785850386f35b835187168552938101939281019260010161037a565b6103e6906103b76103b0999697996121c1565b86836122ea565b6103c96103c2612116565b84836122ea565b896103d48286612199565b51166103e0828a612199565b5261189a565b96949396610359565b909192506104566103fe612116565b61044e6038885180937f496e646578206f7574206f6620626f756e647320666f722000000000000000008a83015261043e815180928c86860191016113ee565b8101036018810184520182611480565b8715156122ba565b82511561046c575082820152600190878061028e565b866032602492634e487b7160e01b835252fd5b8280fd5b8284346104b457816003193601126104b457506104ab6020926104a461152c565b903561225d565b90519015158152f35b80fd5b9190503461047f576020918260031936011261058657803567ffffffffffffffff811161058257936104ef83926080963691016114f8565b81606084516104fd81611434565b82815282888201528286820152015261051d6105176116bb565b826124a6565b848151910120815260018452209080519161053783611434565b60ff8154161515938484526001820154818501908152606060ff6003600286015495878901968752015416950194151585528351958652519085015251908301525115156060820152f35b8480fd5b8380fd5b8284346104b45760203660031901126104b457506104ab602092356121fa565b5050346101795781600319360112610179576020905160018152f35b50503461017957602036600319011261017957906020916105e5611516565b916105f76105f16117cb565b8461242c565b60ff826001600160a01b038095169283815260058752205416928315610622575b5050519015158152f35b600354161491505f80610618565b5050346101795781600319360112610179576020906006549051908152f35b90503461047f57606036600319011261047f5767ffffffffffffffff81358181116105825761068190369084016114f8565b61068961152c565b916044359081116106fc57366023820112156106fc579060ff856020976106be6106dc97969536906024818a013591016114be565b95338252895220541680156106e3575b6106d790611804565b611901565b9051908152f35b506106d76001600160a01b0360035416331490506106ce565b8580fd5b8284346104b45760203660031901126104b457816107649184358152600260205220916001600160a01b038354169261073b600182016115cf565b946002820154906003830154908301549160ff6007600686015495015416945197889788611551565b0390f35b90503461047f57602036600319011261047f5780359067ffffffffffffffff821161058657610799913691016114f8565b6107af6001600160a01b03600354163314611670565b6107b76116f4565b6107c26105176116bb565b602081519101207f2cfa70dc1722e16aa2f45c8db500f9f2abf06ff404f8b43ca5c982d2099d660c60608351936107f885611434565b85855261085c602086019560036001978881528483018a8152868401918a8352898c528a60205261083b878d2095511515869060ff801983541691151516179055565b518a85015551600284015551151591019060ff801983541691151516179055565b85815191818352866020840152820152a2815580f35b5050346101795781600319360112610179576020906001600160a01b03600354169051908152f35b90503461047f57602036600319011261047f5760809282913581526001602052209060ff8254169160018101549160ff60036002840154930154169281519415158552602085015283015215156060820152f35b90503461047f57602036600319011261047f5760209282913581526007845220549051908152f35b90503461047f57602036600319011261047f57803567ffffffffffffffff8111610586579261094b83926020953691016114f8565b6109566105176116bb565b848151910120815260018452209080519161097083611434565b60ff815416151592838152606060ff600360018501549485898601526002810154878601520154161515910152826109ac575b50519015158152f35b60011091505f6109a3565b90503461047f57602036600319011261047f576060928291356109d981612701565b81526007602052818120546109ef811515611e92565b81526002602052209060036006830154920154815192808452816020850152101590820152f35b505034610179578160031936011261017957805161076491610a3782611464565b600f82527f4d756c74697369674d616e61676572000000000000000000000000000000000060208301525191829160208352602083019061140f565b90503461047f57602036600319011261047f578160209360ff926001600160a01b03610a9d611516565b168252855220541690519015158152f35b9190503461047f57602090816003193601126105865782359233855280835260ff82862054168015610bd3575b610ae490611804565b610aec6116f4565b610af584612701565b8385526007835281852054610b0b811515611e92565b85526002835281852060078101916005835492610b2b60ff851615611edd565b33895201855260ff84882054168015610bbf575b15610b7d575060ff19166001179055513381527ffd6081567ca53e7c77aff76e8cc9cfb2872b64e660f64d885730829bc5a18ca19190a26001815580f35b6064908585519162461bcd60e51b8352820152601860248201527f4e6f7420617574686f72697a656420746f2063616e63656c00000000000000006044820152fd5b506001600160a01b03600354163314610b3f565b50610ae46001600160a01b036003541633149050610adb565b9190503461047f57602091826003193601126105865780359233855281815260ff83862054168015610dd0575b610c2290611804565b610c2a6116f4565b610c3384612701565b8385526007815282852054610c49811515611e92565b85526002815282852092610c6460ff60078601541615611edd565b600584019033875281835260ff8188205416610d8e57610c8b610c86336120ac565b61184f565b6006850192835492600387019384541115610d2657917fcd9f060020ea14ff6396a686f3f9e768d1a8d706f2d71827248591a66cc8b94a918893338b528152818a20600160ff19825416179055610ce2865461189a565b80965585825191338352820152a25411159182610d18575b5050610d09575b506001815580f35b610d1290611f28565b5f610d01565b015442101590505f80610cfa565b6084868385519162461bcd60e51b8352820152602760248201527f4f7065726174696f6e20616c72656164792068617320656e6f7567682073696760448201527f6e617475726573000000000000000000000000000000000000000000000000006064820152fd5b8383606492519162461bcd60e51b8352820152600e60248201527f416c7265616479207369676e65640000000000000000000000000000000000006044820152fd5b50610c226001600160a01b036003541633149050610c19565b5050346101795780600319360112610179577e8ebc621f24e0e9d1fd4ee2f7df9bb80c8d61ee30a9167a4fee6cefcf8c021e6020610e25611516565b92610e2e611542565b90610e6d6001600160a01b03610e4981600354163314611670565b861695610e57871515611747565b610e5f6116f4565b610e676117cb565b9061242c565b84865260058352610e8c828288209060ff801983541691151516179055565b519015158152a26001815580f35b5050346101795760203660031901126101795760ff816020936001600160a01b03610ec3611516565b1681526005855220541690519015158152f35b90503461047f57608036600319011261047f5780359067ffffffffffffffff821161058657610f2b6060917f2cfa70dc1722e16aa2f45c8db500f9f2abf06ff404f8b43ca5c982d2099d660c933691016114f8565b610f33611542565b906044359460643591610f526001600160a01b03600354163314611670565b610f5d6105176116bb565b610f678388612579565b6020815191012095610fe2825194610f7e86611434565b1515948581526003898b60208401868152610fc088808701938b85528d88019560018752815260016020522095511515869060ff801983541691151516179055565b51600185015551600284015551151591019060ff801983541691151516179055565b81519384526020840152820152a280f35b8383346101795760203660031901126101795760209260ff82611014611516565b94611026611020611792565b8761242c565b6001600160a01b0380961693848252875220541692831561104b575050519015158152f35b600354161491508380610618565b905082346104b45760203660031901126104b4578261076491833561107d81612701565b8152600760205281812054611093811515611e92565b81526002602052206001600160a01b03815416926002820154906003830154600684015491840154926110d0600160ff60078801541696016115cf565b975197889788611551565b90503461047f578160031936011261047f5760207ffc434b0362aed83a09eb9c1e156519bbaa55c1a15933f661daad7a139436047291611119611516565b93611122611542565b9161115b6001600160a01b0361113d81600354163314611670565b87169661114b881515611747565b6111536116f4565b610e67611792565b8587528352610e8c828288209060ff801983541691151516179055565b90503461047f57606036600319011261047f5780359067ffffffffffffffff8211610586576111cd6060917f2cfa70dc1722e16aa2f45c8db500f9f2abf06ff404f8b43ca5c982d2099d660c933691016114f8565b60243590604435906111eb6001600160a01b03600354163314611670565b6111f66105176116bb565b6112008284612579565b6020815191012094611256815161121681611434565b600181526003888a60208401888152610fc087808701938a85528c88019560018752815260016020522095511515869060ff801983541691151516179055565b805192600184526020840152820152a280f35b90503461047f57602036600319011261047f5760ff6112b5928235923386526020528420541680156112bc575b61129f90611804565b6112a76116f4565b6112b081612701565b611f28565b6001815580f35b5061129f6001600160a01b036003541633149050611296565b9190503461047f57602036600319011261047f5781356112f481612701565b835260076020528083205461130a811515611e92565b835260026020528083209282840154928342109160068601549460038701549560ff60078901541615938493846113e3575b856113da575b80966113ae575b50506001600160a01b0388541696611368600160028b01549a016115cf565b9861138488519a8b9a8b526101208060208d01528b019061140f565b978901526060880152608087015260a08601521560c0850152151560e08401526101008301520390f35b90919550428303918383116113c7575050935f80611349565b906011602492634e487b7160e01b835252fd5b86159550611342565b88831015955061133c565b5f5b8381106113ff5750505f910152565b81810151838201526020016113f0565b90602091611428815180928185528580860191016113ee565b601f01601f1916010190565b6080810190811067ffffffffffffffff82111761145057604052565b634e487b7160e01b5f52604160045260245ffd5b6040810190811067ffffffffffffffff82111761145057604052565b90601f8019910116810190811067ffffffffffffffff82111761145057604052565b67ffffffffffffffff811161145057601f01601f191660200190565b9291926114ca826114a2565b916114d86040519384611480565b8294818452818301116114f4578281602093845f960137010152565b5f80fd5b9080601f830112156114f457816020611513933591016114be565b90565b600435906001600160a01b03821682036114f457565b602435906001600160a01b03821682036114f457565b6024359081151582036114f457565b95929796939060c095926001600160a01b0361157b9216885260e0602089015260e088019061140f565b9760408701526060860152608085015260a08401521515910152565b90600182811c921680156115c5575b60208310146115b157565b634e487b7160e01b5f52602260045260245ffd5b91607f16916115a6565b9060405191825f8254926115e284611597565b9081845260019485811690815f1461164d575060011461160d575b505061160b92500383611480565b565b909391505f52602090815f20935f915b81831061163557505061160b93508201015f806115fd565b8554888401850152948501948794509183019161161d565b91505061160b94506020925060ff191682840152151560051b8201015f806115fd565b1561167757565b606460405162461bcd60e51b815260206004820152600a60248201527f4f6e6c79206f776e6572000000000000000000000000000000000000000000006044820152fd5b604051906116c882611464565b600c82527f66756e6374696f6e4e616d6500000000000000000000000000000000000000006020830152565b60025f54146117035760025f55565b606460405162461bcd60e51b815260206004820152601f60248201527f5265656e7472616e637947756172643a207265656e7472616e742063616c6c006044820152fd5b1561174e57565b606460405162461bcd60e51b815260206004820152601660248201527f496e76616c6964207369676e65722061646472657373000000000000000000006044820152fd5b6040519061179f82611464565b600682527f7369676e657200000000000000000000000000000000000000000000000000006020830152565b604051906117d882611464565b600682527f77726974657200000000000000000000000000000000000000000000000000006020830152565b1561180b57565b606460405162461bcd60e51b815260206004820152601560248201527f4e6f7420617574686f72697a6564207369676e657200000000000000000000006044820152fd5b1561185657565b606460405162461bcd60e51b815260206004820152601860248201527f4e6f7420616e20617574686f72697a6564207369676e657200000000000000006044820152fd5b5f1981146118a85760010190565b634e487b7160e01b5f52601160045260245ffd5b91607495949391835260208301526bffffffffffffffffffffffff199060601b1660408201526118f68251809360206054850191016113ee565b019060548201520190565b91909161190f6105176116bb565b611ac060405161191e81611464565b60068152602081017f74617267657400000000000000000000000000000000000000000000000000008152611953828761242c565b6119ca6040516119b860388267024b73b30b634b2160c51b968760208301525161198381602898898501906113ee565b81017f3a2063616e6e6f742062652073656c660000000000000000000000000000000087820152036018810184520182611480565b306001600160a01b03891614156122ba565b611a646038604051936119dc85611464565b6004855260208501937f64617461000000000000000000000000000000000000000000000000000000008552611a698951151560405190846020830152611a646035838b51611a2f818d8a8501906113ee565b81017f3a20656d7074792062797465730000000000000000000000000000000000000088820152036015810185520183611480565b6122ba565b7f3a20627974657320746f6f206c6f6e67000000000000000000000000000000006104008a51111595611aac6040519889956020870152518092858701906113ee565b830191820152036018810185520183611480565b6020815191012090815f52600160205260405f209160ff600360405194611ae686611434565b828154161515865260018101546020870152600281015460408701520154161580156060850152611e4e57611b1d610c86336120ac565b825115611dc657611b2f60065461189a565b93846006556040516020810190611b5c81611b4e428887898d896118bc565b03601f198101835282611480565b519020855f5260076020528060405f20555f52600260205260405f20926001600160a01b0382167fffffffffffffffffffffffff000000000000000000000000000000000000000085541617845580519067ffffffffffffffff8211611450578190611bcb6001870154611597565b601f8111611d73575b50602090601f8311600114611d08575f92611cfd575b50508160011b915f199060031b1c19161760018401555b4260028401556020840151926003810193845560408501514201948542116118a857869260206080928460047f9eed3b6475eb931a528f0d50a3b05846d8bf7361246d16c5baeb8c4514b1b5b09601998a55335f52600581018352600760405f209160ff1992600184825416179055600160068201550190815416905501519654966001600160a01b03604051921682523360208301526040820152866060820152a3827fcd9f060020ea14ff6396a686f3f9e768d1a8d706f2d71827248591a66cc8b94a6040805133815260016020820152a254600110159081611cf2575b50611ce95790565b61151381611f28565b90504210155f611ce1565b015190505f80611bea565b600187015f908152602081209350601f198516905b818110611d5b5750908460019594939210611d43575b505050811b016001840155611c01565b01515f1960f88460031b161c191690555f8080611d33565b92936020600181928786015181550195019301611d1d565b909150600186015f5260205f20601f840160051c81019160208510611dbc575b90601f859493920160051c01905b818110611dae5750611bd4565b5f8155849350600101611da1565b9091508190611d93565b91507fde924554b88334c438966539d2dd630f77a52ad8f1b32eea241db81d3d4ca0e4611e2f93611df860065461189a565b948593846006556040516020810190611e1981611b4e4286898d8d896118bc565b519020855f52600760205260405f205582612074565b604080516001600160a01b03939093168352901515602083015290a390565b606460405162461bcd60e51b815260206004820152601760248201527f46756e6374696f6e206e6f7420636f6e666967757265640000000000000000006044820152fd5b15611e9957565b606460405162461bcd60e51b815260206004820152601360248201527f4f7065726174696f6e206e6f7420666f756e64000000000000000000000000006044820152fd5b15611ee457565b606460405162461bcd60e51b815260206004820152601a60248201527f4f7065726174696f6e20616c72656164792065786563757465640000000000006044820152fd5b805f52600760205260405f205490815f52600260205260405f206007810190815491611f5760ff841615611edd565b60068201546003830154116120305760048201544210611fec5760017fde924554b88334c438966539d2dd630f77a52ad8f1b32eea241db81d3d4ca0e49360ff19161790556001600160a01b03611fbd81835416611fb7600185016115cf565b90612074565b915416611fe7604051928392839092916020906001600160a01b0360408401951683521515910152565b0390a3565b606460405162461bcd60e51b815260206004820152601460248201527f54696d656c6f636b206e6f7420657870697265640000000000000000000000006044820152fd5b606460405162461bcd60e51b815260206004820152601760248201527f496e73756666696369656e74207369676e6174757265730000000000000000006044820152fd5b5f91829182602083519301915af13d15611513573d612092816114a2565b906120a06040519283611480565b81525f60203d92013e90565b6001600160a01b03809116805f52600460205260ff60405f2054169182156120d357505090565b6003541614919050565b604051906120ea82611464565b601282527f72657175697265645369676e61747572657300000000000000000000000000006020830152565b6040519061212382611464565b600b82527f74656d705369676e6572730000000000000000000000000000000000000000006020830152565b67ffffffffffffffff81116114505760051b60200190565b906121718261214f565b61217e6040519182611480565b828152809261218f601f199161214f565b0190602036910137565b80518210156121ad5760209160051b010190565b634e487b7160e01b5f52603260045260245ffd5b604051906121ce82611464565b600782527f7369676e657273000000000000000000000000000000000000000000000000006020830152565b61220381612701565b5f52600760205260405f20548015612258575f52600260205260405f2060ff600782015416159081612245575b81612239575090565b60049150015442101590565b6006810154600382015411159150612230565b505f90565b9061226782612701565b612278612272611792565b8261242c565b5f9182526007602052604082205480156122b5579160409160ff93825260026020526001600160a01b036005848420019116825260205220541690565b505090565b156122c25750565b6122e69060405191829162461bcd60e51b835260206004840152602483019061140f565b0390fd5b9061160b9291612343603860405180957f496e646578206f7574206f6620626f756e647320666f72200000000000000000602083015261233381518092602086860191016113ee565b8101036018810186520184611480565b106122ba565b61241590612425604c61160b946040517f4d656d6f727920616c6c6f636174696f6e20746f6f206c6172676520666f722060208201526123b78251916123ad604082602087019561239d81848401896113ee565b8101036020810184520182611480565b60328711156122ba565b6040519586927f4d656d6f727920616c6c6f636174696f6e2073697a65206d757374206265207060208501527f6f73697469766520666f722000000000000000000000000000000000000000006040850152518092858501906113ee565b810103602c810185520183611480565b15156122ba565b906001600160a01b0361160b9261249e6036604051809567024b73b30b634b2160c51b60208301526124688151809260206028860191016113ee565b81017f3a207a65726f20616464726573730000000000000000000000000000000000006028820152036016810186520184611480565b1615156122ba565b906020611a64603961160b94610100815115159161252460405167024b73b30b634b2160c51b948589830152611a646036838c6124ee81519d8e92019d8e60288501906113ee565b81017f3a20656d70747920737472696e670000000000000000000000000000000000006028820152036016810185520183611480565b51111593612543604051968793602085015251809260288501906113ee565b81017f3a20737472696e6720746f6f206c6f6e670000000000000000000000000000006028820152036019810185520183611480565b6301e1338061160b92612664603761258f6120dd565b946125d36040519167024b73b30b634b2160c51b9761266b89603260209682888201526126278551956126138a8201936126098d828b60289e8f9d8e84018b6113ee565b81017f3a2062656c6f77206d696e696d756d0000000000000000000000000000000000809d820152036017810184520182611480565b60018a10156122ba565b604051948a860152518092898601906113ee565b82019461266489847f3a2061626f7665206d6178696d756d000000000000000000000000000000000098898b820152036017810186520184611480565b11156122ba565b6126ed60405161267a81611464565b601081526126d8868201937f74696d656c6f636b4475726174696f6e000000000000000000000000000000008552888d6040519283918b83015285516126c3818c85018b6113ee565b8201908a820152036017810183520190611480565b6040519a8b96870152518092858701906113ee565b830191820152036017810186520184611480565b61276861160b91612425603a60405161271981611464565b600b8152602081017f6f7065726174696f6e4964000000000000000000000000000000000000000000815260405195869267024b73b30b634b2160c51b602085015251809260288501906113ee565b81017f3a206d75737420626520706f7369746976650000000000000000000000000000602882015203601a81018552018361148056fea264697066735822122062885f377e9e9dac6bd1568dfb8f6b21963838f0f2edb442eee5af5a0cbe076564736f6c63430008140033",
  "linkReferences": {},
  "deployedLinkReferences": {}
}