{
  "_format": "hh-sol-artifact-1",
  "contractName": "InputValidator",
  "sourceName": "contracts/utility/InputValidator.sol",
  "abi": [
    {
      "inputs": [],
      "name": "MAX_BYTES_LENGTH",
      "outputs": [
        {
          "internalType": "uint256",
          "name": "",
          "type": "uint256"
        }
      ],
      "stateMutability": "view",
      "type": "function"
    },
    {
      "inputs": [],
      "name": "MAX_SIGNATURES",
      "outputs": [
        {
          "internalType": "uint256",
          "name": "",
          "type": "uint256"
        }
      ],
      "stateMutability": "view",
      "type": "function"
    },
    {
      "inputs": [],
      "name": "MAX_STRING_LENGTH",
      "outputs": [
        {
          "internalType": "uint256",
          "name": "",
          "type": "uint256"
        }
      ],
      "stateMutability": "view",
      "type": "function"
    },
    {
      "inputs": [],
      "name": "MAX_TIMELOCK_DURATION",
      "outputs": [
        {
          "internalType": "uint256",
          "name": "",
          "type": "uint256"
        }
      ],
      "stateMutability": "view",
      "type": "function"
    },
    {
      "inputs": [],
      "name": "MAX_UINT256",
      "outputs": [
        {
          "internalType": "uint256",
          "name": "",
          "type": "uint256"
        }
      ],
      "stateMutability": "view",
      "type": "function"
    },
    {
      "inputs": [],
      "name": "MIN_SIGNATURES",
      "outputs": [
        {
          "internalType": "uint256",
          "name": "",
          "type": "uint256"
        }
      ],
      "stateMutability": "view",
      "type": "function"
    },
    {
      "inputs": [],
      "name": "MIN_TIMELOCK_DURATION",
      "outputs": [
        {
          "internalType": "uint256",
          "name": "",
          "type": "uint256"
        }
      ],
      "stateMutability": "view",
      "type": "function"
    }
  ],
  "bytecode": "0x6080806040523461001a576101479081610020823930815050f35b600080fdfe60806040818152600436101561001457600080fd5b600091823560e01c908163037a3796146100fb575080631a179692146100e557806333a581d2146100ce57806334ccc5ea146100b75780633ff562b8146100a25780638da0837c1461008b5763e727283a1461006f57600080fd5b8160031936011261008757602090516301e133808152f35b5080fd5b508160031936011261008757602090516104008152f35b50816003193601126100875751908152602090f35b508160031936011261008757602090516101008152f35b508160031936011261008757516000198152602090f35b5081600319360112610087576020905160018152f35b8390816003193601126100875780603260209252f3fea26469706673582212202455f9e623122203d4012847916709bdd260f62307fefcdb7989d0daaa0f7f6564736f6c63430008140033",
  "linkReferences": {},
  "deployedLinkReferences": {}
}