{
  "_format": "hh-sol-artifact-1",
  "contractName": "KYCManager",
  "sourceName": "contracts/business/KYCManager.sol",
  "abi": [
    {
      "inputs": [
        {
          "internalType": "address",
          "name": "_kycDataStorage",
          "type": "address"
        },
        {
          "internalType": "address",
          "name": "_auditLogStorage",
          "type": "address"
        },
        {
          "internalType": "address",
          "name": "_tenantConfigStorage",
          "type": "address"
        }
      ],
      "stateMutability": "nonpayable",
      "type": "constructor"
    },
    {
      "anonymous": false,
      "inputs": [
        {
          "indexed": true,
          "internalType": "address",
          "name": "writer",
          "type": "address"
        },
        {
          "indexed": false,
          "internalType": "bool",
          "name": "authorized",
          "type": "bool"
        }
      ],
      "name": "AuthorizedWriterUpdated",
      "type": "event"
    },
    {
      "anonymous": false,
      "inputs": [
        {
          "indexed": true,
          "internalType": "address",
          "name": "user",
          "type": "address"
        },
        {
          "indexed": false,
          "internalType": "bool",
          "name": "isActive",
          "type": "bool"
        },
        {
          "indexed": false,
          "internalType": "string",
          "name": "reason",
          "type": "string"
        }
      ],
      "name": "KYCStatusUpdated",
      "type": "event"
    },
    {
      "anonymous": false,
      "inputs": [
        {
          "indexed": true,
          "internalType": "address",
          "name": "user",
          "type": "address"
        },
        {
          "indexed": false,
          "internalType": "string",
          "name": "tenantId",
          "type": "string"
        },
        {
          "indexed": false,
          "internalType": "string",
          "name": "jurisdiction",
          "type": "string"
        },
        {
          "indexed": false,
          "internalType": "uint256",
          "name": "riskScore",
          "type": "uint256"
        },
        {
          "indexed": false,
          "internalType": "uint256",
          "name": "expiresAt",
          "type": "uint256"
        }
      ],
      "name": "KYCVerified",
      "type": "event"
    },
    {
      "anonymous": false,
      "inputs": [
        {
          "indexed": true,
          "internalType": "address",
          "name": "user",
          "type": "address"
        },
        {
          "indexed": true,
          "internalType": "address",
          "name": "wallet",
          "type": "address"
        },
        {
          "indexed": false,
          "internalType": "string",
          "name": "tenantId",
          "type": "string"
        }
      ],
      "name": "WalletLinked",
      "type": "event"
    },
    {
      "anonymous": false,
      "inputs": [
        {
          "indexed": true,
          "internalType": "address",
          "name": "user",
          "type": "address"
        },
        {
          "indexed": true,
          "internalType": "address",
          "name": "wallet",
          "type": "address"
        },
        {
          "indexed": false,
          "internalType": "string",
          "name": "tenantId",
          "type": "string"
        }
      ],
      "name": "WalletUnlinked",
      "type": "event"
    },
    {
      "inputs": [],
      "name": "CONTRACT_NAME",
      "outputs": [
        {
          "internalType": "string",
          "name": "",
          "type": "string"
        }
      ],
      "stateMutability": "view",
      "type": "function"
    },
    {
      "inputs": [],
      "name": "VERSION",
      "outputs": [
        {
          "internalType": "uint256",
          "name": "",
          "type": "uint256"
        }
      ],
      "stateMutability": "view",
      "type": "function"
    },
    {
      "inputs": [],
      "name": "auditLogStorage",
      "outputs": [
        {
          "internalType": "contract AuditLogStorage",
          "name": "",
          "type": "address"
        }
      ],
      "stateMutability": "view",
      "type": "function"
    },
    {
      "inputs": [
        {
          "internalType": "address",
          "name": "",
          "type": "address"
        }
      ],
      "name": "authorizedWriters",
      "outputs": [
        {
          "internalType": "bool",
          "name": "",
          "type": "bool"
        }
      ],
      "stateMutability": "view",
      "type": "function"
    },
    {
      "inputs": [
        {
          "internalType": "address",
          "name": "user",
          "type": "address"
        },
        {
          "internalType": "uint256",
          "name": "additionalTime",
          "type": "uint256"
        },
        {
          "internalType": "string",
          "name": "reason",
          "type": "string"
        }
      ],
      "name": "extendKYCExpiry",
      "outputs": [],
      "stateMutability": "nonpayable",
      "type": "function"
    },
    {
      "inputs": [
        {
          "internalType": "address",
          "name": "user",
          "type": "address"
        }
      ],
      "name": "getKYCData",
      "outputs": [
        {
          "components": [
            {
              "internalType": "bool",
              "name": "isVerified",
              "type": "bool"
            },
            {
              "internalType": "string",
              "name": "verificationHash",
              "type": "string"
            },
            {
              "internalType": "uint256",
              "name": "verificationDate",
              "type": "uint256"
            },
            {
              "internalType": "uint256",
              "name": "riskScore",
              "type": "uint256"
            },
            {
              "internalType": "bool",
              "name": "isActive",
              "type": "bool"
            },
            {
              "internalType": "uint256",
              "name": "expiresAt",
              "type": "uint256"
            },
            {
              "internalType": "address",
              "name": "linkedWallet",
              "type": "address"
            },
            {
              "internalType": "string",
              "name": "jurisdiction",
              "type": "string"
            },
            {
              "internalType": "string",
              "name": "tenantId",
              "type": "string"
            }
          ],
          "internalType": "struct KYCDataStorage.KYCData",
          "name": "",
          "type": "tuple"
        }
      ],
      "stateMutability": "view",
      "type": "function"
    },
    {
      "inputs": [
        {
          "internalType": "address",
          "name": "user",
          "type": "address"
        }
      ],
      "name": "getKYCStatus",
      "outputs": [
        {
          "internalType": "bool",
          "name": "isVerified",
          "type": "bool"
        },
        {
          "internalType": "bool",
          "name": "isActive",
          "type": "bool"
        },
        {
          "internalType": "bool",
          "name": "isExpired",
          "type": "bool"
        }
      ],
      "stateMutability": "view",
      "type": "function"
    },
    {
      "inputs": [
        {
          "internalType": "address",
          "name": "user",
          "type": "address"
        }
      ],
      "name": "getLinkedWallets",
      "outputs": [
        {
          "internalType": "address[]",
          "name": "",
          "type": "address[]"
        }
      ],
      "stateMutability": "view",
      "type": "function"
    },
    {
      "inputs": [
        {
          "internalType": "address",
          "name": "user",
          "type": "address"
        },
        {
          "internalType": "uint256",
          "name": "count",
          "type": "uint256"
        }
      ],
      "name": "getRecentUserAuditLogs",
      "outputs": [
        {
          "components": [
            {
              "internalType": "string",
              "name": "action",
              "type": "string"
            },
            {
              "internalType": "string",
              "name": "details",
              "type": "string"
            },
            {
              "internalType": "uint256",
              "name": "timestamp",
              "type": "uint256"
            },
            {
              "internalType": "address",
              "name": "actor",
              "type": "address"
            },
            {
              "internalType": "string",
              "name": "tenantId",
              "type": "string"
            },
            {
              "internalType": "string",
              "name": "jurisdiction",
              "type": "string"
            },
            {
              "internalType": "string",
              "name": "metadata",
              "type": "string"
            }
          ],
          "internalType": "struct AuditLogStorage.AuditEntry[]",
          "name": "",
          "type": "tuple[]"
        }
      ],
      "stateMutability": "view",
      "type": "function"
    },
    {
      "inputs": [
        {
          "internalType": "string",
          "name": "tenantId",
          "type": "string"
        }
      ],
      "name": "getTenantAuditLogs",
      "outputs": [
        {
          "components": [
            {
              "internalType": "string",
              "name": "action",
              "type": "string"
            },
            {
              "internalType": "string",
              "name": "details",
              "type": "string"
            },
            {
              "internalType": "uint256",
              "name": "timestamp",
              "type": "uint256"
            },
            {
              "internalType": "address",
              "name": "actor",
              "type": "address"
            },
            {
              "internalType": "string",
              "name": "tenantId",
              "type": "string"
            },
            {
              "internalType": "string",
              "name": "jurisdiction",
              "type": "string"
            },
            {
              "internalType": "string",
              "name": "metadata",
              "type": "string"
            }
          ],
          "internalType": "struct AuditLogStorage.AuditEntry[]",
          "name": "",
          "type": "tuple[]"
        }
      ],
      "stateMutability": "view",
      "type": "function"
    },
    {
      "inputs": [
        {
          "internalType": "string",
          "name": "tenantId",
          "type": "string"
        }
      ],
      "name": "getTenantUsers",
      "outputs": [
        {
          "internalType": "address[]",
          "name": "",
          "type": "address[]"
        }
      ],
      "stateMutability": "view",
      "type": "function"
    },
    {
      "inputs": [
        {
          "internalType": "address",
          "name": "user",
          "type": "address"
        }
      ],
      "name": "getWalletCount",
      "outputs": [
        {
          "internalType": "uint256",
          "name": "",
          "type": "uint256"
        }
      ],
      "stateMutability": "view",
      "type": "function"
    },
    {
      "inputs": [
        {
          "internalType": "address",
          "name": "writer",
          "type": "address"
        }
      ],
      "name": "isAuthorizedWriter",
      "outputs": [
        {
          "internalType": "bool",
          "name": "",
          "type": "bool"
        }
      ],
      "stateMutability": "view",
      "type": "function"
    },
    {
      "inputs": [
        {
          "internalType": "address",
          "name": "user",
          "type": "address"
        }
      ],
      "name": "isKYCValid",
      "outputs": [
        {
          "internalType": "bool",
          "name": "",
          "type": "bool"
        }
      ],
      "stateMutability": "view",
      "type": "function"
    },
    {
      "inputs": [],
      "name": "kycDataStorage",
      "outputs": [
        {
          "internalType": "contract KYCDataStorage",
          "name": "",
          "type": "address"
        }
      ],
      "stateMutability": "view",
      "type": "function"
    },
    {
      "inputs": [
        {
          "internalType": "address",
          "name": "user",
          "type": "address"
        },
        {
          "internalType": "address",
          "name": "wallet",
          "type": "address"
        }
      ],
      "name": "linkWallet",
      "outputs": [],
      "stateMutability": "nonpayable",
      "type": "function"
    },
    {
      "inputs": [],
      "name": "owner",
      "outputs": [
        {
          "internalType": "address",
          "name": "",
          "type": "address"
        }
      ],
      "stateMutability": "view",
      "type": "function"
    },
    {
      "inputs": [
        {
          "internalType": "address",
          "name": "writer",
          "type": "address"
        },
        {
          "internalType": "bool",
          "name": "authorized",
          "type": "bool"
        }
      ],
      "name": "setAuthorizedWriter",
      "outputs": [],
      "stateMutability": "nonpayable",
      "type": "function"
    },
    {
      "inputs": [],
      "name": "tenantConfigStorage",
      "outputs": [
        {
          "internalType": "contract TenantConfigStorage",
          "name": "",
          "type": "address"
        }
      ],
      "stateMutability": "view",
      "type": "function"
    },
    {
      "inputs": [
        {
          "internalType": "address",
          "name": "user",
          "type": "address"
        },
        {
          "internalType": "address",
          "name": "wallet",
          "type": "address"
        }
      ],
      "name": "unlinkWallet",
      "outputs": [],
      "stateMutability": "nonpayable",
      "type": "function"
    },
    {
      "inputs": [
        {
          "internalType": "address",
          "name": "user",
          "type": "address"
        },
        {
          "internalType": "bool",
          "name": "isActive",
          "type": "bool"
        },
        {
          "internalType": "string",
          "name": "reason",
          "type": "string"
        }
      ],
      "name": "updateKYCStatus",
      "outputs": [],
      "stateMutability": "nonpayable",
      "type": "function"
    },
    {
      "inputs": [
        {
          "internalType": "address",
          "name": "user",
          "type": "address"
        },
        {
          "internalType": "uint256",
          "name": "newRiskScore",
          "type": "uint256"
        },
        {
          "internalType": "string",
          "name": "reason",
          "type": "string"
        }
      ],
      "name": "updateRiskScore",
      "outputs": [],
      "stateMutability": "nonpayable",
      "type": "function"
    },
    {
      "inputs": [
        {
          "internalType": "address",
          "name": "user",
          "type": "address"
        },
        {
          "internalType": "string",
          "name": "verificationHash",
          "type": "string"
        },
        {
          "internalType": "uint256",
          "name": "riskScore",
          "type": "uint256"
        },
        {
          "internalType": "string",
          "name": "jurisdiction",
          "type": "string"
        },
        {
          "internalType": "string",
          "name": "tenantId",
          "type": "string"
        }
      ],
      "name": "verifyKYC",
      "outputs": [],
      "stateMutability": "nonpayable",
      "type": "function"
    }
  ],
  "bytecode": "0x608034620001cc57601f62002c7238819003918201601f191683019291906001600160401b03841183851017620001d0578160609284926040968752833981010312620001cc576200005181620001e4565b6020906200006e8462000066848601620001e4565b9401620001e4565b60015f556001600160a01b039182169390919084156200018a5781169182156200013c5716928315620000ea57600460018060a01b03199333856005541617600555335f5252845f20600160ff19825416179055826001541617600155816002541617600255600354161760035551612a789081620001fa8239f35b845162461bcd60e51b815260048101849052602560248201527f496e76616c69642074656e616e7420636f6e6669672073746f72616765206164604482015264647265737360d81b6064820152608490fd5b855162461bcd60e51b815260048101859052602160248201527f496e76616c6964206175646974206c6f672073746f72616765206164647265736044820152607360f81b6064820152608490fd5b60648487519062461bcd60e51b825280600483015260248201527f496e76616c6964204b594320646174612073746f7261676520616464726573736044820152fd5b5f80fd5b634e487b7160e01b5f52604160045260245ffd5b51906001600160a01b0382168203620001cc5756fe60406080815260049081361015610014575f80fd5b5f9160e0908335821c9182620c8df014611dee57826313caf5cb14611dc557826331ac490f14611b135782633757a47c14611a87578483633eb4fe0e146116d25750826349c8a0f9146114465782634ff25b101461141d578263526241a8146113e1578263542a086c146111ef578263614d08f8146111915782637d5ce8f014610ef6578263878023d414610e435782638da5cb5b14610e1a578263a9bbaea714610afb578263ab47a2f9146109a3578263ad6e823b1461094e578263ba8243bd14610881578263cdb0ec6b146107fb578263cf0e0f9d14610730578263e48a45e41461064f578263f7fdc409146101665750508063ff3e12ca1461013f5763ffa1ad7414610121575f80fd5b3461013b578160031936011261013b576020905160018152f35b5080fd5b503461013b578160031936011261013b576020906001600160a01b03600354169051908152f35b9150913461064b576003199260a03685011261056557610184611e8b565b60249467ffffffffffffffff928635848111610647576101a79036908301611f5a565b9660443593606435868111610643576101c39036908501611f5a565b95608435908111610643576101db9036908501611f5a565b97338b5260209484865260ff898d205416801561062a575b6101fc9061215c565b6001600160a01b038093169a6102138c15156121a7565b61021f8b5115156121f2565b898d8c89808a6102638a60035416965194859384937fab1dd0c40000000000000000000000000000000000000000000000000000000085528401528c830190612007565b0381865afa91821561061f57916105e6575b50156105a557906102a98e8d8198979695948b8f8c90519586948593849363d2fc789160e01b85528401528c830190612007565b03915afa90811561059b57906102c9918891610573575b508a11156123b5565b8360015416803b1561054d578587918f8f8f8f8f926103408f93946103509361032b60a09c8c98519d8e9c8d9b8c9a7f7ec2d0e5000000000000000000000000000000000000000000000000000000008c528b015289015260a4880190612007565b9160448701528c868303016064870152612007565b908a848303016084850152612007565b03925af1801561056957908691610551575b5050826002541691610373896127dc565b926103c5603e8d5180967f4b59432076657269666965642077697468207269736b2073636f72653a2000008d8301526103b58d82519283918686019101611fe6565b810103601e810187520185611f1c565b803b1561054d578d87898f8f968f6104486104579361043860a09c8f9b899d519e8f9d8e9c8d9b634dac955d60e01b8d528c01528a0152600c60a48a01527f4b59435f5645524946494544000000000000000000000000000000000000000060c48a0152604489015260e4880190612007565b9084878303016064880152612007565b91848303016084850152612007565b03925af18015610543578b9392918591610526575b505060015416938851948593849263ab47a2f960e01b84528301525afa90811561051c577f244ece8163028be56c88b705e1763be8f8207bc9d631dad7dd04a72fcc27787196949260a06104de9795936104eb938c916104fa575b500151938551978897608089526080890190612007565b9187830390880152612007565b9284015260608301520390a280f35b61051691503d808e833e61050e8183611f1c565b810190612400565b5f6104c7565b85513d8a823e3d90fd5b61053291929450611ebb565b61053f578991835f61046c565b8280fd5b89513d86823e3d90fd5b8680fd5b61055a90611ebb565b61056557845f610362565b8480fd5b8b513d88823e3d90fd5b61058f91503d808a833e6105878183611f1c565b810190612339565b5050509150505f6102c0565b8c513d89823e3d90fd5b6064876011888b8f519362461bcd60e51b85528401528201527f54656e616e74206e6f74206163746976650000000000000000000000000000006044820152fd5b90508881813d8311610618575b6105fd8183611f1c565b810103126106145761060e9061223d565b5f610275565b8e80fd5b503d6105f3565b8d51903d90823e3d90fd5b506101fc6001600160a01b0360055416331490506101f3565b8a80fd5b8880fd5b8380fd5b8482853461053f57602036600319011261053f578282359267ffffffffffffffff841161013b576106866106db9436908301611f5a565b90610693825115156121f2565b60206001600160a01b0360015416918551968794859384937fe48a45e40000000000000000000000000000000000000000000000000000000085528401526024830190612007565b03915afa91821561072657836106fd9493610701575b50505191829182612119565b0390f35b61071e9293503d8091833e6107168183611f1c565b81019061259e565b9083806106f1565b81513d85823e3d90fd5b5083833461013b576020928360031936011261053f57836001600160a01b0360248161075a611e8b565b16916107678315156121a7565b6001541693855194859384927fcf0e0f9d0000000000000000000000000000000000000000000000000000000084528301525afa9283156107f05780936107b3575b5050519015158152f35b909192508382813d83116107e9575b6107cc8183611f1c565b810103126107e657506107de9061223d565b9083806107a9565b80fd5b503d6107c2565b8251903d90823e3d90fd5b8482853461053f57602036600319011261053f57826001600160a01b03602481610823611e8b565b16916108308315156121a7565b6001541694845195869384927fcdb0ec6b0000000000000000000000000000000000000000000000000000000084528301525afa91821561072657836106fd94936107015750505191829182612119565b8482853461053f5782816003193601126107e657610907926108a1611e8b565b6001600160a01b036108b681831615156121a7565b600254169084518096819482937fba8243bd000000000000000000000000000000000000000000000000000000008452602435918401602090939291936001600160a01b0360408201951681520152565b03915afa91821561072657836106fd9493610929575b5050519182918261202c565b6109469293503d8091833e61093e8183611f1c565b810190612620565b90838061091d565b5083833461013b57602036600319011261013b5760209260ff826001600160a01b03948561097a611e8b565b16938482528752205416928315610995575050519015158152f35b6005541614915083806107a9565b9291503461064b57602036600319011261064b576109bf611e8b565b9180516109cb81611ee3565b858152606090816020820152868382015286828201528660808201528660a08201528660c082015281868201528161010080920152866001600160a01b03809616610a178115156121a7565b60248760015416968651978893849263ab47a2f960e01b84528301525afa938415610af157876106fd96979895610ad4575b5050610ac38351978897602089528651151560208a0152602087015194610a7d6101209687898d01526101408c0190612007565b96880151818b015287015160808a01526080870151151560a08a015260a087015160c08a015260c0870151168189015285015193601f19948589830301848a0152612007565b930151918584030190850152612007565b610ae99295503d8091833e61050e8183611f1c565b925f80610a49565b83513d89823e3d90fd5b9150913461064b5760031992818436011261056557610b18611e8b565b9385610b22611ea5565b9433825260209284845260ff86842054168015610e01575b610b439061215c565b6001600160a01b039485891697610b5b8915156121a7565b86811699610b6a8b1515612553565b8760015416895161c8df60e41b81528b85820152606081602481855afa908115610df75790610ba0918991610dc7575b50612508565b803b1561054d5789517fa9bbaea70000000000000000000000000000000000000000000000000000000081526001600160a01b039283168582019081529284166020840152918791839182908490829060400103925af18015610da957908691610db3575b50508660015416858a60248b518094819363ab47a2f960e01b8352888301525afa908115610da957610c4a91610100918891610d8f575b5001519760025416916128cd565b91610c9b60318a5180957f57616c6c657420756e6c696e6b65643a200000000000000000000000000000008b830152610c8b815180928d8686019101611fe6565b8101036011810186520184611f1c565b813b15610d81578587819582610d16610d068f988f519b8c9a8b99634dac955d60e01b8b528a015260a060248a0152600f60a48a01527f57414c4c45545f554e4c494e4b4544000000000000000000000000000000000060c48a0152604489015260e4880190612007565b838782030160648801528d612007565b85810392830160848701525201925af18015610d8557610d6d575b5050610d677f9252902a55242fa1dcb7cd2f93d41cccf77a801e07e7136b407df0e04ecbe39e9351928284938452830190612007565b0390a380f35b610d7690611ebb565b610d8157855f610d31565b8580fd5b85513d84823e3d90fd5b610da391503d808a833e61050e8183611f1c565b5f610c3c565b89513d88823e3d90fd5b610dbc90611ebb565b61056557845f610c05565b610de8915060603d8111610df0575b610de08183611f1c565b8101906124db565b50505f610b9a565b503d610dd6565b8b513d8a823e3d90fd5b50610b436001600160a01b036005541633149050610b3a565b5050503461013b578160031936011261013b576020906001600160a01b03600554169051908152f35b5083833461013b576020928360031936011261053f57836001600160a01b03602481610e6d611e8b565b1691610e7a8315156121a7565b6001541693855194859384927f878023d40000000000000000000000000000000000000000000000000000000084528301525afa9283156107f0578093610ec4575b505051908152f35b909192508382813d8311610eef575b610edd8183611f1c565b810103126107e6575051908380610ebc565b503d610ed3565b9150913461064b5760031992818436011261056557610f13611e8b565b9385610f1d611ea5565b9433825260209284845260ff86842054168015611178575b610f3e9061215c565b6001600160a01b039485891697610f568915156121a7565b86811699610f658b1515612553565b8760015416895161c8df60e41b81528b85820152606081602481855afa908115610df75790610f9a918991610dc75750612508565b803b1561054d5789517f7d5ce8f00000000000000000000000000000000000000000000000000000000081526001600160a01b039283168582019081529284166020840152918791839182908490829060400103925af18015610da957908691611164575b50508660015416858a60248b518094819363ab47a2f960e01b8352888301525afa908115610da95761104391610100918891610d8f575001519760025416916128cd565b91611094602f8a5180957f57616c6c6574206c696e6b65643a2000000000000000000000000000000000008b830152611084815180928d8686019101611fe6565b810103600f810186520184611f1c565b813b15610d815785878195826110ff610d068f988f519b8c9a8b99634dac955d60e01b8b528a015260a060248a0152600d60a48a01527f57414c4c45545f4c494e4b45440000000000000000000000000000000000000060c48a0152604489015260e4880190612007565b85810392830160848701525201925af18015610d8557611150575b5050610d677fe8073e5fc35dbc602ba3eda897a74cf32f98461105e4228a17b6bfc39d03cab89351928284938452830190612007565b61115990611ebb565b610d8157855f61111a565b61116d90611ebb565b61056557845f610fff565b50610f3e6001600160a01b036005541633149050610f35565b5050503461013b578160031936011261013b5780516106fd916111b382611f00565b600a82527f4b59434d616e6167657200000000000000000000000000000000000000000000602083015251918291602083526020830190612007565b5090503461053f578160031936011261053f5761120a611e8b565b9161121361210a565b916001600160a01b038060055416330361139e57600286541461135b576112e560366112af926002895585519061124982611f00565b6006825260208201987f77726974657200000000000000000000000000000000000000000000000000008a52169786519485927f496e76616c69642000000000000000000000000000000000000000000000000060208501525180926028850190611fe6565b81017f3a207a65726f20616464726573730000000000000000000000000000000000006028820152036016810184520182611f1c565b84156113365750916020917e8ebc621f24e0e9d1fd4ee2f7df9bb80c8d61ee30a9167a4fee6cefcf8c021e9385875283528086209115159160ff1981541660ff841617905551908152a26001815580f35b611357906020935193849362461bcd60e51b85528401526024830190612007565b0390fd5b506020606492519162461bcd60e51b8352820152601f60248201527f5265656e7472616e637947756172643a207265656e7472616e742063616c6c006044820152fd5b506020606492519162461bcd60e51b8352820152600a60248201527f4f6e6c79206f776e6572000000000000000000000000000000000000000000006044820152fd5b5090503461053f57602036600319011261053f578160209360ff926001600160a01b0361140c611e8b565b168252855220541690519015158152f35b5050503461013b578160031936011261013b576020906001600160a01b03600254169051908152f35b5090503461053f576003199160603684011261064b57611464611e8b565b8461146d61210a565b60443567ffffffffffffffff811161053f5761148c9036908701611f5a565b943383528060205260ff858420541680156116b9575b6114ab9061215c565b6001600160a01b03809416966114c28815156121a7565b846001541694865161c8df60e41b815289848201526060816024818a5afa9081156116af57906114f8918791610dc75750612508565b853b156105655786517f53df9d7600000000000000000000000000000000000000000000000000000000815289848201528581604481838915159b8c60248401525af180156116af5790869161169b575b505060025416921561166057855161156081611f00565b600d81527f4b59435f414354495641544544000000000000000000000000000000000000006020820152925b803b1561056557849283888b948260206115d88e6115c886519c8d9b8c9a634dac955d60e01b8c528b015260a060248b015260a48a0190612007565b90858983030160448a0152612007565b8681039384016064880152828152601c84016084880152015201925af1801561165657611642575b505061163c7f991f3b51f93fcdba290360ab6a0051757ed4989659819e1ebe53ffb2697d4f2e9383519384938452806020850152830190612007565b0390a280f35b61164b90611ebb565b61056557845f611600565b84513d84823e3d90fd5b855161166b81611f00565b600f81527f4b59435f4445414354495641544544000000000000000000000000000000000060208201529261158c565b6116a490611ebb565b61056557845f611549565b88513d88823e3d90fd5b506114ab6001600160a01b0360055416331490506114a2565b8091858434611a82576116e436611fa0565b9291909133875260209381855260ff86892054168015611a69575b6117089061215c565b6001600160a01b0394858416946117208615156121a7565b866001541696885161c8df60e41b815287868201526060816024818c5afa90811561199d5790611756918d91611a495750612508565b88519563ab47a2f960e01b875287868801528b876024818c5afa96871561199d578c97611a2c575b5061010060608801519701519889516119ab575b803b156119a7578a517f9ff1192d0000000000000000000000000000000000000000000000000000000081526001600160a01b03909216828801908152602081018590528d91839182908490829060400103925af1801561199d57908c91611989575b50506118d59161181461180e60469360025416986127dc565b916127dc565b948a519586927f5269736b2073636f726520757064617465642066726f6d200000000000000000878501526118528151809289603888019101611fe6565b83017f20746f2000000000000000000000000000000000000000000000000000000000603882015261188d8251809389603c85019101611fe6565b017f2e20526561736f6e3a2000000000000000000000000000000000000000000000603c8201526118c682518093888785019101611fe6565b01036026810185520183611f1c565b833b156106475788958661195161193e82958b519c8d9a8b99634dac955d60e01b8b528a015260a060248a0152601260a48a01527f5249534b5f53434f52455f55504441544544000000000000000000000000000060c48a0152604489015260e4880190612007565b6003199384888303016064890152612007565b85810392830160848701525201925af190811561198057506119705750f35b61197990611ebb565b6107e65780f35b513d84823e3d90fd5b61199290611ebb565b610643578a8d6117f5565b8a513d8e823e3d90fd5b8c80fd5b6119d88d8b8d888b886003541692519586948593849363d2fc789160e01b85528401526024830190612007565b03915afa908115611a2057906119fa918f80926119ff575b50508511156123b5565b611792565b611a1392503d8091833e6105878183611f1c565b5050509150505f8f6119f0565b8e8d51903d90823e3d90fd5b611a429197508c3d8091833e61050e8183611f1c565b958d61177e565b611a61915060603d8111610df057610de08183611f1c565b50508e610b9a565b506117086001600160a01b0360055416331490506116ff565b505050fd5b8482853461053f57602036600319011261053f578282359267ffffffffffffffff841161013b57611abe6109079436908301611f5a565b90611acb825115156121f2565b60206001600160a01b0360025416918551968794859384937f3757a47c0000000000000000000000000000000000000000000000000000000085528401526024830190612007565b8490843461053f57611b2436611fa0565b9195903386528160205260ff84872054168015611dac575b611b459061215c565b6001600160a01b039182881692611b5d8415156121a7565b806001541698602460608b89519283809261c8df60e41b82528a898301525afa908115611da25790611b95918b91611d825750612508565b893b156106475783611bed9a8a92838a51809e819582947f439092b00000000000000000000000000000000000000000000000000000000084528a8401602090939291936001600160a01b0360408201951681520152565b03925af18015611d7857611d64575b879850602488826001541688519283809263ab47a2f960e01b825289888301525afa908115611d5a57611c47610100611cd0936049938d91611d40575b5001519360025416956127dc565b88519788917f4b59432065787069727920657874656e646564206279200000000000000000006020840152611c86815180926020603787019101611fe6565b82017f207365636f6e64732e20526561736f6e3a2000000000000000000000000000006037820152611cc18251809360208785019101611fe6565b01036029810188520186611f1c565b823b15611d3c5760208895918661195161193e82958b519c8d9a8b99634dac955d60e01b8b528a015260a060248a0152601360a48a01527f4b59435f4558504952595f455854454e4445440000000000000000000000000060c48a0152604489015260e4880190612007565b8780fd5b611d5491503d808f833e61050e8183611f1c565b8e611c39565b87513d8b823e3d90fd5b969097611d7090611ebb565b958790611bfc565b86513d8a823e3d90fd5b611d9a915060603d8111610df057610de08183611f1c565b50508c610b9a565b88513d8c823e3d90fd5b50611b456001600160a01b036005541633149050611b3c565b5050503461013b578160031936011261013b576020906001600160a01b03600154169051908152f35b8482853461053f57602036600319011261053f5760606001600160a01b03602481611e17611e8b565b1691611e248315156121a7565b60015416948451958693849261c8df60e41b84528301525afa80156107265783606094938192611e66575b508251931515845215156020840152151590820152f35b915050611e81919250833d8111610df057610de08183611f1c565b9092919285611e4f565b600435906001600160a01b0382168203611ea157565b5f80fd5b602435906001600160a01b0382168203611ea157565b67ffffffffffffffff8111611ecf57604052565b634e487b7160e01b5f52604160045260245ffd5b610120810190811067ffffffffffffffff821117611ecf57604052565b6040810190811067ffffffffffffffff821117611ecf57604052565b90601f8019910116810190811067ffffffffffffffff821117611ecf57604052565b67ffffffffffffffff8111611ecf57601f01601f191660200190565b81601f82011215611ea157803590611f7182611f3e565b92611f7f6040519485611f1c565b82845260208383010111611ea157815f926020809301838601378301015290565b6060600319820112611ea1576004356001600160a01b0381168103611ea15791602435916044359067ffffffffffffffff8211611ea157611fe391600401611f5a565b90565b5f5b838110611ff75750505f910152565b8181015183820152602001611fe8565b9060209161202081518092818552858086019101611fe6565b601f01601f1916010190565b602080820190808352835180925260409283810182858560051b8401019601945f925b858410612060575050505050505090565b9091929394959685806120f9600193603f198682030188528b516120e66120d36120a5612095845160e0808852870190612007565b8785015186820389880152612007565b8a8401518b86015260606001600160a01b038186015116908601526080808501519086830390870152612007565b60a0808401519085830390860152612007565b9160c08092015191818403910152612007565b99019401940192959493919061204f565b602435908115158203611ea157565b602090816040818301928281528551809452019301915f5b82811061213f575050505090565b83516001600160a01b031685529381019392810192600101612131565b1561216357565b606460405162461bcd60e51b815260206004820152600e60248201527f4e6f7420617574686f72697a65640000000000000000000000000000000000006044820152fd5b156121ae57565b606460405162461bcd60e51b815260206004820152601460248201527f496e76616c6964207573657220616464726573730000000000000000000000006044820152fd5b156121f957565b606460405162461bcd60e51b815260206004820152601160248201527f496e76616c69642074656e616e742049440000000000000000000000000000006044820152fd5b51908115158203611ea157565b81601f82011215611ea157805161226081611f3e565b9261226e6040519485611f1c565b81845260208284010111611ea157611fe39160208085019101611fe6565b67ffffffffffffffff8111611ecf5760051b60200190565b9080601f83011215611ea1578151906122bc8261228c565b926122ca6040519485611f1c565b828452602092838086019160051b83010192808411611ea157848301915b8483106122f85750505050505090565b825167ffffffffffffffff8111611ea157869161231a8484809489010161224a565b8152019201916122e8565b51906001600160a01b0382168203611ea157565b919060c083820312611ea15782519167ffffffffffffffff92838111611ea1578261236591860161224a565b936020810151848111611ea1578361237e9183016122a4565b936040820151936060830151918211611ea15761239c9183016122a4565b91611fe360a06123ae6080850161223d565b9301612325565b156123bc57565b606460405162461bcd60e51b815260206004820152601f60248201527f5269736b2073636f726520657863656564732074656e616e74206c696d6974006044820152fd5b602081830312611ea157805167ffffffffffffffff91828211611ea1570161012081840312611ea1576040519261243684611ee3565b61243f8261223d565b84526020820151838111611ea1578161245991840161224a565b6020850152604082015160408501526060820151606085015261247e6080830161223d565b608085015260a082015160a085015261249960c08301612325565b60c085015260e0820151838111611ea157816124b691840161224a565b60e08501526101009283830151908111611ea1576124d4920161224a565b9082015290565b90816060910312611ea1576124ef8161223d565b91611fe360406125016020850161223d565b930161223d565b1561250f57565b606460405162461bcd60e51b815260206004820152601160248201527f55736572206e6f742076657269666965640000000000000000000000000000006044820152fd5b1561255a57565b606460405162461bcd60e51b815260206004820152601660248201527f496e76616c69642077616c6c65742061646472657373000000000000000000006044820152fd5b6020908181840312611ea15780519067ffffffffffffffff8211611ea157019180601f84011215611ea15782516125d48161228c565b936125e26040519586611f1c565b818552838086019260051b820101928311611ea1578301905b828210612609575050505090565b83809161261584612325565b8152019101906125fb565b6020908181840312611ea157805167ffffffffffffffff91828211611ea157019083601f83011215611ea15781516126578161228c565b94604061266681519788611f1c565b828752858088019360051b86010194828611611ea157868101935b86851061269357505050505050505090565b8451868111611ea15782019060e09081601f198488030112611ea15784518281018181108a8211176127815786528a840151898111611ea157878c6126da9287010161224a565b815285840151898111611ea157878c6126f59287010161224a565b8b8201526060928385015187830152608093612712858701612325565b9083015260a093848601518b8111611ea157898e6127329289010161224a565b9083015260c093848601518b8111611ea157898e6127529289010161224a565b9083015284015192898411611ea157612772888d8097968197010161224a565b90820152815201940193612681565b60245f634e487b7160e01b81526041600452fd5b5f1981146127a35760010190565b634e487b7160e01b5f52601160045260245ffd5b9081518110156127c8570160200190565b634e487b7160e01b5f52603260045260245ffd5b80156128935780815f925b61287d57506127f582611f3e565b916128036040519384611f1c565b80835281601f1961281383611f3e565b013660208601375b61282457505090565b5f1981019081116127a3578091600a91603083830681018091116127a3577fff000000000000000000000000000000000000000000000000000000000000006128749160f81b165f1a91866127b7565b5304908161281b565b909161288a600a91612795565b929104806127e7565b506040516128a081611f00565b600181527f3000000000000000000000000000000000000000000000000000000000000000602082015290565b6001600160a01b0316604051906128e382611f00565b6010825260207f303132333435363738396162636465660000000000000000000000000000000081840152604051926060840184811067ffffffffffffffff821117611ecf57604052602a845281840160403682378451156127c857603090538351926001938410156127c857607860218601535f5b6014811061296957505050505090565b600c81018082116127a357848110156127c85782901a60047fff00000000000000000000000000000000000000000000000000000000000000600f816129b385851c8316896127b7565b511693858a1b94600290878704821488151715612a2f57868201809211612a2f576129e76129ef9493928e925f1a926127b7565b5316876127b7565b5116906003928301809311612a1c575090612a11612a1793925f1a91896127b7565b53612795565b612959565b601190634e487b7160e01b5f525260245ffd5b601186634e487b7160e01b5f525260245ffdfea26469706673582212201435d35ece69250271503c598fd2b0c732a57672718b306afd30c70d22c63ac164736f6c63430008140033",
  "linkReferences": {},
  "deployedLinkReferences": {}
}