{
  "_format": "hh-sol-artifact-1",
  "contractName": "KYCManager",
  "sourceName": "contracts/business/KYCManager.sol",
  "abi": [
    {
      "inputs": [
        {
          "internalType": "address",
          "name": "_kycDataStorage",
          "type": "address"
        },
        {
          "internalType": "address",
          "name": "_auditLogStorage",
          "type": "address"
        },
        {
          "internalType": "address",
          "name": "_tenantConfigStorage",
          "type": "address"
        }
      ],
      "stateMutability": "nonpayable",
      "type": "constructor"
    },
    {
      "anonymous": false,
      "inputs": [
        {
          "indexed": true,
          "internalType": "address",
          "name": "writer",
          "type": "address"
        },
        {
          "indexed": false,
          "internalType": "bool",
          "name": "authorized",
          "type": "bool"
        }
      ],
      "name": "AuthorizedWriterUpdated",
      "type": "event"
    },
    {
      "anonymous": false,
      "inputs": [
        {
          "indexed": true,
          "internalType": "address",
          "name": "user",
          "type": "address"
        },
        {
          "indexed": false,
          "internalType": "bool",
          "name": "isActive",
          "type": "bool"
        },
        {
          "indexed": false,
          "internalType": "string",
          "name": "reason",
          "type": "string"
        }
      ],
      "name": "KYCStatusUpdated",
      "type": "event"
    },
    {
      "anonymous": false,
      "inputs": [
        {
          "indexed": true,
          "internalType": "address",
          "name": "user",
          "type": "address"
        },
        {
          "indexed": false,
          "internalType": "string",
          "name": "tenantId",
          "type": "string"
        },
        {
          "indexed": false,
          "internalType": "string",
          "name": "jurisdiction",
          "type": "string"
        },
        {
          "indexed": false,
          "internalType": "uint256",
          "name": "riskScore",
          "type": "uint256"
        },
        {
          "indexed": false,
          "internalType": "uint256",
          "name": "expiresAt",
          "type": "uint256"
        }
      ],
      "name": "KYCVerified",
      "type": "event"
    },
    {
      "anonymous": false,
      "inputs": [
        {
          "indexed": true,
          "internalType": "address",
          "name": "user",
          "type": "address"
        },
        {
          "indexed": true,
          "internalType": "address",
          "name": "wallet",
          "type": "address"
        },
        {
          "indexed": false,
          "internalType": "string",
          "name": "tenantId",
          "type": "string"
        }
      ],
      "name": "WalletLinked",
      "type": "event"
    },
    {
      "anonymous": false,
      "inputs": [
        {
          "indexed": true,
          "internalType": "address",
          "name": "user",
          "type": "address"
        },
        {
          "indexed": true,
          "internalType": "address",
          "name": "wallet",
          "type": "address"
        },
        {
          "indexed": false,
          "internalType": "string",
          "name": "tenantId",
          "type": "string"
        }
      ],
      "name": "WalletUnlinked",
      "type": "event"
    },
    {
      "inputs": [],
      "name": "CONTRACT_NAME",
      "outputs": [
        {
          "internalType": "string",
          "name": "",
          "type": "string"
        }
      ],
      "stateMutability": "view",
      "type": "function"
    },
    {
      "inputs": [],
      "name": "VERSION",
      "outputs": [
        {
          "internalType": "uint256",
          "name": "",
          "type": "uint256"
        }
      ],
      "stateMutability": "view",
      "type": "function"
    },
    {
      "inputs": [],
      "name": "auditLogStorage",
      "outputs": [
        {
          "internalType": "contract AuditLogStorage",
          "name": "",
          "type": "address"
        }
      ],
      "stateMutability": "view",
      "type": "function"
    },
    {
      "inputs": [
        {
          "internalType": "address",
          "name": "",
          "type": "address"
        }
      ],
      "name": "authorizedWriters",
      "outputs": [
        {
          "internalType": "bool",
          "name": "",
          "type": "bool"
        }
      ],
      "stateMutability": "view",
      "type": "function"
    },
    {
      "inputs": [
        {
          "internalType": "address",
          "name": "user",
          "type": "address"
        },
        {
          "internalType": "uint256",
          "name": "additionalTime",
          "type": "uint256"
        },
        {
          "internalType": "string",
          "name": "reason",
          "type": "string"
        }
      ],
      "name": "extendKYCExpiry",
      "outputs": [],
      "stateMutability": "nonpayable",
      "type": "function"
    },
    {
      "inputs": [
        {
          "internalType": "address",
          "name": "user",
          "type": "address"
        }
      ],
      "name": "getKYCData",
      "outputs": [
        {
          "components": [
            {
              "internalType": "bool",
              "name": "isVerified",
              "type": "bool"
            },
            {
              "internalType": "string",
              "name": "verificationHash",
              "type": "string"
            },
            {
              "internalType": "uint256",
              "name": "verificationDate",
              "type": "uint256"
            },
            {
              "internalType": "uint256",
              "name": "riskScore",
              "type": "uint256"
            },
            {
              "internalType": "bool",
              "name": "isActive",
              "type": "bool"
            },
            {
              "internalType": "uint256",
              "name": "expiresAt",
              "type": "uint256"
            },
            {
              "internalType": "address",
              "name": "linkedWallet",
              "type": "address"
            },
            {
              "internalType": "string",
              "name": "jurisdiction",
              "type": "string"
            },
            {
              "internalType": "string",
              "name": "tenantId",
              "type": "string"
            }
          ],
          "internalType": "struct KYCDataStorage.KYCData",
          "name": "",
          "type": "tuple"
        }
      ],
      "stateMutability": "view",
      "type": "function"
    },
    {
      "inputs": [
        {
          "internalType": "address",
          "name": "user",
          "type": "address"
        }
      ],
      "name": "getKYCStatus",
      "outputs": [
        {
          "internalType": "bool",
          "name": "isVerified",
          "type": "bool"
        },
        {
          "internalType": "bool",
          "name": "isActive",
          "type": "bool"
        },
        {
          "internalType": "bool",
          "name": "isExpired",
          "type": "bool"
        }
      ],
      "stateMutability": "view",
      "type": "function"
    },
    {
      "inputs": [
        {
          "internalType": "address",
          "name": "user",
          "type": "address"
        }
      ],
      "name": "getLinkedWallets",
      "outputs": [
        {
          "internalType": "address[]",
          "name": "",
          "type": "address[]"
        }
      ],
      "stateMutability": "view",
      "type": "function"
    },
    {
      "inputs": [
        {
          "internalType": "address",
          "name": "user",
          "type": "address"
        },
        {
          "internalType": "uint256",
          "name": "count",
          "type": "uint256"
        }
      ],
      "name": "getRecentUserAuditLogs",
      "outputs": [
        {
          "components": [
            {
              "internalType": "string",
              "name": "action",
              "type": "string"
            },
            {
              "internalType": "string",
              "name": "details",
              "type": "string"
            },
            {
              "internalType": "uint256",
              "name": "timestamp",
              "type": "uint256"
            },
            {
              "internalType": "address",
              "name": "actor",
              "type": "address"
            },
            {
              "internalType": "string",
              "name": "tenantId",
              "type": "string"
            },
            {
              "internalType": "string",
              "name": "jurisdiction",
              "type": "string"
            },
            {
              "internalType": "string",
              "name": "metadata",
              "type": "string"
            }
          ],
          "internalType": "struct AuditLogStorage.AuditEntry[]",
          "name": "",
          "type": "tuple[]"
        }
      ],
      "stateMutability": "view",
      "type": "function"
    },
    {
      "inputs": [
        {
          "internalType": "string",
          "name": "tenantId",
          "type": "string"
        }
      ],
      "name": "getTenantAuditLogs",
      "outputs": [
        {
          "components": [
            {
              "internalType": "string",
              "name": "action",
              "type": "string"
            },
            {
              "internalType": "string",
              "name": "details",
              "type": "string"
            },
            {
              "internalType": "uint256",
              "name": "timestamp",
              "type": "uint256"
            },
            {
              "internalType": "address",
              "name": "actor",
              "type": "address"
            },
            {
              "internalType": "string",
              "name": "tenantId",
              "type": "string"
            },
            {
              "internalType": "string",
              "name": "jurisdiction",
              "type": "string"
            },
            {
              "internalType": "string",
              "name": "metadata",
              "type": "string"
            }
          ],
          "internalType": "struct AuditLogStorage.AuditEntry[]",
          "name": "",
          "type": "tuple[]"
        }
      ],
      "stateMutability": "view",
      "type": "function"
    },
    {
      "inputs": [
        {
          "internalType": "string",
          "name": "tenantId",
          "type": "string"
        }
      ],
      "name": "getTenantUsers",
      "outputs": [
        {
          "internalType": "address[]",
          "name": "",
          "type": "address[]"
        }
      ],
      "stateMutability": "view",
      "type": "function"
    },
    {
      "inputs": [
        {
          "internalType": "address",
          "name": "user",
          "type": "address"
        }
      ],
      "name": "getWalletCount",
      "outputs": [
        {
          "internalType": "uint256",
          "name": "",
          "type": "uint256"
        }
      ],
      "stateMutability": "view",
      "type": "function"
    },
    {
      "inputs": [
        {
          "internalType": "address",
          "name": "writer",
          "type": "address"
        }
      ],
      "name": "isAuthorizedWriter",
      "outputs": [
        {
          "internalType": "bool",
          "name": "",
          "type": "bool"
        }
      ],
      "stateMutability": "view",
      "type": "function"
    },
    {
      "inputs": [
        {
          "internalType": "address",
          "name": "user",
          "type": "address"
        }
      ],
      "name": "isKYCValid",
      "outputs": [
        {
          "internalType": "bool",
          "name": "",
          "type": "bool"
        }
      ],
      "stateMutability": "view",
      "type": "function"
    },
    {
      "inputs": [],
      "name": "kycDataStorage",
      "outputs": [
        {
          "internalType": "contract KYCDataStorage",
          "name": "",
          "type": "address"
        }
      ],
      "stateMutability": "view",
      "type": "function"
    },
    {
      "inputs": [
        {
          "internalType": "address",
          "name": "user",
          "type": "address"
        },
        {
          "internalType": "address",
          "name": "wallet",
          "type": "address"
        }
      ],
      "name": "linkWallet",
      "outputs": [],
      "stateMutability": "nonpayable",
      "type": "function"
    },
    {
      "inputs": [],
      "name": "owner",
      "outputs": [
        {
          "internalType": "address",
          "name": "",
          "type": "address"
        }
      ],
      "stateMutability": "view",
      "type": "function"
    },
    {
      "inputs": [
        {
          "internalType": "address",
          "name": "writer",
          "type": "address"
        },
        {
          "internalType": "bool",
          "name": "authorized",
          "type": "bool"
        }
      ],
      "name": "setAuthorizedWriter",
      "outputs": [],
      "stateMutability": "nonpayable",
      "type": "function"
    },
    {
      "inputs": [],
      "name": "tenantConfigStorage",
      "outputs": [
        {
          "internalType": "contract TenantConfigStorage",
          "name": "",
          "type": "address"
        }
      ],
      "stateMutability": "view",
      "type": "function"
    },
    {
      "inputs": [
        {
          "internalType": "address",
          "name": "user",
          "type": "address"
        },
        {
          "internalType": "address",
          "name": "wallet",
          "type": "address"
        }
      ],
      "name": "unlinkWallet",
      "outputs": [],
      "stateMutability": "nonpayable",
      "type": "function"
    },
    {
      "inputs": [
        {
          "internalType": "address",
          "name": "user",
          "type": "address"
        },
        {
          "internalType": "bool",
          "name": "isActive",
          "type": "bool"
        },
        {
          "internalType": "string",
          "name": "reason",
          "type": "string"
        }
      ],
      "name": "updateKYCStatus",
      "outputs": [],
      "stateMutability": "nonpayable",
      "type": "function"
    },
    {
      "inputs": [
        {
          "internalType": "address",
          "name": "user",
          "type": "address"
        },
        {
          "internalType": "uint256",
          "name": "newRiskScore",
          "type": "uint256"
        },
        {
          "internalType": "string",
          "name": "reason",
          "type": "string"
        }
      ],
      "name": "updateRiskScore",
      "outputs": [],
      "stateMutability": "nonpayable",
      "type": "function"
    },
    {
      "inputs": [
        {
          "internalType": "address",
          "name": "user",
          "type": "address"
        },
        {
          "internalType": "string",
          "name": "verificationHash",
          "type": "string"
        },
        {
          "internalType": "uint256",
          "name": "riskScore",
          "type": "uint256"
        },
        {
          "internalType": "string",
          "name": "jurisdiction",
          "type": "string"
        },
        {
          "internalType": "string",
          "name": "tenantId",
          "type": "string"
        }
      ],
      "name": "verifyKYC",
      "outputs": [],
      "stateMutability": "nonpayable",
      "type": "function"
    }
  ],
  "bytecode": "0x608034620001cf57601f62002c9338819003918201601f191683019291906001600160401b03841183851017620001d4578160609284926040968752833981010312620001cf576200005181620001ea565b6020906200006e8462000066848601620001ea565b9401620001ea565b60016000556001600160a01b039182169390919084156200018d5781169182156200013f5716928315620000ed57600460018060a01b03199333856005541617600555336000525284600020600160ff19825416179055826001541617600155816002541617600255600354161760035551612a939081620002008239f35b845162461bcd60e51b815260048101849052602560248201527f496e76616c69642074656e616e7420636f6e6669672073746f72616765206164604482015264647265737360d81b6064820152608490fd5b855162461bcd60e51b815260048101859052602160248201527f496e76616c6964206175646974206c6f672073746f72616765206164647265736044820152607360f81b6064820152608490fd5b60648487519062461bcd60e51b825280600483015260248201527f496e76616c6964204b594320646174612073746f7261676520616464726573736044820152fd5b600080fd5b634e487b7160e01b600052604160045260246000fd5b51906001600160a01b0382168203620001cf5756fe6040608081526004908136101561001557600080fd5b60009160e0908335821c9182620c8df014611df157826313caf5cb14611dc857826331ac490f14611b165782633757a47c14611a8a578483633eb4fe0e146116d55750826349c8a0f9146114495782634ff25b1014611420578263526241a8146113e4578263542a086c146111f2578263614d08f8146111945782637d5ce8f014610ef9578263878023d414610e465782638da5cb5b14610e1d578263a9bbaea714610afe578263ab47a2f9146109a6578263ad6e823b14610951578263ba8243bd14610884578263cdb0ec6b146107fe578263cf0e0f9d14610733578263e48a45e414610652578263f7fdc409146101695750508063ff3e12ca146101425763ffa1ad741461012457600080fd5b3461013e578160031936011261013e576020905160018152f35b5080fd5b503461013e578160031936011261013e576020906001600160a01b03600354169051908152f35b9150913461064e576003199260a03685011261056857610187611e8e565b60249467ffffffffffffffff92863584811161064a576101aa9036908301611f60565b9660443593606435868111610646576101c69036908501611f60565b95608435908111610646576101de9036908501611f60565b97338b5260209484865260ff898d205416801561062d575b6101ff90612167565b6001600160a01b038093169a6102168c15156121b2565b6102228b5115156121fd565b898d8c89808a6102668a60035416965194859384937fab1dd0c40000000000000000000000000000000000000000000000000000000085528401528c830190612010565b0381865afa91821561062257916105e9575b50156105a857906102ac8e8d8198979695948b8f8c90519586948593849363d2fc789160e01b85528401528c830190612010565b03915afa90811561059e57906102cc918891610576575b508a11156123c0565b8360015416803b15610550578587918f8f8f8f8f926103438f93946103539361032e60a09c8c98519d8e9c8d9b8c9a7f7ec2d0e5000000000000000000000000000000000000000000000000000000008c528b015289015260a4880190612010565b9160448701528c868303016064870152612010565b908a848303016084850152612010565b03925af1801561056c57908691610554575b5050826002541691610376896127ed565b926103c8603e8d5180967f4b59432076657269666965642077697468207269736b2073636f72653a2000008d8301526103b88d82519283918686019101611fed565b810103601e810187520185611f22565b803b15610550578d87898f8f968f61044b61045a9361043b60a09c8f9b899d519e8f9d8e9c8d9b634dac955d60e01b8d528c01528a0152600c60a48a01527f4b59435f5645524946494544000000000000000000000000000000000000000060c48a0152604489015260e4880190612010565b9084878303016064880152612010565b91848303016084850152612010565b03925af18015610546578b9392918591610529575b505060015416938851948593849263ab47a2f960e01b84528301525afa90811561051f577f244ece8163028be56c88b705e1763be8f8207bc9d631dad7dd04a72fcc27787196949260a06104e19795936104ee938c916104fd575b500151938551978897608089526080890190612010565b9187830390880152612010565b9284015260608301520390a280f35b61051991503d808e833e6105118183611f22565b81019061240b565b386104ca565b85513d8a823e3d90fd5b61053591929450611ebf565b610542578991833861046f565b8280fd5b89513d86823e3d90fd5b8680fd5b61055d90611ebf565b610568578438610365565b8480fd5b8b513d88823e3d90fd5b61059291503d808a833e61058a8183611f22565b810190612344565b505050915050386102c3565b8c513d89823e3d90fd5b6064876011888b8f519362461bcd60e51b85528401528201527f54656e616e74206e6f74206163746976650000000000000000000000000000006044820152fd5b90508881813d831161061b575b6106008183611f22565b810103126106175761061190612248565b38610278565b8e80fd5b503d6105f6565b8d51903d90823e3d90fd5b506101ff6001600160a01b0360055416331490506101f6565b8a80fd5b8880fd5b8380fd5b84828534610542576020366003190112610542578282359267ffffffffffffffff841161013e576106896106de9436908301611f60565b90610696825115156121fd565b60206001600160a01b0360015416918551968794859384937fe48a45e40000000000000000000000000000000000000000000000000000000085528401526024830190612010565b03915afa91821561072957836107009493610704575b50505191829182612123565b0390f35b6107219293503d8091833e6107198183611f22565b8101906125a9565b9083806106f4565b81513d85823e3d90fd5b5083833461013e576020928360031936011261054257836001600160a01b0360248161075d611e8e565b169161076a8315156121b2565b6001541693855194859384927fcf0e0f9d0000000000000000000000000000000000000000000000000000000084528301525afa9283156107f35780936107b6575b5050519015158152f35b909192508382813d83116107ec575b6107cf8183611f22565b810103126107e957506107e190612248565b9083806107ac565b80fd5b503d6107c5565b8251903d90823e3d90fd5b8482853461054257602036600319011261054257826001600160a01b03602481610826611e8e565b16916108338315156121b2565b6001541694845195869384927fcdb0ec6b0000000000000000000000000000000000000000000000000000000084528301525afa918215610729578361070094936107045750505191829182612123565b848285346105425782816003193601126107e95761090a926108a4611e8e565b6001600160a01b036108b981831615156121b2565b600254169084518096819482937fba8243bd000000000000000000000000000000000000000000000000000000008452602435918401602090939291936001600160a01b0360408201951681520152565b03915afa9182156107295783610700949361092c575b50505191829182612035565b6109499293503d8091833e6109418183611f22565b81019061262b565b908380610920565b5083833461013e57602036600319011261013e5760209260ff826001600160a01b03948561097d611e8e565b16938482528752205416928315610998575050519015158152f35b6005541614915083806107ac565b9291503461064e57602036600319011261064e576109c2611e8e565b9180516109ce81611ee9565b858152606090816020820152868382015286828201528660808201528660a08201528660c082015281868201528161010080920152866001600160a01b03809616610a1a8115156121b2565b60248760015416968651978893849263ab47a2f960e01b84528301525afa938415610af4578761070096979895610ad7575b5050610ac68351978897602089528651151560208a0152602087015194610a806101209687898d01526101408c0190612010565b96880151818b015287015160808a01526080870151151560a08a015260a087015160c08a015260c0870151168189015285015193601f19948589830301848a0152612010565b930151918584030190850152612010565b610aec9295503d8091833e6105118183611f22565b923880610a4c565b83513d89823e3d90fd5b9150913461064e5760031992818436011261056857610b1b611e8e565b9385610b25611ea9565b9433825260209284845260ff86842054168015610e04575b610b4690612167565b6001600160a01b039485891697610b5e8915156121b2565b86811699610b6d8b151561255e565b8760015416895161c8df60e41b81528b85820152606081602481855afa908115610dfa5790610ba3918991610dca575b50612513565b803b156105505789517fa9bbaea70000000000000000000000000000000000000000000000000000000081526001600160a01b039283168582019081529284166020840152918791839182908490829060400103925af18015610dac57908691610db6575b50508660015416858a60248b518094819363ab47a2f960e01b8352888301525afa908115610dac57610c4d91610100918891610d92575b5001519760025416916128e1565b91610c9e60318a5180957f57616c6c657420756e6c696e6b65643a200000000000000000000000000000008b830152610c8e815180928d8686019101611fed565b8101036011810186520184611f22565b813b15610d84578587819582610d19610d098f988f519b8c9a8b99634dac955d60e01b8b528a015260a060248a0152600f60a48a01527f57414c4c45545f554e4c494e4b4544000000000000000000000000000000000060c48a0152604489015260e4880190612010565b838782030160648801528d612010565b85810392830160848701525201925af18015610d8857610d70575b5050610d6a7f9252902a55242fa1dcb7cd2f93d41cccf77a801e07e7136b407df0e04ecbe39e9351928284938452830190612010565b0390a380f35b610d7990611ebf565b610d84578538610d34565b8580fd5b85513d84823e3d90fd5b610da691503d808a833e6105118183611f22565b38610c3f565b89513d88823e3d90fd5b610dbf90611ebf565b610568578438610c08565b610deb915060603d8111610df3575b610de38183611f22565b8101906124e6565b505038610b9d565b503d610dd9565b8b513d8a823e3d90fd5b50610b466001600160a01b036005541633149050610b3d565b5050503461013e578160031936011261013e576020906001600160a01b03600554169051908152f35b5083833461013e576020928360031936011261054257836001600160a01b03602481610e70611e8e565b1691610e7d8315156121b2565b6001541693855194859384927f878023d40000000000000000000000000000000000000000000000000000000084528301525afa9283156107f3578093610ec7575b505051908152f35b909192508382813d8311610ef2575b610ee08183611f22565b810103126107e9575051908380610ebf565b503d610ed6565b9150913461064e5760031992818436011261056857610f16611e8e565b9385610f20611ea9565b9433825260209284845260ff8684205416801561117b575b610f4190612167565b6001600160a01b039485891697610f598915156121b2565b86811699610f688b151561255e565b8760015416895161c8df60e41b81528b85820152606081602481855afa908115610dfa5790610f9d918991610dca5750612513565b803b156105505789517f7d5ce8f00000000000000000000000000000000000000000000000000000000081526001600160a01b039283168582019081529284166020840152918791839182908490829060400103925af18015610dac57908691611167575b50508660015416858a60248b518094819363ab47a2f960e01b8352888301525afa908115610dac5761104691610100918891610d92575001519760025416916128e1565b91611097602f8a5180957f57616c6c6574206c696e6b65643a2000000000000000000000000000000000008b830152611087815180928d8686019101611fed565b810103600f810186520184611f22565b813b15610d84578587819582611102610d098f988f519b8c9a8b99634dac955d60e01b8b528a015260a060248a0152600d60a48a01527f57414c4c45545f4c494e4b45440000000000000000000000000000000000000060c48a0152604489015260e4880190612010565b85810392830160848701525201925af18015610d8857611153575b5050610d6a7fe8073e5fc35dbc602ba3eda897a74cf32f98461105e4228a17b6bfc39d03cab89351928284938452830190612010565b61115c90611ebf565b610d8457853861111d565b61117090611ebf565b610568578438611002565b50610f416001600160a01b036005541633149050610f38565b5050503461013e578160031936011261013e578051610700916111b682611f06565b600a82527f4b59434d616e6167657200000000000000000000000000000000000000000000602083015251918291602083526020830190612010565b5090503461054257816003193601126105425761120d611e8e565b91611216612114565b916001600160a01b03806005541633036113a157600286541461135e576112e860366112b2926002895585519061124c82611f06565b6006825260208201987f77726974657200000000000000000000000000000000000000000000000000008a52169786519485927f496e76616c69642000000000000000000000000000000000000000000000000060208501525180926028850190611fed565b81017f3a207a65726f20616464726573730000000000000000000000000000000000006028820152036016810184520182611f22565b84156113395750916020917e8ebc621f24e0e9d1fd4ee2f7df9bb80c8d61ee30a9167a4fee6cefcf8c021e9385875283528086209115159160ff1981541660ff841617905551908152a26001815580f35b61135a906020935193849362461bcd60e51b85528401526024830190612010565b0390fd5b506020606492519162461bcd60e51b8352820152601f60248201527f5265656e7472616e637947756172643a207265656e7472616e742063616c6c006044820152fd5b506020606492519162461bcd60e51b8352820152600a60248201527f4f6e6c79206f776e6572000000000000000000000000000000000000000000006044820152fd5b50905034610542576020366003190112610542578160209360ff926001600160a01b0361140f611e8e565b168252855220541690519015158152f35b5050503461013e578160031936011261013e576020906001600160a01b03600254169051908152f35b50905034610542576003199160603684011261064e57611467611e8e565b84611470612114565b60443567ffffffffffffffff81116105425761148f9036908701611f60565b943383528060205260ff858420541680156116bc575b6114ae90612167565b6001600160a01b03809416966114c58815156121b2565b846001541694865161c8df60e41b815289848201526060816024818a5afa9081156116b257906114fb918791610dca5750612513565b853b156105685786517f53df9d7600000000000000000000000000000000000000000000000000000000815289848201528581604481838915159b8c60248401525af180156116b25790869161169e575b505060025416921561166357855161156381611f06565b600d81527f4b59435f414354495641544544000000000000000000000000000000000000006020820152925b803b1561056857849283888b948260206115db8e6115cb86519c8d9b8c9a634dac955d60e01b8c528b015260a060248b015260a48a0190612010565b90858983030160448a0152612010565b8681039384016064880152828152601c84016084880152015201925af1801561165957611645575b505061163f7f991f3b51f93fcdba290360ab6a0051757ed4989659819e1ebe53ffb2697d4f2e9383519384938452806020850152830190612010565b0390a280f35b61164e90611ebf565b610568578438611603565b84513d84823e3d90fd5b855161166e81611f06565b600f81527f4b59435f4445414354495641544544000000000000000000000000000000000060208201529261158f565b6116a790611ebf565b61056857843861154c565b88513d88823e3d90fd5b506114ae6001600160a01b0360055416331490506114a5565b8091858434611a85576116e736611fa7565b9291909133875260209381855260ff86892054168015611a6c575b61170b90612167565b6001600160a01b0394858416946117238615156121b2565b866001541696885161c8df60e41b815287868201526060816024818c5afa9081156119a05790611759918d91611a4c5750612513565b88519563ab47a2f960e01b875287868801528b876024818c5afa9687156119a0578c97611a2f575b5061010060608801519701519889516119ae575b803b156119aa578a517f9ff1192d0000000000000000000000000000000000000000000000000000000081526001600160a01b03909216828801908152602081018590528d91839182908490829060400103925af180156119a057908c9161198c575b50506118d89161181761181160469360025416986127ed565b916127ed565b948a519586927f5269736b2073636f726520757064617465642066726f6d200000000000000000878501526118558151809289603888019101611fed565b83017f20746f200000000000000000000000000000000000000000000000000000000060388201526118908251809389603c85019101611fed565b017f2e20526561736f6e3a2000000000000000000000000000000000000000000000603c8201526118c982518093888785019101611fed565b01036026810185520183611f22565b833b1561064a5788958661195461194182958b519c8d9a8b99634dac955d60e01b8b528a015260a060248a0152601260a48a01527f5249534b5f53434f52455f55504441544544000000000000000000000000000060c48a0152604489015260e4880190612010565b6003199384888303016064890152612010565b85810392830160848701525201925af190811561198357506119735750f35b61197c90611ebf565b6107e95780f35b513d84823e3d90fd5b61199590611ebf565b610646578a8d6117f8565b8a513d8e823e3d90fd5b8c80fd5b6119db8d8b8d888b886003541692519586948593849363d2fc789160e01b85528401526024830190612010565b03915afa908115611a2357906119fd918f8092611a02575b50508511156123c0565b611795565b611a1692503d8091833e61058a8183611f22565b505050915050388f6119f3565b8e8d51903d90823e3d90fd5b611a459197508c3d8091833e6105118183611f22565b958d611781565b611a64915060603d8111610df357610de38183611f22565b50508e610b9d565b5061170b6001600160a01b036005541633149050611702565b505050fd5b84828534610542576020366003190112610542578282359267ffffffffffffffff841161013e57611ac161090a9436908301611f60565b90611ace825115156121fd565b60206001600160a01b0360025416918551968794859384937f3757a47c0000000000000000000000000000000000000000000000000000000085528401526024830190612010565b8490843461054257611b2736611fa7565b9195903386528160205260ff84872054168015611daf575b611b4890612167565b6001600160a01b039182881692611b608415156121b2565b806001541698602460608b89519283809261c8df60e41b82528a898301525afa908115611da55790611b98918b91611d855750612513565b893b1561064a5783611bf09a8a92838a51809e819582947f439092b00000000000000000000000000000000000000000000000000000000084528a8401602090939291936001600160a01b0360408201951681520152565b03925af18015611d7b57611d67575b879850602488826001541688519283809263ab47a2f960e01b825289888301525afa908115611d5d57611c4a610100611cd3936049938d91611d43575b5001519360025416956127ed565b88519788917f4b59432065787069727920657874656e646564206279200000000000000000006020840152611c89815180926020603787019101611fed565b82017f207365636f6e64732e20526561736f6e3a2000000000000000000000000000006037820152611cc48251809360208785019101611fed565b01036029810188520186611f22565b823b15611d3f5760208895918661195461194182958b519c8d9a8b99634dac955d60e01b8b528a015260a060248a0152601360a48a01527f4b59435f4558504952595f455854454e4445440000000000000000000000000060c48a0152604489015260e4880190612010565b8780fd5b611d5791503d808f833e6105118183611f22565b8e611c3c565b87513d8b823e3d90fd5b969097611d7390611ebf565b958790611bff565b86513d8a823e3d90fd5b611d9d915060603d8111610df357610de38183611f22565b50508c610b9d565b88513d8c823e3d90fd5b50611b486001600160a01b036005541633149050611b3f565b5050503461013e578160031936011261013e576020906001600160a01b03600154169051908152f35b848285346105425760203660031901126105425760606001600160a01b03602481611e1a611e8e565b1691611e278315156121b2565b60015416948451958693849261c8df60e41b84528301525afa80156107295783606094938192611e69575b508251931515845215156020840152151590820152f35b915050611e84919250833d8111610df357610de38183611f22565b9092919285611e52565b600435906001600160a01b0382168203611ea457565b600080fd5b602435906001600160a01b0382168203611ea457565b67ffffffffffffffff8111611ed357604052565b634e487b7160e01b600052604160045260246000fd5b610120810190811067ffffffffffffffff821117611ed357604052565b6040810190811067ffffffffffffffff821117611ed357604052565b90601f8019910116810190811067ffffffffffffffff821117611ed357604052565b67ffffffffffffffff8111611ed357601f01601f191660200190565b81601f82011215611ea457803590611f7782611f44565b92611f856040519485611f22565b82845260208383010111611ea457816000926020809301838601378301015290565b6060600319820112611ea4576004356001600160a01b0381168103611ea45791602435916044359067ffffffffffffffff8211611ea457611fea91600401611f60565b90565b60005b8381106120005750506000910152565b8181015183820152602001611ff0565b9060209161202981518092818552858086019101611fed565b601f01601f1916010190565b602080820190808352835180925260409283810182858560051b8401019601946000925b85841061206a575050505050505090565b909192939495968580612103600193603f198682030188528b516120f06120dd6120af61209f845160e0808852870190612010565b8785015186820389880152612010565b8a8401518b86015260606001600160a01b038186015116908601526080808501519086830390870152612010565b60a0808401519085830390860152612010565b9160c08092015191818403910152612010565b990194019401929594939190612059565b602435908115158203611ea457565b6020908160408183019282815285518094520193019160005b82811061214a575050505090565b83516001600160a01b03168552938101939281019260010161213c565b1561216e57565b606460405162461bcd60e51b815260206004820152600e60248201527f4e6f7420617574686f72697a65640000000000000000000000000000000000006044820152fd5b156121b957565b606460405162461bcd60e51b815260206004820152601460248201527f496e76616c6964207573657220616464726573730000000000000000000000006044820152fd5b1561220457565b606460405162461bcd60e51b815260206004820152601160248201527f496e76616c69642074656e616e742049440000000000000000000000000000006044820152fd5b51908115158203611ea457565b81601f82011215611ea457805161226b81611f44565b926122796040519485611f22565b81845260208284010111611ea457611fea9160208085019101611fed565b67ffffffffffffffff8111611ed35760051b60200190565b9080601f83011215611ea4578151906122c782612297565b926122d56040519485611f22565b828452602092838086019160051b83010192808411611ea457848301915b8483106123035750505050505090565b825167ffffffffffffffff8111611ea457869161232584848094890101612255565b8152019201916122f3565b51906001600160a01b0382168203611ea457565b919060c083820312611ea45782519167ffffffffffffffff92838111611ea45782612370918601612255565b936020810151848111611ea457836123899183016122af565b936040820151936060830151918211611ea4576123a79183016122af565b91611fea60a06123b960808501612248565b9301612330565b156123c757565b606460405162461bcd60e51b815260206004820152601f60248201527f5269736b2073636f726520657863656564732074656e616e74206c696d6974006044820152fd5b602081830312611ea457805167ffffffffffffffff91828211611ea4570161012081840312611ea4576040519261244184611ee9565b61244a82612248565b84526020820151838111611ea45781612464918401612255565b6020850152604082015160408501526060820151606085015261248960808301612248565b608085015260a082015160a08501526124a460c08301612330565b60c085015260e0820151838111611ea457816124c1918401612255565b60e08501526101009283830151908111611ea4576124df9201612255565b9082015290565b90816060910312611ea4576124fa81612248565b91611fea604061250c60208501612248565b9301612248565b1561251a57565b606460405162461bcd60e51b815260206004820152601160248201527f55736572206e6f742076657269666965640000000000000000000000000000006044820152fd5b1561256557565b606460405162461bcd60e51b815260206004820152601660248201527f496e76616c69642077616c6c65742061646472657373000000000000000000006044820152fd5b6020908181840312611ea45780519067ffffffffffffffff8211611ea457019180601f84011215611ea45782516125df81612297565b936125ed6040519586611f22565b818552838086019260051b820101928311611ea4578301905b828210612614575050505090565b83809161262084612330565b815201910190612606565b6020908181840312611ea457805167ffffffffffffffff91828211611ea457019083601f83011215611ea457815161266281612297565b94604061267181519788611f22565b828752858088019360051b86010194828611611ea457868101935b86851061269e57505050505050505090565b8451868111611ea45782019060e09081601f198488030112611ea45784518281018181108a82111761278c5786528a840151898111611ea457878c6126e592870101612255565b815285840151898111611ea457878c61270092870101612255565b8b820152606092838501518783015260809361271d858701612330565b9083015260a093848601518b8111611ea457898e61273d92890101612255565b9083015260c093848601518b8111611ea457898e61275d92890101612255565b9083015284015192898411611ea45761277d888d80979681970101612255565b9082015281520194019361268c565b60246000634e487b7160e01b81526041600452fd5b60001981146127b05760010190565b634e487b7160e01b600052601160045260246000fd5b9081518110156127d7570160200190565b634e487b7160e01b600052603260045260246000fd5b80156128a75780816000925b612891575061280782611f44565b916128156040519384611f22565b80835281601f1961282583611f44565b013660208601375b61283657505090565b60001981019081116127b0578091600a91603083830681018091116127b0577fff000000000000000000000000000000000000000000000000000000000000006128889160f81b1660001a91866127c6565b5304908161282d565b909161289e600a916127a1565b929104806127f9565b506040516128b481611f06565b600181527f3000000000000000000000000000000000000000000000000000000000000000602082015290565b6001600160a01b0316604051906128f782611f06565b6010825260207f303132333435363738396162636465660000000000000000000000000000000081840152604051926060840184811067ffffffffffffffff821117611ed357604052602a845281840160403682378451156127d757603090538351926001938410156127d7576078602186015360005b6014811061297e57505050505090565b600c81018082116127b057848110156127d75782901a60047fff00000000000000000000000000000000000000000000000000000000000000600f816129c885851c8316896127c6565b511693858a1b94600290878704821488151715612a4857868201809211612a48576129fd612a059493928e9260001a926127c6565b5316876127c6565b5116906003928301809311612a33575090612a28612a2e939260001a91896127c6565b536127a1565b61296e565b601190634e487b7160e01b6000525260246000fd5b601186634e487b7160e01b6000525260246000fdfea2646970667358221220427998942c64f5e7758b2760fb5b6dc107b4f1ff8784c61942cdff867f33c9ba64736f6c63430008140033",
  "linkReferences": {},
  "deployedLinkReferences": {}
}