{
  "_format": "hh-sol-artifact-1",
  "contractName": "BatchOperationsSimple",
  "sourceName": "contracts/business/BatchOperationsSimple.sol",
  "abi": [
    {
      "inputs": [
        {
          "internalType": "address",
          "name": "_kycDataStorage",
          "type": "address"
        },
        {
          "internalType": "address",
          "name": "_auditLogStorage",
          "type": "address"
        },
        {
          "internalType": "address",
          "name": "_didCredentialStorage",
          "type": "address"
        }
      ],
      "stateMutability": "nonpayable",
      "type": "constructor"
    },
    {
      "anonymous": false,
      "inputs": [
        {
          "indexed": true,
          "internalType": "address",
          "name": "writer",
          "type": "address"
        },
        {
          "indexed": false,
          "internalType": "bool",
          "name": "authorized",
          "type": "bool"
        }
      ],
      "name": "AuthorizedWriterUpdated",
      "type": "event"
    },
    {
      "anonymous": false,
      "inputs": [
        {
          "indexed": true,
          "internalType": "uint256",
          "name": "batchId",
          "type": "uint256"
        },
        {
          "indexed": false,
          "internalType": "uint256",
          "name": "successCount",
          "type": "uint256"
        },
        {
          "indexed": false,
          "internalType": "uint256",
          "name": "failureCount",
          "type": "uint256"
        }
      ],
      "name": "BatchKYCOperationCompleted",
      "type": "event"
    },
    {
      "inputs": [],
      "name": "MAX_BATCH_SIZE",
      "outputs": [
        {
          "internalType": "uint256",
          "name": "",
          "type": "uint256"
        }
      ],
      "stateMutability": "view",
      "type": "function"
    },
    {
      "inputs": [
        {
          "components": [
            {
              "internalType": "address",
              "name": "user",
              "type": "address"
            },
            {
              "internalType": "string",
              "name": "tenantId",
              "type": "string"
            },
            {
              "internalType": "string",
              "name": "jurisdiction",
              "type": "string"
            },
            {
              "internalType": "string",
              "name": "documentHash",
              "type": "string"
            }
          ],
          "internalType": "struct BatchOperationsSimple.BatchKYCRequest",
          "name": "request",
          "type": "tuple"
        }
      ],
      "name": "_processSingleKYC",
      "outputs": [],
      "stateMutability": "nonpayable",
      "type": "function"
    },
    {
      "inputs": [],
      "name": "auditLogStorage",
      "outputs": [
        {
          "internalType": "contract AuditLogStorage",
          "name": "",
          "type": "address"
        }
      ],
      "stateMutability": "view",
      "type": "function"
    },
    {
      "inputs": [
        {
          "internalType": "address",
          "name": "",
          "type": "address"
        }
      ],
      "name": "authorizedWriters",
      "outputs": [
        {
          "internalType": "bool",
          "name": "",
          "type": "bool"
        }
      ],
      "stateMutability": "view",
      "type": "function"
    },
    {
      "inputs": [
        {
          "internalType": "address[]",
          "name": "users",
          "type": "address[]"
        },
        {
          "internalType": "bool",
          "name": "isActive",
          "type": "bool"
        }
      ],
      "name": "batchUpdateKYCStatus",
      "outputs": [],
      "stateMutability": "nonpayable",
      "type": "function"
    },
    {
      "inputs": [],
      "name": "didCredentialStorage",
      "outputs": [
        {
          "internalType": "contract DIDCredentialStorage",
          "name": "",
          "type": "address"
        }
      ],
      "stateMutability": "view",
      "type": "function"
    },
    {
      "inputs": [],
      "name": "getBatchLimits",
      "outputs": [
        {
          "internalType": "uint256",
          "name": "maxBatchSize",
          "type": "uint256"
        }
      ],
      "stateMutability": "pure",
      "type": "function"
    },
    {
      "inputs": [
        {
          "internalType": "address",
          "name": "writer",
          "type": "address"
        }
      ],
      "name": "isAuthorizedWriter",
      "outputs": [
        {
          "internalType": "bool",
          "name": "",
          "type": "bool"
        }
      ],
      "stateMutability": "view",
      "type": "function"
    },
    {
      "inputs": [],
      "name": "kycDataStorage",
      "outputs": [
        {
          "internalType": "contract KYCDataStorage",
          "name": "",
          "type": "address"
        }
      ],
      "stateMutability": "view",
      "type": "function"
    },
    {
      "inputs": [],
      "name": "owner",
      "outputs": [
        {
          "internalType": "address",
          "name": "",
          "type": "address"
        }
      ],
      "stateMutability": "view",
      "type": "function"
    },
    {
      "inputs": [
        {
          "components": [
            {
              "internalType": "address",
              "name": "user",
              "type": "address"
            },
            {
              "internalType": "string",
              "name": "tenantId",
              "type": "string"
            },
            {
              "internalType": "string",
              "name": "jurisdiction",
              "type": "string"
            },
            {
              "internalType": "string",
              "name": "documentHash",
              "type": "string"
            }
          ],
          "internalType": "struct BatchOperationsSimple.BatchKYCRequest[]",
          "name": "requests",
          "type": "tuple[]"
        },
        {
          "internalType": "uint256",
          "name": "batchId",
          "type": "uint256"
        }
      ],
      "name": "processBatchKYC",
      "outputs": [
        {
          "components": [
            {
              "internalType": "bool",
              "name": "success",
              "type": "bool"
            },
            {
              "internalType": "string",
              "name": "errorMessage",
              "type": "string"
            }
          ],
          "internalType": "struct BatchOperationsSimple.BatchOperationResult[]",
          "name": "results",
          "type": "tuple[]"
        }
      ],
      "stateMutability": "nonpayable",
      "type": "function"
    },
    {
      "inputs": [
        {
          "internalType": "address",
          "name": "writer",
          "type": "address"
        },
        {
          "internalType": "bool",
          "name": "authorized",
          "type": "bool"
        }
      ],
      "name": "setAuthorizedWriter",
      "outputs": [],
      "stateMutability": "nonpayable",
      "type": "function"
    }
  ],
  "bytecode": "0x6080346100c957601f61116138819003918201601f19168301916001600160401b038311848410176100ce578084926060946040528339810103126100c957610047816100e4565b906100606040610059602084016100e4565b92016100e4565b600160005560018060a01b031992338460015416176001553360005260026020526040600020600160ff1982541617905560018060a01b039283809216856003541617600355168360045416176004551690600554161760055560405161106890816100f98239f35b600080fd5b634e487b7160e01b600052604160045260246000fd5b51906001600160a01b03821682036100c95756fe608060408181526004918236101561001657600080fd5b60009260e08435811c92836313caf5cb14610c2f575082634e3d1af414610c125782634ff25b1014610bea578263526241a814610bad578263542a086c14610a6d57826365890137146108ce5782638da5cb5b146108a5578263ab843ef7146105af578263ad4b95bb146101475750508063ad6e823b146100f0578063b015b9b4146100c95763cfdbf254146100ab57600080fd5b346100c557816003193601126100c5576020905160328152f35b5080fd5b50346100c557816003193601126100c5576020906001600160a01b03600554169051908152f35b50346100c55760203660031901126100c557906020916001600160a01b039160ff828461011b610c54565b169283815260028752205416928315610139575b5050519015158152f35b60015416149150388061012f565b8385346105ac57816003193601126105ac5783359167ffffffffffffffff938484116105a857366023850112156105a857838601359261018684610cfa565b9161019384519384610cd8565b8483526020958684016024809760051b830101913683116105a457878101915b83831061057a57505050508435963383526002875260ff85842054168015610561575b6101df90610e3b565b6101e7610f92565b6101f5603285511115610e86565b8715610520578295839185519561020b87610cfa565b9661021889519889610cd8565b808852610227601f1991610cfa565b018a875b8281106104fe57505050855b81518110156104565761024a8183610ef6565b51303b1561045257878c8f6102de88948e60606102cc6102b48784519a8b998a997fab843ef7000000000000000000000000000000000000000000000000000000008b528a01526001600160a01b03875116908901528501516080604489015260a4880190610dfb565b92840151926023199384888303016064890152610dfb565b92015190848303016084850152610dfb565b038183305af19081610443575b506103e45760018760033d116103d6575b6308c379a01461038b575b61031a575b61031590610ed1565b610237565b98610383610315918a5161032d81610cbc565b8981528b518e61033c82610cbc565b600d82527f556e6b6e6f776e206572726f7200000000000000000000000000000000000000818301528201526103728d8c610ef6565b5261037d8c8b610ef6565b50610ed1565b99905061030c565b610393610f20565b8061039f575b50610307565b9a6103cf91508c899c8c51916103b483610cbc565b8b83528201526103c4848c610ef6565b5261037d838b610ef6565b998e610399565b508d88803e8751871c6102fc565b9388516103f081610cbc565b6001815289518c810181811086821117610430578b528881528c8201526103159161042a9161041f888c610ef6565b5261037d878b610ef6565b94610ed1565b8f8a60418992634e487b7160e01b835252fd5b61044c90610c92565b8e6102eb565b8780fd5b878b8a898f7f390ea4f12fc3481600081336b453774a9e6feb9604f4ff6accbd2241395355bb8f8b8591825191825287820152a260019182825580519380850191818652865180935280860182828560051b890101980194915b8483106104bd5787890388f35b90919293949584806104ec839b603f198c820301875285838c5180511515845201519181858201520190610dfb565b9a9801969594919091019201906104b0565b8a5161050981610cbc565b89815260608382015282828c010152018b9061022b565b6064896010888a89519362461bcd60e51b85528401528201527f496e76616c6964206261746368204944000000000000000000000000000000006044820152fd5b506101df6001600160a01b0360015416331490506101d6565b82358b81116105a0578a9161059583928c3691870101610d69565b8152019201916101b3565b8680fd5b8480fd5b8280fd5b80fd5b848285346105a8576020936003199285843601126105a457803567ffffffffffffffff81116108a1576105e59036908301610d69565b9030330361085f576001600160a01b0396610604888451161515610fe7565b808301938451511561081d5785840196875151156107db5789899a60039a98999a541681875116813b156107d7578991604483928d5194859384926329efcebb60e11b84528c840152600160248401525af180156107cd576107be575b50808554169551169551985192853b1561045257879389519a8b9889977fdcab700b0000000000000000000000000000000000000000000000000000000089528801526024870160c0905260c487016106b991610dfb565b838782030160448801526106cc91610dfb565b8581039283016064870152601081527f4b59435f564552494649434154494f4e0000000000000000000000000000000091810191909152603c82016084860152602e898201527f4b594320766572696669636174696f6e20636f6d706c6574656420766961206260608201527f61746368206f7065726174696f6e0000000000000000000000000000000000006080820152609c820160a4860152600760a08201527f535543434553530000000000000000000000000000000000000000000000000060c09091015201925af19081156107b557506107a9575080f35b6107b290610c92565b80f35b513d84823e3d90fd5b6107c790610c92565b8b610661565b8a513d8b823e3d90fd5b8980fd5b6064848489519162461bcd60e51b8352820152601460248201527f496e76616c6964206a7572697364696374696f6e0000000000000000000000006044820152fd5b6064838388519162461bcd60e51b8352820152601160248201527f496e76616c69642074656e616e742049440000000000000000000000000000006044820152fd5b6064908785519162461bcd60e51b8352820152601660248201527f496e7465726e616c2066756e6374696f6e206f6e6c79000000000000000000006044820152fd5b8580fd5b505050346100c557816003193601126100c5576020906001600160a01b03600154169051908152f35b509050346105a857816003193601126105a85780359167ffffffffffffffff8311610a695736602384011215610a6957828201359161090c83610cfa565b61091883519182610cd8565b8381526020948582016024809660051b83010191368311610a65579087878a9695949301915b838310610a4557505050506002610953610c83565b963385525260ff84842054168015610a2c575b61097290969296610e3b565b61097a610f92565b610988603282511115610e86565b82911515915b8151811015610a24576001600160a01b036109b6816109ad8486610ef6565b51161515610fe7565b8060035416906109c68385610ef6565b5116813b156108a157859060448a838a5195869485936329efcebb60e11b8552840152898d8401525af18015610a1a5790610a069291610a0b5750610ed1565b61098e565b610a1490610c92565b3861037d565b86513d87823e3d90fd5b836001815580f35b506109726001600160a01b036001541633149050610966565b829394959650610a558293610c6f565b815201910187899594939261093e565b8880fd5b8380fd5b848285346105a857806003193601126105a857610a88610c54565b90610a91610c83565b916001600160a01b039081600154163303610b4457610aae610f92565b16928315610b0257507e8ebc621f24e0e9d1fd4ee2f7df9bb80c8d61ee30a9167a4fee6cefcf8c021e91602091848652600283528086209115159160ff1981541660ff841617905551908152a26001815580f35b6020606492519162461bcd60e51b8352820152601660248201527f496e76616c6964207772697465722061646472657373000000000000000000006044820152fd5b608485602085519162461bcd60e51b8352820152602160248201527f4f6e6c79206f776e65722063616e2063616c6c20746869732066756e6374696f60448201527f6e000000000000000000000000000000000000000000000000000000000000006064820152fd5b505050346100c55760203660031901126100c55760ff816020936001600160a01b03610bd7610c54565b1681526002855220541690519015158152f35b508284346105ac57806003193601126105ac57506001600160a01b0360209254169051908152f35b505050346100c557816003193601126100c5576020905160328152f35b8590346100c557816003193601126100c5576020906001600160a01b03600354168152f35b600435906001600160a01b0382168203610c6a57565b600080fd5b35906001600160a01b0382168203610c6a57565b602435908115158203610c6a57565b67ffffffffffffffff8111610ca657604052565b634e487b7160e01b600052604160045260246000fd5b6040810190811067ffffffffffffffff821117610ca657604052565b90601f8019910116810190811067ffffffffffffffff821117610ca657604052565b67ffffffffffffffff8111610ca65760051b60200190565b81601f82011215610c6a5780359067ffffffffffffffff8211610ca65760405192610d47601f8401601f191660200185610cd8565b82845260208383010111610c6a57816000926020809301838601378301015290565b919091608081840312610c6a576040519067ffffffffffffffff906080830182811184821017610ca6576040528294610da182610c6f565b84526020820135838111610c6a5781610dbb918401610d12565b60208501526040820135838111610c6a5781610dd8918401610d12565b60408501526060820135928311610c6a57606092610df69201610d12565b910152565b919082519283825260005b848110610e27575050826000602080949584010152601f8019910116010190565b602081830181015184830182015201610e06565b15610e4257565b606460405162461bcd60e51b815260206004820152601760248201527f4e6f7420617574686f72697a656420746f2077726974650000000000000000006044820152fd5b15610e8d57565b606460405162461bcd60e51b815260206004820152601460248201527f42617463682073697a6520746f6f206c617267650000000000000000000000006044820152fd5b6000198114610ee05760010190565b634e487b7160e01b600052601160045260246000fd5b8051821015610f0a5760209160051b010190565b634e487b7160e01b600052603260045260246000fd5b600060443d10610f7e57604051600319913d83016004833e815167ffffffffffffffff918282113d602484011117610f8157818401948551938411610f89573d85010160208487010111610f815750610f7e92910160200190610cd8565b90565b949350505050565b50949350505050565b600260005414610fa3576002600055565b606460405162461bcd60e51b815260206004820152601f60248201527f5265656e7472616e637947756172643a207265656e7472616e742063616c6c006044820152fd5b15610fee57565b606460405162461bcd60e51b815260206004820152601460248201527f496e76616c6964207573657220616464726573730000000000000000000000006044820152fdfea26469706673582212209649d8a0d886b475a4484448fde41617e1a5c5c1b7f514f374cacc89c2d8bdb864736f6c63430008140033",
  "linkReferences": {},
  "deployedLinkReferences": {}
}