{
  "_format": "hh-sol-artifact-1",
  "contractName": "BatchOperationsSimple",
  "sourceName": "contracts/business/BatchOperationsSimple.sol",
  "abi": [
    {
      "inputs": [
        {
          "internalType": "address",
          "name": "_kycDataStorage",
          "type": "address"
        },
        {
          "internalType": "address",
          "name": "_auditLogStorage",
          "type": "address"
        },
        {
          "internalType": "address",
          "name": "_didCredentialStorage",
          "type": "address"
        }
      ],
      "stateMutability": "nonpayable",
      "type": "constructor"
    },
    {
      "anonymous": false,
      "inputs": [
        {
          "indexed": true,
          "internalType": "address",
          "name": "writer",
          "type": "address"
        },
        {
          "indexed": false,
          "internalType": "bool",
          "name": "authorized",
          "type": "bool"
        }
      ],
      "name": "AuthorizedWriterUpdated",
      "type": "event"
    },
    {
      "anonymous": false,
      "inputs": [
        {
          "indexed": true,
          "internalType": "uint256",
          "name": "batchId",
          "type": "uint256"
        },
        {
          "indexed": false,
          "internalType": "uint256",
          "name": "successCount",
          "type": "uint256"
        },
        {
          "indexed": false,
          "internalType": "uint256",
          "name": "failureCount",
          "type": "uint256"
        }
      ],
      "name": "BatchKYCOperationCompleted",
      "type": "event"
    },
    {
      "inputs": [],
      "name": "MAX_BATCH_SIZE",
      "outputs": [
        {
          "internalType": "uint256",
          "name": "",
          "type": "uint256"
        }
      ],
      "stateMutability": "view",
      "type": "function"
    },
    {
      "inputs": [
        {
          "components": [
            {
              "internalType": "address",
              "name": "user",
              "type": "address"
            },
            {
              "internalType": "string",
              "name": "tenantId",
              "type": "string"
            },
            {
              "internalType": "string",
              "name": "jurisdiction",
              "type": "string"
            },
            {
              "internalType": "string",
              "name": "documentHash",
              "type": "string"
            }
          ],
          "internalType": "struct BatchOperationsSimple.BatchKYCRequest",
          "name": "request",
          "type": "tuple"
        }
      ],
      "name": "_processSingleKYC",
      "outputs": [],
      "stateMutability": "nonpayable",
      "type": "function"
    },
    {
      "inputs": [],
      "name": "auditLogStorage",
      "outputs": [
        {
          "internalType": "contract AuditLogStorage",
          "name": "",
          "type": "address"
        }
      ],
      "stateMutability": "view",
      "type": "function"
    },
    {
      "inputs": [
        {
          "internalType": "address",
          "name": "",
          "type": "address"
        }
      ],
      "name": "authorizedWriters",
      "outputs": [
        {
          "internalType": "bool",
          "name": "",
          "type": "bool"
        }
      ],
      "stateMutability": "view",
      "type": "function"
    },
    {
      "inputs": [
        {
          "internalType": "address[]",
          "name": "users",
          "type": "address[]"
        },
        {
          "internalType": "bool",
          "name": "isActive",
          "type": "bool"
        }
      ],
      "name": "batchUpdateKYCStatus",
      "outputs": [],
      "stateMutability": "nonpayable",
      "type": "function"
    },
    {
      "inputs": [],
      "name": "didCredentialStorage",
      "outputs": [
        {
          "internalType": "contract DIDCredentialStorage",
          "name": "",
          "type": "address"
        }
      ],
      "stateMutability": "view",
      "type": "function"
    },
    {
      "inputs": [],
      "name": "getBatchLimits",
      "outputs": [
        {
          "internalType": "uint256",
          "name": "maxBatchSize",
          "type": "uint256"
        }
      ],
      "stateMutability": "pure",
      "type": "function"
    },
    {
      "inputs": [
        {
          "internalType": "address",
          "name": "writer",
          "type": "address"
        }
      ],
      "name": "isAuthorizedWriter",
      "outputs": [
        {
          "internalType": "bool",
          "name": "",
          "type": "bool"
        }
      ],
      "stateMutability": "view",
      "type": "function"
    },
    {
      "inputs": [],
      "name": "kycDataStorage",
      "outputs": [
        {
          "internalType": "contract KYCDataStorage",
          "name": "",
          "type": "address"
        }
      ],
      "stateMutability": "view",
      "type": "function"
    },
    {
      "inputs": [],
      "name": "owner",
      "outputs": [
        {
          "internalType": "address",
          "name": "",
          "type": "address"
        }
      ],
      "stateMutability": "view",
      "type": "function"
    },
    {
      "inputs": [
        {
          "components": [
            {
              "internalType": "address",
              "name": "user",
              "type": "address"
            },
            {
              "internalType": "string",
              "name": "tenantId",
              "type": "string"
            },
            {
              "internalType": "string",
              "name": "jurisdiction",
              "type": "string"
            },
            {
              "internalType": "string",
              "name": "documentHash",
              "type": "string"
            }
          ],
          "internalType": "struct BatchOperationsSimple.BatchKYCRequest[]",
          "name": "requests",
          "type": "tuple[]"
        },
        {
          "internalType": "uint256",
          "name": "batchId",
          "type": "uint256"
        }
      ],
      "name": "processBatchKYC",
      "outputs": [
        {
          "components": [
            {
              "internalType": "bool",
              "name": "success",
              "type": "bool"
            },
            {
              "internalType": "string",
              "name": "errorMessage",
              "type": "string"
            }
          ],
          "internalType": "struct BatchOperationsSimple.BatchOperationResult[]",
          "name": "results",
          "type": "tuple[]"
        }
      ],
      "stateMutability": "nonpayable",
      "type": "function"
    },
    {
      "inputs": [
        {
          "internalType": "address",
          "name": "writer",
          "type": "address"
        },
        {
          "internalType": "bool",
          "name": "authorized",
          "type": "bool"
        }
      ],
      "name": "setAuthorizedWriter",
      "outputs": [],
      "stateMutability": "nonpayable",
      "type": "function"
    }
  ],
  "bytecode": "0x6080346100c657601f61114a38819003918201601f19168301916001600160401b038311848410176100ca578084926060946040528339810103126100c657610047816100de565b906100606040610059602084016100de565b92016100de565b60015f5560018060a01b03199233846001541617600155335f52600260205260405f20600160ff1982541617905560018060a01b039283809216856003541617600355168360045416176004551690600554161760055560405161105790816100f38239f35b5f80fd5b634e487b7160e01b5f52604160045260245ffd5b51906001600160a01b03821682036100c65756fe6080604081815260049182361015610015575f80fd5b5f9260e08435811c92836313caf5cb14610c2c575082634e3d1af414610c0f5782634ff25b1014610be7578263526241a814610baa578263542a086c14610a6a57826365890137146108cb5782638da5cb5b146108a2578263ab843ef7146105ac578263ad4b95bb146101445750508063ad6e823b146100ed578063b015b9b4146100c65763cfdbf254146100a8575f80fd5b346100c257816003193601126100c2576020905160328152f35b5080fd5b50346100c257816003193601126100c2576020906001600160a01b03600554169051908152f35b50346100c25760203660031901126100c257906020916001600160a01b039160ff8284610118610c51565b169283815260028752205416928315610136575b5050519015158152f35b600154161491505f8061012c565b8385346105a957816003193601126105a95783359167ffffffffffffffff938484116105a557366023850112156105a557838601359261018384610cf4565b9161019084519384610cd2565b8483526020958684016024809760051b830101913683116105a157878101915b83831061057757505050508435963383526002875260ff8584205416801561055e575b6101dc90610e32565b6101e4610f83565b6101f2603285511115610e7d565b871561051d578295839185519561020887610cf4565b9661021589519889610cd2565b808852610224601f1991610cf4565b018a875b8281106104fb57505050855b8151811015610453576102478183610eea565b51303b1561044f57878c8f6102db88948e60606102c96102b18784519a8b998a997fab843ef7000000000000000000000000000000000000000000000000000000008b528a01526001600160a01b03875116908901528501516080604489015260a4880190610df4565b92840151926023199384888303016064890152610df4565b92015190848303016084850152610df4565b038183305af19081610440575b506103e15760018760033d116103d3575b6308c379a014610388575b610317575b61031290610ec8565b610234565b98610380610312918a5161032a81610cb6565b8981528b518e61033982610cb6565b600d82527f556e6b6e6f776e206572726f72000000000000000000000000000000000000008183015282015261036f8d8c610eea565b5261037a8c8b610eea565b50610ec8565b999050610309565b610390610f12565b8061039c575b50610304565b9a6103cc91508c899c8c51916103b183610cb6565b8b83528201526103c1848c610eea565b5261037a838b610eea565b998e610396565b508d88803e8751871c6102f9565b9388516103ed81610cb6565b6001815289518c81018181108682111761042d578b528881528c820152610312916104279161041c888c610eea565b5261037a878b610eea565b94610ec8565b8f8a60418992634e487b7160e01b835252fd5b61044990610c8e565b8e6102e8565b8780fd5b878b8a898f7f390ea4f12fc3481600081336b453774a9e6feb9604f4ff6accbd2241395355bb8f8b8591825191825287820152a260019182825580519380850191818652865180935280860182828560051b890101980194915b8483106104ba5787890388f35b90919293949584806104e9839b603f198c820301875285838c5180511515845201519181858201520190610df4565b9a9801969594919091019201906104ad565b8a5161050681610cb6565b89815260608382015282828c010152018b90610228565b6064896010888a89519362461bcd60e51b85528401528201527f496e76616c6964206261746368204944000000000000000000000000000000006044820152fd5b506101dc6001600160a01b0360015416331490506101d3565b82358b811161059d578a9161059283928c3691870101610d62565b8152019201916101b0565b8680fd5b8480fd5b8280fd5b80fd5b848285346105a5576020936003199285843601126105a157803567ffffffffffffffff811161089e576105e29036908301610d62565b9030330361085c576001600160a01b0396610601888451161515610fd6565b808301938451511561081a5785840196875151156107d85789899a60039a98999a541681875116813b156107d4578991604483928d5194859384926329efcebb60e11b84528c840152600160248401525af180156107ca576107bb575b50808554169551169551985192853b1561044f57879389519a8b9889977fdcab700b0000000000000000000000000000000000000000000000000000000089528801526024870160c0905260c487016106b691610df4565b838782030160448801526106c991610df4565b8581039283016064870152601081527f4b59435f564552494649434154494f4e0000000000000000000000000000000091810191909152603c82016084860152602e898201527f4b594320766572696669636174696f6e20636f6d706c6574656420766961206260608201527f61746368206f7065726174696f6e0000000000000000000000000000000000006080820152609c820160a4860152600760a08201527f535543434553530000000000000000000000000000000000000000000000000060c09091015201925af19081156107b257506107a6575080f35b6107af90610c8e565b80f35b513d84823e3d90fd5b6107c490610c8e565b8b61065e565b8a513d8b823e3d90fd5b8980fd5b6064848489519162461bcd60e51b8352820152601460248201527f496e76616c6964206a7572697364696374696f6e0000000000000000000000006044820152fd5b6064838388519162461bcd60e51b8352820152601160248201527f496e76616c69642074656e616e742049440000000000000000000000000000006044820152fd5b6064908785519162461bcd60e51b8352820152601660248201527f496e7465726e616c2066756e6374696f6e206f6e6c79000000000000000000006044820152fd5b8580fd5b505050346100c257816003193601126100c2576020906001600160a01b03600154169051908152f35b509050346105a557816003193601126105a55780359167ffffffffffffffff8311610a665736602384011215610a6657828201359161090983610cf4565b61091583519182610cd2565b8381526020948582016024809660051b83010191368311610a62579087878a9695949301915b838310610a4257505050506002610950610c7f565b963385525260ff84842054168015610a29575b61096f90969296610e32565b610977610f83565b610985603282511115610e7d565b82911515915b8151811015610a21576001600160a01b036109b3816109aa8486610eea565b51161515610fd6565b8060035416906109c38385610eea565b5116813b1561089e57859060448a838a5195869485936329efcebb60e11b8552840152898d8401525af18015610a175790610a039291610a085750610ec8565b61098b565b610a1190610c8e565b5f61037a565b86513d87823e3d90fd5b836001815580f35b5061096f6001600160a01b036001541633149050610963565b829394959650610a528293610c6b565b815201910187899594939261093b565b8880fd5b8380fd5b848285346105a557806003193601126105a557610a85610c51565b90610a8e610c7f565b916001600160a01b039081600154163303610b4157610aab610f83565b16928315610aff57507e8ebc621f24e0e9d1fd4ee2f7df9bb80c8d61ee30a9167a4fee6cefcf8c021e91602091848652600283528086209115159160ff1981541660ff841617905551908152a26001815580f35b6020606492519162461bcd60e51b8352820152601660248201527f496e76616c6964207772697465722061646472657373000000000000000000006044820152fd5b608485602085519162461bcd60e51b8352820152602160248201527f4f6e6c79206f776e65722063616e2063616c6c20746869732066756e6374696f60448201527f6e000000000000000000000000000000000000000000000000000000000000006064820152fd5b505050346100c25760203660031901126100c25760ff816020936001600160a01b03610bd4610c51565b1681526002855220541690519015158152f35b508284346105a957806003193601126105a957506001600160a01b0360209254169051908152f35b505050346100c257816003193601126100c2576020905160328152f35b8590346100c257816003193601126100c2576020906001600160a01b03600354168152f35b600435906001600160a01b0382168203610c6757565b5f80fd5b35906001600160a01b0382168203610c6757565b602435908115158203610c6757565b67ffffffffffffffff8111610ca257604052565b634e487b7160e01b5f52604160045260245ffd5b6040810190811067ffffffffffffffff821117610ca257604052565b90601f8019910116810190811067ffffffffffffffff821117610ca257604052565b67ffffffffffffffff8111610ca25760051b60200190565b81601f82011215610c675780359067ffffffffffffffff8211610ca25760405192610d41601f8401601f191660200185610cd2565b82845260208383010111610c6757815f926020809301838601378301015290565b919091608081840312610c67576040519067ffffffffffffffff906080830182811184821017610ca2576040528294610d9a82610c6b565b84526020820135838111610c675781610db4918401610d0c565b60208501526040820135838111610c675781610dd1918401610d0c565b60408501526060820135928311610c6757606092610def9201610d0c565b910152565b91908251928382525f5b848110610e1e575050825f602080949584010152601f8019910116010190565b602081830181015184830182015201610dfe565b15610e3957565b606460405162461bcd60e51b815260206004820152601760248201527f4e6f7420617574686f72697a656420746f2077726974650000000000000000006044820152fd5b15610e8457565b606460405162461bcd60e51b815260206004820152601460248201527f42617463682073697a6520746f6f206c617267650000000000000000000000006044820152fd5b5f198114610ed65760010190565b634e487b7160e01b5f52601160045260245ffd5b8051821015610efe5760209160051b010190565b634e487b7160e01b5f52603260045260245ffd5b5f60443d10610f6f57604051600319913d83016004833e815167ffffffffffffffff918282113d602484011117610f7257818401948551938411610f7a573d85010160208487010111610f725750610f6f92910160200190610cd2565b90565b949350505050565b50949350505050565b60025f5414610f925760025f55565b606460405162461bcd60e51b815260206004820152601f60248201527f5265656e7472616e637947756172643a207265656e7472616e742063616c6c006044820152fd5b15610fdd57565b606460405162461bcd60e51b815260206004820152601460248201527f496e76616c6964207573657220616464726573730000000000000000000000006044820152fdfea2646970667358221220844c482303771f3345ee0bd0c5e9cba945b87be074bf3c0dbb935ca1f2c071d464736f6c63430008140033",
  "linkReferences": {},
  "deployedLinkReferences": {}
}