{
  "_format": "hh-sol-artifact-1",
  "contractName": "DIDManager",
  "sourceName": "contracts/business/DIDManager.sol",
  "abi": [
    {
      "inputs": [
        {
          "internalType": "address",
          "name": "_didCredentialStorage",
          "type": "address"
        },
        {
          "internalType": "address",
          "name": "_auditLogStorage",
          "type": "address"
        }
      ],
      "stateMutability": "nonpayable",
      "type": "constructor"
    },
    {
      "anonymous": false,
      "inputs": [
        {
          "indexed": true,
          "internalType": "address",
          "name": "issuer",
          "type": "address"
        },
        {
          "indexed": false,
          "internalType": "bool",
          "name": "authorized",
          "type": "bool"
        }
      ],
      "name": "AuthorizedIssuerUpdated",
      "type": "event"
    },
    {
      "anonymous": false,
      "inputs": [
        {
          "indexed": true,
          "internalType": "address",
          "name": "writer",
          "type": "address"
        },
        {
          "indexed": false,
          "internalType": "bool",
          "name": "authorized",
          "type": "bool"
        }
      ],
      "name": "AuthorizedWriterUpdated",
      "type": "event"
    },
    {
      "anonymous": false,
      "inputs": [
        {
          "indexed": true,
          "internalType": "string",
          "name": "did",
          "type": "string"
        },
        {
          "indexed": false,
          "internalType": "string",
          "name": "credentialType",
          "type": "string"
        },
        {
          "indexed": false,
          "internalType": "string",
          "name": "jurisdiction",
          "type": "string"
        },
        {
          "indexed": false,
          "internalType": "address",
          "name": "issuer",
          "type": "address"
        },
        {
          "indexed": false,
          "internalType": "uint256",
          "name": "expiresAt",
          "type": "uint256"
        }
      ],
      "name": "CredentialIssued",
      "type": "event"
    },
    {
      "anonymous": false,
      "inputs": [
        {
          "indexed": true,
          "internalType": "string",
          "name": "did",
          "type": "string"
        },
        {
          "indexed": false,
          "internalType": "string",
          "name": "credentialHash",
          "type": "string"
        },
        {
          "indexed": false,
          "internalType": "address",
          "name": "revoker",
          "type": "address"
        },
        {
          "indexed": false,
          "internalType": "uint256",
          "name": "timestamp",
          "type": "uint256"
        }
      ],
      "name": "CredentialRevoked",
      "type": "event"
    },
    {
      "anonymous": false,
      "inputs": [
        {
          "indexed": true,
          "internalType": "string",
          "name": "did",
          "type": "string"
        },
        {
          "indexed": true,
          "internalType": "address",
          "name": "address_",
          "type": "address"
        },
        {
          "indexed": false,
          "internalType": "uint256",
          "name": "timestamp",
          "type": "uint256"
        }
      ],
      "name": "DIDLinked",
      "type": "event"
    },
    {
      "anonymous": false,
      "inputs": [
        {
          "indexed": true,
          "internalType": "string",
          "name": "did",
          "type": "string"
        },
        {
          "indexed": true,
          "internalType": "address",
          "name": "address_",
          "type": "address"
        },
        {
          "indexed": false,
          "internalType": "uint256",
          "name": "timestamp",
          "type": "uint256"
        }
      ],
      "name": "DIDUnlinked",
      "type": "event"
    },
    {
      "inputs": [],
      "name": "CONTRACT_NAME",
      "outputs": [
        {
          "internalType": "string",
          "name": "",
          "type": "string"
        }
      ],
      "stateMutability": "view",
      "type": "function"
    },
    {
      "inputs": [],
      "name": "VERSION",
      "outputs": [
        {
          "internalType": "uint256",
          "name": "",
          "type": "uint256"
        }
      ],
      "stateMutability": "view",
      "type": "function"
    },
    {
      "inputs": [],
      "name": "auditLogStorage",
      "outputs": [
        {
          "internalType": "contract AuditLogStorage",
          "name": "",
          "type": "address"
        }
      ],
      "stateMutability": "view",
      "type": "function"
    },
    {
      "inputs": [
        {
          "internalType": "address",
          "name": "",
          "type": "address"
        }
      ],
      "name": "authorizedIssuers",
      "outputs": [
        {
          "internalType": "bool",
          "name": "",
          "type": "bool"
        }
      ],
      "stateMutability": "view",
      "type": "function"
    },
    {
      "inputs": [
        {
          "internalType": "address",
          "name": "",
          "type": "address"
        }
      ],
      "name": "authorizedWriters",
      "outputs": [
        {
          "internalType": "bool",
          "name": "",
          "type": "bool"
        }
      ],
      "stateMutability": "view",
      "type": "function"
    },
    {
      "inputs": [],
      "name": "didCredentialStorage",
      "outputs": [
        {
          "internalType": "contract DIDCredentialStorage",
          "name": "",
          "type": "address"
        }
      ],
      "stateMutability": "view",
      "type": "function"
    },
    {
      "inputs": [
        {
          "internalType": "string",
          "name": "did",
          "type": "string"
        }
      ],
      "name": "getAddressesForDID",
      "outputs": [
        {
          "internalType": "address[]",
          "name": "",
          "type": "address[]"
        }
      ],
      "stateMutability": "view",
      "type": "function"
    },
    {
      "inputs": [
        {
          "internalType": "string",
          "name": "did",
          "type": "string"
        }
      ],
      "name": "getCredentialCount",
      "outputs": [
        {
          "internalType": "uint256",
          "name": "",
          "type": "uint256"
        }
      ],
      "stateMutability": "view",
      "type": "function"
    },
    {
      "inputs": [
        {
          "internalType": "string",
          "name": "did",
          "type": "string"
        }
      ],
      "name": "getDIDCredentials",
      "outputs": [
        {
          "components": [
            {
              "internalType": "string",
              "name": "did",
              "type": "string"
            },
            {
              "internalType": "string",
              "name": "credentialType",
              "type": "string"
            },
            {
              "internalType": "string",
              "name": "credentialHash",
              "type": "string"
            },
            {
              "internalType": "string",
              "name": "jurisdiction",
              "type": "string"
            },
            {
              "internalType": "uint256",
              "name": "issuedAt",
              "type": "uint256"
            },
            {
              "internalType": "uint256",
              "name": "expiresAt",
              "type": "uint256"
            },
            {
              "internalType": "bool",
              "name": "isRevoked",
              "type": "bool"
            },
            {
              "internalType": "address",
              "name": "issuer",
              "type": "address"
            },
            {
              "internalType": "string[]",
              "name": "attributes",
              "type": "string[]"
            }
          ],
          "internalType": "struct DIDCredentialStorage.DIDCredential[]",
          "name": "",
          "type": "tuple[]"
        }
      ],
      "stateMutability": "view",
      "type": "function"
    },
    {
      "inputs": [
        {
          "internalType": "string",
          "name": "did",
          "type": "string"
        },
        {
          "internalType": "string",
          "name": "credentialType",
          "type": "string"
        }
      ],
      "name": "getDIDCredentialsByType",
      "outputs": [
        {
          "components": [
            {
              "internalType": "string",
              "name": "did",
              "type": "string"
            },
            {
              "internalType": "string",
              "name": "credentialType",
              "type": "string"
            },
            {
              "internalType": "string",
              "name": "credentialHash",
              "type": "string"
            },
            {
              "internalType": "string",
              "name": "jurisdiction",
              "type": "string"
            },
            {
              "internalType": "uint256",
              "name": "issuedAt",
              "type": "uint256"
            },
            {
              "internalType": "uint256",
              "name": "expiresAt",
              "type": "uint256"
            },
            {
              "internalType": "bool",
              "name": "isRevoked",
              "type": "bool"
            },
            {
              "internalType": "address",
              "name": "issuer",
              "type": "address"
            },
            {
              "internalType": "string[]",
              "name": "attributes",
              "type": "string[]"
            }
          ],
          "internalType": "struct DIDCredentialStorage.DIDCredential[]",
          "name": "",
          "type": "tuple[]"
        }
      ],
      "stateMutability": "view",
      "type": "function"
    },
    {
      "inputs": [
        {
          "internalType": "address",
          "name": "address_",
          "type": "address"
        }
      ],
      "name": "getDIDForAddress",
      "outputs": [
        {
          "internalType": "string",
          "name": "",
          "type": "string"
        }
      ],
      "stateMutability": "view",
      "type": "function"
    },
    {
      "inputs": [
        {
          "internalType": "string",
          "name": "did",
          "type": "string"
        }
      ],
      "name": "getDIDMetadata",
      "outputs": [
        {
          "components": [
            {
              "internalType": "string",
              "name": "did",
              "type": "string"
            },
            {
              "internalType": "address",
              "name": "primaryAddress",
              "type": "address"
            },
            {
              "internalType": "uint256",
              "name": "createdAt",
              "type": "uint256"
            },
            {
              "internalType": "bool",
              "name": "isActive",
              "type": "bool"
            },
            {
              "internalType": "string[]",
              "name": "linkedAddresses",
              "type": "string[]"
            },
            {
              "internalType": "string[]",
              "name": "credentialTypes",
              "type": "string[]"
            }
          ],
          "internalType": "struct DIDCredentialStorage.DIDMetadata",
          "name": "",
          "type": "tuple"
        }
      ],
      "stateMutability": "view",
      "type": "function"
    },
    {
      "inputs": [
        {
          "internalType": "string",
          "name": "did",
          "type": "string"
        },
        {
          "internalType": "string",
          "name": "credentialType",
          "type": "string"
        }
      ],
      "name": "getValidDIDCredentialsByType",
      "outputs": [
        {
          "components": [
            {
              "internalType": "string",
              "name": "did",
              "type": "string"
            },
            {
              "internalType": "string",
              "name": "credentialType",
              "type": "string"
            },
            {
              "internalType": "string",
              "name": "credentialHash",
              "type": "string"
            },
            {
              "internalType": "string",
              "name": "jurisdiction",
              "type": "string"
            },
            {
              "internalType": "uint256",
              "name": "issuedAt",
              "type": "uint256"
            },
            {
              "internalType": "uint256",
              "name": "expiresAt",
              "type": "uint256"
            },
            {
              "internalType": "bool",
              "name": "isRevoked",
              "type": "bool"
            },
            {
              "internalType": "address",
              "name": "issuer",
              "type": "address"
            },
            {
              "internalType": "string[]",
              "name": "attributes",
              "type": "string[]"
            }
          ],
          "internalType": "struct DIDCredentialStorage.DIDCredential[]",
          "name": "",
          "type": "tuple[]"
        }
      ],
      "stateMutability": "view",
      "type": "function"
    },
    {
      "inputs": [
        {
          "internalType": "string",
          "name": "did",
          "type": "string"
        },
        {
          "internalType": "string",
          "name": "credentialType",
          "type": "string"
        }
      ],
      "name": "hasValidCredential",
      "outputs": [
        {
          "internalType": "bool",
          "name": "",
          "type": "bool"
        }
      ],
      "stateMutability": "view",
      "type": "function"
    },
    {
      "inputs": [
        {
          "internalType": "address",
          "name": "issuer",
          "type": "address"
        }
      ],
      "name": "isAuthorizedIssuer",
      "outputs": [
        {
          "internalType": "bool",
          "name": "",
          "type": "bool"
        }
      ],
      "stateMutability": "view",
      "type": "function"
    },
    {
      "inputs": [
        {
          "internalType": "address",
          "name": "writer",
          "type": "address"
        }
      ],
      "name": "isAuthorizedWriter",
      "outputs": [
        {
          "internalType": "bool",
          "name": "",
          "type": "bool"
        }
      ],
      "stateMutability": "view",
      "type": "function"
    },
    {
      "inputs": [
        {
          "internalType": "string",
          "name": "did",
          "type": "string"
        },
        {
          "internalType": "string",
          "name": "credentialType",
          "type": "string"
        },
        {
          "internalType": "string",
          "name": "credentialHash",
          "type": "string"
        },
        {
          "internalType": "string",
          "name": "jurisdiction",
          "type": "string"
        },
        {
          "internalType": "string[]",
          "name": "attributes",
          "type": "string[]"
        }
      ],
      "name": "issueCredential",
      "outputs": [],
      "stateMutability": "nonpayable",
      "type": "function"
    },
    {
      "inputs": [
        {
          "internalType": "string",
          "name": "did",
          "type": "string"
        },
        {
          "internalType": "string[]",
          "name": "credentialTypes",
          "type": "string[]"
        },
        {
          "internalType": "string[]",
          "name": "credentialHashes",
          "type": "string[]"
        },
        {
          "internalType": "string",
          "name": "jurisdiction",
          "type": "string"
        },
        {
          "internalType": "string[][]",
          "name": "attributesArray",
          "type": "string[][]"
        }
      ],
      "name": "issueMultipleCredentials",
      "outputs": [],
      "stateMutability": "nonpayable",
      "type": "function"
    },
    {
      "inputs": [
        {
          "internalType": "string",
          "name": "did",
          "type": "string"
        },
        {
          "internalType": "address",
          "name": "address_",
          "type": "address"
        }
      ],
      "name": "linkDIDToAddress",
      "outputs": [],
      "stateMutability": "nonpayable",
      "type": "function"
    },
    {
      "inputs": [],
      "name": "owner",
      "outputs": [
        {
          "internalType": "address",
          "name": "",
          "type": "address"
        }
      ],
      "stateMutability": "view",
      "type": "function"
    },
    {
      "inputs": [
        {
          "internalType": "string",
          "name": "did",
          "type": "string"
        },
        {
          "internalType": "string",
          "name": "credentialHash",
          "type": "string"
        },
        {
          "internalType": "string",
          "name": "reason",
          "type": "string"
        }
      ],
      "name": "revokeCredential",
      "outputs": [],
      "stateMutability": "nonpayable",
      "type": "function"
    },
    {
      "inputs": [
        {
          "internalType": "string",
          "name": "did",
          "type": "string"
        },
        {
          "internalType": "string[]",
          "name": "credentialHashes",
          "type": "string[]"
        },
        {
          "internalType": "string",
          "name": "reason",
          "type": "string"
        }
      ],
      "name": "revokeMultipleCredentials",
      "outputs": [],
      "stateMutability": "nonpayable",
      "type": "function"
    },
    {
      "inputs": [
        {
          "internalType": "address",
          "name": "issuer",
          "type": "address"
        },
        {
          "internalType": "bool",
          "name": "authorized",
          "type": "bool"
        }
      ],
      "name": "setAuthorizedIssuer",
      "outputs": [],
      "stateMutability": "nonpayable",
      "type": "function"
    },
    {
      "inputs": [
        {
          "internalType": "address",
          "name": "writer",
          "type": "address"
        },
        {
          "internalType": "bool",
          "name": "authorized",
          "type": "bool"
        }
      ],
      "name": "setAuthorizedWriter",
      "outputs": [],
      "stateMutability": "nonpayable",
      "type": "function"
    },
    {
      "inputs": [
        {
          "internalType": "string",
          "name": "did",
          "type": "string"
        },
        {
          "internalType": "address",
          "name": "address_",
          "type": "address"
        }
      ],
      "name": "unlinkDIDFromAddress",
      "outputs": [],
      "stateMutability": "nonpayable",
      "type": "function"
    },
    {
      "inputs": [
        {
          "internalType": "string",
          "name": "did",
          "type": "string"
        },
        {
          "internalType": "string",
          "name": "credentialHash",
          "type": "string"
        }
      ],
      "name": "verifyCredential",
      "outputs": [
        {
          "internalType": "bool",
          "name": "isValid",
          "type": "bool"
        },
        {
          "internalType": "bool",
          "name": "isExpired",
          "type": "bool"
        },
        {
          "internalType": "bool",
          "name": "isRevoked",
          "type": "bool"
        }
      ],
      "stateMutability": "view",
      "type": "function"
    }
  ],
  "bytecode": "0x60803462000187576200329690601f38839003908101601f19168201906001600160401b038211838310176200018c578083916040958694855283398101031262000187576200005d60206200005583620001a2565b9201620001a2565b60016000556001600160a01b039182169190821562000134578116918215620000e65760018060a01b03199133836005541617600555336000526003602052846000209060ff1991600183825416179055600554166000526004602052600185600020918254161790558160015416176001556002541617600255516130de9081620001b88239f35b835162461bcd60e51b815260206004820152602160248201527f496e76616c6964206175646974206c6f672073746f72616765206164647265736044820152607360f81b6064820152608490fd5b835162461bcd60e51b815260206004820152602660248201527f496e76616c6964204449442063726564656e7469616c2073746f72616765206160448201526564647265737360d01b6064820152608490fd5b600080fd5b634e487b7160e01b600052604160045260246000fd5b51906001600160a01b0382168203620001875756fe6040608081526004908136101561001557600080fd5b60009160e0908335821c9182630cb9a3cc14611cfc5782631230abb514611cba57848363133a691c14611a7e5750826331ba196614611a29578263357061e114611969578263389a2f3d146117575782634ff25b101461172e578263526241a8146116f1578263542a086c1461162257826359358acf146114a9578263614d08f81461144b57826374b2234d146113d8578263808b5c8a1461139a578263809915bc146111825782638da5cb5b146111595782639414311f14611075578263a02cb6de14610c25578263ac972d8614610910578263ad6e823b146108b7578263b015b9b41461088e578263c405181c146107e657848363dc4fb01c1461058857508263f1a6968d1461028a57508163f731fa0f1461024b578163fa9cccb814610166575063ffa1ad741461014857600080fd5b346101625781600319360112610162576020905160018152f35b5080fd5b83833461016257602036600319011261016257816001600160a01b0360248161018d612317565b169161019a831515612c97565b6001541695845196879384927ffa9cccb80000000000000000000000000000000000000000000000000000000084528301525afa9182156102405780926101f5575b8151602080825281906101f1908201866123c1565b0390f35b9091503d8082853e61020781856121ad565b8301926020818503126101625780519167ffffffffffffffff831161023d575092610236916101f1940161275f565b90836101dc565b80fd5b9051903d90823e3d90fd5b905034610286576020366003190112610286578160209360ff926001600160a01b03610275612317565b168252855220541690519015158152f35b8280fd5b9091503461058457600319606036820112610537578483359267ffffffffffffffff93848111610286576102c190369087016121eb565b92602435858111610584576102d990369088016121eb565b94604435908111610584576102f190369088016121eb565b33845260209680885260ff8986205416801561056b575b610311906125d8565b61031d86511515612623565b610329875115156126b9565b61033582511515612a06565b6001600160a01b038060015416803b15610567578a5163123a903960e31b8152908790829081838161036a8f8f8b8401612a51565b03925af190811561055d578791610549575b50506002541690610438604e8b5180957f43726564656e7469616c207265766f6b656420666f72204449443a20000000008d8301528c6104298d8d6103ca8151809286603c8a01910161239e565b85017f2c20486173683a20000000000000000000000000000000000000000000000000603c820152610405825180938660448501910161239e565b019169016102932b0b9b7b71d160b51b60448401528351938491878501910161239e565b0103602e8101865201846121ad565b813b1561054557858a8195828c6104a1829885519b8c9a8b99634dac955d60e01b8b528a015260a060248a0152601260a48a01527f43524544454e5449414c5f5245564f4b4544000000000000000000000000000060c48a0152604489015260e48801906123c1565b8681039384016064880152828152601c84016084880152015201925af1801561053b5761051f575b5050907fe0f2c8af83eafa83d6febe3d54e88deef8002b0172534bd36b7118598accfa45926104fa61050e936129e6565b9480519384936060855260608501906123c1565b91339084015242908301520390a280f35b61052b9093929361212e565b610537579084386104c9565b8480fd5b86513d84823e3d90fd5b8580fd5b6105529061212e565b61054557853861037c565b8b513d89823e3d90fd5b8680fd5b506103116001600160a01b036005541633149050610308565b8380fd5b93925090346107e15761059a3661232d565b9490923382526020926003845260ff868420541680156107c8575b6105be90612c4c565b6105ca85511515612623565b6001600160a01b0396878116976105e2891515612c97565b8060015416803b156105455788517fdc4fb01c0000000000000000000000000000000000000000000000000000000081529086908290818381610628898f8c8401612ce2565b03925af180156107be579086916107aa575b505061064a906002541691612f2c565b906106c36046895180947f4164647265737320756e6c696e6b65642066726f6d204449443a2000000000008a8301528a5161068c818d8d603b8701910161239e565b82016a0161020b2323932b9b99d160ad1b603b8201526106b4825180938d878501910161239e565b010360268101855201836121ad565b803b15610537578492838961072a8c9582519889978896634dac955d60e01b885287015260a06024870152600c60a48701527f4449445f554e4c494e4b4544000000000000000000000000000000000000000060c4870152604486015260e48501906123c1565b828a8583039260031984016064880152828152601c84016084880152015201925af180156107a05761078c575b50506107837fc61e9da61130013a4f6d5b79717d039b1f4f46db6f7e6da9ab504ddbc8a82066926129e6565b9251428152a380f35b6107959061212e565b610537578438610757565b85513d84823e3d90fd5b6107b39061212e565b61053757843861063a565b89513d88823e3d90fd5b506105be6001600160a01b0360055416331490506105b5565b505050fd5b848285823461023d5761083d926107fc366122d0565b919061080a81511515612623565b6108168351151561266e565b6001600160a01b036001541691855196879485938493633101460760e21b85528401612a51565b03915afa91821561088457836101f1949361085f575b50505191829182612442565b61087c9293503d8091833e61087481836121ad565b810190612843565b908380610853565b81513d85823e3d90fd5b505050346101625781600319360112610162576020906001600160a01b03600154169051908152f35b5050503461016257602036600319011261016257906020916001600160a01b039160ff82846108e4612317565b169283815260038752205416928315610902575b5050519015158152f35b6005541614915038806108f8565b8491843461058457600319926060368501126105375767ffffffffffffffff83358181116105675761094590369086016121eb565b91602435828111610bc65761095d903690870161224f565b91604435908111610bc65761097590369087016121eb565b9533885260209086825260ff868a2054168015610c0c575b610996906125d8565b6109a285511515612623565b835115610bca57908392916109bd600a8b9796511115612ddc565b6109c989511515612a06565b855b8451811015610a5a576001600160a01b03600154166109ea82876129bc565b5190803b15610a5657610a1691899189838e8e519687958694859363123a903960e31b85528401612a51565b03925af18015610a4c57908891610a38575b5050610a3390612a76565b6109cb565b610a419061212e565b61056757868c610a28565b89513d8a823e3d90fd5b8880fd5b50869293888796610b1760518d610a7d6001600160a01b03600254169651612e38565b9089519485926802130ba31b41037b3160bd1b8b850152610aa7815180928d60298801910161239e565b83017f2063726564656e7469616c73207265766f6b656420666f72204449443a2000006029820152610ae2825180938d60478501910161239e565b0169016102932b0b9b7b71d160b51b6047820152610b08825180938c878501910161239e565b010360318101845201826121ad565b823b15610bc65785889594868096610b81829585519c8d9a8b99634dac955d60e01b8b528a015260a060248a0152601960a48a01527f42415443485f43524544454e5449414c535f5245564f4b45440000000000000060c48a0152604489015260e48801906123c1565b8681039384016064880152828152601c84016084880152015201925af1908115610bbd5750610bad5750f35b610bb69061212e565b61023d5780f35b513d84823e3d90fd5b8780fd5b6064878388519162461bcd60e51b8352820152600b60248201527f456d7074792061727261790000000000000000000000000000000000000000006044820152fd5b506109966001600160a01b03600554163314905061098d565b849084346102865760a03660031901126102865767ffffffffffffffff90843582811161053757610c5990369087016121eb565b94602495863584811161056757610c73903690840161224f565b90604435858111610bc657610c8b903690850161224f565b92606435868111610a5657610ca390369083016121eb565b90608435968088116110715736602389011215611071578a9088830135610cc981612237565b99610cd68a519b8c6121ad565b818b5260209d8e8c019260051b8201019236841161106d57848201925b848410611044575050505050338a52818b5260ff878b205416801561102b575b610d1c906125d8565b610d2884511515612623565b8451865103610fea578451885103610faa57845115610f6957899a610d56600a879c999a9b9c511115612ddc565b875b8651811015610dfa578a8789610d8984610d8281610d82816001600160a01b0360015416976129bc565b51946129bc565b5191803b15610df657898d8f610db682968d8d9351998a988997889663032e68f360e21b88528701612704565b03925af18015610dec57908a91610dd8575b5050610dd390612a76565b610d58565b610de19061212e565b610a5657888e610dc8565b8b513d8c823e3d90fd5b8c80fd5b50939850945097909497610ecc6055610e1f6001600160a01b03600254169651612e38565b89519a8b916802130ba31b41037b3160bd1b88840152610e48815180928a60298701910161239e565b82017f2063726564656e7469616c732069737375656420746f204449443a20000000006029820152610e83825180938a60458501910161239e565b017f2c204a7572697364696374696f6e3a20000000000000000000000000000000006045820152895190610ebd828c8a878501910161239e565b0103603581018b5201896121ad565b833b15610a5657610f5689968794610f3760a09b87968c519d8e9b8c9a8b99634dac955d60e01b8b528a0152880152601860a48801527f42415443485f43524544454e5449414c535f495353554544000000000000000060c4880152604487015260e48601906123c1565b601c8582036003198101606488015287835201608486015201906123c1565b03925af1908115610bbd5750610bad5750f35b90600c6064928c89519362461bcd60e51b85528401528201527f456d7074792061727261797300000000000000000000000000000000000000006044820152fd5b908a6064928189519362461bcd60e51b85528401528201527f41747472696275746573206172726179206c656e677468206d69736d617463686044820152fd5b9060166064928c89519362461bcd60e51b85528401528201527f417272617973206c656e677468206d69736d61746368000000000000000000006044820152fd5b50610d1c6001600160a01b036005541633149050610d13565b81843511611069578f809161105e3689883588010161224f565b815201930192610cf3565b8e80fd5b8d80fd5b8980fd5b50838334610162576020928360031936011261028657803567ffffffffffffffff811161058457611102916110ae8692369083016121eb565b906110bb82511515612623565b826001600160a01b0360015416918651958694859384937f9414311f00000000000000000000000000000000000000000000000000000000855284015260248301906123c1565b03915afa92831561114e57809361111c575b505051908152f35b909192508382813d8311611147575b61113581836121ad565b8101031261023d575051908380611114565b503d61112b565b8251903d90823e3d90fd5b505050346101625781600319360112610162576020906001600160a01b03600554169051908152f35b8491843461058457602091826003193601126105375767ffffffffffffffff9481358681116101625790611240816111c160a0969594369086016121eb565b85516111cc81612175565b6060978189809352848b8201528489820152848382015282608082015201526111f781511515612623565b6001600160a01b0394888660015416918851958694859384937f809915bc00000000000000000000000000000000000000000000000000000000855284015260248301906123c1565b03915afa9788156113905782986112c0575b611277886101f18b8a8a8a8a815197889785895286519060c0878b01528901906123c1565b938501511681870152830151818601528201511515608085015260a06112ae608084015192601f19938488830301848901526123e6565b920151908483030160c08501526123e6565b90919297503d8084843e6112d481846121ad565b820191868184031261058457805190828211610537570160c0818403126105845784519361130185612175565b8151838111610162578461131691840161275f565b85526113238883016127ae565b88860152858201518686015261133a8783016127a1565b87860152608082015183811161016257846113569184016127c2565b608086015260a082015192831161023d57506101f19694926112779996949261137f92016127c2565b60a082015296819395949294611252565b84513d84823e3d90fd5b50505034610162576020906113cf6113b1366122d0565b906113be81511515612623565b6113ca8251151561266e565b612d09565b90519015158152f35b84828534610286576020366003190112610286578282359267ffffffffffffffff84116101625761140f61083d94369083016121eb565b9061141c82511515612623565b60206001600160a01b0360015416918551968794859384936374b2234d60e01b855284015260248301906123c1565b5050503461016257816003193601126101625780516101f19161146d82612191565b600a82527f4449444d616e61676572000000000000000000000000000000000000000000006020830152519182916020835260208301906123c1565b5083833461016257602090816003193601126102865767ffffffffffffffff918435838111610537576114df90369087016121eb565b936114ec85511515612623565b61153b816001600160a01b039660019885898b5416918851958694859384937f59358acf00000000000000000000000000000000000000000000000000000000855284015260248301906123c1565b03915afa94851561139057829561158f575b50509190819593955194818087019381885288518095528701970193905b8382106115785786880387f35b84518116885296820196938201939085019061156b565b909194503d8086843e6115a281846121ad565b820191838184031261054557805191821161054557019080601f830112156105375781516115cf81612237565b926115dc865194856121ad565b818452848085019260051b8201019283116105675784809101915b83831061160a575050505092868061154d565b8190611615846127ae565b81520191019084906115f7565b84828534610286576116333661236f565b91906001600160a01b039061164d82600554163314612538565b611655612583565b169283156116af57507e8ebc621f24e0e9d1fd4ee2f7df9bb80c8d61ee30a9167a4fee6cefcf8c021e91602091848652600383526116a1828288209060ff801983541691151516179055565b519015158152a26001815580f35b6020606492519162461bcd60e51b8352820152601660248201527f496e76616c6964207772697465722061646472657373000000000000000000006044820152fd5b505050346101625760203660031901126101625760ff816020936001600160a01b0361171b612317565b1681526003855220541690519015158152f35b505050346101625781600319360112610162576020906001600160a01b03600254169051908152f35b9150833461023d576117af8161176c366122d0565b909461177a86511515612623565b6117868251151561266e565b6001956001600160a01b0387541691895195869485938493633101460760e21b85528401612a51565b03915afa9081156107a057829161194f575b5081938383905b6118e8575b506117d785612237565b946117e4875196876121ad565b8086526117f3601f1991612237565b0190835b82811061189c575050508282905b611817575b8551806101f18782612442565b81518110156118975760c061182c82846129bc565b5101511580611880575b61184a575b61184490612a76565b83611805565b916118786118449161185c85856129bc565b5161186782896129bc565b5261187281886129bc565b50612a76565b92905061183b565b5060a061188d82846129bc565b5101514210611836565b61180a565b60209088516118aa81612158565b606080825283908082840152808c84015280808401528860808401528860a08401528860c08401528886840152610100830152828a010152016117f7565b825181101561194a5760c06118fd82856129bc565b5101511580611933575b61191c575b6119168591612a76565b906117c8565b9461191661192a8692612a76565b9691505061190c565b5060a061194082856129bc565b5101514210611907565b6117cd565b61196391503d8084833e61087481836121ad565b856117c1565b848285346102865761197a3661236f565b91906001600160a01b039061199482600554163314612538565b61199c612583565b169283156119e757916020917f0455d749995ce43e3b98981b666e5dadcc51f9536cac29239989847262b316109385875283526116a1828288209060ff801983541691151516179055565b6020606492519162461bcd60e51b8352820152601660248201527f496e76616c6964206973737565722061646472657373000000000000000000006044820152fd5b508383346101625760203660031901126101625760209260ff826001600160a01b039485611a55612317565b16938482528752205416928315611a70575050519015158152f35b6005541614915083806108f8565b93925090346107e157611a903661232d565b9490923382526020926003845260ff86842054168015611ca1575b611ab490612c4c565b611ac085511515612623565b6001600160a01b039687811697611ad8891515612c97565b8060015416803b156105455788517f133a691c0000000000000000000000000000000000000000000000000000000081529086908290818381611b1e898f8c8401612ce2565b03925af180156107be57908691611c8d575b5050611b40906002541691612f2c565b90611bb96042895180947f41646472657373206c696e6b656420746f204449443a200000000000000000008a8301528a51611b82818d8d60378701910161239e565b82016a0161020b2323932b9b99d160ad1b6037820152611baa825180938d878501910161239e565b010360228101855201836121ad565b803b156105375784928389611c208c9582519889978896634dac955d60e01b885287015260a06024870152600a60a48701527f4449445f4c494e4b45440000000000000000000000000000000000000000000060c4870152604486015260e48501906123c1565b828a8583039260031984016064880152828152601c84016084880152015201925af180156107a057611c79575b50506107837f174a9a71f342e002f6ce8fd50eeb5eb833f240e2c2527ad97a03049449503fd2926129e6565b611c829061212e565b610537578438611c4d565b611c969061212e565b610537578438611b30565b50611ab46001600160a01b036005541633149050611aab565b5050503461016257606090611ce3611cd1366122d0565b90611cde81511515612623565b612a9b565b9083929351931515845215156020840152151590820152f35b91509134610584576003199260a0368501126105375767ffffffffffffffff93813585811161056757611d3290369084016121eb565b91602435868111610bc657611d4a90369083016121eb565b94604435878111610a5657611d6290369084016121eb565b9260643588811161107157611d7a90369085016121eb565b9760843590811161107157611d92903690850161224f565b91338a5260209484865260ff888c2054168015612115575b611db3906125d8565b611dbf87511515612623565b611dcb8951151561266e565b611dd7815115156126b9565b8951156120d3578a6001600160a01b03948560015416803b15610286578983898f8f958f91611e199251998a988997889663032e68f360e21b88528701612704565b03925af180156120c9576120ae575b508991611eb49188611efd60528a8e8e8c8b600254169651998a947f43726564656e7469616c2069737375656420746f204449443a2000000000000083870152611e7b8151809285603a8a01910161239e565b8501917f2c20547970653a20000000000000000000000000000000000000000000000000603a840152835193849160428501910161239e565b017f2c204a7572697364696374696f6e3a20000000000000000000000000000000006042820152611eee8d8351938491878501910161239e565b010360328101875201856121ad565b803b1561053757848088611f898f8c8f98601c611f6d879b519c8d9b8c9a8b99634dac955d60e01b8b528a015260a060248a0152601160a48a01527f43524544454e5449414c5f49535355454400000000000000000000000000000060c48a0152604489015260e48801906123c1565b91868303908101606488015287835201608486015201906123c1565b03925af180156120a457612090575b50506001541687855180926374b2234d60e01b825285858301528180611fc1602482018a6123c1565b03915afa90811561208657889161206c575b508051600019810192908311612059575061203b949261202760a061201e7f550a0b9f36bb4056b1fcf0c1c37d61b69d20190bde216b4568cfd900430053f2999795612048956129bc565b510151936129e6565b9784519687966080885260808801906123c1565b91868303908701526123c1565b91339084015260608301520390a280f35b886011602492634e487b7160e01b835252fd5b61208091503d808a833e61087481836121ad565b38611fd3565b85513d8a823e3d90fd5b6120999061212e565b610bc6578738611f98565b87513d84823e3d90fd5b918991888a9c6120be8a9661212e565b9c5050915091611e28565b88513d8d823e3d90fd5b606485878a519162461bcd60e51b8352820152601460248201527f496e76616c6964206a7572697364696374696f6e0000000000000000000000006044820152fd5b50611db36001600160a01b036005541633149050611daa565b67ffffffffffffffff811161214257604052565b634e487b7160e01b600052604160045260246000fd5b610120810190811067ffffffffffffffff82111761214257604052565b60c0810190811067ffffffffffffffff82111761214257604052565b6040810190811067ffffffffffffffff82111761214257604052565b90601f8019910116810190811067ffffffffffffffff82111761214257604052565b67ffffffffffffffff811161214257601f01601f191660200190565b81601f8201121561223257803590612202826121cf565b9261221060405194856121ad565b8284526020838301011161223257816000926020809301838601378301015290565b600080fd5b67ffffffffffffffff81116121425760051b60200190565b9080601f830112156122325781359061226782612237565b9261227560405194856121ad565b828452602092838086019160051b8301019280841161223257848301915b8483106122a35750505050505090565b823567ffffffffffffffff81116122325786916122c5848480948901016121eb565b815201920191612293565b9060406003198301126122325767ffffffffffffffff60043581811161223257836122fd916004016121eb565b9260243591821161223257612314916004016121eb565b90565b600435906001600160a01b038216820361223257565b6040600319820112612232576004359067ffffffffffffffff821161223257612358916004016121eb565b906024356001600160a01b03811681036122325790565b6040906003190112612232576004356001600160a01b0381168103612232579060243580151581036122325790565b60005b8381106123b15750506000910152565b81810151838201526020016123a1565b906020916123da8151809281855285808601910161239e565b601f01601f1916010190565b908082519081815260208091019281808460051b8301019501936000915b8483106124145750505050505090565b9091929394958480612432600193601f198682030187528a516123c1565b9801930193019194939290612404565b602080820190808352835180925260409283810182858560051b8401019601946000925b858410612477575050505050505090565b909192939495968580612527600193603f198682030188528b516124e06124cd6124bd6124ad84516101208088528701906123c1565b87850151868203898801526123c1565b8a8401518582038c8701526123c1565b60608084015190858303908601526123c1565b916080808301519082015260a0808301519082015260c08083015115159082015260e06001600160a01b0381840151169082015261010080920151918184039101526123e6565b990194019401929594939190612466565b1561253f57565b606460405162461bcd60e51b815260206004820152600a60248201527f4f6e6c79206f776e6572000000000000000000000000000000000000000000006044820152fd5b600260005414612594576002600055565b606460405162461bcd60e51b815260206004820152601f60248201527f5265656e7472616e637947756172643a207265656e7472616e742063616c6c006044820152fd5b156125df57565b606460405162461bcd60e51b815260206004820152601560248201527f4e6f7420617574686f72697a65642069737375657200000000000000000000006044820152fd5b1561262a57565b606460405162461bcd60e51b815260206004820152600b60248201527f496e76616c6964204449440000000000000000000000000000000000000000006044820152fd5b1561267557565b606460405162461bcd60e51b815260206004820152601760248201527f496e76616c69642063726564656e7469616c20747970650000000000000000006044820152fd5b156126c057565b606460405162461bcd60e51b815260206004820152601760248201527f496e76616c69642063726564656e7469616c20686173680000000000000000006044820152fd5b93906123149593612735612751946127276127439460a08a5260a08a01906123c1565b9088820360208a01526123c1565b9086820360408801526123c1565b9084820360608601526123c1565b9160808184039101526123e6565b81601f82011215612232578051612775816121cf565b9261278360405194856121ad565b8184526020828401011161223257612314916020808501910161239e565b5190811515820361223257565b51906001600160a01b038216820361223257565b9080601f83011215612232578151906127da82612237565b926127e860405194856121ad565b828452602092838086019160051b8301019280841161223257848301915b8483106128165750505050505090565b825167ffffffffffffffff81116122325786916128388484809489010161275f565b815201920191612806565b602090818184031261223257805167ffffffffffffffff9182821161223257019083601f8301121561223257815161287a81612237565b946040612889815197886121ad565b828752858088019360051b8601019482861161223257868101935b8685106128b657505050505050505090565b8451868111612232578201906101209081601f1984880301126122325784516128de81612158565b8a84015189811161223257878c6128f79287010161275f565b81528584015189811161223257878c6129129287010161275f565b8b820152606092838501518a811161223257888d6129329288010161275f565b87830152608093848601518b811161223257898e6129529289010161275f565b9083015260a093848601519083015260c093848601519083015260e09361297a8587016127a1565b908301526101009361298d8587016127ae565b9083015284015192898411612232576129ad888d809796819701016127c2565b908201528152019401936128a4565b80518210156129d05760209160051b010190565b634e487b7160e01b600052603260045260246000fd5b6129fe9060206040519282848094519384920161239e565b810103902090565b15612a0d57565b606460405162461bcd60e51b815260206004820152600e60248201527f496e76616c696420726561736f6e0000000000000000000000000000000000006044820152fd5b9091612a68612314936040845260408401906123c1565b9160208184039101526123c1565b6000198114612a855760010190565b634e487b7160e01b600052601160045260246000fd5b906001906001600160a01b038254166040918251927f61e2d602000000000000000000000000000000000000000000000000000000008452602092836004860152838580612aec60248201876123c1565b0381845afa948515612c4157600095612c0a575b5084612bfc57612b2e96600091835180809a81946374b2234d60e01b835289600484015260248301906123c1565b03915afa958615612bf157600096612bd6575b506000855b612b5d575b50505050505050600090600090600090565b8651811015612bd15781612b7182896129bc565b51015184815191012083518585012014612b9457612b8e90612a76565b85612b46565b91505084959350612bba915060a0612baf8260c095976129bc565b5101514210956129bc565b5101511580612bca575b92159190565b5082612bc4565b612b4b565b612bea91963d8091833e61087481836121ad565b9438612b41565b50513d6000823e3d90fd5b506000968796509350505050565b90948482813d8311612c3a575b612c2181836121ad565b8101031261023d5750612c33906127a1565b9338612b00565b503d612c17565b82513d6000823e3d90fd5b15612c5357565b606460405162461bcd60e51b815260206004820152600e60248201527f4e6f7420617574686f72697a65640000000000000000000000000000000000006044820152fd5b15612c9e57565b606460405162461bcd60e51b815260206004820152600f60248201527f496e76616c6964206164647265737300000000000000000000000000000000006044820152fd5b906001600160a01b03612d026020929594956040855260408501906123c1565b9416910152565b6001906001600160a01b03825416906040518092633101460760e21b82528180612d3a600098899660048401612a51565b03915afa908115612dd1579082918491612db7575b509083905b612d5f575b50505090565b8151811015612db25760c0612d7482846129bc565b5101511580612d9b575b612d945790612d8d8392612a76565b9091612d54565b5050905090565b5060a0612da882846129bc565b5101514210612d7e565b612d59565b612dcb91503d8086833e61087481836121ad565b38612d4f565b6040513d85823e3d90fd5b15612de357565b606460405162461bcd60e51b815260206004820152601460248201527f546f6f206d616e792063726564656e7469616c730000000000000000000000006044820152fd5b9081518110156129d0570160200190565b8015612ef25780816000925b612edc5750612e52826121cf565b91612e6060405193846121ad565b80835281601f19612e70836121cf565b013660208601375b612e8157505090565b6000198101908111612a85578091600a9160308383068101809111612a85577fff00000000000000000000000000000000000000000000000000000000000000612ed39160f81b1660001a9186612e27565b53049081612e78565b9091612ee9600a91612a76565b92910480612e44565b50604051612eff81612191565b600181527f3000000000000000000000000000000000000000000000000000000000000000602082015290565b6001600160a01b031660405190612f4282612191565b6010825260207f303132333435363738396162636465660000000000000000000000000000000081840152604051926060840184811067ffffffffffffffff82111761214257604052602a845281840160403682378451156129d057603090538351926001938410156129d0576078602186015360005b60148110612fc957505050505090565b600c8101808211612a8557848110156129d05782901a60047fff00000000000000000000000000000000000000000000000000000000000000600f8161301385851c831689612e27565b511693858a1b9460029087870482148815171561309357868201809211613093576130486130509493928e9260001a92612e27565b531687612e27565b511690600392830180931161307e575090613073613079939260001a9189612e27565b53612a76565b612fb9565b601190634e487b7160e01b6000525260246000fd5b601186634e487b7160e01b6000525260246000fdfea26469706673582212202235c42fdb29a47800c63f2ac722f8f09e73daa8500ef4e682f9783c104f46ff64736f6c63430008140033",
  "linkReferences": {},
  "deployedLinkReferences": {}
}