{
  "_format": "hh-sol-artifact-1",
  "contractName": "DIDManager",
  "sourceName": "contracts/business/DIDManager.sol",
  "abi": [
    {
      "inputs": [
        {
          "internalType": "address",
          "name": "_didCredentialStorage",
          "type": "address"
        },
        {
          "internalType": "address",
          "name": "_auditLogStorage",
          "type": "address"
        }
      ],
      "stateMutability": "nonpayable",
      "type": "constructor"
    },
    {
      "anonymous": false,
      "inputs": [
        {
          "indexed": true,
          "internalType": "address",
          "name": "issuer",
          "type": "address"
        },
        {
          "indexed": false,
          "internalType": "bool",
          "name": "authorized",
          "type": "bool"
        }
      ],
      "name": "AuthorizedIssuerUpdated",
      "type": "event"
    },
    {
      "anonymous": false,
      "inputs": [
        {
          "indexed": true,
          "internalType": "address",
          "name": "writer",
          "type": "address"
        },
        {
          "indexed": false,
          "internalType": "bool",
          "name": "authorized",
          "type": "bool"
        }
      ],
      "name": "AuthorizedWriterUpdated",
      "type": "event"
    },
    {
      "anonymous": false,
      "inputs": [
        {
          "indexed": true,
          "internalType": "string",
          "name": "did",
          "type": "string"
        },
        {
          "indexed": false,
          "internalType": "string",
          "name": "credentialType",
          "type": "string"
        },
        {
          "indexed": false,
          "internalType": "string",
          "name": "jurisdiction",
          "type": "string"
        },
        {
          "indexed": false,
          "internalType": "address",
          "name": "issuer",
          "type": "address"
        },
        {
          "indexed": false,
          "internalType": "uint256",
          "name": "expiresAt",
          "type": "uint256"
        }
      ],
      "name": "CredentialIssued",
      "type": "event"
    },
    {
      "anonymous": false,
      "inputs": [
        {
          "indexed": true,
          "internalType": "string",
          "name": "did",
          "type": "string"
        },
        {
          "indexed": false,
          "internalType": "string",
          "name": "credentialHash",
          "type": "string"
        },
        {
          "indexed": false,
          "internalType": "address",
          "name": "revoker",
          "type": "address"
        },
        {
          "indexed": false,
          "internalType": "uint256",
          "name": "timestamp",
          "type": "uint256"
        }
      ],
      "name": "CredentialRevoked",
      "type": "event"
    },
    {
      "anonymous": false,
      "inputs": [
        {
          "indexed": true,
          "internalType": "string",
          "name": "did",
          "type": "string"
        },
        {
          "indexed": true,
          "internalType": "address",
          "name": "address_",
          "type": "address"
        },
        {
          "indexed": false,
          "internalType": "uint256",
          "name": "timestamp",
          "type": "uint256"
        }
      ],
      "name": "DIDLinked",
      "type": "event"
    },
    {
      "anonymous": false,
      "inputs": [
        {
          "indexed": true,
          "internalType": "string",
          "name": "did",
          "type": "string"
        },
        {
          "indexed": true,
          "internalType": "address",
          "name": "address_",
          "type": "address"
        },
        {
          "indexed": false,
          "internalType": "uint256",
          "name": "timestamp",
          "type": "uint256"
        }
      ],
      "name": "DIDUnlinked",
      "type": "event"
    },
    {
      "inputs": [],
      "name": "CONTRACT_NAME",
      "outputs": [
        {
          "internalType": "string",
          "name": "",
          "type": "string"
        }
      ],
      "stateMutability": "view",
      "type": "function"
    },
    {
      "inputs": [],
      "name": "VERSION",
      "outputs": [
        {
          "internalType": "uint256",
          "name": "",
          "type": "uint256"
        }
      ],
      "stateMutability": "view",
      "type": "function"
    },
    {
      "inputs": [],
      "name": "auditLogStorage",
      "outputs": [
        {
          "internalType": "contract AuditLogStorage",
          "name": "",
          "type": "address"
        }
      ],
      "stateMutability": "view",
      "type": "function"
    },
    {
      "inputs": [
        {
          "internalType": "address",
          "name": "",
          "type": "address"
        }
      ],
      "name": "authorizedIssuers",
      "outputs": [
        {
          "internalType": "bool",
          "name": "",
          "type": "bool"
        }
      ],
      "stateMutability": "view",
      "type": "function"
    },
    {
      "inputs": [
        {
          "internalType": "address",
          "name": "",
          "type": "address"
        }
      ],
      "name": "authorizedWriters",
      "outputs": [
        {
          "internalType": "bool",
          "name": "",
          "type": "bool"
        }
      ],
      "stateMutability": "view",
      "type": "function"
    },
    {
      "inputs": [],
      "name": "didCredentialStorage",
      "outputs": [
        {
          "internalType": "contract DIDCredentialStorage",
          "name": "",
          "type": "address"
        }
      ],
      "stateMutability": "view",
      "type": "function"
    },
    {
      "inputs": [
        {
          "internalType": "string",
          "name": "did",
          "type": "string"
        }
      ],
      "name": "getAddressesForDID",
      "outputs": [
        {
          "internalType": "address[]",
          "name": "",
          "type": "address[]"
        }
      ],
      "stateMutability": "view",
      "type": "function"
    },
    {
      "inputs": [
        {
          "internalType": "string",
          "name": "did",
          "type": "string"
        }
      ],
      "name": "getCredentialCount",
      "outputs": [
        {
          "internalType": "uint256",
          "name": "",
          "type": "uint256"
        }
      ],
      "stateMutability": "view",
      "type": "function"
    },
    {
      "inputs": [
        {
          "internalType": "string",
          "name": "did",
          "type": "string"
        }
      ],
      "name": "getDIDCredentials",
      "outputs": [
        {
          "components": [
            {
              "internalType": "string",
              "name": "did",
              "type": "string"
            },
            {
              "internalType": "string",
              "name": "credentialType",
              "type": "string"
            },
            {
              "internalType": "string",
              "name": "credentialHash",
              "type": "string"
            },
            {
              "internalType": "string",
              "name": "jurisdiction",
              "type": "string"
            },
            {
              "internalType": "uint256",
              "name": "issuedAt",
              "type": "uint256"
            },
            {
              "internalType": "uint256",
              "name": "expiresAt",
              "type": "uint256"
            },
            {
              "internalType": "bool",
              "name": "isRevoked",
              "type": "bool"
            },
            {
              "internalType": "address",
              "name": "issuer",
              "type": "address"
            },
            {
              "internalType": "string[]",
              "name": "attributes",
              "type": "string[]"
            }
          ],
          "internalType": "struct DIDCredentialStorage.DIDCredential[]",
          "name": "",
          "type": "tuple[]"
        }
      ],
      "stateMutability": "view",
      "type": "function"
    },
    {
      "inputs": [
        {
          "internalType": "string",
          "name": "did",
          "type": "string"
        },
        {
          "internalType": "string",
          "name": "credentialType",
          "type": "string"
        }
      ],
      "name": "getDIDCredentialsByType",
      "outputs": [
        {
          "components": [
            {
              "internalType": "string",
              "name": "did",
              "type": "string"
            },
            {
              "internalType": "string",
              "name": "credentialType",
              "type": "string"
            },
            {
              "internalType": "string",
              "name": "credentialHash",
              "type": "string"
            },
            {
              "internalType": "string",
              "name": "jurisdiction",
              "type": "string"
            },
            {
              "internalType": "uint256",
              "name": "issuedAt",
              "type": "uint256"
            },
            {
              "internalType": "uint256",
              "name": "expiresAt",
              "type": "uint256"
            },
            {
              "internalType": "bool",
              "name": "isRevoked",
              "type": "bool"
            },
            {
              "internalType": "address",
              "name": "issuer",
              "type": "address"
            },
            {
              "internalType": "string[]",
              "name": "attributes",
              "type": "string[]"
            }
          ],
          "internalType": "struct DIDCredentialStorage.DIDCredential[]",
          "name": "",
          "type": "tuple[]"
        }
      ],
      "stateMutability": "view",
      "type": "function"
    },
    {
      "inputs": [
        {
          "internalType": "address",
          "name": "address_",
          "type": "address"
        }
      ],
      "name": "getDIDForAddress",
      "outputs": [
        {
          "internalType": "string",
          "name": "",
          "type": "string"
        }
      ],
      "stateMutability": "view",
      "type": "function"
    },
    {
      "inputs": [
        {
          "internalType": "string",
          "name": "did",
          "type": "string"
        }
      ],
      "name": "getDIDMetadata",
      "outputs": [
        {
          "components": [
            {
              "internalType": "string",
              "name": "did",
              "type": "string"
            },
            {
              "internalType": "address",
              "name": "primaryAddress",
              "type": "address"
            },
            {
              "internalType": "uint256",
              "name": "createdAt",
              "type": "uint256"
            },
            {
              "internalType": "bool",
              "name": "isActive",
              "type": "bool"
            },
            {
              "internalType": "string[]",
              "name": "linkedAddresses",
              "type": "string[]"
            },
            {
              "internalType": "string[]",
              "name": "credentialTypes",
              "type": "string[]"
            }
          ],
          "internalType": "struct DIDCredentialStorage.DIDMetadata",
          "name": "",
          "type": "tuple"
        }
      ],
      "stateMutability": "view",
      "type": "function"
    },
    {
      "inputs": [
        {
          "internalType": "string",
          "name": "did",
          "type": "string"
        },
        {
          "internalType": "string",
          "name": "credentialType",
          "type": "string"
        }
      ],
      "name": "getValidDIDCredentialsByType",
      "outputs": [
        {
          "components": [
            {
              "internalType": "string",
              "name": "did",
              "type": "string"
            },
            {
              "internalType": "string",
              "name": "credentialType",
              "type": "string"
            },
            {
              "internalType": "string",
              "name": "credentialHash",
              "type": "string"
            },
            {
              "internalType": "string",
              "name": "jurisdiction",
              "type": "string"
            },
            {
              "internalType": "uint256",
              "name": "issuedAt",
              "type": "uint256"
            },
            {
              "internalType": "uint256",
              "name": "expiresAt",
              "type": "uint256"
            },
            {
              "internalType": "bool",
              "name": "isRevoked",
              "type": "bool"
            },
            {
              "internalType": "address",
              "name": "issuer",
              "type": "address"
            },
            {
              "internalType": "string[]",
              "name": "attributes",
              "type": "string[]"
            }
          ],
          "internalType": "struct DIDCredentialStorage.DIDCredential[]",
          "name": "",
          "type": "tuple[]"
        }
      ],
      "stateMutability": "view",
      "type": "function"
    },
    {
      "inputs": [
        {
          "internalType": "string",
          "name": "did",
          "type": "string"
        },
        {
          "internalType": "string",
          "name": "credentialType",
          "type": "string"
        }
      ],
      "name": "hasValidCredential",
      "outputs": [
        {
          "internalType": "bool",
          "name": "",
          "type": "bool"
        }
      ],
      "stateMutability": "view",
      "type": "function"
    },
    {
      "inputs": [
        {
          "internalType": "address",
          "name": "issuer",
          "type": "address"
        }
      ],
      "name": "isAuthorizedIssuer",
      "outputs": [
        {
          "internalType": "bool",
          "name": "",
          "type": "bool"
        }
      ],
      "stateMutability": "view",
      "type": "function"
    },
    {
      "inputs": [
        {
          "internalType": "address",
          "name": "writer",
          "type": "address"
        }
      ],
      "name": "isAuthorizedWriter",
      "outputs": [
        {
          "internalType": "bool",
          "name": "",
          "type": "bool"
        }
      ],
      "stateMutability": "view",
      "type": "function"
    },
    {
      "inputs": [
        {
          "internalType": "string",
          "name": "did",
          "type": "string"
        },
        {
          "internalType": "string",
          "name": "credentialType",
          "type": "string"
        },
        {
          "internalType": "string",
          "name": "credentialHash",
          "type": "string"
        },
        {
          "internalType": "string",
          "name": "jurisdiction",
          "type": "string"
        },
        {
          "internalType": "string[]",
          "name": "attributes",
          "type": "string[]"
        }
      ],
      "name": "issueCredential",
      "outputs": [],
      "stateMutability": "nonpayable",
      "type": "function"
    },
    {
      "inputs": [
        {
          "internalType": "string",
          "name": "did",
          "type": "string"
        },
        {
          "internalType": "string[]",
          "name": "credentialTypes",
          "type": "string[]"
        },
        {
          "internalType": "string[]",
          "name": "credentialHashes",
          "type": "string[]"
        },
        {
          "internalType": "string",
          "name": "jurisdiction",
          "type": "string"
        },
        {
          "internalType": "string[][]",
          "name": "attributesArray",
          "type": "string[][]"
        }
      ],
      "name": "issueMultipleCredentials",
      "outputs": [],
      "stateMutability": "nonpayable",
      "type": "function"
    },
    {
      "inputs": [
        {
          "internalType": "string",
          "name": "did",
          "type": "string"
        },
        {
          "internalType": "address",
          "name": "address_",
          "type": "address"
        }
      ],
      "name": "linkDIDToAddress",
      "outputs": [],
      "stateMutability": "nonpayable",
      "type": "function"
    },
    {
      "inputs": [],
      "name": "owner",
      "outputs": [
        {
          "internalType": "address",
          "name": "",
          "type": "address"
        }
      ],
      "stateMutability": "view",
      "type": "function"
    },
    {
      "inputs": [
        {
          "internalType": "string",
          "name": "did",
          "type": "string"
        },
        {
          "internalType": "string",
          "name": "credentialHash",
          "type": "string"
        },
        {
          "internalType": "string",
          "name": "reason",
          "type": "string"
        }
      ],
      "name": "revokeCredential",
      "outputs": [],
      "stateMutability": "nonpayable",
      "type": "function"
    },
    {
      "inputs": [
        {
          "internalType": "string",
          "name": "did",
          "type": "string"
        },
        {
          "internalType": "string[]",
          "name": "credentialHashes",
          "type": "string[]"
        },
        {
          "internalType": "string",
          "name": "reason",
          "type": "string"
        }
      ],
      "name": "revokeMultipleCredentials",
      "outputs": [],
      "stateMutability": "nonpayable",
      "type": "function"
    },
    {
      "inputs": [
        {
          "internalType": "address",
          "name": "issuer",
          "type": "address"
        },
        {
          "internalType": "bool",
          "name": "authorized",
          "type": "bool"
        }
      ],
      "name": "setAuthorizedIssuer",
      "outputs": [],
      "stateMutability": "nonpayable",
      "type": "function"
    },
    {
      "inputs": [
        {
          "internalType": "address",
          "name": "writer",
          "type": "address"
        },
        {
          "internalType": "bool",
          "name": "authorized",
          "type": "bool"
        }
      ],
      "name": "setAuthorizedWriter",
      "outputs": [],
      "stateMutability": "nonpayable",
      "type": "function"
    },
    {
      "inputs": [
        {
          "internalType": "string",
          "name": "did",
          "type": "string"
        },
        {
          "internalType": "address",
          "name": "address_",
          "type": "address"
        }
      ],
      "name": "unlinkDIDFromAddress",
      "outputs": [],
      "stateMutability": "nonpayable",
      "type": "function"
    },
    {
      "inputs": [
        {
          "internalType": "string",
          "name": "did",
          "type": "string"
        },
        {
          "internalType": "string",
          "name": "credentialHash",
          "type": "string"
        }
      ],
      "name": "verifyCredential",
      "outputs": [
        {
          "internalType": "bool",
          "name": "isValid",
          "type": "bool"
        },
        {
          "internalType": "bool",
          "name": "isExpired",
          "type": "bool"
        },
        {
          "internalType": "bool",
          "name": "isRevoked",
          "type": "bool"
        }
      ],
      "stateMutability": "view",
      "type": "function"
    }
  ],
  "bytecode": "0x60803462000182576200326690601f38839003908101601f19168201906001600160401b0382118383101762000186578083916040958694855283398101031262000182576200005d602062000055836200019a565b92016200019a565b60015f556001600160a01b03918216919082156200012f578116918215620000e15760018060a01b03199133836005541617600555335f526003602052845f209060ff1991600183825416179055600554165f5260046020526001855f20918254161790558160015416176001556002541617600255516130b69081620001b08239f35b835162461bcd60e51b815260206004820152602160248201527f496e76616c6964206175646974206c6f672073746f72616765206164647265736044820152607360f81b6064820152608490fd5b835162461bcd60e51b815260206004820152602660248201527f496e76616c6964204449442063726564656e7469616c2073746f72616765206160448201526564647265737360d01b6064820152608490fd5b5f80fd5b634e487b7160e01b5f52604160045260245ffd5b51906001600160a01b0382168203620001825756fe60406080815260049081361015610014575f80fd5b5f9160e0908335821c9182630cb9a3cc14611cf95782631230abb514611cb757848363133a691c14611a7b5750826331ba196614611a26578263357061e114611966578263389a2f3d146117545782634ff25b101461172b578263526241a8146116ee578263542a086c1461161f57826359358acf146114a6578263614d08f81461144857826374b2234d146113d5578263808b5c8a14611397578263809915bc1461117f5782638da5cb5b146111565782639414311f14611072578263a02cb6de14610c22578263ac972d861461090d578263ad6e823b146108b4578263b015b9b41461088b578263c405181c146107e357848363dc4fb01c1461058557508263f1a6968d1461028757508163f731fa0f14610248578163fa9cccb814610163575063ffa1ad7414610145575f80fd5b3461015f578160031936011261015f576020905160018152f35b5080fd5b83833461015f57602036600319011261015f57816001600160a01b0360248161018a61230f565b1691610197831515612c7a565b6001541695845196879384927ffa9cccb80000000000000000000000000000000000000000000000000000000084528301525afa91821561023d5780926101f2575b8151602080825281906101ee908201866123b7565b0390f35b9091503d8082853e61020481856121a7565b83019260208185031261015f5780519167ffffffffffffffff831161023a575092610233916101ee9401612751565b90836101d9565b80fd5b9051903d90823e3d90fd5b905034610283576020366003190112610283578160209360ff926001600160a01b0361027261230f565b168252855220541690519015158152f35b8280fd5b9091503461058157600319606036820112610534578483359267ffffffffffffffff93848111610283576102be90369087016121e5565b92602435858111610581576102d690369088016121e5565b94604435908111610581576102ee90369088016121e5565b33845260209680885260ff89862054168015610568575b61030e906125ca565b61031a86511515612615565b610326875115156126ab565b610332825115156129f6565b6001600160a01b038060015416803b15610564578a5163123a903960e31b815290879082908183816103678f8f8b8401612a41565b03925af190811561055a578791610546575b50506002541690610435604e8b5180957f43726564656e7469616c207265766f6b656420666f72204449443a20000000008d8301528c6104268d8d6103c78151809286603c8a019101612396565b85017f2c20486173683a20000000000000000000000000000000000000000000000000603c8201526104028251809386604485019101612396565b019169016102932b0b9b7b71d160b51b604484015283519384918785019101612396565b0103602e8101865201846121a7565b813b1561054257858a8195828c61049e829885519b8c9a8b99634dac955d60e01b8b528a015260a060248a0152601260a48a01527f43524544454e5449414c5f5245564f4b4544000000000000000000000000000060c48a0152604489015260e48801906123b7565b8681039384016064880152828152601c84016084880152015201925af180156105385761051c575b5050907fe0f2c8af83eafa83d6febe3d54e88deef8002b0172534bd36b7118598accfa45926104f761050b936129d6565b9480519384936060855260608501906123b7565b91339084015242908301520390a280f35b6105289093929361212a565b6105345790845f6104c6565b8480fd5b86513d84823e3d90fd5b8580fd5b61054f9061212a565b61054257855f610379565b8b513d89823e3d90fd5b8680fd5b5061030e6001600160a01b036005541633149050610305565b8380fd5b93925090346107de5761059736612325565b9490923382526020926003845260ff868420541680156107c5575b6105bb90612c2f565b6105c785511515612615565b6001600160a01b0396878116976105df891515612c7a565b8060015416803b156105425788517fdc4fb01c0000000000000000000000000000000000000000000000000000000081529086908290818381610625898f8c8401612cc5565b03925af180156107bb579086916107a7575b5050610647906002541691612f0b565b906106c06046895180947f4164647265737320756e6c696e6b65642066726f6d204449443a2000000000008a8301528a51610689818d8d603b87019101612396565b82016a0161020b2323932b9b99d160ad1b603b8201526106b1825180938d8785019101612396565b010360268101855201836121a7565b803b1561053457849283896107278c9582519889978896634dac955d60e01b885287015260a06024870152600c60a48701527f4449445f554e4c494e4b4544000000000000000000000000000000000000000060c4870152604486015260e48501906123b7565b828a8583039260031984016064880152828152601c84016084880152015201925af1801561079d57610789575b50506107807fc61e9da61130013a4f6d5b79717d039b1f4f46db6f7e6da9ab504ddbc8a82066926129d6565b9251428152a380f35b6107929061212a565b61053457845f610754565b85513d84823e3d90fd5b6107b09061212a565b61053457845f610637565b89513d88823e3d90fd5b506105bb6001600160a01b0360055416331490506105b2565b505050fd5b848285823461023a5761083a926107f9366122c8565b919061080781511515612615565b61081383511515612660565b6001600160a01b036001541691855196879485938493633101460760e21b85528401612a41565b03915afa91821561088157836101ee949361085c575b50505191829182612437565b6108799293503d8091833e61087181836121a7565b810190612835565b908380610850565b81513d85823e3d90fd5b5050503461015f578160031936011261015f576020906001600160a01b03600154169051908152f35b5050503461015f57602036600319011261015f57906020916001600160a01b039160ff82846108e161230f565b1692838152600387522054169283156108ff575b5050519015158152f35b600554161491505f806108f5565b8491843461058157600319926060368501126105345767ffffffffffffffff83358181116105645761094290369086016121e5565b91602435828111610bc35761095a9036908701612247565b91604435908111610bc35761097290369087016121e5565b9533885260209086825260ff868a2054168015610c09575b610993906125ca565b61099f85511515612615565b835115610bc757908392916109ba600a8b9796511115612dbe565b6109c6895115156129f6565b855b8451811015610a57576001600160a01b03600154166109e782876129ae565b5190803b15610a5357610a1391899189838e8e519687958694859363123a903960e31b85528401612a41565b03925af18015610a4957908891610a35575b5050610a3090612a66565b6109c8565b610a3e9061212a565b61056457868c610a25565b89513d8a823e3d90fd5b8880fd5b50869293888796610b1460518d610a7a6001600160a01b03600254169651612e1a565b9089519485926802130ba31b41037b3160bd1b8b850152610aa4815180928d602988019101612396565b83017f2063726564656e7469616c73207265766f6b656420666f72204449443a2000006029820152610adf825180938d604785019101612396565b0169016102932b0b9b7b71d160b51b6047820152610b05825180938c8785019101612396565b010360318101845201826121a7565b823b15610bc35785889594868096610b7e829585519c8d9a8b99634dac955d60e01b8b528a015260a060248a0152601960a48a01527f42415443485f43524544454e5449414c535f5245564f4b45440000000000000060c48a0152604489015260e48801906123b7565b8681039384016064880152828152601c84016084880152015201925af1908115610bba5750610baa5750f35b610bb39061212a565b61023a5780f35b513d84823e3d90fd5b8780fd5b6064878388519162461bcd60e51b8352820152600b60248201527f456d7074792061727261790000000000000000000000000000000000000000006044820152fd5b506109936001600160a01b03600554163314905061098a565b849084346102835760a03660031901126102835767ffffffffffffffff90843582811161053457610c5690369087016121e5565b94602495863584811161056457610c709036908401612247565b90604435858111610bc357610c889036908501612247565b92606435868111610a5357610ca090369083016121e5565b906084359680881161106e573660238901121561106e578a9088830135610cc68161222f565b99610cd38a519b8c6121a7565b818b5260209d8e8c019260051b8201019236841161106a57848201925b848410611041575050505050338a52818b5260ff878b2054168015611028575b610d19906125ca565b610d2584511515612615565b8451865103610fe7578451885103610fa757845115610f6657899a610d53600a879c999a9b9c511115612dbe565b875b8651811015610df7578a8789610d8684610d7f81610d7f816001600160a01b0360015416976129ae565b51946129ae565b5191803b15610df357898d8f610db382968d8d9351998a988997889663032e68f360e21b885287016126f6565b03925af18015610de957908a91610dd5575b5050610dd090612a66565b610d55565b610dde9061212a565b610a5357888e610dc5565b8b513d8c823e3d90fd5b8c80fd5b50939850945097909497610ec96055610e1c6001600160a01b03600254169651612e1a565b89519a8b916802130ba31b41037b3160bd1b88840152610e45815180928a602987019101612396565b82017f2063726564656e7469616c732069737375656420746f204449443a20000000006029820152610e80825180938a604585019101612396565b017f2c204a7572697364696374696f6e3a20000000000000000000000000000000006045820152895190610eba828c8a8785019101612396565b0103603581018b5201896121a7565b833b15610a5357610f5389968794610f3460a09b87968c519d8e9b8c9a8b99634dac955d60e01b8b528a0152880152601860a48801527f42415443485f43524544454e5449414c535f495353554544000000000000000060c4880152604487015260e48601906123b7565b601c8582036003198101606488015287835201608486015201906123b7565b03925af1908115610bba5750610baa5750f35b90600c6064928c89519362461bcd60e51b85528401528201527f456d7074792061727261797300000000000000000000000000000000000000006044820152fd5b908a6064928189519362461bcd60e51b85528401528201527f41747472696275746573206172726179206c656e677468206d69736d617463686044820152fd5b9060166064928c89519362461bcd60e51b85528401528201527f417272617973206c656e677468206d69736d61746368000000000000000000006044820152fd5b50610d196001600160a01b036005541633149050610d10565b81843511611066578f809161105b36898835880101612247565b815201930192610cf0565b8e80fd5b8d80fd5b8980fd5b5083833461015f576020928360031936011261028357803567ffffffffffffffff8111610581576110ff916110ab8692369083016121e5565b906110b882511515612615565b826001600160a01b0360015416918651958694859384937f9414311f00000000000000000000000000000000000000000000000000000000855284015260248301906123b7565b03915afa92831561114b578093611119575b505051908152f35b909192508382813d8311611144575b61113281836121a7565b8101031261023a575051908380611111565b503d611128565b8251903d90823e3d90fd5b5050503461015f578160031936011261015f576020906001600160a01b03600554169051908152f35b8491843461058157602091826003193601126105345767ffffffffffffffff94813586811161015f579061123d816111be60a0969594369086016121e5565b85516111c98161216f565b6060978189809352848b8201528489820152848382015282608082015201526111f481511515612615565b6001600160a01b0394888660015416918851958694859384937f809915bc00000000000000000000000000000000000000000000000000000000855284015260248301906123b7565b03915afa97881561138d5782986112bd575b611274886101ee8b8a8a8a8a815197889785895286519060c0878b01528901906123b7565b938501511681870152830151818601528201511515608085015260a06112ab608084015192601f19938488830301848901526123dc565b920151908483030160c08501526123dc565b90919297503d8084843e6112d181846121a7565b820191868184031261058157805190828211610534570160c081840312610581578451936112fe8561216f565b815183811161015f5784611313918401612751565b85526113208883016127a0565b888601528582015186860152611337878301612793565b87860152608082015183811161015f57846113539184016127b4565b608086015260a082015192831161023a57506101ee9694926112749996949261137c92016127b4565b60a08201529681939594929461124f565b84513d84823e3d90fd5b5050503461015f576020906113cc6113ae366122c8565b906113bb81511515612615565b6113c782511515612660565b612cec565b90519015158152f35b84828534610283576020366003190112610283578282359267ffffffffffffffff841161015f5761140c61083a94369083016121e5565b9061141982511515612615565b60206001600160a01b0360015416918551968794859384936374b2234d60e01b855284015260248301906123b7565b5050503461015f578160031936011261015f5780516101ee9161146a8261218b565b600a82527f4449444d616e61676572000000000000000000000000000000000000000000006020830152519182916020835260208301906123b7565b5083833461015f57602090816003193601126102835767ffffffffffffffff918435838111610534576114dc90369087016121e5565b936114e985511515612615565b611538816001600160a01b039660019885898b5416918851958694859384937f59358acf00000000000000000000000000000000000000000000000000000000855284015260248301906123b7565b03915afa94851561138d57829561158c575b50509190819593955194818087019381885288518095528701970193905b8382106115755786880387f35b845181168852968201969382019390850190611568565b909194503d8086843e61159f81846121a7565b820191838184031261054257805191821161054257019080601f830112156105345781516115cc8161222f565b926115d9865194856121a7565b818452848085019260051b8201019283116105645784809101915b838310611607575050505092868061154a565b8190611612846127a0565b81520191019084906115f4565b848285346102835761163036612367565b91906001600160a01b039061164a8260055416331461252c565b611652612577565b169283156116ac57507e8ebc621f24e0e9d1fd4ee2f7df9bb80c8d61ee30a9167a4fee6cefcf8c021e916020918486526003835261169e828288209060ff801983541691151516179055565b519015158152a26001815580f35b6020606492519162461bcd60e51b8352820152601660248201527f496e76616c6964207772697465722061646472657373000000000000000000006044820152fd5b5050503461015f57602036600319011261015f5760ff816020936001600160a01b0361171861230f565b1681526003855220541690519015158152f35b5050503461015f578160031936011261015f576020906001600160a01b03600254169051908152f35b9150833461023a576117ac81611769366122c8565b909461177786511515612615565b61178382511515612660565b6001956001600160a01b0387541691895195869485938493633101460760e21b85528401612a41565b03915afa90811561079d57829161194c575b5081938383905b6118e5575b506117d48561222f565b946117e1875196876121a7565b8086526117f0601f199161222f565b0190835b828110611899575050508282905b611814575b8551806101ee8782612437565b81518110156118945760c061182982846129ae565b510151158061187d575b611847575b61184190612a66565b83611802565b916118756118419161185985856129ae565b5161186482896129ae565b5261186f81886129ae565b50612a66565b929050611838565b5060a061188a82846129ae565b5101514210611833565b611807565b60209088516118a781612152565b606080825283908082840152808c84015280808401528860808401528860a08401528860c08401528886840152610100830152828a010152016117f4565b82518110156119475760c06118fa82856129ae565b5101511580611930575b611919575b6119138591612a66565b906117c5565b946119136119278692612a66565b96915050611909565b5060a061193d82856129ae565b5101514210611904565b6117ca565b61196091503d8084833e61087181836121a7565b856117be565b848285346102835761197736612367565b91906001600160a01b03906119918260055416331461252c565b611999612577565b169283156119e457916020917f0455d749995ce43e3b98981b666e5dadcc51f9536cac29239989847262b3161093858752835261169e828288209060ff801983541691151516179055565b6020606492519162461bcd60e51b8352820152601660248201527f496e76616c6964206973737565722061646472657373000000000000000000006044820152fd5b5083833461015f57602036600319011261015f5760209260ff826001600160a01b039485611a5261230f565b16938482528752205416928315611a6d575050519015158152f35b6005541614915083806108f5565b93925090346107de57611a8d36612325565b9490923382526020926003845260ff86842054168015611c9e575b611ab190612c2f565b611abd85511515612615565b6001600160a01b039687811697611ad5891515612c7a565b8060015416803b156105425788517f133a691c0000000000000000000000000000000000000000000000000000000081529086908290818381611b1b898f8c8401612cc5565b03925af180156107bb57908691611c8a575b5050611b3d906002541691612f0b565b90611bb66042895180947f41646472657373206c696e6b656420746f204449443a200000000000000000008a8301528a51611b7f818d8d603787019101612396565b82016a0161020b2323932b9b99d160ad1b6037820152611ba7825180938d8785019101612396565b010360228101855201836121a7565b803b156105345784928389611c1d8c9582519889978896634dac955d60e01b885287015260a06024870152600a60a48701527f4449445f4c494e4b45440000000000000000000000000000000000000000000060c4870152604486015260e48501906123b7565b828a8583039260031984016064880152828152601c84016084880152015201925af1801561079d57611c76575b50506107807f174a9a71f342e002f6ce8fd50eeb5eb833f240e2c2527ad97a03049449503fd2926129d6565b611c7f9061212a565b61053457845f611c4a565b611c939061212a565b61053457845f611b2d565b50611ab16001600160a01b036005541633149050611aa8565b5050503461015f57606090611ce0611cce366122c8565b90611cdb81511515612615565b612a88565b9083929351931515845215156020840152151590820152f35b91509134610581576003199260a0368501126105345767ffffffffffffffff93813585811161056457611d2f90369084016121e5565b91602435868111610bc357611d4790369083016121e5565b94604435878111610a5357611d5f90369084016121e5565b9260643588811161106e57611d7790369085016121e5565b9760843590811161106e57611d8f9036908501612247565b91338a5260209484865260ff888c2054168015612111575b611db0906125ca565b611dbc87511515612615565b611dc889511515612660565b611dd4815115156126ab565b8951156120cf578a6001600160a01b03948560015416803b15610283578983898f8f958f91611e169251998a988997889663032e68f360e21b885287016126f6565b03925af180156120c5576120aa575b508991611eb19188611efa60528a8e8e8c8b600254169651998a947f43726564656e7469616c2069737375656420746f204449443a2000000000000083870152611e788151809285603a8a019101612396565b8501917f2c20547970653a20000000000000000000000000000000000000000000000000603a8401528351938491604285019101612396565b017f2c204a7572697364696374696f6e3a20000000000000000000000000000000006042820152611eeb8d83519384918785019101612396565b010360328101875201856121a7565b803b1561053457848088611f868f8c8f98601c611f6a879b519c8d9b8c9a8b99634dac955d60e01b8b528a015260a060248a0152601160a48a01527f43524544454e5449414c5f49535355454400000000000000000000000000000060c48a0152604489015260e48801906123b7565b91868303908101606488015287835201608486015201906123b7565b03925af180156120a05761208c575b50506001541687855180926374b2234d60e01b825285858301528180611fbe602482018a6123b7565b03915afa908115612082578891612068575b5080515f198101929083116120555750612037949261202360a061201a7f550a0b9f36bb4056b1fcf0c1c37d61b69d20190bde216b4568cfd900430053f2999795612044956129ae565b510151936129d6565b9784519687966080885260808801906123b7565b91868303908701526123b7565b91339084015260608301520390a280f35b886011602492634e487b7160e01b835252fd5b61207c91503d808a833e61087181836121a7565b5f611fd0565b85513d8a823e3d90fd5b6120959061212a565b610bc357875f611f95565b87513d84823e3d90fd5b918991888a9c6120ba8a9661212a565b9c5050915091611e25565b88513d8d823e3d90fd5b606485878a519162461bcd60e51b8352820152601460248201527f496e76616c6964206a7572697364696374696f6e0000000000000000000000006044820152fd5b50611db06001600160a01b036005541633149050611da7565b67ffffffffffffffff811161213e57604052565b634e487b7160e01b5f52604160045260245ffd5b610120810190811067ffffffffffffffff82111761213e57604052565b60c0810190811067ffffffffffffffff82111761213e57604052565b6040810190811067ffffffffffffffff82111761213e57604052565b90601f8019910116810190811067ffffffffffffffff82111761213e57604052565b67ffffffffffffffff811161213e57601f01601f191660200190565b81601f8201121561222b578035906121fc826121c9565b9261220a60405194856121a7565b8284526020838301011161222b57815f926020809301838601378301015290565b5f80fd5b67ffffffffffffffff811161213e5760051b60200190565b9080601f8301121561222b5781359061225f8261222f565b9261226d60405194856121a7565b828452602092838086019160051b8301019280841161222b57848301915b84831061229b5750505050505090565b823567ffffffffffffffff811161222b5786916122bd848480948901016121e5565b81520192019161228b565b90604060031983011261222b5767ffffffffffffffff60043581811161222b57836122f5916004016121e5565b9260243591821161222b5761230c916004016121e5565b90565b600435906001600160a01b038216820361222b57565b604060031982011261222b576004359067ffffffffffffffff821161222b57612350916004016121e5565b906024356001600160a01b038116810361222b5790565b604090600319011261222b576004356001600160a01b038116810361222b5790602435801515810361222b5790565b5f5b8381106123a75750505f910152565b8181015183820152602001612398565b906020916123d081518092818552858086019101612396565b601f01601f1916010190565b908082519081815260208091019281808460051b8301019501935f915b8483106124095750505050505090565b9091929394958480612427600193601f198682030187528a516123b7565b98019301930191949392906123f9565b602080820190808352835180925260409283810182858560051b8401019601945f925b85841061246b575050505050505090565b90919293949596858061251b600193603f198682030188528b516124d46124c16124b16124a184516101208088528701906123b7565b87850151868203898801526123b7565b8a8401518582038c8701526123b7565b60608084015190858303908601526123b7565b916080808301519082015260a0808301519082015260c08083015115159082015260e06001600160a01b0381840151169082015261010080920151918184039101526123dc565b99019401940192959493919061245a565b1561253357565b606460405162461bcd60e51b815260206004820152600a60248201527f4f6e6c79206f776e6572000000000000000000000000000000000000000000006044820152fd5b60025f54146125865760025f55565b606460405162461bcd60e51b815260206004820152601f60248201527f5265656e7472616e637947756172643a207265656e7472616e742063616c6c006044820152fd5b156125d157565b606460405162461bcd60e51b815260206004820152601560248201527f4e6f7420617574686f72697a65642069737375657200000000000000000000006044820152fd5b1561261c57565b606460405162461bcd60e51b815260206004820152600b60248201527f496e76616c6964204449440000000000000000000000000000000000000000006044820152fd5b1561266757565b606460405162461bcd60e51b815260206004820152601760248201527f496e76616c69642063726564656e7469616c20747970650000000000000000006044820152fd5b156126b257565b606460405162461bcd60e51b815260206004820152601760248201527f496e76616c69642063726564656e7469616c20686173680000000000000000006044820152fd5b939061230c9593612727612743946127196127359460a08a5260a08a01906123b7565b9088820360208a01526123b7565b9086820360408801526123b7565b9084820360608601526123b7565b9160808184039101526123dc565b81601f8201121561222b578051612767816121c9565b9261277560405194856121a7565b8184526020828401011161222b5761230c9160208085019101612396565b5190811515820361222b57565b51906001600160a01b038216820361222b57565b9080601f8301121561222b578151906127cc8261222f565b926127da60405194856121a7565b828452602092838086019160051b8301019280841161222b57848301915b8483106128085750505050505090565b825167ffffffffffffffff811161222b57869161282a84848094890101612751565b8152019201916127f8565b602090818184031261222b57805167ffffffffffffffff9182821161222b57019083601f8301121561222b57815161286c8161222f565b94604061287b815197886121a7565b828752858088019360051b8601019482861161222b57868101935b8685106128a857505050505050505090565b845186811161222b578201906101209081601f19848803011261222b5784516128d081612152565b8a84015189811161222b57878c6128e992870101612751565b81528584015189811161222b57878c61290492870101612751565b8b820152606092838501518a811161222b57888d61292492880101612751565b87830152608093848601518b811161222b57898e61294492890101612751565b9083015260a093848601519083015260c093848601519083015260e09361296c858701612793565b908301526101009361297f8587016127a0565b908301528401519289841161222b5761299f888d809796819701016127b4565b90820152815201940193612896565b80518210156129c25760209160051b010190565b634e487b7160e01b5f52603260045260245ffd5b6129ee90602060405192828480945193849201612396565b810103902090565b156129fd57565b606460405162461bcd60e51b815260206004820152600e60248201527f496e76616c696420726561736f6e0000000000000000000000000000000000006044820152fd5b9091612a5861230c936040845260408401906123b7565b9160208184039101526123b7565b5f198114612a745760010190565b634e487b7160e01b5f52601160045260245ffd5b906001906001600160a01b038254166040918251927f61e2d602000000000000000000000000000000000000000000000000000000008452602092836004860152838580612ad960248201876123b7565b0381845afa948515612c25575f95612bee575b5084612be157612b19965f91835180809a81946374b2234d60e01b835289600484015260248301906123b7565b03915afa958615612bd7575f96612bbc575b505f855b612b43575b505050505050505f905f905f90565b8651811015612bb75781612b5782896129ae565b51015184815191012083518585012014612b7a57612b7490612a66565b85612b2f565b91505084959350612ba0915060a0612b958260c095976129ae565b5101514210956129ae565b5101511580612bb0575b92159190565b5082612baa565b612b34565b612bd091963d8091833e61087181836121a7565b945f612b2b565b50513d5f823e3d90fd5b505f968796509350505050565b90948482813d8311612c1e575b612c0581836121a7565b8101031261023a5750612c1790612793565b935f612aec565b503d612bfb565b82513d5f823e3d90fd5b15612c3657565b606460405162461bcd60e51b815260206004820152600e60248201527f4e6f7420617574686f72697a65640000000000000000000000000000000000006044820152fd5b15612c8157565b606460405162461bcd60e51b815260206004820152600f60248201527f496e76616c6964206164647265737300000000000000000000000000000000006044820152fd5b906001600160a01b03612ce56020929594956040855260408501906123b7565b9416910152565b6001906001600160a01b03825416906040518092633101460760e21b82528180612d1c5f98899660048401612a41565b03915afa908115612db3579082918491612d99575b509083905b612d41575b50505090565b8151811015612d945760c0612d5682846129ae565b5101511580612d7d575b612d765790612d6f8392612a66565b9091612d36565b5050905090565b5060a0612d8a82846129ae565b5101514210612d60565b612d3b565b612dad91503d8086833e61087181836121a7565b5f612d31565b6040513d85823e3d90fd5b15612dc557565b606460405162461bcd60e51b815260206004820152601460248201527f546f6f206d616e792063726564656e7469616c730000000000000000000000006044820152fd5b9081518110156129c2570160200190565b8015612ed15780815f925b612ebb5750612e33826121c9565b91612e4160405193846121a7565b80835281601f19612e51836121c9565b013660208601375b612e6257505090565b5f198101908111612a74578091600a9160308383068101809111612a74577fff00000000000000000000000000000000000000000000000000000000000000612eb29160f81b165f1a9186612e09565b53049081612e59565b9091612ec8600a91612a66565b92910480612e25565b50604051612ede8161218b565b600181527f3000000000000000000000000000000000000000000000000000000000000000602082015290565b6001600160a01b031660405190612f218261218b565b6010825260207f303132333435363738396162636465660000000000000000000000000000000081840152604051926060840184811067ffffffffffffffff82111761213e57604052602a845281840160403682378451156129c257603090538351926001938410156129c257607860218601535f5b60148110612fa757505050505090565b600c8101808211612a7457848110156129c25782901a60047fff00000000000000000000000000000000000000000000000000000000000000600f81612ff185851c831689612e09565b511693858a1b9460029087870482148815171561306d5786820180921161306d5761302561302d9493928e925f1a92612e09565b531687612e09565b511690600392830180931161305a57509061304f61305593925f1a9189612e09565b53612a66565b612f97565b601190634e487b7160e01b5f525260245ffd5b601186634e487b7160e01b5f525260245ffdfea2646970667358221220b3d82adb25246ebdfb2a43e3e8057aaefe58bd12990e1b986517ee86ba03ad1f64736f6c63430008140033",
  "linkReferences": {},
  "deployedLinkReferences": {}
}