{
  "_format": "hh-sol-artifact-1",
  "contractName": "CredentialTypeManagerRefactored",
  "sourceName": "contracts/utility/CredentialTypeManagerRefactored.sol",
  "abi": [
    {
      "inputs": [],
      "stateMutability": "nonpayable",
      "type": "constructor"
    },
    {
      "anonymous": false,
      "inputs": [
        {
          "indexed": true,
          "internalType": "address",
          "name": "writer",
          "type": "address"
        },
        {
          "indexed": false,
          "internalType": "bool",
          "name": "authorized",
          "type": "bool"
        }
      ],
      "name": "AuthorizedWriterUpdated",
      "type": "event"
    },
    {
      "anonymous": false,
      "inputs": [
        {
          "indexed": true,
          "internalType": "string",
          "name": "credentialTypeId",
          "type": "string"
        },
        {
          "indexed": false,
          "internalType": "string",
          "name": "name",
          "type": "string"
        },
        {
          "indexed": false,
          "internalType": "enum CredentialTypeManagerRefactored.CredentialCategory",
          "name": "category",
          "type": "uint8"
        }
      ],
      "name": "CredentialTypeCreated",
      "type": "event"
    },
    {
      "anonymous": false,
      "inputs": [
        {
          "indexed": true,
          "internalType": "string",
          "name": "credentialTypeId",
          "type": "string"
        },
        {
          "indexed": false,
          "internalType": "enum CredentialTypeManagerRefactored.CredentialStatus",
          "name": "status",
          "type": "uint8"
        }
      ],
      "name": "CredentialTypeUpdated",
      "type": "event"
    },
    {
      "inputs": [
        {
          "internalType": "uint256",
          "name": "",
          "type": "uint256"
        }
      ],
      "name": "allCredentialTypeIds",
      "outputs": [
        {
          "internalType": "string",
          "name": "",
          "type": "string"
        }
      ],
      "stateMutability": "view",
      "type": "function"
    },
    {
      "inputs": [
        {
          "internalType": "address",
          "name": "",
          "type": "address"
        }
      ],
      "name": "authorizedWriters",
      "outputs": [
        {
          "internalType": "bool",
          "name": "",
          "type": "bool"
        }
      ],
      "stateMutability": "view",
      "type": "function"
    },
    {
      "inputs": [
        {
          "internalType": "string",
          "name": "credentialTypeId",
          "type": "string"
        },
        {
          "internalType": "string",
          "name": "name",
          "type": "string"
        },
        {
          "internalType": "string",
          "name": "description",
          "type": "string"
        },
        {
          "internalType": "enum CredentialTypeManagerRefactored.CredentialCategory",
          "name": "category",
          "type": "uint8"
        },
        {
          "internalType": "uint256",
          "name": "defaultValidityPeriod",
          "type": "uint256"
        },
        {
          "internalType": "bool",
          "name": "requiresBiometric",
          "type": "bool"
        },
        {
          "internalType": "bool",
          "name": "requiresDocumentProof",
          "type": "bool"
        },
        {
          "internalType": "string",
          "name": "version",
          "type": "string"
        }
      ],
      "name": "createCredentialType",
      "outputs": [],
      "stateMutability": "nonpayable",
      "type": "function"
    },
    {
      "inputs": [
        {
          "internalType": "string",
          "name": "",
          "type": "string"
        }
      ],
      "name": "credentialTypes",
      "outputs": [
        {
          "internalType": "string",
          "name": "credentialTypeId",
          "type": "string"
        },
        {
          "internalType": "string",
          "name": "name",
          "type": "string"
        },
        {
          "internalType": "string",
          "name": "description",
          "type": "string"
        },
        {
          "internalType": "enum CredentialTypeManagerRefactored.CredentialCategory",
          "name": "category",
          "type": "uint8"
        },
        {
          "internalType": "enum CredentialTypeManagerRefactored.CredentialStatus",
          "name": "status",
          "type": "uint8"
        },
        {
          "internalType": "uint256",
          "name": "defaultValidityPeriod",
          "type": "uint256"
        },
        {
          "internalType": "bool",
          "name": "requiresBiometric",
          "type": "bool"
        },
        {
          "internalType": "bool",
          "name": "requiresDocumentProof",
          "type": "bool"
        },
        {
          "internalType": "uint256",
          "name": "creationTimestamp",
          "type": "uint256"
        },
        {
          "internalType": "address",
          "name": "createdBy",
          "type": "address"
        },
        {
          "internalType": "string",
          "name": "version",
          "type": "string"
        }
      ],
      "stateMutability": "view",
      "type": "function"
    },
    {
      "inputs": [
        {
          "internalType": "enum CredentialTypeManagerRefactored.CredentialCategory",
          "name": "",
          "type": "uint8"
        },
        {
          "internalType": "uint256",
          "name": "",
          "type": "uint256"
        }
      ],
      "name": "credentialTypesByCategory",
      "outputs": [
        {
          "internalType": "string",
          "name": "",
          "type": "string"
        }
      ],
      "stateMutability": "view",
      "type": "function"
    },
    {
      "inputs": [],
      "name": "getAllCredentialTypeIds",
      "outputs": [
        {
          "internalType": "string[]",
          "name": "credentialTypeIds",
          "type": "string[]"
        }
      ],
      "stateMutability": "view",
      "type": "function"
    },
    {
      "inputs": [
        {
          "internalType": "string",
          "name": "credentialTypeId",
          "type": "string"
        }
      ],
      "name": "getCredentialType",
      "outputs": [
        {
          "components": [
            {
              "internalType": "string",
              "name": "credentialTypeId",
              "type": "string"
            },
            {
              "internalType": "string",
              "name": "name",
              "type": "string"
            },
            {
              "internalType": "string",
              "name": "description",
              "type": "string"
            },
            {
              "internalType": "enum CredentialTypeManagerRefactored.CredentialCategory",
              "name": "category",
              "type": "uint8"
            },
            {
              "internalType": "enum CredentialTypeManagerRefactored.CredentialStatus",
              "name": "status",
              "type": "uint8"
            },
            {
              "internalType": "uint256",
              "name": "defaultValidityPeriod",
              "type": "uint256"
            },
            {
              "internalType": "bool",
              "name": "requiresBiometric",
              "type": "bool"
            },
            {
              "internalType": "bool",
              "name": "requiresDocumentProof",
              "type": "bool"
            },
            {
              "internalType": "uint256",
              "name": "creationTimestamp",
              "type": "uint256"
            },
            {
              "internalType": "address",
              "name": "createdBy",
              "type": "address"
            },
            {
              "internalType": "string",
              "name": "version",
              "type": "string"
            }
          ],
          "internalType": "struct CredentialTypeManagerRefactored.CredentialType",
          "name": "credentialType",
          "type": "tuple"
        }
      ],
      "stateMutability": "view",
      "type": "function"
    },
    {
      "inputs": [
        {
          "internalType": "enum CredentialTypeManagerRefactored.CredentialCategory",
          "name": "category",
          "type": "uint8"
        }
      ],
      "name": "getCredentialTypesByCategory",
      "outputs": [
        {
          "internalType": "string[]",
          "name": "credentialTypeIds",
          "type": "string[]"
        }
      ],
      "stateMutability": "view",
      "type": "function"
    },
    {
      "inputs": [
        {
          "internalType": "address",
          "name": "writer",
          "type": "address"
        }
      ],
      "name": "isAuthorizedWriter",
      "outputs": [
        {
          "internalType": "bool",
          "name": "",
          "type": "bool"
        }
      ],
      "stateMutability": "view",
      "type": "function"
    },
    {
      "inputs": [
        {
          "internalType": "string",
          "name": "credentialTypeId",
          "type": "string"
        }
      ],
      "name": "isCredentialTypeActive",
      "outputs": [
        {
          "internalType": "bool",
          "name": "",
          "type": "bool"
        }
      ],
      "stateMutability": "view",
      "type": "function"
    },
    {
      "inputs": [],
      "name": "owner",
      "outputs": [
        {
          "internalType": "address",
          "name": "",
          "type": "address"
        }
      ],
      "stateMutability": "view",
      "type": "function"
    },
    {
      "inputs": [
        {
          "internalType": "address",
          "name": "writer",
          "type": "address"
        },
        {
          "internalType": "bool",
          "name": "authorized",
          "type": "bool"
        }
      ],
      "name": "setAuthorizedWriter",
      "outputs": [],
      "stateMutability": "nonpayable",
      "type": "function"
    },
    {
      "inputs": [
        {
          "internalType": "string",
          "name": "credentialTypeId",
          "type": "string"
        },
        {
          "internalType": "enum CredentialTypeManagerRefactored.CredentialStatus",
          "name": "status",
          "type": "uint8"
        }
      ],
      "name": "updateCredentialTypeStatus",
      "outputs": [],
      "stateMutability": "nonpayable",
      "type": "function"
    }
  ],
  "bytecode": "0x60806040523462000597576001600081815581546001600160a01b0319163390811783558152600260205260409020805460ff1916909117905562000043620005d3565b600c81526b6b79632d6964656e7469747960a01b602082015262000066620005d3565b90601982527f4b5943204964656e7469747920566572696669636174696f6e0000000000000060208301526200009b620005f3565b603381527f4964656e7469747920766572696669636174696f6e2063726564656e7469616c60208201527f20666f72204b594320636f6d706c69616e6365000000000000000000000000006040820152620000f5620005d3565b9060038252620312e360ec1b602083015260018060a01b0360015416906200011c6200059c565b948486526020860152604085015260006060850152600060808501526301e1338060a0850152600060c0850152600160e08501524261010085015261012084015261014083015260405181518160005b828110620005805750602091810160038152030190206200018f83518262000613565b620001a260208401516001830162000613565b620001b560408401516002830162000613565b606083015190600582101562000553576003810154608085015160048110156200055357620002c295620002879460089360ff61ff0061014095871b1692169061ffff19161717600385015560a081015160048501556200022b60c08201511515600586019060ff801983541691151516179055565b60e081015160058501805461ff001916911515851b61ff001691909117905561010081015160068501556101208101516007850180546001600160a01b0319166001600160a01b03929092169190911790550151910162000613565b600080526004602052620002bc817f17ef568e3e12ab5b9c7254a8d58478811de00f9e6eb34345acd53bf8fd09d3ec620007d1565b62000761565b620002cc620005d3565b601081526f66696e616e6369616c2d73746174757360801b6020820152620002f3620005d3565b90601d82527f46696e616e6369616c2053746174757320566572696669636174696f6e000000602083015262000328620005f3565b603381527f46696e616e6369616c2073746174757320616e6420696e636f6d65207665726960208201527f6669636174696f6e2063726564656e7469616c00000000000000000000000000604082015262000382620005d3565b9060038252620312e360ec1b602083015260018060a01b036001541690620003a96200059c565b9484865260208601526040850152600160608501526000608085015262ed4e0060a0850152600060c0850152600160e08501524261010085015261012084015261014083015260405181518160005b828110620005695750602091810160038152030190206200041b83518262000613565b6200042e60208401516001830162000613565b6200044160408401516002830162000613565b60608301519060058210156200055357600381015460808501516004811015620005535762000543956200050d9460089360ff61ff0061014095871b1692169061ffff19161717600385015560a0810151600485015560058401620004b860c08301511515829060ff801983541691151516179055565b60e0820151815461ff001916901515851b61ff001617905561010081015160068501556101208101516007850180546001600160a01b0319166001600160a01b03929092169190911790550151910162000613565b60016000526004602052620002bc817fabd6e7cb50984ff9c2f3e18a2660c3353dadf4e3291deeb275dae2cd1e44fe05620007d1565b60405161138d90816200080a8239f35b634e487b7160e01b600052602160045260246000fd5b6020809250818601015181850152018290620003f8565b60208092508186010151818501520182906200016c565b600080fd5b6040519061016082016001600160401b03811183821017620005bd57604052565b634e487b7160e01b600052604160045260246000fd5b60408051919082016001600160401b03811183821017620005bd57604052565b60405190606082016001600160401b03811183821017620005bd57604052565b81519091906001600160401b038111620005bd57825460019283821691841c821562000758575b602092838210146200074257601f8111620006f4575b5081601f84116001146200068d575092829391839260009462000681575b50501b916000199060031b1c1916179055565b0151925038806200066e565b919083601f1981168760005284600020946000905b88838310620006d95750505010620006bf575b505050811b019055565b015160001960f88460031b161c19169055388080620006b5565b858701518855909601959485019487935090810190620006a2565b8560005282600020601f850160051c81019184861062000737575b601f0160051c019085905b8281106200072a57505062000650565b600081550185906200071a565b90915081906200070f565b634e487b7160e01b600052602260045260246000fd5b607f166200063a565b6005549068010000000000000000821015620005bd576001820180600555821015620007bb576005600052620007b9917f036b6384b5eca791c62761152d0c79bb0604c104a5fb6f4eb0703f3154bb3db00162000613565b565b634e487b7160e01b600052603260045260246000fd5b90815468010000000000000000811015620005bd5760018101808455811015620007bb57620007b9926000526020600020016200061356fe6080604052600436101561001257600080fd5b60003560e01c806304801b2014610c36578063526241a814610bf7578063542a086c14610aaa578063662c565e14610a1b5780636f175786146109cf57806381b81bd01461093557806381e4ab0c146104b75780638da5cb5b1461049057806390cc1d7114610351578063ad6e823b146102f9578063c8fdf833146101d6578063cb2cdf7e1461016d5763e9371c58146100ab57600080fd5b346101685760203660031901126101685760043567ffffffffffffffff811161016857600361012e60206100e560ff943690600401610ecf565b6040519061011d6001600160a01b03600783519486818187019761010a81838b610f26565b81018b815203019020015416151561130c565b604051938492839251928391610f26565b810184815203019020015460081c1660048110156101525760209060405190158152f35b634e487b7160e01b600052602160045260246000fd5b600080fd5b3461016857602036600319011261016857600435600554811015610168576101be6101d29160056000527f036b6384b5eca791c62761152d0c79bb0604c104a5fb6f4eb0703f3154bb3db00161106b565b604051918291602083526020830190610f49565b0390f35b346101685760403660031901126101685760043567ffffffffffffffff811161016857610207903690600401610ecf565b6024359060048210156101685760206102ca7feee90e57f3f271d34e6b67cd01b7e79c53f1ebe66ac2f0f6fd4cbdb100f0a26892336000526002835260ff6040600020541680156102e0575b61025c90611111565b6102c58560036102b68660405161029d6001600160a01b0360078951938581818d019661028a81838a610f26565b81018a815203019020015416151561130c565b6102a56112b7565b604051809381928951928391610f26565b81018481520301902001611278565b611297565b926102d86040518092610f7b565ba26001600055005b5061025c6001600160a01b036001541633149050610253565b346101685760203660031901126101685760206001600160a01b038061031d610f88565b16806000526002835260ff60406000205416918215610343575b50506040519015158152f35b600154161490508280610337565b346101685760203660031901126101685760043567ffffffffffffffff811161016857602061038761039a923690600401610ecf565b8160405193828580945193849201610f26565b810160038152030190206104216101d26103b38361106b565b926103c06001820161106b565b936103cd6002830161106b565b9160038101549260ff600483015460058401549061045c61043d60068701549561042f61040a60086001600160a01b0360078c0154169a0161106b565b996040519e8f9e8f92610160808552840190610f49565b916020818403910152610f49565b8c810360408e015290610f49565b9761044d60608c01868316610f6e565b8460808c019160081c16610f7b565b60a0890152818116151560c089015260081c16151560e0870152610100860152610120850152838203610140850152610f49565b346101685760003660031901126101685760206001600160a01b0360015416604051908152f35b34610168576101003660031901126101685767ffffffffffffffff600435818111610168576104ea903690600401610ecf565b60243582811161016857610502903690600401610ecf565b916044358181116101685761051b903690600401610ecf565b600560643510156101685760a4359182151583036101685760c4359081151582036101685760e43590811161016857610558903690600401610ecf565b33600052600260205260ff60406000205416801561091c575b61057a90611111565b6105826112b7565b6001600160a01b036007604051602081816105a38b83815193849201610f26565b810160038152030190200154166108d8578451156108945785511561085057604051926105cf84610e90565b85845260208401908782526040850190815260608501956064356105f3908861115c565b60808601946000865260a0870195608435875260c08801921515835260e0880191151582526101008801934285526101208901953387526101408a01978852604051808d81815160208193019161064992610f26565b8101600381520360200190209951610661908b611168565b5161066f9060018b01611168565b5161067d9060028a01611168565b60038801985160058110156101525760ff80198b5416911617895551956004871015610152576106b260089761072e9a611278565b5160048801556106d56005880192511515839060ff801983541691151516179055565b51151561ff00825491871b169061ff0019161790555160068501556001600160a01b03600785019151167fffffffffffffffffffffffff0000000000000000000000000000000000000000825416179055519101611168565b610739606435611000565b908154916801000000000000000092838110156108245761075f91600182018155611019565b61083a578161076d91611168565b6005549182101561082457600182018060055582101561080e576107e0816102c56107f5937fcd0bff200e8d8b3aaf104aa45852150c7d6f05469560808263dd1e413b18c8f79560056000527f036b6384b5eca791c62761152d0c79bb0604c104a5fb6f4eb0703f3154bb3db001611168565b92604051918291604083526040830190610f49565b61080460208301606435610f6e565b0390a26001600055005b634e487b7160e01b600052603260045260246000fd5b634e487b7160e01b600052604160045260246000fd5b634e487b7160e01b600052600060045260246000fd5b606460405162461bcd60e51b815260206004820152600c60248201527f496e76616c6964206e616d6500000000000000000000000000000000000000006044820152fd5b606460405162461bcd60e51b815260206004820152601a60248201527f496e76616c69642063726564656e7469616c20747970652049440000000000006044820152fd5b606460405162461bcd60e51b815260206004820152601e60248201527f43726564656e7469616c207479706520616c72656164792065786973747300006044820152fd5b5061057a6001600160a01b036001541633149050610571565b346101685760003660031901126101685760055467ffffffffffffffff81116108245760405160209161096d838260051b0183610ead565b80825282820160056000527f036b6384b5eca791c62761152d0c79bb0604c104a5fb6f4eb0703f3154bb3db0936000915b8383106109b357604051806101d28782610f9e565b60018281926109c18961106b565b81520196019201919461099e565b34610168576040366003190112610168576004356005811015610168576109f860243591611000565b90815481101561016857610a0b91611019565b61083a576101be6101d29161106b565b346101685760208060031936011261016857600435600581101561016857610a4290611000565b90815467ffffffffffffffff811161082457829060405191610a69848360051b0184610ead565b8183526000908152838120938084015b838310610a8e57604051806101d28782610f9e565b6001828192610a9c8961106b565b815201960192019194610a79565b3461016857604036600319011261016857610ac3610f88565b6024359081151590818303610168576001600160a01b039081600154163303610b8d57610aee6112b7565b16918215610b49577e8ebc621f24e0e9d1fd4ee2f7df9bb80c8d61ee30a9167a4fee6cefcf8c021e91610b3b602092856000526002845260406000209060ff801983541691151516179055565b604051908152a26001600055005b606460405162461bcd60e51b815260206004820152601660248201527f496e76616c6964207772697465722061646472657373000000000000000000006044820152fd5b608460405162461bcd60e51b815260206004820152602160248201527f4f6e6c79206f776e65722063616e2063616c6c20746869732066756e6374696f60448201527f6e000000000000000000000000000000000000000000000000000000000000006064820152fd5b34610168576020366003190112610168576001600160a01b03610c18610f88565b166000526002602052602060ff604060002054166040519015158152f35b346101685760203660031901126101685760043567ffffffffffffffff8111610168576020610c6c610cf8923690600401610ecf565b6060610140604051610c7d81610e90565b828152828582015282604082015260008382015260006080820152600060a0820152600060c0820152600060e08201526000610100820152600061012082015201526040519061011d6001600160a01b036007835194868181870197610ce481838b610f26565b81016003815203019020015416151561130c565b81016003815203019020604051610d0e81610e90565b610d178261106b565b8152610d256001830161106b565b6020820152610d366002830161106b565b604082015260ff6003830154610d518282166060850161115c565b60081c16916004831015610152576008610db8916101d2946080850152600481015460a085015260ff6005820154818116151560c0870152831c16151560e085015260068101546101008501526001600160a01b036007820154166101208501520161106b565b61014082015260405191829160208352610140610e15610dff610de984516101606020890152610180880190610f49565b6020850151878203601f19016040890152610f49565b6040840151868203601f19016060880152610f49565b91610e2860608201516080870190610f6e565b610e3a608082015160a0870190610f7b565b60a081015160c086015260c0810151151560e086015260e081015115156101008601526101008101516101208601526001600160a01b0361012082015116828601520151601f1984830301610160850152610f49565b610160810190811067ffffffffffffffff82111761082457604052565b90601f8019910116810190811067ffffffffffffffff82111761082457604052565b81601f820112156101685780359067ffffffffffffffff82116108245760405192610f04601f8401601f191660200185610ead565b8284526020838301011161016857816000926020809301838601378301015290565b60005b838110610f395750506000910152565b8181015183820152602001610f29565b90602091610f6281518092818552858086019101610f26565b601f01601f1916010190565b9060058210156101525752565b9060048210156101525752565b600435906001600160a01b038216820361016857565b602080820190808352835180925260408301928160408460051b8301019501936000915b848310610fd25750505050505090565b9091929394958480610ff0600193603f198682030187528a51610f49565b9801930193019194939290610fc2565b6005811015610152576000526004602052604060002090565b805482101561080e5760005260206000200190600090565b90600182811c92168015611061575b602083101461104b57565b634e487b7160e01b600052602260045260246000fd5b91607f1691611040565b906040519182600082549261107f84611031565b9081845260019485811690816000146110ee57506001146110ab575b50506110a992500383610ead565b565b9093915060005260209081600020936000915b8183106110d65750506110a99350820101388061109b565b855488840185015294850194879450918301916110be565b9150506110a994506020925060ff191682840152151560051b820101388061109b565b1561111857565b606460405162461bcd60e51b815260206004820152601760248201527f4e6f7420617574686f72697a656420746f2077726974650000000000000000006044820152fd5b60058210156101525752565b919091825167ffffffffffffffff8111610824576111868254611031565b601f8111611230575b50602080601f83116001146111cc5750819293946000926111c1575b50508160011b916000199060031b1c1916179055565b0151905038806111ab565b90601f198316958460005282600020926000905b888210611218575050836001959697106111ff575b505050811b019055565b015160001960f88460031b161c191690553880806111f5565b806001859682949686015181550195019301906111e0565b600083815260208120601f840160051c8101926020851061126e575b601f0160051c01915b82811061126357505061118f565b818155600101611255565b909250829061124c565b9060048110156101525761ff0082549160081b169061ff001916179055565b6112af90602060405192828480945193849201610f26565b810103902090565b6002600054146112c8576002600055565b606460405162461bcd60e51b815260206004820152601f60248201527f5265656e7472616e637947756172643a207265656e7472616e742063616c6c006044820152fd5b1561131357565b606460405162461bcd60e51b815260206004820152601960248201527f43726564656e7469616c2074797065206e6f7420666f756e64000000000000006044820152fdfea264697066735822122094a20ed74a15beb5ca6a8381ff1454396635194d8b0cce08015a477f69bd133064736f6c63430008140033",
  "linkReferences": {},
  "deployedLinkReferences": {}
}