{
  "_format": "hh-sol-artifact-1",
  "contractName": "CredentialTypeManagerRefactored",
  "sourceName": "contracts/utility/CredentialTypeManagerRefactored.sol",
  "abi": [
    {
      "inputs": [],
      "stateMutability": "nonpayable",
      "type": "constructor"
    },
    {
      "anonymous": false,
      "inputs": [
        {
          "indexed": true,
          "internalType": "address",
          "name": "writer",
          "type": "address"
        },
        {
          "indexed": false,
          "internalType": "bool",
          "name": "authorized",
          "type": "bool"
        }
      ],
      "name": "AuthorizedWriterUpdated",
      "type": "event"
    },
    {
      "anonymous": false,
      "inputs": [
        {
          "indexed": true,
          "internalType": "string",
          "name": "credentialTypeId",
          "type": "string"
        },
        {
          "indexed": false,
          "internalType": "string",
          "name": "name",
          "type": "string"
        },
        {
          "indexed": false,
          "internalType": "enum CredentialTypeManagerRefactored.CredentialCategory",
          "name": "category",
          "type": "uint8"
        }
      ],
      "name": "CredentialTypeCreated",
      "type": "event"
    },
    {
      "anonymous": false,
      "inputs": [
        {
          "indexed": true,
          "internalType": "string",
          "name": "credentialTypeId",
          "type": "string"
        },
        {
          "indexed": false,
          "internalType": "enum CredentialTypeManagerRefactored.CredentialStatus",
          "name": "status",
          "type": "uint8"
        }
      ],
      "name": "CredentialTypeUpdated",
      "type": "event"
    },
    {
      "inputs": [
        {
          "internalType": "uint256",
          "name": "",
          "type": "uint256"
        }
      ],
      "name": "allCredentialTypeIds",
      "outputs": [
        {
          "internalType": "string",
          "name": "",
          "type": "string"
        }
      ],
      "stateMutability": "view",
      "type": "function"
    },
    {
      "inputs": [
        {
          "internalType": "address",
          "name": "",
          "type": "address"
        }
      ],
      "name": "authorizedWriters",
      "outputs": [
        {
          "internalType": "bool",
          "name": "",
          "type": "bool"
        }
      ],
      "stateMutability": "view",
      "type": "function"
    },
    {
      "inputs": [
        {
          "internalType": "string",
          "name": "credentialTypeId",
          "type": "string"
        },
        {
          "internalType": "string",
          "name": "name",
          "type": "string"
        },
        {
          "internalType": "string",
          "name": "description",
          "type": "string"
        },
        {
          "internalType": "enum CredentialTypeManagerRefactored.CredentialCategory",
          "name": "category",
          "type": "uint8"
        },
        {
          "internalType": "uint256",
          "name": "defaultValidityPeriod",
          "type": "uint256"
        },
        {
          "internalType": "bool",
          "name": "requiresBiometric",
          "type": "bool"
        },
        {
          "internalType": "bool",
          "name": "requiresDocumentProof",
          "type": "bool"
        },
        {
          "internalType": "string",
          "name": "version",
          "type": "string"
        }
      ],
      "name": "createCredentialType",
      "outputs": [],
      "stateMutability": "nonpayable",
      "type": "function"
    },
    {
      "inputs": [
        {
          "internalType": "string",
          "name": "",
          "type": "string"
        }
      ],
      "name": "credentialTypes",
      "outputs": [
        {
          "internalType": "string",
          "name": "credentialTypeId",
          "type": "string"
        },
        {
          "internalType": "string",
          "name": "name",
          "type": "string"
        },
        {
          "internalType": "string",
          "name": "description",
          "type": "string"
        },
        {
          "internalType": "enum CredentialTypeManagerRefactored.CredentialCategory",
          "name": "category",
          "type": "uint8"
        },
        {
          "internalType": "enum CredentialTypeManagerRefactored.CredentialStatus",
          "name": "status",
          "type": "uint8"
        },
        {
          "internalType": "uint256",
          "name": "defaultValidityPeriod",
          "type": "uint256"
        },
        {
          "internalType": "bool",
          "name": "requiresBiometric",
          "type": "bool"
        },
        {
          "internalType": "bool",
          "name": "requiresDocumentProof",
          "type": "bool"
        },
        {
          "internalType": "uint256",
          "name": "creationTimestamp",
          "type": "uint256"
        },
        {
          "internalType": "address",
          "name": "createdBy",
          "type": "address"
        },
        {
          "internalType": "string",
          "name": "version",
          "type": "string"
        }
      ],
      "stateMutability": "view",
      "type": "function"
    },
    {
      "inputs": [
        {
          "internalType": "enum CredentialTypeManagerRefactored.CredentialCategory",
          "name": "",
          "type": "uint8"
        },
        {
          "internalType": "uint256",
          "name": "",
          "type": "uint256"
        }
      ],
      "name": "credentialTypesByCategory",
      "outputs": [
        {
          "internalType": "string",
          "name": "",
          "type": "string"
        }
      ],
      "stateMutability": "view",
      "type": "function"
    },
    {
      "inputs": [],
      "name": "getAllCredentialTypeIds",
      "outputs": [
        {
          "internalType": "string[]",
          "name": "credentialTypeIds",
          "type": "string[]"
        }
      ],
      "stateMutability": "view",
      "type": "function"
    },
    {
      "inputs": [
        {
          "internalType": "string",
          "name": "credentialTypeId",
          "type": "string"
        }
      ],
      "name": "getCredentialType",
      "outputs": [
        {
          "components": [
            {
              "internalType": "string",
              "name": "credentialTypeId",
              "type": "string"
            },
            {
              "internalType": "string",
              "name": "name",
              "type": "string"
            },
            {
              "internalType": "string",
              "name": "description",
              "type": "string"
            },
            {
              "internalType": "enum CredentialTypeManagerRefactored.CredentialCategory",
              "name": "category",
              "type": "uint8"
            },
            {
              "internalType": "enum CredentialTypeManagerRefactored.CredentialStatus",
              "name": "status",
              "type": "uint8"
            },
            {
              "internalType": "uint256",
              "name": "defaultValidityPeriod",
              "type": "uint256"
            },
            {
              "internalType": "bool",
              "name": "requiresBiometric",
              "type": "bool"
            },
            {
              "internalType": "bool",
              "name": "requiresDocumentProof",
              "type": "bool"
            },
            {
              "internalType": "uint256",
              "name": "creationTimestamp",
              "type": "uint256"
            },
            {
              "internalType": "address",
              "name": "createdBy",
              "type": "address"
            },
            {
              "internalType": "string",
              "name": "version",
              "type": "string"
            }
          ],
          "internalType": "struct CredentialTypeManagerRefactored.CredentialType",
          "name": "credentialType",
          "type": "tuple"
        }
      ],
      "stateMutability": "view",
      "type": "function"
    },
    {
      "inputs": [
        {
          "internalType": "enum CredentialTypeManagerRefactored.CredentialCategory",
          "name": "category",
          "type": "uint8"
        }
      ],
      "name": "getCredentialTypesByCategory",
      "outputs": [
        {
          "internalType": "string[]",
          "name": "credentialTypeIds",
          "type": "string[]"
        }
      ],
      "stateMutability": "view",
      "type": "function"
    },
    {
      "inputs": [
        {
          "internalType": "address",
          "name": "writer",
          "type": "address"
        }
      ],
      "name": "isAuthorizedWriter",
      "outputs": [
        {
          "internalType": "bool",
          "name": "",
          "type": "bool"
        }
      ],
      "stateMutability": "view",
      "type": "function"
    },
    {
      "inputs": [
        {
          "internalType": "string",
          "name": "credentialTypeId",
          "type": "string"
        }
      ],
      "name": "isCredentialTypeActive",
      "outputs": [
        {
          "internalType": "bool",
          "name": "",
          "type": "bool"
        }
      ],
      "stateMutability": "view",
      "type": "function"
    },
    {
      "inputs": [],
      "name": "owner",
      "outputs": [
        {
          "internalType": "address",
          "name": "",
          "type": "address"
        }
      ],
      "stateMutability": "view",
      "type": "function"
    },
    {
      "inputs": [
        {
          "internalType": "address",
          "name": "writer",
          "type": "address"
        },
        {
          "internalType": "bool",
          "name": "authorized",
          "type": "bool"
        }
      ],
      "name": "setAuthorizedWriter",
      "outputs": [],
      "stateMutability": "nonpayable",
      "type": "function"
    },
    {
      "inputs": [
        {
          "internalType": "string",
          "name": "credentialTypeId",
          "type": "string"
        },
        {
          "internalType": "enum CredentialTypeManagerRefactored.CredentialStatus",
          "name": "status",
          "type": "uint8"
        }
      ],
      "name": "updateCredentialTypeStatus",
      "outputs": [],
      "stateMutability": "nonpayable",
      "type": "function"
    }
  ],
  "bytecode": "0x6080604052346200058b5760015f81815581546001600160a01b0319163390811783558152600260205260409020805460ff1916909117905562000042620005c4565b600c81526b6b79632d6964656e7469747960a01b602082015262000065620005c4565b90601982527f4b5943204964656e7469747920566572696669636174696f6e0000000000000060208301526200009a620005e4565b603381527f4964656e7469747920766572696669636174696f6e2063726564656e7469616c60208201527f20666f72204b594320636f6d706c69616e6365000000000000000000000000006040820152620000f4620005c4565b9060038252620312e360ec1b602083015260018060a01b0360015416906200011b6200058f565b94848652602086015260408501525f60608501525f60808501526301e1338060a08501525f60c0850152600160e0850152426101008501526101208401526101408301526040518151815f5b828110620005745750602091810160038152030190206200018a83518262000604565b6200019d60208401516001830162000604565b620001b060408401516002830162000604565b606083015190600582101562000549576003810154608085015160048110156200054957620002bc95620002829460089360ff61ff0061014095871b1692169061ffff19161717600385015560a081015160048501556200022660c08201511515600586019060ff801983541691151516179055565b60e081015160058501805461ff001916911515851b61ff001691909117905561010081015160068501556101208101516007850180546001600160a01b0319166001600160a01b03929092169190911790550151910162000604565b5f80526004602052620002b6817f17ef568e3e12ab5b9c7254a8d58478811de00f9e6eb34345acd53bf8fd09d3ec620007b4565b62000747565b620002c6620005c4565b601081526f66696e616e6369616c2d73746174757360801b6020820152620002ed620005c4565b90601d82527f46696e616e6369616c2053746174757320566572696669636174696f6e000000602083015262000322620005e4565b603381527f46696e616e6369616c2073746174757320616e6420696e636f6d65207665726960208201527f6669636174696f6e2063726564656e7469616c0000000000000000000000000060408201526200037c620005c4565b9060038252620312e360ec1b602083015260018060a01b036001541690620003a36200058f565b9484865260208601526040850152600160608501525f608085015262ed4e0060a08501525f60c0850152600160e0850152426101008501526101208401526101408301526040518151815f5b8281106200055d5750602091810160038152030190206200041283518262000604565b6200042560208401516001830162000604565b6200043860408401516002830162000604565b6060830151906005821015620005495760038101546080850151600481101562000549576200053995620005049460089360ff61ff0061014095871b1692169061ffff19161717600385015560a0810151600485015560058401620004af60c08301511515829060ff801983541691151516179055565b60e0820151815461ff001916901515851b61ff001617905561010081015160068501556101208101516007850180546001600160a01b0319166001600160a01b03929092169190911790550151910162000604565b60015f526004602052620002b6817fabd6e7cb50984ff9c2f3e18a2660c3353dadf4e3291deeb275dae2cd1e44fe05620007b4565b60405161134b9081620007eb8239f35b634e487b7160e01b5f52602160045260245ffd5b6020809250818601015181850152018290620003ef565b602080925081860101518185015201829062000167565b5f80fd5b6040519061016082016001600160401b03811183821017620005b057604052565b634e487b7160e01b5f52604160045260245ffd5b60408051919082016001600160401b03811183821017620005b057604052565b60405190606082016001600160401b03811183821017620005b057604052565b81519091906001600160401b038111620005b057825460019283821691841c82156200073e575b602092838210146200072a57601f8111620006df575b5081601f84116001146200067c57509282939183925f9462000670575b50501b915f199060031b1c1916179055565b015192505f806200065e565b919083601f198116875f52845f20945f905b88838310620006c45750505010620006ab575b505050811b019055565b01515f1960f88460031b161c191690555f8080620006a1565b8587015188559096019594850194879350908101906200068e565b855f52825f20601f850160051c8101918486106200071f575b601f0160051c019085905b8281106200071357505062000641565b5f815501859062000703565b9091508190620006f8565b634e487b7160e01b5f52602260045260245ffd5b607f166200062b565b6005549068010000000000000000821015620005b0576001820180600555821015620007a05760055f526200079e917f036b6384b5eca791c62761152d0c79bb0604c104a5fb6f4eb0703f3154bb3db00162000604565b565b634e487b7160e01b5f52603260045260245ffd5b90815468010000000000000000811015620005b05760018101808455811015620007a0576200079e925f5260205f20016200060456fe60806040526004361015610011575f80fd5b5f3560e01c806304801b2014610c14578063526241a814610bd7578063542a086c14610a8d578063662c565e146109ff5780636f175786146109b357806381b81bd01461091c57806381e4ab0c146104aa5780638da5cb5b1461048457806390cc1d7114610345578063ad6e823b146102ef578063c8fdf833146101cf578063cb2cdf7e146101675763e9371c58146100a8575f80fd5b346101635760203660031901126101635760043567ffffffffffffffff811161016357600361012b60206100e260ff943690600401610ea6565b6040519061011a6001600160a01b03600783519486818187019761010781838b610efc565b81018b81520301902001541615156112ca565b604051938492839251928391610efc565b810184815203019020015460081c16600481101561014f5760209060405190158152f35b634e487b7160e01b5f52602160045260245ffd5b5f80fd5b3461016357602036600319011261016357600435600554811015610163576101b76101cb9160055f527f036b6384b5eca791c62761152d0c79bb0604c104a5fb6f4eb0703f3154bb3db001611037565b604051918291602083526020830190610f1d565b0390f35b346101635760403660031901126101635760043567ffffffffffffffff811161016357610200903690600401610ea6565b6024359060048210156101635760206102c17feee90e57f3f271d34e6b67cd01b7e79c53f1ebe66ac2f0f6fd4cbdb100f0a26892335f526002835260ff60405f20541680156102d6575b610253906110d8565b6102bc8560036102ad866040516102946001600160a01b0360078951938581818d019661028181838a610efc565b81018a81520301902001541615156112ca565b61029c611277565b604051809381928951928391610efc565b81018481520301902001611238565b611257565b926102cf6040518092610f4f565ba260015f55005b506102536001600160a01b03600154163314905061024a565b346101635760203660031901126101635760206001600160a01b0380610313610f5c565b16805f526002835260ff60405f205416918215610337575b50506040519015158152f35b60015416149050828061032b565b346101635760203660031901126101635760043567ffffffffffffffff811161016357602061037b61038e923690600401610ea6565b8160405193828580945193849201610efc565b810160038152030190206104156101cb6103a783611037565b926103b460018201611037565b936103c160028301611037565b9160038101549260ff60048301546005840154906104506104316006870154956104236103fe60086001600160a01b0360078c0154169a01611037565b996040519e8f9e8f92610160808552840190610f1d565b916020818403910152610f1d565b8c810360408e015290610f1d565b9761044160608c01868316610f42565b8460808c019160081c16610f4f565b60a0890152818116151560c089015260081c16151560e0870152610100860152610120850152838203610140850152610f1d565b34610163575f3660031901126101635760206001600160a01b0360015416604051908152f35b34610163576101003660031901126101635767ffffffffffffffff600435818111610163576104dd903690600401610ea6565b602435828111610163576104f5903690600401610ea6565b916044358181116101635761050e903690600401610ea6565b600560643510156101635760a4359182151583036101635760c4359081151582036101635760e4359081116101635761054b903690600401610ea6565b335f52600260205260ff60405f2054168015610903575b61056b906110d8565b610573611277565b6001600160a01b036007604051602081816105948b83815193849201610efc565b810160038152030190200154166108bf5784511561087b5785511561083757604051926105c084610e67565b85845260208401908782526040850190815260608501956064356105e49088611123565b60808601945f865260a0870195608435875260c08801921515835260e0880191151582526101008801934285526101208901953387526101408a01978852604051808d81815160208193019161063992610efc565b8101600381520360200190209951610651908b61112f565b5161065f9060018b0161112f565b5161066d9060028a0161112f565b600388019851600581101561014f5760ff80198b541691161789555195600487101561014f576106a260089761071e9a611238565b5160048801556106c56005880192511515839060ff801983541691151516179055565b51151561ff00825491871b169061ff0019161790555160068501556001600160a01b03600785019151167fffffffffffffffffffffffff000000000000000000000000000000000000000082541617905551910161112f565b610729606435610fd3565b908154916801000000000000000092838110156108105761074f91600182018155610fea565b610824578161075d9161112f565b600554918210156108105760018201806005558210156107fc576107cf816102bc6107e4937fcd0bff200e8d8b3aaf104aa45852150c7d6f05469560808263dd1e413b18c8f79560055f527f036b6384b5eca791c62761152d0c79bb0604c104a5fb6f4eb0703f3154bb3db00161112f565b92604051918291604083526040830190610f1d565b6107f360208301606435610f42565b0390a260015f55005b634e487b7160e01b5f52603260045260245ffd5b634e487b7160e01b5f52604160045260245ffd5b634e487b7160e01b5f525f60045260245ffd5b606460405162461bcd60e51b815260206004820152600c60248201527f496e76616c6964206e616d6500000000000000000000000000000000000000006044820152fd5b606460405162461bcd60e51b815260206004820152601a60248201527f496e76616c69642063726564656e7469616c20747970652049440000000000006044820152fd5b606460405162461bcd60e51b815260206004820152601e60248201527f43726564656e7469616c207479706520616c72656164792065786973747300006044820152fd5b5061056b6001600160a01b036001541633149050610562565b34610163575f3660031901126101635760055467ffffffffffffffff811161081057604051602091610953838260051b0183610e84565b80825282820160055f527f036b6384b5eca791c62761152d0c79bb0604c104a5fb6f4eb0703f3154bb3db0935f915b83831061099757604051806101cb8782610f72565b60018281926109a589611037565b815201960192019194610982565b34610163576040366003190112610163576004356005811015610163576109dc60243591610fd3565b908154811015610163576109ef91610fea565b610824576101b76101cb91611037565b346101635760208060031936011261016357600435600581101561016357610a2690610fd3565b90815467ffffffffffffffff811161081057829060405191610a4d848360051b0184610e84565b8183525f908152838120938084015b838310610a7157604051806101cb8782610f72565b6001828192610a7f89611037565b815201960192019194610a5c565b3461016357604036600319011261016357610aa6610f5c565b6024359081151590818303610163576001600160a01b039081600154163303610b6d57610ad1611277565b16918215610b29577e8ebc621f24e0e9d1fd4ee2f7df9bb80c8d61ee30a9167a4fee6cefcf8c021e91610b1c602092855f526002845260405f209060ff801983541691151516179055565b604051908152a260015f55005b606460405162461bcd60e51b815260206004820152601660248201527f496e76616c6964207772697465722061646472657373000000000000000000006044820152fd5b608460405162461bcd60e51b815260206004820152602160248201527f4f6e6c79206f776e65722063616e2063616c6c20746869732066756e6374696f60448201527f6e000000000000000000000000000000000000000000000000000000000000006064820152fd5b34610163576020366003190112610163576001600160a01b03610bf8610f5c565b165f526002602052602060ff60405f2054166040519015158152f35b346101635760203660031901126101635760043567ffffffffffffffff8111610163576020610c4a610ccf923690600401610ea6565b6060610140604051610c5b81610e67565b82815282858201528260408201525f838201525f60808201525f60a08201525f60c08201525f60e08201525f6101008201525f61012082015201526040519061011a6001600160a01b036007835194868181870197610cbb81838b610efc565b8101600381520301902001541615156112ca565b81016003815203019020604051610ce581610e67565b610cee82611037565b8152610cfc60018301611037565b6020820152610d0d60028301611037565b604082015260ff6003830154610d2882821660608501611123565b60081c1691600483101561014f576008610d8f916101cb946080850152600481015460a085015260ff6005820154818116151560c0870152831c16151560e085015260068101546101008501526001600160a01b0360078201541661012085015201611037565b61014082015260405191829160208352610140610dec610dd6610dc084516101606020890152610180880190610f1d565b6020850151878203601f19016040890152610f1d565b6040840151868203601f19016060880152610f1d565b91610dff60608201516080870190610f42565b610e11608082015160a0870190610f4f565b60a081015160c086015260c0810151151560e086015260e081015115156101008601526101008101516101208601526001600160a01b0361012082015116828601520151601f1984830301610160850152610f1d565b610160810190811067ffffffffffffffff82111761081057604052565b90601f8019910116810190811067ffffffffffffffff82111761081057604052565b81601f820112156101635780359067ffffffffffffffff82116108105760405192610edb601f8401601f191660200185610e84565b8284526020838301011161016357815f926020809301838601378301015290565b5f5b838110610f0d5750505f910152565b8181015183820152602001610efe565b90602091610f3681518092818552858086019101610efc565b601f01601f1916010190565b90600582101561014f5752565b90600482101561014f5752565b600435906001600160a01b038216820361016357565b602080820190808352835180925260408301928160408460051b8301019501935f915b848310610fa55750505050505090565b9091929394958480610fc3600193603f198682030187528a51610f1d565b9801930193019194939290610f95565b600581101561014f575f52600460205260405f2090565b80548210156107fc575f5260205f2001905f90565b90600182811c9216801561102d575b602083101461101957565b634e487b7160e01b5f52602260045260245ffd5b91607f169161100e565b9060405191825f82549261104a84610fff565b9081845260019485811690815f146110b55750600114611075575b505061107392500383610e84565b565b909391505f52602090815f20935f915b81831061109d57505061107393508201015f80611065565b85548884018501529485019487945091830191611085565b91505061107394506020925060ff191682840152151560051b8201015f80611065565b156110df57565b606460405162461bcd60e51b815260206004820152601760248201527f4e6f7420617574686f72697a656420746f2077726974650000000000000000006044820152fd5b600582101561014f5752565b919091825167ffffffffffffffff81116108105761114d8254610fff565b601f81116111f1575b50602080601f83116001146111915750819293945f92611186575b50508160011b915f199060031b1c1916179055565b015190505f80611171565b90601f19831695845f52825f20925f905b8882106111d9575050836001959697106111c1575b505050811b019055565b01515f1960f88460031b161c191690555f80806111b7565b806001859682949686015181550195019301906111a2565b5f83815260208120601f840160051c8101926020851061122e575b601f0160051c01915b828110611223575050611156565b818155600101611215565b909250829061120c565b90600481101561014f5761ff0082549160081b169061ff001916179055565b61126f90602060405192828480945193849201610efc565b810103902090565b60025f54146112865760025f55565b606460405162461bcd60e51b815260206004820152601f60248201527f5265656e7472616e637947756172643a207265656e7472616e742063616c6c006044820152fd5b156112d157565b606460405162461bcd60e51b815260206004820152601960248201527f43726564656e7469616c2074797065206e6f7420666f756e64000000000000006044820152fdfea2646970667358221220320ab28ff304d8f5be5e6bda29fdfc028346744ffc705487c61ab8f2675443de64736f6c63430008140033",
  "linkReferences": {},
  "deployedLinkReferences": {}
}