{
  "_format": "hh-sol-artifact-1",
  "contractName": "CredentialTypeManager",
  "sourceName": "contracts/utility/CredentialTypeManager.sol",
  "abi": [
    {
      "inputs": [],
      "stateMutability": "nonpayable",
      "type": "constructor"
    },
    {
      "anonymous": false,
      "inputs": [
        {
          "indexed": true,
          "internalType": "address",
          "name": "writer",
          "type": "address"
        },
        {
          "indexed": false,
          "internalType": "bool",
          "name": "authorized",
          "type": "bool"
        }
      ],
      "name": "AuthorizedWriterUpdated",
      "type": "event"
    },
    {
      "anonymous": false,
      "inputs": [
        {
          "indexed": true,
          "internalType": "string",
          "name": "credentialTypeId",
          "type": "string"
        },
        {
          "indexed": false,
          "internalType": "bool",
          "name": "allowMultipleIssuance",
          "type": "bool"
        }
      ],
      "name": "CredentialTypeConfigUpdated",
      "type": "event"
    },
    {
      "anonymous": false,
      "inputs": [
        {
          "indexed": true,
          "internalType": "string",
          "name": "credentialTypeId",
          "type": "string"
        },
        {
          "indexed": false,
          "internalType": "string",
          "name": "name",
          "type": "string"
        },
        {
          "indexed": false,
          "internalType": "enum CredentialTypeManager.CredentialCategory",
          "name": "category",
          "type": "uint8"
        }
      ],
      "name": "CredentialTypeCreated",
      "type": "event"
    },
    {
      "anonymous": false,
      "inputs": [
        {
          "indexed": true,
          "internalType": "string",
          "name": "credentialTypeId",
          "type": "string"
        },
        {
          "indexed": false,
          "internalType": "enum CredentialTypeManager.CredentialStatus",
          "name": "status",
          "type": "uint8"
        }
      ],
      "name": "CredentialTypeUpdated",
      "type": "event"
    },
    {
      "inputs": [
        {
          "internalType": "uint256",
          "name": "",
          "type": "uint256"
        }
      ],
      "name": "allCategories",
      "outputs": [
        {
          "internalType": "enum CredentialTypeManager.CredentialCategory",
          "name": "",
          "type": "uint8"
        }
      ],
      "stateMutability": "view",
      "type": "function"
    },
    {
      "inputs": [
        {
          "internalType": "uint256",
          "name": "",
          "type": "uint256"
        }
      ],
      "name": "allCredentialTypeIds",
      "outputs": [
        {
          "internalType": "string",
          "name": "",
          "type": "string"
        }
      ],
      "stateMutability": "view",
      "type": "function"
    },
    {
      "inputs": [
        {
          "internalType": "address",
          "name": "",
          "type": "address"
        }
      ],
      "name": "authorizedWriters",
      "outputs": [
        {
          "internalType": "bool",
          "name": "",
          "type": "bool"
        }
      ],
      "stateMutability": "view",
      "type": "function"
    },
    {
      "inputs": [
        {
          "internalType": "string",
          "name": "credentialTypeId",
          "type": "string"
        },
        {
          "internalType": "string",
          "name": "name",
          "type": "string"
        },
        {
          "internalType": "string",
          "name": "description",
          "type": "string"
        },
        {
          "internalType": "enum CredentialTypeManager.CredentialCategory",
          "name": "category",
          "type": "uint8"
        },
        {
          "internalType": "uint256",
          "name": "defaultValidityPeriod",
          "type": "uint256"
        },
        {
          "internalType": "bool",
          "name": "requiresBiometric",
          "type": "bool"
        },
        {
          "internalType": "bool",
          "name": "requiresDocumentProof",
          "type": "bool"
        },
        {
          "internalType": "bool",
          "name": "requiresThirdPartyVerification",
          "type": "bool"
        },
        {
          "internalType": "string[]",
          "name": "requiredFields",
          "type": "string[]"
        },
        {
          "internalType": "string[]",
          "name": "optionalFields",
          "type": "string[]"
        },
        {
          "internalType": "uint256",
          "name": "maxIssuanceCount",
          "type": "uint256"
        },
        {
          "internalType": "string",
          "name": "version",
          "type": "string"
        }
      ],
      "name": "createCredentialType",
      "outputs": [],
      "stateMutability": "nonpayable",
      "type": "function"
    },
    {
      "inputs": [
        {
          "internalType": "string",
          "name": "",
          "type": "string"
        }
      ],
      "name": "credentialTypeConfigs",
      "outputs": [
        {
          "internalType": "bool",
          "name": "allowMultipleIssuance",
          "type": "bool"
        },
        {
          "internalType": "bool",
          "name": "requiresExpiry",
          "type": "bool"
        },
        {
          "internalType": "bool",
          "name": "allowsRevocation",
          "type": "bool"
        },
        {
          "internalType": "bool",
          "name": "requiresRenewal",
          "type": "bool"
        },
        {
          "internalType": "uint256",
          "name": "renewalPeriod",
          "type": "uint256"
        },
        {
          "internalType": "string",
          "name": "metadata",
          "type": "string"
        }
      ],
      "stateMutability": "view",
      "type": "function"
    },
    {
      "inputs": [
        {
          "internalType": "string",
          "name": "",
          "type": "string"
        }
      ],
      "name": "credentialTypes",
      "outputs": [
        {
          "internalType": "string",
          "name": "credentialTypeId",
          "type": "string"
        },
        {
          "internalType": "string",
          "name": "name",
          "type": "string"
        },
        {
          "internalType": "string",
          "name": "description",
          "type": "string"
        },
        {
          "internalType": "enum CredentialTypeManager.CredentialCategory",
          "name": "category",
          "type": "uint8"
        },
        {
          "internalType": "enum CredentialTypeManager.CredentialStatus",
          "name": "status",
          "type": "uint8"
        },
        {
          "internalType": "uint256",
          "name": "defaultValidityPeriod",
          "type": "uint256"
        },
        {
          "internalType": "bool",
          "name": "requiresBiometric",
          "type": "bool"
        },
        {
          "internalType": "bool",
          "name": "requiresDocumentProof",
          "type": "bool"
        },
        {
          "internalType": "bool",
          "name": "requiresThirdPartyVerification",
          "type": "bool"
        },
        {
          "internalType": "uint256",
          "name": "maxIssuanceCount",
          "type": "uint256"
        },
        {
          "internalType": "uint256",
          "name": "creationTimestamp",
          "type": "uint256"
        },
        {
          "internalType": "address",
          "name": "createdBy",
          "type": "address"
        },
        {
          "internalType": "string",
          "name": "version",
          "type": "string"
        }
      ],
      "stateMutability": "view",
      "type": "function"
    },
    {
      "inputs": [
        {
          "internalType": "enum CredentialTypeManager.CredentialCategory",
          "name": "",
          "type": "uint8"
        },
        {
          "internalType": "uint256",
          "name": "",
          "type": "uint256"
        }
      ],
      "name": "credentialTypesByCategory",
      "outputs": [
        {
          "internalType": "string",
          "name": "",
          "type": "string"
        }
      ],
      "stateMutability": "view",
      "type": "function"
    },
    {
      "inputs": [],
      "name": "getAllCategories",
      "outputs": [
        {
          "internalType": "enum CredentialTypeManager.CredentialCategory[]",
          "name": "categories",
          "type": "uint8[]"
        }
      ],
      "stateMutability": "view",
      "type": "function"
    },
    {
      "inputs": [],
      "name": "getAllCredentialTypeIds",
      "outputs": [
        {
          "internalType": "string[]",
          "name": "credentialTypeIds",
          "type": "string[]"
        }
      ],
      "stateMutability": "view",
      "type": "function"
    },
    {
      "inputs": [
        {
          "internalType": "string",
          "name": "credentialTypeId",
          "type": "string"
        }
      ],
      "name": "getCredentialType",
      "outputs": [
        {
          "components": [
            {
              "internalType": "string",
              "name": "credentialTypeId",
              "type": "string"
            },
            {
              "internalType": "string",
              "name": "name",
              "type": "string"
            },
            {
              "internalType": "string",
              "name": "description",
              "type": "string"
            },
            {
              "internalType": "enum CredentialTypeManager.CredentialCategory",
              "name": "category",
              "type": "uint8"
            },
            {
              "internalType": "enum CredentialTypeManager.CredentialStatus",
              "name": "status",
              "type": "uint8"
            },
            {
              "internalType": "uint256",
              "name": "defaultValidityPeriod",
              "type": "uint256"
            },
            {
              "internalType": "bool",
              "name": "requiresBiometric",
              "type": "bool"
            },
            {
              "internalType": "bool",
              "name": "requiresDocumentProof",
              "type": "bool"
            },
            {
              "internalType": "bool",
              "name": "requiresThirdPartyVerification",
              "type": "bool"
            },
            {
              "internalType": "string[]",
              "name": "requiredFields",
              "type": "string[]"
            },
            {
              "internalType": "string[]",
              "name": "optionalFields",
              "type": "string[]"
            },
            {
              "internalType": "uint256",
              "name": "maxIssuanceCount",
              "type": "uint256"
            },
            {
              "internalType": "uint256",
              "name": "creationTimestamp",
              "type": "uint256"
            },
            {
              "internalType": "address",
              "name": "createdBy",
              "type": "address"
            },
            {
              "internalType": "string",
              "name": "version",
              "type": "string"
            }
          ],
          "internalType": "struct CredentialTypeManager.CredentialType",
          "name": "credentialType",
          "type": "tuple"
        }
      ],
      "stateMutability": "view",
      "type": "function"
    },
    {
      "inputs": [
        {
          "internalType": "string",
          "name": "credentialTypeId",
          "type": "string"
        }
      ],
      "name": "getCredentialTypeConfig",
      "outputs": [
        {
          "components": [
            {
              "internalType": "bool",
              "name": "allowMultipleIssuance",
              "type": "bool"
            },
            {
              "internalType": "bool",
              "name": "requiresExpiry",
              "type": "bool"
            },
            {
              "internalType": "bool",
              "name": "allowsRevocation",
              "type": "bool"
            },
            {
              "internalType": "bool",
              "name": "requiresRenewal",
              "type": "bool"
            },
            {
              "internalType": "uint256",
              "name": "renewalPeriod",
              "type": "uint256"
            },
            {
              "internalType": "string[]",
              "name": "supportedJurisdictions",
              "type": "string[]"
            },
            {
              "internalType": "string",
              "name": "metadata",
              "type": "string"
            }
          ],
          "internalType": "struct CredentialTypeManager.CredentialTypeConfig",
          "name": "config",
          "type": "tuple"
        }
      ],
      "stateMutability": "view",
      "type": "function"
    },
    {
      "inputs": [],
      "name": "getCredentialTypeStatistics",
      "outputs": [
        {
          "internalType": "uint256",
          "name": "totalTypes",
          "type": "uint256"
        },
        {
          "internalType": "uint256",
          "name": "activeTypes",
          "type": "uint256"
        },
        {
          "internalType": "uint256",
          "name": "categoriesCount",
          "type": "uint256"
        }
      ],
      "stateMutability": "view",
      "type": "function"
    },
    {
      "inputs": [
        {
          "internalType": "enum CredentialTypeManager.CredentialCategory",
          "name": "category",
          "type": "uint8"
        }
      ],
      "name": "getCredentialTypesByCategory",
      "outputs": [
        {
          "internalType": "string[]",
          "name": "credentialTypeIds",
          "type": "string[]"
        }
      ],
      "stateMutability": "view",
      "type": "function"
    },
    {
      "inputs": [
        {
          "internalType": "address",
          "name": "writer",
          "type": "address"
        }
      ],
      "name": "isAuthorizedWriter",
      "outputs": [
        {
          "internalType": "bool",
          "name": "",
          "type": "bool"
        }
      ],
      "stateMutability": "view",
      "type": "function"
    },
    {
      "inputs": [
        {
          "internalType": "string",
          "name": "credentialTypeId",
          "type": "string"
        }
      ],
      "name": "isCredentialTypeActive",
      "outputs": [
        {
          "internalType": "bool",
          "name": "",
          "type": "bool"
        }
      ],
      "stateMutability": "view",
      "type": "function"
    },
    {
      "inputs": [],
      "name": "owner",
      "outputs": [
        {
          "internalType": "address",
          "name": "",
          "type": "address"
        }
      ],
      "stateMutability": "view",
      "type": "function"
    },
    {
      "inputs": [
        {
          "internalType": "string",
          "name": "searchTerm",
          "type": "string"
        }
      ],
      "name": "searchCredentialTypes",
      "outputs": [
        {
          "internalType": "string[]",
          "name": "credentialTypeIds",
          "type": "string[]"
        }
      ],
      "stateMutability": "view",
      "type": "function"
    },
    {
      "inputs": [
        {
          "internalType": "address",
          "name": "writer",
          "type": "address"
        },
        {
          "internalType": "bool",
          "name": "authorized",
          "type": "bool"
        }
      ],
      "name": "setAuthorizedWriter",
      "outputs": [],
      "stateMutability": "nonpayable",
      "type": "function"
    },
    {
      "inputs": [
        {
          "internalType": "string",
          "name": "credentialTypeId",
          "type": "string"
        },
        {
          "components": [
            {
              "internalType": "bool",
              "name": "allowMultipleIssuance",
              "type": "bool"
            },
            {
              "internalType": "bool",
              "name": "requiresExpiry",
              "type": "bool"
            },
            {
              "internalType": "bool",
              "name": "allowsRevocation",
              "type": "bool"
            },
            {
              "internalType": "bool",
              "name": "requiresRenewal",
              "type": "bool"
            },
            {
              "internalType": "uint256",
              "name": "renewalPeriod",
              "type": "uint256"
            },
            {
              "internalType": "string[]",
              "name": "supportedJurisdictions",
              "type": "string[]"
            },
            {
              "internalType": "string",
              "name": "metadata",
              "type": "string"
            }
          ],
          "internalType": "struct CredentialTypeManager.CredentialTypeConfig",
          "name": "config",
          "type": "tuple"
        }
      ],
      "name": "updateCredentialTypeConfig",
      "outputs": [],
      "stateMutability": "nonpayable",
      "type": "function"
    },
    {
      "inputs": [
        {
          "internalType": "string",
          "name": "credentialTypeId",
          "type": "string"
        },
        {
          "internalType": "enum CredentialTypeManager.CredentialStatus",
          "name": "status",
          "type": "uint8"
        }
      ],
      "name": "updateCredentialTypeStatus",
      "outputs": [],
      "stateMutability": "nonpayable",
      "type": "function"
    }
  ],
  "bytecode": "0x3462002271576001600081815581546001600160a01b0319163390811783558152600260205260409020805460ff191690911790556101206040526000608052600160a052600260c052600360e0526004610100526007805460059182905590811162002217575b506007600090815260008051602062004fbe8339815191526080825b60058110620021e757505055604051608081016001600160401b0381118282101762001326576040526003815260005b60608110620021d55750620000c762002297565b600881526766756c6c4e616d6560c01b6020820152620000e78262002322565b52620000f38162002322565b50620000fe62002297565b600b81526a0c8c2e8ca9ecc84d2e4e8d60ab1b6020820152620001218262002346565b526200012d8162002346565b506200013862002297565b600b81526a6e6174696f6e616c69747960a81b60208201526200015b8262002357565b52620001678162002357565b5062000172620022f0565b6200017c62002297565b600a8152696d6964646c654e616d6560b01b60208201526200019e8262002322565b52620001aa8162002322565b50620001b562002297565b600c81526b70726576696f75734e616d6560a01b6020820152620001d98262002346565b52620001e58162002346565b506001546001600160a01b031690620001fd62002276565b926200020862002297565b600c81526b6b79632d6964656e7469747960a01b602082015284526200022d62002297565b601981527f4b5943204964656e7469747920566572696669636174696f6e000000000000006020820152602085015262000266620022b7565b603381527f4964656e7469747920766572696669636174696f6e2063726564656e7469616c60208201527f20666f72204b594320636f6d706c69616e63650000000000000000000000000060408201526040850152600060608501526000608085015261016d60a0850152600060c0850152600160e085015260016101008501526101208401526101408301526001610160830152426101808301526101a08201526200031262002297565b60058152640312e302e360dc1b60208201526101c08201526040516b6b79632d6964656e7469747960a01b81526003600c820152602c9020815180519092906001600160401b0381116200132657620003788162000371855462002368565b85620023d2565b6020601f82116001146200216857819293946000926200215c575b50508160011b916000199060031b1c19161782555b602081015180519092906001600160401b0381116200132657620003df81620003d5600185015462002368565b60018501620023d2565b6020601f8211600114620020e95781929394600092620020dd575b50508160011b916000199060031b1c19161760018201555b604082015180519092906001600160401b038111620013265762000449816200043f600286015462002368565b60028601620023d2565b6020601f82116001146200206a57819293946000926200205e575b50508160011b916000199060031b1c19161760028301555b606081015160058110156200169257600383015460808301516004811015620016925761ff0060ff9160081b1692169061ffff19161717600383015560a08101516004830155620004e260c08201511515600584019060ff801983541691151516179055565b60e08101511515600583015461ff0062ff0000610100850151151560101b169260081b169062ffff001916171760058301556101208101518051906801000000000000000082116200132657600684015482600686015580831062001fdb575b5060200190600684016000526020600020916000905b82821062001ef15785856101408101518051906801000000000000000082116200132657600784015482600786015580831062001e6e575b5060200190600784016000526020600020916000905b82821062001d8457610160850151600887015561018085015160098701556101a0850151600a870180546001600160a01b0319166001600160a01b03929092169190911790556101c0850151805187916001600160401b0382116200132657620006238262000619600b86015462002368565b600b8601620023d2565b602090601f831160011462001d0f57600b92916000918362001d03575b50508160011b916000199060031b1c1916179101555b62000660620022f0565b6200066a62002297565b6006815265696e636f6d6560d01b6020820152620006888262002322565b52620006948162002322565b506200069f62002297565b601081526f656d706c6f796d656e7453746174757360801b6020820152620006c78262002346565b52620006d38162002346565b50620006de62002297565b6001815260005b6020811062001cf15750620006f962002297565b600881526732b6b83637bcb2b960c11b6020820152620007198262002322565b52620007258162002322565b506001546001600160a01b0316906200073d62002276565b926200074862002297565b601081526f66696e616e6369616c2d73746174757360801b602082015284526200077162002297565b601d81527f46696e616e6369616c2053746174757320566572696669636174696f6e00000060208201526020850152620007aa620022b7565b603381527f46696e616e6369616c2073746174757320616e6420696e636f6d65207665726960208201527f6669636174696f6e2063726564656e7469616c0000000000000000000000000060408201526040850152600160608501526000608085015260b460a0850152600060c0850152600160e085015260016101008501526101208401526101408301526003610160830152426101808301526101a08201526200085562002297565b60058152640312e302e360dc1b60208201526101c08201526040516f66696e616e6369616c2d73746174757360801b81526003601082015260309020815180519092906001600160401b0381116200132657620008b88162000371855462002368565b6020601f821160011462001c84578192939460009262001c78575b50508160011b916000199060031b1c19161782555b602081015180519092906001600160401b03811162001326576200091581620003d5600185015462002368565b6020601f821160011462001c05578192939460009262001bf9575b50508160011b916000199060031b1c19161760018201555b604082015180519092906001600160401b038111620013265762000975816200043f600286015462002368565b6020601f821160011462001b86578192939460009262001b7a575b50508160011b916000199060031b1c19161760028301555b606081015160058110156200169257600383015460808301516004811015620016925761ff0060ff9160081b1692169061ffff19161717600383015560a081015160048301556005820162000a0f60c08301511515829060ff801983541691151516179055565b60e08201511515815461ff0062ff0000610100860151151560101b169260081b169062ffff001916171790556101208101518051906801000000000000000082116200132657600684015482600686015580831062001af7575b5060200190600684016000526020600020916000905b82821062001a0d578585610140810151805190680100000000000000008211620013265760078401548260078601558083106200198a575b5060200190600784016000526020600020916000905b828210620018a057610160850151600887015561018085015160098701556101a0850151600a870180546001600160a01b0319166001600160a01b03929092169190911790556101c0850151805187916001600160401b038211620013265762000b408262000619600b86015462002368565b602090601f83116001146200182b57600b9291600091836200181f575b50508160011b916000199060031b1c1916179101555b62000b7d620022f0565b62000b8762002297565b600a815269383937b332b9b9b4b7b760b11b602082015262000ba98262002322565b5262000bb58162002322565b5062000bc062002297565b600e81526d7175616c696669636174696f6e7360901b602082015262000be68262002346565b5262000bf28162002346565b506040516001600160401b036020820190811190821117620013265760208101604052600081526001546001600160a01b03169062000c3062002276565b9262000c3b62002297565b601981527f70726f66657373696f6e616c2d766572696669636174696f6e000000000000006020820152845262000c7162002297565b601981527f50726f66657373696f6e616c20566572696669636174696f6e000000000000006020820152602085015262000caa620022b7565b603381527f50726f66657373696f6e616c207175616c696669636174696f6e7320616e642060208201527f73746174757320766572696669636174696f6e000000000000000000000000006040820152604085015260026060850152600060808501526102da60a0850152600060c0850152600160e085015260016101008501526101208401526101408301526005610160830152426101808301526101a082015262000d5662002297565b60058152640312e302e360dc1b60208201526101c08201526040517f70726f66657373696f6e616c2d766572696669636174696f6e000000000000008152600360198201526039902081518051909291906001600160401b038111620013265762000dce8162000dc7845462002368565b84620023d2565b6020601f8211600114620017b25781929394600092620017a6575b50508160011b916000199060031b1c19161781555b602082015180519092906001600160401b038111620013265762000e358162000e2b600186015462002368565b60018601620023d2565b6020601f821160011462001733578192939460009262001727575b50508160011b916000199060031b1c19161760018301555b604081015180519092906001600160401b038111620013265762000e9f8162000e95600285015462002368565b60028501620023d2565b6020601f8211600114620016b45781929394600092620016a8575b50508160011b916000199060031b1c19161760028201555b606082015160058110156200169257600382015460808401516004811015620016925761ff0060ff9160081b1692169061ffff19161717600382015560a082015160048201556005810162000f3960c08401511515829060ff801983541691151516179055565b60e08301511515815461ff0062ff0000610100870151151560101b169260081b169062ffff00191617179055610120820151805190680100000000000000008211620013265760068301548260068501558083106200160f575b5060200190600683016000526020600020916000905b8282106200152557858561014082015180519068010000000000000000821162001326576007830154826007850155808310620014a2575b5060200190600783016000526020600020916000905b828210620013b157610160860151600886015561018086015160098601556101a0860151600a860180546001600160a01b0319166001600160a01b03929092169190911790556101c08601518051600b8701906001600160401b03811162001326576200106a8162000dc7845462002368565b602092601f82116001146200134857928192936000926200133c575b50508160011b916000199060031b1c19161790555b600654680100000000000000008110156200132657806001620010c292016006556200241c565b6200131057620010de620010d7825462002368565b82620023a5565b7f6b79632d6964656e746974790000000000000000000000000000000000000018908190556006546801000000000000000081101562001326578060016200112a92016006556200241c565b62001310576200113f620010d7825462002368565b7f66696e616e6369616c2d73746174757300000000000000000000000000000020908190556006546801000000000000000081101562001326578060016200118b92016006556200241c565b9290926200131057620011aa620011a3845462002368565b84620023a5565b7f70726f66657373696f6e616c2d766572696669636174696f6e00000000000032928390556000805260056020527f05b8ccbb9d4d8fb16ea74ce3c29a41f1b461fbdaff4714a0d9a8eb05499746bc80546801000000000000000081101562001326576200121e9160018201815562002438565b620013105762001233620010d7825462002368565b55600160005260056020527f1471eb6eb2c5e789fc3de43f8ce62938c7d1836ec861730447e2ada8fd81017b8054680100000000000000008110156200132657620012849160018201815562002438565b620013105762001299620010d7825462002368565b55600260005260056020527f89832631fb3c3307a103ba2c84ab569c64d6182a18893dcd163f0f1c2090733a8054680100000000000000008110156200132657620012ea9160018201815562002438565b6200131057620012ff620010d7825462002368565b55604051612b6c9081620024528239f35b634e487b7160e01b600052600060045260246000fd5b634e487b7160e01b600052604160045260246000fd5b01519050838062001086565b601f198216938360005260206000209160005b8681106200139857508360019596106200137e575b505050811b0190556200109b565b015160001960f88460031b161c1916905583808062001370565b919260206001819286850151815501940192016200135b565b80518051906001600160401b0382116200132657620013dd82620013d6885462002368565b88620023d2565b602090601f83116001146200142d57928260019493602093869560009262001421575b5050600019600383901b1c191690841b1787555b0194019101909262000ff7565b015190508b8062001400565b908660005260206000209160005b601f198516811062001489575083602093600196938796938794601f198116106200146f575b505050811b01875562001414565b015160001960f88460031b161c191690558b808062001461565b919260206001819286850151815501940192016200143b565b600784016000526020600020908382015b8183018110620014c557505062000fe1565b80620014d46001925462002368565b80620014e3575b5001620014b3565b601f81118314620014fb5750600081555b88620014db565b6000908282526200151b601f60208420920160051c8201858301620022d7565b81835555620014f4565b80518051906001600160401b03821162001326576200154a82620013d6885462002368565b602090601f83116001146200159a5792826001949360209386956000926200158e575b5050600019600383901b1c191690841b1787555b0194019101909262000fa9565b015190508b806200156d565b908660005260206000209160005b601f1985168110620015f6575083602093600196938796938794601f19811610620015dc575b505050811b01875562001581565b015160001960f88460031b161c191690558b8080620015ce565b91926020600181928685015181550194019201620015a8565b600684016000526020600020908382015b81830181106200163257505062000f93565b80620016416001925462002368565b8062001650575b500162001620565b601f81118314620016685750600081555b8862001648565b60009082825262001688601f60208420920160051c8201858301620022d7565b8183555562001661565b634e487b7160e01b600052602160045260246000fd5b01519050848062000eba565b6002830160005260206000209060005b601f19841681106200170e5750600193949583601f19811610620016f4575b505050811b01600282015562000ed2565b015160001960f88460031b161c19169055848080620016e3565b9091602060018192858a015181550193019101620016c4565b01519050848062000e50565b6001840160005260206000209060005b601f19841681106200178d5750600193949583601f1981161062001773575b505050811b01600183015562000e68565b015160001960f88460031b161c1916905584808062001762565b9091602060018192858a01518155019301910162001743565b01519050848062000de9565b8260005260206000209060005b601f1984168110620018065750600193949583601f19811610620017ec575b505050811b01815562000dfe565b015160001960f88460031b161c19169055848080620017de565b9091602060018192858a015181550193019101620017bf565b01519050848062000b5d565b90600b840160005260206000209160005b601f1985168110620018875750918391600193600b95601f198116106200186d575b505050811b0191015562000b73565b015160001960f88460031b161c191690558480806200185e565b919260206001819286850151815501940192016200183c565b80518051906001600160401b0382116200132657620018c582620013d6885462002368565b602090601f83116001146200191557928260019493602093869560009262001909575b5050600019600383901b1c191690841b1787555b0194019101909262000acd565b015190508b80620018e8565b908660005260206000209160005b601f198516811062001971575083602093600196938796938794601f1981161062001957575b505050811b018755620018fc565b015160001960f88460031b161c191690558b808062001949565b9192602060018192868501518155019401920162001923565b600785016000526020600020908382015b8183018110620019ad57505062000ab7565b80620019bc6001925462002368565b80620019cb575b50016200199b565b601f81118314620019e35750600081555b88620019c3565b60009082825262001a03601f60208420920160051c8201858301620022d7565b81835555620019dc565b80518051906001600160401b038211620013265762001a3282620013d6885462002368565b602090601f831160011462001a8257928260019493602093869560009262001a76575b5050600019600383901b1c191690841b1787555b0194019101909262000a7f565b015190508b8062001a55565b908660005260206000209160005b601f198516811062001ade575083602093600196938796938794601f1981161062001ac4575b505050811b01875562001a69565b015160001960f88460031b161c191690558b808062001ab6565b9192602060018192868501518155019401920162001a90565b600685016000526020600020908382015b818301811062001b1a57505062000a69565b8062001b296001925462002368565b8062001b38575b500162001b08565b601f8111831462001b505750600081555b8862001b30565b60009082825262001b70601f60208420920160051c8201858301620022d7565b8183555562001b49565b01519050848062000990565b6002840160005260206000209060005b601f198416811062001be05750600193949583601f1981161062001bc6575b505050811b016002830155620009a8565b015160001960f88460031b161c1916905584808062001bb5565b9091602060018192858a01518155019301910162001b96565b01519050848062000930565b6001830160005260206000209060005b601f198416811062001c5f5750600193949583601f1981161062001c45575b505050811b01600182015562000948565b015160001960f88460031b161c1916905584808062001c34565b9091602060018192858a01518155019301910162001c15565b015190508480620008d3565b8360005260206000209060005b601f198416811062001cd85750600193949583601f1981161062001cbe575b505050811b018255620008e8565b015160001960f88460031b161c1916905584808062001cb0565b9091602060018192858a01518155019301910162001c91565b806060602080938501015201620006e5565b01519050848062000640565b90600b840160005260206000209160005b601f198516811062001d6b5750918391600193600b95601f1981161062001d51575b505050811b0191015562000656565b015160001960f88460031b161c1916905584808062001d42565b9192602060018192868501518155019401920162001d20565b80518051906001600160401b038211620013265762001da982620013d6885462002368565b602090601f831160011462001df957928260019493602093869560009262001ded575b5050600019600383901b1c191690841b1787555b01940191019092620005a6565b015190508b8062001dcc565b908660005260206000209160005b601f198516811062001e55575083602093600196938796938794601f1981161062001e3b575b505050811b01875562001de0565b015160001960f88460031b161c191690558b808062001e2d565b9192602060018192868501518155019401920162001e07565b600785016000526020600020908382015b818301811062001e9157505062000590565b8062001ea06001925462002368565b8062001eaf575b500162001e7f565b601f8111831462001ec75750600081555b8862001ea7565b60009082825262001ee7601f60208420920160051c8201858301620022d7565b8183555562001ec0565b80518051906001600160401b038211620013265762001f1682620013d6885462002368565b602090601f831160011462001f6657928260019493602093869560009262001f5a575b5050600019600383901b1c191690841b1787555b0194019101909262000558565b01519050388062001f39565b908660005260206000209160005b601f198516811062001fc2575083602093600196938796938794601f1981161062001fa8575b505050811b01875562001f4d565b015160001960f88460031b161c1916905538808062001f9a565b9192602060018192868501518155019401920162001f74565b600685016000526020600020908382015b818301811062001ffe57505062000542565b806200200d6001925462002368565b806200201c575b500162001fec565b601f81118314620020345750600081555b3862002014565b60009082825262002054601f60208420920160051c8201858301620022d7565b818355556200202d565b01519050388062000464565b6002840160005260206000209060005b601f1984168110620020c45750600193949583601f19811610620020aa575b505050811b0160028301556200047c565b015160001960f88460031b161c1916905538808062002099565b9091602060018192858a0151815501930191016200207a565b015190503880620003fa565b6001830160005260206000209060005b601f1984168110620021435750600193949583601f1981161062002129575b505050811b01600182015562000412565b015160001960f88460031b161c1916905538808062002118565b9091602060018192858a015181550193019101620020f9565b01519050388062000393565b8360005260206000209060005b601f1984168110620021bc5750600193949583601f19811610620021a2575b505050811b018255620003a8565b015160001960f88460031b161c1916905538808062002194565b9091602060018192858a01518155019301910162002175565b806060602080938501015201620000b3565b9092835190600582101562001692576001916020918460031b9160ff809116831b921b1916179401910162000083565b600760005260008051602062004fbe833981519152805464ffffffffff1681556200226a91601f0160051c017fa66cc928b5edb82af9bd49922954155ab7b0942694bea4ce44661d9a8736c689620022d7565b3862000067565b600080fd5b604051906101e082016001600160401b038111838210176200132657604052565b60408051919082016001600160401b038111838210176200132657604052565b60405190606082016001600160401b038111838210176200132657604052565b818110620022e3575050565b60008155600101620022d7565b620022fa620022b7565b90600282528160005b6040811062002310575050565b80606060208093850101520162002303565b805115620023305760200190565b634e487b7160e01b600052603260045260246000fd5b805160011015620023305760400190565b805160021015620023305760600190565b90600182811c921680156200239a575b60208310146200238457565b634e487b7160e01b600052602260045260246000fd5b91607f169162002378565b90601f8111620023b3575050565b620023d091600052601f6020600020910160051c810190620022d7565b565b9190601f8111620023e257505050565b620023d0926000526020600020906020601f840160051c8301931062002411575b601f0160051c0190620022d7565b909150819062002403565b6006548110156200233057600660005260206000200190600090565b805482101562002330576000526020600020019060009056fe6080604052600436101561001257600080fd5b60003560e01c806304801b2014611e2057806318b2d6cd14611a7a578063216260af146119ff578063526241a8146119c0578063529fc50b1461190b578063542a086c146117fe578063662c565e146117c2578063685496f01461175b5780636e6939a8146115d85780636f1757861461159557806381b81bd01461156d5780638da5cb5b1461154657806390cc1d71146113e857806394525abc14610c71578063ad6e823b14610c07578063c8fdf83314610ad3578063cb2cdf7e14610a88578063dadd0a57146102c7578063e9371c58146102205763ea22bdfb146100f857600080fd5b3461021b57600036600319011261021b57600060065460075460005b828110610131575060609260405192835260208301526040820152f35b61013a816124ce565b5060405190600090805461014d816123d5565b9160019180831690811561020157506001146101c5575b50505081602060ff9360039384815203019020015460081c1660048110156101af571561019a575b6101959061291e565b610114565b926101a76101959161291e565b93905061018c565b634e487b7160e01b600052602160045260246000fd5b9091925060005260209081600020906000915b8483106101f057505050908201905060ff3880610164565b8054868401529183019181016101d8565b60ff19168652505050801515028201905060ff3880610164565b600080fd5b3461021b57602036600319011261021b5760043567ffffffffffffffff811161021b5760036102a3602061025a60ff9436906004016121a2565b604051906102926001600160a01b03600a83519486818187019761027f81838b6121f9565b81018b81520301902001541615156127cf565b6040519384928392519283916121f9565b810184815203019020015460081c1660048110156101af5760209060405190158152f35b3461021b57600036600319011261021b57604051806007549081835260208093019181848460076000527fa66cc928b5edb82af9bd49922954155ab7b0942694bea4ce44661d9a8736c6886000905b85601f8301106108185794610434955491848282106107fe575b8282106107e1575b8282106107c4575b8282106107a7575b82821061078b575b82821061076e575b828210610751575b828210610734575b828210610717575b8282106106fa575b8282106106dd575b8282106106c0575b8282106106a3575b828210610686575b828210610669575b82821061064c575b82821061062f575b828210610612575b8282106105f5575b8282106105d8575b8282106105bb575b82821061059e575b828210610581575b828210610564575b828210610547575b82821061052a575b82821061050d575b8282106104f0575b8282106104d3575b8282106104b6575b828210610499575b5010610483575b5090509392930383612180565b604051928392818401908285525180915260408401929160005b82811061045d57505050500390f35b9193839550908082610473600194839751612241565b019501910191859493919261044e565b816104909160f81c612241565b01859087610427565b846104ad6001939660ff8760f01c16612241565b01930184610420565b846104ca6001939660ff8760e81c16612241565b01930184610418565b846104e76001939660ff8760e01c16612241565b01930184610410565b846105046001939660ff8760d81c16612241565b01930184610408565b846105216001939660ff8760d01c16612241565b01930184610400565b8461053e6001939660ff8760c81c16612241565b019301846103f8565b8461055b6001939660ff8760c01c16612241565b019301846103f0565b846105786001939660ff8760b81c16612241565b019301846103e8565b846105956001939660ff8760b01c16612241565b019301846103e0565b846105b26001939660ff8760a81c16612241565b019301846103d8565b846105cf6001939660ff8760a01c16612241565b019301846103d0565b846105ec6001939660ff8760981c16612241565b019301846103c8565b846106096001939660ff8760901c16612241565b019301846103c0565b846106266001939660ff8760881c16612241565b019301846103b8565b846106436001939660ff8760801c16612241565b019301846103b0565b846106606001939660ff8760781c16612241565b019301846103a8565b8461067d6001939660ff8760701c16612241565b019301846103a0565b8461069a6001939660ff8760681c16612241565b01930184610398565b846106b76001939660ff8760601c16612241565b01930184610390565b846106d46001939660ff8760581c16612241565b01930184610388565b846106f16001939660ff8760501c16612241565b01930184610380565b8461070e6001939660ff8760481c16612241565b01930184610378565b8461072b6001939660ff8760401c16612241565b01930184610370565b846107486001939660ff8760381c16612241565b01930184610368565b846107656001939660ff8760301c16612241565b01930184610360565b846107826001939660ff8760281c16612241565b01930184610358565b8461079e6001939660ff87851c16612241565b01930184610350565b846107bb6001939660ff8760181c16612241565b01930184610348565b846107d86001939660ff8760101c16612241565b01930184610340565b846107f56001939660ff8760081c16612241565b01930184610338565b8461080f6001939660ff8716612241565b01930184610330565b9350916001610400829693610a798754610a6b60ff61083985828516612241565b61084a888601828560081c16612241565b61085c60408601828560101c16612241565b6109fc856109b46060610876818401868960181c16612241565b61096c8c61088d608091888b848901921c16612241565b61092460a0936108a48588018a8d60281c16612241565b888b61018060c0996108bd8b8201858560301c16612241565b6108cf60e08201858560381c16612241565b6108e26101008201858560401c16612241565b6108f56101208201858560481c16612241565b6109086101408201858560501c16612241565b61091b6101608201858560581c16612241565b01921c16612241565b6109376101a08c01888b60681c16612241565b61094a6101c08c01888b60701c16612241565b61095d6101e08c01888b60781c16612241565b86896102008d01921c16612241565b61097f6102208a01868960881c16612241565b6109926102408a01868960901c16612241565b6109a56102608a01868960981c16612241565b84876102808b01921c16612241565b6109c76102a08801848760a81c16612241565b6109da6102c08801848760b01c16612241565b6109ed6102e08801848760b81c16612241565b82856103008901921c16612241565b610a0f6103208601828560c81c16612241565b610a226103408601828560d01c16612241565b610a356103608601828560d81c16612241565b610a486103808601828560e01c16612241565b610a5b6103a08601828560e81c16612241565b6103c08501908360f01c16612241565b6103e083019060f81c612241565b01940192018593919492610316565b3461021b57602036600319011261021b5760043560065481101561021b57610abb610ab5610acf926124ce565b90612533565b60405191829160208352602083019061221c565b0390f35b3461021b57604036600319011261021b5760043567ffffffffffffffff811161021b57610b049036906004016121a2565b60243590600482101561021b576020610bd87feee90e57f3f271d34e6b67cd01b7e79c53f1ebe66ac2f0f6fd4cbdb100f0a26892336000526002835260ff604060002054168015610bee575b610b5990612544565b610bd3856003610bc486604051610b9a6001600160a01b03600a8951938581818d0196610b8781838a6121f9565b81018a81520301902001541615156127cf565b610ba261277a565b610bb3610bad6125da565b886129ed565b6040518093819289519283916121f9565b8101848152030190200161273b565b61275a565b92610be6604051809261224e565ba26001600055005b50610b596001600160a01b036001541633149050610b50565b3461021b57602036600319011261021b576020610c226123bf565b610c33610c2d6128e5565b82612973565b6001600160a01b03809116806000526002835260ff60406000205416918215610c63575b50506040519015158152f35b600154161490508280610c57565b3461021b5761018036600319011261021b5767ffffffffffffffff60043581811161021b57610ca49036906004016121a2565b60243582811161021b57610cbc9036906004016121a2565b9160443581811161021b57610cd59036906004016121a2565b906005606435101561021b5760a43590811515820361021b5760c435801515810361021b5760e435801515810361021b576101043583811161021b57610d1f9036906004016122dc565b916101243584811161021b57610d399036906004016122dc565b93610164351161021b57610d5336610164356004016121a2565b9433600052600260205260ff6040600020541680156113cf575b610d7690612544565b610d8460056064351061258f565b610d8c61277a565b610d9d610d976125da565b896129ed565b610ddc604051610dac81612164565b600481527f6e616d650000000000000000000000000000000000000000000000000000000060208201528a6129ed565b610e1b604051610deb81612164565b600b81527f6465736372697074696f6e0000000000000000000000000000000000000000006020820152886129ed565b610e5a604051610e2a81612164565b600781527f76657273696f6e000000000000000000000000000000000000000000000000006020820152876129ed565b610e9b604051610e6981612164565b601581527f64656661756c7456616c6964697479506572696f6400000000000000000000006020820152608435612ac5565b610edd604051610eaa81612164565b601081527f6d617849737375616e6365436f756e7400000000000000000000000000000000602082015261014435612ac5565b6001600160a01b03600a610f0060208b81604051938285809451938492016121f9565b8101600381520301902001541661138b5760405196610f1e8861212b565b8888528960208901526040880152610f3b60643560608901612613565b6000608088015260843560a0880152151560c0870152151560e086015215156101008501526101208401526101408301526101443561016083015242610180830152336101a08301526101c08201526040516020818451610f9f81838589016121f9565b8101600381520301902090610fb5815183612636565b610fc6602082015160018401612636565b610fd7604082015160028401612636565b606081015160058110156101af5760ff80196003850154169116176003830155608081015160048110156101af57611012906003840161273b565b60a081015160048301556110766005830161103f60c08401511515829060ff801983541691151516179055565b60e0830151815461ff00191690151560081b61ff0016178155610100830151815462ff0000191690151560101b62ff000016179055565b610120810151805190680100000000000000008211611249576006840154826006860155808310611312575b506020016006840160005260206000206000915b8383106112f5575050505061014081015180519068010000000000000000821161124957600784015482600786015580831061127c575b506020016007840160005260206000206000915b83831061125f57878761116d88600b6101c08a61016081015160088501556101808101516009850155600a84016001600160a01b036101a0830151167fffffffffffffffffffffffff000000000000000000000000000000000000000082541617905501519101612636565b6111786064356124b5565b8054680100000000000000008110156112495761119a9160018201815561251b565b61123357816111a891612636565b60065468010000000000000000811015611249578060016111cc92016006556124ce565b9190916112335761120581610bd361121a937fcd0bff200e8d8b3aaf104aa45852150c7d6f05469560808263dd1e413b18c8f795612636565b9260405191829160408352604083019061221c565b61122960208301606435612241565b0390a26001600055005b634e487b7160e01b600052600060045260246000fd5b634e487b7160e01b600052604160045260246000fd5b600160208261127083945186612636565b01920192019190611101565b600785016000526020600020908382015b818301811061129d5750506110ed565b806112aa600192546123d5565b806112b7575b500161128d565b601f9081811184146112d0575050600081555b8a6112b0565b6112ec60009284845260208420920160051c820185830161261f565b818355556112ca565b600160208261130683945186612636565b019201920191906110b6565b600685016000526020600020908382015b81830181106113335750506110a2565b80611340600192546123d5565b8061134d575b5001611323565b601f908181118414611366575050600081555b8a611346565b61138260009284845260208420920160051c820185830161261f565b81835555611360565b606460405162461bcd60e51b815260206004820152601e60248201527f43726564656e7469616c207479706520616c72656164792065786973747300006044820152fd5b50610d766001600160a01b036001541633149050610d6d565b3461021b57602036600319011261021b5760043567ffffffffffffffff811161021b576114199036906004016121a2565b6040518181809351602081930191611430926121f9565b8101600381520360200190206114458161240f565b6114516001830161240f565b9161145e6002820161240f565b9060038101549060048101546005820154600883015490600984015492600a8501546001600160a01b031694600b016114969061240f565b96604051998a996101a0808c528b016114ae9161221c565b8a810360208c01526114bf9161221c565b89810360408b01526114d09161221c565b956114e160608a0160ff8316612241565b608089019060081c60ff16906114f69161224e565b60a088015260ff8116151560c08801528060081c60ff16151560e088015260101c60ff161515610100870152610120860152610140850152610160840152828103610180840152610acf9161221c565b3461021b57600036600319011261021b5760206001600160a01b0360015416604051908152f35b3461021b57600036600319011261021b57610acf61158961281a565b6040519182918261235d565b3461021b57604036600319011261021b57600435600581101561021b576115be602435916124b5565b90815481101561021b57610ab5610abb91610acf9361251b565b3461021b5760208060031936011261021b5760043567ffffffffffffffff811161021b578161160e61167d9236906004016121a2565b606060c060405161161e81612148565b6000815260008582015260006040820152600083820152600060808201528260a08201520152604051906102926001600160a01b03600a83519486818187019761166981838b6121f9565b8101600381520301902001541615156127cf565b81016004815203019020610acf6040519161169783612148565b61174881549160ff8316151585528585019260ff8160081c1615158452604086019060ff8160101c161515825260ff606088019160181c1615158152600183015491608088019283526116ff60036116f160028701612890565b9560a08b019687520161240f565b9560c08901968752604051998a99818b52511515908a01525115156040890152511515606088015251151560808701525160a08601525160e060c086015261010085019061225b565b9051838203601f190160e085015261221c565b3461021b57602036600319011261021b5760043560075481101561021b5760f86117c0602092600760005260ff8160051c7fa66cc928b5edb82af9bd49922954155ab7b0942694bea4ce44661d9a8736c688015460405194859360031b161c16612241565bf35b3461021b57602036600319011261021b576004356005811090811561021b576117f9611589916117f4610acf9461258f565b6124b5565b612890565b3461021b57604036600319011261021b576118176123bf565b6024359081151580830361021b576001600160a01b0390816001541633036118a1576118936020927e8ebc621f24e0e9d1fd4ee2f7df9bb80c8d61ee30a9167a4fee6cefcf8c021e9461186861277a565b611873610c2d6128e5565b1694856000526002845260406000209060ff801983541691151516179055565b604051908152a26001600055005b608460405162461bcd60e51b815260206004820152602160248201527f4f6e6c79206f776e65722063616e2063616c6c20746869732066756e6374696f60448201527f6e000000000000000000000000000000000000000000000000000000000000006064820152fd5b3461021b57602036600319011261021b5760043567ffffffffffffffff811161021b57611956602061194360ff9336906004016121a2565b81604051938285809451938492016121f9565b81016004815203019020610acf81549161197760036001830154920161240f565b9060405194848187961615158652818160081c1615156020870152818160101c161515604087015260181c1615156060850152608084015260c060a084015260c083019061221c565b3461021b57602036600319011261021b576001600160a01b036119e16123bf565b166000526002602052602060ff604060002054166040519015158152f35b3461021b57602036600319011261021b5760043567ffffffffffffffff811161021b57611a33611a6f9136906004016121a2565b60405190611a4082612164565b600a82527f7365617263685465726d0000000000000000000000000000000000000000000060208301526129ed565b610acf61158961281a565b3461021b5760031960403682011261021b5767ffffffffffffffff9060043582811161021b57611aae9036906004016121a2565b906024359083821161021b5760e090823603011261021b57604051611ad281612148565b611ade826004016122b7565b8152611aec602483016122b7565b602092838301918252611b01604482016122b7565b9060408401918252611b15606482016122b7565b6060850190815260808501916084810135835260a481013589811161021b57611b4490600436918401016122dc565b9860a08701998a5260c482013590811161021b57611cbf916004611b6b92369201016121a2565b9360c08701948552336000526002885260ff604060002054168015611e07575b611b9490612544565b611ca6611c6b898b611bbf6001600160a01b03600a604051858181875197019661166981838a6121f9565b611bc761277a565b611bd98d611bd36125da565b906129ed565b611c19895160405190611beb82612164565b600882527f6d65746164617461000000000000000000000000000000000000000000000000858301526129ed565b611c59885160405190611c2b82612164565b600d82527f72656e6577616c506572696f640000000000000000000000000000000000000085830152612ac5565b8c6040519384928392519283916121f9565b8101600481520301902096611c8f89511515899060ff801983541691151516179055565b51875461ff00191690151560081b61ff0016178755565b51855462ff0000191690151560101b62ff000016178555565b51835463ff000000191690151560181b63ff0000001617835551600180840191909155955180519060028401680100000000000000008311611249578689928254858455808610611d88575b500190600052866000206000915b848310611d6d57838a7f1609e230ffdc88a15bedc5b09eb86719b796dcc6711174a1efc11c61746dc7988b611d608c611d578d60038e519101612636565b5115159361275a565b92604051908152a2600055005b838982611d7c83945186612636565b01920192019190611d19565b8360005284868460002092830192015b828110611da6575050611d0b565b9091929350611db581546123d5565b80611dc7575b500190848a9392611d98565b601f908c828211600114611de357505050600081555b8d611dbb565b600092611dfe918585528420920160051c820185830161261f565b81835555611ddd565b50611b946001600160a01b036001541633149050611b8b565b3461021b57602036600319011261021b5760043567ffffffffffffffff811161021b576020611e56611efe9236906004016121a2565b60606101c0604051611e678161212b565b828152828582015282604082015260008382015260006080820152600060a0820152600060c0820152600060e0820152600061010082015282610120820152826101408201526000610160820152600061018082015260006101a082015201526119436001600160a01b03600a60405185818651611ee88183858b016121f9565b60038183015281010301902001541615156127cf565b81016003815203019020604051611f148161212b565b611f1d8261240f565b8152611f2b6001830161240f565b6020820152611f3c6002830161240f565b6040820152600382015491611f5760ff841660608401612613565b600460ff8460081c1610156101af57600b6120039160ff610acf9560081c166080850152600481015460a085015260ff6005820154818116151560c0870152818160081c16151560e087015260101c161515610100850152611fbb60068201612890565b610120850152611fcd60078201612890565b610140850152600881015461016085015260098101546101808501526001600160a01b03600a820154166101a08501520161240f565b6101c0820152604051918291602083526101c06120eb6120d361206661205061203a86516101e060208b01526102008a019061221c565b6020870151898203601f190160408b015261221c565b6040860151888203601f190160608a015261221c565b61207860608601516080890190612241565b61208a608086015160a089019061224e565b60a085015160c088015260c0850151151560e088015260e085015115156101008801526101008501511515610120880152610120850151601f198883030161014089015261225b565b610140840151868203601f190161016088015261225b565b916101608101516101808601526101808101516101a08601526001600160a01b036101a082015116828601520151601f19848303016101e085015261221c565b6101e0810190811067ffffffffffffffff82111761124957604052565b60e0810190811067ffffffffffffffff82111761124957604052565b6040810190811067ffffffffffffffff82111761124957604052565b90601f8019910116810190811067ffffffffffffffff82111761124957604052565b81601f8201121561021b5780359067ffffffffffffffff821161124957604051926121d7601f8401601f191660200185612180565b8284526020838301011161021b57816000926020809301838601378301015290565b60005b83811061220c5750506000910152565b81810151838201526020016121fc565b90602091612235815180928185528580860191016121f9565b601f01601f1916010190565b9060058210156101af5752565b9060048210156101af5752565b908082519081815260208091019281808460051b8301019501936000915b8483106122895750505050505090565b90919293949584806122a7600193601f198682030187528a5161221c565b9801930193019194939290612279565b3590811515820361021b57565b67ffffffffffffffff81116112495760051b60200190565b9080601f8301121561021b578135906122f4826122c4565b926123026040519485612180565b828452602092838086019160051b8301019280841161021b57848301915b8483106123305750505050505090565b823567ffffffffffffffff811161021b578691612352848480948901016121a2565b815201920191612320565b602080820190808352835180925260408301928160408460051b8301019501936000915b8483106123915750505050505090565b90919293949584806123af600193603f198682030187528a5161221c565b9801930193019194939290612381565b600435906001600160a01b038216820361021b57565b90600182811c92168015612405575b60208310146123ef57565b634e487b7160e01b600052602260045260246000fd5b91607f16916123e4565b9060405191826000825492612423846123d5565b908184526001948581169081600014612492575060011461244f575b505061244d92500383612180565b565b9093915060005260209081600020936000915b81831061247a57505061244d9350820101388061243f565b85548884018501529485019487945091830191612462565b91505061244d94506020925060ff191682840152151560051b820101388061243f565b60058110156101af576000526005602052604060002090565b6006548110156125055760066000527ff652222313e28459528d920b65115c16c04f3efc82aaedc97be59f3f377c0d3f0190600090565b634e487b7160e01b600052603260045260246000fd5b80548210156125055760005260206000200190600090565b90611233576125419061240f565b90565b1561254b57565b606460405162461bcd60e51b815260206004820152601760248201527f4e6f7420617574686f72697a656420746f2077726974650000000000000000006044820152fd5b1561259657565b606460405162461bcd60e51b815260206004820152601b60248201527f496e76616c69642063726564656e7469616c2063617465676f727900000000006044820152fd5b604051906125e782612164565b601082527f63726564656e7469616c547970654964000000000000000000000000000000006020830152565b60058210156101af5752565b81811061262a575050565b6000815560010161261f565b919091825167ffffffffffffffff81116112495761265482546123d5565b601f81116126fe575b50602080601f831160011461269a57508192939460009261268f575b50508160011b916000199060031b1c1916179055565b015190503880612679565b90601f198316958460005282600020926000905b8882106126e6575050836001959697106126cd575b505050811b019055565b015160001960f88460031b161c191690553880806126c3565b806001859682949686015181550195019301906126ae565b61272b90836000526020600020601f840160051c81019160208510612731575b601f0160051c019061261f565b3861265d565b909150819061271e565b9060048110156101af5761ff0082549160081b169061ff001916179055565b612772906020604051928284809451938492016121f9565b810103902090565b60026000541461278b576002600055565b606460405162461bcd60e51b815260206004820152601f60248201527f5265656e7472616e637947756172643a207265656e7472616e742063616c6c006044820152fd5b156127d657565b606460405162461bcd60e51b815260206004820152601960248201527f43726564656e7469616c2074797065206e6f7420666f756e64000000000000006044820152fd5b60065490612827826122c4565b916128356040519384612180565b8083526006600090815260207ff652222313e28459528d920b65115c16c04f3efc82aaedc97be59f3f377c0d3f8186015b848410612874575050505050565b60018381926128828561240f565b815201920193019290612866565b90815461289c816122c4565b926128aa6040519485612180565b818452600090815260208082208186015b8484106128c9575050505050565b60018381926128d78561240f565b8152019201930192906128bb565b604051906128f282612164565b600682527f77726974657200000000000000000000000000000000000000000000000000006020830152565b600019811461292d5760010190565b634e487b7160e01b600052601160045260246000fd5b1561294b5750565b61296f9060405191829162461bcd60e51b835260206004840152602483019061221c565b0390fd5b906001600160a01b0361244d926129e56036604051809567024b73b30b634b2160c51b60208301526129af8151809260206028860191016121f9565b81017f3a207a65726f20616464726573730000000000000000000000000000000000006028820152036016810186520184612180565b161515612943565b906020612a6b603961244d946101008151151591612a7060405167024b73b30b634b2160c51b948589830152612a6b6036838c612a3581519d8e92019d8e60288501906121f9565b81017f3a20656d70747920737472696e670000000000000000000000000000000000006028820152036016810185520183612180565b612943565b51111593612a8f604051968793602085015251809260288501906121f9565b81017f3a20737472696e6720746f6f206c6f6e670000000000000000000000000000006028820152036019810185520183612180565b9061244d91612b2f603a604051809467024b73b30b634b2160c51b6020830152612af98151809260206028860191016121f9565b81017f3a206d75737420626520706f7369746976650000000000000000000000000000602882015203601a810185520183612180565b151561294356fea2646970667358221220f9b06142c0da2289ab5778debdc1341c7984e0c8f0d0db524424677166b97c5364736f6c63430008140033a66cc928b5edb82af9bd49922954155ab7b0942694bea4ce44661d9a8736c688",
  "linkReferences": {},
  "deployedLinkReferences": {}
}