{
  "_format": "hh-sol-artifact-1",
  "contractName": "CredentialTypeManager",
  "sourceName": "contracts/utility/CredentialTypeManager.sol",
  "abi": [
    {
      "inputs": [],
      "stateMutability": "nonpayable",
      "type": "constructor"
    },
    {
      "anonymous": false,
      "inputs": [
        {
          "indexed": true,
          "internalType": "address",
          "name": "writer",
          "type": "address"
        },
        {
          "indexed": false,
          "internalType": "bool",
          "name": "authorized",
          "type": "bool"
        }
      ],
      "name": "AuthorizedWriterUpdated",
      "type": "event"
    },
    {
      "anonymous": false,
      "inputs": [
        {
          "indexed": true,
          "internalType": "string",
          "name": "credentialTypeId",
          "type": "string"
        },
        {
          "indexed": false,
          "internalType": "bool",
          "name": "allowMultipleIssuance",
          "type": "bool"
        }
      ],
      "name": "CredentialTypeConfigUpdated",
      "type": "event"
    },
    {
      "anonymous": false,
      "inputs": [
        {
          "indexed": true,
          "internalType": "string",
          "name": "credentialTypeId",
          "type": "string"
        },
        {
          "indexed": false,
          "internalType": "string",
          "name": "name",
          "type": "string"
        },
        {
          "indexed": false,
          "internalType": "enum CredentialTypeManager.CredentialCategory",
          "name": "category",
          "type": "uint8"
        }
      ],
      "name": "CredentialTypeCreated",
      "type": "event"
    },
    {
      "anonymous": false,
      "inputs": [
        {
          "indexed": true,
          "internalType": "string",
          "name": "credentialTypeId",
          "type": "string"
        },
        {
          "indexed": false,
          "internalType": "enum CredentialTypeManager.CredentialStatus",
          "name": "status",
          "type": "uint8"
        }
      ],
      "name": "CredentialTypeUpdated",
      "type": "event"
    },
    {
      "inputs": [
        {
          "internalType": "uint256",
          "name": "",
          "type": "uint256"
        }
      ],
      "name": "allCategories",
      "outputs": [
        {
          "internalType": "enum CredentialTypeManager.CredentialCategory",
          "name": "",
          "type": "uint8"
        }
      ],
      "stateMutability": "view",
      "type": "function"
    },
    {
      "inputs": [
        {
          "internalType": "uint256",
          "name": "",
          "type": "uint256"
        }
      ],
      "name": "allCredentialTypeIds",
      "outputs": [
        {
          "internalType": "string",
          "name": "",
          "type": "string"
        }
      ],
      "stateMutability": "view",
      "type": "function"
    },
    {
      "inputs": [
        {
          "internalType": "address",
          "name": "",
          "type": "address"
        }
      ],
      "name": "authorizedWriters",
      "outputs": [
        {
          "internalType": "bool",
          "name": "",
          "type": "bool"
        }
      ],
      "stateMutability": "view",
      "type": "function"
    },
    {
      "inputs": [
        {
          "internalType": "string",
          "name": "credentialTypeId",
          "type": "string"
        },
        {
          "internalType": "string",
          "name": "name",
          "type": "string"
        },
        {
          "internalType": "string",
          "name": "description",
          "type": "string"
        },
        {
          "internalType": "enum CredentialTypeManager.CredentialCategory",
          "name": "category",
          "type": "uint8"
        },
        {
          "internalType": "uint256",
          "name": "defaultValidityPeriod",
          "type": "uint256"
        },
        {
          "internalType": "bool",
          "name": "requiresBiometric",
          "type": "bool"
        },
        {
          "internalType": "bool",
          "name": "requiresDocumentProof",
          "type": "bool"
        },
        {
          "internalType": "bool",
          "name": "requiresThirdPartyVerification",
          "type": "bool"
        },
        {
          "internalType": "string[]",
          "name": "requiredFields",
          "type": "string[]"
        },
        {
          "internalType": "string[]",
          "name": "optionalFields",
          "type": "string[]"
        },
        {
          "internalType": "uint256",
          "name": "maxIssuanceCount",
          "type": "uint256"
        },
        {
          "internalType": "string",
          "name": "version",
          "type": "string"
        }
      ],
      "name": "createCredentialType",
      "outputs": [],
      "stateMutability": "nonpayable",
      "type": "function"
    },
    {
      "inputs": [
        {
          "internalType": "string",
          "name": "",
          "type": "string"
        }
      ],
      "name": "credentialTypeConfigs",
      "outputs": [
        {
          "internalType": "bool",
          "name": "allowMultipleIssuance",
          "type": "bool"
        },
        {
          "internalType": "bool",
          "name": "requiresExpiry",
          "type": "bool"
        },
        {
          "internalType": "bool",
          "name": "allowsRevocation",
          "type": "bool"
        },
        {
          "internalType": "bool",
          "name": "requiresRenewal",
          "type": "bool"
        },
        {
          "internalType": "uint256",
          "name": "renewalPeriod",
          "type": "uint256"
        },
        {
          "internalType": "string",
          "name": "metadata",
          "type": "string"
        }
      ],
      "stateMutability": "view",
      "type": "function"
    },
    {
      "inputs": [
        {
          "internalType": "string",
          "name": "",
          "type": "string"
        }
      ],
      "name": "credentialTypes",
      "outputs": [
        {
          "internalType": "string",
          "name": "credentialTypeId",
          "type": "string"
        },
        {
          "internalType": "string",
          "name": "name",
          "type": "string"
        },
        {
          "internalType": "string",
          "name": "description",
          "type": "string"
        },
        {
          "internalType": "enum CredentialTypeManager.CredentialCategory",
          "name": "category",
          "type": "uint8"
        },
        {
          "internalType": "enum CredentialTypeManager.CredentialStatus",
          "name": "status",
          "type": "uint8"
        },
        {
          "internalType": "uint256",
          "name": "defaultValidityPeriod",
          "type": "uint256"
        },
        {
          "internalType": "bool",
          "name": "requiresBiometric",
          "type": "bool"
        },
        {
          "internalType": "bool",
          "name": "requiresDocumentProof",
          "type": "bool"
        },
        {
          "internalType": "bool",
          "name": "requiresThirdPartyVerification",
          "type": "bool"
        },
        {
          "internalType": "uint256",
          "name": "maxIssuanceCount",
          "type": "uint256"
        },
        {
          "internalType": "uint256",
          "name": "creationTimestamp",
          "type": "uint256"
        },
        {
          "internalType": "address",
          "name": "createdBy",
          "type": "address"
        },
        {
          "internalType": "string",
          "name": "version",
          "type": "string"
        }
      ],
      "stateMutability": "view",
      "type": "function"
    },
    {
      "inputs": [
        {
          "internalType": "enum CredentialTypeManager.CredentialCategory",
          "name": "",
          "type": "uint8"
        },
        {
          "internalType": "uint256",
          "name": "",
          "type": "uint256"
        }
      ],
      "name": "credentialTypesByCategory",
      "outputs": [
        {
          "internalType": "string",
          "name": "",
          "type": "string"
        }
      ],
      "stateMutability": "view",
      "type": "function"
    },
    {
      "inputs": [],
      "name": "getAllCategories",
      "outputs": [
        {
          "internalType": "enum CredentialTypeManager.CredentialCategory[]",
          "name": "categories",
          "type": "uint8[]"
        }
      ],
      "stateMutability": "view",
      "type": "function"
    },
    {
      "inputs": [],
      "name": "getAllCredentialTypeIds",
      "outputs": [
        {
          "internalType": "string[]",
          "name": "credentialTypeIds",
          "type": "string[]"
        }
      ],
      "stateMutability": "view",
      "type": "function"
    },
    {
      "inputs": [
        {
          "internalType": "string",
          "name": "credentialTypeId",
          "type": "string"
        }
      ],
      "name": "getCredentialType",
      "outputs": [
        {
          "components": [
            {
              "internalType": "string",
              "name": "credentialTypeId",
              "type": "string"
            },
            {
              "internalType": "string",
              "name": "name",
              "type": "string"
            },
            {
              "internalType": "string",
              "name": "description",
              "type": "string"
            },
            {
              "internalType": "enum CredentialTypeManager.CredentialCategory",
              "name": "category",
              "type": "uint8"
            },
            {
              "internalType": "enum CredentialTypeManager.CredentialStatus",
              "name": "status",
              "type": "uint8"
            },
            {
              "internalType": "uint256",
              "name": "defaultValidityPeriod",
              "type": "uint256"
            },
            {
              "internalType": "bool",
              "name": "requiresBiometric",
              "type": "bool"
            },
            {
              "internalType": "bool",
              "name": "requiresDocumentProof",
              "type": "bool"
            },
            {
              "internalType": "bool",
              "name": "requiresThirdPartyVerification",
              "type": "bool"
            },
            {
              "internalType": "string[]",
              "name": "requiredFields",
              "type": "string[]"
            },
            {
              "internalType": "string[]",
              "name": "optionalFields",
              "type": "string[]"
            },
            {
              "internalType": "uint256",
              "name": "maxIssuanceCount",
              "type": "uint256"
            },
            {
              "internalType": "uint256",
              "name": "creationTimestamp",
              "type": "uint256"
            },
            {
              "internalType": "address",
              "name": "createdBy",
              "type": "address"
            },
            {
              "internalType": "string",
              "name": "version",
              "type": "string"
            }
          ],
          "internalType": "struct CredentialTypeManager.CredentialType",
          "name": "credentialType",
          "type": "tuple"
        }
      ],
      "stateMutability": "view",
      "type": "function"
    },
    {
      "inputs": [
        {
          "internalType": "string",
          "name": "credentialTypeId",
          "type": "string"
        }
      ],
      "name": "getCredentialTypeConfig",
      "outputs": [
        {
          "components": [
            {
              "internalType": "bool",
              "name": "allowMultipleIssuance",
              "type": "bool"
            },
            {
              "internalType": "bool",
              "name": "requiresExpiry",
              "type": "bool"
            },
            {
              "internalType": "bool",
              "name": "allowsRevocation",
              "type": "bool"
            },
            {
              "internalType": "bool",
              "name": "requiresRenewal",
              "type": "bool"
            },
            {
              "internalType": "uint256",
              "name": "renewalPeriod",
              "type": "uint256"
            },
            {
              "internalType": "string[]",
              "name": "supportedJurisdictions",
              "type": "string[]"
            },
            {
              "internalType": "string",
              "name": "metadata",
              "type": "string"
            }
          ],
          "internalType": "struct CredentialTypeManager.CredentialTypeConfig",
          "name": "config",
          "type": "tuple"
        }
      ],
      "stateMutability": "view",
      "type": "function"
    },
    {
      "inputs": [],
      "name": "getCredentialTypeStatistics",
      "outputs": [
        {
          "internalType": "uint256",
          "name": "totalTypes",
          "type": "uint256"
        },
        {
          "internalType": "uint256",
          "name": "activeTypes",
          "type": "uint256"
        },
        {
          "internalType": "uint256",
          "name": "categoriesCount",
          "type": "uint256"
        }
      ],
      "stateMutability": "view",
      "type": "function"
    },
    {
      "inputs": [
        {
          "internalType": "enum CredentialTypeManager.CredentialCategory",
          "name": "category",
          "type": "uint8"
        }
      ],
      "name": "getCredentialTypesByCategory",
      "outputs": [
        {
          "internalType": "string[]",
          "name": "credentialTypeIds",
          "type": "string[]"
        }
      ],
      "stateMutability": "view",
      "type": "function"
    },
    {
      "inputs": [
        {
          "internalType": "address",
          "name": "writer",
          "type": "address"
        }
      ],
      "name": "isAuthorizedWriter",
      "outputs": [
        {
          "internalType": "bool",
          "name": "",
          "type": "bool"
        }
      ],
      "stateMutability": "view",
      "type": "function"
    },
    {
      "inputs": [
        {
          "internalType": "string",
          "name": "credentialTypeId",
          "type": "string"
        }
      ],
      "name": "isCredentialTypeActive",
      "outputs": [
        {
          "internalType": "bool",
          "name": "",
          "type": "bool"
        }
      ],
      "stateMutability": "view",
      "type": "function"
    },
    {
      "inputs": [],
      "name": "owner",
      "outputs": [
        {
          "internalType": "address",
          "name": "",
          "type": "address"
        }
      ],
      "stateMutability": "view",
      "type": "function"
    },
    {
      "inputs": [
        {
          "internalType": "string",
          "name": "searchTerm",
          "type": "string"
        }
      ],
      "name": "searchCredentialTypes",
      "outputs": [
        {
          "internalType": "string[]",
          "name": "credentialTypeIds",
          "type": "string[]"
        }
      ],
      "stateMutability": "view",
      "type": "function"
    },
    {
      "inputs": [
        {
          "internalType": "address",
          "name": "writer",
          "type": "address"
        },
        {
          "internalType": "bool",
          "name": "authorized",
          "type": "bool"
        }
      ],
      "name": "setAuthorizedWriter",
      "outputs": [],
      "stateMutability": "nonpayable",
      "type": "function"
    },
    {
      "inputs": [
        {
          "internalType": "string",
          "name": "credentialTypeId",
          "type": "string"
        },
        {
          "components": [
            {
              "internalType": "bool",
              "name": "allowMultipleIssuance",
              "type": "bool"
            },
            {
              "internalType": "bool",
              "name": "requiresExpiry",
              "type": "bool"
            },
            {
              "internalType": "bool",
              "name": "allowsRevocation",
              "type": "bool"
            },
            {
              "internalType": "bool",
              "name": "requiresRenewal",
              "type": "bool"
            },
            {
              "internalType": "uint256",
              "name": "renewalPeriod",
              "type": "uint256"
            },
            {
              "internalType": "string[]",
              "name": "supportedJurisdictions",
              "type": "string[]"
            },
            {
              "internalType": "string",
              "name": "metadata",
              "type": "string"
            }
          ],
          "internalType": "struct CredentialTypeManager.CredentialTypeConfig",
          "name": "config",
          "type": "tuple"
        }
      ],
      "name": "updateCredentialTypeConfig",
      "outputs": [],
      "stateMutability": "nonpayable",
      "type": "function"
    },
    {
      "inputs": [
        {
          "internalType": "string",
          "name": "credentialTypeId",
          "type": "string"
        },
        {
          "internalType": "enum CredentialTypeManager.CredentialStatus",
          "name": "status",
          "type": "uint8"
        }
      ],
      "name": "updateCredentialTypeStatus",
      "outputs": [],
      "stateMutability": "nonpayable",
      "type": "function"
    }
  ],
  "bytecode": "0x34620021c15760015f81815581546001600160a01b0319163390811783558152600260205260409020805460ff191690911790556101206040525f608052600160a052600260c052600360e0526004610100526007805460059182905590811162002169575b5060075f9081525f8051602062004e8b8339815191526080825b600581106200213957505055604051608081016001600160401b03811182821017620012e857604052600381525f5b60608110620021275750620000c2620021e6565b600881526766756c6c4e616d6560c01b6020820152620000e2826200226f565b52620000ee816200226f565b50620000f9620021e6565b600b81526a0c8c2e8ca9ecc84d2e4e8d60ab1b60208201526200011c8262002291565b52620001288162002291565b5062000133620021e6565b600b81526a6e6174696f6e616c69747960a81b60208201526200015682620022a2565b526200016281620022a2565b506200016d6200223e565b62000177620021e6565b600a8152696d6964646c654e616d6560b01b602082015262000199826200226f565b52620001a5816200226f565b50620001b0620021e6565b600c81526b70726576696f75734e616d6560a01b6020820152620001d48262002291565b52620001e08162002291565b506001546001600160a01b031690620001f8620021c5565b9262000203620021e6565b600c81526b6b79632d6964656e7469747960a01b6020820152845262000228620021e6565b601981527f4b5943204964656e7469747920566572696669636174696f6e00000000000000602082015260208501526200026162002206565b603381527f4964656e7469747920766572696669636174696f6e2063726564656e7469616c60208201527f20666f72204b594320636f6d706c69616e636500000000000000000000000000604082015260408501525f60608501525f608085015261016d60a08501525f60c0850152600160e085015260016101008501526101208401526101408301526001610160830152426101808301526101a08201526200030a620021e6565b60058152640312e302e360dc1b60208201526101c08201526040516b6b79632d6964656e7469747960a01b81526003600c820152602c9020815180519092906001600160401b038111620012e8576200037081620003698554620022b3565b8562002319565b6020601f8211600114620020be57819293945f92620020b2575b50508160011b915f199060031b1c19161782555b602081015180519092906001600160401b038111620012e857620003d581620003cb6001850154620022b3565b6001850162002319565b6020601f82116001146200204357819293945f9262002037575b50508160011b915f199060031b1c19161760018201555b604082015180519092906001600160401b038111620012e8576200043d81620004336002860154620022b3565b6002860162002319565b6020601f821160011462001fc857819293945f9262001fbc575b50508160011b915f199060031b1c19161760028301555b606081015160058110156200163a576003830154608083015160048110156200163a5761ff0060ff9160081b1692169061ffff19161717600383015560a08101516004830155620004d460c08201511515600584019060ff801983541691151516179055565b60e08101511515600583015461ff0062ff0000610100850151151560101b169260081b169062ffff00191617176005830155610120810151805190680100000000000000008211620012e857600684015482600686015580831062001f3d575b5060200190600684015f5260205f20915f905b82821062001e59578585610140810151805190680100000000000000008211620012e857600784015482600786015580831062001dda575b5060200190600784015f5260205f20915f905b82821062001cf657610160850151600887015561018085015160098701556101a0850151600a870180546001600160a01b0319166001600160a01b03929092169190911790556101c0850151805187916001600160401b038211620012e8576200060f8262000605600b860154620022b3565b600b860162002319565b602090601f831160011462001c8557600b92915f918362001c79575b50508160011b915f199060031b1c1916179101555b6200064a6200223e565b62000654620021e6565b6006815265696e636f6d6560d01b602082015262000672826200226f565b526200067e816200226f565b5062000689620021e6565b601081526f656d706c6f796d656e7453746174757360801b6020820152620006b18262002291565b52620006bd8162002291565b50620006c8620021e6565b600181525f5b6020811062001c675750620006e2620021e6565b600881526732b6b83637bcb2b960c11b602082015262000702826200226f565b526200070e816200226f565b506001546001600160a01b03169062000726620021c5565b9262000731620021e6565b601081526f66696e616e6369616c2d73746174757360801b602082015284526200075a620021e6565b601d81527f46696e616e6369616c2053746174757320566572696669636174696f6e000000602082015260208501526200079362002206565b603381527f46696e616e6369616c2073746174757320616e6420696e636f6d65207665726960208201527f6669636174696f6e2063726564656e7469616c0000000000000000000000000060408201526040850152600160608501525f608085015260b460a08501525f60c0850152600160e085015260016101008501526101208401526101408301526003610160830152426101808301526101a08201526200083c620021e6565b60058152640312e302e360dc1b60208201526101c08201526040516f66696e616e6369616c2d73746174757360801b81526003601082015260309020815180519092906001600160401b038111620012e8576200089f81620003698554620022b3565b6020601f821160011462001bfe57819293945f9262001bf2575b50508160011b915f199060031b1c19161782555b602081015180519092906001600160401b038111620012e857620008fa81620003cb6001850154620022b3565b6020601f821160011462001b8357819293945f9262001b77575b50508160011b915f199060031b1c19161760018201555b604082015180519092906001600160401b038111620012e8576200095881620004336002860154620022b3565b6020601f821160011462001b0857819293945f9262001afc575b50508160011b915f199060031b1c19161760028301555b606081015160058110156200163a576003830154608083015160048110156200163a5761ff0060ff9160081b1692169061ffff19161717600383015560a0810151600483015560058201620009f060c08301511515829060ff801983541691151516179055565b60e08201511515815461ff0062ff0000610100860151151560101b169260081b169062ffff00191617179055610120810151805190680100000000000000008211620012e857600684015482600686015580831062001a7d575b5060200190600684015f5260205f20915f905b82821062001999578585610140810151805190680100000000000000008211620012e85760078401548260078601558083106200191a575b5060200190600784015f5260205f20915f905b8282106200183657610160850151600887015561018085015160098701556101a0850151600a870180546001600160a01b0319166001600160a01b03929092169190911790556101c0850151805187916001600160401b038211620012e85762000b1b8262000605600b860154620022b3565b602090601f8311600114620017c557600b92915f9183620017b9575b50508160011b915f199060031b1c1916179101555b62000b566200223e565b62000b60620021e6565b600a815269383937b332b9b9b4b7b760b11b602082015262000b82826200226f565b5262000b8e816200226f565b5062000b99620021e6565b600e81526d7175616c696669636174696f6e7360901b602082015262000bbf8262002291565b5262000bcb8162002291565b506040516001600160401b036020820190811190821117620012e857602081016040525f81526001546001600160a01b03169062000c08620021c5565b9262000c13620021e6565b601981527f70726f66657373696f6e616c2d766572696669636174696f6e000000000000006020820152845262000c49620021e6565b601981527f50726f66657373696f6e616c20566572696669636174696f6e000000000000006020820152602085015262000c8262002206565b603381527f50726f66657373696f6e616c207175616c696669636174696f6e7320616e642060208201527f73746174757320766572696669636174696f6e0000000000000000000000000060408201526040850152600260608501525f60808501526102da60a08501525f60c0850152600160e085015260016101008501526101208401526101408301526005610160830152426101808301526101a082015262000d2c620021e6565b60058152640312e302e360dc1b60208201526101c08201526040517f70726f66657373696f6e616c2d766572696669636174696f6e000000000000008152600360198201526039902081518051909291906001600160401b038111620012e85762000da48162000d9d8454620022b3565b8462002319565b6020601f82116001146200175057819293945f9262001744575b50508160011b915f199060031b1c19161781555b602082015180519092906001600160401b038111620012e85762000e098162000dff6001860154620022b3565b6001860162002319565b6020601f8211600114620016d557819293945f92620016c9575b50508160011b915f199060031b1c19161760018301555b604081015180519092906001600160401b038111620012e85762000e718162000e676002850154620022b3565b6002850162002319565b6020601f82116001146200165a57819293945f926200164e575b50508160011b915f199060031b1c19161760028201555b606082015160058110156200163a576003820154608084015160048110156200163a5761ff0060ff9160081b1692169061ffff19161717600382015560a082015160048201556005810162000f0960c08401511515829060ff801983541691151516179055565b60e08301511515815461ff0062ff0000610100870151151560101b169260081b169062ffff00191617179055610120820151805190680100000000000000008211620012e8576006830154826006850155808310620015bb575b5060200190600683015f5260205f20915f905b828210620014d7578585610140820151805190680100000000000000008211620012e857600783015482600785015580831062001458575b5060200190600783015f5260205f20915f905b8282106200136d57610160860151600886015561018086015160098601556101a0860151600a860180546001600160a01b0319166001600160a01b03929092169190911790556101c08601518051600b8701906001600160401b038111620012e857620010348162000d9d8454620022b3565b602092601f82116001146200130857928192935f92620012fc575b50508160011b915f199060031b1c19161790555b60065468010000000000000000811015620012e8578060016200108a920160065562002361565b620012d557620010a66200109f8254620022b3565b82620022ee565b7f6b79632d6964656e7469747900000000000000000000000000000000000000189081905560065468010000000000000000811015620012e857806001620010f2920160065562002361565b620012d557620011076200109f8254620022b3565b7f66696e616e6369616c2d737461747573000000000000000000000000000000209081905560065468010000000000000000811015620012e85780600162001153920160065562002361565b929092620012d557620011726200116b8454620022b3565b84620022ee565b7f70726f66657373696f6e616c2d766572696669636174696f6e00000000000032928390555f805260056020527f05b8ccbb9d4d8fb16ea74ce3c29a41f1b461fbdaff4714a0d9a8eb05499746bc805468010000000000000000811015620012e857620011e5916001820181556200237a565b620012d557620011fa6200109f8254620022b3565b5560015f5260056020527f1471eb6eb2c5e789fc3de43f8ce62938c7d1836ec861730447e2ada8fd81017b805468010000000000000000811015620012e8576200124a916001820181556200237a565b620012d5576200125f6200109f8254620022b3565b5560025f5260056020527f89832631fb3c3307a103ba2c84ab569c64d6182a18893dcd163f0f1c2090733a805468010000000000000000811015620012e857620012af916001820181556200237a565b620012d557620012c46200109f8254620022b3565b55604051612afa9081620023918239f35b634e487b7160e01b5f525f60045260245ffd5b634e487b7160e01b5f52604160045260245ffd5b0151905083806200104f565b601f19821693835f5260205f20915f5b8681106200135457508360019596106200133b575b505050811b01905562001063565b01515f1960f88460031b161c191690558380806200132d565b9192602060018192868501518155019401920162001318565b80518051906001600160401b038211620012e8576200139982620013928854620022b3565b8862002319565b602090601f8311600114620013e75792826001949360209386955f92620013db575b50505f19600383901b1c191690841b1787555b0194019101909262000fc1565b015190508b80620013bb565b90865f5260205f20915f5b601f19851681106200143f575083602093600196938796938794601f1981161062001426575b505050811b018755620013ce565b01515f1960f88460031b161c191690558b808062001418565b91926020600181928685015181550194019201620013f2565b600784015f5260205f20908382015b81830181106200147957505062000fae565b806200148860019254620022b3565b8062001497575b500162001467565b601f81118314620014ae57505f81555b886200148f565b5f90828252620014cd601f60208420920160051c820185830162002226565b81835555620014a7565b80518051906001600160401b038211620012e857620014fc82620013928854620022b3565b602090601f83116001146200154a5792826001949360209386955f926200153e575b50505f19600383901b1c191690841b1787555b0194019101909262000f76565b015190508b806200151e565b90865f5260205f20915f5b601f1985168110620015a2575083602093600196938796938794601f1981161062001589575b505050811b01875562001531565b01515f1960f88460031b161c191690558b80806200157b565b9192602060018192868501518155019401920162001555565b600684015f5260205f20908382015b8183018110620015dc57505062000f63565b80620015eb60019254620022b3565b80620015fa575b5001620015ca565b601f811183146200161157505f81555b88620015f2565b5f9082825262001630601f60208420920160051c820185830162002226565b818355556200160a565b634e487b7160e01b5f52602160045260245ffd5b01519050848062000e8b565b600283015f5260205f20905f5b601f1984168110620016b05750600193949583601f1981161062001697575b505050811b01600282015562000ea2565b01515f1960f88460031b161c1916905584808062001686565b9091602060018192858a01518155019301910162001667565b01519050848062000e23565b600184015f5260205f20905f5b601f19841681106200172b5750600193949583601f1981161062001712575b505050811b01600183015562000e3a565b01515f1960f88460031b161c1916905584808062001701565b9091602060018192858a015181550193019101620016e2565b01519050848062000dbe565b825f5260205f20905f5b601f1984168110620017a05750600193949583601f1981161062001787575b505050811b01815562000dd2565b01515f1960f88460031b161c1916905584808062001779565b9091602060018192858a0151815501930191016200175a565b01519050848062000b37565b90600b84015f5260205f20915f5b601f19851681106200181d5750918391600193600b95601f1981161062001804575b505050811b0191015562000b4c565b01515f1960f88460031b161c19169055848080620017f5565b91926020600181928685015181550194019201620017d3565b80518051906001600160401b038211620012e8576200185b82620013928854620022b3565b602090601f8311600114620018a95792826001949360209386955f926200189d575b50505f19600383901b1c191690841b1787555b0194019101909262000aa8565b015190508b806200187d565b90865f5260205f20915f5b601f198516811062001901575083602093600196938796938794601f19811610620018e8575b505050811b01875562001890565b01515f1960f88460031b161c191690558b8080620018da565b91926020600181928685015181550194019201620018b4565b600785015f5260205f20908382015b81830181106200193b57505062000a95565b806200194a60019254620022b3565b8062001959575b500162001929565b601f811183146200197057505f81555b8862001951565b5f908282526200198f601f60208420920160051c820185830162002226565b8183555562001969565b80518051906001600160401b038211620012e857620019be82620013928854620022b3565b602090601f831160011462001a0c5792826001949360209386955f9262001a00575b50505f19600383901b1c191690841b1787555b0194019101909262000a5d565b015190508b80620019e0565b90865f5260205f20915f5b601f198516811062001a64575083602093600196938796938794601f1981161062001a4b575b505050811b018755620019f3565b01515f1960f88460031b161c191690558b808062001a3d565b9192602060018192868501518155019401920162001a17565b600685015f5260205f20908382015b818301811062001a9e57505062000a4a565b8062001aad60019254620022b3565b8062001abc575b500162001a8c565b601f8111831462001ad357505f81555b8862001ab4565b5f9082825262001af2601f60208420920160051c820185830162002226565b8183555562001acc565b01519050848062000972565b600284015f5260205f20905f5b601f198416811062001b5e5750600193949583601f1981161062001b45575b505050811b01600283015562000989565b01515f1960f88460031b161c1916905584808062001b34565b9091602060018192858a01518155019301910162001b15565b01519050848062000914565b600183015f5260205f20905f5b601f198416811062001bd95750600193949583601f1981161062001bc0575b505050811b0160018201556200092b565b01515f1960f88460031b161c1916905584808062001baf565b9091602060018192858a01518155019301910162001b90565b015190508480620008b9565b835f5260205f20905f5b601f198416811062001c4e5750600193949583601f1981161062001c35575b505050811b018255620008cd565b01515f1960f88460031b161c1916905584808062001c27565b9091602060018192858a01518155019301910162001c08565b806060602080938501015201620006ce565b0151905084806200062b565b90600b84015f5260205f20915f5b601f198516811062001cdd5750918391600193600b95601f1981161062001cc4575b505050811b0191015562000640565b01515f1960f88460031b161c1916905584808062001cb5565b9192602060018192868501518155019401920162001c93565b80518051906001600160401b038211620012e85762001d1b82620013928854620022b3565b602090601f831160011462001d695792826001949360209386955f9262001d5d575b50505f19600383901b1c191690841b1787555b0194019101909262000592565b015190508b8062001d3d565b90865f5260205f20915f5b601f198516811062001dc1575083602093600196938796938794601f1981161062001da8575b505050811b01875562001d50565b01515f1960f88460031b161c191690558b808062001d9a565b9192602060018192868501518155019401920162001d74565b600785015f5260205f20908382015b818301811062001dfb5750506200057f565b8062001e0a60019254620022b3565b8062001e19575b500162001de9565b601f8111831462001e3057505f81555b8862001e11565b5f9082825262001e4f601f60208420920160051c820185830162002226565b8183555562001e29565b80518051906001600160401b038211620012e85762001e7e82620013928854620022b3565b602090601f831160011462001ecc5792826001949360209386955f9262001ec0575b50505f19600383901b1c191690841b1787555b0194019101909262000547565b015190505f8062001ea0565b90865f5260205f20915f5b601f198516811062001f24575083602093600196938796938794601f1981161062001f0b575b505050811b01875562001eb3565b01515f1960f88460031b161c191690555f808062001efd565b9192602060018192868501518155019401920162001ed7565b600685015f5260205f20908382015b818301811062001f5e57505062000534565b8062001f6d60019254620022b3565b8062001f7c575b500162001f4c565b601f8111831462001f9357505f81555b5f62001f74565b5f9082825262001fb2601f60208420920160051c820185830162002226565b8183555562001f8c565b015190505f8062000457565b600284015f5260205f20905f5b601f19841681106200201e5750600193949583601f1981161062002005575b505050811b0160028301556200046e565b01515f1960f88460031b161c191690555f808062001ff4565b9091602060018192858a01518155019301910162001fd5565b015190505f80620003ef565b600183015f5260205f20905f5b601f1984168110620020995750600193949583601f1981161062002080575b505050811b01600182015562000406565b01515f1960f88460031b161c191690555f80806200206f565b9091602060018192858a01518155019301910162002050565b015190505f806200038a565b835f5260205f20905f5b601f19841681106200210e5750600193949583601f19811610620020f5575b505050811b0182556200039e565b01515f1960f88460031b161c191690555f8080620020e7565b9091602060018192858a015181550193019101620020c8565b806060602080938501015201620000ae565b909283519060058210156200163a576001916020918460031b9160ff809116831b921b191617940191016200007f565b60075f525f8051602062004e8b833981519152805464ffffffffff168155620021ba91601f0160051c017fa66cc928b5edb82af9bd49922954155ab7b0942694bea4ce44661d9a8736c68962002226565b5f62000065565b5f80fd5b604051906101e082016001600160401b03811183821017620012e857604052565b60408051919082016001600160401b03811183821017620012e857604052565b60405190606082016001600160401b03811183821017620012e857604052565b81811062002232575050565b5f815560010162002226565b6200224862002206565b9060028252815f5b604081106200225d575050565b80606060208093850101520162002250565b8051156200227d5760200190565b634e487b7160e01b5f52603260045260245ffd5b8051600110156200227d5760400190565b8051600210156200227d5760600190565b90600182811c92168015620022e3575b6020831014620022cf57565b634e487b7160e01b5f52602260045260245ffd5b91607f1691620022c3565b90601f8111620022fc575050565b62002317915f52601f60205f20910160051c81019062002226565b565b9190601f81116200232957505050565b62002317925f5260205f20906020601f840160051c8301931062002356575b601f0160051c019062002226565b909150819062002348565b6006548110156200227d5760065f5260205f2001905f90565b80548210156200227d575f5260205f2001905f9056fe60806040526004361015610011575f80fd5b5f3560e01c806304801b2014611ddc57806318b2d6cd14611a40578063216260af146119c5578063526241a814611988578063529fc50b146118d3578063542a086c146117c9578063662c565e1461178d578063685496f0146117275780636e6939a8146115a95780636f1757861461156657806381b81bd01461153f5780638da5cb5b1461151957806390cc1d71146113bb57806394525abc14610c5b578063ad6e823b14610bf3578063c8fdf83314610ac2578063cb2cdf7e14610a77578063dadd0a57146102ba578063e9371c58146102135763ea22bdfb146100f5575f80fd5b3461020f575f36600319011261020f575f6006546007545f5b82811061012b575060609260405192835260208301526040820152f35b61013481612473565b50604051905f90805461014681612383565b916001918083169081156101f557506001146101bc575b50505081602060ff9360039384815203019020015460081c1660048110156101a85715610193575b61018e906128af565b61010e565b926101a061018e916128af565b939050610185565b634e487b7160e01b5f52602160045260245ffd5b909192505f52602090815f20905f915b8483106101e457505050908201905060ff5f8061015d565b8054868401529183019181016101cc565b60ff19168652505050801515028201905060ff5f8061015d565b5f80fd5b3461020f57602036600319011261020f5760043567ffffffffffffffff811161020f576003610296602061024d60ff943690600401612155565b604051906102856001600160a01b03600a83519486818187019761027281838b6121ab565b81018b8152030190200154161515612762565b6040519384928392519283916121ab565b810184815203019020015460081c1660048110156101a85760209060405190158152f35b3461020f575f36600319011261020f57604051806007549081835260208093019181848460075f527fa66cc928b5edb82af9bd49922954155ab7b0942694bea4ce44661d9a8736c6885f905b85601f8301106108075794610424955491848282106107ed575b8282106107d0575b8282106107b3575b828210610796575b82821061077a575b82821061075d575b828210610740575b828210610723575b828210610706575b8282106106e9575b8282106106cc575b8282106106af575b828210610692575b828210610675575b828210610658575b82821061063b575b82821061061e575b828210610601575b8282106105e4575b8282106105c7575b8282106105aa575b82821061058d575b828210610570575b828210610553575b828210610536575b828210610519575b8282106104fc575b8282106104df575b8282106104c2575b8282106104a5575b828210610488575b5010610472575b5090509392930383612133565b60405192839281840190828552518091526040840192915f5b82811061044c57505050500390f35b91938395509080826104626001948397516121f1565b019501910191859493919261043d565b8161047f9160f81c6121f1565b01859087610417565b8461049c6001939660ff8760f01c166121f1565b01930184610410565b846104b96001939660ff8760e81c166121f1565b01930184610408565b846104d66001939660ff8760e01c166121f1565b01930184610400565b846104f36001939660ff8760d81c166121f1565b019301846103f8565b846105106001939660ff8760d01c166121f1565b019301846103f0565b8461052d6001939660ff8760c81c166121f1565b019301846103e8565b8461054a6001939660ff8760c01c166121f1565b019301846103e0565b846105676001939660ff8760b81c166121f1565b019301846103d8565b846105846001939660ff8760b01c166121f1565b019301846103d0565b846105a16001939660ff8760a81c166121f1565b019301846103c8565b846105be6001939660ff8760a01c166121f1565b019301846103c0565b846105db6001939660ff8760981c166121f1565b019301846103b8565b846105f86001939660ff8760901c166121f1565b019301846103b0565b846106156001939660ff8760881c166121f1565b019301846103a8565b846106326001939660ff8760801c166121f1565b019301846103a0565b8461064f6001939660ff8760781c166121f1565b01930184610398565b8461066c6001939660ff8760701c166121f1565b01930184610390565b846106896001939660ff8760681c166121f1565b01930184610388565b846106a66001939660ff8760601c166121f1565b01930184610380565b846106c36001939660ff8760581c166121f1565b01930184610378565b846106e06001939660ff8760501c166121f1565b01930184610370565b846106fd6001939660ff8760481c166121f1565b01930184610368565b8461071a6001939660ff8760401c166121f1565b01930184610360565b846107376001939660ff8760381c166121f1565b01930184610358565b846107546001939660ff8760301c166121f1565b01930184610350565b846107716001939660ff8760281c166121f1565b01930184610348565b8461078d6001939660ff87851c166121f1565b01930184610340565b846107aa6001939660ff8760181c166121f1565b01930184610338565b846107c76001939660ff8760101c166121f1565b01930184610330565b846107e46001939660ff8760081c166121f1565b01930184610328565b846107fe6001939660ff87166121f1565b01930184610320565b9350916001610400829693610a688754610a5a60ff610828858285166121f1565b610839888601828560081c166121f1565b61084b60408601828560101c166121f1565b6109eb856109a36060610865818401868960181c166121f1565b61095b8c61087c608091888b848901921c166121f1565b61091360a0936108938588018a8d60281c166121f1565b888b61018060c0996108ac8b8201858560301c166121f1565b6108be60e08201858560381c166121f1565b6108d16101008201858560401c166121f1565b6108e46101208201858560481c166121f1565b6108f76101408201858560501c166121f1565b61090a6101608201858560581c166121f1565b01921c166121f1565b6109266101a08c01888b60681c166121f1565b6109396101c08c01888b60701c166121f1565b61094c6101e08c01888b60781c166121f1565b86896102008d01921c166121f1565b61096e6102208a01868960881c166121f1565b6109816102408a01868960901c166121f1565b6109946102608a01868960981c166121f1565b84876102808b01921c166121f1565b6109b66102a08801848760a81c166121f1565b6109c96102c08801848760b01c166121f1565b6109dc6102e08801848760b81c166121f1565b82856103008901921c166121f1565b6109fe6103208601828560c81c166121f1565b610a116103408601828560d01c166121f1565b610a246103608601828560d81c166121f1565b610a376103808601828560e01c166121f1565b610a4a6103a08601828560e81c166121f1565b6103c08501908360f01c166121f1565b6103e083019060f81c6121f1565b01940192018593919492610306565b3461020f57602036600319011261020f5760043560065481101561020f57610aaa610aa4610abe92612473565b906124d1565b6040519182916020835260208301906121cc565b0390f35b3461020f57604036600319011261020f5760043567ffffffffffffffff811161020f57610af3903690600401612155565b60243590600482101561020f576020610bc57feee90e57f3f271d34e6b67cd01b7e79c53f1ebe66ac2f0f6fd4cbdb100f0a26892335f526002835260ff60405f2054168015610bda575b610b46906124e2565b610bc0856003610bb186604051610b876001600160a01b03600a8951938581818d0196610b7481838a6121ab565b81018a8152030190200154161515612762565b610b8f61270f565b610ba0610b9a612578565b8861297b565b6040518093819289519283916121ab565b810184815203019020016126d0565b6126ef565b92610bd360405180926121fe565ba260015f55005b50610b466001600160a01b036001541633149050610b3d565b3461020f57602036600319011261020f576020610c0e61236d565b610c1f610c19612876565b82612901565b6001600160a01b03809116805f526002835260ff60405f205416918215610c4d575b50506040519015158152f35b600154161490508280610c41565b3461020f5761018036600319011261020f5767ffffffffffffffff60043581811161020f57610c8e903690600401612155565b60243582811161020f57610ca6903690600401612155565b9160443581811161020f57610cbf903690600401612155565b906005606435101561020f5760a43590811515820361020f5760c435801515810361020f5760e435801515810361020f576101043583811161020f57610d0990369060040161228b565b916101243584811161020f57610d2390369060040161228b565b93610164351161020f57610d3d3661016435600401612155565b94335f52600260205260ff60405f20541680156113a2575b610d5e906124e2565b610d6c60056064351061252d565b610d7461270f565b610d85610d7f612578565b8961297b565b610dc4604051610d9481612117565b600481527f6e616d650000000000000000000000000000000000000000000000000000000060208201528a61297b565b610e03604051610dd381612117565b600b81527f6465736372697074696f6e00000000000000000000000000000000000000000060208201528861297b565b610e42604051610e1281612117565b600781527f76657273696f6e0000000000000000000000000000000000000000000000000060208201528761297b565b610e83604051610e5181612117565b601581527f64656661756c7456616c6964697479506572696f6400000000000000000000006020820152608435612a53565b610ec5604051610e9281612117565b601081527f6d617849737375616e6365436f756e7400000000000000000000000000000000602082015261014435612a53565b6001600160a01b03600a610ee860208b81604051938285809451938492016121ab565b8101600381520301902001541661135e5760405196610f06886120de565b8888528960208901526040880152610f23606435606089016125b1565b5f608088015260843560a0880152151560c0870152151560e086015215156101008501526101208401526101408301526101443561016083015242610180830152336101a08301526101c08201526040516020818451610f8681838589016121ab565b8101600381520301902090610f9c8151836125d3565b610fad6020820151600184016125d3565b610fbe6040820151600284016125d3565b606081015160058110156101a85760ff80196003850154169116176003830155608081015160048110156101a857610ff990600384016126d0565b60a0810151600483015561105d6005830161102660c08401511515829060ff801983541691151516179055565b60e0830151815461ff00191690151560081b61ff0016178155610100830151815462ff0000191690151560101b62ff000016179055565b6101208101518051906801000000000000000082116112265760068401548260068601558083106112e9575b50602001600684015f5260205f205f915b8383106112cc5750505050610140810151805190680100000000000000008211611226576007840154826007860155808310611257575b50602001600784015f5260205f205f915b83831061123a57878761114e88600b6101c08a61016081015160088501556101808101516009850155600a84016001600160a01b036101a0830151167fffffffffffffffffffffffff0000000000000000000000000000000000000000825416179055015191016125d3565b61115960643561245c565b8054680100000000000000008110156112265761117b916001820181556124bc565b6112135781611189916125d3565b60065468010000000000000000811015611226578060016111ad9201600655612473565b919091611213576111e681610bc06111fb937fcd0bff200e8d8b3aaf104aa45852150c7d6f05469560808263dd1e413b18c8f7956125d3565b926040519182916040835260408301906121cc565b61120a602083016064356121f1565b0390a260015f55005b634e487b7160e01b5f525f60045260245ffd5b634e487b7160e01b5f52604160045260245ffd5b600160208261124b839451866125d3565b019201920191906110e2565b600785015f5260205f20908382015b81830181106112765750506110d1565b8061128360019254612383565b80611290575b5001611266565b601f9081811184146112a85750505f81555b8a611289565b6112c35f9284845260208420920160051c82018583016125bd565b818355556112a2565b60016020826112dd839451866125d3565b0192019201919061109a565b600685015f5260205f20908382015b8183018110611308575050611089565b8061131560019254612383565b80611322575b50016112f8565b601f90818111841461133a5750505f81555b8a61131b565b6113555f9284845260208420920160051c82018583016125bd565b81835555611334565b606460405162461bcd60e51b815260206004820152601e60248201527f43726564656e7469616c207479706520616c72656164792065786973747300006044820152fd5b50610d5e6001600160a01b036001541633149050610d55565b3461020f57602036600319011261020f5760043567ffffffffffffffff811161020f576113ec903690600401612155565b6040518181809351602081930191611403926121ab565b810160038152036020019020611418816123bb565b611424600183016123bb565b91611431600282016123bb565b9060038101549060048101546005820154600883015490600984015492600a8501546001600160a01b031694600b01611469906123bb565b96604051998a996101a0808c528b01611481916121cc565b8a810360208c0152611492916121cc565b89810360408b01526114a3916121cc565b956114b460608a0160ff83166121f1565b608089019060081c60ff16906114c9916121fe565b60a088015260ff8116151560c08801528060081c60ff16151560e088015260101c60ff161515610100870152610120860152610140850152610160840152828103610180840152610abe916121cc565b3461020f575f36600319011261020f5760206001600160a01b0360015416604051908152f35b3461020f575f36600319011261020f57610abe61155a6127ad565b6040519182918261230c565b3461020f57604036600319011261020f57600435600581101561020f5761158f6024359161245c565b90815481101561020f57610aa4610aaa91610abe936124bc565b3461020f5760208060031936011261020f5760043567ffffffffffffffff811161020f57816115df611649923690600401612155565b606060c06040516115ef816120fb565b5f81525f858201525f60408201525f838201525f60808201528260a08201520152604051906102856001600160a01b03600a83519486818187019761163581838b6121ab565b810160038152030190200154161515612762565b81016004815203019020610abe60405191611663836120fb565b61171481549160ff8316151585528585019260ff8160081c1615158452604086019060ff8160101c161515825260ff606088019160181c1615158152600183015491608088019283526116cb60036116bd60028701612822565b9560a08b01968752016123bb565b9560c08901968752604051998a99818b52511515908a01525115156040890152511515606088015251151560808701525160a08601525160e060c086015261010085019061220b565b9051838203601f190160e08501526121cc565b3461020f57602036600319011261020f5760043560075481101561020f5760f861178b60209260075f5260ff8160051c7fa66cc928b5edb82af9bd49922954155ab7b0942694bea4ce44661d9a8736c688015460405194859360031b161c166121f1565bf35b3461020f57602036600319011261020f576004356005811090811561020f576117c461155a916117bf610abe9461252d565b61245c565b612822565b3461020f57604036600319011261020f576117e261236d565b6024359081151580830361020f576001600160a01b0390816001541633036118695761185c6020927e8ebc621f24e0e9d1fd4ee2f7df9bb80c8d61ee30a9167a4fee6cefcf8c021e9461183361270f565b61183e610c19612876565b1694855f526002845260405f209060ff801983541691151516179055565b604051908152a260015f55005b608460405162461bcd60e51b815260206004820152602160248201527f4f6e6c79206f776e65722063616e2063616c6c20746869732066756e6374696f60448201527f6e000000000000000000000000000000000000000000000000000000000000006064820152fd5b3461020f57602036600319011261020f5760043567ffffffffffffffff811161020f5761191e602061190b60ff933690600401612155565b81604051938285809451938492016121ab565b81016004815203019020610abe81549161193f6003600183015492016123bb565b9060405194848187961615158652818160081c1615156020870152818160101c161515604087015260181c1615156060850152608084015260c060a084015260c08301906121cc565b3461020f57602036600319011261020f576001600160a01b036119a961236d565b165f526002602052602060ff60405f2054166040519015158152f35b3461020f57602036600319011261020f5760043567ffffffffffffffff811161020f576119f9611a35913690600401612155565b60405190611a0682612117565b600a82527f7365617263685465726d00000000000000000000000000000000000000000000602083015261297b565b610abe61155a6127ad565b3461020f5760031960403682011261020f5767ffffffffffffffff9060043582811161020f57611a74903690600401612155565b906024359083821161020f5760e090823603011261020f57604051611a98816120fb565b611aa482600401612266565b8152611ab260248301612266565b602092838301918252611ac760448201612266565b9060408401918252611adb60648201612266565b6060850190815260808501916084810135835260a481013589811161020f57611b0a906004369184010161228b565b9860a08701998a5260c482013590811161020f57611c83916004611b319236920101612155565b9360c08701948552335f526002885260ff60405f2054168015611dc3575b611b58906124e2565b611c6a611c2f898b611b836001600160a01b03600a604051858181875197019661163581838a6121ab565b611b8b61270f565b611b9d8d611b97612578565b9061297b565b611bdd895160405190611baf82612117565b600882527f6d657461646174610000000000000000000000000000000000000000000000008583015261297b565b611c1d885160405190611bef82612117565b600d82527f72656e6577616c506572696f640000000000000000000000000000000000000085830152612a53565b8c6040519384928392519283916121ab565b8101600481520301902096611c5389511515899060ff801983541691151516179055565b51875461ff00191690151560081b61ff0016178755565b51855462ff0000191690151560101b62ff000016178555565b51835463ff000000191690151560181b63ff0000001617835551600180840191909155955180519060028401680100000000000000008311611226578689928254858455808610611d48575b5001905f52865f205f915b848310611d2d57838a7f1609e230ffdc88a15bedc5b09eb86719b796dcc6711174a1efc11c61746dc7988b611d218c611d188d60038e5191016125d3565b511515936126ef565b92604051908152a25f55005b838982611d3c839451866125d3565b01920192019190611cda565b835f528486845f2092830192015b828110611d64575050611ccf565b9091929350611d738154612383565b80611d85575b500190848a9392611d56565b601f908c828211600114611da0575050505f81555b8d611d79565b5f92611dba918585528420920160051c82018583016125bd565b81835555611d9a565b50611b586001600160a01b036001541633149050611b4f565b3461020f57602036600319011261020f5760043567ffffffffffffffff811161020f576020611e12611eb1923690600401612155565b60606101c0604051611e23816120de565b82815282858201528260408201525f838201525f60808201525f60a08201525f60c08201525f60e08201525f61010082015282610120820152826101408201525f6101608201525f6101808201525f6101a0820152015261190b6001600160a01b03600a60405185818651611e9b8183858b016121ab565b6003818301528101030190200154161515612762565b81016003815203019020604051611ec7816120de565b611ed0826123bb565b8152611ede600183016123bb565b6020820152611eef600283016123bb565b6040820152600382015491611f0a60ff8416606084016125b1565b600460ff8460081c1610156101a857600b611fb69160ff610abe9560081c166080850152600481015460a085015260ff6005820154818116151560c0870152818160081c16151560e087015260101c161515610100850152611f6e60068201612822565b610120850152611f8060078201612822565b610140850152600881015461016085015260098101546101808501526001600160a01b03600a820154166101a0850152016123bb565b6101c0820152604051918291602083526101c061209e612086612019612003611fed86516101e060208b01526102008a01906121cc565b6020870151898203601f190160408b01526121cc565b6040860151888203601f190160608a01526121cc565b61202b606086015160808901906121f1565b61203d608086015160a08901906121fe565b60a085015160c088015260c0850151151560e088015260e085015115156101008801526101008501511515610120880152610120850151601f198883030161014089015261220b565b610140840151868203601f190161016088015261220b565b916101608101516101808601526101808101516101a08601526001600160a01b036101a082015116828601520151601f19848303016101e08501526121cc565b6101e0810190811067ffffffffffffffff82111761122657604052565b60e0810190811067ffffffffffffffff82111761122657604052565b6040810190811067ffffffffffffffff82111761122657604052565b90601f8019910116810190811067ffffffffffffffff82111761122657604052565b81601f8201121561020f5780359067ffffffffffffffff8211611226576040519261218a601f8401601f191660200185612133565b8284526020838301011161020f57815f926020809301838601378301015290565b5f5b8381106121bc5750505f910152565b81810151838201526020016121ad565b906020916121e5815180928185528580860191016121ab565b601f01601f1916010190565b9060058210156101a85752565b9060048210156101a85752565b908082519081815260208091019281808460051b8301019501935f915b8483106122385750505050505090565b9091929394958480612256600193601f198682030187528a516121cc565b9801930193019194939290612228565b3590811515820361020f57565b67ffffffffffffffff81116112265760051b60200190565b9080601f8301121561020f578135906122a382612273565b926122b16040519485612133565b828452602092838086019160051b8301019280841161020f57848301915b8483106122df5750505050505090565b823567ffffffffffffffff811161020f57869161230184848094890101612155565b8152019201916122cf565b602080820190808352835180925260408301928160408460051b8301019501935f915b84831061233f5750505050505090565b909192939495848061235d600193603f198682030187528a516121cc565b980193019301919493929061232f565b600435906001600160a01b038216820361020f57565b90600182811c921680156123b1575b602083101461239d57565b634e487b7160e01b5f52602260045260245ffd5b91607f1691612392565b9060405191825f8254926123ce84612383565b9081845260019485811690815f1461243957506001146123f9575b50506123f792500383612133565b565b909391505f52602090815f20935f915b8183106124215750506123f793508201015f806123e9565b85548884018501529485019487945091830191612409565b9150506123f794506020925060ff191682840152151560051b8201015f806123e9565b60058110156101a8575f52600560205260405f2090565b6006548110156124a85760065f527ff652222313e28459528d920b65115c16c04f3efc82aaedc97be59f3f377c0d3f01905f90565b634e487b7160e01b5f52603260045260245ffd5b80548210156124a8575f5260205f2001905f90565b90611213576124df906123bb565b90565b156124e957565b606460405162461bcd60e51b815260206004820152601760248201527f4e6f7420617574686f72697a656420746f2077726974650000000000000000006044820152fd5b1561253457565b606460405162461bcd60e51b815260206004820152601b60248201527f496e76616c69642063726564656e7469616c2063617465676f727900000000006044820152fd5b6040519061258582612117565b601082527f63726564656e7469616c547970654964000000000000000000000000000000006020830152565b60058210156101a85752565b8181106125c8575050565b5f81556001016125bd565b919091825167ffffffffffffffff8111611226576125f18254612383565b601f8111612695575b50602080601f83116001146126355750819293945f9261262a575b50508160011b915f199060031b1c1916179055565b015190505f80612615565b90601f19831695845f52825f20925f905b88821061267d57505083600195969710612665575b505050811b019055565b01515f1960f88460031b161c191690555f808061265b565b80600185968294968601518155019501930190612646565b6126c090835f5260205f20601f840160051c810191602085106126c6575b601f0160051c01906125bd565b5f6125fa565b90915081906126b3565b9060048110156101a85761ff0082549160081b169061ff001916179055565b612707906020604051928284809451938492016121ab565b810103902090565b60025f541461271e5760025f55565b606460405162461bcd60e51b815260206004820152601f60248201527f5265656e7472616e637947756172643a207265656e7472616e742063616c6c006044820152fd5b1561276957565b606460405162461bcd60e51b815260206004820152601960248201527f43726564656e7469616c2074797065206e6f7420666f756e64000000000000006044820152fd5b600654906127ba82612273565b916127c86040519384612133565b80835260065f90815260207ff652222313e28459528d920b65115c16c04f3efc82aaedc97be59f3f377c0d3f8186015b848410612806575050505050565b6001838192612814856123bb565b8152019201930192906127f8565b90815461282e81612273565b9261283c6040519485612133565b8184525f90815260208082208186015b84841061285a575050505050565b6001838192612868856123bb565b81520192019301929061284c565b6040519061288382612117565b600682527f77726974657200000000000000000000000000000000000000000000000000006020830152565b5f1981146128bd5760010190565b634e487b7160e01b5f52601160045260245ffd5b156128d95750565b6128fd9060405191829162461bcd60e51b83526020600484015260248301906121cc565b0390fd5b906001600160a01b036123f7926129736036604051809567024b73b30b634b2160c51b602083015261293d8151809260206028860191016121ab565b81017f3a207a65726f20616464726573730000000000000000000000000000000000006028820152036016810186520184612133565b1615156128d1565b9060206129f960396123f79461010081511515916129fe60405167024b73b30b634b2160c51b9485898301526129f96036838c6129c381519d8e92019d8e60288501906121ab565b81017f3a20656d70747920737472696e670000000000000000000000000000000000006028820152036016810185520183612133565b6128d1565b51111593612a1d604051968793602085015251809260288501906121ab565b81017f3a20737472696e6720746f6f206c6f6e670000000000000000000000000000006028820152036019810185520183612133565b906123f791612abd603a604051809467024b73b30b634b2160c51b6020830152612a878151809260206028860191016121ab565b81017f3a206d75737420626520706f7369746976650000000000000000000000000000602882015203601a810185520183612133565b15156128d156fea26469706673582212208e81fceb0fee81ffdb56c4a1fa4deb3b1c884fc8194768a52026d5578fb05a9d64736f6c63430008140033a66cc928b5edb82af9bd49922954155ab7b0942694bea4ce44661d9a8736c688",
  "linkReferences": {},
  "deployedLinkReferences": {}
}