{
  "_format": "hh-sol-artifact-1",
  "contractName": "AuditLogStorage",
  "sourceName": "contracts/storage/AuditLogStorage.sol",
  "abi": [
    {
      "inputs": [],
      "stateMutability": "nonpayable",
      "type": "constructor"
    },
    {
      "anonymous": false,
      "inputs": [
        {
          "indexed": false,
          "internalType": "string",
          "name": "field",
          "type": "string"
        },
        {
          "indexed": false,
          "internalType": "uint256",
          "name": "oldValue",
          "type": "uint256"
        },
        {
          "indexed": false,
          "internalType": "uint256",
          "name": "newValue",
          "type": "uint256"
        }
      ],
      "name": "AuditConfigUpdated",
      "type": "event"
    },
    {
      "anonymous": false,
      "inputs": [
        {
          "indexed": true,
          "internalType": "address",
          "name": "user",
          "type": "address"
        },
        {
          "indexed": false,
          "internalType": "string",
          "name": "action",
          "type": "string"
        },
        {
          "indexed": false,
          "internalType": "string",
          "name": "tenantId",
          "type": "string"
        },
        {
          "indexed": false,
          "internalType": "string",
          "name": "jurisdiction",
          "type": "string"
        },
        {
          "indexed": false,
          "internalType": "uint256",
          "name": "timestamp",
          "type": "uint256"
        },
        {
          "indexed": false,
          "internalType": "address",
          "name": "actor",
          "type": "address"
        }
      ],
      "name": "AuditLogCreated",
      "type": "event"
    },
    {
      "anonymous": false,
      "inputs": [
        {
          "indexed": true,
          "internalType": "address",
          "name": "user",
          "type": "address"
        },
        {
          "indexed": false,
          "internalType": "string",
          "name": "reason",
          "type": "string"
        }
      ],
      "name": "AuditLogsCleared",
      "type": "event"
    },
    {
      "anonymous": false,
      "inputs": [
        {
          "indexed": true,
          "internalType": "address",
          "name": "writer",
          "type": "address"
        },
        {
          "indexed": false,
          "internalType": "bool",
          "name": "authorized",
          "type": "bool"
        }
      ],
      "name": "AuthorizedWriterUpdated",
      "type": "event"
    },
    {
      "inputs": [],
      "name": "CONTRACT_NAME",
      "outputs": [
        {
          "internalType": "string",
          "name": "",
          "type": "string"
        }
      ],
      "stateMutability": "view",
      "type": "function"
    },
    {
      "inputs": [],
      "name": "VERSION",
      "outputs": [
        {
          "internalType": "uint256",
          "name": "",
          "type": "uint256"
        }
      ],
      "stateMutability": "view",
      "type": "function"
    },
    {
      "inputs": [
        {
          "internalType": "string",
          "name": "",
          "type": "string"
        }
      ],
      "name": "actionAuditCount",
      "outputs": [
        {
          "internalType": "uint256",
          "name": "",
          "type": "uint256"
        }
      ],
      "stateMutability": "view",
      "type": "function"
    },
    {
      "inputs": [
        {
          "internalType": "string",
          "name": "",
          "type": "string"
        },
        {
          "internalType": "uint256",
          "name": "",
          "type": "uint256"
        }
      ],
      "name": "actionAuditLogs",
      "outputs": [
        {
          "internalType": "string",
          "name": "action",
          "type": "string"
        },
        {
          "internalType": "string",
          "name": "details",
          "type": "string"
        },
        {
          "internalType": "uint256",
          "name": "timestamp",
          "type": "uint256"
        },
        {
          "internalType": "address",
          "name": "actor",
          "type": "address"
        },
        {
          "internalType": "string",
          "name": "tenantId",
          "type": "string"
        },
        {
          "internalType": "string",
          "name": "jurisdiction",
          "type": "string"
        },
        {
          "internalType": "string",
          "name": "metadata",
          "type": "string"
        }
      ],
      "stateMutability": "view",
      "type": "function"
    },
    {
      "inputs": [],
      "name": "auditConfig",
      "outputs": [
        {
          "internalType": "uint256",
          "name": "maxEntriesPerUser",
          "type": "uint256"
        },
        {
          "internalType": "uint256",
          "name": "maxEntriesPerTenant",
          "type": "uint256"
        },
        {
          "internalType": "uint256",
          "name": "maxEntriesPerJurisdiction",
          "type": "uint256"
        },
        {
          "internalType": "bool",
          "name": "enableMetadata",
          "type": "bool"
        },
        {
          "internalType": "uint256",
          "name": "retentionPeriod",
          "type": "uint256"
        }
      ],
      "stateMutability": "view",
      "type": "function"
    },
    {
      "inputs": [
        {
          "internalType": "address",
          "name": "",
          "type": "address"
        }
      ],
      "name": "authorizedWriters",
      "outputs": [
        {
          "internalType": "bool",
          "name": "",
          "type": "bool"
        }
      ],
      "stateMutability": "view",
      "type": "function"
    },
    {
      "inputs": [
        {
          "internalType": "address",
          "name": "user",
          "type": "address"
        }
      ],
      "name": "clearOldAuditLogs",
      "outputs": [],
      "stateMutability": "nonpayable",
      "type": "function"
    },
    {
      "inputs": [
        {
          "internalType": "address",
          "name": "user",
          "type": "address"
        },
        {
          "internalType": "string",
          "name": "reason",
          "type": "string"
        }
      ],
      "name": "clearUserAuditLogs",
      "outputs": [],
      "stateMutability": "nonpayable",
      "type": "function"
    },
    {
      "inputs": [
        {
          "internalType": "address",
          "name": "user",
          "type": "address"
        },
        {
          "internalType": "string",
          "name": "action",
          "type": "string"
        },
        {
          "internalType": "string",
          "name": "details",
          "type": "string"
        },
        {
          "internalType": "string",
          "name": "tenantId",
          "type": "string"
        },
        {
          "internalType": "string",
          "name": "jurisdiction",
          "type": "string"
        },
        {
          "internalType": "string",
          "name": "metadata",
          "type": "string"
        }
      ],
      "name": "createAuditLog",
      "outputs": [],
      "stateMutability": "nonpayable",
      "type": "function"
    },
    {
      "inputs": [
        {
          "internalType": "address",
          "name": "user",
          "type": "address"
        },
        {
          "internalType": "string",
          "name": "action",
          "type": "string"
        },
        {
          "internalType": "string",
          "name": "details",
          "type": "string"
        },
        {
          "internalType": "string",
          "name": "tenantId",
          "type": "string"
        },
        {
          "internalType": "string",
          "name": "jurisdiction",
          "type": "string"
        }
      ],
      "name": "createSimpleAuditLog",
      "outputs": [],
      "stateMutability": "nonpayable",
      "type": "function"
    },
    {
      "inputs": [
        {
          "internalType": "string",
          "name": "action",
          "type": "string"
        }
      ],
      "name": "getActionAuditCount",
      "outputs": [
        {
          "internalType": "uint256",
          "name": "",
          "type": "uint256"
        }
      ],
      "stateMutability": "view",
      "type": "function"
    },
    {
      "inputs": [
        {
          "internalType": "string",
          "name": "action",
          "type": "string"
        }
      ],
      "name": "getActionAuditLogs",
      "outputs": [
        {
          "components": [
            {
              "internalType": "string",
              "name": "action",
              "type": "string"
            },
            {
              "internalType": "string",
              "name": "details",
              "type": "string"
            },
            {
              "internalType": "uint256",
              "name": "timestamp",
              "type": "uint256"
            },
            {
              "internalType": "address",
              "name": "actor",
              "type": "address"
            },
            {
              "internalType": "string",
              "name": "tenantId",
              "type": "string"
            },
            {
              "internalType": "string",
              "name": "jurisdiction",
              "type": "string"
            },
            {
              "internalType": "string",
              "name": "metadata",
              "type": "string"
            }
          ],
          "internalType": "struct AuditLogStorage.AuditEntry[]",
          "name": "",
          "type": "tuple[]"
        }
      ],
      "stateMutability": "view",
      "type": "function"
    },
    {
      "inputs": [],
      "name": "getAuditConfig",
      "outputs": [
        {
          "components": [
            {
              "internalType": "uint256",
              "name": "maxEntriesPerUser",
              "type": "uint256"
            },
            {
              "internalType": "uint256",
              "name": "maxEntriesPerTenant",
              "type": "uint256"
            },
            {
              "internalType": "uint256",
              "name": "maxEntriesPerJurisdiction",
              "type": "uint256"
            },
            {
              "internalType": "bool",
              "name": "enableMetadata",
              "type": "bool"
            },
            {
              "internalType": "uint256",
              "name": "retentionPeriod",
              "type": "uint256"
            }
          ],
          "internalType": "struct AuditLogStorage.AuditConfig",
          "name": "",
          "type": "tuple"
        }
      ],
      "stateMutability": "view",
      "type": "function"
    },
    {
      "inputs": [],
      "name": "getAuditStatistics",
      "outputs": [
        {
          "internalType": "uint256",
          "name": "userCount",
          "type": "uint256"
        },
        {
          "internalType": "uint256",
          "name": "tenantCount",
          "type": "uint256"
        },
        {
          "internalType": "uint256",
          "name": "jurisdictionCount",
          "type": "uint256"
        },
        {
          "internalType": "uint256",
          "name": "actionCount",
          "type": "uint256"
        }
      ],
      "stateMutability": "view",
      "type": "function"
    },
    {
      "inputs": [
        {
          "internalType": "string",
          "name": "jurisdiction",
          "type": "string"
        }
      ],
      "name": "getJurisdictionAuditCount",
      "outputs": [
        {
          "internalType": "uint256",
          "name": "",
          "type": "uint256"
        }
      ],
      "stateMutability": "view",
      "type": "function"
    },
    {
      "inputs": [
        {
          "internalType": "string",
          "name": "jurisdiction",
          "type": "string"
        }
      ],
      "name": "getJurisdictionAuditLogs",
      "outputs": [
        {
          "components": [
            {
              "internalType": "string",
              "name": "action",
              "type": "string"
            },
            {
              "internalType": "string",
              "name": "details",
              "type": "string"
            },
            {
              "internalType": "uint256",
              "name": "timestamp",
              "type": "uint256"
            },
            {
              "internalType": "address",
              "name": "actor",
              "type": "address"
            },
            {
              "internalType": "string",
              "name": "tenantId",
              "type": "string"
            },
            {
              "internalType": "string",
              "name": "jurisdiction",
              "type": "string"
            },
            {
              "internalType": "string",
              "name": "metadata",
              "type": "string"
            }
          ],
          "internalType": "struct AuditLogStorage.AuditEntry[]",
          "name": "",
          "type": "tuple[]"
        }
      ],
      "stateMutability": "view",
      "type": "function"
    },
    {
      "inputs": [
        {
          "internalType": "address",
          "name": "user",
          "type": "address"
        },
        {
          "internalType": "uint256",
          "name": "count",
          "type": "uint256"
        }
      ],
      "name": "getRecentUserAuditLogs",
      "outputs": [
        {
          "components": [
            {
              "internalType": "string",
              "name": "action",
              "type": "string"
            },
            {
              "internalType": "string",
              "name": "details",
              "type": "string"
            },
            {
              "internalType": "uint256",
              "name": "timestamp",
              "type": "uint256"
            },
            {
              "internalType": "address",
              "name": "actor",
              "type": "address"
            },
            {
              "internalType": "string",
              "name": "tenantId",
              "type": "string"
            },
            {
              "internalType": "string",
              "name": "jurisdiction",
              "type": "string"
            },
            {
              "internalType": "string",
              "name": "metadata",
              "type": "string"
            }
          ],
          "internalType": "struct AuditLogStorage.AuditEntry[]",
          "name": "",
          "type": "tuple[]"
        }
      ],
      "stateMutability": "view",
      "type": "function"
    },
    {
      "inputs": [
        {
          "internalType": "string",
          "name": "tenantId",
          "type": "string"
        }
      ],
      "name": "getTenantAuditCount",
      "outputs": [
        {
          "internalType": "uint256",
          "name": "",
          "type": "uint256"
        }
      ],
      "stateMutability": "view",
      "type": "function"
    },
    {
      "inputs": [
        {
          "internalType": "string",
          "name": "tenantId",
          "type": "string"
        }
      ],
      "name": "getTenantAuditLogs",
      "outputs": [
        {
          "components": [
            {
              "internalType": "string",
              "name": "action",
              "type": "string"
            },
            {
              "internalType": "string",
              "name": "details",
              "type": "string"
            },
            {
              "internalType": "uint256",
              "name": "timestamp",
              "type": "uint256"
            },
            {
              "internalType": "address",
              "name": "actor",
              "type": "address"
            },
            {
              "internalType": "string",
              "name": "tenantId",
              "type": "string"
            },
            {
              "internalType": "string",
              "name": "jurisdiction",
              "type": "string"
            },
            {
              "internalType": "string",
              "name": "metadata",
              "type": "string"
            }
          ],
          "internalType": "struct AuditLogStorage.AuditEntry[]",
          "name": "",
          "type": "tuple[]"
        }
      ],
      "stateMutability": "view",
      "type": "function"
    },
    {
      "inputs": [
        {
          "internalType": "address",
          "name": "user",
          "type": "address"
        }
      ],
      "name": "getUserAuditCount",
      "outputs": [
        {
          "internalType": "uint256",
          "name": "",
          "type": "uint256"
        }
      ],
      "stateMutability": "view",
      "type": "function"
    },
    {
      "inputs": [
        {
          "internalType": "address",
          "name": "user",
          "type": "address"
        }
      ],
      "name": "getUserAuditLogs",
      "outputs": [
        {
          "components": [
            {
              "internalType": "string",
              "name": "action",
              "type": "string"
            },
            {
              "internalType": "string",
              "name": "details",
              "type": "string"
            },
            {
              "internalType": "uint256",
              "name": "timestamp",
              "type": "uint256"
            },
            {
              "internalType": "address",
              "name": "actor",
              "type": "address"
            },
            {
              "internalType": "string",
              "name": "tenantId",
              "type": "string"
            },
            {
              "internalType": "string",
              "name": "jurisdiction",
              "type": "string"
            },
            {
              "internalType": "string",
              "name": "metadata",
              "type": "string"
            }
          ],
          "internalType": "struct AuditLogStorage.AuditEntry[]",
          "name": "",
          "type": "tuple[]"
        }
      ],
      "stateMutability": "view",
      "type": "function"
    },
    {
      "inputs": [
        {
          "internalType": "address",
          "name": "writer",
          "type": "address"
        }
      ],
      "name": "isAuthorizedWriter",
      "outputs": [
        {
          "internalType": "bool",
          "name": "",
          "type": "bool"
        }
      ],
      "stateMutability": "view",
      "type": "function"
    },
    {
      "inputs": [
        {
          "internalType": "string",
          "name": "",
          "type": "string"
        }
      ],
      "name": "jurisdictionAuditCount",
      "outputs": [
        {
          "internalType": "uint256",
          "name": "",
          "type": "uint256"
        }
      ],
      "stateMutability": "view",
      "type": "function"
    },
    {
      "inputs": [
        {
          "internalType": "string",
          "name": "",
          "type": "string"
        },
        {
          "internalType": "uint256",
          "name": "",
          "type": "uint256"
        }
      ],
      "name": "jurisdictionAuditLogs",
      "outputs": [
        {
          "internalType": "string",
          "name": "action",
          "type": "string"
        },
        {
          "internalType": "string",
          "name": "details",
          "type": "string"
        },
        {
          "internalType": "uint256",
          "name": "timestamp",
          "type": "uint256"
        },
        {
          "internalType": "address",
          "name": "actor",
          "type": "address"
        },
        {
          "internalType": "string",
          "name": "tenantId",
          "type": "string"
        },
        {
          "internalType": "string",
          "name": "jurisdiction",
          "type": "string"
        },
        {
          "internalType": "string",
          "name": "metadata",
          "type": "string"
        }
      ],
      "stateMutability": "view",
      "type": "function"
    },
    {
      "inputs": [],
      "name": "owner",
      "outputs": [
        {
          "internalType": "address",
          "name": "",
          "type": "address"
        }
      ],
      "stateMutability": "view",
      "type": "function"
    },
    {
      "inputs": [
        {
          "internalType": "address",
          "name": "writer",
          "type": "address"
        },
        {
          "internalType": "bool",
          "name": "authorized",
          "type": "bool"
        }
      ],
      "name": "setAuthorizedWriter",
      "outputs": [],
      "stateMutability": "nonpayable",
      "type": "function"
    },
    {
      "inputs": [
        {
          "internalType": "string",
          "name": "",
          "type": "string"
        }
      ],
      "name": "tenantAuditCount",
      "outputs": [
        {
          "internalType": "uint256",
          "name": "",
          "type": "uint256"
        }
      ],
      "stateMutability": "view",
      "type": "function"
    },
    {
      "inputs": [
        {
          "internalType": "string",
          "name": "",
          "type": "string"
        },
        {
          "internalType": "uint256",
          "name": "",
          "type": "uint256"
        }
      ],
      "name": "tenantAuditLogs",
      "outputs": [
        {
          "internalType": "string",
          "name": "action",
          "type": "string"
        },
        {
          "internalType": "string",
          "name": "details",
          "type": "string"
        },
        {
          "internalType": "uint256",
          "name": "timestamp",
          "type": "uint256"
        },
        {
          "internalType": "address",
          "name": "actor",
          "type": "address"
        },
        {
          "internalType": "string",
          "name": "tenantId",
          "type": "string"
        },
        {
          "internalType": "string",
          "name": "jurisdiction",
          "type": "string"
        },
        {
          "internalType": "string",
          "name": "metadata",
          "type": "string"
        }
      ],
      "stateMutability": "view",
      "type": "function"
    },
    {
      "inputs": [
        {
          "internalType": "uint256",
          "name": "_maxEntriesPerUser",
          "type": "uint256"
        },
        {
          "internalType": "uint256",
          "name": "_maxEntriesPerTenant",
          "type": "uint256"
        },
        {
          "internalType": "uint256",
          "name": "_maxEntriesPerJurisdiction",
          "type": "uint256"
        },
        {
          "internalType": "bool",
          "name": "_enableMetadata",
          "type": "bool"
        },
        {
          "internalType": "uint256",
          "name": "_retentionPeriod",
          "type": "uint256"
        }
      ],
      "name": "updateAuditConfig",
      "outputs": [],
      "stateMutability": "nonpayable",
      "type": "function"
    },
    {
      "inputs": [
        {
          "internalType": "address",
          "name": "",
          "type": "address"
        }
      ],
      "name": "userAuditCount",
      "outputs": [
        {
          "internalType": "uint256",
          "name": "",
          "type": "uint256"
        }
      ],
      "stateMutability": "view",
      "type": "function"
    },
    {
      "inputs": [
        {
          "internalType": "address",
          "name": "",
          "type": "address"
        },
        {
          "internalType": "uint256",
          "name": "",
          "type": "uint256"
        }
      ],
      "name": "userAuditLogs",
      "outputs": [
        {
          "internalType": "string",
          "name": "action",
          "type": "string"
        },
        {
          "internalType": "string",
          "name": "details",
          "type": "string"
        },
        {
          "internalType": "uint256",
          "name": "timestamp",
          "type": "uint256"
        },
        {
          "internalType": "address",
          "name": "actor",
          "type": "address"
        },
        {
          "internalType": "string",
          "name": "tenantId",
          "type": "string"
        },
        {
          "internalType": "string",
          "name": "jurisdiction",
          "type": "string"
        },
        {
          "internalType": "string",
          "name": "metadata",
          "type": "string"
        }
      ],
      "stateMutability": "view",
      "type": "function"
    }
  ],
  "bytecode": "0x6080346100b65760015f818155600b80546001600160a01b031916339081179091558152600a60205260408120805460ff19908116909317905560a08301929091906001600160401b038411818510176100a257600192936040526103e8808252612710908160208401528560806113889485604082015287606082015201526005556006556007556008541617600855600955604051612f2790816100bb8239f35b634e487b7160e01b83526041600452602483fd5b5f80fdfe60406080815260049081361015610014575f80fd5b5f91823560e01c908162d41488146113385781630ded67f7146112ed5781631120e14a146112ed578163169d5d6d146101925781631ec17f3c146112a75781632169b81f14610e0d578163286721aa1461120f5781633757a47c146110f55781633be2040014610fdb5781633e36b38014610e84578163401417fb14610e5857816343b76d3c14610e0d5781634dac955d14610cb9578163526241a814610c7d578163542a086c14610ba15781635a0e98f0146109a8578163614d08f81461094b5781636f19fe57146108515781637721c220146107415781638da5cb5b1461071957816390486d05146105ff57816399ca8a28146105c7578163ab1c155314610590578163ad6e823b14610538578163ae02f234146104f6578163ba8243bd146104ad578163cb5f1ab014610476578163dcab700b1461029e578163e21ba52f146101f2578163e25f12b114610192575063ffa1ad7414610174575f80fd5b3461018e578160031936011261018e576020905160018152f35b5080fd5b8284346101ef5760203660031901126101ef5782359067ffffffffffffffff82116101ef575060206101cb81946101dd93369101611633565b8184519382858094519384920161157a565b8101600d815203019020549051908152f35b80fd5b8284346101ef5760209061021c61020836611767565b93908186519382858094519384920161157a565b810160038152030190209081548310156101ef575061029a9161023e916113ce565b5091610249836114d9565b92610256600182016114d9565b946002820154906102766001600160a01b036003850154169184016114d9565b9161028f6006610288600587016114d9565b95016114d9565b9451978897886115c0565b0390f35b919050346104725760c0366003190112610472576102ba6113b4565b9167ffffffffffffffff9060243582811161046e576102dc9036908301611633565b9160443581811161046a576102f49036908401611633565b936064358281116104665761030c9036908501611633565b90608435838111610462576103249036908601611633565b9360a435938411610462577fbd900794d6f303b67a9115ea24684c3e61cc37f1cff5332dd856014aa8e7cd87966103646103f39261040196369101611633565b338b52600a60205260ff848c2054168015610449575b61038390611837565b61038f88511515611882565b60085460ff1615610435575b8351916103a783611463565b888352602083015242848301523360608301528460808301528660a083015260c08201526001600160a01b03891698818a610425575b50508351610416575b8551610407575b866126d6565b5193849333924292866118cd565b0390a280f35b6104118187612531565b6103ed565b6104208185612288565b6103e6565b61042e91612029565b5f816103dd565b5082516104418161147f565b8a815261039b565b506103836001600160a01b03600b54163314905061037a565b8880fd5b8780fd5b8680fd5b8580fd5b8280fd5b8284346101ef5760209061048c61020836611767565b8101878152030190209081548310156101ef575061029a9161023e916113ce565b50503461018e578060031936011261018e5761029a906104eb6104ce6113b4565b6104e26001600160a01b03821615156127b8565b60243590612868565b905191829182611689565b50503461018e57602036600319011261018e57806020926001600160a01b0361051d6113b4565b166105298115156127b8565b8152600c845220549051908152f35b50503461018e57602036600319011261018e57906020916001600160a01b039160ff82846105646113b4565b1692838152600a8752205416928315610582575b5050519015158152f35b600b54161491505f80610578565b50503461018e57602036600319011261018e57806020926001600160a01b036105b76113b4565b168152600c845220549051908152f35b8284346101ef576020906105dd61020836611767565b810160028152030190209081548310156101ef575061029a9161023e916113ce565b8391503461018e57602091826003193601126101ef57813567ffffffffffffffff811161018e576106339036908401611633565b92806106478651958681519384920161157a565b8401938181600396878152030190209182549361066385612803565b95610670885197886114b7565b85875283870194835283832092945b8686106106935788518061029a8a82611689565b6007856001928b516106a481611463565b6106ad886114d9565b81526106ba8589016114d9565b8382015260028801548d8201526001600160a01b03868901541660608201526106e48789016114d9565b60808201526106f5600589016114d9565b60a0820152610706600689016114d9565b60c082015281520194019501949261067f565b50503461018e578160031936011261018e576020906001600160a01b03600b54169051908152f35b9050346104725760a036600319011261047257356024356064359081151580920361084d5760a09384936107816001600160a01b03600b54163314611799565b6005549060065494816005558460065560443560075560ff80196008541691161760085560843560095582519160608352601160608401527f6d6178456e74726965735065725573657200000000000000000000000000000060808401526020830152828201527f1706acc6c844129455c964fe997e9536847604276e894219638a084a7bb91a25958691a180519260608452601360608501527f6d6178456e747269657350657254656e616e740000000000000000000000000060808501526020840152820152a180f35b8480fd5b83833461018e5760209283600319360112610472576001600160a01b0392836108786113b4565b166108848115156127b8565b81526001948581528382209182549361089c85612803565b966108a9875198896114b7565b85885283880194835283832092945b8686106108cc5787518061029a8b82611689565b6007858b928a516108dc81611463565b6108e5886114d9565b81526108f28589016114d9565b8382015260028801548c8201528560038901541660608201526109168789016114d9565b6080820152610927600589016114d9565b60a0820152610938600689016114d9565b60c08201528152019401950194926108b8565b50503461018e578160031936011261018e57805161029a9161096c8261149b565b600f82527f41756469744c6f6753746f72616765000000000000000000000000000000000060208301525191829160208352602083019061159b565b9190503461047257602080600319360112610b9d576109c56113b4565b6001600160a01b036109dc81600b54163314611799565b6109e46117e4565b6009548015610b5b576109f79042611978565b9116908115610afe578186526001948584528487209081549687805b610a2e57505050505090600c918552528220555b6001815580f35b5f19818101828111610aeb57866002610a4783896113ce565b50015410610a61575b5050610a5b90612d39565b80610a13565b919991835b610a8a575b5050610a82610a5b91610a7d86611bb2565b612d39565b98905f610a50565b818301838111610ad357811015610ae657838101808211610ad3578491610ac8610ab7610acd938a6113ce565b50610ac2838b6113ce565b90611ac6565b611956565b90610a66565b60248d601188634e487b7160e01b835252fd5b610a6b565b60248c601187634e487b7160e01b835252fd5b5092506060907f526574656e74696f6e20706572696f6420636c65616e757000000000000000008360187f5a578573209b6a465b36c51d483397c15a0a061b007d3ec443d34c4e585a9db1955193808552840152820152a2610a27565b6064868587519162461bcd60e51b8352820152601860248201527f526574656e74696f6e20706572696f64206e6f742073657400000000000000006044820152fd5b8380fd5b91905034610472578060031936011261047257610bbc6113b4565b906024359182151580930361084d576001600160a01b0390610be382600b54163314611799565b610beb6117e4565b16928315610c3b57507e8ebc621f24e0e9d1fd4ee2f7df9bb80c8d61ee30a9167a4fee6cefcf8c021e91602091848652600a835280862060ff1981541660ff841617905551908152a26001815580f35b6020606492519162461bcd60e51b8352820152601660248201527f496e76616c6964207772697465722061646472657373000000000000000000006044820152fd5b50503461018e57602036600319011261018e5760ff816020936001600160a01b03610ca66113b4565b168152600a855220541690519015158152f35b9050346104725760a036600319011261047257610cd46113b4565b9167ffffffffffffffff9060243582811161046e57610cf69036908501611633565b9160443581811161046a57610d0e9036908601611633565b9160643582811161046657610d269036908701611633565b90608435928311610466576103f3610d657fbd900794d6f303b67a9115ea24684c3e61cc37f1cff5332dd856014aa8e7cd879761040195369101611633565b94338a52600a60205260ff838b2054168015610df4575b610d8590611837565b610d9187511515611882565b825190610d9d82611463565b878252602082015242838201523360608201528360808201528560a08201528251610dc78161147f565b8a815260c08201526001600160a01b03891698818a610425575050835161041657855161040757866126d6565b50610d856001600160a01b03600b541633149050610d7c565b8284346101ef5760203660031901126101ef5782359067ffffffffffffffff82116101ef575060206101cb8194610e4693369101611633565b8101600e815203019020549051908152f35b50503461018e578160031936011261018e57816080928251928184528160208501528301526060820152f35b91905034610472578060031936011261047257610e9f6113b4565b60243567ffffffffffffffff811161084d57610ebe9036908501611633565b906001600160a01b0390610ed782600b54163314611799565b1691610ee48315156127b8565b610eec6117e4565b828552600193846020528186209081549087835581610f56575b5050507f5a578573209b6a465b36c51d483397c15a0a061b007d3ec443d34c4e585a9db191610f4e91848752600c60205286818120555191829160208352602083019061159b565b0390a2815580f35b6007928284029284840403610fc857885260208820918201915b828110610f7d5750610f06565b80610f888592611b6a565b610f93898201611b6a565b896002820155896003820155610faa838201611b6a565b610fb660058201611b6a565b610fc260068201611b6a565b01610f70565b602489601184634e487b7160e01b835252fd5b905082346101ef57602090816003193601126101ef57823567ffffffffffffffff811161018e57826110166110289294939436908701611633565b8187519382858094519384920161157a565b8101868152030190209081549261103e84612803565b9461104b875196876114b7565b84865282860193825282822091935b85851061106e5787518061029a8982611689565b6007846001928a5161107f81611463565b611088876114d9565b81526110958588016114d9565b8382015260028701548c8201526001600160a01b0360038801541660608201526110c08688016114d9565b60808201526110d1600588016114d9565b60a08201526110e2600688016114d9565b60c082015281520193019401939161105a565b905082346101ef57602090816003193601126101ef57823567ffffffffffffffff811161018e576111299036908501611633565b918061113d8651948581519384920161157a565b8301928181600295868152030190209182549361115985612803565b95611166885197886114b7565b85875283870194835283832092945b8686106111895788518061029a8a82611689565b6007856001928b5161119a81611463565b6111a3886114d9565b81526111b08589016114d9565b83820152868801548d8201526001600160a01b0360038901541660608201526111da8689016114d9565b60808201526111eb600589016114d9565b60a08201526111fc600689016114d9565b60c0820152815201940195019492611175565b50503461018e578160031936011261018e5760a0916080825161123181611433565b82815282602082015282848201528260608201520152805161125281611433565b60055491828252600654906020830191825260075481840190815260ff600854169260608501931515845260806009549501948552825195865251602086015251908401525115156060830152516080820152f35b50503461018e578160031936011261018e5760a090600554906006549060075460ff60085416916009549381519586526020860152840152151560608301526080820152f35b8284346101ef5760203660031901126101ef5782359067ffffffffffffffff82116101ef575060206101cb819461132693369101611633565b8101600f815203019020549051908152f35b83833461018e578060031936011261018e576113526113b4565b91602435906001600160a01b03809416815260016020528281209081548310156101ef575061029a9291611385916113ce565b5061138f816114d9565b9361139c600183016114d9565b956102766002840154926003850154169184016114d9565b600435906001600160a01b03821682036113ca57565b5f80fd5b80548210156113e7575f52600760205f20910201905f90565b634e487b7160e01b5f52603260045260245ffd5b90600182811c92168015611429575b602083101461141557565b634e487b7160e01b5f52602260045260245ffd5b91607f169161140a565b60a0810190811067ffffffffffffffff82111761144f57604052565b634e487b7160e01b5f52604160045260245ffd5b60e0810190811067ffffffffffffffff82111761144f57604052565b6020810190811067ffffffffffffffff82111761144f57604052565b6040810190811067ffffffffffffffff82111761144f57604052565b90601f8019910116810190811067ffffffffffffffff82111761144f57604052565b9060405191825f8254926114ec846113fb565b9081845260019485811690815f146115575750600114611517575b5050611515925003836114b7565b565b909391505f52602090815f20935f915b81831061153f57505061151593508201015f80611507565b85548884018501529485019487945091830191611527565b91505061151594506020925060ff191682840152151560051b8201015f80611507565b5f5b83811061158b5750505f910152565b818101518382015260200161157c565b906020916115b48151809281855285808601910161157a565b601f01601f1916010190565b959290946001600160a01b03611622956115fb611614956115ed6116309c9a60e08d5260e08d019061159b565b908b820360208d015261159b565b9360408a0152166060880152868203608088015261159b565b9084820360a086015261159b565b9160c081840391015261159b565b90565b81601f820112156113ca5780359067ffffffffffffffff821161144f5760405192611668601f8401601f1916602001856114b7565b828452602083830101116113ca57815f926020809301838601378301015290565b602080820190808352835180925260409283810182858560051b8401019601945f925b8584106116bd575050505050505090565b909192939495968580611756600193603f198682030188528b516117436117306117026116f2845160e080885287019061159b565b878501518682038988015261159b565b8a8401518b86015260606001600160a01b03818601511690860152608080850151908683039087015261159b565b60a080840151908583039086015261159b565b9160c0809201519181840391015261159b565b9901940194019295949391906116ac565b60406003198201126113ca576004359067ffffffffffffffff82116113ca5761179291600401611633565b9060243590565b156117a057565b606460405162461bcd60e51b815260206004820152600a60248201527f4f6e6c79206f776e6572000000000000000000000000000000000000000000006044820152fd5b60025f54146117f35760025f55565b606460405162461bcd60e51b815260206004820152601f60248201527f5265656e7472616e637947756172643a207265656e7472616e742063616c6c006044820152fd5b1561183e57565b606460405162461bcd60e51b815260206004820152600e60248201527f4e6f7420617574686f72697a65640000000000000000000000000000000000006044820152fd5b1561188957565b606460405162461bcd60e51b815260206004820152600e60248201527f496e76616c696420616374696f6e0000000000000000000000000000000000006044820152fd5b939594906080936119036001600160a01b03946118f56119119460a08a5260a08a019061159b565b9088820360208a015261159b565b90868203604088015261159b565b95606085015216910152565b6040519061192a8261149b565b600d82527f7573657241756469744c6f6773000000000000000000000000000000000000006020830152565b5f1981146119645760010190565b634e487b7160e01b5f52601160045260245ffd5b9190820391821161196457565b9190820180921161196457565b81811061199d575050565b5f8155600101611992565b9190601f81116119b757505050565b611515925f5260205f20906020601f840160051c830193106119e1575b601f0160051c0190611992565b90915081906119d4565b90808214611ac2576119fd81546113fb565b9067ffffffffffffffff821161144f578190611a2382611a1d86546113fb565b866119a8565b5f90601f8311600114611a57575f92611a4c575b50508160011b915f199060031b1c1916179055565b015490505f80611a37565b81526020808220858352818320935090601f1985169083905b828210611aa9575050908460019594939210611a91575b505050811b019055565b01545f1960f88460031b161c191690555f8080611a87565b8495819295850154815560018091019601940190611a70565b5050565b90611b5757818103611ad6575050565b60068083611ae761151595856119eb565b611af760018201600186016119eb565b60028101546002850155600384016001600160a01b0360038301541673ffffffffffffffffffffffffffffffffffffffff19825416179055611b3f60048201600486016119eb565b611b4f60058201600586016119eb565b0191016119eb565b634e487b7160e01b5f525f60045260245ffd5b611b7481546113fb565b9081611b7e575050565b81601f5f9311600114611b8f575055565b908083918252611bae601f60208420940160051c840160018501611992565b5555565b80548015611c14575f190190611bc882826113ce565b611b5757600681611bdb611c1193611b6a565b611be760018201611b6a565b5f60028201555f6003820155611bff60048201611b6a565b611c0b60058201611b6a565b01611b6a565b55565b634e487b7160e01b5f52603160045260245ffd5b80546801000000000000000081101561144f57611c4c9060019283820181556113ce565b611b5757825190815167ffffffffffffffff9283821161144f578190611c7682611a1d86546113fb565b602090601f8311600114611fca575f92611fbf575b50505f19600383901b1c191690841b1781555b828101602085015180519084821161144f578190611cc082611a1d86546113fb565b602090601f8311600114611f60575f92611f55575b50505f19600383901b1c191690851b1790555b604084015160028201556003908181016001600160a01b0360608701511673ffffffffffffffffffffffffffffffffffffffff1982541617905560048101608086015180519085821161144f578190611d4582611a1d86546113fb565b602090601f8311600114611ef7575f92611eec575b50505f1982861b1c191690861b1790555b6005810160a086015180519085821161144f57611d9282611d8c85546113fb565b856119a8565b602090601f8311600114611e835791806006949260c096945f92611e78575b50505f1982881b1c191690881b1790555b01940151805192831161144f57611de383611ddd87546113fb565b876119a8565b602090601f8411600114611e19579383949184925f95611e0e575b50501b925f19911b1c1916179055565b015193505f80611dfe565b9190601f19841692865f5284825f20945f5b88828210611e5f57505010611e46575b50505050811b019055565b01519060f8845f19921b161c191690555f808080611e3b565b8486015188559096019560209485019488935001611e2b565b015190505f80611db1565b879291601f19831691855f52815f20925f5b818110611ed457509160c09795939185600698969410611ebd575b505050811b019055611dc2565b01515f19838a1b60f8161c191690555f8080611eb0565b8284015185558b969094019360209384019301611e95565b015190505f80611d5a565b90889350601f19831691855f52815f20925f5b818110611f3d57508411611f26575b505050811b019055611d6b565b01515f1983881b60f8161c191690555f8080611f19565b8284015185558b969094019360209384019301611f0a565b015190505f80611cd5565b90879350601f19831691855f52815f20925f5b818110611fa757508411611f8f575b505050811b019055611ce8565b01515f1960f88460031b161c191690555f8080611f82565b8284015185558a969094019360209384019301611f73565b015190505f80611c8b565b90869350601f19831691855f52815f20925f5b81811061201157508411611ff9575b505050811b018155611c9e565b01515f1960f88460031b161c191690555f8080611fec565b82840151855589969094019360209384019301611fdd565b6001600160a01b039092919216915f928084526001602081815260409261205b8488205461205561191d565b90612dce565b808752828252838720546005541161222f576005545f19810190811161221b5761208d61208661191d565b8280612e57565b875b8181106121af575050908187939261151597985282825261210d858520546120b561191d565b906121066036895180947f43616e6e6f7420706f702066726f6d20656d7074792000000000000000000000898301526120f6815180928b868601910161157a565b81010360168101855201836114b7565b1515612d45565b80845282825261211e858520611bb2565b8084528282526121a68585205460055461213661191d565b916121a0603e8a5180956e021b0b73737ba10383ab9b4103a379608d1b8a83015261216a815180928c602f8601910161157a565b81017f3a2061727261792069732066756c6c0000000000000000000000000000000000602f82015203601e8101865201846114b7565b10612d45565b83525220611c28565b8481018082116122075790610ac88a610ac2838a6121f4612202978a86528c8c526121e6838720546121df61191d565b9083612d75565b8a86528c8c528286206113ce565b50938981528b8b52206113ce565b61208f565b60248a634e487b7160e01b81526011600452fd5b602488634e487b7160e01b81526011600452fd5b9061151595969291600c82528484206122488154611956565b905561211e565b6040519061225c8261149b565b600f82527f74656e616e7441756469744c6f677300000000000000000000000000000000006020830152565b60409081518151916020936122bd858301946122a581868861157a565b8401938681600296878152030190205461205561224f565b8051858184516122ce81838a61157a565b81018681520301902054600654116124c0576006545f198101908111611964576122f961208661224f565b5f805b828110612417575050509161240993918361237a611515989795518681855161232681838b61157a565b8101878152030190205461233861224f565b906121066036855180947f43616e6e6f7420706f702066726f6d20656d70747920000000000000000000008c8301526120f68c8251928391868601910161157a565b61239c81518681855161238e81838b61157a565b810187815203019020611bb2565b6123fa8151868185516123b081838b61157a565b810187815203019020546006546123c561224f565b916121a0603e865180956e021b0b73737ba10383ab9b4103a379608d1b8d83015261216a8d8251928391602f8601910161157a565b5194859384925192839161157a565b820190815203019020611c28565b600181018082116124ac5790610ac861247d6124a7936124596124478d8d8d8d8d5194859384925192839161157a565b820190815203019020546121df61224f565b61246f8c8c8b8b5193849283925192839161157a565b81018d8152030190206113ce565b50610ac2836124998d8d8d8d8d5194859384925192839161157a565b8201908152030190206113ce565b6122fc565b602483634e487b7160e01b81526011600452fd5b9161240993918361151597969451858184516124dd81838a61157a565b8101600d8152030190206124f18154611956565b905561239c565b604051906125058261149b565b601582527f6a7572697364696374696f6e41756469744c6f677300000000000000000000006020830152565b60409081518151916020936125668583019461254e81868861157a565b840193868160039687815203019020546120556124f8565b80518581845161257781838a61157a565b8101868152030190205460075411612665576007545f198101908111611964576125a26120866124f8565b5f805b82811061261e57505050916124099391836125e161151598979551868185516125cf81838b61157a565b810187815203019020546123386124f8565b6125f581518681855161238e81838b61157a565b6123fa81518681855161260981838b61157a565b810187815203019020546007546123c56124f8565b600181018082116124ac5790610ac861247d6126609361245961264e8d8d8d8d8d5194859384925192839161157a565b820190815203019020546121df6124f8565b6125a5565b91612409939183611515979694518581845161268281838a61157a565b8101600e8152030190206126968154611956565b90556125f5565b604051906126aa8261149b565b600f82527f616374696f6e41756469744c6f677300000000000000000000000000000000006020830152565b6127a0916040519161278f81519261270e6020958681818701976126fb81838b61157a565b810160048152030190205461205561269d565b61276e6040518681865161272381838b61157a565b8101600481520301902054606461273861269d565b916121a0603e60405180956e021b0b73737ba10383ab9b4103a379608d1b8d83015261216a8d8251928391602f8601910161157a565b6040518581855161278081838a61157a565b81016004815203019020611c28565b60405193849283925192839161157a565b8101600f8152030190206127b48154611956565b9055565b156127bf57565b606460405162461bcd60e51b815260206004820152601460248201527f496e76616c6964207573657220616464726573730000000000000000000000006044820152fd5b67ffffffffffffffff811161144f5760051b60200190565b604051906128288261149b565b600a82527f726563656e744c6f6773000000000000000000000000000000000000000000006020830152565b80518210156113e75760209160051b010190565b90604080516128768161149b565b6005918282526020906129286128ec612922603a858701967f636f756e7400000000000000000000000000000000000000000000000000000088528915159786519485927f496e76616c6964200000000000000000000000000000000000000000000000008a850152518092602885019061157a565b81017f3a206d75737420626520706f7369746976650000000000000000000000000000602882015203601a8101845201826114b7565b84612d45565b6001600160a01b03805f9716875260019081845282882080549161294b83612803565b976129588651998a6114b7565b838952868901928b52868b2091878c945b868610612cb857505050505050505083519261298c61298661191d565b85612dce565b83861015612cae5790612b9a612b8a612ae4612b41603f85612b468a98612af48b8f612a9a90612a947f6f73697469766520666f72200000000000000000000000000000000000000000612a8e604c8a87612a7e6129e861281b565b612a4584517f4d656d6f727920616c6c6f636174696f6e20746f6f206c6172676520666f722085820152612a3a868451968381870198612a2b818584018c61157a565b810103908101845201826114b7565b6101f48b1115612d45565b83519687947f4d656d6f727920616c6c6f636174696f6e2073697a65206d75737420626520708d8701528501525180928585019061157a565b810103602c8101845201826114b7565b86612d45565b8d611978565b9d8e6121a0603e612aa961191d565b9851857f537461727420696e646578206f7574206f6620626f756e647320666f7220000082978301528a519d8e918c019e8f8585019061157a565b810103601e8101865201846114b7565b8851907f436f756e74206d75737420626520706f73697469766520666f722000000000008c830152612b41603b838651612b31818484018d61157a565b810103601b8101855201836114b7565b612d45565b87612b518d8c611985565b11159387519586927f536c696365206578636565647320617272617920626f756e647320666f7220008c8501525180928585019061157a565b810103601f8101855201836114b7565b612ba386612803565b96612bb0825198896114b7565b868852601f19612bbf88612803565b0184825b828110612c7057505050612bdf612bd861281b565b8880612e57565b868110612bf0575050505050505090565b80612c3c612c01612c6b9388611985565b85855191612c0e8361149b565b600783527f616c6c4c6f67730000000000000000000000000000000000000000000000000089840152612d75565b612c4f612c498288611985565b88612854565b51612c5a828b612854565b52612c65818a612854565b50611956565b612bdf565b8451612c7b81611463565b60608082528084830152858783015285818301528060808301528060a083015260c082015282828d010152018590612bc3565b5050505091505090565b87916007918a51612cc881611463565b612cd1886114d9565b8152612cde8589016114d9565b8382015260028801548c820152856003890154166060820152612d03600489016114d9565b6080820152612d138789016114d9565b60a0820152612d24600689016114d9565b60c08201528152019401940193928890612969565b8015611964575f190190565b15612d4d5750565b612d719060405191829162461bcd60e51b835260206004840152602483019061159b565b0390fd5b9061151592916121a0603860405180957f496e646578206f7574206f6620626f756e647320666f722000000000000000006020830152612dbe815180926020868601910161157a565b81010360188101865201846114b7565b906101f461151592612e50603d60405180957f41727261792000000000000000000000000000000000000000000000000000006020830152612e1a81518092602060268601910161157a565b81017f2065786365656473206d6178696d756d206c656e677468000000000000000000602682015203601d8101865201846114b7565b1115612d45565b90612dbe91612e506038611515956040517f496e76616c696420697465726174696f6e20626f756e647320666f72200000006020820152612eb9825191603d816020860194612ea9818484018861157a565b810103601d8101835201906114b7565b6040519687927f546f6f206d616e7920697465726174696f6e7320666f7220000000000000000060208501525180928585019061157a56fea2646970667358221220450149a9f51270f7bb4fa1683bc0af8429a722004741331076f0a3fbeed97ada64736f6c63430008140033",
  "linkReferences": {},
  "deployedLinkReferences": {}
}