{
  "_format": "hh-sol-artifact-1",
  "contractName": "AuditLogStorage",
  "sourceName": "contracts/storage/AuditLogStorage.sol",
  "abi": [
    {
      "inputs": [],
      "stateMutability": "nonpayable",
      "type": "constructor"
    },
    {
      "anonymous": false,
      "inputs": [
        {
          "indexed": false,
          "internalType": "string",
          "name": "field",
          "type": "string"
        },
        {
          "indexed": false,
          "internalType": "uint256",
          "name": "oldValue",
          "type": "uint256"
        },
        {
          "indexed": false,
          "internalType": "uint256",
          "name": "newValue",
          "type": "uint256"
        }
      ],
      "name": "AuditConfigUpdated",
      "type": "event"
    },
    {
      "anonymous": false,
      "inputs": [
        {
          "indexed": true,
          "internalType": "address",
          "name": "user",
          "type": "address"
        },
        {
          "indexed": false,
          "internalType": "string",
          "name": "action",
          "type": "string"
        },
        {
          "indexed": false,
          "internalType": "string",
          "name": "tenantId",
          "type": "string"
        },
        {
          "indexed": false,
          "internalType": "string",
          "name": "jurisdiction",
          "type": "string"
        },
        {
          "indexed": false,
          "internalType": "uint256",
          "name": "timestamp",
          "type": "uint256"
        },
        {
          "indexed": false,
          "internalType": "address",
          "name": "actor",
          "type": "address"
        }
      ],
      "name": "AuditLogCreated",
      "type": "event"
    },
    {
      "anonymous": false,
      "inputs": [
        {
          "indexed": true,
          "internalType": "address",
          "name": "user",
          "type": "address"
        },
        {
          "indexed": false,
          "internalType": "string",
          "name": "reason",
          "type": "string"
        }
      ],
      "name": "AuditLogsCleared",
      "type": "event"
    },
    {
      "anonymous": false,
      "inputs": [
        {
          "indexed": true,
          "internalType": "address",
          "name": "writer",
          "type": "address"
        },
        {
          "indexed": false,
          "internalType": "bool",
          "name": "authorized",
          "type": "bool"
        }
      ],
      "name": "AuthorizedWriterUpdated",
      "type": "event"
    },
    {
      "inputs": [],
      "name": "CONTRACT_NAME",
      "outputs": [
        {
          "internalType": "string",
          "name": "",
          "type": "string"
        }
      ],
      "stateMutability": "view",
      "type": "function"
    },
    {
      "inputs": [],
      "name": "VERSION",
      "outputs": [
        {
          "internalType": "uint256",
          "name": "",
          "type": "uint256"
        }
      ],
      "stateMutability": "view",
      "type": "function"
    },
    {
      "inputs": [
        {
          "internalType": "string",
          "name": "",
          "type": "string"
        }
      ],
      "name": "actionAuditCount",
      "outputs": [
        {
          "internalType": "uint256",
          "name": "",
          "type": "uint256"
        }
      ],
      "stateMutability": "view",
      "type": "function"
    },
    {
      "inputs": [
        {
          "internalType": "string",
          "name": "",
          "type": "string"
        },
        {
          "internalType": "uint256",
          "name": "",
          "type": "uint256"
        }
      ],
      "name": "actionAuditLogs",
      "outputs": [
        {
          "internalType": "string",
          "name": "action",
          "type": "string"
        },
        {
          "internalType": "string",
          "name": "details",
          "type": "string"
        },
        {
          "internalType": "uint256",
          "name": "timestamp",
          "type": "uint256"
        },
        {
          "internalType": "address",
          "name": "actor",
          "type": "address"
        },
        {
          "internalType": "string",
          "name": "tenantId",
          "type": "string"
        },
        {
          "internalType": "string",
          "name": "jurisdiction",
          "type": "string"
        },
        {
          "internalType": "string",
          "name": "metadata",
          "type": "string"
        }
      ],
      "stateMutability": "view",
      "type": "function"
    },
    {
      "inputs": [],
      "name": "auditConfig",
      "outputs": [
        {
          "internalType": "uint256",
          "name": "maxEntriesPerUser",
          "type": "uint256"
        },
        {
          "internalType": "uint256",
          "name": "maxEntriesPerTenant",
          "type": "uint256"
        },
        {
          "internalType": "uint256",
          "name": "maxEntriesPerJurisdiction",
          "type": "uint256"
        },
        {
          "internalType": "bool",
          "name": "enableMetadata",
          "type": "bool"
        },
        {
          "internalType": "uint256",
          "name": "retentionPeriod",
          "type": "uint256"
        }
      ],
      "stateMutability": "view",
      "type": "function"
    },
    {
      "inputs": [
        {
          "internalType": "address",
          "name": "",
          "type": "address"
        }
      ],
      "name": "authorizedWriters",
      "outputs": [
        {
          "internalType": "bool",
          "name": "",
          "type": "bool"
        }
      ],
      "stateMutability": "view",
      "type": "function"
    },
    {
      "inputs": [
        {
          "internalType": "address",
          "name": "user",
          "type": "address"
        }
      ],
      "name": "clearOldAuditLogs",
      "outputs": [],
      "stateMutability": "nonpayable",
      "type": "function"
    },
    {
      "inputs": [
        {
          "internalType": "address",
          "name": "user",
          "type": "address"
        },
        {
          "internalType": "string",
          "name": "reason",
          "type": "string"
        }
      ],
      "name": "clearUserAuditLogs",
      "outputs": [],
      "stateMutability": "nonpayable",
      "type": "function"
    },
    {
      "inputs": [
        {
          "internalType": "address",
          "name": "user",
          "type": "address"
        },
        {
          "internalType": "string",
          "name": "action",
          "type": "string"
        },
        {
          "internalType": "string",
          "name": "details",
          "type": "string"
        },
        {
          "internalType": "string",
          "name": "tenantId",
          "type": "string"
        },
        {
          "internalType": "string",
          "name": "jurisdiction",
          "type": "string"
        },
        {
          "internalType": "string",
          "name": "metadata",
          "type": "string"
        }
      ],
      "name": "createAuditLog",
      "outputs": [],
      "stateMutability": "nonpayable",
      "type": "function"
    },
    {
      "inputs": [
        {
          "internalType": "address",
          "name": "user",
          "type": "address"
        },
        {
          "internalType": "string",
          "name": "action",
          "type": "string"
        },
        {
          "internalType": "string",
          "name": "details",
          "type": "string"
        },
        {
          "internalType": "string",
          "name": "tenantId",
          "type": "string"
        },
        {
          "internalType": "string",
          "name": "jurisdiction",
          "type": "string"
        }
      ],
      "name": "createSimpleAuditLog",
      "outputs": [],
      "stateMutability": "nonpayable",
      "type": "function"
    },
    {
      "inputs": [
        {
          "internalType": "string",
          "name": "action",
          "type": "string"
        }
      ],
      "name": "getActionAuditCount",
      "outputs": [
        {
          "internalType": "uint256",
          "name": "",
          "type": "uint256"
        }
      ],
      "stateMutability": "view",
      "type": "function"
    },
    {
      "inputs": [
        {
          "internalType": "string",
          "name": "action",
          "type": "string"
        }
      ],
      "name": "getActionAuditLogs",
      "outputs": [
        {
          "components": [
            {
              "internalType": "string",
              "name": "action",
              "type": "string"
            },
            {
              "internalType": "string",
              "name": "details",
              "type": "string"
            },
            {
              "internalType": "uint256",
              "name": "timestamp",
              "type": "uint256"
            },
            {
              "internalType": "address",
              "name": "actor",
              "type": "address"
            },
            {
              "internalType": "string",
              "name": "tenantId",
              "type": "string"
            },
            {
              "internalType": "string",
              "name": "jurisdiction",
              "type": "string"
            },
            {
              "internalType": "string",
              "name": "metadata",
              "type": "string"
            }
          ],
          "internalType": "struct AuditLogStorage.AuditEntry[]",
          "name": "",
          "type": "tuple[]"
        }
      ],
      "stateMutability": "view",
      "type": "function"
    },
    {
      "inputs": [],
      "name": "getAuditConfig",
      "outputs": [
        {
          "components": [
            {
              "internalType": "uint256",
              "name": "maxEntriesPerUser",
              "type": "uint256"
            },
            {
              "internalType": "uint256",
              "name": "maxEntriesPerTenant",
              "type": "uint256"
            },
            {
              "internalType": "uint256",
              "name": "maxEntriesPerJurisdiction",
              "type": "uint256"
            },
            {
              "internalType": "bool",
              "name": "enableMetadata",
              "type": "bool"
            },
            {
              "internalType": "uint256",
              "name": "retentionPeriod",
              "type": "uint256"
            }
          ],
          "internalType": "struct AuditLogStorage.AuditConfig",
          "name": "",
          "type": "tuple"
        }
      ],
      "stateMutability": "view",
      "type": "function"
    },
    {
      "inputs": [],
      "name": "getAuditStatistics",
      "outputs": [
        {
          "internalType": "uint256",
          "name": "userCount",
          "type": "uint256"
        },
        {
          "internalType": "uint256",
          "name": "tenantCount",
          "type": "uint256"
        },
        {
          "internalType": "uint256",
          "name": "jurisdictionCount",
          "type": "uint256"
        },
        {
          "internalType": "uint256",
          "name": "actionCount",
          "type": "uint256"
        }
      ],
      "stateMutability": "view",
      "type": "function"
    },
    {
      "inputs": [
        {
          "internalType": "string",
          "name": "jurisdiction",
          "type": "string"
        }
      ],
      "name": "getJurisdictionAuditCount",
      "outputs": [
        {
          "internalType": "uint256",
          "name": "",
          "type": "uint256"
        }
      ],
      "stateMutability": "view",
      "type": "function"
    },
    {
      "inputs": [
        {
          "internalType": "string",
          "name": "jurisdiction",
          "type": "string"
        }
      ],
      "name": "getJurisdictionAuditLogs",
      "outputs": [
        {
          "components": [
            {
              "internalType": "string",
              "name": "action",
              "type": "string"
            },
            {
              "internalType": "string",
              "name": "details",
              "type": "string"
            },
            {
              "internalType": "uint256",
              "name": "timestamp",
              "type": "uint256"
            },
            {
              "internalType": "address",
              "name": "actor",
              "type": "address"
            },
            {
              "internalType": "string",
              "name": "tenantId",
              "type": "string"
            },
            {
              "internalType": "string",
              "name": "jurisdiction",
              "type": "string"
            },
            {
              "internalType": "string",
              "name": "metadata",
              "type": "string"
            }
          ],
          "internalType": "struct AuditLogStorage.AuditEntry[]",
          "name": "",
          "type": "tuple[]"
        }
      ],
      "stateMutability": "view",
      "type": "function"
    },
    {
      "inputs": [
        {
          "internalType": "address",
          "name": "user",
          "type": "address"
        },
        {
          "internalType": "uint256",
          "name": "count",
          "type": "uint256"
        }
      ],
      "name": "getRecentUserAuditLogs",
      "outputs": [
        {
          "components": [
            {
              "internalType": "string",
              "name": "action",
              "type": "string"
            },
            {
              "internalType": "string",
              "name": "details",
              "type": "string"
            },
            {
              "internalType": "uint256",
              "name": "timestamp",
              "type": "uint256"
            },
            {
              "internalType": "address",
              "name": "actor",
              "type": "address"
            },
            {
              "internalType": "string",
              "name": "tenantId",
              "type": "string"
            },
            {
              "internalType": "string",
              "name": "jurisdiction",
              "type": "string"
            },
            {
              "internalType": "string",
              "name": "metadata",
              "type": "string"
            }
          ],
          "internalType": "struct AuditLogStorage.AuditEntry[]",
          "name": "",
          "type": "tuple[]"
        }
      ],
      "stateMutability": "view",
      "type": "function"
    },
    {
      "inputs": [
        {
          "internalType": "string",
          "name": "tenantId",
          "type": "string"
        }
      ],
      "name": "getTenantAuditCount",
      "outputs": [
        {
          "internalType": "uint256",
          "name": "",
          "type": "uint256"
        }
      ],
      "stateMutability": "view",
      "type": "function"
    },
    {
      "inputs": [
        {
          "internalType": "string",
          "name": "tenantId",
          "type": "string"
        }
      ],
      "name": "getTenantAuditLogs",
      "outputs": [
        {
          "components": [
            {
              "internalType": "string",
              "name": "action",
              "type": "string"
            },
            {
              "internalType": "string",
              "name": "details",
              "type": "string"
            },
            {
              "internalType": "uint256",
              "name": "timestamp",
              "type": "uint256"
            },
            {
              "internalType": "address",
              "name": "actor",
              "type": "address"
            },
            {
              "internalType": "string",
              "name": "tenantId",
              "type": "string"
            },
            {
              "internalType": "string",
              "name": "jurisdiction",
              "type": "string"
            },
            {
              "internalType": "string",
              "name": "metadata",
              "type": "string"
            }
          ],
          "internalType": "struct AuditLogStorage.AuditEntry[]",
          "name": "",
          "type": "tuple[]"
        }
      ],
      "stateMutability": "view",
      "type": "function"
    },
    {
      "inputs": [
        {
          "internalType": "address",
          "name": "user",
          "type": "address"
        }
      ],
      "name": "getUserAuditCount",
      "outputs": [
        {
          "internalType": "uint256",
          "name": "",
          "type": "uint256"
        }
      ],
      "stateMutability": "view",
      "type": "function"
    },
    {
      "inputs": [
        {
          "internalType": "address",
          "name": "user",
          "type": "address"
        }
      ],
      "name": "getUserAuditLogs",
      "outputs": [
        {
          "components": [
            {
              "internalType": "string",
              "name": "action",
              "type": "string"
            },
            {
              "internalType": "string",
              "name": "details",
              "type": "string"
            },
            {
              "internalType": "uint256",
              "name": "timestamp",
              "type": "uint256"
            },
            {
              "internalType": "address",
              "name": "actor",
              "type": "address"
            },
            {
              "internalType": "string",
              "name": "tenantId",
              "type": "string"
            },
            {
              "internalType": "string",
              "name": "jurisdiction",
              "type": "string"
            },
            {
              "internalType": "string",
              "name": "metadata",
              "type": "string"
            }
          ],
          "internalType": "struct AuditLogStorage.AuditEntry[]",
          "name": "",
          "type": "tuple[]"
        }
      ],
      "stateMutability": "view",
      "type": "function"
    },
    {
      "inputs": [
        {
          "internalType": "address",
          "name": "writer",
          "type": "address"
        }
      ],
      "name": "isAuthorizedWriter",
      "outputs": [
        {
          "internalType": "bool",
          "name": "",
          "type": "bool"
        }
      ],
      "stateMutability": "view",
      "type": "function"
    },
    {
      "inputs": [
        {
          "internalType": "string",
          "name": "",
          "type": "string"
        }
      ],
      "name": "jurisdictionAuditCount",
      "outputs": [
        {
          "internalType": "uint256",
          "name": "",
          "type": "uint256"
        }
      ],
      "stateMutability": "view",
      "type": "function"
    },
    {
      "inputs": [
        {
          "internalType": "string",
          "name": "",
          "type": "string"
        },
        {
          "internalType": "uint256",
          "name": "",
          "type": "uint256"
        }
      ],
      "name": "jurisdictionAuditLogs",
      "outputs": [
        {
          "internalType": "string",
          "name": "action",
          "type": "string"
        },
        {
          "internalType": "string",
          "name": "details",
          "type": "string"
        },
        {
          "internalType": "uint256",
          "name": "timestamp",
          "type": "uint256"
        },
        {
          "internalType": "address",
          "name": "actor",
          "type": "address"
        },
        {
          "internalType": "string",
          "name": "tenantId",
          "type": "string"
        },
        {
          "internalType": "string",
          "name": "jurisdiction",
          "type": "string"
        },
        {
          "internalType": "string",
          "name": "metadata",
          "type": "string"
        }
      ],
      "stateMutability": "view",
      "type": "function"
    },
    {
      "inputs": [],
      "name": "owner",
      "outputs": [
        {
          "internalType": "address",
          "name": "",
          "type": "address"
        }
      ],
      "stateMutability": "view",
      "type": "function"
    },
    {
      "inputs": [
        {
          "internalType": "address",
          "name": "writer",
          "type": "address"
        },
        {
          "internalType": "bool",
          "name": "authorized",
          "type": "bool"
        }
      ],
      "name": "setAuthorizedWriter",
      "outputs": [],
      "stateMutability": "nonpayable",
      "type": "function"
    },
    {
      "inputs": [
        {
          "internalType": "string",
          "name": "",
          "type": "string"
        }
      ],
      "name": "tenantAuditCount",
      "outputs": [
        {
          "internalType": "uint256",
          "name": "",
          "type": "uint256"
        }
      ],
      "stateMutability": "view",
      "type": "function"
    },
    {
      "inputs": [
        {
          "internalType": "string",
          "name": "",
          "type": "string"
        },
        {
          "internalType": "uint256",
          "name": "",
          "type": "uint256"
        }
      ],
      "name": "tenantAuditLogs",
      "outputs": [
        {
          "internalType": "string",
          "name": "action",
          "type": "string"
        },
        {
          "internalType": "string",
          "name": "details",
          "type": "string"
        },
        {
          "internalType": "uint256",
          "name": "timestamp",
          "type": "uint256"
        },
        {
          "internalType": "address",
          "name": "actor",
          "type": "address"
        },
        {
          "internalType": "string",
          "name": "tenantId",
          "type": "string"
        },
        {
          "internalType": "string",
          "name": "jurisdiction",
          "type": "string"
        },
        {
          "internalType": "string",
          "name": "metadata",
          "type": "string"
        }
      ],
      "stateMutability": "view",
      "type": "function"
    },
    {
      "inputs": [
        {
          "internalType": "uint256",
          "name": "_maxEntriesPerUser",
          "type": "uint256"
        },
        {
          "internalType": "uint256",
          "name": "_maxEntriesPerTenant",
          "type": "uint256"
        },
        {
          "internalType": "uint256",
          "name": "_maxEntriesPerJurisdiction",
          "type": "uint256"
        },
        {
          "internalType": "bool",
          "name": "_enableMetadata",
          "type": "bool"
        },
        {
          "internalType": "uint256",
          "name": "_retentionPeriod",
          "type": "uint256"
        }
      ],
      "name": "updateAuditConfig",
      "outputs": [],
      "stateMutability": "nonpayable",
      "type": "function"
    },
    {
      "inputs": [
        {
          "internalType": "address",
          "name": "",
          "type": "address"
        }
      ],
      "name": "userAuditCount",
      "outputs": [
        {
          "internalType": "uint256",
          "name": "",
          "type": "uint256"
        }
      ],
      "stateMutability": "view",
      "type": "function"
    },
    {
      "inputs": [
        {
          "internalType": "address",
          "name": "",
          "type": "address"
        },
        {
          "internalType": "uint256",
          "name": "",
          "type": "uint256"
        }
      ],
      "name": "userAuditLogs",
      "outputs": [
        {
          "internalType": "string",
          "name": "action",
          "type": "string"
        },
        {
          "internalType": "string",
          "name": "details",
          "type": "string"
        },
        {
          "internalType": "uint256",
          "name": "timestamp",
          "type": "uint256"
        },
        {
          "internalType": "address",
          "name": "actor",
          "type": "address"
        },
        {
          "internalType": "string",
          "name": "tenantId",
          "type": "string"
        },
        {
          "internalType": "string",
          "name": "jurisdiction",
          "type": "string"
        },
        {
          "internalType": "string",
          "name": "metadata",
          "type": "string"
        }
      ],
      "stateMutability": "view",
      "type": "function"
    }
  ],
  "bytecode": "0x6080346100b75760016000818155600b80546001600160a01b031916339081179091558152600a60205260408120805460ff19908116909317905560a08301929091906001600160401b038411818510176100a357600192936040526103e8808252612710908160208401528560806113889485604082015287606082015201526005556006556007556008541617600855600955604051612f7990816100bd8239f35b634e487b7160e01b83526041600452602483fd5b600080fdfe6040608081526004908136101561001557600080fd5b600091823560e01c908162d414881461133c5781630ded67f7146112f15781631120e14a146112f1578163169d5d6d146101955781631ec17f3c146112ab5781632169b81f14610e11578163286721aa146112135781633757a47c146110f95781633be2040014610fdf5781633e36b38014610e88578163401417fb14610e5c57816343b76d3c14610e115781634dac955d14610cbd578163526241a814610c81578163542a086c14610ba55781635a0e98f0146109ab578163614d08f81461094e5781636f19fe57146108545781637721c220146107445781638da5cb5b1461071c57816390486d051461060257816399ca8a28146105ca578163ab1c155314610593578163ad6e823b1461053b578163ae02f234146104f9578163ba8243bd146104b0578163cb5f1ab014610479578163dcab700b146102a1578163e21ba52f146101f5578163e25f12b114610195575063ffa1ad741461017757600080fd5b346101915781600319360112610191576020905160018152f35b5080fd5b8284346101f25760203660031901126101f25782359067ffffffffffffffff82116101f2575060206101ce81946101e093369101611648565b8184519382858094519384920161158d565b8101600d815203019020549051908152f35b80fd5b8284346101f25760209061021f61020b3661177e565b93908186519382858094519384920161158d565b810160038152030190209081548310156101f2575061029d91610241916113d3565b509161024c836114e7565b92610259600182016114e7565b946002820154906102796001600160a01b036003850154169184016114e7565b91610292600661028b600587016114e7565b95016114e7565b9451978897886115d5565b0390f35b919050346104755760c0366003190112610475576102bd6113b8565b9167ffffffffffffffff90602435828111610471576102df9036908301611648565b9160443581811161046d576102f79036908401611648565b936064358281116104695761030f9036908501611648565b90608435838111610465576103279036908601611648565b9360a435938411610465577fbd900794d6f303b67a9115ea24684c3e61cc37f1cff5332dd856014aa8e7cd87966103676103f69261040496369101611648565b338b52600a60205260ff848c205416801561044c575b61038690611850565b6103928851151561189b565b60085460ff1615610438575b8351916103aa83611471565b888352602083015242848301523360608301528460808301528660a083015260c08201526001600160a01b03891698818a610428575b50508351610419575b855161040a575b86612726565b5193849333924292866118e6565b0390a280f35b610414818761257f565b6103f0565b61042381856122d4565b6103e9565b61043191612073565b38816103e0565b5082516104448161148d565b8a815261039e565b506103866001600160a01b03600b54163314905061037d565b8880fd5b8780fd5b8680fd5b8580fd5b8280fd5b8284346101f25760209061048f61020b3661177e565b8101878152030190209081548310156101f2575061029d91610241916113d3565b50503461019157806003193601126101915761029d906104ee6104d16113b8565b6104e56001600160a01b0382161515612808565b602435906128b8565b90519182918261169f565b50503461019157602036600319011261019157806020926001600160a01b036105206113b8565b1661052c811515612808565b8152600c845220549051908152f35b50503461019157602036600319011261019157906020916001600160a01b039160ff82846105676113b8565b1692838152600a8752205416928315610585575b5050519015158152f35b600b5416149150388061057b565b50503461019157602036600319011261019157806020926001600160a01b036105ba6113b8565b168152600c845220549051908152f35b8284346101f2576020906105e061020b3661177e565b810160028152030190209081548310156101f2575061029d91610241916113d3565b8391503461019157602091826003193601126101f257813567ffffffffffffffff8111610191576106369036908401611648565b928061064a8651958681519384920161158d565b8401938181600396878152030190209182549361066685612853565b95610673885197886114c5565b85875283870194835283832092945b8686106106965788518061029d8a8261169f565b6007856001928b516106a781611471565b6106b0886114e7565b81526106bd8589016114e7565b8382015260028801548d8201526001600160a01b03868901541660608201526106e78789016114e7565b60808201526106f8600589016114e7565b60a0820152610709600689016114e7565b60c0820152815201940195019492610682565b5050346101915781600319360112610191576020906001600160a01b03600b54169051908152f35b9050346104755760a03660031901126104755735602435606435908115158092036108505760a09384936107846001600160a01b03600b541633146117b0565b6005549060065494816005558460065560443560075560ff80196008541691161760085560843560095582519160608352601160608401527f6d6178456e74726965735065725573657200000000000000000000000000000060808401526020830152828201527f1706acc6c844129455c964fe997e9536847604276e894219638a084a7bb91a25958691a180519260608452601360608501527f6d6178456e747269657350657254656e616e740000000000000000000000000060808501526020840152820152a180f35b8480fd5b8383346101915760209283600319360112610475576001600160a01b03928361087b6113b8565b16610887811515612808565b81526001948581528382209182549361089f85612853565b966108ac875198896114c5565b85885283880194835283832092945b8686106108cf5787518061029d8b8261169f565b6007858b928a516108df81611471565b6108e8886114e7565b81526108f58589016114e7565b8382015260028801548c8201528560038901541660608201526109198789016114e7565b608082015261092a600589016114e7565b60a082015261093b600689016114e7565b60c08201528152019401950194926108bb565b505034610191578160031936011261019157805161029d9161096f826114a9565b600f82527f41756469744c6f6753746f7261676500000000000000000000000000000000006020830152519182916020835260208301906115b0565b9190503461047557602080600319360112610ba1576109c86113b8565b6001600160a01b036109df81600b541633146117b0565b6109e76117fb565b6009548015610b5f576109fa9042611994565b9116908115610b02578186526001948584528487209081549687805b610a3157505050505090600c918552528220555b6001815580f35b600019818101828111610aef57866002610a4b83896113d3565b50015410610a65575b5050610a5f90612d8a565b80610a16565b919991835b610a8e575b5050610a86610a5f91610a8186611bd9565b612d8a565b989038610a54565b818301838111610ad757811015610aea57838101808211610ad7578491610acc610abb610ad1938a6113d3565b50610ac6838b6113d3565b90611ae9565b61196f565b90610a6a565b60248d601188634e487b7160e01b835252fd5b610a6f565b60248c601187634e487b7160e01b835252fd5b5092506060907f526574656e74696f6e20706572696f6420636c65616e757000000000000000008360187f5a578573209b6a465b36c51d483397c15a0a061b007d3ec443d34c4e585a9db1955193808552840152820152a2610a2a565b6064868587519162461bcd60e51b8352820152601860248201527f526574656e74696f6e20706572696f64206e6f742073657400000000000000006044820152fd5b8380fd5b91905034610475578060031936011261047557610bc06113b8565b9060243591821515809303610850576001600160a01b0390610be782600b541633146117b0565b610bef6117fb565b16928315610c3f57507e8ebc621f24e0e9d1fd4ee2f7df9bb80c8d61ee30a9167a4fee6cefcf8c021e91602091848652600a835280862060ff1981541660ff841617905551908152a26001815580f35b6020606492519162461bcd60e51b8352820152601660248201527f496e76616c6964207772697465722061646472657373000000000000000000006044820152fd5b5050346101915760203660031901126101915760ff816020936001600160a01b03610caa6113b8565b168152600a855220541690519015158152f35b9050346104755760a036600319011261047557610cd86113b8565b9167ffffffffffffffff9060243582811161047157610cfa9036908501611648565b9160443581811161046d57610d129036908601611648565b9160643582811161046957610d2a9036908701611648565b90608435928311610469576103f6610d697fbd900794d6f303b67a9115ea24684c3e61cc37f1cff5332dd856014aa8e7cd879761040495369101611648565b94338a52600a60205260ff838b2054168015610df8575b610d8990611850565b610d958751151561189b565b825190610da182611471565b878252602082015242838201523360608201528360808201528560a08201528251610dcb8161148d565b8a815260c08201526001600160a01b03891698818a610428575050835161041957855161040a5786612726565b50610d896001600160a01b03600b541633149050610d80565b8284346101f25760203660031901126101f25782359067ffffffffffffffff82116101f2575060206101ce8194610e4a93369101611648565b8101600e815203019020549051908152f35b505034610191578160031936011261019157816080928251928184528160208501528301526060820152f35b91905034610475578060031936011261047557610ea36113b8565b60243567ffffffffffffffff811161085057610ec29036908501611648565b906001600160a01b0390610edb82600b541633146117b0565b1691610ee8831515612808565b610ef06117fb565b828552600193846020528186209081549087835581610f5a575b5050507f5a578573209b6a465b36c51d483397c15a0a061b007d3ec443d34c4e585a9db191610f5291848752600c6020528681812055519182916020835260208301906115b0565b0390a2815580f35b6007928284029284840403610fcc57885260208820918201915b828110610f815750610f0a565b80610f8c8592611b90565b610f97898201611b90565b896002820155896003820155610fae838201611b90565b610fba60058201611b90565b610fc660068201611b90565b01610f74565b602489601184634e487b7160e01b835252fd5b905082346101f257602090816003193601126101f257823567ffffffffffffffff8111610191578261101a61102c9294939436908701611648565b8187519382858094519384920161158d565b8101868152030190209081549261104284612853565b9461104f875196876114c5565b84865282860193825282822091935b8585106110725787518061029d898261169f565b6007846001928a5161108381611471565b61108c876114e7565b81526110998588016114e7565b8382015260028701548c8201526001600160a01b0360038801541660608201526110c48688016114e7565b60808201526110d5600588016114e7565b60a08201526110e6600688016114e7565b60c082015281520193019401939161105e565b905082346101f257602090816003193601126101f257823567ffffffffffffffff81116101915761112d9036908501611648565b91806111418651948581519384920161158d565b8301928181600295868152030190209182549361115d85612853565b9561116a885197886114c5565b85875283870194835283832092945b86861061118d5788518061029d8a8261169f565b6007856001928b5161119e81611471565b6111a7886114e7565b81526111b48589016114e7565b83820152868801548d8201526001600160a01b0360038901541660608201526111de8689016114e7565b60808201526111ef600589016114e7565b60a0820152611200600689016114e7565b60c0820152815201940195019492611179565b50503461019157816003193601126101915760a091608082516112358161143f565b8281528260208201528284820152826060820152015280516112568161143f565b60055491828252600654906020830191825260075481840190815260ff600854169260608501931515845260806009549501948552825195865251602086015251908401525115156060830152516080820152f35b50503461019157816003193601126101915760a090600554906006549060075460ff60085416916009549381519586526020860152840152151560608301526080820152f35b8284346101f25760203660031901126101f25782359067ffffffffffffffff82116101f2575060206101ce819461132a93369101611648565b8101600f815203019020549051908152f35b8383346101915780600319360112610191576113566113b8565b91602435906001600160a01b03809416815260016020528281209081548310156101f2575061029d9291611389916113d3565b50611393816114e7565b936113a0600183016114e7565b956102796002840154926003850154169184016114e7565b600435906001600160a01b03821682036113ce57565b600080fd5b80548210156113ef576000526007602060002091020190600090565b634e487b7160e01b600052603260045260246000fd5b90600182811c92168015611435575b602083101461141f57565b634e487b7160e01b600052602260045260246000fd5b91607f1691611414565b60a0810190811067ffffffffffffffff82111761145b57604052565b634e487b7160e01b600052604160045260246000fd5b60e0810190811067ffffffffffffffff82111761145b57604052565b6020810190811067ffffffffffffffff82111761145b57604052565b6040810190811067ffffffffffffffff82111761145b57604052565b90601f8019910116810190811067ffffffffffffffff82111761145b57604052565b90604051918260008254926114fb84611405565b90818452600194858116908160001461156a5750600114611527575b5050611525925003836114c5565b565b9093915060005260209081600020936000915b81831061155257505061152593508201013880611517565b8554888401850152948501948794509183019161153a565b91505061152594506020925060ff191682840152151560051b8201013880611517565b60005b8381106115a05750506000910152565b8181015183820152602001611590565b906020916115c98151809281855285808601910161158d565b601f01601f1916010190565b959290946001600160a01b0361163795611610611629956116026116459c9a60e08d5260e08d01906115b0565b908b820360208d01526115b0565b9360408a015216606088015286820360808801526115b0565b9084820360a08601526115b0565b9160c08184039101526115b0565b90565b81601f820112156113ce5780359067ffffffffffffffff821161145b576040519261167d601f8401601f1916602001856114c5565b828452602083830101116113ce57816000926020809301838601378301015290565b602080820190808352835180925260409283810182858560051b8401019601946000925b8584106116d4575050505050505090565b90919293949596858061176d600193603f198682030188528b5161175a611747611719611709845160e08088528701906115b0565b87850151868203898801526115b0565b8a8401518b86015260606001600160a01b0381860151169086015260808085015190868303908701526115b0565b60a08084015190858303908601526115b0565b9160c080920151918184039101526115b0565b9901940194019295949391906116c3565b60406003198201126113ce576004359067ffffffffffffffff82116113ce576117a991600401611648565b9060243590565b156117b757565b606460405162461bcd60e51b815260206004820152600a60248201527f4f6e6c79206f776e6572000000000000000000000000000000000000000000006044820152fd5b60026000541461180c576002600055565b606460405162461bcd60e51b815260206004820152601f60248201527f5265656e7472616e637947756172643a207265656e7472616e742063616c6c006044820152fd5b1561185757565b606460405162461bcd60e51b815260206004820152600e60248201527f4e6f7420617574686f72697a65640000000000000000000000000000000000006044820152fd5b156118a257565b606460405162461bcd60e51b815260206004820152600e60248201527f496e76616c696420616374696f6e0000000000000000000000000000000000006044820152fd5b9395949060809361191c6001600160a01b039461190e61192a9460a08a5260a08a01906115b0565b9088820360208a01526115b0565b9086820360408801526115b0565b95606085015216910152565b60405190611943826114a9565b600d82527f7573657241756469744c6f6773000000000000000000000000000000000000006020830152565b600019811461197e5760010190565b634e487b7160e01b600052601160045260246000fd5b9190820391821161197e57565b9190820180921161197e57565b8181106119b9575050565b600081556001016119ae565b9190601f81116119d457505050565b611525926000526020600020906020601f840160051c83019310611a00575b601f0160051c01906119ae565b90915081906119f3565b90808214611ae557611a1c8154611405565b9067ffffffffffffffff821161145b578190611a4282611a3c8654611405565b866119c5565b600090601f8311600114611a7957600092611a6e575b50508160011b916000199060031b1c1916179055565b015490503880611a58565b81526020808220858352818320935090601f1985169083905b828210611acc575050908460019594939210611ab3575b505050811b019055565b015460001960f88460031b161c19169055388080611aa9565b8495819295850154815560018091019601940190611a92565b5050565b90611b7a57818103611af9575050565b60068083611b0a6115259585611a0a565b611b1a6001820160018601611a0a565b60028101546002850155600384016001600160a01b0360038301541673ffffffffffffffffffffffffffffffffffffffff19825416179055611b626004820160048601611a0a565b611b726005820160058601611a0a565b019101611a0a565b634e487b7160e01b600052600060045260246000fd5b611b9a8154611405565b9081611ba4575050565b81601f60009311600114611bb6575055565b908083918252611bd5601f60208420940160051c8401600185016119ae565b5555565b80548015611c3e576000190190611bf082826113d3565b611b7a57600681611c03611c3b93611b90565b611c0f60018201611b90565b6000600282015560006003820155611c2960048201611b90565b611c3560058201611b90565b01611b90565b55565b634e487b7160e01b600052603160045260246000fd5b80546801000000000000000081101561145b57611c789060019283820181556113d3565b611b7a57825190815167ffffffffffffffff9283821161145b578190611ca282611a3c8654611405565b602090601f831160011461201057600092612005575b5050600019600383901b1c191690841b1781555b828101602085015180519084821161145b578190611cee82611a3c8654611405565b602090601f8311600114611fa257600092611f97575b5050600019600383901b1c191690851b1790555b604084015160028201556003908181016001600160a01b0360608701511673ffffffffffffffffffffffffffffffffffffffff1982541617905560048101608086015180519085821161145b578190611d7582611a3c8654611405565b602090601f8311600114611f3557600092611f2a575b505060001982861b1c191690861b1790555b6005810160a086015180519085821161145b57611dc482611dbe8554611405565b856119c5565b602090601f8311600114611ebd5791806006949260c09694600092611eb2575b505060001982881b1c191690881b1790555b01940151805192831161145b57611e1783611e118754611405565b876119c5565b602090601f8411600114611e4f57938394918492600095611e44575b50501b92600019911b1c1916179055565b015193503880611e33565b9190601f198416928660005284826000209460005b88828210611e9957505010611e7f575b50505050811b019055565b01519060f884600019921b161c1916905538808080611e74565b8486015188559096019560209485019488935001611e64565b015190503880611de4565b879291601f1983169185600052816000209260005b818110611f1257509160c09795939185600698969410611efa575b505050811b019055611df6565b0151600019838a1b60f8161c19169055388080611eed565b8284015185558b969094019360209384019301611ed2565b015190503880611d8b565b90889350601f1983169185600052816000209260005b818110611f7f57508411611f67575b505050811b019055611d9d565b015160001983881b60f8161c19169055388080611f5a565b8284015185558b969094019360209384019301611f4b565b015190503880611d04565b90879350601f1983169185600052816000209260005b818110611fed57508411611fd4575b505050811b019055611d18565b015160001960f88460031b161c19169055388080611fc7565b8284015185558a969094019360209384019301611fb8565b015190503880611cb8565b90869350601f1983169185600052816000209260005b81811061205b57508411612042575b505050811b018155611ccc565b015160001960f88460031b161c19169055388080612035565b82840151855589969094019360209384019301612026565b6001600160a01b03909291921691600092808452600160208181526040926120a6848820546120a0611936565b90612e20565b808752828252838720546005541161227b576005546000198101908111612267576120d96120d2611936565b8280612ea9565b875b8181106121fb575050908187939261152597985282825261215985852054612101611936565b906121526036895180947f43616e6e6f7420706f702066726f6d20656d707479200000000000000000000089830152612142815180928b868601910161158d565b81010360168101855201836114c5565b1515612d97565b80845282825261216a858520611bd9565b8084528282526121f285852054600554612182611936565b916121ec603e8a5180956e021b0b73737ba10383ab9b4103a379608d1b8a8301526121b6815180928c602f8601910161158d565b81017f3a2061727261792069732066756c6c0000000000000000000000000000000000602f82015203601e8101865201846114c5565b10612d97565b83525220611c54565b8481018082116122535790610acc8a610ac6838a61224061224e978a86528c8c526122328387205461222b611936565b9083612dc7565b8a86528c8c528286206113d3565b50938981528b8b52206113d3565b6120db565b60248a634e487b7160e01b81526011600452fd5b602488634e487b7160e01b81526011600452fd5b9061152595969291600c8252848420612294815461196f565b905561216a565b604051906122a8826114a9565b600f82527f74656e616e7441756469744c6f677300000000000000000000000000000000006020830152565b6040908151815191602093612309858301946122f181868861158d565b840193868160029687815203019020546120a061229b565b80518581845161231a81838a61158d565b810186815203019020546006541161250e57600654600019810190811161197e576123466120d261229b565b6000805b82811061246557505050916124579391836123c8611525989795518681855161237481838b61158d565b8101878152030190205461238661229b565b906121526036855180947f43616e6e6f7420706f702066726f6d20656d70747920000000000000000000008c8301526121428c8251928391868601910161158d565b6123ea8151868185516123dc81838b61158d565b810187815203019020611bd9565b6124488151868185516123fe81838b61158d565b8101878152030190205460065461241361229b565b916121ec603e865180956e021b0b73737ba10383ab9b4103a379608d1b8d8301526121b68d8251928391602f8601910161158d565b5194859384925192839161158d565b820190815203019020611c54565b600181018082116124fa5790610acc6124cb6124f5936124a76124958d8d8d8d8d5194859384925192839161158d565b8201908152030190205461222b61229b565b6124bd8c8c8b8b5193849283925192839161158d565b81018d8152030190206113d3565b50610ac6836124e78d8d8d8d8d5194859384925192839161158d565b8201908152030190206113d3565b61234a565b602483634e487b7160e01b81526011600452fd5b91612457939183611525979694518581845161252b81838a61158d565b8101600d81520301902061253f815461196f565b90556123ea565b60405190612553826114a9565b601582527f6a7572697364696374696f6e41756469744c6f677300000000000000000000006020830152565b60409081518151916020936125b48583019461259c81868861158d565b840193868160039687815203019020546120a0612546565b8051858184516125c581838a61158d565b81018681520301902054600754116126b557600754600019810190811161197e576125f16120d2612546565b6000805b82811061266e5750505091612457939183612631611525989795518681855161261f81838b61158d565b81018781520301902054612386612546565b6126458151868185516123dc81838b61158d565b61244881518681855161265981838b61158d565b81018781520301902054600754612413612546565b600181018082116124fa5790610acc6124cb6126b0936124a761269e8d8d8d8d8d5194859384925192839161158d565b8201908152030190205461222b612546565b6125f5565b9161245793918361152597969451858184516126d281838a61158d565b8101600e8152030190206126e6815461196f565b9055612645565b604051906126fa826114a9565b600f82527f616374696f6e41756469744c6f677300000000000000000000000000000000006020830152565b6127f091604051916127df81519261275e60209586818187019761274b81838b61158d565b81016004815203019020546120a06126ed565b6127be6040518681865161277381838b61158d565b810160048152030190205460646127886126ed565b916121ec603e60405180956e021b0b73737ba10383ab9b4103a379608d1b8d8301526121b68d8251928391602f8601910161158d565b604051858185516127d081838a61158d565b81016004815203019020611c54565b60405193849283925192839161158d565b8101600f815203019020612804815461196f565b9055565b1561280f57565b606460405162461bcd60e51b815260206004820152601460248201527f496e76616c6964207573657220616464726573730000000000000000000000006044820152fd5b67ffffffffffffffff811161145b5760051b60200190565b60405190612878826114a9565b600a82527f726563656e744c6f6773000000000000000000000000000000000000000000006020830152565b80518210156113ef5760209160051b010190565b90604080516128c6816114a9565b60059182825260209061297861293c612972603a858701967f636f756e7400000000000000000000000000000000000000000000000000000088528915159786519485927f496e76616c6964200000000000000000000000000000000000000000000000008a850152518092602885019061158d565b81017f3a206d75737420626520706f7369746976650000000000000000000000000000602882015203601a8101845201826114c5565b84612d97565b6001600160a01b038060009716875260019081845282882080549161299c83612853565b976129a98651998a6114c5565b838952868901928b52868b2091878c945b868610612d095750505050505050508351926129dd6129d7611936565b85612e20565b83861015612cff5790612beb612bdb612b35612b92603f85612b978a98612b458b8f612aeb90612ae57f6f73697469766520666f72200000000000000000000000000000000000000000612adf604c8a87612acf612a3961286b565b612a9684517f4d656d6f727920616c6c6f636174696f6e20746f6f206c6172676520666f722085820152612a8b868451968381870198612a7c818584018c61158d565b810103908101845201826114c5565b6101f48b1115612d97565b83519687947f4d656d6f727920616c6c6f636174696f6e2073697a65206d75737420626520708d8701528501525180928585019061158d565b810103602c8101845201826114c5565b86612d97565b8d611994565b9d8e6121ec603e612afa611936565b9851857f537461727420696e646578206f7574206f6620626f756e647320666f7220000082978301528a519d8e918c019e8f8585019061158d565b810103601e8101865201846114c5565b8851907f436f756e74206d75737420626520706f73697469766520666f722000000000008c830152612b92603b838651612b82818484018d61158d565b810103601b8101855201836114c5565b612d97565b87612ba28d8c6119a1565b11159387519586927f536c696365206578636565647320617272617920626f756e647320666f7220008c8501525180928585019061158d565b810103601f8101855201836114c5565b612bf486612853565b96612c01825198896114c5565b868852601f19612c1088612853565b0184825b828110612cc157505050612c30612c2961286b565b8880612ea9565b868110612c41575050505050505090565b80612c8d612c52612cbc93886119a1565b85855191612c5f836114a9565b600783527f616c6c4c6f67730000000000000000000000000000000000000000000000000089840152612dc7565b612ca0612c9a82886119a1565b886128a4565b51612cab828b6128a4565b52612cb6818a6128a4565b5061196f565b612c30565b8451612ccc81611471565b60608082528084830152858783015285818301528060808301528060a083015260c082015282828d010152018590612c14565b5050505091505090565b87916007918a51612d1981611471565b612d22886114e7565b8152612d2f8589016114e7565b8382015260028801548c820152856003890154166060820152612d54600489016114e7565b6080820152612d648789016114e7565b60a0820152612d75600689016114e7565b60c082015281520194019401939288906129ba565b801561197e576000190190565b15612d9f5750565b612dc39060405191829162461bcd60e51b83526020600484015260248301906115b0565b0390fd5b9061152592916121ec603860405180957f496e646578206f7574206f6620626f756e647320666f722000000000000000006020830152612e10815180926020868601910161158d565b81010360188101865201846114c5565b906101f461152592612ea2603d60405180957f41727261792000000000000000000000000000000000000000000000000000006020830152612e6c81518092602060268601910161158d565b81017f2065786365656473206d6178696d756d206c656e677468000000000000000000602682015203601d8101865201846114c5565b1115612d97565b90612e1091612ea26038611525956040517f496e76616c696420697465726174696f6e20626f756e647320666f72200000006020820152612f0b825191603d816020860194612efb818484018861158d565b810103601d8101835201906114c5565b6040519687927f546f6f206d616e7920697465726174696f6e7320666f7220000000000000000060208501525180928585019061158d56fea26469706673582212202664bec91096ba512e49d7f84d56bf51b80046c1b4a1f20d443cf11ad3a5231564736f6c63430008140033",
  "linkReferences": {},
  "deployedLinkReferences": {}
}