{
  "_format": "hh-sol-artifact-1",
  "contractName": "SimpleTest",
  "sourceName": "contracts/test/SimpleTest.sol",
  "abi": [
    {
      "inputs": [],
      "stateMutability": "nonpayable",
      "type": "constructor"
    },
    {
      "anonymous": false,
      "inputs": [
        {
          "indexed": false,
          "internalType": "uint256",
          "name": "oldValue",
          "type": "uint256"
        },
        {
          "indexed": false,
          "internalType": "uint256",
          "name": "newValue",
          "type": "uint256"
        }
      ],
      "name": "ValueUpdated",
      "type": "event"
    },
    {
      "inputs": [],
      "name": "getValue",
      "outputs": [
        {
          "internalType": "uint256",
          "name": "",
          "type": "uint256"
        }
      ],
      "stateMutability": "view",
      "type": "function"
    },
    {
      "inputs": [],
      "name": "owner",
      "outputs": [
        {
          "internalType": "address",
          "name": "",
          "type": "address"
        }
      ],
      "stateMutability": "view",
      "type": "function"
    },
    {
      "inputs": [
        {
          "internalType": "uint256",
          "name": "newValue",
          "type": "uint256"
        }
      ],
      "name": "updateValue",
      "outputs": [],
      "stateMutability": "nonpayable",
      "type": "function"
    },
    {
      "inputs": [],
      "name": "value",
      "outputs": [
        {
          "internalType": "uint256",
          "name": "",
          "type": "uint256"
        }
      ],
      "stateMutability": "view",
      "type": "function"
    }
  ],
  "bytecode": "0x608080604052346100305760015f81815581546001600160a01b03191633179091556002556101f290816100358239f35b5f80fdfe608060408181526004361015610013575f80fd5b5f91823560e01c90816320965255146101a0575080633fa4f24514610182578063573c0bd31461008257638da5cb5b1461004b575f80fd5b3461007e578160031936011261007e5760209073ffffffffffffffffffffffffffffffffffffffff600154169051908152f35b5080fd5b503461007e57602036600319011261007e57600435600283541461013f5773ffffffffffffffffffffffffffffffffffffffff6001541633036100fc57907f253ac2c290fb3c37b20cfd60899ed86c0c8313905edc8ca53ec8d2b69d9919ad91600254908060025582519182526020820152a16001815580f35b6064825162461bcd60e51b815260206004820152600a60248201527f4f6e6c79206f776e6572000000000000000000000000000000000000000000006044820152fd5b6064825162461bcd60e51b815260206004820152601f60248201527f5265656e7472616e637947756172643a207265656e7472616e742063616c6c006044820152fd5b503461007e578160031936011261007e576020906002549051908152f35b83903461007e578160031936011261007e576020906002548152f3fea264697066735822122067bdc6c5a38130ea5df2b5d323b2fb4b207d5a083ebb836a2ae38b919d68b98664736f6c63430008140033",
  "linkReferences": {},
  "deployedLinkReferences": {}
}