{
  "_format": "hh-sol-artifact-1",
  "contractName": "SimpleTest",
  "sourceName": "contracts/test/SimpleTest.sol",
  "abi": [
    {
      "inputs": [],
      "stateMutability": "nonpayable",
      "type": "constructor"
    },
    {
      "anonymous": false,
      "inputs": [
        {
          "indexed": false,
          "internalType": "uint256",
          "name": "oldValue",
          "type": "uint256"
        },
        {
          "indexed": false,
          "internalType": "uint256",
          "name": "newValue",
          "type": "uint256"
        }
      ],
      "name": "ValueUpdated",
      "type": "event"
    },
    {
      "inputs": [],
      "name": "getValue",
      "outputs": [
        {
          "internalType": "uint256",
          "name": "",
          "type": "uint256"
        }
      ],
      "stateMutability": "view",
      "type": "function"
    },
    {
      "inputs": [],
      "name": "owner",
      "outputs": [
        {
          "internalType": "address",
          "name": "",
          "type": "address"
        }
      ],
      "stateMutability": "view",
      "type": "function"
    },
    {
      "inputs": [
        {
          "internalType": "uint256",
          "name": "newValue",
          "type": "uint256"
        }
      ],
      "name": "updateValue",
      "outputs": [],
      "stateMutability": "nonpayable",
      "type": "function"
    },
    {
      "inputs": [],
      "name": "value",
      "outputs": [
        {
          "internalType": "uint256",
          "name": "",
          "type": "uint256"
        }
      ],
      "stateMutability": "view",
      "type": "function"
    }
  ],
  "bytecode": "0x60808060405234610031576001600081815581546001600160a01b03191633179091556002556101f590816100378239f35b600080fdfe60806040818152600436101561001457600080fd5b600091823560e01c90816320965255146101a3575080633fa4f24514610185578063573c0bd31461008557638da5cb5b1461004e57600080fd5b3461008157816003193601126100815760209073ffffffffffffffffffffffffffffffffffffffff600154169051908152f35b5080fd5b50346100815760203660031901126100815760043560028354146101425773ffffffffffffffffffffffffffffffffffffffff6001541633036100ff57907f253ac2c290fb3c37b20cfd60899ed86c0c8313905edc8ca53ec8d2b69d9919ad91600254908060025582519182526020820152a16001815580f35b6064825162461bcd60e51b815260206004820152600a60248201527f4f6e6c79206f776e6572000000000000000000000000000000000000000000006044820152fd5b6064825162461bcd60e51b815260206004820152601f60248201527f5265656e7472616e637947756172643a207265656e7472616e742063616c6c006044820152fd5b50346100815781600319360112610081576020906002549051908152f35b8390346100815781600319360112610081576020906002548152f3fea2646970667358221220b6ef1736d6b1f064e64b565284de6f0ea90844f5a5e63a0731dde9d9b90434f364736f6c63430008140033",
  "linkReferences": {},
  "deployedLinkReferences": {}
}