{
  "_format": "hh-sol-artifact-1",
  "contractName": "CredentialTypeManagerSimple",
  "sourceName": "contracts/utility/CredentialTypeManagerSimple.sol",
  "abi": [
    {
      "inputs": [],
      "stateMutability": "nonpayable",
      "type": "constructor"
    },
    {
      "anonymous": false,
      "inputs": [
        {
          "indexed": true,
          "internalType": "address",
          "name": "writer",
          "type": "address"
        },
        {
          "indexed": false,
          "internalType": "bool",
          "name": "authorized",
          "type": "bool"
        }
      ],
      "name": "AuthorizedWriterUpdated",
      "type": "event"
    },
    {
      "anonymous": false,
      "inputs": [
        {
          "indexed": true,
          "internalType": "string",
          "name": "credentialTypeId",
          "type": "string"
        },
        {
          "indexed": false,
          "internalType": "string",
          "name": "name",
          "type": "string"
        },
        {
          "indexed": false,
          "internalType": "enum CredentialTypeManagerSimple.CredentialCategory",
          "name": "category",
          "type": "uint8"
        }
      ],
      "name": "CredentialTypeCreated",
      "type": "event"
    },
    {
      "anonymous": false,
      "inputs": [
        {
          "indexed": true,
          "internalType": "string",
          "name": "credentialTypeId",
          "type": "string"
        },
        {
          "indexed": false,
          "internalType": "enum CredentialTypeManagerSimple.CredentialStatus",
          "name": "status",
          "type": "uint8"
        }
      ],
      "name": "CredentialTypeUpdated",
      "type": "event"
    },
    {
      "inputs": [
        {
          "internalType": "uint256",
          "name": "",
          "type": "uint256"
        }
      ],
      "name": "allCategories",
      "outputs": [
        {
          "internalType": "enum CredentialTypeManagerSimple.CredentialCategory",
          "name": "",
          "type": "uint8"
        }
      ],
      "stateMutability": "view",
      "type": "function"
    },
    {
      "inputs": [
        {
          "internalType": "uint256",
          "name": "",
          "type": "uint256"
        }
      ],
      "name": "allCredentialTypeIds",
      "outputs": [
        {
          "internalType": "string",
          "name": "",
          "type": "string"
        }
      ],
      "stateMutability": "view",
      "type": "function"
    },
    {
      "inputs": [
        {
          "internalType": "address",
          "name": "",
          "type": "address"
        }
      ],
      "name": "authorizedWriters",
      "outputs": [
        {
          "internalType": "bool",
          "name": "",
          "type": "bool"
        }
      ],
      "stateMutability": "view",
      "type": "function"
    },
    {
      "inputs": [
        {
          "internalType": "string",
          "name": "credentialTypeId",
          "type": "string"
        },
        {
          "internalType": "string",
          "name": "name",
          "type": "string"
        },
        {
          "internalType": "string",
          "name": "description",
          "type": "string"
        },
        {
          "internalType": "enum CredentialTypeManagerSimple.CredentialCategory",
          "name": "category",
          "type": "uint8"
        },
        {
          "internalType": "uint256",
          "name": "defaultValidityPeriod",
          "type": "uint256"
        },
        {
          "internalType": "bool",
          "name": "requiresBiometric",
          "type": "bool"
        },
        {
          "internalType": "bool",
          "name": "requiresDocumentProof",
          "type": "bool"
        },
        {
          "internalType": "string",
          "name": "version",
          "type": "string"
        }
      ],
      "name": "createCredentialType",
      "outputs": [],
      "stateMutability": "nonpayable",
      "type": "function"
    },
    {
      "inputs": [
        {
          "internalType": "string",
          "name": "",
          "type": "string"
        }
      ],
      "name": "credentialTypes",
      "outputs": [
        {
          "internalType": "string",
          "name": "credentialTypeId",
          "type": "string"
        },
        {
          "internalType": "string",
          "name": "name",
          "type": "string"
        },
        {
          "internalType": "string",
          "name": "description",
          "type": "string"
        },
        {
          "internalType": "enum CredentialTypeManagerSimple.CredentialCategory",
          "name": "category",
          "type": "uint8"
        },
        {
          "internalType": "enum CredentialTypeManagerSimple.CredentialStatus",
          "name": "status",
          "type": "uint8"
        },
        {
          "internalType": "uint256",
          "name": "defaultValidityPeriod",
          "type": "uint256"
        },
        {
          "internalType": "bool",
          "name": "requiresBiometric",
          "type": "bool"
        },
        {
          "internalType": "bool",
          "name": "requiresDocumentProof",
          "type": "bool"
        },
        {
          "internalType": "uint256",
          "name": "creationTimestamp",
          "type": "uint256"
        },
        {
          "internalType": "address",
          "name": "createdBy",
          "type": "address"
        },
        {
          "internalType": "string",
          "name": "version",
          "type": "string"
        }
      ],
      "stateMutability": "view",
      "type": "function"
    },
    {
      "inputs": [
        {
          "internalType": "enum CredentialTypeManagerSimple.CredentialCategory",
          "name": "",
          "type": "uint8"
        },
        {
          "internalType": "uint256",
          "name": "",
          "type": "uint256"
        }
      ],
      "name": "credentialTypesByCategory",
      "outputs": [
        {
          "internalType": "string",
          "name": "",
          "type": "string"
        }
      ],
      "stateMutability": "view",
      "type": "function"
    },
    {
      "inputs": [],
      "name": "getAllCategories",
      "outputs": [
        {
          "internalType": "enum CredentialTypeManagerSimple.CredentialCategory[]",
          "name": "categories",
          "type": "uint8[]"
        }
      ],
      "stateMutability": "view",
      "type": "function"
    },
    {
      "inputs": [],
      "name": "getAllCredentialTypeIds",
      "outputs": [
        {
          "internalType": "string[]",
          "name": "credentialTypeIds",
          "type": "string[]"
        }
      ],
      "stateMutability": "view",
      "type": "function"
    },
    {
      "inputs": [
        {
          "internalType": "string",
          "name": "credentialTypeId",
          "type": "string"
        }
      ],
      "name": "getCredentialType",
      "outputs": [
        {
          "components": [
            {
              "internalType": "string",
              "name": "credentialTypeId",
              "type": "string"
            },
            {
              "internalType": "string",
              "name": "name",
              "type": "string"
            },
            {
              "internalType": "string",
              "name": "description",
              "type": "string"
            },
            {
              "internalType": "enum CredentialTypeManagerSimple.CredentialCategory",
              "name": "category",
              "type": "uint8"
            },
            {
              "internalType": "enum CredentialTypeManagerSimple.CredentialStatus",
              "name": "status",
              "type": "uint8"
            },
            {
              "internalType": "uint256",
              "name": "defaultValidityPeriod",
              "type": "uint256"
            },
            {
              "internalType": "bool",
              "name": "requiresBiometric",
              "type": "bool"
            },
            {
              "internalType": "bool",
              "name": "requiresDocumentProof",
              "type": "bool"
            },
            {
              "internalType": "uint256",
              "name": "creationTimestamp",
              "type": "uint256"
            },
            {
              "internalType": "address",
              "name": "createdBy",
              "type": "address"
            },
            {
              "internalType": "string",
              "name": "version",
              "type": "string"
            }
          ],
          "internalType": "struct CredentialTypeManagerSimple.CredentialType",
          "name": "credentialType",
          "type": "tuple"
        }
      ],
      "stateMutability": "view",
      "type": "function"
    },
    {
      "inputs": [],
      "name": "getCredentialTypeStatistics",
      "outputs": [
        {
          "internalType": "uint256",
          "name": "totalTypes",
          "type": "uint256"
        },
        {
          "internalType": "uint256",
          "name": "activeTypes",
          "type": "uint256"
        },
        {
          "internalType": "uint256",
          "name": "categoriesCount",
          "type": "uint256"
        }
      ],
      "stateMutability": "view",
      "type": "function"
    },
    {
      "inputs": [
        {
          "internalType": "enum CredentialTypeManagerSimple.CredentialCategory",
          "name": "category",
          "type": "uint8"
        }
      ],
      "name": "getCredentialTypesByCategory",
      "outputs": [
        {
          "internalType": "string[]",
          "name": "credentialTypeIds",
          "type": "string[]"
        }
      ],
      "stateMutability": "view",
      "type": "function"
    },
    {
      "inputs": [
        {
          "internalType": "address",
          "name": "writer",
          "type": "address"
        }
      ],
      "name": "isAuthorizedWriter",
      "outputs": [
        {
          "internalType": "bool",
          "name": "",
          "type": "bool"
        }
      ],
      "stateMutability": "view",
      "type": "function"
    },
    {
      "inputs": [
        {
          "internalType": "string",
          "name": "credentialTypeId",
          "type": "string"
        }
      ],
      "name": "isCredentialTypeActive",
      "outputs": [
        {
          "internalType": "bool",
          "name": "",
          "type": "bool"
        }
      ],
      "stateMutability": "view",
      "type": "function"
    },
    {
      "inputs": [],
      "name": "owner",
      "outputs": [
        {
          "internalType": "address",
          "name": "",
          "type": "address"
        }
      ],
      "stateMutability": "view",
      "type": "function"
    },
    {
      "inputs": [
        {
          "internalType": "address",
          "name": "writer",
          "type": "address"
        },
        {
          "internalType": "bool",
          "name": "authorized",
          "type": "bool"
        }
      ],
      "name": "setAuthorizedWriter",
      "outputs": [],
      "stateMutability": "nonpayable",
      "type": "function"
    },
    {
      "inputs": [
        {
          "internalType": "string",
          "name": "credentialTypeId",
          "type": "string"
        },
        {
          "internalType": "enum CredentialTypeManagerSimple.CredentialStatus",
          "name": "status",
          "type": "uint8"
        }
      ],
      "name": "updateCredentialTypeStatus",
      "outputs": [],
      "stateMutability": "nonpayable",
      "type": "function"
    }
  ],
  "bytecode": "0x60803462001471576001600081815581546001600160a01b0319163390811783558152600260205260409020805460ff1916909117905560a081016001600160401b0381118282101762000dce57604052600081526001602082015260026040820152600360608201526004608082015260065460056006558060051062001406575b506006600052602060002060009160005b60058110620013d6575050556001546001600160a01b0316620000b562001476565b90620000c062001497565b600c81526b6b79632d6964656e7469747960a01b60208201528252620000e562001497565b601981527f4b5943204964656e7469747920566572696669636174696f6e00000000000000602082015260208301526200011e620014b7565b603381527f4964656e7469747920766572696669636174696f6e2063726564656e7469616c60208201527f20666f72204b594320636f6d706c69616e63650000000000000000000000000060408201526040830152600060608301526000608083015261016d60a0830152600060c0830152600160e083015242610100830152610120820152620001ae62001497565b60058152640312e302e360dc1b60208201526101408201526040516b6b79632d6964656e7469747960a01b81526003600c820152602c9020815180519092906001600160401b03811162000dce5762000214816200020d8554620014f0565b856200155a565b6020601f82116001146200136957819293946000926200135d575b50508160011b916000199060031b1c19161782555b602081015180519092906001600160401b03811162000dce576200027b81620002716001850154620014f0565b600185016200155a565b6020601f8211600114620012ea5781929394600092620012de575b50508160011b916000199060031b1c19161760018201555b604082015180519092906001600160401b03811162000dce57620002e581620002db6002860154620014f0565b600286016200155a565b6020601f82116001146200126b57819293946000926200125f575b50508160011b916000199060031b1c19161760028301555b606081015190600582101562000e5957600383015491608082015192600484101562000e595760ff61ff006101409560081b1692169061ffff19161717600384015560a08101516004840155600583016200038560c08301511515829060ff801983541691151516179055565b60e0820151815461ff00191690151560081b61ff001617905561010081015160068401556101208101516007840180546001600160a01b0319166001600160a01b039290921691909117905501518051906001600160401b03821162000dce576200040382620003f96008860154620014f0565b600886016200155a565b602090601f8311600114620011ea576008929160009183620011de575b50508160011b916000199060031b1c1916179101555b6001546001600160a01b03166200044c62001476565b906200045762001497565b601081526f66696e616e6369616c2d73746174757360801b602082015282526200048062001497565b601d81527f46696e616e6369616c2053746174757320566572696669636174696f6e00000060208201526020830152620004b9620014b7565b603381527f46696e616e6369616c2073746174757320616e6420696e636f6d65207665726960208201527f6669636174696f6e2063726564656e7469616c0000000000000000000000000060408201526040830152600160608301526000608083015260b460a0830152600060c0830152600160e0830152426101008301526101208201526200054862001497565b60058152640312e302e360dc1b60208201526101408201526040516f66696e616e6369616c2d73746174757360801b81526003601082015260309020815180519092906001600160401b03811162000dce57620005ab816200020d8554620014f0565b6020601f821160011462001171578192939460009262001165575b50508160011b916000199060031b1c19161782555b602081015180519092906001600160401b03811162000dce576200060881620002716001850154620014f0565b6020601f8211600114620010f25781929394600092620010e6575b50508160011b916000199060031b1c19161760018201555b604082015180519092906001600160401b03811162000dce576200066881620002db6002860154620014f0565b6020601f821160011462001073578192939460009262001067575b50508160011b916000199060031b1c19161760028301555b606081015190600582101562000e5957600383015491608082015192600484101562000e595760ff61ff006101409560081b1692169061ffff19161717600384015560a08101516004840155600583016200070860c08301511515829060ff801983541691151516179055565b60e0820151815461ff00191690151560081b61ff001617905561010081015160068401556101208101516007840180546001600160a01b0319166001600160a01b039290921691909117905501518051906001600160401b03821162000dce576200077c82620003f96008860154620014f0565b602090601f831160011462000ff257600892916000918362000fe6575b50508160011b916000199060031b1c1916179101555b6001546001600160a01b0316620007c562001476565b90620007d062001497565b601981527f70726f66657373696f6e616c2d766572696669636174696f6e00000000000000602082015282526200080662001497565b601981527f50726f66657373696f6e616c20566572696669636174696f6e00000000000000602082015260208301526200083f620014b7565b603381527f50726f66657373696f6e616c207175616c696669636174696f6e7320616e642060208201527f73746174757320766572696669636174696f6e000000000000000000000000006040820152604083015260026060830152600060808301526102da60a0830152600060c0830152600160e083015242610100830152610120820152620008cf62001497565b60058152640312e302e360dc1b60208201526101408201526040517f70726f66657373696f6e616c2d766572696669636174696f6e000000000000008152600360198201526039902081518051909291906001600160401b03811162000dce576200094781620009408454620014f0565b846200155a565b6020601f821160011462000f79578192939460009262000f6d575b50508160011b916000199060031b1c19161781555b602082015180519092906001600160401b03811162000dce57620009ae81620009a46001860154620014f0565b600186016200155a565b6020601f821160011462000efa578192939460009262000eee575b50508160011b916000199060031b1c19161760018301555b604081015180519092906001600160401b03811162000dce5762000a188162000a0e6002850154620014f0565b600285016200155a565b6020601f821160011462000e7b578192939460009262000e6f575b50508160011b916000199060031b1c19161760028201555b6060820151600581101562000e5957600382015491608084015191600483101562000e59576101409360ff61ff00600895861b1692169061ffff19161717600382015560a084015160048201556005810162000ab960c08601511515829060ff801983541691151516179055565b60e0850151815461ff001916901515841b61ff001617905561010084015160068201556101208401516007820180546001600160a01b0319166001600160a01b039290921691909117905591909201518051909291909101906001600160401b03811162000dce5762000b3281620009408454620014f0565b602092601f821160011462000df0579281929360009262000de4575b50508160011b916000199060031b1c19161790555b60055468010000000000000000908181101562000dce5780600162000b8c9201600555620015a4565b91909162000db85762000bab62000ba48354620014f0565b836200152d565b7f6b79632d6964656e746974790000000000000000000000000000000000000018918290556005548181101562000dce5780600162000bee9201600555620015a4565b62000db85762000c0a62000c038254620014f0565b826200152d565b7f66696e616e6369616c2d73746174757300000000000000000000000000000020908190556005548281101562000dce5780600162000c4d9201600555620015a4565b93909362000db85762000c6c62000c658554620014f0565b856200152d565b7f70726f66657373696f6e616c2d766572696669636174696f6e00000000000032938490556000805260046020527f17ef568e3e12ab5b9c7254a8d58478811de00f9e6eb34345acd53bf8fd09d3ec80548481101562000dce5762000cd791600182018155620015d6565b62000db85762000cec62000c038254620014f0565b55600160005260046020527fabd6e7cb50984ff9c2f3e18a2660c3353dadf4e3291deeb275dae2cd1e44fe0580548381101562000dce5762000d3491600182018155620015d6565b62000db85762000d4962000c038254620014f0565b55600260005260046020527f91da3fd0782e51c6b3986e9e672fd566868e71f3dbc2d6c2cd6fbb3e361af2a78054909181101562000dce5762000d9291600182018155620015d6565b62000db85762000da762000c038254620014f0565b5560405161203a9081620015f08239f35b634e487b7160e01b600052600060045260246000fd5b634e487b7160e01b600052604160045260246000fd5b01519050388062000b4e565b601f198216938360005260206000209160005b86811062000e40575083600195961062000e26575b505050811b01905562000b63565b015160001960f88460031b161c1916905538808062000e18565b9192602060018192868501518155019401920162000e03565b634e487b7160e01b600052602160045260246000fd5b01519050388062000a33565b6002830160005260206000209060005b601f198416811062000ed55750600193949583601f1981161062000ebb575b505050811b01600282015562000a4b565b015160001960f88460031b161c1916905538808062000eaa565b9091602060018192858a01518155019301910162000e8b565b015190503880620009c9565b6001840160005260206000209060005b601f198416811062000f545750600193949583601f1981161062000f3a575b505050811b016001830155620009e1565b015160001960f88460031b161c1916905538808062000f29565b9091602060018192858a01518155019301910162000f0a565b01519050388062000962565b8260005260206000209060005b601f198416811062000fcd5750600193949583601f1981161062000fb3575b505050811b01815562000977565b015160001960f88460031b161c1916905538808062000fa5565b9091602060018192858a01518155019301910162000f86565b01519050388062000799565b906008840160005260206000209160005b601f19851681106200104e5750918391600193600895601f1981161062001034575b505050811b01910155620007af565b015160001960f88460031b161c1916905538808062001025565b9192602060018192868501518155019401920162001003565b01519050388062000683565b6002840160005260206000209060005b601f1984168110620010cd5750600193949583601f19811610620010b3575b505050811b0160028301556200069b565b015160001960f88460031b161c19169055388080620010a2565b9091602060018192858a01518155019301910162001083565b01519050388062000623565b6001830160005260206000209060005b601f19841681106200114c5750600193949583601f1981161062001132575b505050811b0160018201556200063b565b015160001960f88460031b161c1916905538808062001121565b9091602060018192858a01518155019301910162001102565b015190503880620005c6565b8360005260206000209060005b601f1984168110620011c55750600193949583601f19811610620011ab575b505050811b018255620005db565b015160001960f88460031b161c191690553880806200119d565b9091602060018192858a0151815501930191016200117e565b01519050388062000420565b906008840160005260206000209160005b601f1985168110620012465750918391600193600895601f198116106200122c575b505050811b0191015562000436565b015160001960f88460031b161c191690553880806200121d565b91926020600181928685015181550194019201620011fb565b01519050388062000300565b6002840160005260206000209060005b601f1984168110620012c55750600193949583601f19811610620012ab575b505050811b01600283015562000318565b015160001960f88460031b161c191690553880806200129a565b9091602060018192858a0151815501930191016200127b565b01519050388062000296565b6001830160005260206000209060005b601f1984168110620013445750600193949583601f198116106200132a575b505050811b016001820155620002ae565b015160001960f88460031b161c1916905538808062001319565b9091602060018192858a015181550193019101620012fa565b0151905038806200022f565b8360005260206000209060005b601f1984168110620013bd5750600193949583601f19811610620013a3575b505050811b01825562000244565b015160001960f88460031b161c1916905538808062001395565b9091602060018192858a01518155019301910162001376565b9092835190600582101562000e59576001916020918460031b9160ff809116831b921b1916179401910162000093565b60066000527ff652222313e28459528d920b65115c16c04f3efc82aaedc97be59f3f377c0d3f805464ffffffffff1681556200146a91601f0160051c017ff652222313e28459528d920b65115c16c04f3efc82aaedc97be59f3f377c0d40620014d7565b3862000082565b600080fd5b6040519061016082016001600160401b0381118382101762000dce57604052565b60408051919082016001600160401b0381118382101762000dce57604052565b60405190606082016001600160401b0381118382101762000dce57604052565b818110620014e3575050565b60008155600101620014d7565b90600182811c9216801562001522575b60208310146200150c57565b634e487b7160e01b600052602260045260246000fd5b91607f169162001500565b90601f81116200153b575050565b6200155891600052601f6020600020910160051c810190620014d7565b565b9190601f81116200156a57505050565b62001558926000526020600020906020601f840160051c8301931062001599575b601f0160051c0190620014d7565b90915081906200158b565b600554811015620015c057600560005260206000200190600090565b634e487b7160e01b600052603260045260246000fd5b8054821015620015c0576000526020600020019060009056fe6080604052600436101561001257600080fd5b60003560e01c806304801b2014611605578063526241a8146115c6578063542a086c146114b9578063662c565e14611420578063685496f0146113b95780636f1757861461137657806381b81bd0146112dc57806381e4ab0c14610dab5780638da5cb5b14610d8457806390cc1d7114610c45578063ad6e823b14610bdb578063c8fdf83314610aa7578063cb2cdf7e14610a5c578063dadd0a571461029b578063e9371c58146101f45763ea22bdfb146100cc57600080fd5b346101ef5760003660031901126101ef57600060055460065460005b828110610105575060609260405192835260208301526040820152f35b61010e81611a04565b5060405190600090805461012181611a69565b916001918083169081156101d55750600114610199575b50505081602060ff9360039384815203019020015460081c166004811015610183571561016e575b61016990611e5d565b6100e8565b9261017b61016991611e5d565b939050610160565b634e487b7160e01b600052602160045260246000fd5b9091925060005260209081600020906000915b8483106101c457505050908201905060ff3880610138565b8054868401529183019181016101ac565b60ff19168652505050801515028201905060ff3880610138565b600080fd5b346101ef5760203660031901126101ef5760043567ffffffffffffffff81116101ef576003610277602061022e60ff9436906004016118ba565b604051906102666001600160a01b03600783519486818187019761025381838b611911565b81018b8152030190200154161515611dd9565b604051938492839251928391611911565b810184815203019020015460081c1660048110156101835760209060405190158152f35b346101ef5760003660031901126101ef57604051806006549081835260208093019181848460066000527ff652222313e28459528d920b65115c16c04f3efc82aaedc97be59f3f377c0d3f6000905b85601f8301106107ec5794610408955491848282106107d2575b8282106107b5575b828210610798575b82821061077b575b82821061075f575b828210610742575b828210610725575b828210610708575b8282106106eb575b8282106106ce575b8282106106b1575b828210610694575b828210610677575b82821061065a575b82821061063d575b828210610620575b828210610603575b8282106105e6575b8282106105c9575b8282106105ac575b82821061058f575b828210610572575b828210610555575b828210610538575b82821061051b575b8282106104fe575b8282106104e1575b8282106104c4575b8282106104a7575b82821061048a575b82821061046d575b5010610457575b5090509392930383611898565b604051928392818401908285525180915260408401929160005b82811061043157505050500390f35b9193839550908082610447600194839751611959565b0195019101918594939192610422565b816104649160f81c611959565b018590876103fb565b846104816001939660ff8760f01c16611959565b019301846103f4565b8461049e6001939660ff8760e81c16611959565b019301846103ec565b846104bb6001939660ff8760e01c16611959565b019301846103e4565b846104d86001939660ff8760d81c16611959565b019301846103dc565b846104f56001939660ff8760d01c16611959565b019301846103d4565b846105126001939660ff8760c81c16611959565b019301846103cc565b8461052f6001939660ff8760c01c16611959565b019301846103c4565b8461054c6001939660ff8760b81c16611959565b019301846103bc565b846105696001939660ff8760b01c16611959565b019301846103b4565b846105866001939660ff8760a81c16611959565b019301846103ac565b846105a36001939660ff8760a01c16611959565b019301846103a4565b846105c06001939660ff8760981c16611959565b0193018461039c565b846105dd6001939660ff8760901c16611959565b01930184610394565b846105fa6001939660ff8760881c16611959565b0193018461038c565b846106176001939660ff8760801c16611959565b01930184610384565b846106346001939660ff8760781c16611959565b0193018461037c565b846106516001939660ff8760701c16611959565b01930184610374565b8461066e6001939660ff8760681c16611959565b0193018461036c565b8461068b6001939660ff8760601c16611959565b01930184610364565b846106a86001939660ff8760581c16611959565b0193018461035c565b846106c56001939660ff8760501c16611959565b01930184610354565b846106e26001939660ff8760481c16611959565b0193018461034c565b846106ff6001939660ff8760401c16611959565b01930184610344565b8461071c6001939660ff8760381c16611959565b0193018461033c565b846107396001939660ff8760301c16611959565b01930184610334565b846107566001939660ff8760281c16611959565b0193018461032c565b846107726001939660ff87851c16611959565b01930184610324565b8461078f6001939660ff8760181c16611959565b0193018461031c565b846107ac6001939660ff8760101c16611959565b01930184610314565b846107c96001939660ff8760081c16611959565b0193018461030c565b846107e36001939660ff8716611959565b01930184610304565b9350916001610400829693610a4d8754610a3f60ff61080d85828516611959565b61081e888601828560081c16611959565b61083060408601828560101c16611959565b6109d085610988606061084a818401868960181c16611959565b6109408c610861608091888b848901921c16611959565b6108f860a0936108788588018a8d60281c16611959565b888b61018060c0996108918b8201858560301c16611959565b6108a360e08201858560381c16611959565b6108b66101008201858560401c16611959565b6108c96101208201858560481c16611959565b6108dc6101408201858560501c16611959565b6108ef6101608201858560581c16611959565b01921c16611959565b61090b6101a08c01888b60681c16611959565b61091e6101c08c01888b60701c16611959565b6109316101e08c01888b60781c16611959565b86896102008d01921c16611959565b6109536102208a01868960881c16611959565b6109666102408a01868960901c16611959565b6109796102608a01868960981c16611959565b84876102808b01921c16611959565b61099b6102a08801848760a81c16611959565b6109ae6102c08801848760b01c16611959565b6109c16102e08801848760b81c16611959565b82856103008901921c16611959565b6109e36103208601828560c81c16611959565b6109f66103408601828560d01c16611959565b610a096103608601828560d81c16611959565b610a1c6103808601828560e01c16611959565b610a2f6103a08601828560e81c16611959565b6103c08501908360f01c16611959565b6103e083019060f81c611959565b019401920185939194926102ea565b346101ef5760203660031901126101ef576004356005548110156101ef57610a8f610a89610aa392611a04565b90611b49565b604051918291602083526020830190611934565b0390f35b346101ef5760403660031901126101ef5760043567ffffffffffffffff81116101ef57610ad89036906004016118ba565b6024359060048210156101ef576020610bac7feee90e57f3f271d34e6b67cd01b7e79c53f1ebe66ac2f0f6fd4cbdb100f0a26892336000526002835260ff604060002054168015610bc2575b610b2d90611b5a565b610ba7856003610b9886604051610b6e6001600160a01b0360078951938581818d0196610b5b81838a611911565b81018a8152030190200154161515611dd9565b610b76611d84565b610b87610b81611bf0565b88611f2c565b604051809381928951928391611911565b81018481520301902001611d45565b611d64565b92610bba6040518092611966565ba26001600055005b50610b2d6001600160a01b036001541633149050610b24565b346101ef5760203660031901126101ef576020610bf6611973565b610c07610c01611e24565b82611eb2565b6001600160a01b03809116806000526002835260ff60406000205416918215610c37575b50506040519015158152f35b600154161490508280610c2b565b346101ef5760203660031901126101ef5760043567ffffffffffffffff81116101ef576020610c7b610c8e9236906004016118ba565b8160405193828580945193849201611911565b81016003815203019020610d15610aa3610ca783611aa3565b92610cb460018201611aa3565b93610cc160028301611aa3565b9160038101549260ff6004830154600584015490610d50610d31600687015495610d23610cfe60086001600160a01b0360078c0154169a01611aa3565b996040519e8f9e8f92610160808552840190611934565b916020818403910152611934565b8c810360408e015290611934565b97610d4160608c01868316611959565b8460808c019160081c16611966565b60a0890152818116151560c089015260081c16151560e0870152610100860152610120850152838203610140850152611934565b346101ef5760003660031901126101ef5760206001600160a01b0360015416604051908152f35b346101ef576101003660031901126101ef5767ffffffffffffffff6004358181116101ef57610dde9036906004016118ba565b6024358281116101ef57610df69036906004016118ba565b916044358181116101ef57610e0f9036906004016118ba565b6005606435109182156101ef5760a4359283151584036101ef5760c4359182151583036101ef5760e4359081116101ef57610e51610e799136906004016118ba565b9133600052600260205260ff6040600020541680156112c3575b610e7490611b5a565b611ba5565b610e81611d84565b610e92610e8c611bf0565b86611f2c565b610ed1604051610ea18161187c565b600481527f6e616d6500000000000000000000000000000000000000000000000000000000602082015287611f2c565b610f10604051610ee08161187c565b600b81527f6465736372697074696f6e000000000000000000000000000000000000000000602082015284611f2c565b610f4f604051610f1f8161187c565b600781527f76657273696f6e00000000000000000000000000000000000000000000000000602082015282611f2c565b610ff5610fb5610feb603a604051610f668161187c565b60158152602081017f64656661756c7456616c6964697479506572696f640000000000000000000000815260405194859267024b73b30b634b2160c51b60208501525180926028850190611911565b81017f3a206d75737420626520706f7369746976650000000000000000000000000000602882015203601a810184520182611898565b6084351515611e82565b6001600160a01b036007604051602081816110168b83815193849201611911565b8101600381520301902001541661127f57604051926110348461185f565b85845260208401908782526040850190815260608501956064356110589088611c29565b60808601946000865260a0870195608435875260c08801921515835260e0880191151582526101008801934285526101208901953387526101408a01978852604051808d8181516020819301916110ae92611911565b81016003815203602001902099516110c6908b611c35565b516110d49060018b01611c35565b516110e29060028a01611c35565b60038801985160058110156101835760ff80198b5416911617895551956004871015610183576111176008976111939a611d45565b51600488015561113a6005880192511515839060ff801983541691151516179055565b51151561ff00825491871b169061ff0019161790555160068501556001600160a01b03600785019151167fffffffffffffffffffffffff0000000000000000000000000000000000000000825416179055519101611c35565b61119e6064356119eb565b805490680100000000000000009182811015611269576111c391600182018155611a51565b61125357826111d191611c35565b60055490811015611269578060016111ec9201600555611a04565b9190916112535761122581610ba761123a937fcd0bff200e8d8b3aaf104aa45852150c7d6f05469560808263dd1e413b18c8f795611c35565b92604051918291604083526040830190611934565b61124960208301606435611959565b0390a26001600055005b634e487b7160e01b600052600060045260246000fd5b634e487b7160e01b600052604160045260246000fd5b606460405162461bcd60e51b815260206004820152601e60248201527f43726564656e7469616c207479706520616c72656164792065786973747300006044820152fd5b50610e746001600160a01b036001541633149050610e6b565b346101ef5760003660031901126101ef5760055467ffffffffffffffff811161126957604051602091611314838260051b0183611898565b80825282820160056000527f036b6384b5eca791c62761152d0c79bb0604c104a5fb6f4eb0703f3154bb3db0936000915b83831061135a5760405180610aa38782611989565b600182819261136889611aa3565b815201960192019194611345565b346101ef5760403660031901126101ef5760043560058110156101ef5761139f602435916119eb565b9081548110156101ef57610a89610a8f91610aa393611a51565b346101ef5760203660031901126101ef576004356006548110156101ef5760f861141e602092600660005260ff8160051c7ff652222313e28459528d920b65115c16c04f3efc82aaedc97be59f3f377c0d3f015460405194859360031b161c16611959565bf35b346101ef576020806003193601126101ef57600435600581109081156101ef5761144c61145192611ba5565b6119eb565b90815467ffffffffffffffff811161126957829060405191611478848360051b0184611898565b8183526000908152838120938084015b83831061149d5760405180610aa38782611989565b60018281926114ab89611aa3565b815201960192019194611488565b346101ef5760403660031901126101ef576114d2611973565b602435908115158083036101ef576001600160a01b03908160015416330361155c5761154e6020927e8ebc621f24e0e9d1fd4ee2f7df9bb80c8d61ee30a9167a4fee6cefcf8c021e94611523611d84565b61152e610c01611e24565b1694856000526002845260406000209060ff801983541691151516179055565b604051908152a26001600055005b608460405162461bcd60e51b815260206004820152602160248201527f4f6e6c79206f776e65722063616e2063616c6c20746869732066756e6374696f60448201527f6e000000000000000000000000000000000000000000000000000000000000006064820152fd5b346101ef5760203660031901126101ef576001600160a01b036115e7611973565b166000526002602052602060ff604060002054166040519015158152f35b346101ef5760203660031901126101ef5760043567ffffffffffffffff81116101ef57602061163b6116c79236906004016118ba565b606061014060405161164c8161185f565b828152828582015282604082015260008382015260006080820152600060a0820152600060c0820152600060e0820152600061010082015260006101208201520152604051906102666001600160a01b0360078351948681818701976116b381838b611911565b810160038152030190200154161515611dd9565b810160038152030190206040516116dd8161185f565b6116e682611aa3565b81526116f460018301611aa3565b602082015261170560028301611aa3565b604082015260ff600383015461172082821660608501611c29565b60081c1691600483101561018357600861178791610aa3946080850152600481015460a085015260ff6005820154818116151560c0870152831c16151560e085015260068101546101008501526001600160a01b0360078201541661012085015201611aa3565b610140820152604051918291602083526101406117e46117ce6117b884516101606020890152610180880190611934565b6020850151878203601f19016040890152611934565b6040840151868203601f19016060880152611934565b916117f760608201516080870190611959565b611809608082015160a0870190611966565b60a081015160c086015260c0810151151560e086015260e081015115156101008601526101008101516101208601526001600160a01b0361012082015116828601520151601f1984830301610160850152611934565b610160810190811067ffffffffffffffff82111761126957604052565b6040810190811067ffffffffffffffff82111761126957604052565b90601f8019910116810190811067ffffffffffffffff82111761126957604052565b81601f820112156101ef5780359067ffffffffffffffff821161126957604051926118ef601f8401601f191660200185611898565b828452602083830101116101ef57816000926020809301838601378301015290565b60005b8381106119245750506000910152565b8181015183820152602001611914565b9060209161194d81518092818552858086019101611911565b601f01601f1916010190565b9060058210156101835752565b9060048210156101835752565b600435906001600160a01b03821682036101ef57565b602080820190808352835180925260408301928160408460051b8301019501936000915b8483106119bd5750505050505090565b90919293949584806119db600193603f198682030187528a51611934565b98019301930191949392906119ad565b6005811015610183576000526004602052604060002090565b600554811015611a3b5760056000527f036b6384b5eca791c62761152d0c79bb0604c104a5fb6f4eb0703f3154bb3db00190600090565b634e487b7160e01b600052603260045260246000fd5b8054821015611a3b5760005260206000200190600090565b90600182811c92168015611a99575b6020831014611a8357565b634e487b7160e01b600052602260045260246000fd5b91607f1691611a78565b9060405191826000825492611ab784611a69565b908184526001948581169081600014611b265750600114611ae3575b5050611ae192500383611898565b565b9093915060005260209081600020936000915b818310611b0e575050611ae193508201013880611ad3565b85548884018501529485019487945091830191611af6565b915050611ae194506020925060ff191682840152151560051b8201013880611ad3565b9061125357611b5790611aa3565b90565b15611b6157565b606460405162461bcd60e51b815260206004820152601760248201527f4e6f7420617574686f72697a656420746f2077726974650000000000000000006044820152fd5b15611bac57565b606460405162461bcd60e51b815260206004820152601b60248201527f496e76616c69642063726564656e7469616c2063617465676f727900000000006044820152fd5b60405190611bfd8261187c565b601082527f63726564656e7469616c547970654964000000000000000000000000000000006020830152565b60058210156101835752565b919091825167ffffffffffffffff811161126957611c538254611a69565b601f8111611cfd575b50602080601f8311600114611c99575081929394600092611c8e575b50508160011b916000199060031b1c1916179055565b015190503880611c78565b90601f198316958460005282600020926000905b888210611ce557505083600195969710611ccc575b505050811b019055565b015160001960f88460031b161c19169055388080611cc2565b80600185968294968601518155019501930190611cad565b600083815260208120601f840160051c81019260208510611d3b575b601f0160051c01915b828110611d30575050611c5c565b818155600101611d22565b9092508290611d19565b9060048110156101835761ff0082549160081b169061ff001916179055565b611d7c90602060405192828480945193849201611911565b810103902090565b600260005414611d95576002600055565b606460405162461bcd60e51b815260206004820152601f60248201527f5265656e7472616e637947756172643a207265656e7472616e742063616c6c006044820152fd5b15611de057565b606460405162461bcd60e51b815260206004820152601960248201527f43726564656e7469616c2074797065206e6f7420666f756e64000000000000006044820152fd5b60405190611e318261187c565b600682527f77726974657200000000000000000000000000000000000000000000000000006020830152565b6000198114611e6c5760010190565b634e487b7160e01b600052601160045260246000fd5b15611e8a5750565b611eae9060405191829162461bcd60e51b8352602060048401526024830190611934565b0390fd5b906001600160a01b03611ae192611f246036604051809567024b73b30b634b2160c51b6020830152611eee815180926020602886019101611911565b81017f3a207a65726f20616464726573730000000000000000000000000000000000006028820152036016810186520184611898565b161515611e82565b906020611faa6039611ae1946101008151151591611faf60405167024b73b30b634b2160c51b948589830152611faa6036838c611f7481519d8e92019d8e6028850190611911565b81017f3a20656d70747920737472696e670000000000000000000000000000000000006028820152036016810185520183611898565b611e82565b51111593611fce60405196879360208501525180926028850190611911565b81017f3a20737472696e6720746f6f206c6f6e67000000000000000000000000000000602882015203601981018552018361189856fea2646970667358221220d9c2a61eeb9d90481c12364978d6e0956b32ba21004afdbf530a9d890d1b761664736f6c63430008140033",
  "linkReferences": {},
  "deployedLinkReferences": {}
}