{
  "_format": "hh-sol-artifact-1",
  "contractName": "CredentialTypeManagerSimple",
  "sourceName": "contracts/utility/CredentialTypeManagerSimple.sol",
  "abi": [
    {
      "inputs": [],
      "stateMutability": "nonpayable",
      "type": "constructor"
    },
    {
      "anonymous": false,
      "inputs": [
        {
          "indexed": true,
          "internalType": "address",
          "name": "writer",
          "type": "address"
        },
        {
          "indexed": false,
          "internalType": "bool",
          "name": "authorized",
          "type": "bool"
        }
      ],
      "name": "AuthorizedWriterUpdated",
      "type": "event"
    },
    {
      "anonymous": false,
      "inputs": [
        {
          "indexed": true,
          "internalType": "string",
          "name": "credentialTypeId",
          "type": "string"
        },
        {
          "indexed": false,
          "internalType": "string",
          "name": "name",
          "type": "string"
        },
        {
          "indexed": false,
          "internalType": "enum CredentialTypeManagerSimple.CredentialCategory",
          "name": "category",
          "type": "uint8"
        }
      ],
      "name": "CredentialTypeCreated",
      "type": "event"
    },
    {
      "anonymous": false,
      "inputs": [
        {
          "indexed": true,
          "internalType": "string",
          "name": "credentialTypeId",
          "type": "string"
        },
        {
          "indexed": false,
          "internalType": "enum CredentialTypeManagerSimple.CredentialStatus",
          "name": "status",
          "type": "uint8"
        }
      ],
      "name": "CredentialTypeUpdated",
      "type": "event"
    },
    {
      "inputs": [
        {
          "internalType": "uint256",
          "name": "",
          "type": "uint256"
        }
      ],
      "name": "allCategories",
      "outputs": [
        {
          "internalType": "enum CredentialTypeManagerSimple.CredentialCategory",
          "name": "",
          "type": "uint8"
        }
      ],
      "stateMutability": "view",
      "type": "function"
    },
    {
      "inputs": [
        {
          "internalType": "uint256",
          "name": "",
          "type": "uint256"
        }
      ],
      "name": "allCredentialTypeIds",
      "outputs": [
        {
          "internalType": "string",
          "name": "",
          "type": "string"
        }
      ],
      "stateMutability": "view",
      "type": "function"
    },
    {
      "inputs": [
        {
          "internalType": "address",
          "name": "",
          "type": "address"
        }
      ],
      "name": "authorizedWriters",
      "outputs": [
        {
          "internalType": "bool",
          "name": "",
          "type": "bool"
        }
      ],
      "stateMutability": "view",
      "type": "function"
    },
    {
      "inputs": [
        {
          "internalType": "string",
          "name": "credentialTypeId",
          "type": "string"
        },
        {
          "internalType": "string",
          "name": "name",
          "type": "string"
        },
        {
          "internalType": "string",
          "name": "description",
          "type": "string"
        },
        {
          "internalType": "enum CredentialTypeManagerSimple.CredentialCategory",
          "name": "category",
          "type": "uint8"
        },
        {
          "internalType": "uint256",
          "name": "defaultValidityPeriod",
          "type": "uint256"
        },
        {
          "internalType": "bool",
          "name": "requiresBiometric",
          "type": "bool"
        },
        {
          "internalType": "bool",
          "name": "requiresDocumentProof",
          "type": "bool"
        },
        {
          "internalType": "string",
          "name": "version",
          "type": "string"
        }
      ],
      "name": "createCredentialType",
      "outputs": [],
      "stateMutability": "nonpayable",
      "type": "function"
    },
    {
      "inputs": [
        {
          "internalType": "string",
          "name": "",
          "type": "string"
        }
      ],
      "name": "credentialTypes",
      "outputs": [
        {
          "internalType": "string",
          "name": "credentialTypeId",
          "type": "string"
        },
        {
          "internalType": "string",
          "name": "name",
          "type": "string"
        },
        {
          "internalType": "string",
          "name": "description",
          "type": "string"
        },
        {
          "internalType": "enum CredentialTypeManagerSimple.CredentialCategory",
          "name": "category",
          "type": "uint8"
        },
        {
          "internalType": "enum CredentialTypeManagerSimple.CredentialStatus",
          "name": "status",
          "type": "uint8"
        },
        {
          "internalType": "uint256",
          "name": "defaultValidityPeriod",
          "type": "uint256"
        },
        {
          "internalType": "bool",
          "name": "requiresBiometric",
          "type": "bool"
        },
        {
          "internalType": "bool",
          "name": "requiresDocumentProof",
          "type": "bool"
        },
        {
          "internalType": "uint256",
          "name": "creationTimestamp",
          "type": "uint256"
        },
        {
          "internalType": "address",
          "name": "createdBy",
          "type": "address"
        },
        {
          "internalType": "string",
          "name": "version",
          "type": "string"
        }
      ],
      "stateMutability": "view",
      "type": "function"
    },
    {
      "inputs": [
        {
          "internalType": "enum CredentialTypeManagerSimple.CredentialCategory",
          "name": "",
          "type": "uint8"
        },
        {
          "internalType": "uint256",
          "name": "",
          "type": "uint256"
        }
      ],
      "name": "credentialTypesByCategory",
      "outputs": [
        {
          "internalType": "string",
          "name": "",
          "type": "string"
        }
      ],
      "stateMutability": "view",
      "type": "function"
    },
    {
      "inputs": [],
      "name": "getAllCategories",
      "outputs": [
        {
          "internalType": "enum CredentialTypeManagerSimple.CredentialCategory[]",
          "name": "categories",
          "type": "uint8[]"
        }
      ],
      "stateMutability": "view",
      "type": "function"
    },
    {
      "inputs": [],
      "name": "getAllCredentialTypeIds",
      "outputs": [
        {
          "internalType": "string[]",
          "name": "credentialTypeIds",
          "type": "string[]"
        }
      ],
      "stateMutability": "view",
      "type": "function"
    },
    {
      "inputs": [
        {
          "internalType": "string",
          "name": "credentialTypeId",
          "type": "string"
        }
      ],
      "name": "getCredentialType",
      "outputs": [
        {
          "components": [
            {
              "internalType": "string",
              "name": "credentialTypeId",
              "type": "string"
            },
            {
              "internalType": "string",
              "name": "name",
              "type": "string"
            },
            {
              "internalType": "string",
              "name": "description",
              "type": "string"
            },
            {
              "internalType": "enum CredentialTypeManagerSimple.CredentialCategory",
              "name": "category",
              "type": "uint8"
            },
            {
              "internalType": "enum CredentialTypeManagerSimple.CredentialStatus",
              "name": "status",
              "type": "uint8"
            },
            {
              "internalType": "uint256",
              "name": "defaultValidityPeriod",
              "type": "uint256"
            },
            {
              "internalType": "bool",
              "name": "requiresBiometric",
              "type": "bool"
            },
            {
              "internalType": "bool",
              "name": "requiresDocumentProof",
              "type": "bool"
            },
            {
              "internalType": "uint256",
              "name": "creationTimestamp",
              "type": "uint256"
            },
            {
              "internalType": "address",
              "name": "createdBy",
              "type": "address"
            },
            {
              "internalType": "string",
              "name": "version",
              "type": "string"
            }
          ],
          "internalType": "struct CredentialTypeManagerSimple.CredentialType",
          "name": "credentialType",
          "type": "tuple"
        }
      ],
      "stateMutability": "view",
      "type": "function"
    },
    {
      "inputs": [],
      "name": "getCredentialTypeStatistics",
      "outputs": [
        {
          "internalType": "uint256",
          "name": "totalTypes",
          "type": "uint256"
        },
        {
          "internalType": "uint256",
          "name": "activeTypes",
          "type": "uint256"
        },
        {
          "internalType": "uint256",
          "name": "categoriesCount",
          "type": "uint256"
        }
      ],
      "stateMutability": "view",
      "type": "function"
    },
    {
      "inputs": [
        {
          "internalType": "enum CredentialTypeManagerSimple.CredentialCategory",
          "name": "category",
          "type": "uint8"
        }
      ],
      "name": "getCredentialTypesByCategory",
      "outputs": [
        {
          "internalType": "string[]",
          "name": "credentialTypeIds",
          "type": "string[]"
        }
      ],
      "stateMutability": "view",
      "type": "function"
    },
    {
      "inputs": [
        {
          "internalType": "address",
          "name": "writer",
          "type": "address"
        }
      ],
      "name": "isAuthorizedWriter",
      "outputs": [
        {
          "internalType": "bool",
          "name": "",
          "type": "bool"
        }
      ],
      "stateMutability": "view",
      "type": "function"
    },
    {
      "inputs": [
        {
          "internalType": "string",
          "name": "credentialTypeId",
          "type": "string"
        }
      ],
      "name": "isCredentialTypeActive",
      "outputs": [
        {
          "internalType": "bool",
          "name": "",
          "type": "bool"
        }
      ],
      "stateMutability": "view",
      "type": "function"
    },
    {
      "inputs": [],
      "name": "owner",
      "outputs": [
        {
          "internalType": "address",
          "name": "",
          "type": "address"
        }
      ],
      "stateMutability": "view",
      "type": "function"
    },
    {
      "inputs": [
        {
          "internalType": "address",
          "name": "writer",
          "type": "address"
        },
        {
          "internalType": "bool",
          "name": "authorized",
          "type": "bool"
        }
      ],
      "name": "setAuthorizedWriter",
      "outputs": [],
      "stateMutability": "nonpayable",
      "type": "function"
    },
    {
      "inputs": [
        {
          "internalType": "string",
          "name": "credentialTypeId",
          "type": "string"
        },
        {
          "internalType": "enum CredentialTypeManagerSimple.CredentialStatus",
          "name": "status",
          "type": "uint8"
        }
      ],
      "name": "updateCredentialTypeStatus",
      "outputs": [],
      "stateMutability": "nonpayable",
      "type": "function"
    }
  ],
  "bytecode": "0x608034620014115760015f81815581546001600160a01b0319163390811783558152600260205260409020805460ff1916909117905560a081016001600160401b0381118282101762000da3576040525f815260016020820152600260408201526003606082015260046080820152600654600560065580600510620013a7575b5060065f5260205f205f915f5b6005811062001377575050556001546001600160a01b0316620000af62001415565b90620000ba62001436565b600c81526b6b79632d6964656e7469747960a01b60208201528252620000df62001436565b601981527f4b5943204964656e7469747920566572696669636174696f6e00000000000000602082015260208301526200011862001456565b603381527f4964656e7469747920766572696669636174696f6e2063726564656e7469616c60208201527f20666f72204b594320636f6d706c69616e636500000000000000000000000000604082015260408301525f60608301525f608083015261016d60a08301525f60c0830152600160e083015242610100830152610120820152620001a562001436565b60058152640312e302e360dc1b60208201526101408201526040516b6b79632d6964656e7469747960a01b81526003600c820152602c9020815180519092906001600160401b03811162000da3576200020b816200020485546200148e565b85620014f4565b6020601f82116001146200130e57819293945f9262001302575b50508160011b915f199060031b1c19161782555b602081015180519092906001600160401b03811162000da35762000270816200026660018501546200148e565b60018501620014f4565b6020601f82116001146200129357819293945f9262001287575b50508160011b915f199060031b1c19161760018201555b604082015180519092906001600160401b03811162000da357620002d881620002ce60028601546200148e565b60028601620014f4565b6020601f82116001146200121857819293945f926200120c575b50508160011b915f199060031b1c19161760028301555b606081015190600582101562000e2857600383015491608082015192600484101562000e285760ff61ff006101409560081b1692169061ffff19161717600384015560a08101516004840155600583016200037660c08301511515829060ff801983541691151516179055565b60e0820151815461ff00191690151560081b61ff001617905561010081015160068401556101208101516007840180546001600160a01b0319166001600160a01b039290921691909117905501518051906001600160401b03821162000da357620003f482620003ea60088601546200148e565b60088601620014f4565b602090601f83116001146200119b57600892915f91836200118f575b50508160011b915f199060031b1c1916179101555b6001546001600160a01b03166200043b62001415565b906200044662001436565b601081526f66696e616e6369616c2d73746174757360801b602082015282526200046f62001436565b601d81527f46696e616e6369616c2053746174757320566572696669636174696f6e00000060208201526020830152620004a862001456565b603381527f46696e616e6369616c2073746174757320616e6420696e636f6d65207665726960208201527f6669636174696f6e2063726564656e7469616c0000000000000000000000000060408201526040830152600160608301525f608083015260b460a08301525f60c0830152600160e0830152426101008301526101208201526200053562001436565b60058152640312e302e360dc1b60208201526101408201526040516f66696e616e6369616c2d73746174757360801b81526003601082015260309020815180519092906001600160401b03811162000da35762000598816200020485546200148e565b6020601f82116001146200112657819293945f926200111a575b50508160011b915f199060031b1c19161782555b602081015180519092906001600160401b03811162000da357620005f3816200026660018501546200148e565b6020601f8211600114620010ab57819293945f926200109f575b50508160011b915f199060031b1c19161760018201555b604082015180519092906001600160401b03811162000da3576200065181620002ce60028601546200148e565b6020601f82116001146200103057819293945f9262001024575b50508160011b915f199060031b1c19161760028301555b606081015190600582101562000e2857600383015491608082015192600484101562000e285760ff61ff006101409560081b1692169061ffff19161717600384015560a0810151600484015560058301620006ef60c08301511515829060ff801983541691151516179055565b60e0820151815461ff00191690151560081b61ff001617905561010081015160068401556101208101516007840180546001600160a01b0319166001600160a01b039290921691909117905501518051906001600160401b03821162000da3576200076382620003ea60088601546200148e565b602090601f831160011462000fb357600892915f918362000fa7575b50508160011b915f199060031b1c1916179101555b6001546001600160a01b0316620007aa62001415565b90620007b562001436565b601981527f70726f66657373696f6e616c2d766572696669636174696f6e0000000000000060208201528252620007eb62001436565b601981527f50726f66657373696f6e616c20566572696669636174696f6e00000000000000602082015260208301526200082462001456565b603381527f50726f66657373696f6e616c207175616c696669636174696f6e7320616e642060208201527f73746174757320766572696669636174696f6e0000000000000000000000000060408201526040830152600260608301525f60808301526102da60a08301525f60c0830152600160e083015242610100830152610120820152620008b262001436565b60058152640312e302e360dc1b60208201526101408201526040517f70726f66657373696f6e616c2d766572696669636174696f6e000000000000008152600360198201526039902081518051909291906001600160401b03811162000da3576200092a816200092384546200148e565b84620014f4565b6020601f821160011462000f3e57819293945f9262000f32575b50508160011b915f199060031b1c19161781555b602082015180519092906001600160401b03811162000da3576200098f816200098560018601546200148e565b60018601620014f4565b6020601f821160011462000ec357819293945f9262000eb7575b50508160011b915f199060031b1c19161760018301555b604081015180519092906001600160401b03811162000da357620009f781620009ed60028501546200148e565b60028501620014f4565b6020601f821160011462000e4857819293945f9262000e3c575b50508160011b915f199060031b1c19161760028201555b6060820151600581101562000e2857600382015491608084015191600483101562000e28576101409360ff61ff00600895861b1692169061ffff19161717600382015560a084015160048201556005810162000a9660c08601511515829060ff801983541691151516179055565b60e0850151815461ff001916901515841b61ff001617905561010084015160068201556101208401516007820180546001600160a01b0319166001600160a01b039290921691909117905591909201518051909291909101906001600160401b03811162000da35762000b0f816200092384546200148e565b602092601f821160011462000dc357928192935f9262000db7575b50508160011b915f199060031b1c19161790555b60055468010000000000000000908181101562000da35780600162000b6792016005556200153c565b91909162000d905762000b8662000b7f83546200148e565b83620014c9565b7f6b79632d6964656e746974790000000000000000000000000000000000000018918290556005548181101562000da35780600162000bc992016005556200153c565b62000d905762000be562000bde82546200148e565b82620014c9565b7f66696e616e6369616c2d73746174757300000000000000000000000000000020908190556005548281101562000da35780600162000c2892016005556200153c565b93909362000d905762000c4762000c4085546200148e565b85620014c9565b7f70726f66657373696f6e616c2d766572696669636174696f6e00000000000032938490555f805260046020527f17ef568e3e12ab5b9c7254a8d58478811de00f9e6eb34345acd53bf8fd09d3ec80548481101562000da35762000cb19160018201815562001569565b62000d905762000cc662000bde82546200148e565b5560015f5260046020527fabd6e7cb50984ff9c2f3e18a2660c3353dadf4e3291deeb275dae2cd1e44fe0580548381101562000da35762000d0d9160018201815562001569565b62000d905762000d2262000bde82546200148e565b5560025f5260046020527f91da3fd0782e51c6b3986e9e672fd566868e71f3dbc2d6c2cd6fbb3e361af2a78054909181101562000da35762000d6a9160018201815562001569565b62000d905762000d7f62000bde82546200148e565b55604051611fe99081620015808239f35b634e487b7160e01b5f525f60045260245ffd5b634e487b7160e01b5f52604160045260245ffd5b015190505f8062000b2a565b601f19821693835f5260205f20915f5b86811062000e0f575083600195961062000df6575b505050811b01905562000b3e565b01515f1960f88460031b161c191690555f808062000de8565b9192602060018192868501518155019401920162000dd3565b634e487b7160e01b5f52602160045260245ffd5b015190505f8062000a11565b600283015f5260205f20905f5b601f198416811062000e9e5750600193949583601f1981161062000e85575b505050811b01600282015562000a28565b01515f1960f88460031b161c191690555f808062000e74565b9091602060018192858a01518155019301910162000e55565b015190505f80620009a9565b600184015f5260205f20905f5b601f198416811062000f195750600193949583601f1981161062000f00575b505050811b016001830155620009c0565b01515f1960f88460031b161c191690555f808062000eef565b9091602060018192858a01518155019301910162000ed0565b015190505f8062000944565b825f5260205f20905f5b601f198416811062000f8e5750600193949583601f1981161062000f75575b505050811b01815562000958565b01515f1960f88460031b161c191690555f808062000f67565b9091602060018192858a01518155019301910162000f48565b015190505f806200077f565b90600884015f5260205f20915f5b601f19851681106200100b5750918391600193600895601f1981161062000ff2575b505050811b0191015562000794565b01515f1960f88460031b161c191690555f808062000fe3565b9192602060018192868501518155019401920162000fc1565b015190505f806200066b565b600284015f5260205f20905f5b601f1984168110620010865750600193949583601f198116106200106d575b505050811b01600283015562000682565b01515f1960f88460031b161c191690555f80806200105c565b9091602060018192858a0151815501930191016200103d565b015190505f806200060d565b600183015f5260205f20905f5b601f1984168110620011015750600193949583601f19811610620010e8575b505050811b01600182015562000624565b01515f1960f88460031b161c191690555f8080620010d7565b9091602060018192858a015181550193019101620010b8565b015190505f80620005b2565b835f5260205f20905f5b601f1984168110620011765750600193949583601f198116106200115d575b505050811b018255620005c6565b01515f1960f88460031b161c191690555f80806200114f565b9091602060018192858a01518155019301910162001130565b015190505f8062000410565b90600884015f5260205f20915f5b601f1985168110620011f35750918391600193600895601f19811610620011da575b505050811b0191015562000425565b01515f1960f88460031b161c191690555f8080620011cb565b91926020600181928685015181550194019201620011a9565b015190505f80620002f2565b600284015f5260205f20905f5b601f19841681106200126e5750600193949583601f1981161062001255575b505050811b01600283015562000309565b01515f1960f88460031b161c191690555f808062001244565b9091602060018192858a01518155019301910162001225565b015190505f806200028a565b600183015f5260205f20905f5b601f1984168110620012e95750600193949583601f19811610620012d0575b505050811b016001820155620002a1565b01515f1960f88460031b161c191690555f8080620012bf565b9091602060018192858a015181550193019101620012a0565b015190505f8062000225565b835f5260205f20905f5b601f19841681106200135e5750600193949583601f1981161062001345575b505050811b01825562000239565b01515f1960f88460031b161c191690555f808062001337565b9091602060018192858a01518155019301910162001318565b9092835190600582101562000e28576001916020918460031b9160ff809116831b921b191617940191016200008d565b60065f527ff652222313e28459528d920b65115c16c04f3efc82aaedc97be59f3f377c0d3f805464ffffffffff1681556200140a91601f0160051c017ff652222313e28459528d920b65115c16c04f3efc82aaedc97be59f3f377c0d4062001476565b5f62000080565b5f80fd5b6040519061016082016001600160401b0381118382101762000da357604052565b60408051919082016001600160401b0381118382101762000da357604052565b60405190606082016001600160401b0381118382101762000da357604052565b81811062001482575050565b5f815560010162001476565b90600182811c92168015620014be575b6020831014620014aa57565b634e487b7160e01b5f52602260045260245ffd5b91607f16916200149e565b90601f8111620014d7575050565b620014f2915f52601f60205f20910160051c81019062001476565b565b9190601f81116200150457505050565b620014f2925f5260205f20906020601f840160051c8301931062001531575b601f0160051c019062001476565b909150819062001523565b600554811015620015555760055f5260205f2001905f90565b634e487b7160e01b5f52603260045260245ffd5b805482101562001555575f5260205f2001905f9056fe60806040526004361015610011575f80fd5b5f3560e01c806304801b20146115db578063526241a81461159e578063542a086c14611494578063662c565e146113fc578063685496f0146113965780636f1757861461135357806381b81bd0146112bc57806381e4ab0c14610d945780638da5cb5b14610d6e57806390cc1d7114610c2f578063ad6e823b14610bc7578063c8fdf83314610a96578063cb2cdf7e14610a4b578063dadd0a571461028e578063e9371c58146101e75763ea22bdfb146100c9575f80fd5b346101e3575f3660031901126101e3575f6005546006545f5b8281106100ff575060609260405192835260208301526040820152f35b610108816119cd565b50604051905f90805461011a81611a2b565b916001918083169081156101c95750600114610190575b50505081602060ff9360039384815203019020015460081c16600481101561017c5715610167575b61016290611e0f565b6100e2565b9261017461016291611e0f565b939050610159565b634e487b7160e01b5f52602160045260245ffd5b909192505f52602090815f20905f915b8483106101b857505050908201905060ff5f80610131565b8054868401529183019181016101a0565b60ff19168652505050801515028201905060ff5f80610131565b5f80fd5b346101e35760203660031901126101e35760043567ffffffffffffffff81116101e357600361026a602061022160ff943690600401611889565b604051906102596001600160a01b03600783519486818187019761024681838b6118df565b81018b8152030190200154161515611d8b565b6040519384928392519283916118df565b810184815203019020015460081c16600481101561017c5760209060405190158152f35b346101e3575f3660031901126101e357604051806006549081835260208093019181848460065f527ff652222313e28459528d920b65115c16c04f3efc82aaedc97be59f3f377c0d3f5f905b85601f8301106107db57946103f8955491848282106107c1575b8282106107a4575b828210610787575b82821061076a575b82821061074e575b828210610731575b828210610714575b8282106106f7575b8282106106da575b8282106106bd575b8282106106a0575b828210610683575b828210610666575b828210610649575b82821061062c575b82821061060f575b8282106105f2575b8282106105d5575b8282106105b8575b82821061059b575b82821061057e575b828210610561575b828210610544575b828210610527575b82821061050a575b8282106104ed575b8282106104d0575b8282106104b3575b828210610496575b828210610479575b82821061045c575b5010610446575b5090509392930383611867565b60405192839281840190828552518091526040840192915f5b82811061042057505050500390f35b9193839550908082610436600194839751611925565b0195019101918594939192610411565b816104539160f81c611925565b018590876103eb565b846104706001939660ff8760f01c16611925565b019301846103e4565b8461048d6001939660ff8760e81c16611925565b019301846103dc565b846104aa6001939660ff8760e01c16611925565b019301846103d4565b846104c76001939660ff8760d81c16611925565b019301846103cc565b846104e46001939660ff8760d01c16611925565b019301846103c4565b846105016001939660ff8760c81c16611925565b019301846103bc565b8461051e6001939660ff8760c01c16611925565b019301846103b4565b8461053b6001939660ff8760b81c16611925565b019301846103ac565b846105586001939660ff8760b01c16611925565b019301846103a4565b846105756001939660ff8760a81c16611925565b0193018461039c565b846105926001939660ff8760a01c16611925565b01930184610394565b846105af6001939660ff8760981c16611925565b0193018461038c565b846105cc6001939660ff8760901c16611925565b01930184610384565b846105e96001939660ff8760881c16611925565b0193018461037c565b846106066001939660ff8760801c16611925565b01930184610374565b846106236001939660ff8760781c16611925565b0193018461036c565b846106406001939660ff8760701c16611925565b01930184610364565b8461065d6001939660ff8760681c16611925565b0193018461035c565b8461067a6001939660ff8760601c16611925565b01930184610354565b846106976001939660ff8760581c16611925565b0193018461034c565b846106b46001939660ff8760501c16611925565b01930184610344565b846106d16001939660ff8760481c16611925565b0193018461033c565b846106ee6001939660ff8760401c16611925565b01930184610334565b8461070b6001939660ff8760381c16611925565b0193018461032c565b846107286001939660ff8760301c16611925565b01930184610324565b846107456001939660ff8760281c16611925565b0193018461031c565b846107616001939660ff87851c16611925565b01930184610314565b8461077e6001939660ff8760181c16611925565b0193018461030c565b8461079b6001939660ff8760101c16611925565b01930184610304565b846107b86001939660ff8760081c16611925565b019301846102fc565b846107d26001939660ff8716611925565b019301846102f4565b9350916001610400829693610a3c8754610a2e60ff6107fc85828516611925565b61080d888601828560081c16611925565b61081f60408601828560101c16611925565b6109bf856109776060610839818401868960181c16611925565b61092f8c610850608091888b848901921c16611925565b6108e760a0936108678588018a8d60281c16611925565b888b61018060c0996108808b8201858560301c16611925565b61089260e08201858560381c16611925565b6108a56101008201858560401c16611925565b6108b86101208201858560481c16611925565b6108cb6101408201858560501c16611925565b6108de6101608201858560581c16611925565b01921c16611925565b6108fa6101a08c01888b60681c16611925565b61090d6101c08c01888b60701c16611925565b6109206101e08c01888b60781c16611925565b86896102008d01921c16611925565b6109426102208a01868960881c16611925565b6109556102408a01868960901c16611925565b6109686102608a01868960981c16611925565b84876102808b01921c16611925565b61098a6102a08801848760a81c16611925565b61099d6102c08801848760b01c16611925565b6109b06102e08801848760b81c16611925565b82856103008901921c16611925565b6109d26103208601828560c81c16611925565b6109e56103408601828560d01c16611925565b6109f86103608601828560d81c16611925565b610a0b6103808601828560e01c16611925565b610a1e6103a08601828560e81c16611925565b6103c08501908360f01c16611925565b6103e083019060f81c611925565b019401920185939194926102da565b346101e35760203660031901126101e3576004356005548110156101e357610a7e610a78610a92926119cd565b90611b04565b604051918291602083526020830190611900565b0390f35b346101e35760403660031901126101e35760043567ffffffffffffffff81116101e357610ac7903690600401611889565b6024359060048210156101e3576020610b997feee90e57f3f271d34e6b67cd01b7e79c53f1ebe66ac2f0f6fd4cbdb100f0a26892335f526002835260ff60405f2054168015610bae575b610b1a90611b15565b610b94856003610b8586604051610b5b6001600160a01b0360078951938581818d0196610b4881838a6118df565b81018a8152030190200154161515611d8b565b610b63611d38565b610b74610b6e611bab565b88611edb565b6040518093819289519283916118df565b81018481520301902001611cf9565b611d18565b92610ba76040518092611932565ba260015f55005b50610b1a6001600160a01b036001541633149050610b11565b346101e35760203660031901126101e3576020610be261193f565b610bf3610bed611dd6565b82611e61565b6001600160a01b03809116805f526002835260ff60405f205416918215610c21575b50506040519015158152f35b600154161490508280610c15565b346101e35760203660031901126101e35760043567ffffffffffffffff81116101e3576020610c65610c78923690600401611889565b81604051938285809451938492016118df565b81016003815203019020610cff610a92610c9183611a63565b92610c9e60018201611a63565b93610cab60028301611a63565b9160038101549260ff6004830154600584015490610d3a610d1b600687015495610d0d610ce860086001600160a01b0360078c0154169a01611a63565b996040519e8f9e8f92610160808552840190611900565b916020818403910152611900565b8c810360408e015290611900565b97610d2b60608c01868316611925565b8460808c019160081c16611932565b60a0890152818116151560c089015260081c16151560e0870152610100860152610120850152838203610140850152611900565b346101e3575f3660031901126101e35760206001600160a01b0360015416604051908152f35b346101e3576101003660031901126101e35767ffffffffffffffff6004358181116101e357610dc7903690600401611889565b6024358281116101e357610ddf903690600401611889565b916044358181116101e357610df8903690600401611889565b6005606435109182156101e35760a4359283151584036101e35760c4359182151583036101e35760e4359081116101e357610e3a610e60913690600401611889565b91335f52600260205260ff60405f20541680156112a3575b610e5b90611b15565b611b60565b610e68611d38565b610e79610e73611bab565b86611edb565b610eb8604051610e888161184b565b600481527f6e616d6500000000000000000000000000000000000000000000000000000000602082015287611edb565b610ef7604051610ec78161184b565b600b81527f6465736372697074696f6e000000000000000000000000000000000000000000602082015284611edb565b610f36604051610f068161184b565b600781527f76657273696f6e00000000000000000000000000000000000000000000000000602082015282611edb565b610fdc610f9c610fd2603a604051610f4d8161184b565b60158152602081017f64656661756c7456616c6964697479506572696f640000000000000000000000815260405194859267024b73b30b634b2160c51b602085015251809260288501906118df565b81017f3a206d75737420626520706f7369746976650000000000000000000000000000602882015203601a810184520182611867565b6084351515611e31565b6001600160a01b03600760405160208181610ffd8b838151938492016118df565b8101600381520301902001541661125f576040519261101b8461182e565b858452602084019087825260408501908152606085019560643561103f9088611be4565b60808601945f865260a0870195608435875260c08801921515835260e0880191151582526101008801934285526101208901953387526101408a01978852604051808d818151602081930191611094926118df565b81016003815203602001902099516110ac908b611bf0565b516110ba9060018b01611bf0565b516110c89060028a01611bf0565b600388019851600581101561017c5760ff80198b541691161789555195600487101561017c576110fd6008976111799a611cf9565b5160048801556111206005880192511515839060ff801983541691151516179055565b51151561ff00825491871b169061ff0019161790555160068501556001600160a01b03600785019151167fffffffffffffffffffffffff0000000000000000000000000000000000000000825416179055519101611bf0565b6111846064356119b6565b80549068010000000000000000918281101561124b576111a991600182018155611a16565b61123857826111b791611bf0565b6005549081101561124b578060016111d292016005556119cd565b9190916112385761120b81610b94611220937fcd0bff200e8d8b3aaf104aa45852150c7d6f05469560808263dd1e413b18c8f795611bf0565b92604051918291604083526040830190611900565b61122f60208301606435611925565b0390a260015f55005b634e487b7160e01b5f525f60045260245ffd5b634e487b7160e01b5f52604160045260245ffd5b606460405162461bcd60e51b815260206004820152601e60248201527f43726564656e7469616c207479706520616c72656164792065786973747300006044820152fd5b50610e5b6001600160a01b036001541633149050610e52565b346101e3575f3660031901126101e35760055467ffffffffffffffff811161124b576040516020916112f3838260051b0183611867565b80825282820160055f527f036b6384b5eca791c62761152d0c79bb0604c104a5fb6f4eb0703f3154bb3db0935f915b8383106113375760405180610a928782611955565b600182819261134589611a63565b815201960192019194611322565b346101e35760403660031901126101e35760043560058110156101e35761137c602435916119b6565b9081548110156101e357610a78610a7e91610a9293611a16565b346101e35760203660031901126101e3576004356006548110156101e35760f86113fa60209260065f5260ff8160051c7ff652222313e28459528d920b65115c16c04f3efc82aaedc97be59f3f377c0d3f015460405194859360031b161c16611925565bf35b346101e3576020806003193601126101e357600435600581109081156101e35761142861142d92611b60565b6119b6565b90815467ffffffffffffffff811161124b57829060405191611454848360051b0184611867565b8183525f908152838120938084015b8383106114785760405180610a928782611955565b600182819261148689611a63565b815201960192019194611463565b346101e35760403660031901126101e3576114ad61193f565b602435908115158083036101e3576001600160a01b039081600154163303611534576115276020927e8ebc621f24e0e9d1fd4ee2f7df9bb80c8d61ee30a9167a4fee6cefcf8c021e946114fe611d38565b611509610bed611dd6565b1694855f526002845260405f209060ff801983541691151516179055565b604051908152a260015f55005b608460405162461bcd60e51b815260206004820152602160248201527f4f6e6c79206f776e65722063616e2063616c6c20746869732066756e6374696f60448201527f6e000000000000000000000000000000000000000000000000000000000000006064820152fd5b346101e35760203660031901126101e3576001600160a01b036115bf61193f565b165f526002602052602060ff60405f2054166040519015158152f35b346101e35760203660031901126101e35760043567ffffffffffffffff81116101e3576020611611611696923690600401611889565b60606101406040516116228161182e565b82815282858201528260408201525f838201525f60808201525f60a08201525f60c08201525f60e08201525f6101008201525f6101208201520152604051906102596001600160a01b03600783519486818187019761168281838b6118df565b810160038152030190200154161515611d8b565b810160038152030190206040516116ac8161182e565b6116b582611a63565b81526116c360018301611a63565b60208201526116d460028301611a63565b604082015260ff60038301546116ef82821660608501611be4565b60081c1691600483101561017c57600861175691610a92946080850152600481015460a085015260ff6005820154818116151560c0870152831c16151560e085015260068101546101008501526001600160a01b0360078201541661012085015201611a63565b610140820152604051918291602083526101406117b361179d61178784516101606020890152610180880190611900565b6020850151878203601f19016040890152611900565b6040840151868203601f19016060880152611900565b916117c660608201516080870190611925565b6117d8608082015160a0870190611932565b60a081015160c086015260c0810151151560e086015260e081015115156101008601526101008101516101208601526001600160a01b0361012082015116828601520151601f1984830301610160850152611900565b610160810190811067ffffffffffffffff82111761124b57604052565b6040810190811067ffffffffffffffff82111761124b57604052565b90601f8019910116810190811067ffffffffffffffff82111761124b57604052565b81601f820112156101e35780359067ffffffffffffffff821161124b57604051926118be601f8401601f191660200185611867565b828452602083830101116101e357815f926020809301838601378301015290565b5f5b8381106118f05750505f910152565b81810151838201526020016118e1565b90602091611919815180928185528580860191016118df565b601f01601f1916010190565b90600582101561017c5752565b90600482101561017c5752565b600435906001600160a01b03821682036101e357565b602080820190808352835180925260408301928160408460051b8301019501935f915b8483106119885750505050505090565b90919293949584806119a6600193603f198682030187528a51611900565b9801930193019194939290611978565b600581101561017c575f52600460205260405f2090565b600554811015611a025760055f527f036b6384b5eca791c62761152d0c79bb0604c104a5fb6f4eb0703f3154bb3db001905f90565b634e487b7160e01b5f52603260045260245ffd5b8054821015611a02575f5260205f2001905f90565b90600182811c92168015611a59575b6020831014611a4557565b634e487b7160e01b5f52602260045260245ffd5b91607f1691611a3a565b9060405191825f825492611a7684611a2b565b9081845260019485811690815f14611ae15750600114611aa1575b5050611a9f92500383611867565b565b909391505f52602090815f20935f915b818310611ac9575050611a9f93508201015f80611a91565b85548884018501529485019487945091830191611ab1565b915050611a9f94506020925060ff191682840152151560051b8201015f80611a91565b9061123857611b1290611a63565b90565b15611b1c57565b606460405162461bcd60e51b815260206004820152601760248201527f4e6f7420617574686f72697a656420746f2077726974650000000000000000006044820152fd5b15611b6757565b606460405162461bcd60e51b815260206004820152601b60248201527f496e76616c69642063726564656e7469616c2063617465676f727900000000006044820152fd5b60405190611bb88261184b565b601082527f63726564656e7469616c547970654964000000000000000000000000000000006020830152565b600582101561017c5752565b919091825167ffffffffffffffff811161124b57611c0e8254611a2b565b601f8111611cb2575b50602080601f8311600114611c525750819293945f92611c47575b50508160011b915f199060031b1c1916179055565b015190505f80611c32565b90601f19831695845f52825f20925f905b888210611c9a57505083600195969710611c82575b505050811b019055565b01515f1960f88460031b161c191690555f8080611c78565b80600185968294968601518155019501930190611c63565b5f83815260208120601f840160051c81019260208510611cef575b601f0160051c01915b828110611ce4575050611c17565b818155600101611cd6565b9092508290611ccd565b90600481101561017c5761ff0082549160081b169061ff001916179055565b611d30906020604051928284809451938492016118df565b810103902090565b60025f5414611d475760025f55565b606460405162461bcd60e51b815260206004820152601f60248201527f5265656e7472616e637947756172643a207265656e7472616e742063616c6c006044820152fd5b15611d9257565b606460405162461bcd60e51b815260206004820152601960248201527f43726564656e7469616c2074797065206e6f7420666f756e64000000000000006044820152fd5b60405190611de38261184b565b600682527f77726974657200000000000000000000000000000000000000000000000000006020830152565b5f198114611e1d5760010190565b634e487b7160e01b5f52601160045260245ffd5b15611e395750565b611e5d9060405191829162461bcd60e51b8352602060048401526024830190611900565b0390fd5b906001600160a01b03611a9f92611ed36036604051809567024b73b30b634b2160c51b6020830152611e9d8151809260206028860191016118df565b81017f3a207a65726f20616464726573730000000000000000000000000000000000006028820152036016810186520184611867565b161515611e31565b906020611f596039611a9f946101008151151591611f5e60405167024b73b30b634b2160c51b948589830152611f596036838c611f2381519d8e92019d8e60288501906118df565b81017f3a20656d70747920737472696e670000000000000000000000000000000000006028820152036016810185520183611867565b611e31565b51111593611f7d604051968793602085015251809260288501906118df565b81017f3a20737472696e6720746f6f206c6f6e67000000000000000000000000000000602882015203601981018552018361186756fea2646970667358221220a7ccef87faf5c9dbc10f5bd6d850c18efe6d7279725fc08dabf51e53cd2d7da864736f6c63430008140033",
  "linkReferences": {},
  "deployedLinkReferences": {}
}