{
  "_format": "hh-sol-artifact-1",
  "contractName": "MultisigExample",
  "sourceName": "contracts/examples/MultisigExample.sol",
  "abi": [
    {
      "inputs": [
        {
          "internalType": "address",
          "name": "_multisigManager",
          "type": "address"
        }
      ],
      "stateMutability": "nonpayable",
      "type": "constructor"
    },
    {
      "anonymous": false,
      "inputs": [
        {
          "indexed": false,
          "internalType": "bool",
          "name": "oldStatus",
          "type": "bool"
        },
        {
          "indexed": false,
          "internalType": "bool",
          "name": "newStatus",
          "type": "bool"
        }
      ],
      "name": "ActiveStatusUpdated",
      "type": "event"
    },
    {
      "anonymous": false,
      "inputs": [
        {
          "indexed": false,
          "internalType": "string",
          "name": "oldValue",
          "type": "string"
        },
        {
          "indexed": false,
          "internalType": "string",
          "name": "newValue",
          "type": "string"
        }
      ],
      "name": "ConfigStringUpdated",
      "type": "event"
    },
    {
      "anonymous": false,
      "inputs": [
        {
          "indexed": false,
          "internalType": "uint256",
          "name": "oldValue",
          "type": "uint256"
        },
        {
          "indexed": false,
          "internalType": "uint256",
          "name": "newValue",
          "type": "uint256"
        }
      ],
      "name": "ConfigValueUpdated",
      "type": "event"
    },
    {
      "anonymous": false,
      "inputs": [
        {
          "indexed": false,
          "internalType": "address",
          "name": "oldManager",
          "type": "address"
        },
        {
          "indexed": false,
          "internalType": "address",
          "name": "newManager",
          "type": "address"
        }
      ],
      "name": "MultisigManagerUpdated",
      "type": "event"
    },
    {
      "inputs": [],
      "name": "configString",
      "outputs": [
        {
          "internalType": "string",
          "name": "",
          "type": "string"
        }
      ],
      "stateMutability": "view",
      "type": "function"
    },
    {
      "inputs": [],
      "name": "configValue",
      "outputs": [
        {
          "internalType": "uint256",
          "name": "",
          "type": "uint256"
        }
      ],
      "stateMutability": "view",
      "type": "function"
    },
    {
      "inputs": [],
      "name": "disableMultisigForActiveStatus",
      "outputs": [],
      "stateMutability": "nonpayable",
      "type": "function"
    },
    {
      "inputs": [],
      "name": "disableMultisigForConfigString",
      "outputs": [],
      "stateMutability": "nonpayable",
      "type": "function"
    },
    {
      "inputs": [],
      "name": "disableMultisigForConfigValue",
      "outputs": [],
      "stateMutability": "nonpayable",
      "type": "function"
    },
    {
      "inputs": [
        {
          "internalType": "uint256",
          "name": "requiredSignatures",
          "type": "uint256"
        },
        {
          "internalType": "uint256",
          "name": "timelockDuration",
          "type": "uint256"
        }
      ],
      "name": "enableMultisigForActiveStatus",
      "outputs": [],
      "stateMutability": "nonpayable",
      "type": "function"
    },
    {
      "inputs": [
        {
          "internalType": "uint256",
          "name": "requiredSignatures",
          "type": "uint256"
        },
        {
          "internalType": "uint256",
          "name": "timelockDuration",
          "type": "uint256"
        }
      ],
      "name": "enableMultisigForConfigString",
      "outputs": [],
      "stateMutability": "nonpayable",
      "type": "function"
    },
    {
      "inputs": [
        {
          "internalType": "uint256",
          "name": "requiredSignatures",
          "type": "uint256"
        },
        {
          "internalType": "uint256",
          "name": "timelockDuration",
          "type": "uint256"
        }
      ],
      "name": "enableMultisigForConfigValue",
      "outputs": [],
      "stateMutability": "nonpayable",
      "type": "function"
    },
    {
      "inputs": [],
      "name": "getActiveStatusMultisigConfig",
      "outputs": [
        {
          "components": [
            {
              "internalType": "bool",
              "name": "isEnabled",
              "type": "bool"
            },
            {
              "internalType": "uint256",
              "name": "requiredSignatures",
              "type": "uint256"
            },
            {
              "internalType": "uint256",
              "name": "timelockDuration",
              "type": "uint256"
            },
            {
              "internalType": "bool",
              "name": "isActive",
              "type": "bool"
            }
          ],
          "internalType": "struct MultisigManager.MultisigConfig",
          "name": "",
          "type": "tuple"
        }
      ],
      "stateMutability": "view",
      "type": "function"
    },
    {
      "inputs": [],
      "name": "getConfigStringMultisigConfig",
      "outputs": [
        {
          "components": [
            {
              "internalType": "bool",
              "name": "isEnabled",
              "type": "bool"
            },
            {
              "internalType": "uint256",
              "name": "requiredSignatures",
              "type": "uint256"
            },
            {
              "internalType": "uint256",
              "name": "timelockDuration",
              "type": "uint256"
            },
            {
              "internalType": "bool",
              "name": "isActive",
              "type": "bool"
            }
          ],
          "internalType": "struct MultisigManager.MultisigConfig",
          "name": "",
          "type": "tuple"
        }
      ],
      "stateMutability": "view",
      "type": "function"
    },
    {
      "inputs": [],
      "name": "getConfigValueMultisigConfig",
      "outputs": [
        {
          "components": [
            {
              "internalType": "bool",
              "name": "isEnabled",
              "type": "bool"
            },
            {
              "internalType": "uint256",
              "name": "requiredSignatures",
              "type": "uint256"
            },
            {
              "internalType": "uint256",
              "name": "timelockDuration",
              "type": "uint256"
            },
            {
              "internalType": "bool",
              "name": "isActive",
              "type": "bool"
            }
          ],
          "internalType": "struct MultisigManager.MultisigConfig",
          "name": "",
          "type": "tuple"
        }
      ],
      "stateMutability": "view",
      "type": "function"
    },
    {
      "inputs": [],
      "name": "getConfiguration",
      "outputs": [
        {
          "internalType": "uint256",
          "name": "value",
          "type": "uint256"
        },
        {
          "internalType": "string",
          "name": "stringValue",
          "type": "string"
        },
        {
          "internalType": "bool",
          "name": "active",
          "type": "bool"
        }
      ],
      "stateMutability": "view",
      "type": "function"
    },
    {
      "inputs": [],
      "name": "isActive",
      "outputs": [
        {
          "internalType": "bool",
          "name": "",
          "type": "bool"
        }
      ],
      "stateMutability": "view",
      "type": "function"
    },
    {
      "inputs": [],
      "name": "isActiveStatusMultisigRequired",
      "outputs": [
        {
          "internalType": "bool",
          "name": "",
          "type": "bool"
        }
      ],
      "stateMutability": "view",
      "type": "function"
    },
    {
      "inputs": [],
      "name": "isConfigStringMultisigRequired",
      "outputs": [
        {
          "internalType": "bool",
          "name": "",
          "type": "bool"
        }
      ],
      "stateMutability": "view",
      "type": "function"
    },
    {
      "inputs": [],
      "name": "isConfigValueMultisigRequired",
      "outputs": [
        {
          "internalType": "bool",
          "name": "",
          "type": "bool"
        }
      ],
      "stateMutability": "view",
      "type": "function"
    },
    {
      "inputs": [],
      "name": "isMultisigManagerSet",
      "outputs": [
        {
          "internalType": "bool",
          "name": "",
          "type": "bool"
        }
      ],
      "stateMutability": "view",
      "type": "function"
    },
    {
      "inputs": [],
      "name": "multisigManager",
      "outputs": [
        {
          "internalType": "contract MultisigManager",
          "name": "",
          "type": "address"
        }
      ],
      "stateMutability": "view",
      "type": "function"
    },
    {
      "inputs": [],
      "name": "owner",
      "outputs": [
        {
          "internalType": "address",
          "name": "",
          "type": "address"
        }
      ],
      "stateMutability": "view",
      "type": "function"
    },
    {
      "inputs": [
        {
          "internalType": "address",
          "name": "_multisigManager",
          "type": "address"
        }
      ],
      "name": "setMultisigManager",
      "outputs": [],
      "stateMutability": "nonpayable",
      "type": "function"
    },
    {
      "inputs": [
        {
          "internalType": "bool",
          "name": "newStatus",
          "type": "bool"
        }
      ],
      "name": "updateActiveStatus",
      "outputs": [],
      "stateMutability": "nonpayable",
      "type": "function"
    },
    {
      "inputs": [
        {
          "internalType": "string",
          "name": "newString",
          "type": "string"
        }
      ],
      "name": "updateConfigString",
      "outputs": [],
      "stateMutability": "nonpayable",
      "type": "function"
    },
    {
      "inputs": [
        {
          "internalType": "uint256",
          "name": "newValue",
          "type": "uint256"
        }
      ],
      "name": "updateConfigValue",
      "outputs": [],
      "stateMutability": "nonpayable",
      "type": "function"
    }
  ],
  "bytecode": "0x60803461012157601f6200133f38819003918201601f19168301916001600160401b038311848410176101255780849260209460405283398101031261012157516001600160a01b03811690819003610121576001905f9082825560018060a01b03193381600254161760025581610114575b50506064600355600454908282811c9216801561010a575b60208310146100f657601f82116100c9575b600e66191959985d5b1d60ca1b016004556005805460ff19168417905560405161120590816200013a8239f35b6004815282601f60208320930160051c8301925b8381106100eb57505061009c565b8281550183906100dd565b634e487b7160e01b81526022600452602490fd5b91607f169161008a565b8354161782555f80610072565b5f80fd5b634e487b7160e01b5f52604160045260245ffdfe60806040818152600480361015610014575f80fd5b5f92833560e01c9081626c51be14610ab357508062c5f1ad14610a93578063011a1b33146109bf57806317ff069714610910578381631a44a1e4146108875781631afaa7ef146108005750806322f3e2d4146107dc57806326b8585f146107b2578381632dc1d7711461070b575080634d395384146106da5780636bd50cef1461068f57806376ba607b1461066f57806378a97c1f146106455780637aee63b01461061b5780637d18d8bd146105ed57806380fcae23146104a7578063868d8893146104405780638ba7fe81146103535780638da5cb5b1461032b5780639fbdb775146102ff57838163afb5588814610278578163ee970ef2146101ba575063f4692e0914610121575f80fd5b346101b65760203660031901126101b65735906001600160a01b038083168093036101b2577f23e0a616efc76d766195373e42d10e0dcd75d41363639187f5e5e5580726d0fd9261017782600254163314610f7b565b60015491817fffffffffffffffffffffffff00000000000000000000000000000000000000008416176001558351921682526020820152a180f35b8380fd5b8280fd5b929050346102745782600319360112610274576001600160a01b036101e481600254163314610f7b565b600154166101f3811515610fc6565b803b1561026f5760209284918351948592639394fa1560e01b8452830152818381610240602482016040906011815270757064617465436f6e66696756616c756560781b60208201520190565b03925af190811561026657506102535750f35b61025c90610b21565b6102635780f35b80fd5b513d84823e3d90fd5b505050fd5b5050fd5b929050346102745782600319360112610274576001600160a01b036102a281600254163314610f7b565b600154166102b1811515610fc6565b803b1561026f5760209284918351948592639394fa1560e01b845283015281838161024060248201604090601281527175706461746541637469766553746174757360701b60208201520190565b5050346103275781600319360112610327576020906001600160a01b03600154169051908152f35b5080fd5b5050346103275781600319360112610327576020906001600160a01b03600254169051908152f35b5090346101b6576020806003193601126101b257823592831515840361043c5761037b610f04565b906001600160a01b03806001541615155f1461042e5791839291836103c0959360015416918751968794859384936375df264d60e01b85528401526024830190610c5f565b03915afa928315610425575084926103ef575b5050156103e6576103e390610f32565b80f35b6103e390610f32565b90809250813d831161041e575b6104068183610b81565b810103126101b65761041790610cca565b5f806103d3565b503d6103fc565b513d86823e3d90fd5b50505050506103e390610f32565b8480fd5b5050346103275781600319360112610327576104a39061045e611011565b5061046f61046a610d10565b6110cc565b9051918291829190916060806080830194805115158452602081015160208501526040810151604085015201511515910152565b0390f35b5090346101b6576020806003193601126101b25767ffffffffffffffff9280358481116105e957366023820112156105e957808201359485116105d65785908451956104fc85601f19601f8401160188610b81565b80875236602482840101116101b6578060248693018389013786010152610521610d10565b906001600160a01b03806001541615155f146105c8579183929183610566959360015416918751968794859384936375df264d60e01b85528401526024830190610c5f565b03915afa92831561042557508492610592575b505015610589576103e390610d3e565b6103e390610d3e565b90809250813d83116105c1575b6105a98183610b81565b810103126101b6576105ba90610cca565b5f80610579565b503d61059f565b50505050506103e390610d3e565b604182634e487b7160e01b5f525260245ffd5b8580fd5b50503461032757816003193601126103275760209061061261060d610d10565b611035565b90519015158152f35b5050346103275781600319360112610327576020906001600160a01b036001541615159051908152f35b5050346103275781600319360112610327576104a390610663611011565b5061046f61046a610f04565b50503461032757816003193601126103275760209061061261060d610f04565b8284346102635780600319360112610263575060035460ff600554166106b3610ba3565b926106cf81519485948552606060208601526060850190610c5f565b911515908301520390f35b5050346103275781600319360112610327576104a3906106f8610ba3565b9051918291602083526020830190610c5f565b929050346102745761071c36610acf565b6001600160a01b0393919361073681600254163314610f7b565b60015416610745811515610fc6565b803b156105e9576060868094865197889586948593630b5c89ab60e11b855284015261079460648401604090601281527175706461746541637469766553746174757360701b60208201520190565b916024840152604483015203925af190811561026657506102535750f35b5050346103275781600319360112610327576104a3906107d0611011565b5061046f61046a610c9d565b50503461032757816003193601126103275760209060ff6005541690519015158152f35b929050346102745782600319360112610274576001600160a01b0361082a81600254163314610f7b565b60015416610839811515610fc6565b803b1561026f5760209284918351948592639394fa1560e01b8452830152818381610240602482016040906012815271757064617465436f6e666967537472696e6760701b60208201520190565b929050346102745761089836610acf565b6001600160a01b039391936108b281600254163314610f7b565b600154166108c1811515610fc6565b803b156105e9576060868094865197889586948593630b5c89ab60e11b8552840152610794606484016040906012815271757064617465436f6e666967537472696e6760701b60208201520190565b5090346101b6578261092136610acf565b90936001600160a01b0361093a81600254163314610f7b565b600154169061094a821515610fc6565b813b156101b25783606091865197889586948593630b5c89ab60e11b8552840152610997606484016040906011815270757064617465436f6e66696756616c756560781b60208201520190565b916024840152604483015203925af190811561026657506109b6575080f35b6103e390610b21565b5090346101b6576020806003193601126101b2578235926109de610c9d565b906001600160a01b03806001541615155f14610a85579183929183610a23959360015416918751968794859384936375df264d60e01b85528401526024830190610c5f565b03915afa92831561042557508492610a4f575b505015610a46576103e390610cd7565b6103e390610cd7565b90809250813d8311610a7e575b610a668183610b81565b810103126101b657610a7790610cca565b5f80610a36565b503d610a5c565b50505050506103e390610cd7565b50503461032757816003193601126103275760209061061261060d610c9d565b8490346103275781600319360112610327576020906003548152f35b6040906003190112610ae5576004359060243590565b5f80fd5b90600182811c92168015610b17575b6020831014610b0357565b634e487b7160e01b5f52602260045260245ffd5b91607f1691610af8565b67ffffffffffffffff8111610b3557604052565b634e487b7160e01b5f52604160045260245ffd5b6080810190811067ffffffffffffffff821117610b3557604052565b6040810190811067ffffffffffffffff821117610b3557604052565b90601f8019910116810190811067ffffffffffffffff821117610b3557604052565b604051905f8260045491610bb683610ae9565b80835292600190818116908115610c3d5750600114610bdf575b50610bdd92500383610b81565b565b60045f90815291507f8a35acfbc15ff81a39ae7d344fd709f28e8600b4aa8c65c6b64bfe7fe36bd19b5b848310610c225750610bdd93505081016020015f610bd0565b81935090816020925483858a01015201910190918592610c09565b905060209250610bdd94915060ff191682840152151560051b8201015f610bd0565b91908251928382525f5b848110610c89575050825f602080949584010152601f8019910116010190565b602081830181015184830182015201610c69565b60405190610caa82610b65565b6011825270757064617465436f6e66696756616c756560781b6020830152565b51908115158203610ae557565b60407f6f15e0184a2fde8385b26f1ddaafdc454af5fec5adbb2b9dacdac58e9ad8fe8391600354908060035582519182526020820152a1565b60405190610d1d82610b65565b6012825271757064617465436f6e666967537472696e6760701b6020830152565b610d46610ba3565b9080519067ffffffffffffffff8211610b3557610d64600454610ae9565b601f8111610e9f575b5060209182601f8211600114610df657927f2bf68bf2526df565fbca5ca75ba3870093c31d06aef46e371eed92a68a76dc06949282610de693610dd9965f91610deb575b508160011b915f199060031b1c1916176004555b604051948594604086526040860190610c5f565b9184830390850152610c5f565b0390a1565b90508201515f610db1565b601f1982169060045f527f8a35acfbc15ff81a39ae7d344fd709f28e8600b4aa8c65c6b64bfe7fe36bd19b915f5b818110610e88575083610dd996937f2bf68bf2526df565fbca5ca75ba3870093c31d06aef46e371eed92a68a76dc06989693610de69660019410610e70575b5050811b01600455610dc5565b8401515f1960f88460031b161c191690555f80610e63565b919286600181928689015181550194019201610e24565b5f600481527f8a35acfbc15ff81a39ae7d344fd709f28e8600b4aa8c65c6b64bfe7fe36bd19b601f850160051c81019260208610610efa575b601f0160051c01915b828110610eef575050610d6d565b818155600101610ee1565b9092508290610ed8565b60405190610f1182610b65565b601282527175706461746541637469766553746174757360701b6020830152565b60407f4407899c7561c87ac07b2613bcc4033ceb3e3c442c00d83b2abae0f430c6c9f59160055490151560ff811660ff1983161760055560ff83519216151582526020820152a1565b15610f8257565b606460405162461bcd60e51b815260206004820152600a60248201527f4f6e6c79206f776e6572000000000000000000000000000000000000000000006044820152fd5b15610fcd57565b606460405162461bcd60e51b815260206004820152601860248201527f4d756c7469736967206d616e61676572206e6f742073657400000000000000006044820152fd5b6040519061101e82610b49565b5f6060838281528260208201528260408201520152565b6001600160a01b036001541680156110c6576110709160209160405180809581946375df264d60e01b83528660048401526024830190610c5f565b03915afa9081156110bb575f91611085575090565b906020823d82116110b3575b8161109e60209383610b81565b8101031261026357506110b090610cca565b90565b3d9150611091565b6040513d5f823e3d90fd5b50505f90565b6110d4611011565b506001600160a01b036001541680156111a85761112a9160809160405180809581947ffd055f6b000000000000000000000000000000000000000000000000000000008352602060048401526024830190610c5f565b03915afa9081156110bb575f9161113f575090565b906080823d82116111a0575b8161115860809383610b81565b81010312610263575061119860606040519261117384610b49565b61117c81610cca565b8452602081015160208501526040810151604085015201610cca565b606082015290565b3d915061114b565b50506040516111b681610b49565b5f8152600160208201525f60408201525f60608201529056fea264697066735822122057d8adeadad9c30a22210bddcf04ca7bbeb2e5fb655e4ebdcc2d1becef0a3b6864736f6c63430008140033",
  "linkReferences": {},
  "deployedLinkReferences": {}
}