{
  "_format": "hh-sol-artifact-1",
  "contractName": "MultisigExample",
  "sourceName": "contracts/examples/MultisigExample.sol",
  "abi": [
    {
      "inputs": [
        {
          "internalType": "address",
          "name": "_multisigManager",
          "type": "address"
        }
      ],
      "stateMutability": "nonpayable",
      "type": "constructor"
    },
    {
      "anonymous": false,
      "inputs": [
        {
          "indexed": false,
          "internalType": "bool",
          "name": "oldStatus",
          "type": "bool"
        },
        {
          "indexed": false,
          "internalType": "bool",
          "name": "newStatus",
          "type": "bool"
        }
      ],
      "name": "ActiveStatusUpdated",
      "type": "event"
    },
    {
      "anonymous": false,
      "inputs": [
        {
          "indexed": false,
          "internalType": "string",
          "name": "oldValue",
          "type": "string"
        },
        {
          "indexed": false,
          "internalType": "string",
          "name": "newValue",
          "type": "string"
        }
      ],
      "name": "ConfigStringUpdated",
      "type": "event"
    },
    {
      "anonymous": false,
      "inputs": [
        {
          "indexed": false,
          "internalType": "uint256",
          "name": "oldValue",
          "type": "uint256"
        },
        {
          "indexed": false,
          "internalType": "uint256",
          "name": "newValue",
          "type": "uint256"
        }
      ],
      "name": "ConfigValueUpdated",
      "type": "event"
    },
    {
      "anonymous": false,
      "inputs": [
        {
          "indexed": false,
          "internalType": "address",
          "name": "oldManager",
          "type": "address"
        },
        {
          "indexed": false,
          "internalType": "address",
          "name": "newManager",
          "type": "address"
        }
      ],
      "name": "MultisigManagerUpdated",
      "type": "event"
    },
    {
      "inputs": [],
      "name": "configString",
      "outputs": [
        {
          "internalType": "string",
          "name": "",
          "type": "string"
        }
      ],
      "stateMutability": "view",
      "type": "function"
    },
    {
      "inputs": [],
      "name": "configValue",
      "outputs": [
        {
          "internalType": "uint256",
          "name": "",
          "type": "uint256"
        }
      ],
      "stateMutability": "view",
      "type": "function"
    },
    {
      "inputs": [],
      "name": "disableMultisigForActiveStatus",
      "outputs": [],
      "stateMutability": "nonpayable",
      "type": "function"
    },
    {
      "inputs": [],
      "name": "disableMultisigForConfigString",
      "outputs": [],
      "stateMutability": "nonpayable",
      "type": "function"
    },
    {
      "inputs": [],
      "name": "disableMultisigForConfigValue",
      "outputs": [],
      "stateMutability": "nonpayable",
      "type": "function"
    },
    {
      "inputs": [
        {
          "internalType": "uint256",
          "name": "requiredSignatures",
          "type": "uint256"
        },
        {
          "internalType": "uint256",
          "name": "timelockDuration",
          "type": "uint256"
        }
      ],
      "name": "enableMultisigForActiveStatus",
      "outputs": [],
      "stateMutability": "nonpayable",
      "type": "function"
    },
    {
      "inputs": [
        {
          "internalType": "uint256",
          "name": "requiredSignatures",
          "type": "uint256"
        },
        {
          "internalType": "uint256",
          "name": "timelockDuration",
          "type": "uint256"
        }
      ],
      "name": "enableMultisigForConfigString",
      "outputs": [],
      "stateMutability": "nonpayable",
      "type": "function"
    },
    {
      "inputs": [
        {
          "internalType": "uint256",
          "name": "requiredSignatures",
          "type": "uint256"
        },
        {
          "internalType": "uint256",
          "name": "timelockDuration",
          "type": "uint256"
        }
      ],
      "name": "enableMultisigForConfigValue",
      "outputs": [],
      "stateMutability": "nonpayable",
      "type": "function"
    },
    {
      "inputs": [],
      "name": "getActiveStatusMultisigConfig",
      "outputs": [
        {
          "components": [
            {
              "internalType": "bool",
              "name": "isEnabled",
              "type": "bool"
            },
            {
              "internalType": "uint256",
              "name": "requiredSignatures",
              "type": "uint256"
            },
            {
              "internalType": "uint256",
              "name": "timelockDuration",
              "type": "uint256"
            },
            {
              "internalType": "bool",
              "name": "isActive",
              "type": "bool"
            }
          ],
          "internalType": "struct MultisigManager.MultisigConfig",
          "name": "",
          "type": "tuple"
        }
      ],
      "stateMutability": "view",
      "type": "function"
    },
    {
      "inputs": [],
      "name": "getConfigStringMultisigConfig",
      "outputs": [
        {
          "components": [
            {
              "internalType": "bool",
              "name": "isEnabled",
              "type": "bool"
            },
            {
              "internalType": "uint256",
              "name": "requiredSignatures",
              "type": "uint256"
            },
            {
              "internalType": "uint256",
              "name": "timelockDuration",
              "type": "uint256"
            },
            {
              "internalType": "bool",
              "name": "isActive",
              "type": "bool"
            }
          ],
          "internalType": "struct MultisigManager.MultisigConfig",
          "name": "",
          "type": "tuple"
        }
      ],
      "stateMutability": "view",
      "type": "function"
    },
    {
      "inputs": [],
      "name": "getConfigValueMultisigConfig",
      "outputs": [
        {
          "components": [
            {
              "internalType": "bool",
              "name": "isEnabled",
              "type": "bool"
            },
            {
              "internalType": "uint256",
              "name": "requiredSignatures",
              "type": "uint256"
            },
            {
              "internalType": "uint256",
              "name": "timelockDuration",
              "type": "uint256"
            },
            {
              "internalType": "bool",
              "name": "isActive",
              "type": "bool"
            }
          ],
          "internalType": "struct MultisigManager.MultisigConfig",
          "name": "",
          "type": "tuple"
        }
      ],
      "stateMutability": "view",
      "type": "function"
    },
    {
      "inputs": [],
      "name": "getConfiguration",
      "outputs": [
        {
          "internalType": "uint256",
          "name": "value",
          "type": "uint256"
        },
        {
          "internalType": "string",
          "name": "stringValue",
          "type": "string"
        },
        {
          "internalType": "bool",
          "name": "active",
          "type": "bool"
        }
      ],
      "stateMutability": "view",
      "type": "function"
    },
    {
      "inputs": [],
      "name": "isActive",
      "outputs": [
        {
          "internalType": "bool",
          "name": "",
          "type": "bool"
        }
      ],
      "stateMutability": "view",
      "type": "function"
    },
    {
      "inputs": [],
      "name": "isActiveStatusMultisigRequired",
      "outputs": [
        {
          "internalType": "bool",
          "name": "",
          "type": "bool"
        }
      ],
      "stateMutability": "view",
      "type": "function"
    },
    {
      "inputs": [],
      "name": "isConfigStringMultisigRequired",
      "outputs": [
        {
          "internalType": "bool",
          "name": "",
          "type": "bool"
        }
      ],
      "stateMutability": "view",
      "type": "function"
    },
    {
      "inputs": [],
      "name": "isConfigValueMultisigRequired",
      "outputs": [
        {
          "internalType": "bool",
          "name": "",
          "type": "bool"
        }
      ],
      "stateMutability": "view",
      "type": "function"
    },
    {
      "inputs": [],
      "name": "isMultisigManagerSet",
      "outputs": [
        {
          "internalType": "bool",
          "name": "",
          "type": "bool"
        }
      ],
      "stateMutability": "view",
      "type": "function"
    },
    {
      "inputs": [],
      "name": "multisigManager",
      "outputs": [
        {
          "internalType": "contract MultisigManager",
          "name": "",
          "type": "address"
        }
      ],
      "stateMutability": "view",
      "type": "function"
    },
    {
      "inputs": [],
      "name": "owner",
      "outputs": [
        {
          "internalType": "address",
          "name": "",
          "type": "address"
        }
      ],
      "stateMutability": "view",
      "type": "function"
    },
    {
      "inputs": [
        {
          "internalType": "address",
          "name": "_multisigManager",
          "type": "address"
        }
      ],
      "name": "setMultisigManager",
      "outputs": [],
      "stateMutability": "nonpayable",
      "type": "function"
    },
    {
      "inputs": [
        {
          "internalType": "bool",
          "name": "newStatus",
          "type": "bool"
        }
      ],
      "name": "updateActiveStatus",
      "outputs": [],
      "stateMutability": "nonpayable",
      "type": "function"
    },
    {
      "inputs": [
        {
          "internalType": "string",
          "name": "newString",
          "type": "string"
        }
      ],
      "name": "updateConfigString",
      "outputs": [],
      "stateMutability": "nonpayable",
      "type": "function"
    },
    {
      "inputs": [
        {
          "internalType": "uint256",
          "name": "newValue",
          "type": "uint256"
        }
      ],
      "name": "updateConfigValue",
      "outputs": [],
      "stateMutability": "nonpayable",
      "type": "function"
    }
  ],
  "bytecode": "0x60803461012257601f6200136238819003918201601f19168301916001600160401b038311848410176101275780849260209460405283398101031261012257516001600160a01b038116908190036101225760019060009082825560018060a01b03193381600254161760025581610115575b50506064600355600454908282811c9216801561010b575b60208310146100f757601f82116100ca575b600e66191959985d5b1d60ca1b016004556005805460ff19168417905560405161122490816200013e8239f35b6004815282601f60208320930160051c8301925b8381106100ec57505061009d565b8281550183906100de565b634e487b7160e01b81526022600452602490fd5b91607f169161008b565b8354161782553880610073565b600080fd5b634e487b7160e01b600052604160045260246000fdfe6080604081815260048036101561001557600080fd5b600092833560e01c9081626c51be14610abb57508062c5f1ad14610a9b578063011a1b33146109c657806317ff069714610917578381631a44a1e41461088e5781631afaa7ef146108075750806322f3e2d4146107e357806326b8585f146107b9578381632dc1d77114610712575080634d395384146106e15780636bd50cef1461069657806376ba607b1461067657806378a97c1f1461064c5780637aee63b0146106225780637d18d8bd146105f457806380fcae23146104ab578063868d8893146104445780638ba7fe81146103565780638da5cb5b1461032e5780639fbdb7751461030257838163afb558881461027b578163ee970ef2146101bd575063f4692e091461012457600080fd5b346101b95760203660031901126101b95735906001600160a01b038083168093036101b5577f23e0a616efc76d766195373e42d10e0dcd75d41363639187f5e5e5580726d0fd9261017a82600254163314610f92565b60015491817fffffffffffffffffffffffff00000000000000000000000000000000000000008416176001558351921682526020820152a180f35b8380fd5b8280fd5b929050346102775782600319360112610277576001600160a01b036101e781600254163314610f92565b600154166101f6811515610fdd565b803b156102725760209284918351948592639394fa1560e01b8452830152818381610243602482016040906011815270757064617465436f6e66696756616c756560781b60208201520190565b03925af190811561026957506102565750f35b61025f90610b2c565b6102665780f35b80fd5b513d84823e3d90fd5b505050fd5b5050fd5b929050346102775782600319360112610277576001600160a01b036102a581600254163314610f92565b600154166102b4811515610fdd565b803b156102725760209284918351948592639394fa1560e01b845283015281838161024360248201604090601281527175706461746541637469766553746174757360701b60208201520190565b50503461032a578160031936011261032a576020906001600160a01b03600154169051908152f35b5080fd5b50503461032a578160031936011261032a576020906001600160a01b03600254169051908152f35b5090346101b9576020806003193601126101b55782359283151584036104405761037e610f1b565b906001600160a01b03806001541615156000146104325791839291836103c4959360015416918751968794859384936375df264d60e01b85528401526024830190610c6e565b03915afa928315610429575084926103f3575b5050156103ea576103e790610f49565b80f35b6103e790610f49565b90809250813d8311610422575b61040a8183610b8e565b810103126101b95761041b90610cdb565b38806103d7565b503d610400565b513d86823e3d90fd5b50505050506103e790610f49565b8480fd5b50503461032a578160031936011261032a576104a790610462611028565b5061047361046e610d21565b6110e7565b9051918291829190916060806080830194805115158452602081015160208501526040810151604085015201511515910152565b0390f35b5090346101b9576020806003193601126101b55767ffffffffffffffff9280358481116105f057366023820112156105f057808201359485116105db57859084519561050085601f19601f8401160188610b8e565b80875236602482840101116101b9578060248693018389013786010152610525610d21565b906001600160a01b03806001541615156000146105cd57918392918361056b959360015416918751968794859384936375df264d60e01b85528401526024830190610c6e565b03915afa92831561042957508492610597575b50501561058e576103e790610d4f565b6103e790610d4f565b90809250813d83116105c6575b6105ae8183610b8e565b810103126101b9576105bf90610cdb565b388061057e565b503d6105a4565b50505050506103e790610d4f565b604182634e487b7160e01b6000525260246000fd5b8580fd5b50503461032a578160031936011261032a57602090610619610614610d21565b61104d565b90519015158152f35b50503461032a578160031936011261032a576020906001600160a01b036001541615159051908152f35b50503461032a578160031936011261032a576104a79061066a611028565b5061047361046e610f1b565b50503461032a578160031936011261032a57602090610619610614610f1b565b8284346102665780600319360112610266575060035460ff600554166106ba610bb0565b926106d681519485948552606060208601526060850190610c6e565b911515908301520390f35b50503461032a578160031936011261032a576104a7906106ff610bb0565b9051918291602083526020830190610c6e565b929050346102775761072336610ad7565b6001600160a01b0393919361073d81600254163314610f92565b6001541661074c811515610fdd565b803b156105f0576060868094865197889586948593630b5c89ab60e11b855284015261079b60648401604090601281527175706461746541637469766553746174757360701b60208201520190565b916024840152604483015203925af190811561026957506102565750f35b50503461032a578160031936011261032a576104a7906107d7611028565b5061047361046e610cae565b50503461032a578160031936011261032a5760209060ff6005541690519015158152f35b929050346102775782600319360112610277576001600160a01b0361083181600254163314610f92565b60015416610840811515610fdd565b803b156102725760209284918351948592639394fa1560e01b8452830152818381610243602482016040906012815271757064617465436f6e666967537472696e6760701b60208201520190565b929050346102775761089f36610ad7565b6001600160a01b039391936108b981600254163314610f92565b600154166108c8811515610fdd565b803b156105f0576060868094865197889586948593630b5c89ab60e11b855284015261079b606484016040906012815271757064617465436f6e666967537472696e6760701b60208201520190565b5090346101b9578261092836610ad7565b90936001600160a01b0361094181600254163314610f92565b6001541690610951821515610fdd565b813b156101b55783606091865197889586948593630b5c89ab60e11b855284015261099e606484016040906011815270757064617465436f6e66696756616c756560781b60208201520190565b916024840152604483015203925af190811561026957506109bd575080f35b6103e790610b2c565b5090346101b9576020806003193601126101b5578235926109e5610cae565b906001600160a01b0380600154161515600014610a8d579183929183610a2b959360015416918751968794859384936375df264d60e01b85528401526024830190610c6e565b03915afa92831561042957508492610a57575b505015610a4e576103e790610ce8565b6103e790610ce8565b90809250813d8311610a86575b610a6e8183610b8e565b810103126101b957610a7f90610cdb565b3880610a3e565b503d610a64565b50505050506103e790610ce8565b50503461032a578160031936011261032a57602090610619610614610cae565b84903461032a578160031936011261032a576020906003548152f35b6040906003190112610aed576004359060243590565b600080fd5b90600182811c92168015610b22575b6020831014610b0c57565b634e487b7160e01b600052602260045260246000fd5b91607f1691610b01565b67ffffffffffffffff8111610b4057604052565b634e487b7160e01b600052604160045260246000fd5b6080810190811067ffffffffffffffff821117610b4057604052565b6040810190811067ffffffffffffffff821117610b4057604052565b90601f8019910116810190811067ffffffffffffffff821117610b4057604052565b6040519060008260045491610bc483610af2565b80835292600190818116908115610c4c5750600114610bed575b50610beb92500383610b8e565b565b6004600090815291507f8a35acfbc15ff81a39ae7d344fd709f28e8600b4aa8c65c6b64bfe7fe36bd19b5b848310610c315750610beb935050810160200138610bde565b81935090816020925483858a01015201910190918592610c18565b905060209250610beb94915060ff191682840152151560051b82010138610bde565b919082519283825260005b848110610c9a575050826000602080949584010152601f8019910116010190565b602081830181015184830182015201610c79565b60405190610cbb82610b72565b6011825270757064617465436f6e66696756616c756560781b6020830152565b51908115158203610aed57565b60407f6f15e0184a2fde8385b26f1ddaafdc454af5fec5adbb2b9dacdac58e9ad8fe8391600354908060035582519182526020820152a1565b60405190610d2e82610b72565b6012825271757064617465436f6e666967537472696e6760701b6020830152565b610d57610bb0565b9080519067ffffffffffffffff8211610b4057610d75600454610af2565b601f8111610eb5575b5060209182601f8211600114610e0957927f2bf68bf2526df565fbca5ca75ba3870093c31d06aef46e371eed92a68a76dc06949282610df993610dec96600091610dfe575b508160011b916000199060031b1c1916176004555b604051948594604086526040860190610c6e565b9184830390850152610c6e565b0390a1565b905082015138610dc3565b601f1982169060046000527f8a35acfbc15ff81a39ae7d344fd709f28e8600b4aa8c65c6b64bfe7fe36bd19b9160005b818110610e9e575083610dec96937f2bf68bf2526df565fbca5ca75ba3870093c31d06aef46e371eed92a68a76dc06989693610df99660019410610e85575b5050811b01600455610dd8565b84015160001960f88460031b161c191690553880610e78565b919286600181928689015181550194019201610e39565b6000600481527f8a35acfbc15ff81a39ae7d344fd709f28e8600b4aa8c65c6b64bfe7fe36bd19b601f850160051c81019260208610610f11575b601f0160051c01915b828110610f06575050610d7e565b818155600101610ef8565b9092508290610eef565b60405190610f2882610b72565b601282527175706461746541637469766553746174757360701b6020830152565b60407f4407899c7561c87ac07b2613bcc4033ceb3e3c442c00d83b2abae0f430c6c9f59160055490151560ff811660ff1983161760055560ff83519216151582526020820152a1565b15610f9957565b606460405162461bcd60e51b815260206004820152600a60248201527f4f6e6c79206f776e6572000000000000000000000000000000000000000000006044820152fd5b15610fe457565b606460405162461bcd60e51b815260206004820152601860248201527f4d756c7469736967206d616e61676572206e6f742073657400000000000000006044820152fd5b6040519061103582610b56565b60006060838281528260208201528260408201520152565b6001600160a01b036001541680156110e0576110889160209160405180809581946375df264d60e01b83528660048401526024830190610c6e565b03915afa9081156110d45760009161109e575090565b906020823d82116110cc575b816110b760209383610b8e565b8101031261026657506110c990610cdb565b90565b3d91506110aa565b6040513d6000823e3d90fd5b5050600090565b6110ef611028565b506001600160a01b036001541680156111c4576111459160809160405180809581947ffd055f6b000000000000000000000000000000000000000000000000000000008352602060048401526024830190610c6e565b03915afa9081156110d45760009161115b575090565b906080823d82116111bc575b8161117460809383610b8e565b8101031261026657506111b460606040519261118f84610b56565b61119881610cdb565b8452602081015160208501526040810151604085015201610cdb565b606082015290565b3d9150611167565b50506040516111d281610b56565b600081526001602082015260006040820152600060608201529056fea26469706673582212202a85f8109b8f22603d9601a9158304bd96ada49d0edeb822452169f41fac56cb64736f6c63430008140033",
  "linkReferences": {},
  "deployedLinkReferences": {}
}