{
  "_format": "hh-sol-artifact-1",
  "contractName": "BatchOperationsRefactored",
  "sourceName": "contracts/business/BatchOperationsRefactored.sol",
  "abi": [
    {
      "inputs": [
        {
          "internalType": "address",
          "name": "_kycDataStorage",
          "type": "address"
        },
        {
          "internalType": "address",
          "name": "_auditLogStorage",
          "type": "address"
        },
        {
          "internalType": "address",
          "name": "_didCredentialStorage",
          "type": "address"
        }
      ],
      "stateMutability": "nonpayable",
      "type": "constructor"
    },
    {
      "anonymous": false,
      "inputs": [
        {
          "indexed": true,
          "internalType": "address",
          "name": "writer",
          "type": "address"
        },
        {
          "indexed": false,
          "internalType": "bool",
          "name": "authorized",
          "type": "bool"
        }
      ],
      "name": "AuthorizedWriterUpdated",
      "type": "event"
    },
    {
      "anonymous": false,
      "inputs": [
        {
          "indexed": true,
          "internalType": "uint256",
          "name": "batchId",
          "type": "uint256"
        },
        {
          "indexed": false,
          "internalType": "uint256",
          "name": "successCount",
          "type": "uint256"
        },
        {
          "indexed": false,
          "internalType": "uint256",
          "name": "failureCount",
          "type": "uint256"
        }
      ],
      "name": "BatchKYCOperationCompleted",
      "type": "event"
    },
    {
      "inputs": [],
      "name": "MAX_BATCH_SIZE",
      "outputs": [
        {
          "internalType": "uint256",
          "name": "",
          "type": "uint256"
        }
      ],
      "stateMutability": "view",
      "type": "function"
    },
    {
      "inputs": [],
      "name": "auditLogStorage",
      "outputs": [
        {
          "internalType": "contract AuditLogStorage",
          "name": "",
          "type": "address"
        }
      ],
      "stateMutability": "view",
      "type": "function"
    },
    {
      "inputs": [
        {
          "internalType": "address",
          "name": "",
          "type": "address"
        }
      ],
      "name": "authorizedWriters",
      "outputs": [
        {
          "internalType": "bool",
          "name": "",
          "type": "bool"
        }
      ],
      "stateMutability": "view",
      "type": "function"
    },
    {
      "inputs": [
        {
          "internalType": "address[]",
          "name": "users",
          "type": "address[]"
        },
        {
          "internalType": "bool",
          "name": "isActive",
          "type": "bool"
        }
      ],
      "name": "batchUpdateKYCStatus",
      "outputs": [],
      "stateMutability": "nonpayable",
      "type": "function"
    },
    {
      "inputs": [],
      "name": "didCredentialStorage",
      "outputs": [
        {
          "internalType": "contract DIDCredentialStorage",
          "name": "",
          "type": "address"
        }
      ],
      "stateMutability": "view",
      "type": "function"
    },
    {
      "inputs": [],
      "name": "getBatchLimits",
      "outputs": [
        {
          "internalType": "uint256",
          "name": "maxBatchSize",
          "type": "uint256"
        }
      ],
      "stateMutability": "pure",
      "type": "function"
    },
    {
      "inputs": [
        {
          "internalType": "address",
          "name": "writer",
          "type": "address"
        }
      ],
      "name": "isAuthorizedWriter",
      "outputs": [
        {
          "internalType": "bool",
          "name": "",
          "type": "bool"
        }
      ],
      "stateMutability": "view",
      "type": "function"
    },
    {
      "inputs": [],
      "name": "kycDataStorage",
      "outputs": [
        {
          "internalType": "contract KYCDataStorage",
          "name": "",
          "type": "address"
        }
      ],
      "stateMutability": "view",
      "type": "function"
    },
    {
      "inputs": [],
      "name": "owner",
      "outputs": [
        {
          "internalType": "address",
          "name": "",
          "type": "address"
        }
      ],
      "stateMutability": "view",
      "type": "function"
    },
    {
      "inputs": [
        {
          "components": [
            {
              "internalType": "address",
              "name": "user",
              "type": "address"
            },
            {
              "internalType": "string",
              "name": "tenantId",
              "type": "string"
            },
            {
              "internalType": "string",
              "name": "jurisdiction",
              "type": "string"
            },
            {
              "internalType": "string",
              "name": "documentHash",
              "type": "string"
            }
          ],
          "internalType": "struct BatchOperationsRefactored.BatchKYCRequest[]",
          "name": "requests",
          "type": "tuple[]"
        },
        {
          "internalType": "uint256",
          "name": "batchId",
          "type": "uint256"
        }
      ],
      "name": "processBatchKYC",
      "outputs": [],
      "stateMutability": "nonpayable",
      "type": "function"
    },
    {
      "inputs": [
        {
          "internalType": "address",
          "name": "writer",
          "type": "address"
        },
        {
          "internalType": "bool",
          "name": "authorized",
          "type": "bool"
        }
      ],
      "name": "setAuthorizedWriter",
      "outputs": [],
      "stateMutability": "nonpayable",
      "type": "function"
    }
  ],
  "bytecode": "0x6080346100c657601f610c9f38819003918201601f19168301916001600160401b038311848410176100ca578084926060946040528339810103126100c657610047816100de565b906100606040610059602084016100de565b92016100de565b60015f5560018060a01b03199233846001541617600155335f52600260205260405f20600160ff1982541617905560018060a01b0392838092168560035416176003551683600454161760045516906005541617600555604051610bac90816100f38239f35b5f80fd5b634e487b7160e01b5f52604160045260245ffd5b51906001600160a01b03821682036100c65756fe6080604081815260049182361015610015575f80fd5b5f92833560e01c91826313caf5cb146106d6575081634e3d1af4146106ba5781634ff25b1014610693578163526241a814610657578163542a086c1461051757816365890137146103805781638da5cb5b14610358578163ad4b95bb1461013757508063ad6e823b146100e0578063b015b9b4146100b95763cfdbf2541461009b575f80fd5b346100b557816003193601126100b5576020905160328152f35b5080fd5b50346100b557816003193601126100b5576020906001600160a01b03600554169051908152f35b50346100b55760203660031901126100b557906020916001600160a01b039160ff828461010b6106fb565b169283815260028752205416928315610129575b5050519015158152f35b600154161491505f8061011f565b82843461035557816003193601126103555782359167ffffffffffffffff808411610351573660238501121561035157838501359361017585610782565b9161018284519384610760565b858352602096878401916024809860051b8501019336851161034d57888101935b858510610288575050505050503383526002855260ff8284205416801561026f575b6101ce906107f0565b6101d66108d0565b6101e460328251111561083b565b82809281945b83518610156102375761020661020087866108a8565b51610961565b156102235761021761021d91610886565b95610886565b946101ea565b949361023161021d91610886565b94610886565b907f390ea4f12fc3481600081336b453774a9e6feb9604f4ff6accbd2241395355bb9087868a83519586528501523592a26001815580f35b506101ce6001600160a01b0360015416331490506101c5565b843583811161034957820160809081602319823603011261034557895191820182811086821117610333578a526102c08c8201610715565b8252604481013585811161032f576102dd908d369184010161079a565b8d830152606481013585811161032f576102fc908d369184010161079a565b8a830152608481013585811161032f579161031f8e94928e86953692010161079a565b60608201528152019401936101a3565b8b80fd5b8c8c604189634e487b7160e01b835252fd5b8a80fd5b8980fd5b8780fd5b8280fd5b80fd5b5050346100b557816003193601126100b5576020906001600160a01b03600154169051908152f35b9190503461035157806003193601126103515781359067ffffffffffffffff8211610513573660238301121561051357818301356103bd81610782565b6103c983519182610760565b8181526020938482016024809460051b8301019136831161050f5784879101915b8383106104f7575050505060026103ff610729565b943388525260ff838720541680156104de575b61041b906107f0565b6104236108d0565b61043160328251111561083b565b855b81518110156104d657866001600160a01b038061045084866108a8565b5116610467575b505061046290610886565b610433565b80600354169061047784866108a8565b511690803b156103515760448392885194859384926329efcebb60e11b84528d8401528b15158a8401525af180156104cc579061046292916104bd575b88919250610457565b6104c690610738565b5f6104b4565b85513d8a823e3d90fd5b866001815580f35b5061041b6001600160a01b036001541633149050610412565b819061050284610715565b81520191019086906103ea565b8880fd5b8380fd5b919050346103515780600319360112610351576105326106fb565b9061053b610729565b916001600160a01b0390816001541633036105ee576105586108d0565b169283156105ac57507e8ebc621f24e0e9d1fd4ee2f7df9bb80c8d61ee30a9167a4fee6cefcf8c021e91602091848652600283528086209115159160ff1981541660ff841617905551908152a26001815580f35b6020606492519162461bcd60e51b8352820152601660248201527f496e76616c6964207772697465722061646472657373000000000000000000006044820152fd5b608485602085519162461bcd60e51b8352820152602160248201527f4f6e6c79206f776e65722063616e2063616c6c20746869732066756e6374696f60448201527f6e000000000000000000000000000000000000000000000000000000000000006064820152fd5b5050346100b55760203660031901126100b55760ff816020936001600160a01b036106806106fb565b1681526002855220541690519015158152f35b828434610355578060031936011261035557506001600160a01b0360209254169051908152f35b5050346100b557816003193601126100b5576020905160328152f35b8490346100b557816003193601126100b5576020906001600160a01b03600354168152f35b600435906001600160a01b038216820361071157565b5f80fd5b35906001600160a01b038216820361071157565b60243590811515820361071157565b67ffffffffffffffff811161074c57604052565b634e487b7160e01b5f52604160045260245ffd5b90601f8019910116810190811067ffffffffffffffff82111761074c57604052565b67ffffffffffffffff811161074c5760051b60200190565b81601f820112156107115780359067ffffffffffffffff821161074c57604051926107cf601f8401601f191660200185610760565b8284526020838301011161071157815f926020809301838601378301015290565b156107f757565b606460405162461bcd60e51b815260206004820152601760248201527f4e6f7420617574686f72697a656420746f2077726974650000000000000000006044820152fd5b1561084257565b606460405162461bcd60e51b815260206004820152601460248201527f42617463682073697a6520746f6f206c617267650000000000000000000000006044820152fd5b5f1981146108945760010190565b634e487b7160e01b5f52601160045260245ffd5b80518210156108bc5760209160051b010190565b634e487b7160e01b5f52603260045260245ffd5b60025f54146108df5760025f55565b606460405162461bcd60e51b815260206004820152601f60248201527f5265656e7472616e637947756172643a207265656e7472616e742063616c6c006044820152fd5b91908251928382525f5b84811061094d575050825f602080949584010152601f8019910116010190565b60208183018101518483018201520161092d565b80515f916001600160a01b03809216918215610b7057602082019081515115610b6957604083019384515115610b6157816003541690813b15610b5d5786916044839260405194859384926329efcebb60e11b84526004840152600160248401525af19081610b4a575b506109d7575050505090565b806004541692511690519251823b15610b465791610a5b93918560e081957f535543434553530000000000000000000000000000000000000000000000000060c0610a6e6040519a8b998a987fdcab700b000000000000000000000000000000000000000000000000000000008a5260048a01528360248a015260c4890190610923565b60031994858983030160448a0152610923565b8681039384016064880152601081527f4b59435f564552494649434154494f4e000000000000000000000000000000006020820152603c84016084880152602e60408201527f4b594320766572696669636174696f6e20636f6d706c6574656420766961206260608201527f61746368206f7065726174696f6e0000000000000000000000000000000000006080820152609c840160a4880152600760a0820152015201925af18015610b3b57610b27575b5050600190565b610b318291610738565b6103555780610b20565b6040513d84823e3d90fd5b8480fd5b610b5690969196610738565b945f6109cb565b8680fd5b505050505090565b5050505090565b5050509056fea26469706673582212202a1c7496fbf5c43c7d72f41e3bcf691da436521df641cc90eaf3d2663c63d16464736f6c63430008140033",
  "linkReferences": {},
  "deployedLinkReferences": {}
}