{
  "_format": "hh-sol-artifact-1",
  "contractName": "BatchOperationsRefactored",
  "sourceName": "contracts/business/BatchOperationsRefactored.sol",
  "abi": [
    {
      "inputs": [
        {
          "internalType": "address",
          "name": "_kycDataStorage",
          "type": "address"
        },
        {
          "internalType": "address",
          "name": "_auditLogStorage",
          "type": "address"
        },
        {
          "internalType": "address",
          "name": "_didCredentialStorage",
          "type": "address"
        }
      ],
      "stateMutability": "nonpayable",
      "type": "constructor"
    },
    {
      "anonymous": false,
      "inputs": [
        {
          "indexed": true,
          "internalType": "address",
          "name": "writer",
          "type": "address"
        },
        {
          "indexed": false,
          "internalType": "bool",
          "name": "authorized",
          "type": "bool"
        }
      ],
      "name": "AuthorizedWriterUpdated",
      "type": "event"
    },
    {
      "anonymous": false,
      "inputs": [
        {
          "indexed": true,
          "internalType": "uint256",
          "name": "batchId",
          "type": "uint256"
        },
        {
          "indexed": false,
          "internalType": "uint256",
          "name": "successCount",
          "type": "uint256"
        },
        {
          "indexed": false,
          "internalType": "uint256",
          "name": "failureCount",
          "type": "uint256"
        }
      ],
      "name": "BatchKYCOperationCompleted",
      "type": "event"
    },
    {
      "inputs": [],
      "name": "MAX_BATCH_SIZE",
      "outputs": [
        {
          "internalType": "uint256",
          "name": "",
          "type": "uint256"
        }
      ],
      "stateMutability": "view",
      "type": "function"
    },
    {
      "inputs": [],
      "name": "auditLogStorage",
      "outputs": [
        {
          "internalType": "contract AuditLogStorage",
          "name": "",
          "type": "address"
        }
      ],
      "stateMutability": "view",
      "type": "function"
    },
    {
      "inputs": [
        {
          "internalType": "address",
          "name": "",
          "type": "address"
        }
      ],
      "name": "authorizedWriters",
      "outputs": [
        {
          "internalType": "bool",
          "name": "",
          "type": "bool"
        }
      ],
      "stateMutability": "view",
      "type": "function"
    },
    {
      "inputs": [
        {
          "internalType": "address[]",
          "name": "users",
          "type": "address[]"
        },
        {
          "internalType": "bool",
          "name": "isActive",
          "type": "bool"
        }
      ],
      "name": "batchUpdateKYCStatus",
      "outputs": [],
      "stateMutability": "nonpayable",
      "type": "function"
    },
    {
      "inputs": [],
      "name": "didCredentialStorage",
      "outputs": [
        {
          "internalType": "contract DIDCredentialStorage",
          "name": "",
          "type": "address"
        }
      ],
      "stateMutability": "view",
      "type": "function"
    },
    {
      "inputs": [],
      "name": "getBatchLimits",
      "outputs": [
        {
          "internalType": "uint256",
          "name": "maxBatchSize",
          "type": "uint256"
        }
      ],
      "stateMutability": "pure",
      "type": "function"
    },
    {
      "inputs": [
        {
          "internalType": "address",
          "name": "writer",
          "type": "address"
        }
      ],
      "name": "isAuthorizedWriter",
      "outputs": [
        {
          "internalType": "bool",
          "name": "",
          "type": "bool"
        }
      ],
      "stateMutability": "view",
      "type": "function"
    },
    {
      "inputs": [],
      "name": "kycDataStorage",
      "outputs": [
        {
          "internalType": "contract KYCDataStorage",
          "name": "",
          "type": "address"
        }
      ],
      "stateMutability": "view",
      "type": "function"
    },
    {
      "inputs": [],
      "name": "owner",
      "outputs": [
        {
          "internalType": "address",
          "name": "",
          "type": "address"
        }
      ],
      "stateMutability": "view",
      "type": "function"
    },
    {
      "inputs": [
        {
          "components": [
            {
              "internalType": "address",
              "name": "user",
              "type": "address"
            },
            {
              "internalType": "string",
              "name": "tenantId",
              "type": "string"
            },
            {
              "internalType": "string",
              "name": "jurisdiction",
              "type": "string"
            },
            {
              "internalType": "string",
              "name": "documentHash",
              "type": "string"
            }
          ],
          "internalType": "struct BatchOperationsRefactored.BatchKYCRequest[]",
          "name": "requests",
          "type": "tuple[]"
        },
        {
          "internalType": "uint256",
          "name": "batchId",
          "type": "uint256"
        }
      ],
      "name": "processBatchKYC",
      "outputs": [],
      "stateMutability": "nonpayable",
      "type": "function"
    },
    {
      "inputs": [
        {
          "internalType": "address",
          "name": "writer",
          "type": "address"
        },
        {
          "internalType": "bool",
          "name": "authorized",
          "type": "bool"
        }
      ],
      "name": "setAuthorizedWriter",
      "outputs": [],
      "stateMutability": "nonpayable",
      "type": "function"
    }
  ],
  "bytecode": "0x6080346100c957601f610cb638819003918201601f19168301916001600160401b038311848410176100ce578084926060946040528339810103126100c957610047816100e4565b906100606040610059602084016100e4565b92016100e4565b600160005560018060a01b031992338460015416176001553360005260026020526040600020600160ff1982541617905560018060a01b0392838092168560035416176003551683600454161760045516906005541617600555604051610bbd90816100f98239f35b600080fd5b634e487b7160e01b600052604160045260246000fd5b51906001600160a01b03821682036100c95756fe608060408181526004918236101561001657600080fd5b600092833560e01c91826313caf5cb146106d9575081634e3d1af4146106bd5781634ff25b1014610696578163526241a81461065a578163542a086c1461051a57816365890137146103835781638da5cb5b1461035b578163ad4b95bb1461013a57508063ad6e823b146100e3578063b015b9b4146100bc5763cfdbf2541461009e57600080fd5b346100b857816003193601126100b8576020905160328152f35b5080fd5b50346100b857816003193601126100b8576020906001600160a01b03600554169051908152f35b50346100b85760203660031901126100b857906020916001600160a01b039160ff828461010e6106fe565b16928381526002875220541692831561012c575b5050519015158152f35b600154161491503880610122565b82843461035857816003193601126103585782359167ffffffffffffffff808411610354573660238501121561035457838501359361017885610788565b9161018584519384610766565b858352602096878401916024809860051b8501019336851161035057888101935b85851061028b575050505050503383526002855260ff82842054168015610272575b6101d1906107f7565b6101d96108dc565b6101e7603282511115610842565b82809281945b835186101561023a5761020961020387866108b2565b51610971565b156102265761021a6102209161088d565b9561088d565b946101ed565b94936102346102209161088d565b9461088d565b907f390ea4f12fc3481600081336b453774a9e6feb9604f4ff6accbd2241395355bb9087868a83519586528501523592a26001815580f35b506101d16001600160a01b0360015416331490506101c8565b843583811161034c57820160809081602319823603011261034857895191820182811086821117610336578a526102c38c8201610719565b82526044810135858111610332576102e0908d36918401016107a0565b8d8301526064810135858111610332576102ff908d36918401016107a0565b8a830152608481013585811161033257916103228e94928e8695369201016107a0565b60608201528152019401936101a6565b8b80fd5b8c8c604189634e487b7160e01b835252fd5b8a80fd5b8980fd5b8780fd5b8280fd5b80fd5b5050346100b857816003193601126100b8576020906001600160a01b03600154169051908152f35b9190503461035457806003193601126103545781359067ffffffffffffffff8211610516573660238301121561051657818301356103c081610788565b6103cc83519182610766565b8181526020938482016024809460051b830101913683116105125784879101915b8383106104fa5750505050600261040261072d565b943388525260ff838720541680156104e1575b61041e906107f7565b6104266108dc565b610434603282511115610842565b855b81518110156104d957866001600160a01b038061045384866108b2565b511661046a575b50506104659061088d565b610436565b80600354169061047a84866108b2565b511690803b156103545760448392885194859384926329efcebb60e11b84528d8401528b15158a8401525af180156104cf579061046592916104c0575b8891925061045a565b6104c99061073c565b386104b7565b85513d8a823e3d90fd5b866001815580f35b5061041e6001600160a01b036001541633149050610415565b819061050584610719565b81520191019086906103ed565b8880fd5b8380fd5b919050346103545780600319360112610354576105356106fe565b9061053e61072d565b916001600160a01b0390816001541633036105f15761055b6108dc565b169283156105af57507e8ebc621f24e0e9d1fd4ee2f7df9bb80c8d61ee30a9167a4fee6cefcf8c021e91602091848652600283528086209115159160ff1981541660ff841617905551908152a26001815580f35b6020606492519162461bcd60e51b8352820152601660248201527f496e76616c6964207772697465722061646472657373000000000000000000006044820152fd5b608485602085519162461bcd60e51b8352820152602160248201527f4f6e6c79206f776e65722063616e2063616c6c20746869732066756e6374696f60448201527f6e000000000000000000000000000000000000000000000000000000000000006064820152fd5b5050346100b85760203660031901126100b85760ff816020936001600160a01b036106836106fe565b1681526002855220541690519015158152f35b828434610358578060031936011261035857506001600160a01b0360209254169051908152f35b5050346100b857816003193601126100b8576020905160328152f35b8490346100b857816003193601126100b8576020906001600160a01b03600354168152f35b600435906001600160a01b038216820361071457565b600080fd5b35906001600160a01b038216820361071457565b60243590811515820361071457565b67ffffffffffffffff811161075057604052565b634e487b7160e01b600052604160045260246000fd5b90601f8019910116810190811067ffffffffffffffff82111761075057604052565b67ffffffffffffffff81116107505760051b60200190565b81601f820112156107145780359067ffffffffffffffff821161075057604051926107d5601f8401601f191660200185610766565b8284526020838301011161071457816000926020809301838601378301015290565b156107fe57565b606460405162461bcd60e51b815260206004820152601760248201527f4e6f7420617574686f72697a656420746f2077726974650000000000000000006044820152fd5b1561084957565b606460405162461bcd60e51b815260206004820152601460248201527f42617463682073697a6520746f6f206c617267650000000000000000000000006044820152fd5b600019811461089c5760010190565b634e487b7160e01b600052601160045260246000fd5b80518210156108c65760209160051b010190565b634e487b7160e01b600052603260045260246000fd5b6002600054146108ed576002600055565b606460405162461bcd60e51b815260206004820152601f60248201527f5265656e7472616e637947756172643a207265656e7472616e742063616c6c006044820152fd5b919082519283825260005b84811061095d575050826000602080949584010152601f8019910116010190565b60208183018101518483018201520161093c565b80516000916001600160a01b03809216918215610b8157602082019081515115610b7a57604083019384515115610b7257816003541690813b15610b6e5786916044839260405194859384926329efcebb60e11b84526004840152600160248401525af19081610b5b575b506109e8575050505090565b806004541692511690519251823b15610b575791610a6c93918560e081957f535543434553530000000000000000000000000000000000000000000000000060c0610a7f6040519a8b998a987fdcab700b000000000000000000000000000000000000000000000000000000008a5260048a01528360248a015260c4890190610931565b60031994858983030160448a0152610931565b8681039384016064880152601081527f4b59435f564552494649434154494f4e000000000000000000000000000000006020820152603c84016084880152602e60408201527f4b594320766572696669636174696f6e20636f6d706c6574656420766961206260608201527f61746368206f7065726174696f6e0000000000000000000000000000000000006080820152609c840160a4880152600760a0820152015201925af18015610b4c57610b38575b5050600190565b610b42829161073c565b6103585780610b31565b6040513d84823e3d90fd5b8480fd5b610b679096919661073c565b94386109dc565b8680fd5b505050505090565b5050505090565b5050509056fea2646970667358221220a155f35479af49f9a59bfef03d454d987998b3ec933cb7d2f9f3d8b5734f37f064736f6c63430008140033",
  "linkReferences": {},
  "deployedLinkReferences": {}
}