{
  "_format": "hh-sol-artifact-1",
  "contractName": "DIDCredentialStorage",
  "sourceName": "contracts/storage/DIDCredentialStorage.sol",
  "abi": [
    {
      "inputs": [],
      "stateMutability": "nonpayable",
      "type": "constructor"
    },
    {
      "anonymous": false,
      "inputs": [
        {
          "indexed": true,
          "internalType": "address",
          "name": "issuer",
          "type": "address"
        },
        {
          "indexed": false,
          "internalType": "bool",
          "name": "authorized",
          "type": "bool"
        }
      ],
      "name": "AuthorizedIssuerUpdated",
      "type": "event"
    },
    {
      "anonymous": false,
      "inputs": [
        {
          "indexed": true,
          "internalType": "address",
          "name": "writer",
          "type": "address"
        },
        {
          "indexed": false,
          "internalType": "bool",
          "name": "authorized",
          "type": "bool"
        }
      ],
      "name": "AuthorizedWriterUpdated",
      "type": "event"
    },
    {
      "anonymous": false,
      "inputs": [
        {
          "indexed": false,
          "internalType": "string",
          "name": "field",
          "type": "string"
        },
        {
          "indexed": false,
          "internalType": "uint256",
          "name": "oldValue",
          "type": "uint256"
        },
        {
          "indexed": false,
          "internalType": "uint256",
          "name": "newValue",
          "type": "uint256"
        }
      ],
      "name": "CredentialConfigUpdated",
      "type": "event"
    },
    {
      "anonymous": false,
      "inputs": [
        {
          "indexed": true,
          "internalType": "string",
          "name": "did",
          "type": "string"
        },
        {
          "indexed": false,
          "internalType": "string",
          "name": "credentialType",
          "type": "string"
        },
        {
          "indexed": false,
          "internalType": "string",
          "name": "jurisdiction",
          "type": "string"
        },
        {
          "indexed": false,
          "internalType": "address",
          "name": "issuer",
          "type": "address"
        },
        {
          "indexed": false,
          "internalType": "uint256",
          "name": "expiresAt",
          "type": "uint256"
        }
      ],
      "name": "CredentialIssued",
      "type": "event"
    },
    {
      "anonymous": false,
      "inputs": [
        {
          "indexed": true,
          "internalType": "string",
          "name": "did",
          "type": "string"
        },
        {
          "indexed": false,
          "internalType": "string",
          "name": "credentialHash",
          "type": "string"
        },
        {
          "indexed": false,
          "internalType": "address",
          "name": "revoker",
          "type": "address"
        },
        {
          "indexed": false,
          "internalType": "uint256",
          "name": "timestamp",
          "type": "uint256"
        }
      ],
      "name": "CredentialRevoked",
      "type": "event"
    },
    {
      "anonymous": false,
      "inputs": [
        {
          "indexed": true,
          "internalType": "string",
          "name": "did",
          "type": "string"
        },
        {
          "indexed": true,
          "internalType": "address",
          "name": "address_",
          "type": "address"
        },
        {
          "indexed": false,
          "internalType": "uint256",
          "name": "timestamp",
          "type": "uint256"
        }
      ],
      "name": "DIDLinked",
      "type": "event"
    },
    {
      "anonymous": false,
      "inputs": [
        {
          "indexed": true,
          "internalType": "string",
          "name": "did",
          "type": "string"
        },
        {
          "indexed": true,
          "internalType": "address",
          "name": "address_",
          "type": "address"
        },
        {
          "indexed": false,
          "internalType": "uint256",
          "name": "timestamp",
          "type": "uint256"
        }
      ],
      "name": "DIDUnlinked",
      "type": "event"
    },
    {
      "inputs": [],
      "name": "CONTRACT_NAME",
      "outputs": [
        {
          "internalType": "string",
          "name": "",
          "type": "string"
        }
      ],
      "stateMutability": "view",
      "type": "function"
    },
    {
      "inputs": [],
      "name": "VERSION",
      "outputs": [
        {
          "internalType": "uint256",
          "name": "",
          "type": "uint256"
        }
      ],
      "stateMutability": "view",
      "type": "function"
    },
    {
      "inputs": [
        {
          "internalType": "address",
          "name": "",
          "type": "address"
        }
      ],
      "name": "addressToDID",
      "outputs": [
        {
          "internalType": "string",
          "name": "",
          "type": "string"
        }
      ],
      "stateMutability": "view",
      "type": "function"
    },
    {
      "inputs": [
        {
          "internalType": "string",
          "name": "",
          "type": "string"
        }
      ],
      "name": "allowedCredentialTypes",
      "outputs": [
        {
          "internalType": "bool",
          "name": "",
          "type": "bool"
        }
      ],
      "stateMutability": "view",
      "type": "function"
    },
    {
      "inputs": [
        {
          "internalType": "address",
          "name": "",
          "type": "address"
        }
      ],
      "name": "authorizedIssuers",
      "outputs": [
        {
          "internalType": "bool",
          "name": "",
          "type": "bool"
        }
      ],
      "stateMutability": "view",
      "type": "function"
    },
    {
      "inputs": [
        {
          "internalType": "address",
          "name": "",
          "type": "address"
        }
      ],
      "name": "authorizedWriters",
      "outputs": [
        {
          "internalType": "bool",
          "name": "",
          "type": "bool"
        }
      ],
      "stateMutability": "view",
      "type": "function"
    },
    {
      "inputs": [],
      "name": "credentialConfig",
      "outputs": [
        {
          "internalType": "uint256",
          "name": "defaultExpiryDuration",
          "type": "uint256"
        },
        {
          "internalType": "uint256",
          "name": "maxAttributesPerCredential",
          "type": "uint256"
        },
        {
          "internalType": "bool",
          "name": "allowCrossJurisdiction",
          "type": "bool"
        },
        {
          "internalType": "bool",
          "name": "requireIssuerVerification",
          "type": "bool"
        },
        {
          "internalType": "uint256",
          "name": "maxCredentialsPerDID",
          "type": "uint256"
        }
      ],
      "stateMutability": "view",
      "type": "function"
    },
    {
      "inputs": [
        {
          "internalType": "string",
          "name": "",
          "type": "string"
        }
      ],
      "name": "credentialCount",
      "outputs": [
        {
          "internalType": "uint256",
          "name": "",
          "type": "uint256"
        }
      ],
      "stateMutability": "view",
      "type": "function"
    },
    {
      "inputs": [
        {
          "internalType": "string",
          "name": "",
          "type": "string"
        },
        {
          "internalType": "uint256",
          "name": "",
          "type": "uint256"
        }
      ],
      "name": "didCredentials",
      "outputs": [
        {
          "internalType": "string",
          "name": "did",
          "type": "string"
        },
        {
          "internalType": "string",
          "name": "credentialType",
          "type": "string"
        },
        {
          "internalType": "string",
          "name": "credentialHash",
          "type": "string"
        },
        {
          "internalType": "string",
          "name": "jurisdiction",
          "type": "string"
        },
        {
          "internalType": "uint256",
          "name": "issuedAt",
          "type": "uint256"
        },
        {
          "internalType": "uint256",
          "name": "expiresAt",
          "type": "uint256"
        },
        {
          "internalType": "bool",
          "name": "isRevoked",
          "type": "bool"
        },
        {
          "internalType": "address",
          "name": "issuer",
          "type": "address"
        }
      ],
      "stateMutability": "view",
      "type": "function"
    },
    {
      "inputs": [
        {
          "internalType": "string",
          "name": "",
          "type": "string"
        }
      ],
      "name": "didMetadata",
      "outputs": [
        {
          "internalType": "string",
          "name": "did",
          "type": "string"
        },
        {
          "internalType": "address",
          "name": "primaryAddress",
          "type": "address"
        },
        {
          "internalType": "uint256",
          "name": "createdAt",
          "type": "uint256"
        },
        {
          "internalType": "bool",
          "name": "isActive",
          "type": "bool"
        }
      ],
      "stateMutability": "view",
      "type": "function"
    },
    {
      "inputs": [
        {
          "internalType": "string",
          "name": "",
          "type": "string"
        },
        {
          "internalType": "uint256",
          "name": "",
          "type": "uint256"
        }
      ],
      "name": "didToAddresses",
      "outputs": [
        {
          "internalType": "address",
          "name": "",
          "type": "address"
        }
      ],
      "stateMutability": "view",
      "type": "function"
    },
    {
      "inputs": [
        {
          "internalType": "string",
          "name": "did",
          "type": "string"
        }
      ],
      "name": "getAddressesForDID",
      "outputs": [
        {
          "internalType": "address[]",
          "name": "",
          "type": "address[]"
        }
      ],
      "stateMutability": "view",
      "type": "function"
    },
    {
      "inputs": [],
      "name": "getCredentialConfig",
      "outputs": [
        {
          "components": [
            {
              "internalType": "uint256",
              "name": "defaultExpiryDuration",
              "type": "uint256"
            },
            {
              "internalType": "uint256",
              "name": "maxAttributesPerCredential",
              "type": "uint256"
            },
            {
              "internalType": "bool",
              "name": "allowCrossJurisdiction",
              "type": "bool"
            },
            {
              "internalType": "bool",
              "name": "requireIssuerVerification",
              "type": "bool"
            },
            {
              "internalType": "uint256",
              "name": "maxCredentialsPerDID",
              "type": "uint256"
            }
          ],
          "internalType": "struct DIDCredentialStorage.CredentialConfig",
          "name": "",
          "type": "tuple"
        }
      ],
      "stateMutability": "view",
      "type": "function"
    },
    {
      "inputs": [
        {
          "internalType": "string",
          "name": "did",
          "type": "string"
        }
      ],
      "name": "getCredentialCount",
      "outputs": [
        {
          "internalType": "uint256",
          "name": "",
          "type": "uint256"
        }
      ],
      "stateMutability": "view",
      "type": "function"
    },
    {
      "inputs": [
        {
          "internalType": "string",
          "name": "did",
          "type": "string"
        }
      ],
      "name": "getDIDCredentials",
      "outputs": [
        {
          "components": [
            {
              "internalType": "string",
              "name": "did",
              "type": "string"
            },
            {
              "internalType": "string",
              "name": "credentialType",
              "type": "string"
            },
            {
              "internalType": "string",
              "name": "credentialHash",
              "type": "string"
            },
            {
              "internalType": "string",
              "name": "jurisdiction",
              "type": "string"
            },
            {
              "internalType": "uint256",
              "name": "issuedAt",
              "type": "uint256"
            },
            {
              "internalType": "uint256",
              "name": "expiresAt",
              "type": "uint256"
            },
            {
              "internalType": "bool",
              "name": "isRevoked",
              "type": "bool"
            },
            {
              "internalType": "address",
              "name": "issuer",
              "type": "address"
            },
            {
              "internalType": "string[]",
              "name": "attributes",
              "type": "string[]"
            }
          ],
          "internalType": "struct DIDCredentialStorage.DIDCredential[]",
          "name": "",
          "type": "tuple[]"
        }
      ],
      "stateMutability": "view",
      "type": "function"
    },
    {
      "inputs": [
        {
          "internalType": "string",
          "name": "did",
          "type": "string"
        },
        {
          "internalType": "string",
          "name": "credentialType",
          "type": "string"
        }
      ],
      "name": "getDIDCredentialsByType",
      "outputs": [
        {
          "components": [
            {
              "internalType": "string",
              "name": "did",
              "type": "string"
            },
            {
              "internalType": "string",
              "name": "credentialType",
              "type": "string"
            },
            {
              "internalType": "string",
              "name": "credentialHash",
              "type": "string"
            },
            {
              "internalType": "string",
              "name": "jurisdiction",
              "type": "string"
            },
            {
              "internalType": "uint256",
              "name": "issuedAt",
              "type": "uint256"
            },
            {
              "internalType": "uint256",
              "name": "expiresAt",
              "type": "uint256"
            },
            {
              "internalType": "bool",
              "name": "isRevoked",
              "type": "bool"
            },
            {
              "internalType": "address",
              "name": "issuer",
              "type": "address"
            },
            {
              "internalType": "string[]",
              "name": "attributes",
              "type": "string[]"
            }
          ],
          "internalType": "struct DIDCredentialStorage.DIDCredential[]",
          "name": "",
          "type": "tuple[]"
        }
      ],
      "stateMutability": "view",
      "type": "function"
    },
    {
      "inputs": [
        {
          "internalType": "address",
          "name": "address_",
          "type": "address"
        }
      ],
      "name": "getDIDForAddress",
      "outputs": [
        {
          "internalType": "string",
          "name": "",
          "type": "string"
        }
      ],
      "stateMutability": "view",
      "type": "function"
    },
    {
      "inputs": [
        {
          "internalType": "string",
          "name": "did",
          "type": "string"
        }
      ],
      "name": "getDIDMetadata",
      "outputs": [
        {
          "components": [
            {
              "internalType": "string",
              "name": "did",
              "type": "string"
            },
            {
              "internalType": "address",
              "name": "primaryAddress",
              "type": "address"
            },
            {
              "internalType": "uint256",
              "name": "createdAt",
              "type": "uint256"
            },
            {
              "internalType": "bool",
              "name": "isActive",
              "type": "bool"
            },
            {
              "internalType": "string[]",
              "name": "linkedAddresses",
              "type": "string[]"
            },
            {
              "internalType": "string[]",
              "name": "credentialTypes",
              "type": "string[]"
            }
          ],
          "internalType": "struct DIDCredentialStorage.DIDMetadata",
          "name": "",
          "type": "tuple"
        }
      ],
      "stateMutability": "view",
      "type": "function"
    },
    {
      "inputs": [
        {
          "internalType": "address",
          "name": "issuer",
          "type": "address"
        }
      ],
      "name": "isAuthorizedIssuer",
      "outputs": [
        {
          "internalType": "bool",
          "name": "",
          "type": "bool"
        }
      ],
      "stateMutability": "view",
      "type": "function"
    },
    {
      "inputs": [
        {
          "internalType": "address",
          "name": "writer",
          "type": "address"
        }
      ],
      "name": "isAuthorizedWriter",
      "outputs": [
        {
          "internalType": "bool",
          "name": "",
          "type": "bool"
        }
      ],
      "stateMutability": "view",
      "type": "function"
    },
    {
      "inputs": [
        {
          "internalType": "string",
          "name": "credentialHash",
          "type": "string"
        }
      ],
      "name": "isCredentialRevoked",
      "outputs": [
        {
          "internalType": "bool",
          "name": "",
          "type": "bool"
        }
      ],
      "stateMutability": "view",
      "type": "function"
    },
    {
      "inputs": [
        {
          "internalType": "string",
          "name": "did",
          "type": "string"
        },
        {
          "internalType": "string",
          "name": "credentialHash",
          "type": "string"
        }
      ],
      "name": "isCredentialValid",
      "outputs": [
        {
          "internalType": "bool",
          "name": "",
          "type": "bool"
        }
      ],
      "stateMutability": "view",
      "type": "function"
    },
    {
      "inputs": [
        {
          "internalType": "string",
          "name": "did",
          "type": "string"
        },
        {
          "internalType": "string",
          "name": "credentialType",
          "type": "string"
        },
        {
          "internalType": "string",
          "name": "credentialHash",
          "type": "string"
        },
        {
          "internalType": "string",
          "name": "jurisdiction",
          "type": "string"
        },
        {
          "internalType": "string[]",
          "name": "attributes",
          "type": "string[]"
        }
      ],
      "name": "issueCredential",
      "outputs": [],
      "stateMutability": "nonpayable",
      "type": "function"
    },
    {
      "inputs": [
        {
          "internalType": "string",
          "name": "",
          "type": "string"
        }
      ],
      "name": "jurisdictionExpiryDurations",
      "outputs": [
        {
          "internalType": "uint256",
          "name": "",
          "type": "uint256"
        }
      ],
      "stateMutability": "view",
      "type": "function"
    },
    {
      "inputs": [
        {
          "internalType": "string",
          "name": "did",
          "type": "string"
        },
        {
          "internalType": "address",
          "name": "address_",
          "type": "address"
        }
      ],
      "name": "linkDIDToAddress",
      "outputs": [],
      "stateMutability": "nonpayable",
      "type": "function"
    },
    {
      "inputs": [],
      "name": "owner",
      "outputs": [
        {
          "internalType": "address",
          "name": "",
          "type": "address"
        }
      ],
      "stateMutability": "view",
      "type": "function"
    },
    {
      "inputs": [
        {
          "internalType": "string",
          "name": "did",
          "type": "string"
        },
        {
          "internalType": "string",
          "name": "credentialHash",
          "type": "string"
        }
      ],
      "name": "revokeCredential",
      "outputs": [],
      "stateMutability": "nonpayable",
      "type": "function"
    },
    {
      "inputs": [
        {
          "internalType": "string",
          "name": "",
          "type": "string"
        }
      ],
      "name": "revokedCredentials",
      "outputs": [
        {
          "internalType": "bool",
          "name": "",
          "type": "bool"
        }
      ],
      "stateMutability": "view",
      "type": "function"
    },
    {
      "inputs": [
        {
          "internalType": "string",
          "name": "credentialType",
          "type": "string"
        },
        {
          "internalType": "bool",
          "name": "allowed",
          "type": "bool"
        }
      ],
      "name": "setAllowedCredentialType",
      "outputs": [],
      "stateMutability": "nonpayable",
      "type": "function"
    },
    {
      "inputs": [
        {
          "internalType": "address",
          "name": "issuer",
          "type": "address"
        },
        {
          "internalType": "bool",
          "name": "authorized",
          "type": "bool"
        }
      ],
      "name": "setAuthorizedIssuer",
      "outputs": [],
      "stateMutability": "nonpayable",
      "type": "function"
    },
    {
      "inputs": [
        {
          "internalType": "address",
          "name": "writer",
          "type": "address"
        },
        {
          "internalType": "bool",
          "name": "authorized",
          "type": "bool"
        }
      ],
      "name": "setAuthorizedWriter",
      "outputs": [],
      "stateMutability": "nonpayable",
      "type": "function"
    },
    {
      "inputs": [
        {
          "internalType": "string",
          "name": "did",
          "type": "string"
        },
        {
          "internalType": "address",
          "name": "address_",
          "type": "address"
        }
      ],
      "name": "unlinkDIDFromAddress",
      "outputs": [],
      "stateMutability": "nonpayable",
      "type": "function"
    },
    {
      "inputs": [
        {
          "internalType": "uint256",
          "name": "_defaultExpiryDuration",
          "type": "uint256"
        },
        {
          "internalType": "uint256",
          "name": "_maxAttributesPerCredential",
          "type": "uint256"
        },
        {
          "internalType": "bool",
          "name": "_allowCrossJurisdiction",
          "type": "bool"
        },
        {
          "internalType": "bool",
          "name": "_requireIssuerVerification",
          "type": "bool"
        },
        {
          "internalType": "uint256",
          "name": "_maxCredentialsPerDID",
          "type": "uint256"
        }
      ],
      "name": "updateCredentialConfig",
      "outputs": [],
      "stateMutability": "nonpayable",
      "type": "function"
    },
    {
      "inputs": [
        {
          "internalType": "string",
          "name": "jurisdiction",
          "type": "string"
        },
        {
          "internalType": "uint256",
          "name": "expiryDuration",
          "type": "uint256"
        }
      ],
      "name": "updateJurisdictionConfig",
      "outputs": [],
      "stateMutability": "nonpayable",
      "type": "function"
    }
  ],
  "bytecode": "0x60803461023f5760016000818155600f80546001600160a01b0319163390811782558252600d60209081526040808420805460ff19908116871790915592546001600160a01b03168452600e90915280832080548316851790559392909160a08401906001600160401b0382118583101761022b57508452603260806301e1338094858152601460208201528387820152836060820152015282600755601460085561010161ffff1960095416176009556032600a5560298451624b594360e81b81526023600c91826003820152208385825416179055602386516210535360ea1b815282600382015220838582541617905560288651674964656e7469747960c01b815282600882015220838582541617905560278651664164647265737360c81b8152826007820152208385825416179055602586516450686f6e6560d81b81528260058201522083858254161790556025865164115b585a5b60da1b8152826005820152208385825416179055602a865169115b5c1b1bde5b595b9d60b21b815282600a8201522083858254161790558551906822b23ab1b0ba34b7b760b91b825260098201522091825416179055806022835161554b60f01b8152600b60028201522055806022835161455560f01b8152600b60028201522055806022835161555360f01b8152600b60028201522055806022835161415560f01b8152600b6002820152205560228251615a4160f01b8152600b600282015220555161311e90816102458239f35b634e487b7160e01b81526041600452602490fd5b600080fdfe6080604052600436101561001257600080fd5b60003560e01c80630cb9a3cc14611b7e5780630f2a699014611af0578063133a691c146115f157806320309663146115a857806331ba19661461155f5780633476abd014611515578063357061e11461144157806341af81bf146113a5578063526241a814611366578063542a086c1461128357806359358acf146111ac578063614d08f81461114e57806361e2d60214610b8c5780636fce60511461110357806374b2234d14610f9d5780637cb26cfd14610e73578063809915bc14610d1b5780638da5cb5b14610cf457806391d481c814610c945780639414311f14610c5157806398ce770d14610c0a5780639ef015d914610bdb578063ac7ac60414610b8c578063ad6e823b14610b34578063c405181c14610885578063c47a2612146107e0578063c79ba874146106bb578063d88bbb9b14610671578063dc4fb01c14610306578063e466331d146102a4578063f731fa0f14610265578063f789c0a114610221578063fa9cccb8146101b35763ffa1ad741461019257600080fd5b346101ae5760003660031901126101ae57602060405160018152f35b600080fd5b346101ae5760203660031901126101ae576001600160a01b036101d4612500565b166101e0811515612ddc565b600052600360205261021d6102026102096040600020604051928380926125b5565b0382612460565b60405191829160208352602083019061264b565b0390f35b346101ae5760203660031901126101ae576001600160a01b03610242612500565b16600052600360205261021d6102026102096040600020604051928380926125b5565b346101ae5760203660031901126101ae576001600160a01b03610286612500565b16600052600e602052602060ff604060002054166040519015158152f35b346101ae5760203660031901126101ae5760043567ffffffffffffffff81116101ae5760ff6102f060206102dd81943690600401612482565b8160405193828580945193849201612558565b8101600c81520301902054166040519015158152f35b346101ae5761031436612516565b336000526020600d815260ff604060002054168015610658575b61033790612d91565b610343835115156129f0565b6001600160a01b038092169261035a841515612ddc565b8360005260039283835261020261037b6040600020604051928380926125b5565b838151910120908251918484019283200361061457856000528484526103a46040600020612baf565b604051848185516103b6818388612558565b810160048152030190209160005b8354808210156106075788846103da84886126a2565b9054908b1b1c16146103f557506103f090612bf9565b6103c4565b60009792939495969719918282019182116105f1576104298661041b610449948a6126a2565b905490871b1c1691886126a2565b90919082549060031b916001600160a01b03809116831b921b1916179055565b84549081156105db578491019161046083876126a2565b81939154921b1b1916905583555b858260016040518881895161048481838a612558565b81016002815203019020015416146104ce575b5050506104c47fc61e9da61130013a4f6d5b79717d039b1f4f46db6f7e6da9ab504ddbc8a8206691612c08565b91604051428152a3005b825492939192859015610570575083541561055a57600161052a866104c4957fc61e9da61130013a4f6d5b79717d039b1f4f46db6f7e6da9ab504ddbc8a820669760005281600020541693604051809381928851928391612558565b81016002815203019020019073ffffffffffffffffffffffffffffffffffffffff198254161790555b9185610497565b634e487b7160e01b600052603260045260246000fd5b7fc61e9da61130013a4f6d5b79717d039b1f4f46db6f7e6da9ab504ddbc8a8206694506104c493506105b090600192604051809381928751928391612558565b810160028152030190200173ffffffffffffffffffffffffffffffffffffffff198154169055610553565b634e487b7160e01b600052603160045260246000fd5b634e487b7160e01b600052601160045260246000fd5b505090919293945061046e565b6064846040519062461bcd60e51b82526004820152601960248201527f41646472657373206e6f74206c696e6b656420746f20444944000000000000006044820152fd5b506103376001600160a01b03600f54163314905061032e565b346101ae5760203660031901126101ae5760043567ffffffffffffffff81116101ae576106a860206102dd81933690600401612482565b8101600681520301902054604051908152f35b346101ae5760a03660031901126101ae5760043560243590604435918215158093036101ae57606435908115158092036101ae5760a093849361070a6001600160a01b03600f5416331461286f565b6007549160085494826007558460085560ff61ff006009549260081b1692169061ffff19161717600955608435600a556040519160608352601560608401527f64656661756c744578706972794475726174696f6e00000000000000000000006080840152602083015260408201527fb8b1b27fa13a034d90aaced41a15b5eb8db867e16d12b943524225acaee241e3948591a16040519160608352601a60608401527f6d61784174747269627574657350657243726564656e7469616c000000000000608084015260208301526040820152a1005b346101ae5760003660031901126101ae576000608060405161080181612428565b828152826020820152826040820152826060820152015260a060405161082681612428565b600754908181526008546020820190815260095490604083019060ff83161515825260ff606085019360081c16151583526080600a54940193845260405194855251602085015251151560408401525115156060830152516080820152f35b346101ae5761089336612828565b61089f825115156129f0565b60405182516108b381836020809701612558565b8101908381600193848152030190209182546108ce816124d9565b936108dc6040519586612460565b818552600090815285812090848787015b848310610a70575050505050600092826000905b610a1b575b50610910846124d9565b9361091e6040519586612460565b80855261092d601f19916124d9565b018560005b8281106109ca57505050600091836000905b610957575b6040518061021d8882612716565b82518110156109c5578661096b8285612eef565b5101518781519101208251888401201461098f575b61098990612bf9565b84610944565b926109bd610989916109a18686612eef565b516109ac828a612eef565b526109b78189612eef565b50612bf9565b939050610980565b610949565b6040516109d6816123ef565b60608082528084830152806040830152808083015260006080830152600060a0830152600060c0830152600060e0830152610100820152828289010152018690610932565b8151811015610a6b5785610a2f8284612eef565b51015186815191012083518785012014610a54575b610a4e8491612bf9565b90610901565b93610a4e610a628592612bf9565b95915050610a44565b610906565b8860405191610a7e836123ef565b604051610a8f81610202818a6125b5565b8352604051610aa48161020281888b016125b5565b82840152604051610abc816102028160028b016125b5565b6040840152604051610ad5816102028160038b016125b5565b606084015260048601546080840152600586015460a084015260068601549260ff8416151560c08201526001600160a01b03600894851c1660e0820152610b1e60078801612e7d565b61010082015281520193019101909185906108ed565b346101ae5760203660031901126101ae5760206001600160a01b0380610b58612500565b1680600052600d835260ff60406000205416918215610b7e575b50506040519015158152f35b600f54161490508280610b72565b346101ae5760203660031901126101ae5760043567ffffffffffffffff81116101ae5760ff610bc560206102dd81943690600401612482565b8101600581520301902054166040519015158152f35b346101ae576020610c00610bee36612828565b90610bfb815115156129f0565b612f03565b6040519015158152f35b346101ae576020610c41610c1d36612670565b9290610c356001600160a01b03600f5416331461286f565b6102dd815115156128ba565b8101600b81520301902055600080f35b346101ae5760203660031901126101ae5760043567ffffffffffffffff81116101ae576106a86020610c8881933690600401612482565b6102dd815115156129f0565b346101ae57610cd9610ca536612828565b9033600052600e60205260ff604060002054168015610cdb575b610cc8906129a5565b610cd4815115156129f0565b612c28565b005b50610cc86001600160a01b03600f541633149050610cbf565b346101ae5760003660031901126101ae5760206001600160a01b03600f5416604051908152f35b346101ae576020806003193601126101ae576004359067ffffffffffffffff82116101ae5761021d610d9282610d5760a0953690600401612482565b604051610d638161240c565b60609681888093526000858201526000604082015260008382015282608082015201526102dd815115156129f0565b8101600281520301902060405193610da98561240c565b604051610dba8161020281866125b5565b8552610e626001600160a01b039283600182015416928688019384526002820154906040890191825260ff60038401541691818a019215158352610e136005610e0560048701612e7d565b9560808d0196875201612e7d565b9660a08b01978852610e388a60c06040519d8e9d8e5251918d015260e08c019061264b565b96511660408a0152519088015251151560808701525191601f1992838783030160a08801526126ba565b9151908483030160c08501526126ba565b346101ae576020610e9b610e8636612670565b92908160405193828580945193849201612558565b8101600181520301902080548210156101ae57610f5091610ebb9161280c565b5060405190610ed582610ece81846125b5565b0383612460565b6001600160a01b03604051610ef18161020281600187016125b5565b60405192610f0d84610f0681600285016125b5565b0385612460565b610f7a604051610f248161020281600387016125b5565b610f6c600484015496610f5e60066005870154960154966040519b8c9b8c6101008091528d019061264b565b908b820360208d015261264b565b9089820360408b015261264b565b90878203606089015261264b565b93608086015260a085015260ff8116151560c085015260081c1660e08301520390f35b346101ae576020806003193601126101ae5760043567ffffffffffffffff81116101ae57610fcf903690600401612482565b90610fdc825115156129f0565b80610ff06040519384815193849201612558565b8201918181600194858152030190209081549061100c826124d9565b9261101a6040519485612460565b8284526000908152818120918085015b84831061103f576040518061021d8882612716565b8690826040519161104f836123ef565b60405161106081610202818b6125b5565b83526040516110758161020281888c016125b5565b8284015260405161108d816102028160028c016125b5565b60408401526040516110a6816102028160038c016125b5565b606084015260048701546080840152600587015460a084015260068701549260ff8416151560c08201526001600160a01b03600894851c1660e08201526110ef60078901612e7d565b61010082015281520194019201919261102a565b346101ae576020611116610e8636612670565b810160048152030190209081548110156101ae5761113e6001600160a01b03916020936126a2565b9190546040519260031b1c168152f35b346101ae5760003660031901126101ae5761021d60405161116e81612444565b601481527f44494443726564656e7469616c53746f72616765000000000000000000000000602082015260405191829160208352602083019061264b565b346101ae576020806003193601126101ae5760043567ffffffffffffffff81116101ae5781610c886111e2923690600401612482565b8101600481520301902060405190818382549182815201908192600052846000209060005b8682821061126657868661121d82880383612460565b604051928392818401908285525180915260408401929160005b82811061124657505050500390f35b83516001600160a01b031685528695509381019392810192600101611237565b83546001600160a01b031685529093019260019283019201611207565b346101ae5760403660031901126101ae5761129c612500565b6112a46124f1565b906001600160a01b03906112bd82600f5416331461286f565b6112c5612950565b169081156113225760207e8ebc621f24e0e9d1fd4ee2f7df9bb80c8d61ee30a9167a4fee6cefcf8c021e9183600052600d82526113128160406000209060ff801983541691151516179055565b6040519015158152a26001600055005b606460405162461bcd60e51b815260206004820152601660248201527f496e76616c6964207772697465722061646472657373000000000000000000006044820152fd5b346101ae5760203660031901126101ae576001600160a01b03611387612500565b16600052600d602052602060ff604060002054166040519015158152f35b346101ae5760203660031901126101ae5760043567ffffffffffffffff81116101ae576113de60206102dd61142b933690600401612482565b81016002815203019020604051906113fa82610ece81846125b5565b6001600160a01b036001820154169060ff60036002830154920154169060405194859460808652608086019061264b565b9260208501526040840152151560608301520390f35b346101ae5760403660031901126101ae5761145a612500565b6114626124f1565b906001600160a01b039061147b82600f5416331461286f565b611483612950565b169081156114d15760207f0455d749995ce43e3b98981b666e5dadcc51f9536cac29239989847262b316109183600052600e82526113128160406000209060ff801983541691151516179055565b606460405162461bcd60e51b815260206004820152601660248201527f496e76616c6964206973737565722061646472657373000000000000000000006044820152fd5b346101ae5760203660031901126101ae5760043567ffffffffffffffff81116101ae5761154c60206102dd81933690600401612482565b8101600b81520301902054604051908152f35b346101ae5760203660031901126101ae5760206001600160a01b0380611583612500565b1680600052600e835260ff60406000205416918215610b7e5750506040519015158152f35b346101ae5760003660031901126101ae5760a060075460085460ff600954600a549260405194855260208501528181161515604085015260081c16151560608301526080820152f35b346101ae576115ff36612516565b9033600052602090600d825260ff604060002054168015611ad7575b61162490612d91565b611630815115156129f0565b6001600160a01b0380841693611647851515612ddc565b846000526003845261165d60406000205461257b565b611a93578460005260038452611677836040600020612aaa565b6040519183519285818187019561168f818389612558565b81016004815203019020928354680100000000000000009384821015611895576104296116c39260019788820181556126a2565b856116e9604051828189516116d9818389612558565b810160028152030190205461257b565b6118ff57506116f6612e59565b6117a285878a611704612e59565b966117626117508d604051996117198b61240c565b868b52818b0195865260408b019642885260608c0198895260808c019a8b5260a08c019c8d52604051938492839251928391612558565b81016002815203019020975188612aaa565b89870191511673ffffffffffffffffffffffffffffffffffffffff19825416179055516002850155511515600384019060ff801983541691151516179055565b51805190600483019085831161189557889082548484558085106118c8575b5001906000528760002086896000935b8585106118ab5750505050505060050190518051928311611895578590825484845580851061185e575b50019060005284600020856000925b848410611841575050505050506104c47f174a9a71f342e002f6ce8fd50eeb5eb833f240e2c2527ad97a03049449503fd291612c08565b85918161185084935186612aaa565b01920192019190869061180a565b8360005285858460002092830192015b82811061187c5750506117fb565b909192935061188a81612baf565b01908588939261186e565b634e487b7160e01b600052604160045260246000fd5b90816118b984935186612aaa565b019201920191908988916117d1565b8360005288858460002092830192015b8281106118e65750506117c1565b90919293506118f481612baf565b0190888b93926118d8565b906004935061191a9250604051809381928851928391612558565b81016002815203019020016040519161193283612444565b601083527f303132333435363738396162636465660000000000000000000000000000000085840152604051926060840184811067ffffffffffffffff82111761189557604052602a8452858401604036823784511561055a5760309053835182101561055a576078602185015360005b601481106119e257505050916119dd6104c4927f174a9a71f342e002f6ce8fd50eeb5eb833f240e2c2527ad97a03049449503fd294612e27565b612c08565b600c81018082116105f1578781101561055a5788901a907fff0000000000000000000000000000000000000000000000000000000000000080611a2b600f8560041c16866130d7565b51169282861b93838504600214841517156105f1578460020191826002116105f157611a6992611a61600f9360001a918c6130d7565b5316856130d7565b511691600301806003116105f157611a88611a8e9360001a91886130d7565b53612bf9565b6119a3565b6064846040519062461bcd60e51b82526004820152601660248201527f4164647265737320616c7265616479206c696e6b6564000000000000000000006044820152fd5b506116246001600160a01b03600f54163314905061161b565b346101ae5760403660031901126101ae5760043567ffffffffffffffff81116101ae57611b24611b77913690600401612482565b611b5c6020611b316124f1565b92611b486001600160a01b03600f5416331461286f565b611b50612950565b6102dd81511515612905565b8101600c8152030190209060ff801983541691151516179055565b6001600055005b346101ae5760a03660031901126101ae5767ffffffffffffffff6004358181116101ae57611bb0903690600401612482565b6024358281116101ae57611bc8903690600401612482565b906044358381116101ae57611be1903690600401612482565b926064358181116101ae57611bfa903690600401612482565b93608435918083116101ae57366023840112156101ae578260040135611c1f816124d9565b93611c2d6040519586612460565b8185526024602086019260051b820101913683116101ae5760248201905b8382106123c757505050505033600052600e60205260ff6040600020541680156123ae575b611c79906129a5565b611c85835115156129f0565b611c9184511515612905565b60ff6040516020818751611ca88183858c01612558565b8101600c81520301902054161561236a57611cc581511515612a3b565b611cd1855115156128ba565b815160085410612326576040516020818551611cf08183858a01612558565b8101600681520301902054600a5411156122e2576040516020818751611d198183858c01612558565b8101600b815203019020549182156122d8575b611d368342612a86565b60405192611d43846123ef565b858452866020850152604084015286606084015242608084015260a0830152600060c08301523360e08301526101008201526040516020818551611d8a8183858a01612558565b60018183015281010301902080546801000000000000000081101561189557611db89160018201815561280c565b9190916122c25780611dce610100925184612aaa565b611ddf602082015160018501612aaa565b611df0604082015160028501612aaa565b611e01606082015160038501612aaa565b6080810151600484015560a0810151600584015560068301611e3560c08301511515829060ff801983541691151516179055565b60e08201517fffffffffffffffffffffff0000000000000000000000000000000000000000ff74ffffffffffffffffffffffffffffffffffffffff0083549260081b16911617905501519081519168010000000000000000831161189557600782015483600784015580841061228f575b50602060079101910160005260206000206000915b83831061227257505050506040516020818451611edb8183858901612558565b81016006815203019020611eef8154612bf9565b9055611f0960405160208185516116d98183858a01612558565b61219f57604051611f1981612444565b6001815260005b6020811061218e575083611f3382612ee2565b52611f3d81612ee2565b50611f46612e59565b9060405191611f548361240c565b848352611ff5602084019260008452604085014281526060860191600183526080870194855260a087015260405160208181611f968c83815193849201612558565b8101600281520301902094611fac875187612aaa565b6001600160a01b036001870191511673ffffffffffffffffffffffffffffffffffffffff19825416179055516002850155511515600384019060ff801983541691151516179055565b5180519068010000000000000000821161189557600483015482600485015580831061215b575b506020016004830160005260206000206000915b83831061213e5750505050600560a091019101519081519168010000000000000000831161189557815483835580841061210f575b506020019060005260206000206000915b8383106120f25750505050916120d3916120e16120be6120b87f550a0b9f36bb4056b1fcf0c1c37d61b69d20190bde216b4568cfd900430053f2965b42612a86565b92612c08565b9560405194859460808652608086019061264b565b90848203602086015261264b565b9033604084015260608301520390a2005b600160208261210383945186612aaa565b01920192019190612076565b8260005283602060002091820191015b81811061212c5750612065565b80612138600192612baf565b0161211f565b600160208261214f83945186612aaa565b01920192019190612030565b600484016000526020600020908382015b818301811061217c57505061201c565b80612188600192612baf565b0161216c565b806060602080938501015201611f20565b600560405160208185516121b68183858a01612558565b81016002815203019020016000808254905b818110612222575b50506120be6120b886946120d396947f550a0b9f36bb4056b1fcf0c1c37d61b69d20190bde216b4568cfd900430053f2986120e19515612212575b50506120b2565b61221b91612e27565b898661220b565b61020261223f61223283876126a2565b50604051928380926125b5565b6020815191012087516020890120146122605761225b90612bf9565b6121c8565b50600191506120be90506120b86121d0565b600160208261228383945186612aaa565b01920192019190611ebb565b600783016000526020600020908482015b81830181106122b0575050611ea6565b806122bc600192612baf565b016122a0565b634e487b7160e01b600052600060045260246000fd5b6007549250611d2c565b606460405162461bcd60e51b815260206004820152601760248201527f4d61782063726564656e7469616c7320726561636865640000000000000000006044820152fd5b606460405162461bcd60e51b815260206004820152601360248201527f546f6f206d616e792061747472696275746573000000000000000000000000006044820152fd5b606460405162461bcd60e51b815260206004820152601b60248201527f43726564656e7469616c2074797065206e6f7420616c6c6f77656400000000006044820152fd5b50611c796001600160a01b03600f541633149050611c70565b81358581116101ae576020916123e4839260243691880101612482565b815201910190611c4b565b610120810190811067ffffffffffffffff82111761189557604052565b60c0810190811067ffffffffffffffff82111761189557604052565b60a0810190811067ffffffffffffffff82111761189557604052565b6040810190811067ffffffffffffffff82111761189557604052565b90601f8019910116810190811067ffffffffffffffff82111761189557604052565b81601f820112156101ae5780359067ffffffffffffffff821161189557604051926124b7601f8401601f191660200185612460565b828452602083830101116101ae57816000926020809301838601378301015290565b67ffffffffffffffff81116118955760051b60200190565b6024359081151582036101ae57565b600435906001600160a01b03821682036101ae57565b60406003198201126101ae576004359067ffffffffffffffff82116101ae5761254191600401612482565b906024356001600160a01b03811681036101ae5790565b60005b83811061256b5750506000910152565b818101518382015260200161255b565b90600182811c921680156125ab575b602083101461259557565b634e487b7160e01b600052602260045260246000fd5b91607f169161258a565b90600092918054916125c68361257b565b91828252600193848116908160001461262857506001146125e8575b50505050565b90919394506000526020928360002092846000945b8386106126145750505050010190388080806125e2565b8054858701830152940193859082016125fd565b9294505050602093945060ff191683830152151560051b010190388080806125e2565b9060209161266481518092818552858086019101612558565b601f01601f1916010190565b60406003198201126101ae576004359067ffffffffffffffff82116101ae5761269b91600401612482565b9060243590565b805482101561055a5760005260206000200190600090565b908082519081815260208091019281808460051b8301019501936000915b8483106126e85750505050505090565b9091929394958480612706600193601f198682030187528a5161264b565b98019301930191949392906126d8565b602080820190808352835180925260409283810182858560051b8401019601946000925b85841061274b575050505050505090565b9091929394959685806127fb600193603f198682030188528b516127b46127a1612791612781845161012080885287019061264b565b878501518682038988015261264b565b8a8401518582038c87015261264b565b606080840151908583039086015261264b565b916080808301519082015260a0808301519082015260c08083015115159082015260e06001600160a01b0381840151169082015261010080920151918184039101526126ba565b99019401940192959493919061273a565b805482101561055a5760005260206000209060031b0190600090565b9060406003198301126101ae5767ffffffffffffffff6004358181116101ae578361285591600401612482565b926024359182116101ae5761286c91600401612482565b90565b1561287657565b606460405162461bcd60e51b815260206004820152600a60248201527f4f6e6c79206f776e6572000000000000000000000000000000000000000000006044820152fd5b156128c157565b606460405162461bcd60e51b815260206004820152601460248201527f496e76616c6964206a7572697364696374696f6e0000000000000000000000006044820152fd5b1561290c57565b606460405162461bcd60e51b815260206004820152601760248201527f496e76616c69642063726564656e7469616c20747970650000000000000000006044820152fd5b600260005414612961576002600055565b606460405162461bcd60e51b815260206004820152601f60248201527f5265656e7472616e637947756172643a207265656e7472616e742063616c6c006044820152fd5b156129ac57565b606460405162461bcd60e51b815260206004820152601560248201527f4e6f7420617574686f72697a65642069737375657200000000000000000000006044820152fd5b156129f757565b606460405162461bcd60e51b815260206004820152600b60248201527f496e76616c6964204449440000000000000000000000000000000000000000006044820152fd5b15612a4257565b606460405162461bcd60e51b815260206004820152601760248201527f496e76616c69642063726564656e7469616c20686173680000000000000000006044820152fd5b919082018092116105f157565b818110612a9e575050565b60008155600101612a93565b919091825167ffffffffffffffff811161189557612ac8825461257b565b601f8111612b72575b50602080601f8311600114612b0e575081929394600092612b03575b50508160011b916000199060031b1c1916179055565b015190503880612aed565b90601f198316958460005282600020926000905b888210612b5a57505083600195969710612b41575b505050811b019055565b015160001960f88460031b161c19169055388080612b37565b80600185968294968601518155019501930190612b22565b612b9f90836000526020600020601f840160051c81019160208510612ba5575b601f0160051c0190612a93565b38612ad1565b9091508190612b92565b612bb9815461257b565b9081612bc3575050565b81601f60009311600114612bd65750555b565b908083918252612bf5601f60208420940160051c840160018501612a93565b5555565b60001981146105f15760010190565b612c2090602060405192828480945193849201612558565b810103902090565b91612c3582511515612a3b565b604090815190845193602094612c4e8185888a01612558565b830183866001958387809552030190206000878401925b612cad575b60648888519062461bcd60e51b82526004820152601460248201527f43726564656e7469616c206e6f7420666f756e640000000000000000000000006044820152fd5b8154811015612d8c576002612cd5612cc5838561280c565b506102028a5180948193016125b5565b8881519101208451842014612cf65790612cef8692612bf9565b9091612c65565b91612d7c95612d53896006612d34612d69977fe0f2c8af83eafa83d6febe3d54e88deef8002b0172534bd36b7118598accfa459c9d999a9e9761280c565b50019360ff199484868254161790558b51809381928b51928391612558565b8101600581520301902091825416179055612c08565b948051938493606080865285019061264b565b91339084015242908301520390a2565b612c6a565b15612d9857565b606460405162461bcd60e51b815260206004820152600e60248201527f4e6f7420617574686f72697a65640000000000000000000000000000000000006044820152fd5b15612de357565b606460405162461bcd60e51b815260206004820152600f60248201527f496e76616c6964206164647265737300000000000000000000000000000000006044820152fd5b80546801000000000000000081101561189557612e49916001820181556126a2565b9190916122c257612bd491612aaa565b6040516020810181811067ffffffffffffffff821117611895576040526000815290565b908154612e89816124d9565b92604093612e9985519182612460565b828152809460208092019260005281600020906000935b858510612ebf57505050505050565b60018481928451612ed481610202818a6125b5565b815201930194019391612eb0565b80511561055a5760200190565b805182101561055a5760209160051b010190565b9060409081519181519060209081840192612f1f818786612558565b8501600590818152868460ff988993030190205416612f9d579482612f4c83519889815193849201612558565b87019683816001998a81520301902090815491612f68836124d9565b97612f758551998a612460565b8389526000918252858220908a878b015b86851061301b57509450505050506000905b612fa9575b50505050505050600090565b85518110156130165781612fbd8288612eef565b5101518381519101208551852014612fde57612fd890612bf9565b86612f98565b9495505050505060c0612ff18284612eef565b51015115918261300057505090565b60a092509061300e91612eef565b510151421090565b612f9d565b88885191613028836123ef565b895161303881610202818a6125b5565b8352895161304c8161020281888b016125b5565b828401528951613063816102028160028b016125b5565b8a840152895161307a816102028160038b016125b5565b6060840152600486015460808401528486015460a0840152600686015492888416151560c08201526001600160a01b03600894851c1660e08201526130c160078801612e7d565b6101008201528152019301930192918b90612f86565b90815181101561055a57016020019056fea26469706673582212203ab7609bf888508323fb38be3db9ea0a38da607b53c4a07d7e8465543e2233f864736f6c63430008140033",
  "linkReferences": {},
  "deployedLinkReferences": {}
}