{
  "_format": "hh-sol-artifact-1",
  "contractName": "DIDCredentialStorage",
  "sourceName": "contracts/storage/DIDCredentialStorage.sol",
  "abi": [
    {
      "inputs": [],
      "stateMutability": "nonpayable",
      "type": "constructor"
    },
    {
      "anonymous": false,
      "inputs": [
        {
          "indexed": true,
          "internalType": "address",
          "name": "issuer",
          "type": "address"
        },
        {
          "indexed": false,
          "internalType": "bool",
          "name": "authorized",
          "type": "bool"
        }
      ],
      "name": "AuthorizedIssuerUpdated",
      "type": "event"
    },
    {
      "anonymous": false,
      "inputs": [
        {
          "indexed": true,
          "internalType": "address",
          "name": "writer",
          "type": "address"
        },
        {
          "indexed": false,
          "internalType": "bool",
          "name": "authorized",
          "type": "bool"
        }
      ],
      "name": "AuthorizedWriterUpdated",
      "type": "event"
    },
    {
      "anonymous": false,
      "inputs": [
        {
          "indexed": false,
          "internalType": "string",
          "name": "field",
          "type": "string"
        },
        {
          "indexed": false,
          "internalType": "uint256",
          "name": "oldValue",
          "type": "uint256"
        },
        {
          "indexed": false,
          "internalType": "uint256",
          "name": "newValue",
          "type": "uint256"
        }
      ],
      "name": "CredentialConfigUpdated",
      "type": "event"
    },
    {
      "anonymous": false,
      "inputs": [
        {
          "indexed": true,
          "internalType": "string",
          "name": "did",
          "type": "string"
        },
        {
          "indexed": false,
          "internalType": "string",
          "name": "credentialType",
          "type": "string"
        },
        {
          "indexed": false,
          "internalType": "string",
          "name": "jurisdiction",
          "type": "string"
        },
        {
          "indexed": false,
          "internalType": "address",
          "name": "issuer",
          "type": "address"
        },
        {
          "indexed": false,
          "internalType": "uint256",
          "name": "expiresAt",
          "type": "uint256"
        }
      ],
      "name": "CredentialIssued",
      "type": "event"
    },
    {
      "anonymous": false,
      "inputs": [
        {
          "indexed": true,
          "internalType": "string",
          "name": "did",
          "type": "string"
        },
        {
          "indexed": false,
          "internalType": "string",
          "name": "credentialHash",
          "type": "string"
        },
        {
          "indexed": false,
          "internalType": "address",
          "name": "revoker",
          "type": "address"
        },
        {
          "indexed": false,
          "internalType": "uint256",
          "name": "timestamp",
          "type": "uint256"
        }
      ],
      "name": "CredentialRevoked",
      "type": "event"
    },
    {
      "anonymous": false,
      "inputs": [
        {
          "indexed": true,
          "internalType": "string",
          "name": "did",
          "type": "string"
        },
        {
          "indexed": true,
          "internalType": "address",
          "name": "address_",
          "type": "address"
        },
        {
          "indexed": false,
          "internalType": "uint256",
          "name": "timestamp",
          "type": "uint256"
        }
      ],
      "name": "DIDLinked",
      "type": "event"
    },
    {
      "anonymous": false,
      "inputs": [
        {
          "indexed": true,
          "internalType": "string",
          "name": "did",
          "type": "string"
        },
        {
          "indexed": true,
          "internalType": "address",
          "name": "address_",
          "type": "address"
        },
        {
          "indexed": false,
          "internalType": "uint256",
          "name": "timestamp",
          "type": "uint256"
        }
      ],
      "name": "DIDUnlinked",
      "type": "event"
    },
    {
      "inputs": [],
      "name": "CONTRACT_NAME",
      "outputs": [
        {
          "internalType": "string",
          "name": "",
          "type": "string"
        }
      ],
      "stateMutability": "view",
      "type": "function"
    },
    {
      "inputs": [],
      "name": "VERSION",
      "outputs": [
        {
          "internalType": "uint256",
          "name": "",
          "type": "uint256"
        }
      ],
      "stateMutability": "view",
      "type": "function"
    },
    {
      "inputs": [
        {
          "internalType": "address",
          "name": "",
          "type": "address"
        }
      ],
      "name": "addressToDID",
      "outputs": [
        {
          "internalType": "string",
          "name": "",
          "type": "string"
        }
      ],
      "stateMutability": "view",
      "type": "function"
    },
    {
      "inputs": [
        {
          "internalType": "string",
          "name": "",
          "type": "string"
        }
      ],
      "name": "allowedCredentialTypes",
      "outputs": [
        {
          "internalType": "bool",
          "name": "",
          "type": "bool"
        }
      ],
      "stateMutability": "view",
      "type": "function"
    },
    {
      "inputs": [
        {
          "internalType": "address",
          "name": "",
          "type": "address"
        }
      ],
      "name": "authorizedIssuers",
      "outputs": [
        {
          "internalType": "bool",
          "name": "",
          "type": "bool"
        }
      ],
      "stateMutability": "view",
      "type": "function"
    },
    {
      "inputs": [
        {
          "internalType": "address",
          "name": "",
          "type": "address"
        }
      ],
      "name": "authorizedWriters",
      "outputs": [
        {
          "internalType": "bool",
          "name": "",
          "type": "bool"
        }
      ],
      "stateMutability": "view",
      "type": "function"
    },
    {
      "inputs": [],
      "name": "credentialConfig",
      "outputs": [
        {
          "internalType": "uint256",
          "name": "defaultExpiryDuration",
          "type": "uint256"
        },
        {
          "internalType": "uint256",
          "name": "maxAttributesPerCredential",
          "type": "uint256"
        },
        {
          "internalType": "bool",
          "name": "allowCrossJurisdiction",
          "type": "bool"
        },
        {
          "internalType": "bool",
          "name": "requireIssuerVerification",
          "type": "bool"
        },
        {
          "internalType": "uint256",
          "name": "maxCredentialsPerDID",
          "type": "uint256"
        }
      ],
      "stateMutability": "view",
      "type": "function"
    },
    {
      "inputs": [
        {
          "internalType": "string",
          "name": "",
          "type": "string"
        }
      ],
      "name": "credentialCount",
      "outputs": [
        {
          "internalType": "uint256",
          "name": "",
          "type": "uint256"
        }
      ],
      "stateMutability": "view",
      "type": "function"
    },
    {
      "inputs": [
        {
          "internalType": "string",
          "name": "",
          "type": "string"
        },
        {
          "internalType": "uint256",
          "name": "",
          "type": "uint256"
        }
      ],
      "name": "didCredentials",
      "outputs": [
        {
          "internalType": "string",
          "name": "did",
          "type": "string"
        },
        {
          "internalType": "string",
          "name": "credentialType",
          "type": "string"
        },
        {
          "internalType": "string",
          "name": "credentialHash",
          "type": "string"
        },
        {
          "internalType": "string",
          "name": "jurisdiction",
          "type": "string"
        },
        {
          "internalType": "uint256",
          "name": "issuedAt",
          "type": "uint256"
        },
        {
          "internalType": "uint256",
          "name": "expiresAt",
          "type": "uint256"
        },
        {
          "internalType": "bool",
          "name": "isRevoked",
          "type": "bool"
        },
        {
          "internalType": "address",
          "name": "issuer",
          "type": "address"
        }
      ],
      "stateMutability": "view",
      "type": "function"
    },
    {
      "inputs": [
        {
          "internalType": "string",
          "name": "",
          "type": "string"
        }
      ],
      "name": "didMetadata",
      "outputs": [
        {
          "internalType": "string",
          "name": "did",
          "type": "string"
        },
        {
          "internalType": "address",
          "name": "primaryAddress",
          "type": "address"
        },
        {
          "internalType": "uint256",
          "name": "createdAt",
          "type": "uint256"
        },
        {
          "internalType": "bool",
          "name": "isActive",
          "type": "bool"
        }
      ],
      "stateMutability": "view",
      "type": "function"
    },
    {
      "inputs": [
        {
          "internalType": "string",
          "name": "",
          "type": "string"
        },
        {
          "internalType": "uint256",
          "name": "",
          "type": "uint256"
        }
      ],
      "name": "didToAddresses",
      "outputs": [
        {
          "internalType": "address",
          "name": "",
          "type": "address"
        }
      ],
      "stateMutability": "view",
      "type": "function"
    },
    {
      "inputs": [
        {
          "internalType": "string",
          "name": "did",
          "type": "string"
        }
      ],
      "name": "getAddressesForDID",
      "outputs": [
        {
          "internalType": "address[]",
          "name": "",
          "type": "address[]"
        }
      ],
      "stateMutability": "view",
      "type": "function"
    },
    {
      "inputs": [],
      "name": "getCredentialConfig",
      "outputs": [
        {
          "components": [
            {
              "internalType": "uint256",
              "name": "defaultExpiryDuration",
              "type": "uint256"
            },
            {
              "internalType": "uint256",
              "name": "maxAttributesPerCredential",
              "type": "uint256"
            },
            {
              "internalType": "bool",
              "name": "allowCrossJurisdiction",
              "type": "bool"
            },
            {
              "internalType": "bool",
              "name": "requireIssuerVerification",
              "type": "bool"
            },
            {
              "internalType": "uint256",
              "name": "maxCredentialsPerDID",
              "type": "uint256"
            }
          ],
          "internalType": "struct DIDCredentialStorage.CredentialConfig",
          "name": "",
          "type": "tuple"
        }
      ],
      "stateMutability": "view",
      "type": "function"
    },
    {
      "inputs": [
        {
          "internalType": "string",
          "name": "did",
          "type": "string"
        }
      ],
      "name": "getCredentialCount",
      "outputs": [
        {
          "internalType": "uint256",
          "name": "",
          "type": "uint256"
        }
      ],
      "stateMutability": "view",
      "type": "function"
    },
    {
      "inputs": [
        {
          "internalType": "string",
          "name": "did",
          "type": "string"
        }
      ],
      "name": "getDIDCredentials",
      "outputs": [
        {
          "components": [
            {
              "internalType": "string",
              "name": "did",
              "type": "string"
            },
            {
              "internalType": "string",
              "name": "credentialType",
              "type": "string"
            },
            {
              "internalType": "string",
              "name": "credentialHash",
              "type": "string"
            },
            {
              "internalType": "string",
              "name": "jurisdiction",
              "type": "string"
            },
            {
              "internalType": "uint256",
              "name": "issuedAt",
              "type": "uint256"
            },
            {
              "internalType": "uint256",
              "name": "expiresAt",
              "type": "uint256"
            },
            {
              "internalType": "bool",
              "name": "isRevoked",
              "type": "bool"
            },
            {
              "internalType": "address",
              "name": "issuer",
              "type": "address"
            },
            {
              "internalType": "string[]",
              "name": "attributes",
              "type": "string[]"
            }
          ],
          "internalType": "struct DIDCredentialStorage.DIDCredential[]",
          "name": "",
          "type": "tuple[]"
        }
      ],
      "stateMutability": "view",
      "type": "function"
    },
    {
      "inputs": [
        {
          "internalType": "string",
          "name": "did",
          "type": "string"
        },
        {
          "internalType": "string",
          "name": "credentialType",
          "type": "string"
        }
      ],
      "name": "getDIDCredentialsByType",
      "outputs": [
        {
          "components": [
            {
              "internalType": "string",
              "name": "did",
              "type": "string"
            },
            {
              "internalType": "string",
              "name": "credentialType",
              "type": "string"
            },
            {
              "internalType": "string",
              "name": "credentialHash",
              "type": "string"
            },
            {
              "internalType": "string",
              "name": "jurisdiction",
              "type": "string"
            },
            {
              "internalType": "uint256",
              "name": "issuedAt",
              "type": "uint256"
            },
            {
              "internalType": "uint256",
              "name": "expiresAt",
              "type": "uint256"
            },
            {
              "internalType": "bool",
              "name": "isRevoked",
              "type": "bool"
            },
            {
              "internalType": "address",
              "name": "issuer",
              "type": "address"
            },
            {
              "internalType": "string[]",
              "name": "attributes",
              "type": "string[]"
            }
          ],
          "internalType": "struct DIDCredentialStorage.DIDCredential[]",
          "name": "",
          "type": "tuple[]"
        }
      ],
      "stateMutability": "view",
      "type": "function"
    },
    {
      "inputs": [
        {
          "internalType": "address",
          "name": "address_",
          "type": "address"
        }
      ],
      "name": "getDIDForAddress",
      "outputs": [
        {
          "internalType": "string",
          "name": "",
          "type": "string"
        }
      ],
      "stateMutability": "view",
      "type": "function"
    },
    {
      "inputs": [
        {
          "internalType": "string",
          "name": "did",
          "type": "string"
        }
      ],
      "name": "getDIDMetadata",
      "outputs": [
        {
          "components": [
            {
              "internalType": "string",
              "name": "did",
              "type": "string"
            },
            {
              "internalType": "address",
              "name": "primaryAddress",
              "type": "address"
            },
            {
              "internalType": "uint256",
              "name": "createdAt",
              "type": "uint256"
            },
            {
              "internalType": "bool",
              "name": "isActive",
              "type": "bool"
            },
            {
              "internalType": "string[]",
              "name": "linkedAddresses",
              "type": "string[]"
            },
            {
              "internalType": "string[]",
              "name": "credentialTypes",
              "type": "string[]"
            }
          ],
          "internalType": "struct DIDCredentialStorage.DIDMetadata",
          "name": "",
          "type": "tuple"
        }
      ],
      "stateMutability": "view",
      "type": "function"
    },
    {
      "inputs": [
        {
          "internalType": "address",
          "name": "issuer",
          "type": "address"
        }
      ],
      "name": "isAuthorizedIssuer",
      "outputs": [
        {
          "internalType": "bool",
          "name": "",
          "type": "bool"
        }
      ],
      "stateMutability": "view",
      "type": "function"
    },
    {
      "inputs": [
        {
          "internalType": "address",
          "name": "writer",
          "type": "address"
        }
      ],
      "name": "isAuthorizedWriter",
      "outputs": [
        {
          "internalType": "bool",
          "name": "",
          "type": "bool"
        }
      ],
      "stateMutability": "view",
      "type": "function"
    },
    {
      "inputs": [
        {
          "internalType": "string",
          "name": "credentialHash",
          "type": "string"
        }
      ],
      "name": "isCredentialRevoked",
      "outputs": [
        {
          "internalType": "bool",
          "name": "",
          "type": "bool"
        }
      ],
      "stateMutability": "view",
      "type": "function"
    },
    {
      "inputs": [
        {
          "internalType": "string",
          "name": "did",
          "type": "string"
        },
        {
          "internalType": "string",
          "name": "credentialHash",
          "type": "string"
        }
      ],
      "name": "isCredentialValid",
      "outputs": [
        {
          "internalType": "bool",
          "name": "",
          "type": "bool"
        }
      ],
      "stateMutability": "view",
      "type": "function"
    },
    {
      "inputs": [
        {
          "internalType": "string",
          "name": "did",
          "type": "string"
        },
        {
          "internalType": "string",
          "name": "credentialType",
          "type": "string"
        },
        {
          "internalType": "string",
          "name": "credentialHash",
          "type": "string"
        },
        {
          "internalType": "string",
          "name": "jurisdiction",
          "type": "string"
        },
        {
          "internalType": "string[]",
          "name": "attributes",
          "type": "string[]"
        }
      ],
      "name": "issueCredential",
      "outputs": [],
      "stateMutability": "nonpayable",
      "type": "function"
    },
    {
      "inputs": [
        {
          "internalType": "string",
          "name": "",
          "type": "string"
        }
      ],
      "name": "jurisdictionExpiryDurations",
      "outputs": [
        {
          "internalType": "uint256",
          "name": "",
          "type": "uint256"
        }
      ],
      "stateMutability": "view",
      "type": "function"
    },
    {
      "inputs": [
        {
          "internalType": "string",
          "name": "did",
          "type": "string"
        },
        {
          "internalType": "address",
          "name": "address_",
          "type": "address"
        }
      ],
      "name": "linkDIDToAddress",
      "outputs": [],
      "stateMutability": "nonpayable",
      "type": "function"
    },
    {
      "inputs": [],
      "name": "owner",
      "outputs": [
        {
          "internalType": "address",
          "name": "",
          "type": "address"
        }
      ],
      "stateMutability": "view",
      "type": "function"
    },
    {
      "inputs": [
        {
          "internalType": "string",
          "name": "did",
          "type": "string"
        },
        {
          "internalType": "string",
          "name": "credentialHash",
          "type": "string"
        }
      ],
      "name": "revokeCredential",
      "outputs": [],
      "stateMutability": "nonpayable",
      "type": "function"
    },
    {
      "inputs": [
        {
          "internalType": "string",
          "name": "",
          "type": "string"
        }
      ],
      "name": "revokedCredentials",
      "outputs": [
        {
          "internalType": "bool",
          "name": "",
          "type": "bool"
        }
      ],
      "stateMutability": "view",
      "type": "function"
    },
    {
      "inputs": [
        {
          "internalType": "string",
          "name": "credentialType",
          "type": "string"
        },
        {
          "internalType": "bool",
          "name": "allowed",
          "type": "bool"
        }
      ],
      "name": "setAllowedCredentialType",
      "outputs": [],
      "stateMutability": "nonpayable",
      "type": "function"
    },
    {
      "inputs": [
        {
          "internalType": "address",
          "name": "issuer",
          "type": "address"
        },
        {
          "internalType": "bool",
          "name": "authorized",
          "type": "bool"
        }
      ],
      "name": "setAuthorizedIssuer",
      "outputs": [],
      "stateMutability": "nonpayable",
      "type": "function"
    },
    {
      "inputs": [
        {
          "internalType": "address",
          "name": "writer",
          "type": "address"
        },
        {
          "internalType": "bool",
          "name": "authorized",
          "type": "bool"
        }
      ],
      "name": "setAuthorizedWriter",
      "outputs": [],
      "stateMutability": "nonpayable",
      "type": "function"
    },
    {
      "inputs": [
        {
          "internalType": "string",
          "name": "did",
          "type": "string"
        },
        {
          "internalType": "address",
          "name": "address_",
          "type": "address"
        }
      ],
      "name": "unlinkDIDFromAddress",
      "outputs": [],
      "stateMutability": "nonpayable",
      "type": "function"
    },
    {
      "inputs": [
        {
          "internalType": "uint256",
          "name": "_defaultExpiryDuration",
          "type": "uint256"
        },
        {
          "internalType": "uint256",
          "name": "_maxAttributesPerCredential",
          "type": "uint256"
        },
        {
          "internalType": "bool",
          "name": "_allowCrossJurisdiction",
          "type": "bool"
        },
        {
          "internalType": "bool",
          "name": "_requireIssuerVerification",
          "type": "bool"
        },
        {
          "internalType": "uint256",
          "name": "_maxCredentialsPerDID",
          "type": "uint256"
        }
      ],
      "name": "updateCredentialConfig",
      "outputs": [],
      "stateMutability": "nonpayable",
      "type": "function"
    },
    {
      "inputs": [
        {
          "internalType": "string",
          "name": "jurisdiction",
          "type": "string"
        },
        {
          "internalType": "uint256",
          "name": "expiryDuration",
          "type": "uint256"
        }
      ],
      "name": "updateJurisdictionConfig",
      "outputs": [],
      "stateMutability": "nonpayable",
      "type": "function"
    }
  ],
  "bytecode": "0x60803461023e5760015f818155600f80546001600160a01b0319163390811782558252600d60209081526040808420805460ff19908116871790915592546001600160a01b03168452600e90915280832080548316851790559392909160a08401906001600160401b0382118583101761022a57508452603260806301e1338094858152601460208201528387820152836060820152015282600755601460085561010161ffff1960095416176009556032600a5560298451624b594360e81b81526023600c91826003820152208385825416179055602386516210535360ea1b815282600382015220838582541617905560288651674964656e7469747960c01b815282600882015220838582541617905560278651664164647265737360c81b8152826007820152208385825416179055602586516450686f6e6560d81b81528260058201522083858254161790556025865164115b585a5b60da1b8152826005820152208385825416179055602a865169115b5c1b1bde5b595b9d60b21b815282600a8201522083858254161790558551906822b23ab1b0ba34b7b760b91b825260098201522091825416179055806022835161554b60f01b8152600b60028201522055806022835161455560f01b8152600b60028201522055806022835161555360f01b8152600b60028201522055806022835161415560f01b8152600b6002820152205560228251615a4160f01b8152600b600282015220555161308990816102438239f35b634e487b7160e01b81526041600452602490fd5b5f80fdfe60806040526004361015610011575f80fd5b5f3560e01c80630cb9a3cc14611b285780630f2a699014611a9b578063133a691c146115b1578063203096631461156957806331ba1966146115225780633476abd0146114d8578063357061e11461140657806341af81bf1461136a578063526241a81461132d578063542a086c1461124d57806359358acf1461117a578063614d08f81461111d57806361e2d60214610b635780636fce6051146110d257806374b2234d14610f6d5780637cb26cfd14610e43578063809915bc14610cee5780638da5cb5b14610cc857806391d481c814610c6a5780639414311f14610c2757806398ce770d14610be15780639ef015d914610bb2578063ac7ac60414610b63578063ad6e823b14610b0d578063c405181c14610868578063c47a2612146107c5578063c79ba874146106a0578063d88bbb9b14610656578063dc4fb01c146102fb578063e466331d14610299578063f731fa0f1461025c578063f789c0a11461021a578063fa9cccb8146101ae5763ffa1ad741461018f575f80fd5b346101aa575f3660031901126101aa57602060405160018152f35b5f80fd5b346101aa5760203660031901126101aa576001600160a01b036101cf612491565b166101db811515612d4e565b5f5260036020526102166101fb61020260405f2060405192838092612542565b03826123f2565b6040519182916020835260208301906125d3565b0390f35b346101aa5760203660031901126101aa576001600160a01b0361023b612491565b165f5260036020526102166101fb61020260405f2060405192838092612542565b346101aa5760203660031901126101aa576001600160a01b0361027d612491565b165f52600e602052602060ff60405f2054166040519015158152f35b346101aa5760203660031901126101aa5760043567ffffffffffffffff81116101aa5760ff6102e560206102d281943690600401612414565b81604051938285809451938492016124e9565b8101600c81520301902054166040519015158152f35b346101aa57610309366124a7565b335f526020600d815260ff60405f205416801561063d575b61032a90612d03565b6103368351151561296e565b6001600160a01b038092169261034d841515612d4e565b835f526003928383526101fb61036c60405f2060405192838092612542565b83815191012090825191848401928320036105f957855f5284845261039360405f20612b24565b604051848185516103a58183886124e9565b81016004815203019020915f5b8354808210156105ec5788846103c8848861262a565b9054908b1b1c16146103e357506103de90612b6d565b6103b2565b5f9792939495969719918282019182116105d85761041686610408610436948a61262a565b905490871b1c16918861262a565b90919082549060031b916001600160a01b03809116831b921b1916179055565b84549081156105c4578491019161044d838761262a565b81939154921b1b1916905583555b858260016040518881895161047181838a6124e9565b81016002815203019020015416146104bb575b5050506104b17fc61e9da61130013a4f6d5b79717d039b1f4f46db6f7e6da9ab504ddbc8a8206691612b7b565b91604051428152a3005b8254929391928590156105595750835415610545576001610515866104b1957fc61e9da61130013a4f6d5b79717d039b1f4f46db6f7e6da9ab504ddbc8a82066975f52815f205416936040518093819288519283916124e9565b81016002815203019020019073ffffffffffffffffffffffffffffffffffffffff198254161790555b9185610484565b634e487b7160e01b5f52603260045260245ffd5b7fc61e9da61130013a4f6d5b79717d039b1f4f46db6f7e6da9ab504ddbc8a8206694506104b19350610599906001926040518093819287519283916124e9565b810160028152030190200173ffffffffffffffffffffffffffffffffffffffff19815416905561053e565b634e487b7160e01b5f52603160045260245ffd5b634e487b7160e01b5f52601160045260245ffd5b505090919293945061045b565b6064846040519062461bcd60e51b82526004820152601960248201527f41646472657373206e6f74206c696e6b656420746f20444944000000000000006044820152fd5b5061032a6001600160a01b03600f541633149050610321565b346101aa5760203660031901126101aa5760043567ffffffffffffffff81116101aa5761068d60206102d281933690600401612414565b8101600681520301902054604051908152f35b346101aa5760a03660031901126101aa5760043560243590604435918215158093036101aa57606435908115158092036101aa5760a09384936106ef6001600160a01b03600f541633146127ef565b6007549160085494826007558460085560ff61ff006009549260081b1692169061ffff19161717600955608435600a556040519160608352601560608401527f64656661756c744578706972794475726174696f6e00000000000000000000006080840152602083015260408201527fb8b1b27fa13a034d90aaced41a15b5eb8db867e16d12b943524225acaee241e3948591a16040519160608352601a60608401527f6d61784174747269627574657350657243726564656e7469616c000000000000608084015260208301526040820152a1005b346101aa575f3660031901126101aa575f60806040516107e4816123ba565b828152826020820152826040820152826060820152015260a0604051610809816123ba565b600754908181526008546020820190815260095490604083019060ff83161515825260ff606085019360081c16151583526080600a54940193845260405194855251602085015251151560408401525115156060830152516080820152f35b346101aa57610876366127a8565b6108828251151561296e565b6040518251610896818360208097016124e9565b8101908381600193848152030190209182546108b18161246a565b936108bf60405195866123f2565b8185525f90815285812090848787015b848310610a495750505050505f92825f905b6109f4575b506108f08461246a565b936108fe60405195866123f2565b80855261090d601f199161246a565b01855f5b8281106109a7575050505f91835f905b610934575b60405180610216888261269a565b82518110156109a257866109488285612e5d565b5101518781519101208251888401201461096c575b61096690612b6d565b84610921565b9261099a6109669161097e8686612e5d565b51610989828a612e5d565b526109948189612e5d565b50612b6d565b93905061095d565b610926565b6040516109b381612381565b6060808252808483015280604083015280808301525f60808301525f60a08301525f60c08301525f60e0830152610100820152828289010152018690610911565b8151811015610a445785610a088284612e5d565b51015186815191012083518785012014610a2d575b610a278491612b6d565b906108e1565b93610a27610a3b8592612b6d565b95915050610a1d565b6108e6565b8860405191610a5783612381565b604051610a68816101fb818a612542565b8352604051610a7d816101fb81888b01612542565b82840152604051610a95816101fb8160028b01612542565b6040840152604051610aae816101fb8160038b01612542565b606084015260048601546080840152600586015460a084015260068601549260ff8416151560c08201526001600160a01b03600894851c1660e0820152610af760078801612dee565b61010082015281520193019101909185906108cf565b346101aa5760203660031901126101aa5760206001600160a01b0380610b31612491565b16805f52600d835260ff60405f205416918215610b55575b50506040519015158152f35b600f54161490508280610b49565b346101aa5760203660031901126101aa5760043567ffffffffffffffff81116101aa5760ff610b9c60206102d281943690600401612414565b8101600581520301902054166040519015158152f35b346101aa576020610bd7610bc5366127a8565b90610bd28151151561296e565b612e71565b6040519015158152f35b346101aa576020610c18610bf4366125f8565b9290610c0c6001600160a01b03600f541633146127ef565b6102d28151151561283a565b8101600b815203019020555f80f35b346101aa5760203660031901126101aa5760043567ffffffffffffffff81116101aa5761068d6020610c5e81933690600401612414565b6102d28151151561296e565b346101aa57610cad610c7b366127a8565b90335f52600e60205260ff60405f2054168015610caf575b610c9c90612923565b610ca88151151561296e565b612b9b565b005b50610c9c6001600160a01b03600f541633149050610c93565b346101aa575f3660031901126101aa5760206001600160a01b03600f5416604051908152f35b346101aa576020806003193601126101aa576004359067ffffffffffffffff82116101aa57610216610d6282610d2a60a0953690600401612414565b604051610d368161239e565b60609681888093525f858201525f60408201525f8382015282608082015201526102d28151151561296e565b8101600281520301902060405193610d798561239e565b604051610d8a816101fb8186612542565b8552610e326001600160a01b039283600182015416928688019384526002820154906040890191825260ff60038401541691818a019215158352610de36005610dd560048701612dee565b9560808d0196875201612dee565b9660a08b01978852610e088a60c06040519d8e9d8e5251918d015260e08c01906125d3565b96511660408a0152519088015251151560808701525191601f1992838783030160a088015261263f565b9151908483030160c085015261263f565b346101aa576020610e6b610e56366125f8565b929081604051938285809451938492016124e9565b8101600181520301902080548210156101aa57610f2091610e8b9161278f565b5060405190610ea582610e9e8184612542565b03836123f2565b6001600160a01b03604051610ec1816101fb8160018701612542565b60405192610edd84610ed68160028501612542565b03856123f2565b610f4a604051610ef4816101fb8160038701612542565b610f3c600484015496610f2e60066005870154960154966040519b8c9b8c6101008091528d01906125d3565b908b820360208d01526125d3565b9089820360408b01526125d3565b9087820360608901526125d3565b93608086015260a085015260ff8116151560c085015260081c1660e08301520390f35b346101aa576020806003193601126101aa5760043567ffffffffffffffff81116101aa57610f9f903690600401612414565b90610fac8251151561296e565b80610fc060405193848151938492016124e9565b82019181816001948581520301902090815490610fdc8261246a565b92610fea60405194856123f2565b8284525f908152818120918085015b84831061100e5760405180610216888261269a565b8690826040519161101e83612381565b60405161102f816101fb818b612542565b8352604051611044816101fb81888c01612542565b8284015260405161105c816101fb8160028c01612542565b6040840152604051611075816101fb8160038c01612542565b606084015260048701546080840152600587015460a084015260068701549260ff8416151560c08201526001600160a01b03600894851c1660e08201526110be60078901612dee565b610100820152815201940192019192610ff9565b346101aa5760206110e5610e56366125f8565b810160048152030190209081548110156101aa5761110d6001600160a01b039160209361262a565b9190546040519260031b1c168152f35b346101aa575f3660031901126101aa5761021660405161113c816123d6565b601481527f44494443726564656e7469616c53746f7261676500000000000000000000000060208201526040519182916020835260208301906125d3565b346101aa576020806003193601126101aa5760043567ffffffffffffffff81116101aa5781610c5e6111b0923690600401612414565b81016004815203019020604051908183825491828152019081925f52845f20905f5b868282106112305786866111e8828803836123f2565b60405192839281840190828552518091526040840192915f5b82811061121057505050500390f35b83516001600160a01b031685528695509381019392810192600101611201565b83546001600160a01b0316855290930192600192830192016111d2565b346101aa5760403660031901126101aa57611266612491565b61126e612482565b906001600160a01b039061128782600f541633146127ef565b61128f6128d0565b169081156112e95760207e8ebc621f24e0e9d1fd4ee2f7df9bb80c8d61ee30a9167a4fee6cefcf8c021e91835f52600d82526112da8160405f209060ff801983541691151516179055565b6040519015158152a260015f55005b606460405162461bcd60e51b815260206004820152601660248201527f496e76616c6964207772697465722061646472657373000000000000000000006044820152fd5b346101aa5760203660031901126101aa576001600160a01b0361134e612491565b165f52600d602052602060ff60405f2054166040519015158152f35b346101aa5760203660031901126101aa5760043567ffffffffffffffff81116101aa576113a360206102d26113f0933690600401612414565b81016002815203019020604051906113bf82610e9e8184612542565b6001600160a01b036001820154169060ff6003600283015492015416906040519485946080865260808601906125d3565b9260208501526040840152151560608301520390f35b346101aa5760403660031901126101aa5761141f612491565b611427612482565b906001600160a01b039061144082600f541633146127ef565b6114486128d0565b169081156114945760207f0455d749995ce43e3b98981b666e5dadcc51f9536cac29239989847262b3161091835f52600e82526112da8160405f209060ff801983541691151516179055565b606460405162461bcd60e51b815260206004820152601660248201527f496e76616c6964206973737565722061646472657373000000000000000000006044820152fd5b346101aa5760203660031901126101aa5760043567ffffffffffffffff81116101aa5761150f60206102d281933690600401612414565b8101600b81520301902054604051908152f35b346101aa5760203660031901126101aa5760206001600160a01b0380611546612491565b16805f52600e835260ff60405f205416918215610b555750506040519015158152f35b346101aa575f3660031901126101aa5760a060075460085460ff600954600a549260405194855260208501528181161515604085015260081c16151560608301526080820152f35b346101aa576115bf366124a7565b90335f52602090600d825260ff60405f2054168015611a82575b6115e290612d03565b6115ee8151151561296e565b6001600160a01b0380841693611605851515612d4e565b845f526003845261161960405f205461250a565b611a3e57845f52600384526116318360405f20612a27565b604051918351928581818701956116498183896124e9565b810160048152030190209283546801000000000000000093848210156118475761041661167d92600197888201815561262a565b856116a3604051828189516116938183896124e9565b810160028152030190205461250a565b6118ad57506116b0612dcb565b61175c85878a6116be612dcb565b9661171c61170a8d604051996116d38b61239e565b868b52818b0195865260408b019642885260608c0198895260808c019a8b5260a08c019c8d526040519384928392519283916124e9565b81016002815203019020975188612a27565b89870191511673ffffffffffffffffffffffffffffffffffffffff19825416179055516002850155511515600384019060ff801983541691151516179055565b5180519060048301908583116118475788908254848455808510611878575b5001905f52875f2086895f935b85851061185b57505050505050600501905180519283116118475785908254848455808510611812575b5001905f52845f20855f925b8484106117f5575050505050506104b17f174a9a71f342e002f6ce8fd50eeb5eb833f240e2c2527ad97a03049449503fd291612b7b565b85918161180484935186612a27565b0192019201919086906117be565b835f528585845f2092830192015b82811061182e5750506117b2565b909192935061183c81612b24565b019085889392611820565b634e487b7160e01b5f52604160045260245ffd5b908161186984935186612a27565b01920192019190898891611788565b835f528885845f2092830192015b82811061189457505061177b565b90919293506118a281612b24565b0190888b9392611886565b90600493506118c892506040518093819288519283916124e9565b8101600281520301902001604051916118e0836123d6565b601083527f303132333435363738396162636465660000000000000000000000000000000085840152604051926060840184811067ffffffffffffffff82111761184757604052602a845285840160403682378451156105455760309053835182101561054557607860218501535f5b6014811061198f575050509161198a6104b1927f174a9a71f342e002f6ce8fd50eeb5eb833f240e2c2527ad97a03049449503fd294612d99565b612b7b565b600c81018082116105d857878110156105455788901a907fff00000000000000000000000000000000000000000000000000000000000000806119d8600f8560041c1686613042565b51169282861b93838504600214841517156105d8578460020191826002116105d857611a1592611a0d600f935f1a918c613042565b531685613042565b511691600301806003116105d857611a33611a39935f1a9188613042565b53612b6d565b611950565b6064846040519062461bcd60e51b82526004820152601660248201527f4164647265737320616c7265616479206c696e6b6564000000000000000000006044820152fd5b506115e26001600160a01b03600f5416331490506115d9565b346101aa5760403660031901126101aa5760043567ffffffffffffffff81116101aa57611acf611b22913690600401612414565b611b076020611adc612482565b92611af36001600160a01b03600f541633146127ef565b611afb6128d0565b6102d281511515612885565b8101600c8152030190209060ff801983541691151516179055565b60015f55005b346101aa5760a03660031901126101aa5767ffffffffffffffff6004358181116101aa57611b5a903690600401612414565b6024358281116101aa57611b72903690600401612414565b906044358381116101aa57611b8b903690600401612414565b926064358181116101aa57611ba4903690600401612414565b93608435918083116101aa57366023840112156101aa578260040135611bc98161246a565b93611bd760405195866123f2565b8185526024602086019260051b820101913683116101aa5760248201905b838210612359575050505050335f52600e60205260ff60405f2054168015612340575b611c2190612923565b611c2d8351151561296e565b611c3984511515612885565b60ff6040516020818751611c508183858c016124e9565b8101600c8152030190205416156122fc57611c6d815115156129b9565b611c798551151561283a565b8151600854106122b8576040516020818551611c988183858a016124e9565b8101600681520301902054600a541115612274576040516020818751611cc18183858c016124e9565b8101600b8152030190205491821561226a575b611cde8342612a04565b60405192611ceb84612381565b858452866020850152604084015286606084015242608084015260a08301525f60c08301523360e08301526101008201526040516020818551611d318183858a016124e9565b60018183015281010301902080546801000000000000000081101561184757611d5f9160018201815561278f565b9190916122575780611d75610100925184612a27565b611d86602082015160018501612a27565b611d97604082015160028501612a27565b611da8606082015160038501612a27565b6080810151600484015560a0810151600584015560068301611ddc60c08301511515829060ff801983541691151516179055565b60e08201517fffffffffffffffffffffff0000000000000000000000000000000000000000ff74ffffffffffffffffffffffffffffffffffffffff0083549260081b169116179055015190815191680100000000000000008311611847576007820154836007840155808410612226575b5060206007910191015f5260205f205f915b83831061220957505050506040516020818451611e7f81838589016124e9565b81016006815203019020611e938154612b6d565b9055611ead60405160208185516116938183858a016124e9565b61213757604051611ebd816123d6565b600181525f5b60208110612126575083611ed682612e50565b52611ee081612e50565b50611ee9612dcb565b9060405191611ef78361239e565b848352611f9760208401925f8452604085014281526060860191600183526080870194855260a087015260405160208181611f388c838151938492016124e9565b8101600281520301902094611f4e875187612a27565b6001600160a01b036001870191511673ffffffffffffffffffffffffffffffffffffffff19825416179055516002850155511515600384019060ff801983541691151516179055565b518051906801000000000000000082116118475760048301548260048501558083106120f5575b50602001600483015f5260205f205f915b8383106120d85750505050600560a09101910151908151916801000000000000000083116118475781548383558084106120ab575b50602001905f5260205f205f915b83831061208e57505050509161206f9161207d61205a6120547f550a0b9f36bb4056b1fcf0c1c37d61b69d20190bde216b4568cfd900430053f2965b42612a04565b92612b7b565b956040519485946080865260808601906125d3565b9084820360208601526125d3565b9033604084015260608301520390a2005b600160208261209f83945186612a27565b01920192019190612012565b825f528360205f2091820191015b8181106120c65750612004565b806120d2600192612b24565b016120b9565b60016020826120e983945186612a27565b01920192019190611fcf565b600484015f5260205f20908382015b8183018110612114575050611fbe565b80612120600192612b24565b01612104565b806060602080938501015201611ec3565b6005604051602081855161214e8183858a016124e9565b81016002815203019020015f808254905b8181106121b9575b505061205a612054869461206f96947f550a0b9f36bb4056b1fcf0c1c37d61b69d20190bde216b4568cfd900430053f29861207d95156121a9575b505061204e565b6121b291612d99565b89866121a2565b6101fb6121d66121c9838761262a565b5060405192838092612542565b6020815191012087516020890120146121f7576121f290612b6d565b61215f565b506001915061205a9050612054612167565b600160208261221a83945186612a27565b01920192019190611e5f565b600783015f5260205f20908482015b8183018110612245575050611e4d565b80612251600192612b24565b01612235565b634e487b7160e01b5f525f60045260245ffd5b6007549250611cd4565b606460405162461bcd60e51b815260206004820152601760248201527f4d61782063726564656e7469616c7320726561636865640000000000000000006044820152fd5b606460405162461bcd60e51b815260206004820152601360248201527f546f6f206d616e792061747472696275746573000000000000000000000000006044820152fd5b606460405162461bcd60e51b815260206004820152601b60248201527f43726564656e7469616c2074797065206e6f7420616c6c6f77656400000000006044820152fd5b50611c216001600160a01b03600f541633149050611c18565b81358581116101aa57602091612376839260243691880101612414565b815201910190611bf5565b610120810190811067ffffffffffffffff82111761184757604052565b60c0810190811067ffffffffffffffff82111761184757604052565b60a0810190811067ffffffffffffffff82111761184757604052565b6040810190811067ffffffffffffffff82111761184757604052565b90601f8019910116810190811067ffffffffffffffff82111761184757604052565b81601f820112156101aa5780359067ffffffffffffffff82116118475760405192612449601f8401601f1916602001856123f2565b828452602083830101116101aa57815f926020809301838601378301015290565b67ffffffffffffffff81116118475760051b60200190565b6024359081151582036101aa57565b600435906001600160a01b03821682036101aa57565b60406003198201126101aa576004359067ffffffffffffffff82116101aa576124d291600401612414565b906024356001600160a01b03811681036101aa5790565b5f5b8381106124fa5750505f910152565b81810151838201526020016124eb565b90600182811c92168015612538575b602083101461252457565b634e487b7160e01b5f52602260045260245ffd5b91607f1691612519565b905f92918054916125528361250a565b9182825260019384811690815f146125b05750600114612573575b50505050565b90919394505f52602092835f2092845f945b83861061259c57505050500101905f80808061256d565b805485870183015294019385908201612585565b9294505050602093945060ff191683830152151560051b0101905f80808061256d565b906020916125ec815180928185528580860191016124e9565b601f01601f1916010190565b60406003198201126101aa576004359067ffffffffffffffff82116101aa5761262391600401612414565b9060243590565b8054821015610545575f5260205f2001905f90565b908082519081815260208091019281808460051b8301019501935f915b84831061266c5750505050505090565b909192939495848061268a600193601f198682030187528a516125d3565b980193019301919493929061265c565b602080820190808352835180925260409283810182858560051b8401019601945f925b8584106126ce575050505050505090565b90919293949596858061277e600193603f198682030188528b5161273761272461271461270484516101208088528701906125d3565b87850151868203898801526125d3565b8a8401518582038c8701526125d3565b60608084015190858303908601526125d3565b916080808301519082015260a0808301519082015260c08083015115159082015260e06001600160a01b03818401511690820152610100809201519181840391015261263f565b9901940194019295949391906126bd565b8054821015610545575f5260205f209060031b01905f90565b9060406003198301126101aa5767ffffffffffffffff6004358181116101aa57836127d591600401612414565b926024359182116101aa576127ec91600401612414565b90565b156127f657565b606460405162461bcd60e51b815260206004820152600a60248201527f4f6e6c79206f776e6572000000000000000000000000000000000000000000006044820152fd5b1561284157565b606460405162461bcd60e51b815260206004820152601460248201527f496e76616c6964206a7572697364696374696f6e0000000000000000000000006044820152fd5b1561288c57565b606460405162461bcd60e51b815260206004820152601760248201527f496e76616c69642063726564656e7469616c20747970650000000000000000006044820152fd5b60025f54146128df5760025f55565b606460405162461bcd60e51b815260206004820152601f60248201527f5265656e7472616e637947756172643a207265656e7472616e742063616c6c006044820152fd5b1561292a57565b606460405162461bcd60e51b815260206004820152601560248201527f4e6f7420617574686f72697a65642069737375657200000000000000000000006044820152fd5b1561297557565b606460405162461bcd60e51b815260206004820152600b60248201527f496e76616c6964204449440000000000000000000000000000000000000000006044820152fd5b156129c057565b606460405162461bcd60e51b815260206004820152601760248201527f496e76616c69642063726564656e7469616c20686173680000000000000000006044820152fd5b919082018092116105d857565b818110612a1c575050565b5f8155600101612a11565b919091825167ffffffffffffffff811161184757612a45825461250a565b601f8111612ae9575b50602080601f8311600114612a895750819293945f92612a7e575b50508160011b915f199060031b1c1916179055565b015190505f80612a69565b90601f19831695845f52825f20925f905b888210612ad157505083600195969710612ab9575b505050811b019055565b01515f1960f88460031b161c191690555f8080612aaf565b80600185968294968601518155019501930190612a9a565b612b1490835f5260205f20601f840160051c81019160208510612b1a575b601f0160051c0190612a11565b5f612a4e565b9091508190612b07565b612b2e815461250a565b9081612b38575050565b81601f5f9311600114612b4a5750555b565b908083918252612b69601f60208420940160051c840160018501612a11565b5555565b5f1981146105d85760010190565b612b93906020604051928284809451938492016124e9565b810103902090565b91612ba8825115156129b9565b604090815190845193602094612bc18185888a016124e9565b830183866001958387809552030190205f878401925b612c1f575b60648888519062461bcd60e51b82526004820152601460248201527f43726564656e7469616c206e6f7420666f756e640000000000000000000000006044820152fd5b8154811015612cfe576002612c47612c37838561278f565b506101fb8a518094819301612542565b8881519101208451842014612c685790612c618692612b6d565b9091612bd7565b91612cee95612cc5896006612ca6612cdb977fe0f2c8af83eafa83d6febe3d54e88deef8002b0172534bd36b7118598accfa459c9d999a9e9761278f565b50019360ff199484868254161790558b51809381928b519283916124e9565b8101600581520301902091825416179055612b7b565b94805193849360608086528501906125d3565b91339084015242908301520390a2565b612bdc565b15612d0a57565b606460405162461bcd60e51b815260206004820152600e60248201527f4e6f7420617574686f72697a65640000000000000000000000000000000000006044820152fd5b15612d5557565b606460405162461bcd60e51b815260206004820152600f60248201527f496e76616c6964206164647265737300000000000000000000000000000000006044820152fd5b80546801000000000000000081101561184757612dbb9160018201815561262a565b91909161225757612b4891612a27565b6040516020810181811067ffffffffffffffff821117611847576040525f815290565b908154612dfa8161246a565b92604093612e0a855191826123f2565b82815280946020809201925f52815f20905f935b858510612e2d57505050505050565b60018481928451612e42816101fb818a612542565b815201930194019391612e1e565b8051156105455760200190565b80518210156105455760209160051b010190565b9060409081519181519060209081840192612e8d8187866124e9565b8501600590818152868460ff988993030190205416612f09579482612eba835198898151938492016124e9565b87019683816001998a81520301902090815491612ed68361246a565b97612ee38551998a6123f2565b8389525f918252858220908a878b015b868510612f8657509450505050505f905b612f14575b505050505050505f90565b8551811015612f815781612f288288612e5d565b5101518381519101208551852014612f4957612f4390612b6d565b86612f04565b9495505050505060c0612f5c8284612e5d565b510151159182612f6b57505090565b60a0925090612f7991612e5d565b510151421090565b612f09565b88885191612f9383612381565b8951612fa3816101fb818a612542565b83528951612fb7816101fb81888b01612542565b828401528951612fce816101fb8160028b01612542565b8a8401528951612fe5816101fb8160038b01612542565b6060840152600486015460808401528486015460a0840152600686015492888416151560c08201526001600160a01b03600894851c1660e082015261302c60078801612dee565b6101008201528152019301930192918b90612ef3565b90815181101561054557016020019056fea2646970667358221220893a006723444cd5958e916c3482a8cc8f924a58d8cc502cea0a059a4b8eacc964736f6c63430008140033",
  "linkReferences": {},
  "deployedLinkReferences": {}
}