{
  "_format": "hh-sol-artifact-1",
  "contractName": "VersionManager",
  "sourceName": "contracts/utility/VersionManager.sol",
  "abi": [
    {
      "inputs": [],
      "stateMutability": "nonpayable",
      "type": "constructor"
    },
    {
      "anonymous": false,
      "inputs": [
        {
          "indexed": true,
          "internalType": "address",
          "name": "writer",
          "type": "address"
        },
        {
          "indexed": false,
          "internalType": "bool",
          "name": "authorized",
          "type": "bool"
        }
      ],
      "name": "AuthorizedWriterUpdated",
      "type": "event"
    },
    {
      "anonymous": false,
      "inputs": [
        {
          "indexed": true,
          "internalType": "string",
          "name": "contractName",
          "type": "string"
        },
        {
          "indexed": false,
          "internalType": "string",
          "name": "version",
          "type": "string"
        }
      ],
      "name": "ContractVersionActivated",
      "type": "event"
    },
    {
      "anonymous": false,
      "inputs": [
        {
          "indexed": true,
          "internalType": "string",
          "name": "contractName",
          "type": "string"
        },
        {
          "indexed": false,
          "internalType": "string",
          "name": "version",
          "type": "string"
        },
        {
          "indexed": false,
          "internalType": "address",
          "name": "contractAddress",
          "type": "address"
        }
      ],
      "name": "ContractVersionRegistered",
      "type": "event"
    },
    {
      "anonymous": false,
      "inputs": [
        {
          "indexed": true,
          "internalType": "string",
          "name": "migrationId",
          "type": "string"
        },
        {
          "indexed": false,
          "internalType": "address",
          "name": "migrationContract",
          "type": "address"
        }
      ],
      "name": "MigrationExecuted",
      "type": "event"
    },
    {
      "anonymous": false,
      "inputs": [
        {
          "indexed": true,
          "internalType": "string",
          "name": "migrationId",
          "type": "string"
        },
        {
          "indexed": false,
          "internalType": "string",
          "name": "fromVersion",
          "type": "string"
        },
        {
          "indexed": false,
          "internalType": "string",
          "name": "toVersion",
          "type": "string"
        }
      ],
      "name": "MigrationPlanCreated",
      "type": "event"
    },
    {
      "inputs": [
        {
          "internalType": "string",
          "name": "contractName",
          "type": "string"
        },
        {
          "internalType": "string",
          "name": "version",
          "type": "string"
        }
      ],
      "name": "activateContractVersion",
      "outputs": [],
      "stateMutability": "nonpayable",
      "type": "function"
    },
    {
      "inputs": [
        {
          "internalType": "address",
          "name": "",
          "type": "address"
        }
      ],
      "name": "authorizedWriters",
      "outputs": [
        {
          "internalType": "bool",
          "name": "",
          "type": "bool"
        }
      ],
      "stateMutability": "view",
      "type": "function"
    },
    {
      "inputs": [
        {
          "internalType": "uint256",
          "name": "",
          "type": "uint256"
        }
      ],
      "name": "contractNames",
      "outputs": [
        {
          "internalType": "string",
          "name": "",
          "type": "string"
        }
      ],
      "stateMutability": "view",
      "type": "function"
    },
    {
      "inputs": [
        {
          "internalType": "string",
          "name": "",
          "type": "string"
        }
      ],
      "name": "contractVersions",
      "outputs": [
        {
          "internalType": "string",
          "name": "version",
          "type": "string"
        },
        {
          "internalType": "address",
          "name": "contractAddress",
          "type": "address"
        },
        {
          "internalType": "uint256",
          "name": "deployedAt",
          "type": "uint256"
        },
        {
          "internalType": "bool",
          "name": "isActive",
          "type": "bool"
        },
        {
          "internalType": "string",
          "name": "description",
          "type": "string"
        }
      ],
      "stateMutability": "view",
      "type": "function"
    },
    {
      "inputs": [
        {
          "internalType": "string",
          "name": "migrationId",
          "type": "string"
        },
        {
          "internalType": "string",
          "name": "fromVersion",
          "type": "string"
        },
        {
          "internalType": "string",
          "name": "toVersion",
          "type": "string"
        },
        {
          "internalType": "address",
          "name": "migrationContract",
          "type": "address"
        },
        {
          "internalType": "string",
          "name": "description",
          "type": "string"
        }
      ],
      "name": "createMigrationPlan",
      "outputs": [],
      "stateMutability": "nonpayable",
      "type": "function"
    },
    {
      "inputs": [
        {
          "internalType": "string",
          "name": "migrationId",
          "type": "string"
        }
      ],
      "name": "executeMigration",
      "outputs": [],
      "stateMutability": "nonpayable",
      "type": "function"
    },
    {
      "inputs": [
        {
          "internalType": "string",
          "name": "contractName",
          "type": "string"
        }
      ],
      "name": "getActiveVersion",
      "outputs": [
        {
          "internalType": "string",
          "name": "version",
          "type": "string"
        },
        {
          "internalType": "address",
          "name": "contractAddress",
          "type": "address"
        }
      ],
      "stateMutability": "view",
      "type": "function"
    },
    {
      "inputs": [],
      "name": "getAllContractNames",
      "outputs": [
        {
          "internalType": "string[]",
          "name": "",
          "type": "string[]"
        }
      ],
      "stateMutability": "view",
      "type": "function"
    },
    {
      "inputs": [],
      "name": "getAllMigrationIds",
      "outputs": [
        {
          "internalType": "string[]",
          "name": "",
          "type": "string[]"
        }
      ],
      "stateMutability": "view",
      "type": "function"
    },
    {
      "inputs": [
        {
          "internalType": "string",
          "name": "contractName",
          "type": "string"
        },
        {
          "internalType": "string",
          "name": "version",
          "type": "string"
        }
      ],
      "name": "getContractVersion",
      "outputs": [
        {
          "components": [
            {
              "internalType": "string",
              "name": "version",
              "type": "string"
            },
            {
              "internalType": "address",
              "name": "contractAddress",
              "type": "address"
            },
            {
              "internalType": "uint256",
              "name": "deployedAt",
              "type": "uint256"
            },
            {
              "internalType": "bool",
              "name": "isActive",
              "type": "bool"
            },
            {
              "internalType": "string",
              "name": "description",
              "type": "string"
            },
            {
              "internalType": "string[]",
              "name": "dependencies",
              "type": "string[]"
            }
          ],
          "internalType": "struct VersionManager.ContractVersion",
          "name": "",
          "type": "tuple"
        }
      ],
      "stateMutability": "view",
      "type": "function"
    },
    {
      "inputs": [
        {
          "internalType": "string",
          "name": "migrationId",
          "type": "string"
        }
      ],
      "name": "getMigrationPlan",
      "outputs": [
        {
          "components": [
            {
              "internalType": "string",
              "name": "fromVersion",
              "type": "string"
            },
            {
              "internalType": "string",
              "name": "toVersion",
              "type": "string"
            },
            {
              "internalType": "address",
              "name": "migrationContract",
              "type": "address"
            },
            {
              "internalType": "uint256",
              "name": "plannedAt",
              "type": "uint256"
            },
            {
              "internalType": "uint256",
              "name": "executedAt",
              "type": "uint256"
            },
            {
              "internalType": "bool",
              "name": "isExecuted",
              "type": "bool"
            },
            {
              "internalType": "string",
              "name": "description",
              "type": "string"
            }
          ],
          "internalType": "struct VersionManager.MigrationPlan",
          "name": "",
          "type": "tuple"
        }
      ],
      "stateMutability": "view",
      "type": "function"
    },
    {
      "inputs": [
        {
          "internalType": "address",
          "name": "writer",
          "type": "address"
        }
      ],
      "name": "isAuthorizedWriter",
      "outputs": [
        {
          "internalType": "bool",
          "name": "",
          "type": "bool"
        }
      ],
      "stateMutability": "view",
      "type": "function"
    },
    {
      "inputs": [
        {
          "internalType": "uint256",
          "name": "",
          "type": "uint256"
        }
      ],
      "name": "migrationIds",
      "outputs": [
        {
          "internalType": "string",
          "name": "",
          "type": "string"
        }
      ],
      "stateMutability": "view",
      "type": "function"
    },
    {
      "inputs": [
        {
          "internalType": "string",
          "name": "",
          "type": "string"
        }
      ],
      "name": "migrationPlans",
      "outputs": [
        {
          "internalType": "string",
          "name": "fromVersion",
          "type": "string"
        },
        {
          "internalType": "string",
          "name": "toVersion",
          "type": "string"
        },
        {
          "internalType": "address",
          "name": "migrationContract",
          "type": "address"
        },
        {
          "internalType": "uint256",
          "name": "plannedAt",
          "type": "uint256"
        },
        {
          "internalType": "uint256",
          "name": "executedAt",
          "type": "uint256"
        },
        {
          "internalType": "bool",
          "name": "isExecuted",
          "type": "bool"
        },
        {
          "internalType": "string",
          "name": "description",
          "type": "string"
        }
      ],
      "stateMutability": "view",
      "type": "function"
    },
    {
      "inputs": [],
      "name": "owner",
      "outputs": [
        {
          "internalType": "address",
          "name": "",
          "type": "address"
        }
      ],
      "stateMutability": "view",
      "type": "function"
    },
    {
      "inputs": [
        {
          "internalType": "string",
          "name": "contractName",
          "type": "string"
        },
        {
          "internalType": "string",
          "name": "version",
          "type": "string"
        },
        {
          "internalType": "address",
          "name": "contractAddress",
          "type": "address"
        },
        {
          "internalType": "string",
          "name": "description",
          "type": "string"
        },
        {
          "internalType": "string[]",
          "name": "dependencies",
          "type": "string[]"
        }
      ],
      "name": "registerContractVersion",
      "outputs": [],
      "stateMutability": "nonpayable",
      "type": "function"
    },
    {
      "inputs": [
        {
          "internalType": "address",
          "name": "writer",
          "type": "address"
        },
        {
          "internalType": "bool",
          "name": "authorized",
          "type": "bool"
        }
      ],
      "name": "setAuthorizedWriter",
      "outputs": [],
      "stateMutability": "nonpayable",
      "type": "function"
    }
  ],
  "bytecode": "0x608080604052346100445760015f81815581546001600160a01b0319163390811783558152600460205260409020805460ff19169091179055611e4790816100498239f35b5f80fdfe60806040526004361015610011575f80fd5b5f3560e01c806307f69d401461163f5780630b09247d146111125780630d46aa16146110545780631a2f2fce14610e6c57806325da976f14610d985780633ca6bb9214610d3a578063526241a814610cfd578063542a086c14610bf3578063562e98d314610b5f5780638da5cb5b14610b39578063950b1f34146109d357806399a5ac51146109135780639be8a18214610780578063ad6e823b14610718578063c871ed6d14610530578063d7a9b816146104985763fe4f0b17146100d4575f80fd5b346104945760a03660031901126104945767ffffffffffffffff60043581811161049457610106903690600401611859565b906024358181116104945761011f903690600401611859565b9160443582811161049457610138903690600401611859565b92606435926001600160a01b0390818516908186036104945760843590811161049457610169903690600401611859565b90335f5261025f6020966004885260ff60405f2054168015610487575b61018f9061197f565b610197611ba8565b6101a86101a2611d9f565b88611ca5565b6101e66040516101b781611734565b600b81527f66726f6d56657273696f6e0000000000000000000000000000000000000000008a82015287611ca5565b6102246040516101f581611734565b600981527f746f56657273696f6e00000000000000000000000000000000000000000000008a8201528a611ca5565b6040519061023182611734565b601182527f6d6967726174696f6e436f6e747261637400000000000000000000000000000089830152611c2b565b61027061026a611a3c565b83611ca5565b6040519260038651948881818a019761028a81838b611813565b810184815203019020015461044357916103635f868860069561036b989761031c8e6103128f610300906040519d8e996102c38b611718565b8a52818a0194855260408a0197885260608a0198428a5260c060808c019b8d8d5260a081019d8e52019d8e52604051938492839251928391611813565b810160038152030190209b518c611a8b565b5160018b01611a8b565b6002890191511673ffffffffffffffffffffffffffffffffffffffff19825416179055516003870155516004860155511515600585019060ff801983541691151516179055565b519101611a8b565b600654916801000000000000000083101561042f57600183018060065583101561041b577f30df233b5b9e430289792f8405e129a8e1fea9eb7c2018163a284a5f2f84079e936103f0826103eb610412946104059760065f527ff652222313e28459528d920b65115c16c04f3efc82aaedc97be59f3f377c0d3f01611a8b565b611b88565b95604051948594604086526040860190611834565b9184830390850152611834565b0390a260015f55005b634e487b7160e01b5f52603260045260245ffd5b634e487b7160e01b5f52604160045260245ffd5b6064876040519062461bcd60e51b82526004820152601d60248201527f4d6967726174696f6e20706c616e20616c7265616479206578697374730000006044820152fd5b5060015485163314610186565b5f80fd5b34610494575f366003190112610494576005546104b4816118c5565b906104c26040519283611750565b80825260209081830160055f527f036b6384b5eca791c62761152d0c79bb0604c104a5fb6f4eb0703f3154bb3db0835f925b848410610512576040518281528061050e8185018a611924565b0390f35b600191829161052085611772565b81520192019201919084906104f4565b34610494576105e56020610543366118dd565b606060a0604051610553816116fc565b8281525f868201525f60408201525f83820152826080820152015261057961026a6119ca565b61058a610584611a03565b82611ca5565b6105d460216040518093866105a88184019788815193849201611813565b8201602d60f81b888201526105c5825180938a8785019101611813565b01036001810184520182611750565b604051938492839251928391611813565b810160028152030190206040516105fb816116fc565b61060482611772565b81526001600160a01b0360018301541660208201526002820154604082015260ff6003830154161515606082015261063e60048301611772565b60808201526005820154610651816118c5565b9261065f6040519485611750565b81845260056020850191015f5260205f205f915b8383106106fb57858560a0810191825261050e604051928392602084526106ea60806106ab835160c0602089015260e0880190611834565b926001600160a01b036020820151166040880152604081015160608801526060810151151582880152015191601f1992838783030160a0880152611834565b9151908483030160c0850152611924565b60016020819261070a85611772565b815201920192019190610673565b346104945760203660031901126104945760206107336118af565b61074461073e611dd8565b82611c2b565b6001600160a01b03809116805f526004835260ff60405f205416918215610772575b50506040519015158152f35b600154161490508280610766565b34610494576020806003193601126104945760043567ffffffffffffffff8111610494576107b2903690600401611859565b90335f526004815260ff60405f20541680156108fa575b6107d29061197f565b6107da611ba8565b6107e561026a611d9f565b604051818184516107f98183858901611813565b810160038152030190206003810154156108b65760058101805460ff81166108725742600484015560ff19166001179055600201546001600160a01b0316917f0f6979832d657438d1f5600808d6bc2e579053d5d3872c25055036e1a82b7154919061086490611b88565b92604051908152a260015f55005b6064846040519062461bcd60e51b82526004820152601a60248201527f4d6967726174696f6e20616c72656164792065786563757465640000000000006044820152fd5b6064826040519062461bcd60e51b82526004820152601860248201527f4d6967726174696f6e20706c616e206e6f7420666f756e6400000000000000006044820152fd5b506107d26001600160a01b0360015416331490506107c9565b346104945760203660031901126104945760043567ffffffffffffffff81116104945761095f602061094c6109b4933690600401611859565b8160405193828580945193849201611813565b8101600281520301902061050e61097582611772565b916001600160a01b036001820154169060028101549061099f600460ff6003840154169201611772565b9160405196879660a0885260a0880190611834565b9360208701526040860152151560608501528382036080850152611834565b3461049457602080600319360112610494576004359067ffffffffffffffff82116104945761050e60c0610a4e83610a1160e0963690600401611859565b604051610a1d81611718565b606094818680935282858201525f60408201525f838201525f60808201525f60a0820152015261094c610584611d9f565b81016003815203019020604051610a6481611718565b610a6d82611772565b8152610a7b60018301611772565b918582019283526001600160a01b0380600283015416946040840195865260038301549080850191825260048401549260808601938452610b0e610af8610ad5600660ff60058a0154169860a08b019915158a5201611772565b9760c081019889526040519d8d8f9e928f938452519201526101008d0190611834565b9751601f198c8a03810160408e01529890611834565b975116908901525160808801525160a087015251151560c086015251908483030160e0850152611834565b34610494575f3660031901126104945760206001600160a01b0360015416604051908152f35b34610494575f36600319011261049457600654610b7b816118c5565b90610b896040519283611750565b80825260209081830160065f527ff652222313e28459528d920b65115c16c04f3efc82aaedc97be59f3f377c0d3f835f925b848410610bd5576040518281528061050e8185018a611924565b6001918291610be385611772565b8152019201920191908490610bbb565b3461049457604036600319011261049457610c0c6118af565b60243590811515808303610494576001600160a01b039081600154163303610c9357610c866020927e8ebc621f24e0e9d1fd4ee2f7df9bb80c8d61ee30a9167a4fee6cefcf8c021e94610c5d611ba8565b610c6861073e611dd8565b1694855f526004845260405f209060ff801983541691151516179055565b604051908152a260015f55005b608460405162461bcd60e51b815260206004820152602160248201527f4f6e6c79206f776e65722063616e2063616c6c20746869732066756e6374696f60448201527f6e000000000000000000000000000000000000000000000000000000000000006064820152fd5b34610494576020366003190112610494576001600160a01b03610d1e6118af565b165f526004602052602060ff60405f2054166040519015158152f35b346104945760203660031901126104945760043560055481101561049457610d619061168f565b610d8557610d7161050e91611772565b604051918291602083526020830190611834565b634e487b7160e01b5f525f60045260245ffd5b346104945760203660031901126104945760043567ffffffffffffffff811161049457610dd1602061094c610e3a933690600401611859565b8101600381520301902061050e610de782611772565b91610df460018201611772565b6001600160a01b03600283015416916003810154600482015490610e48610e25600660ff6005870154169501611772565b94604051998a9960e08b5260e08b0190611834565b9089820360208b0152611834565b94604088015260608701526080860152151560a085015283820360c0850152611834565b3461049457610e7a366118dd565b90335f526020916004835260ff60405f205416801561103b575b610e9d9061197f565b610ea5611ba8565b610eb061026a6119ca565b610ebb610584611a03565b60405191610efc848085018351956105d460218285880199610ede81878d611813565b8101602d60f81b878201528951906105c5828c8a8785019101611813565b810160028152030190206001600160a01b0360018201541615610ff757600301805460ff8116610fb357600554945f5b868110610f7f575b60ff1983166001178455877ffcf1e224cb57e814917148532340a11fa5b863d52142b8afcdc16f15c1c6952487610f6a88611b88565b92610412604051928284938452830190611834565b610f91610f8b8261168f565b50611772565b8881519101208551832014610fae57610fa990611d7d565b610f2c565b610f34565b6064866040519062461bcd60e51b82526004820152601660248201527f56657273696f6e20616c726561647920616374697665000000000000000000006044820152fd5b6064856040519062461bcd60e51b82526004820152601160248201527f56657273696f6e206e6f7420666f756e640000000000000000000000000000006044820152fd5b50610e9d6001600160a01b036001541633149050610e94565b34610494576020806003193601126104945767ffffffffffffffff9060043582811161049457611088903690600401611859565b9061109461026a6119ca565b600554918181015f5b8481106110e4575b505050905060405190808201928284109084111761042f576110dc926040525f82525f604051938493604085526040850190611834565b918301520390f35b6110f0610f8b8261168f565b848151910120835183201461110d5761110890611d7d565b61109d565b6110a5565b346104945760a03660031901126104945760043567ffffffffffffffff811161049457611143903690600401611859565b60243567ffffffffffffffff811161049457611163903690600401611859565b906001600160a01b0360443516604435036104945760643567ffffffffffffffff811161049457611198903690600401611859565b67ffffffffffffffff60843511610494573660236084350112156104945760843560040135906111c7826118c5565b916111d56040519384611750565b80835260208301903660248260051b60843501011161049457602460843501915b60248260051b6084350101831061160b57505050335f52600460205260ff60405f20541680156115f2575b61122a9061197f565b611232611ba8565b61124361123d6119ca565b84611ca5565b61125461124e611a03565b85611ca5565b61129560405161126381611734565b600f81527f636f6e74726163744164647265737300000000000000000000000000000000006020820152604435611c2b565b6112a0610584611a3c565b6001600160a01b03600160405160208187516112bf8183858c01611813565b6002818301528101030190200154161591604051602081019261131d60218388516112ee818960208d01611813565b8101602d60f81b60208201528a519061130e828d60208785019101611813565b01036001810185520183611750565b6001600160a01b036001604051602081865161133a81838c611813565b810160028152030190200154166115ae57611406611410926040519561135f876116fc565b898752602087016001600160a01b036044351681526113bd6113ab602060408b019442865260608c01965f885260808d01998a5260a08d019b8c52604051938492839251928391611813565b81016002815203019020985189611a8b565b6001600160a01b036001890191511673ffffffffffffffffffffffffffffffffffffffff19825416179055516002870155511515600386019060ff801983541691151516179055565b5160048401611a8b565b519081519168010000000000000000831161042f576005820154836005840155808410611539575b5060206005910191015f5260205f205f915b83831061151c57505050506114b6575b61149c6114877f9694a68880b41c3079e405ebbea54e32bba66cc6b6a89796eade13ccf6b4d1d092611b88565b92604051918291604083526040830190611834565b6001600160a01b036044351660208301520390a260015f55005b6005546801000000000000000081101561042f578060016114da920160055561168f565b919091610d85576114878161151361149c937f9694a68880b41c3079e405ebbea54e32bba66cc6b6a89796eade13ccf6b4d1d095611a8b565b9250505061145a565b600160208261152d83945186611a8b565b0192019201919061144a565b600583015f5260205f20908482015b8183018110611558575050611438565b80611565600192546116c4565b80611572575b5001611548565b601f90818111841461158a5750505f81555b8a61156b565b6115a55f9284845260208420920160051c8201858301611a75565b81835555611584565b606460405162461bcd60e51b815260206004820152601660248201527f56657273696f6e20616c726561647920657869737473000000000000000000006044820152fd5b5061122a6001600160a01b036001541633149050611221565b67ffffffffffffffff83351161049457602080602492611632368588356084350101611859565b81520193019290506111f6565b346104945760203660031901126104945760043560065481101561049457610d7161050e9160065f527ff652222313e28459528d920b65115c16c04f3efc82aaedc97be59f3f377c0d3f01611772565b60055481101561041b5760055f527f036b6384b5eca791c62761152d0c79bb0604c104a5fb6f4eb0703f3154bb3db001905f90565b90600182811c921680156116f2575b60208310146116de57565b634e487b7160e01b5f52602260045260245ffd5b91607f16916116d3565b60c0810190811067ffffffffffffffff82111761042f57604052565b60e0810190811067ffffffffffffffff82111761042f57604052565b6040810190811067ffffffffffffffff82111761042f57604052565b90601f8019910116810190811067ffffffffffffffff82111761042f57604052565b9060405191825f825492611785846116c4565b9081845260019485811690815f146117f057506001146117b0575b50506117ae92500383611750565b565b909391505f52602090815f20935f915b8183106117d85750506117ae93508201015f806117a0565b855488840185015294850194879450918301916117c0565b9150506117ae94506020925060ff191682840152151560051b8201015f806117a0565b5f5b8381106118245750505f910152565b8181015183820152602001611815565b9060209161184d81518092818552858086019101611813565b601f01601f1916010190565b81601f820112156104945780359067ffffffffffffffff821161042f576040519261188e601f8401601f191660200185611750565b8284526020838301011161049457815f926020809301838601378301015290565b600435906001600160a01b038216820361049457565b67ffffffffffffffff811161042f5760051b60200190565b9060406003198301126104945767ffffffffffffffff600435818111610494578361190a91600401611859565b926024359182116104945761192191600401611859565b90565b908082519081815260208091019281808460051b8301019501935f915b8483106119515750505050505090565b909192939495848061196f600193601f198682030187528a51611834565b9801930193019194939290611941565b1561198657565b606460405162461bcd60e51b815260206004820152601760248201527f4e6f7420617574686f72697a656420746f2077726974650000000000000000006044820152fd5b604051906119d782611734565b600c82527f636f6e74726163744e616d6500000000000000000000000000000000000000006020830152565b60405190611a1082611734565b600782527f76657273696f6e000000000000000000000000000000000000000000000000006020830152565b60405190611a4982611734565b600b82527f6465736372697074696f6e0000000000000000000000000000000000000000006020830152565b818110611a80575050565b5f8155600101611a75565b919091825167ffffffffffffffff811161042f57611aa982546116c4565b601f8111611b4d575b50602080601f8311600114611aed5750819293945f92611ae2575b50508160011b915f199060031b1c1916179055565b015190505f80611acd565b90601f19831695845f52825f20925f905b888210611b3557505083600195969710611b1d575b505050811b019055565b01515f1960f88460031b161c191690555f8080611b13565b80600185968294968601518155019501930190611afe565b611b7890835f5260205f20601f840160051c81019160208510611b7e575b601f0160051c0190611a75565b5f611ab2565b9091508190611b6b565b611ba090602060405192828480945193849201611813565b810103902090565b60025f5414611bb75760025f55565b606460405162461bcd60e51b815260206004820152601f60248201527f5265656e7472616e637947756172643a207265656e7472616e742063616c6c006044820152fd5b15611c035750565b611c279060405191829162461bcd60e51b8352602060048401526024830190611834565b0390fd5b906001600160a01b036117ae92611c9d6036604051809567024b73b30b634b2160c51b6020830152611c67815180926020602886019101611813565b81017f3a207a65726f20616464726573730000000000000000000000000000000000006028820152036016810186520184611750565b161515611bfb565b906020611d2360396117ae946101008151151591611d2860405167024b73b30b634b2160c51b948589830152611d236036838c611ced81519d8e92019d8e6028850190611813565b81017f3a20656d70747920737472696e670000000000000000000000000000000000006028820152036016810185520183611750565b611bfb565b51111593611d4760405196879360208501525180926028850190611813565b81017f3a20737472696e6720746f6f206c6f6e670000000000000000000000000000006028820152036019810185520183611750565b5f198114611d8b5760010190565b634e487b7160e01b5f52601160045260245ffd5b60405190611dac82611734565b600b82527f6d6967726174696f6e49640000000000000000000000000000000000000000006020830152565b60405190611de582611734565b600682527f7772697465720000000000000000000000000000000000000000000000000000602083015256fea2646970667358221220f498196f0116092fb3b58c4c1b69484ecd4975f1aa18cdfc50dadef05bef9a1164736f6c63430008140033",
  "linkReferences": {},
  "deployedLinkReferences": {}
}