{
  "_format": "hh-sol-artifact-1",
  "contractName": "VersionManager",
  "sourceName": "contracts/utility/VersionManager.sol",
  "abi": [
    {
      "inputs": [],
      "stateMutability": "nonpayable",
      "type": "constructor"
    },
    {
      "anonymous": false,
      "inputs": [
        {
          "indexed": true,
          "internalType": "address",
          "name": "writer",
          "type": "address"
        },
        {
          "indexed": false,
          "internalType": "bool",
          "name": "authorized",
          "type": "bool"
        }
      ],
      "name": "AuthorizedWriterUpdated",
      "type": "event"
    },
    {
      "anonymous": false,
      "inputs": [
        {
          "indexed": true,
          "internalType": "string",
          "name": "contractName",
          "type": "string"
        },
        {
          "indexed": false,
          "internalType": "string",
          "name": "version",
          "type": "string"
        }
      ],
      "name": "ContractVersionActivated",
      "type": "event"
    },
    {
      "anonymous": false,
      "inputs": [
        {
          "indexed": true,
          "internalType": "string",
          "name": "contractName",
          "type": "string"
        },
        {
          "indexed": false,
          "internalType": "string",
          "name": "version",
          "type": "string"
        },
        {
          "indexed": false,
          "internalType": "address",
          "name": "contractAddress",
          "type": "address"
        }
      ],
      "name": "ContractVersionRegistered",
      "type": "event"
    },
    {
      "anonymous": false,
      "inputs": [
        {
          "indexed": true,
          "internalType": "string",
          "name": "migrationId",
          "type": "string"
        },
        {
          "indexed": false,
          "internalType": "address",
          "name": "migrationContract",
          "type": "address"
        }
      ],
      "name": "MigrationExecuted",
      "type": "event"
    },
    {
      "anonymous": false,
      "inputs": [
        {
          "indexed": true,
          "internalType": "string",
          "name": "migrationId",
          "type": "string"
        },
        {
          "indexed": false,
          "internalType": "string",
          "name": "fromVersion",
          "type": "string"
        },
        {
          "indexed": false,
          "internalType": "string",
          "name": "toVersion",
          "type": "string"
        }
      ],
      "name": "MigrationPlanCreated",
      "type": "event"
    },
    {
      "inputs": [
        {
          "internalType": "string",
          "name": "contractName",
          "type": "string"
        },
        {
          "internalType": "string",
          "name": "version",
          "type": "string"
        }
      ],
      "name": "activateContractVersion",
      "outputs": [],
      "stateMutability": "nonpayable",
      "type": "function"
    },
    {
      "inputs": [
        {
          "internalType": "address",
          "name": "",
          "type": "address"
        }
      ],
      "name": "authorizedWriters",
      "outputs": [
        {
          "internalType": "bool",
          "name": "",
          "type": "bool"
        }
      ],
      "stateMutability": "view",
      "type": "function"
    },
    {
      "inputs": [
        {
          "internalType": "uint256",
          "name": "",
          "type": "uint256"
        }
      ],
      "name": "contractNames",
      "outputs": [
        {
          "internalType": "string",
          "name": "",
          "type": "string"
        }
      ],
      "stateMutability": "view",
      "type": "function"
    },
    {
      "inputs": [
        {
          "internalType": "string",
          "name": "",
          "type": "string"
        }
      ],
      "name": "contractVersions",
      "outputs": [
        {
          "internalType": "string",
          "name": "version",
          "type": "string"
        },
        {
          "internalType": "address",
          "name": "contractAddress",
          "type": "address"
        },
        {
          "internalType": "uint256",
          "name": "deployedAt",
          "type": "uint256"
        },
        {
          "internalType": "bool",
          "name": "isActive",
          "type": "bool"
        },
        {
          "internalType": "string",
          "name": "description",
          "type": "string"
        }
      ],
      "stateMutability": "view",
      "type": "function"
    },
    {
      "inputs": [
        {
          "internalType": "string",
          "name": "migrationId",
          "type": "string"
        },
        {
          "internalType": "string",
          "name": "fromVersion",
          "type": "string"
        },
        {
          "internalType": "string",
          "name": "toVersion",
          "type": "string"
        },
        {
          "internalType": "address",
          "name": "migrationContract",
          "type": "address"
        },
        {
          "internalType": "string",
          "name": "description",
          "type": "string"
        }
      ],
      "name": "createMigrationPlan",
      "outputs": [],
      "stateMutability": "nonpayable",
      "type": "function"
    },
    {
      "inputs": [
        {
          "internalType": "string",
          "name": "migrationId",
          "type": "string"
        }
      ],
      "name": "executeMigration",
      "outputs": [],
      "stateMutability": "nonpayable",
      "type": "function"
    },
    {
      "inputs": [
        {
          "internalType": "string",
          "name": "contractName",
          "type": "string"
        }
      ],
      "name": "getActiveVersion",
      "outputs": [
        {
          "internalType": "string",
          "name": "version",
          "type": "string"
        },
        {
          "internalType": "address",
          "name": "contractAddress",
          "type": "address"
        }
      ],
      "stateMutability": "view",
      "type": "function"
    },
    {
      "inputs": [],
      "name": "getAllContractNames",
      "outputs": [
        {
          "internalType": "string[]",
          "name": "",
          "type": "string[]"
        }
      ],
      "stateMutability": "view",
      "type": "function"
    },
    {
      "inputs": [],
      "name": "getAllMigrationIds",
      "outputs": [
        {
          "internalType": "string[]",
          "name": "",
          "type": "string[]"
        }
      ],
      "stateMutability": "view",
      "type": "function"
    },
    {
      "inputs": [
        {
          "internalType": "string",
          "name": "contractName",
          "type": "string"
        },
        {
          "internalType": "string",
          "name": "version",
          "type": "string"
        }
      ],
      "name": "getContractVersion",
      "outputs": [
        {
          "components": [
            {
              "internalType": "string",
              "name": "version",
              "type": "string"
            },
            {
              "internalType": "address",
              "name": "contractAddress",
              "type": "address"
            },
            {
              "internalType": "uint256",
              "name": "deployedAt",
              "type": "uint256"
            },
            {
              "internalType": "bool",
              "name": "isActive",
              "type": "bool"
            },
            {
              "internalType": "string",
              "name": "description",
              "type": "string"
            },
            {
              "internalType": "string[]",
              "name": "dependencies",
              "type": "string[]"
            }
          ],
          "internalType": "struct VersionManager.ContractVersion",
          "name": "",
          "type": "tuple"
        }
      ],
      "stateMutability": "view",
      "type": "function"
    },
    {
      "inputs": [
        {
          "internalType": "string",
          "name": "migrationId",
          "type": "string"
        }
      ],
      "name": "getMigrationPlan",
      "outputs": [
        {
          "components": [
            {
              "internalType": "string",
              "name": "fromVersion",
              "type": "string"
            },
            {
              "internalType": "string",
              "name": "toVersion",
              "type": "string"
            },
            {
              "internalType": "address",
              "name": "migrationContract",
              "type": "address"
            },
            {
              "internalType": "uint256",
              "name": "plannedAt",
              "type": "uint256"
            },
            {
              "internalType": "uint256",
              "name": "executedAt",
              "type": "uint256"
            },
            {
              "internalType": "bool",
              "name": "isExecuted",
              "type": "bool"
            },
            {
              "internalType": "string",
              "name": "description",
              "type": "string"
            }
          ],
          "internalType": "struct VersionManager.MigrationPlan",
          "name": "",
          "type": "tuple"
        }
      ],
      "stateMutability": "view",
      "type": "function"
    },
    {
      "inputs": [
        {
          "internalType": "address",
          "name": "writer",
          "type": "address"
        }
      ],
      "name": "isAuthorizedWriter",
      "outputs": [
        {
          "internalType": "bool",
          "name": "",
          "type": "bool"
        }
      ],
      "stateMutability": "view",
      "type": "function"
    },
    {
      "inputs": [
        {
          "internalType": "uint256",
          "name": "",
          "type": "uint256"
        }
      ],
      "name": "migrationIds",
      "outputs": [
        {
          "internalType": "string",
          "name": "",
          "type": "string"
        }
      ],
      "stateMutability": "view",
      "type": "function"
    },
    {
      "inputs": [
        {
          "internalType": "string",
          "name": "",
          "type": "string"
        }
      ],
      "name": "migrationPlans",
      "outputs": [
        {
          "internalType": "string",
          "name": "fromVersion",
          "type": "string"
        },
        {
          "internalType": "string",
          "name": "toVersion",
          "type": "string"
        },
        {
          "internalType": "address",
          "name": "migrationContract",
          "type": "address"
        },
        {
          "internalType": "uint256",
          "name": "plannedAt",
          "type": "uint256"
        },
        {
          "internalType": "uint256",
          "name": "executedAt",
          "type": "uint256"
        },
        {
          "internalType": "bool",
          "name": "isExecuted",
          "type": "bool"
        },
        {
          "internalType": "string",
          "name": "description",
          "type": "string"
        }
      ],
      "stateMutability": "view",
      "type": "function"
    },
    {
      "inputs": [],
      "name": "owner",
      "outputs": [
        {
          "internalType": "address",
          "name": "",
          "type": "address"
        }
      ],
      "stateMutability": "view",
      "type": "function"
    },
    {
      "inputs": [
        {
          "internalType": "string",
          "name": "contractName",
          "type": "string"
        },
        {
          "internalType": "string",
          "name": "version",
          "type": "string"
        },
        {
          "internalType": "address",
          "name": "contractAddress",
          "type": "address"
        },
        {
          "internalType": "string",
          "name": "description",
          "type": "string"
        },
        {
          "internalType": "string[]",
          "name": "dependencies",
          "type": "string[]"
        }
      ],
      "name": "registerContractVersion",
      "outputs": [],
      "stateMutability": "nonpayable",
      "type": "function"
    },
    {
      "inputs": [
        {
          "internalType": "address",
          "name": "writer",
          "type": "address"
        },
        {
          "internalType": "bool",
          "name": "authorized",
          "type": "bool"
        }
      ],
      "name": "setAuthorizedWriter",
      "outputs": [],
      "stateMutability": "nonpayable",
      "type": "function"
    }
  ],
  "bytecode": "0x60808060405234610045576001600081815581546001600160a01b0319163390811783558152600460205260409020805460ff19169091179055611e9f908161004b8239f35b600080fdfe6080604052600436101561001257600080fd5b60003560e01c806307f69d401461167b5780630b09247d146111435780630d46aa16146110825780631a2f2fce14610e9757806325da976f14610dc35780633ca6bb9214610d62578063526241a814610d23578063542a086c14610c16578063562e98d314610b7f5780638da5cb5b14610b58578063950b1f34146109ee57806399a5ac511461092e5780639be8a18214610798578063ad6e823b1461072e578063c871ed6d14610540578063d7a9b816146104a55763fe4f0b17146100d757600080fd5b346104a05760a03660031901126104a05767ffffffffffffffff6004358181116104a0576101099036906004016118a1565b906024358181116104a0576101229036906004016118a1565b916044358281116104a05761013b9036906004016118a1565b92606435926001600160a01b0390818516908186036104a0576084359081116104a05761016c9036906004016118a1565b90336000526102646020966004885260ff604060002054168015610493575b610194906119c9565b61019c611bfb565b6101ad6101a7611df7565b88611cfa565b6101eb6040516101bc81611775565b600b81527f66726f6d56657273696f6e0000000000000000000000000000000000000000008a82015287611cfa565b6102296040516101fa81611775565b600981527f746f56657273696f6e00000000000000000000000000000000000000000000008a8201528a611cfa565b6040519061023682611775565b601182527f6d6967726174696f6e436f6e747261637400000000000000000000000000000089830152611c80565b61027561026f611a86565b83611cfa565b6040519260038651948881818a019761028f81838b611859565b810184815203019020015461044f57916103696000868860069561037198976103228e6103188f610306906040519d8e996102c98b611759565b8a52818a0194855260408a0197885260608a0198428a5260c060808c019b8d8d5260a081019d8e52019d8e52604051938492839251928391611859565b810160038152030190209b518c611ad6565b5160018b01611ad6565b6002890191511673ffffffffffffffffffffffffffffffffffffffff19825416179055516003870155516004860155511515600585019060ff801983541691151516179055565b519101611ad6565b6006549168010000000000000000831015610439576001830180600655831015610423577f30df233b5b9e430289792f8405e129a8e1fea9eb7c2018163a284a5f2f84079e936103f7826103f26104199461040c9760066000527ff652222313e28459528d920b65115c16c04f3efc82aaedc97be59f3f377c0d3f01611ad6565b611bdb565b9560405194859460408652604086019061187c565b918483039085015261187c565b0390a26001600055005b634e487b7160e01b600052603260045260246000fd5b634e487b7160e01b600052604160045260246000fd5b6064876040519062461bcd60e51b82526004820152601d60248201527f4d6967726174696f6e20706c616e20616c7265616479206578697374730000006044820152fd5b506001548516331461018b565b600080fd5b346104a05760003660031901126104a0576005546104c28161190e565b906104d06040519283611791565b80825260209081830160056000527f036b6384b5eca791c62761152d0c79bb0604c104a5fb6f4eb0703f3154bb3db0836000925b848410610522576040518281528061051e8185018a61196d565b0390f35b6001918291610530856117b3565b8152019201920191908490610504565b346104a0576105f8602061055336611926565b606060a06040516105638161173d565b82815260008682015260006040820152600083820152826080820152015261058c61026f611a14565b61059d610597611a4d565b82611cfa565b6105e760216040518093866105bb8184019788815193849201611859565b8201602d60f81b888201526105d8825180938a8785019101611859565b01036001810184520182611791565b604051938492839251928391611859565b8101600281520301902060405161060e8161173d565b610617826117b3565b81526001600160a01b0360018301541660208201526002820154604082015260ff60038301541615156060820152610651600483016117b3565b608082015260058201546106648161190e565b926106726040519485611791565b818452600560208501910160005260206000206000915b83831061071157858560a0810191825261051e6040519283926020845261070060806106c1835160c0602089015260e088019061187c565b926001600160a01b036020820151166040880152604081015160608801526060810151151582880152015191601f1992838783030160a088015261187c565b9151908483030160c085015261196d565b600160208192610720856117b3565b815201920192019190610689565b346104a05760203660031901126104a05760206107496118f8565b61075a610754611e30565b82611c80565b6001600160a01b03809116806000526004835260ff6040600020541691821561078a575b50506040519015158152f35b60015416149050828061077e565b346104a0576020806003193601126104a05760043567ffffffffffffffff81116104a0576107ca9036906004016118a1565b90336000526004815260ff604060002054168015610915575b6107ec906119c9565b6107f4611bfb565b6107ff61026f611df7565b604051818184516108138183858901611859565b810160038152030190206003810154156108d15760058101805460ff811661088d5742600484015560ff19166001179055600201546001600160a01b0316917f0f6979832d657438d1f5600808d6bc2e579053d5d3872c25055036e1a82b7154919061087e90611bdb565b92604051908152a26001600055005b6064846040519062461bcd60e51b82526004820152601a60248201527f4d6967726174696f6e20616c72656164792065786563757465640000000000006044820152fd5b6064826040519062461bcd60e51b82526004820152601860248201527f4d6967726174696f6e20706c616e206e6f7420666f756e6400000000000000006044820152fd5b506107ec6001600160a01b0360015416331490506107e3565b346104a05760203660031901126104a05760043567ffffffffffffffff81116104a05761097a60206109676109cf9336906004016118a1565b8160405193828580945193849201611859565b8101600281520301902061051e610990826117b3565b916001600160a01b03600182015416906002810154906109ba600460ff60038401541692016117b3565b9160405196879660a0885260a088019061187c565b936020870152604086015215156060850152838203608085015261187c565b346104a0576020806003193601126104a0576004359067ffffffffffffffff82116104a05761051e60c0610a6d83610a2c60e09636906004016118a1565b604051610a3881611759565b606094818680935282858201526000604082015260008382015260006080820152600060a08201520152610967610597611df7565b81016003815203019020604051610a8381611759565b610a8c826117b3565b8152610a9a600183016117b3565b918582019283526001600160a01b0380600283015416946040840195865260038301549080850191825260048401549260808601938452610b2d610b17610af4600660ff60058a0154169860a08b019915158a52016117b3565b9760c081019889526040519d8d8f9e928f938452519201526101008d019061187c565b9751601f198c8a03810160408e0152989061187c565b975116908901525160808801525160a087015251151560c086015251908483030160e085015261187c565b346104a05760003660031901126104a05760206001600160a01b0360015416604051908152f35b346104a05760003660031901126104a057600654610b9c8161190e565b90610baa6040519283611791565b80825260209081830160066000527ff652222313e28459528d920b65115c16c04f3efc82aaedc97be59f3f377c0d3f836000925b848410610bf8576040518281528061051e8185018a61196d565b6001918291610c06856117b3565b8152019201920191908490610bde565b346104a05760403660031901126104a057610c2f6118f8565b602435908115158083036104a0576001600160a01b039081600154163303610cb957610cab6020927e8ebc621f24e0e9d1fd4ee2f7df9bb80c8d61ee30a9167a4fee6cefcf8c021e94610c80611bfb565b610c8b610754611e30565b1694856000526004845260406000209060ff801983541691151516179055565b604051908152a26001600055005b608460405162461bcd60e51b815260206004820152602160248201527f4f6e6c79206f776e65722063616e2063616c6c20746869732066756e6374696f60448201527f6e000000000000000000000000000000000000000000000000000000000000006064820152fd5b346104a05760203660031901126104a0576001600160a01b03610d446118f8565b166000526004602052602060ff604060002054166040519015158152f35b346104a05760203660031901126104a0576004356005548110156104a057610d89906116cc565b610dad57610d9961051e916117b3565b60405191829160208352602083019061187c565b634e487b7160e01b600052600060045260246000fd5b346104a05760203660031901126104a05760043567ffffffffffffffff81116104a057610dfc6020610967610e659336906004016118a1565b8101600381520301902061051e610e12826117b3565b91610e1f600182016117b3565b6001600160a01b03600283015416916003810154600482015490610e73610e50600660ff60058701541695016117b3565b94604051998a9960e08b5260e08b019061187c565b9089820360208b015261187c565b94604088015260608701526080860152151560a085015283820360c085015261187c565b346104a057610ea536611926565b90336000526020916004835260ff604060002054168015611069575b610eca906119c9565b610ed2611bfb565b610edd61026f611a14565b610ee8610597611a4d565b60405191610f29848085018351956105e760218285880199610f0b81878d611859565b8101602d60f81b878201528951906105d8828c8a8785019101611859565b810160028152030190206001600160a01b036001820154161561102557600301805460ff8116610fe1576005549460005b868110610fad575b60ff1983166001178455877ffcf1e224cb57e814917148532340a11fa5b863d52142b8afcdc16f15c1c6952487610f9888611bdb565b9261041960405192828493845283019061187c565b610fbf610fb9826116cc565b506117b3565b8881519101208551832014610fdc57610fd790611dd2565b610f5a565b610f62565b6064866040519062461bcd60e51b82526004820152601660248201527f56657273696f6e20616c726561647920616374697665000000000000000000006044820152fd5b6064856040519062461bcd60e51b82526004820152601160248201527f56657273696f6e206e6f7420666f756e640000000000000000000000000000006044820152fd5b50610eca6001600160a01b036001541633149050610ec1565b346104a0576020806003193601126104a05767ffffffffffffffff906004358281116104a0576110b69036906004016118a1565b906110c261026f611a14565b6005549181810160005b848110611115575b50505090506040519080820192828410908411176104395761110d9260405260008252600060405193849360408552604085019061187c565b918301520390f35b611121610fb9826116cc565b848151910120835183201461113e5761113990611dd2565b6110cc565b6110d4565b346104a05760a03660031901126104a05760043567ffffffffffffffff81116104a0576111749036906004016118a1565b60243567ffffffffffffffff81116104a0576111949036906004016118a1565b906001600160a01b0360443516604435036104a05760643567ffffffffffffffff81116104a0576111c99036906004016118a1565b67ffffffffffffffff608435116104a0573660236084350112156104a05760843560040135906111f88261190e565b916112066040519384611791565b80835260208301903660248260051b6084350101116104a057602460843501915b60248260051b608435010183106116475750505033600052600460205260ff60406000205416801561162e575b61125d906119c9565b611265611bfb565b611276611270611a14565b84611cfa565b611287611281611a4d565b85611cfa565b6112c860405161129681611775565b600f81527f636f6e74726163744164647265737300000000000000000000000000000000006020820152604435611c80565b6112d3610597611a86565b6001600160a01b03600160405160208187516112f28183858c01611859565b600281830152810103019020015416159160405160208101926113506021838851611321818960208d01611859565b8101602d60f81b60208201528a5190611341828d60208785019101611859565b01036001810185520183611791565b6001600160a01b036001604051602081865161136d81838c611859565b810160028152030190200154166115ea5761143a61144492604051956113928761173d565b898752602087016001600160a01b036044351681526113f16113df602060408b019442865260608c01966000885260808d01998a5260a08d019b8c52604051938492839251928391611859565b81016002815203019020985189611ad6565b6001600160a01b036001890191511673ffffffffffffffffffffffffffffffffffffffff19825416179055516002870155511515600386019060ff801983541691151516179055565b5160048401611ad6565b5190815191680100000000000000008311610439576005820154836005840155808410611571575b50602060059101910160005260206000206000915b83831061155457505050506114ee575b6114d36114be7f9694a68880b41c3079e405ebbea54e32bba66cc6b6a89796eade13ccf6b4d1d092611bdb565b9260405191829160408352604083019061187c565b6001600160a01b036044351660208301520390a26001600055005b600554680100000000000000008110156104395780600161151292016005556116cc565b919091610dad576114be8161154b6114d3937f9694a68880b41c3079e405ebbea54e32bba66cc6b6a89796eade13ccf6b4d1d095611ad6565b92505050611491565b600160208261156583945186611ad6565b01920192019190611481565b600583016000526020600020908482015b818301811061159257505061146c565b8061159f60019254611703565b806115ac575b5001611582565b601f9081811184146115c5575050600081555b8a6115a5565b6115e160009284845260208420920160051c8201858301611abf565b818355556115bf565b606460405162461bcd60e51b815260206004820152601660248201527f56657273696f6e20616c726561647920657869737473000000000000000000006044820152fd5b5061125d6001600160a01b036001541633149050611254565b67ffffffffffffffff8335116104a05760208060249261166e3685883560843501016118a1565b8152019301929050611227565b346104a05760203660031901126104a0576004356006548110156104a057610d9961051e9160066000527ff652222313e28459528d920b65115c16c04f3efc82aaedc97be59f3f377c0d3f016117b3565b6005548110156104235760056000527f036b6384b5eca791c62761152d0c79bb0604c104a5fb6f4eb0703f3154bb3db00190600090565b90600182811c92168015611733575b602083101461171d57565b634e487b7160e01b600052602260045260246000fd5b91607f1691611712565b60c0810190811067ffffffffffffffff82111761043957604052565b60e0810190811067ffffffffffffffff82111761043957604052565b6040810190811067ffffffffffffffff82111761043957604052565b90601f8019910116810190811067ffffffffffffffff82111761043957604052565b90604051918260008254926117c784611703565b90818452600194858116908160001461183657506001146117f3575b50506117f192500383611791565b565b9093915060005260209081600020936000915b81831061181e5750506117f1935082010138806117e3565b85548884018501529485019487945091830191611806565b9150506117f194506020925060ff191682840152151560051b82010138806117e3565b60005b83811061186c5750506000910152565b818101518382015260200161185c565b9060209161189581518092818552858086019101611859565b601f01601f1916010190565b81601f820112156104a05780359067ffffffffffffffff821161043957604051926118d6601f8401601f191660200185611791565b828452602083830101116104a057816000926020809301838601378301015290565b600435906001600160a01b03821682036104a057565b67ffffffffffffffff81116104395760051b60200190565b9060406003198301126104a05767ffffffffffffffff6004358181116104a05783611953916004016118a1565b926024359182116104a05761196a916004016118a1565b90565b908082519081815260208091019281808460051b8301019501936000915b84831061199b5750505050505090565b90919293949584806119b9600193601f198682030187528a5161187c565b980193019301919493929061198b565b156119d057565b606460405162461bcd60e51b815260206004820152601760248201527f4e6f7420617574686f72697a656420746f2077726974650000000000000000006044820152fd5b60405190611a2182611775565b600c82527f636f6e74726163744e616d6500000000000000000000000000000000000000006020830152565b60405190611a5a82611775565b600782527f76657273696f6e000000000000000000000000000000000000000000000000006020830152565b60405190611a9382611775565b600b82527f6465736372697074696f6e0000000000000000000000000000000000000000006020830152565b818110611aca575050565b60008155600101611abf565b919091825167ffffffffffffffff811161043957611af48254611703565b601f8111611b9e575b50602080601f8311600114611b3a575081929394600092611b2f575b50508160011b916000199060031b1c1916179055565b015190503880611b19565b90601f198316958460005282600020926000905b888210611b8657505083600195969710611b6d575b505050811b019055565b015160001960f88460031b161c19169055388080611b63565b80600185968294968601518155019501930190611b4e565b611bcb90836000526020600020601f840160051c81019160208510611bd1575b601f0160051c0190611abf565b38611afd565b9091508190611bbe565b611bf390602060405192828480945193849201611859565b810103902090565b600260005414611c0c576002600055565b606460405162461bcd60e51b815260206004820152601f60248201527f5265656e7472616e637947756172643a207265656e7472616e742063616c6c006044820152fd5b15611c585750565b611c7c9060405191829162461bcd60e51b835260206004840152602483019061187c565b0390fd5b906001600160a01b036117f192611cf26036604051809567024b73b30b634b2160c51b6020830152611cbc815180926020602886019101611859565b81017f3a207a65726f20616464726573730000000000000000000000000000000000006028820152036016810186520184611791565b161515611c50565b906020611d7860396117f1946101008151151591611d7d60405167024b73b30b634b2160c51b948589830152611d786036838c611d4281519d8e92019d8e6028850190611859565b81017f3a20656d70747920737472696e670000000000000000000000000000000000006028820152036016810185520183611791565b611c50565b51111593611d9c60405196879360208501525180926028850190611859565b81017f3a20737472696e6720746f6f206c6f6e670000000000000000000000000000006028820152036019810185520183611791565b6000198114611de15760010190565b634e487b7160e01b600052601160045260246000fd5b60405190611e0482611775565b600b82527f6d6967726174696f6e49640000000000000000000000000000000000000000006020830152565b60405190611e3d82611775565b600682527f7772697465720000000000000000000000000000000000000000000000000000602083015256fea264697066735822122057d8fa64df5f570779b97fc4e8610f6f40652f317efabc0d0ac4123471933f9064736f6c63430008140033",
  "linkReferences": {},
  "deployedLinkReferences": {}
}