{
  "_format": "hh-sol-artifact-1",
  "contractName": "GovernanceManager",
  "sourceName": "contracts/governance/GovernanceManager.sol",
  "abi": [
    {
      "inputs": [],
      "stateMutability": "nonpayable",
      "type": "constructor"
    },
    {
      "anonymous": false,
      "inputs": [
        {
          "indexed": false,
          "internalType": "string",
          "name": "field",
          "type": "string"
        },
        {
          "indexed": false,
          "internalType": "uint256",
          "name": "oldValue",
          "type": "uint256"
        },
        {
          "indexed": false,
          "internalType": "uint256",
          "name": "newValue",
          "type": "uint256"
        }
      ],
      "name": "GovernanceConfigUpdated",
      "type": "event"
    },
    {
      "anonymous": false,
      "inputs": [
        {
          "indexed": true,
          "internalType": "address",
          "name": "governor",
          "type": "address"
        },
        {
          "indexed": false,
          "internalType": "uint256",
          "name": "votingPower",
          "type": "uint256"
        }
      ],
      "name": "GovernorAdded",
      "type": "event"
    },
    {
      "anonymous": false,
      "inputs": [
        {
          "indexed": true,
          "internalType": "address",
          "name": "governor",
          "type": "address"
        }
      ],
      "name": "GovernorRemoved",
      "type": "event"
    },
    {
      "anonymous": false,
      "inputs": [
        {
          "indexed": true,
          "internalType": "address",
          "name": "previousOwner",
          "type": "address"
        },
        {
          "indexed": true,
          "internalType": "address",
          "name": "newOwner",
          "type": "address"
        }
      ],
      "name": "OwnershipTransferred",
      "type": "event"
    },
    {
      "anonymous": false,
      "inputs": [
        {
          "indexed": true,
          "internalType": "uint256",
          "name": "proposalId",
          "type": "uint256"
        },
        {
          "indexed": true,
          "internalType": "address",
          "name": "canceler",
          "type": "address"
        }
      ],
      "name": "ProposalCanceled",
      "type": "event"
    },
    {
      "anonymous": false,
      "inputs": [
        {
          "indexed": true,
          "internalType": "uint256",
          "name": "proposalId",
          "type": "uint256"
        },
        {
          "indexed": true,
          "internalType": "address",
          "name": "proposer",
          "type": "address"
        },
        {
          "indexed": false,
          "internalType": "string",
          "name": "title",
          "type": "string"
        },
        {
          "indexed": false,
          "internalType": "address",
          "name": "target",
          "type": "address"
        },
        {
          "indexed": false,
          "internalType": "uint256",
          "name": "startTime",
          "type": "uint256"
        },
        {
          "indexed": false,
          "internalType": "uint256",
          "name": "endTime",
          "type": "uint256"
        }
      ],
      "name": "ProposalCreated",
      "type": "event"
    },
    {
      "anonymous": false,
      "inputs": [
        {
          "indexed": true,
          "internalType": "uint256",
          "name": "proposalId",
          "type": "uint256"
        },
        {
          "indexed": true,
          "internalType": "address",
          "name": "executor",
          "type": "address"
        }
      ],
      "name": "ProposalExecuted",
      "type": "event"
    },
    {
      "anonymous": false,
      "inputs": [
        {
          "indexed": true,
          "internalType": "uint256",
          "name": "proposalId",
          "type": "uint256"
        },
        {
          "indexed": true,
          "internalType": "address",
          "name": "voter",
          "type": "address"
        },
        {
          "indexed": false,
          "internalType": "uint256",
          "name": "votes",
          "type": "uint256"
        },
        {
          "indexed": false,
          "internalType": "bool",
          "name": "support",
          "type": "bool"
        }
      ],
      "name": "VoteCast",
      "type": "event"
    },
    {
      "inputs": [
        {
          "internalType": "address",
          "name": "governor",
          "type": "address"
        },
        {
          "internalType": "uint256",
          "name": "power",
          "type": "uint256"
        }
      ],
      "name": "addGovernor",
      "outputs": [],
      "stateMutability": "nonpayable",
      "type": "function"
    },
    {
      "inputs": [
        {
          "internalType": "uint256",
          "name": "proposalId",
          "type": "uint256"
        }
      ],
      "name": "canExecuteProposal",
      "outputs": [
        {
          "internalType": "bool",
          "name": "",
          "type": "bool"
        }
      ],
      "stateMutability": "view",
      "type": "function"
    },
    {
      "inputs": [
        {
          "internalType": "uint256",
          "name": "proposalId",
          "type": "uint256"
        }
      ],
      "name": "cancelProposal",
      "outputs": [],
      "stateMutability": "nonpayable",
      "type": "function"
    },
    {
      "inputs": [
        {
          "internalType": "uint256",
          "name": "proposalId",
          "type": "uint256"
        },
        {
          "internalType": "bool",
          "name": "support",
          "type": "bool"
        }
      ],
      "name": "castVote",
      "outputs": [],
      "stateMutability": "nonpayable",
      "type": "function"
    },
    {
      "inputs": [],
      "name": "config",
      "outputs": [
        {
          "internalType": "uint256",
          "name": "votingDelay",
          "type": "uint256"
        },
        {
          "internalType": "uint256",
          "name": "votingPeriod",
          "type": "uint256"
        },
        {
          "internalType": "uint256",
          "name": "proposalThreshold",
          "type": "uint256"
        },
        {
          "internalType": "uint256",
          "name": "quorumVotes",
          "type": "uint256"
        },
        {
          "internalType": "uint256",
          "name": "executionDelay",
          "type": "uint256"
        }
      ],
      "stateMutability": "view",
      "type": "function"
    },
    {
      "inputs": [
        {
          "internalType": "uint256",
          "name": "proposalId",
          "type": "uint256"
        }
      ],
      "name": "executeProposal",
      "outputs": [],
      "stateMutability": "nonpayable",
      "type": "function"
    },
    {
      "inputs": [],
      "name": "getGovernanceConfig",
      "outputs": [
        {
          "components": [
            {
              "internalType": "uint256",
              "name": "votingDelay",
              "type": "uint256"
            },
            {
              "internalType": "uint256",
              "name": "votingPeriod",
              "type": "uint256"
            },
            {
              "internalType": "uint256",
              "name": "proposalThreshold",
              "type": "uint256"
            },
            {
              "internalType": "uint256",
              "name": "quorumVotes",
              "type": "uint256"
            },
            {
              "internalType": "uint256",
              "name": "executionDelay",
              "type": "uint256"
            }
          ],
          "internalType": "struct GovernanceManager.GovernanceConfig",
          "name": "",
          "type": "tuple"
        }
      ],
      "stateMutability": "view",
      "type": "function"
    },
    {
      "inputs": [
        {
          "internalType": "uint256",
          "name": "proposalId",
          "type": "uint256"
        }
      ],
      "name": "getProposal",
      "outputs": [
        {
          "internalType": "uint256",
          "name": "id",
          "type": "uint256"
        },
        {
          "internalType": "address",
          "name": "proposer",
          "type": "address"
        },
        {
          "internalType": "string",
          "name": "title",
          "type": "string"
        },
        {
          "internalType": "string",
          "name": "description",
          "type": "string"
        },
        {
          "internalType": "address",
          "name": "target",
          "type": "address"
        },
        {
          "internalType": "uint256",
          "name": "startTime",
          "type": "uint256"
        },
        {
          "internalType": "uint256",
          "name": "endTime",
          "type": "uint256"
        },
        {
          "internalType": "uint256",
          "name": "forVotes",
          "type": "uint256"
        },
        {
          "internalType": "uint256",
          "name": "againstVotes",
          "type": "uint256"
        },
        {
          "internalType": "bool",
          "name": "executed",
          "type": "bool"
        },
        {
          "internalType": "bool",
          "name": "canceled",
          "type": "bool"
        }
      ],
      "stateMutability": "view",
      "type": "function"
    },
    {
      "inputs": [],
      "name": "getProposalCount",
      "outputs": [
        {
          "internalType": "uint256",
          "name": "",
          "type": "uint256"
        }
      ],
      "stateMutability": "view",
      "type": "function"
    },
    {
      "inputs": [
        {
          "internalType": "address",
          "name": "governor",
          "type": "address"
        }
      ],
      "name": "getVotingPower",
      "outputs": [
        {
          "internalType": "uint256",
          "name": "",
          "type": "uint256"
        }
      ],
      "stateMutability": "view",
      "type": "function"
    },
    {
      "inputs": [
        {
          "internalType": "address",
          "name": "governor",
          "type": "address"
        }
      ],
      "name": "isAddressGovernor",
      "outputs": [
        {
          "internalType": "bool",
          "name": "",
          "type": "bool"
        }
      ],
      "stateMutability": "view",
      "type": "function"
    },
    {
      "inputs": [
        {
          "internalType": "address",
          "name": "",
          "type": "address"
        }
      ],
      "name": "isGovernor",
      "outputs": [
        {
          "internalType": "bool",
          "name": "",
          "type": "bool"
        }
      ],
      "stateMutability": "view",
      "type": "function"
    },
    {
      "inputs": [],
      "name": "owner",
      "outputs": [
        {
          "internalType": "address",
          "name": "",
          "type": "address"
        }
      ],
      "stateMutability": "view",
      "type": "function"
    },
    {
      "inputs": [],
      "name": "proposalCount",
      "outputs": [
        {
          "internalType": "uint256",
          "name": "",
          "type": "uint256"
        }
      ],
      "stateMutability": "view",
      "type": "function"
    },
    {
      "inputs": [
        {
          "internalType": "uint256",
          "name": "",
          "type": "uint256"
        }
      ],
      "name": "proposals",
      "outputs": [
        {
          "internalType": "uint256",
          "name": "id",
          "type": "uint256"
        },
        {
          "internalType": "address",
          "name": "proposer",
          "type": "address"
        },
        {
          "internalType": "string",
          "name": "title",
          "type": "string"
        },
        {
          "internalType": "string",
          "name": "description",
          "type": "string"
        },
        {
          "internalType": "address",
          "name": "target",
          "type": "address"
        },
        {
          "internalType": "bytes",
          "name": "data",
          "type": "bytes"
        },
        {
          "internalType": "uint256",
          "name": "value",
          "type": "uint256"
        },
        {
          "internalType": "uint256",
          "name": "startTime",
          "type": "uint256"
        },
        {
          "internalType": "uint256",
          "name": "endTime",
          "type": "uint256"
        },
        {
          "internalType": "uint256",
          "name": "forVotes",
          "type": "uint256"
        },
        {
          "internalType": "uint256",
          "name": "againstVotes",
          "type": "uint256"
        },
        {
          "internalType": "bool",
          "name": "executed",
          "type": "bool"
        },
        {
          "internalType": "bool",
          "name": "canceled",
          "type": "bool"
        }
      ],
      "stateMutability": "view",
      "type": "function"
    },
    {
      "inputs": [
        {
          "internalType": "string",
          "name": "title",
          "type": "string"
        },
        {
          "internalType": "string",
          "name": "description",
          "type": "string"
        },
        {
          "internalType": "address",
          "name": "target",
          "type": "address"
        },
        {
          "internalType": "bytes",
          "name": "data",
          "type": "bytes"
        },
        {
          "internalType": "uint256",
          "name": "value",
          "type": "uint256"
        }
      ],
      "name": "propose",
      "outputs": [
        {
          "internalType": "uint256",
          "name": "",
          "type": "uint256"
        }
      ],
      "stateMutability": "nonpayable",
      "type": "function"
    },
    {
      "inputs": [
        {
          "internalType": "address",
          "name": "governor",
          "type": "address"
        }
      ],
      "name": "removeGovernor",
      "outputs": [],
      "stateMutability": "nonpayable",
      "type": "function"
    },
    {
      "inputs": [],
      "name": "renounceOwnership",
      "outputs": [],
      "stateMutability": "nonpayable",
      "type": "function"
    },
    {
      "inputs": [
        {
          "internalType": "address",
          "name": "newOwner",
          "type": "address"
        }
      ],
      "name": "transferOwnership",
      "outputs": [],
      "stateMutability": "nonpayable",
      "type": "function"
    },
    {
      "inputs": [
        {
          "internalType": "uint256",
          "name": "_votingDelay",
          "type": "uint256"
        },
        {
          "internalType": "uint256",
          "name": "_votingPeriod",
          "type": "uint256"
        },
        {
          "internalType": "uint256",
          "name": "_proposalThreshold",
          "type": "uint256"
        },
        {
          "internalType": "uint256",
          "name": "_quorumVotes",
          "type": "uint256"
        },
        {
          "internalType": "uint256",
          "name": "_executionDelay",
          "type": "uint256"
        }
      ],
      "name": "updateGovernanceConfig",
      "outputs": [],
      "stateMutability": "nonpayable",
      "type": "function"
    },
    {
      "inputs": [
        {
          "internalType": "address",
          "name": "governor",
          "type": "address"
        },
        {
          "internalType": "uint256",
          "name": "power",
          "type": "uint256"
        }
      ],
      "name": "updateGovernorPower",
      "outputs": [],
      "stateMutability": "nonpayable",
      "type": "function"
    },
    {
      "inputs": [
        {
          "internalType": "address",
          "name": "",
          "type": "address"
        }
      ],
      "name": "votingPower",
      "outputs": [
        {
          "internalType": "uint256",
          "name": "",
          "type": "uint256"
        }
      ],
      "stateMutability": "view",
      "type": "function"
    }
  ],
  "bytecode": "0x6080346100e657600160008181558154336001600160a01b0319821681179093559091906001600160a01b03167f8be0079c531659141344cd1fd0a4f28419497f9722a3daafe3b4186f6b6457e08380a360a082016001600160401b038111838210176100d257906040918252620151808084526203f4808060208601526103e89081858701528260806127109788606082015201528260025560035560045583600555600655338152600a602052818120600160ff1982541617905560096020522055604051611bb090816100ec8239f35b634e487b7160e01b82526041600452602482fd5b600080fdfe6080806040526004908136101561001557600080fd5b60003560e01c908163013cf08b14611571575080630d61b5191461124257806315373e3d14610fd75780632329fa5514610a1657806334884e02146109825780634abb45471461092a578063715018a6146108c257806379502c5514610880578063824ea8ed146107ae5780638ac5331e146107485780638b1ce497146106b15780638da5cb5b1461068a578063bb4d443614610650578063c07473f614610650578063c08cc02d14610533578063c7f758a814610551578063da35c66414610533578063e0a8f6f5146103fa578063e43581b8146103bb578063eecdac88146102e9578063f2fde38b146102025763fbafc34c1461011357600080fd5b346101fd5760a03660031901126101fd5760a08181923560243590610136611894565b6002549060035493816002558360035560443590556064356005556084356006556040519160608352600b60608401527f766f74696e6744656c61790000000000000000000000000000000000000000006080840152602083015260408201527f573f9caccba48441c8720c7a162998e6ad4df94bccadfcb129fae288f87c473b948591a16040519160608352600c60608401527f766f74696e67506572696f640000000000000000000000000000000000000000608084015260208301526040820152a1005b600080fd5b50346101fd5760203660031901126101fd5761021c61187e565b610224611894565b6001600160a01b0380911691821561027f57506001548273ffffffffffffffffffffffffffffffffffffffff19821617600155167f8be0079c531659141344cd1fd0a4f28419497f9722a3daafe3b4186f6b6457e0600080a3005b60849060206040519162461bcd60e51b8352820152602660248201527f4f776e61626c653a206e6577206f776e657220697320746865207a65726f206160448201527f64647265737300000000000000000000000000000000000000000000000000006064820152fd5b50346101fd5760203660031901126101fd5761030361187e565b9061030c611894565b6001600160a01b03809216916103238315156118ec565b600154168214610377575080600052600a602052604060002060ff1981541690556009602052600060408120557f1ebe834e73d60a5fec822c1e1727d34bc79f2ad977ed504581cc1822fe20fb5b600080a2005b60649060206040519162461bcd60e51b8352820152601360248201527f43616e6e6f742072656d6f7665206f776e6572000000000000000000000000006044820152fd5b346101fd5760203660031901126101fd576001600160a01b036103dc61187e565b16600052600a602052602060ff604060002054166040519015158152f35b50346101fd5760203660031901126101fd5780359061041c6008548310611a99565b81600052600760205260406000206001600160a01b03806001830154163314908115610525575b50156104e157600b019081549061045d60ff831615611ae4565b60ff8260081c1661049d575061ff00191661010017905533907f253042c67143aeb6d431bb762d75e5905f18fa7850b7b9edb31fedb7c362d7e8600080a3005b60649060206040519162461bcd60e51b8352820152601960248201527f50726f706f73616c20616c72656164792063616e63656c6564000000000000006044820152fd5b60648260206040519162461bcd60e51b8352820152601860248201527f4e6f7420617574686f72697a656420746f2063616e63656c00000000000000006044820152fd5b905060015416331438610443565b346101fd5760003660031901126101fd576020600854604051908152f35b50346101fd5760203660031901126101fd5780356105726008548210611a99565b6000526007602052604060002080549060ff6001600160a01b038060018401541694830154169160078101546008820154600983015490600a8401549261061a600361060c600b880154976105ec604051916105dc836105d581600285016116e3565b03846117ab565b6105d560405180968193016116e3565b6040519c8d9c8d5260208d015260408c61016091829101528c01906117cd565b908a820360608c01526117cd565b96608089015260a088015260c087015260e0860152610100850152818116151561012085015260081c1615156101408301520390f35b346101fd5760203660031901126101fd576001600160a01b0361067161187e565b1660005260096020526020604060002054604051908152f35b346101fd5760003660031901126101fd5760206001600160a01b0360015416604051908152f35b50346101fd5760003660031901126101fd5760a090600060806040516106d681611779565b82815282602082015282604082015282606082015201526040516106f981611779565b6002549182825260035490602083019182525460408301908152600554916060840192835260806006549401938452604051948552516020850152516040840152516060830152516080820152f35b346101fd5760403660031901126101fd5761076161187e565b6001600160a01b0360243591610775611894565b1680600052600a60205261079060ff60406000205416611982565b61079b821515611937565b6000526009602052604060002055600080f35b50346101fd5760203660031901126101fd57356107ce6008548210611a99565b600052600760205260206040600020600881015490814210159182610867575b5081610857575b81610844575b81610832575b81610812575b506040519015158152f35b6108279150600a600982015491015490611a21565b600554111538610807565b6009810154600a820154109150610801565b600b81015460081c60ff161591506107fb565b600b81015460ff161591506107f5565b61087691925060065490611a21565b42101590386107ee565b50346101fd5760003660031901126101fd5760a09060025490600354905460055490600654926040519485526020850152604084015260608301526080820152f35b346101fd5760003660031901126101fd576108db611894565b60006001600160a01b0360015473ffffffffffffffffffffffffffffffffffffffff198116600155167f8be0079c531659141344cd1fd0a4f28419497f9722a3daafe3b4186f6b6457e08280a3005b346101fd5760203660031901126101fd5760206001600160a01b038061094e61187e565b1680600052600a835260ff60406000205416918215610974575b50506040519015158152f35b600154161490508280610968565b346101fd5760403660031901126101fd5761099b61187e565b7f83ac20e2637247e58a2d9b27c934067aa1e542c270876c557f5b8e64cf3c88a760206001600160a01b03602435936109d2611894565b16926109df8415156118ec565b6109ea811515611937565b83600052600a82526040600020600160ff198254161790556009825280604060002055604051908152a2005b50346101fd5760a03660031901126101fd5767ffffffffffffffff9080358281116101fd57610a489036908301611860565b916024358181116101fd57610a609036908401611860565b90604435916001600160a01b0380841684036101fd576064358381116101fd57366023820112156101fd57610a9e9036906024818901359101611829565b33600052600a60205260ff604060002054168015610fca575b610ac090611982565b610ac8611a44565b336000526009602052604060002054865411610f8657865115610f4257825115610efe5781851615610eba57600854956000198714610ea55760018701600855866000526007602052604060002093878555600185019073ffffffffffffffffffffffffffffffffffffffff199133838254161790558951878111610e1b576002870190610b6081610b5a84546116a9565b846119cd565b806020601f8211600114610e3b57600091610e30575b508160011b916000199060031b1c19161790555b8051878111610e1b57806003880192610bad82610ba786546116a9565b866119cd565b602090601f8311600114610daf57600092610da4575b50508160011b916000199060031b1c19161790555b81850190848816908254161790558151948511610d8f575091602096918693610c1186610c0860058601546116a9565b600586016119cd565b8890601f8711600114610cfb579580917ffcbc93e90de1f3909139448eea84876f427c600d8e1706f36918b4c5635c02139697600092610cf0575b50508160011b916000199060031b1c19161760058301555b6084356006830155610c7860025442611a21565b90816007840155600b610c99610c9060025442611a21565b60035490611a21565b93846008820155600060098201556000600a8201550161ffff198154169055610ccd604051946080865260808601906117cd565b961688840152604083015260608201528033940390a36001600055604051908152f35b015190503880610c4c565b959060058401600052896000209660005b601f1984168110610d7557509682917ffcbc93e90de1f3909139448eea84876f427c600d8e1706f36918b4c5635c02139798600194601f19811610610d5c575b505050811b016005830155610c64565b015160001960f88460031b161c19169055388080610d4c565b8282015189556001909801978a9750918b01918b01610d0c565b604190634e487b7160e01b6000525260246000fd5b015190503880610bc3565b9250836000526020600020906000935b601f1984168510610e00576001945083601f19811610610de7575b505050811b019055610bd8565b015160001960f88460031b161c19169055388080610dda565b81810151835560209485019460019093019290910190610dbf565b604184634e487b7160e01b6000525260246000fd5b90508c015138610b76565b8d9250836000526020600020906000935b601f1984168510610e8d576001945083601f19811610610e74575b505050811b019055610b8a565b015160001960f88460031b161c1916905538808e610e67565b8101518255602093840193600190920191018e610e4c565b601190634e487b7160e01b6000525260246000fd5b60648660206040519162461bcd60e51b8352820152601660248201527f496e76616c6964207461726765742061646472657373000000000000000000006044820152fd5b60648660206040519162461bcd60e51b8352820152601360248201527f496e76616c6964206465736372697074696f6e000000000000000000000000006044820152fd5b60648660206040519162461bcd60e51b8352820152600d60248201527f496e76616c6964207469746c65000000000000000000000000000000000000006044820152fd5b60648660206040519162461bcd60e51b8352820152601960248201527f496e73756666696369656e7420766f74696e6720706f776572000000000000006044820152fd5b5060015482163314610ab7565b50346101fd5760403660031901126101fd578035602435801515908181036101fd5733600052602090600a825260ff604060002054168015611229575b61101d90611982565b61102a6008548510611a99565b8360005260078252604060002090600782015442106111e657600882015442116111a357600c82013360005280845260ff604060002054166111605761108660ff600b85015461107c82821615611ae4565b60081c1615611b2f565b336000526009845260406000205496871561111d57503360005283526040600020600160ff19825416179055600d8201835285604060002055600014611108576009016110d4858254611a21565b90555b6040519384528301527fb898e75d5aac8de2f407e4a683c8d909e832d1e371e3bff0fa3ed934e88d956260403393a3005b600a01611116858254611a21565b90556110d7565b606490856040519162461bcd60e51b8352820152600f60248201527f4e6f20766f74696e6720706f77657200000000000000000000000000000000006044820152fd5b606487856040519162461bcd60e51b8352820152600d60248201527f416c726561647920766f746564000000000000000000000000000000000000006044820152fd5b606486846040519162461bcd60e51b8352820152600c60248201527f566f74696e6720656e64656400000000000000000000000000000000000000006044820152fd5b606486846040519162461bcd60e51b8352820152601260248201527f566f74696e67206e6f74207374617274656400000000000000000000000000006044820152fd5b5061101d6001600160a01b036001541633149050611014565b50346101fd57602090816003193601126101fd5780359033600052600a835260ff604060002054168015611558575b61127a90611982565b6112876008548310611a99565b61128f611a44565b81600052600783526040600020926008840154804210611515576006546112b591611a21565b42106114d257600b84019384546112cf60ff821615611ae4565b6112df60ff8260081c1615611b2f565b6009820154600a830154908181111561148f57906112fc91611a21565b6005541161144c576001958660ff198093161790556001600160a01b0384830154169160056006820154910160405192600091805461133a816116a9565b92818c16918215611438575050600114611400575b5050916000939181859403925af13d156113fb573d61136d8161180d565b9061137b60405192836117ab565b81526000833d92013e5b156113b857505033907f9c85b616f29fca57a17eafe71cf9ff82ffef41766e2cf01ea7f8f7878dd3ec24600080a3600055005b606492506040519162461bcd60e51b8352820152601960248201527f50726f706f73616c20657865637574696f6e206661696c6564000000000000006044820152fd5b611385565b9091506000528460002085896000925b848410611426575050509083019050818361134f565b80548488015201910190898791611410565b16865250508015150283019050818361134f565b606484846040519162461bcd60e51b8352820152600e60248201527f51756f72756d206e6f74206d65740000000000000000000000000000000000006044820152fd5b606486866040519162461bcd60e51b8352820152601360248201527f50726f706f73616c206e6f7420706173736564000000000000000000000000006044820152fd5b606492506040519162461bcd60e51b8352820152601760248201527f457865637574696f6e2064656c6179206e6f74206d65740000000000000000006044820152fd5b606483836040519162461bcd60e51b8352820152601060248201527f566f74696e67206e6f7420656e646564000000000000000000000000000000006044820152fd5b5061127a6001600160a01b036001541633149050611271565b9050346101fd5760203660031901126101fd57813560005260076020526040600020918254916001600160a01b03938460018201541694828060028401906115b8916116e3565b036115c390846117ab565b60405193846115d581600386016116e3565b036115e090866117ab565b820154604051949116846115f781600586016116e3565b0361160290866117ab565b600683015494600784015490600885015492600986015494600a87015496600b0154976040519b8c9b8c5260208c01526101a08060408d01528b01611646916117cd565b8a810360608c0152611657916117cd565b9060808a015288810360a08a015261166e916117cd565b9560c088015260e087015261010086015261012085015261014084015260ff8116151561016084015260081c60ff1615156101808301520390f35b90600182811c921680156116d9575b60208310146116c357565b634e487b7160e01b600052602260045260246000fd5b91607f16916116b8565b90600092918054916116f4836116a9565b9182825260019384811690816000146117565750600114611716575b50505050565b90919394506000526020928360002092846000945b838610611742575050505001019038808080611710565b80548587018301529401938590820161172b565b9294505050602093945060ff191683830152151560051b01019038808080611710565b60a0810190811067ffffffffffffffff82111761179557604052565b634e487b7160e01b600052604160045260246000fd5b90601f8019910116810190811067ffffffffffffffff82111761179557604052565b919082519283825260005b8481106117f9575050826000602080949584010152601f8019910116010190565b6020818301810151848301820152016117d8565b67ffffffffffffffff811161179557601f01601f191660200190565b9291926118358261180d565b9161184360405193846117ab565b8294818452818301116101fd578281602093846000960137010152565b9080601f830112156101fd5781602061187b93359101611829565b90565b600435906001600160a01b03821682036101fd57565b6001600160a01b036001541633036118a857565b606460405162461bcd60e51b815260206004820152602060248201527f4f776e61626c653a2063616c6c6572206973206e6f7420746865206f776e65726044820152fd5b156118f357565b606460405162461bcd60e51b815260206004820152601860248201527f496e76616c696420676f7665726e6f72206164647265737300000000000000006044820152fd5b1561193e57565b606460405162461bcd60e51b815260206004820152601460248201527f496e76616c696420766f74696e6720706f7765720000000000000000000000006044820152fd5b1561198957565b606460405162461bcd60e51b815260206004820152600e60248201527f4e6f74206120676f7665726e6f720000000000000000000000000000000000006044820152fd5b90601f81116119db57505050565b600091825260208220906020601f850160051c83019410611a17575b601f0160051c01915b828110611a0c57505050565b818155600101611a00565b90925082906119f7565b91908201809211611a2e57565b634e487b7160e01b600052601160045260246000fd5b600260005414611a55576002600055565b606460405162461bcd60e51b815260206004820152601f60248201527f5265656e7472616e637947756172643a207265656e7472616e742063616c6c006044820152fd5b15611aa057565b606460405162461bcd60e51b815260206004820152601760248201527f50726f706f73616c20646f6573206e6f742065786973740000000000000000006044820152fd5b15611aeb57565b606460405162461bcd60e51b815260206004820152601960248201527f50726f706f73616c20616c7265616479206578656375746564000000000000006044820152fd5b15611b3657565b606460405162461bcd60e51b815260206004820152601160248201527f50726f706f73616c2063616e63656c65640000000000000000000000000000006044820152fdfea2646970667358221220391955a95c1277fe1c287fdd1cd0c44f6a8d3cfcf06189c7050d3533b8c52b9a64736f6c63430008140033",
  "linkReferences": {},
  "deployedLinkReferences": {}
}