{
  "_format": "hh-sol-artifact-1",
  "contractName": "GovernanceManager",
  "sourceName": "contracts/governance/GovernanceManager.sol",
  "abi": [
    {
      "inputs": [],
      "stateMutability": "nonpayable",
      "type": "constructor"
    },
    {
      "anonymous": false,
      "inputs": [
        {
          "indexed": false,
          "internalType": "string",
          "name": "field",
          "type": "string"
        },
        {
          "indexed": false,
          "internalType": "uint256",
          "name": "oldValue",
          "type": "uint256"
        },
        {
          "indexed": false,
          "internalType": "uint256",
          "name": "newValue",
          "type": "uint256"
        }
      ],
      "name": "GovernanceConfigUpdated",
      "type": "event"
    },
    {
      "anonymous": false,
      "inputs": [
        {
          "indexed": true,
          "internalType": "address",
          "name": "governor",
          "type": "address"
        },
        {
          "indexed": false,
          "internalType": "uint256",
          "name": "votingPower",
          "type": "uint256"
        }
      ],
      "name": "GovernorAdded",
      "type": "event"
    },
    {
      "anonymous": false,
      "inputs": [
        {
          "indexed": true,
          "internalType": "address",
          "name": "governor",
          "type": "address"
        }
      ],
      "name": "GovernorRemoved",
      "type": "event"
    },
    {
      "anonymous": false,
      "inputs": [
        {
          "indexed": true,
          "internalType": "address",
          "name": "previousOwner",
          "type": "address"
        },
        {
          "indexed": true,
          "internalType": "address",
          "name": "newOwner",
          "type": "address"
        }
      ],
      "name": "OwnershipTransferred",
      "type": "event"
    },
    {
      "anonymous": false,
      "inputs": [
        {
          "indexed": true,
          "internalType": "uint256",
          "name": "proposalId",
          "type": "uint256"
        },
        {
          "indexed": true,
          "internalType": "address",
          "name": "canceler",
          "type": "address"
        }
      ],
      "name": "ProposalCanceled",
      "type": "event"
    },
    {
      "anonymous": false,
      "inputs": [
        {
          "indexed": true,
          "internalType": "uint256",
          "name": "proposalId",
          "type": "uint256"
        },
        {
          "indexed": true,
          "internalType": "address",
          "name": "proposer",
          "type": "address"
        },
        {
          "indexed": false,
          "internalType": "string",
          "name": "title",
          "type": "string"
        },
        {
          "indexed": false,
          "internalType": "address",
          "name": "target",
          "type": "address"
        },
        {
          "indexed": false,
          "internalType": "uint256",
          "name": "startTime",
          "type": "uint256"
        },
        {
          "indexed": false,
          "internalType": "uint256",
          "name": "endTime",
          "type": "uint256"
        }
      ],
      "name": "ProposalCreated",
      "type": "event"
    },
    {
      "anonymous": false,
      "inputs": [
        {
          "indexed": true,
          "internalType": "uint256",
          "name": "proposalId",
          "type": "uint256"
        },
        {
          "indexed": true,
          "internalType": "address",
          "name": "executor",
          "type": "address"
        }
      ],
      "name": "ProposalExecuted",
      "type": "event"
    },
    {
      "anonymous": false,
      "inputs": [
        {
          "indexed": true,
          "internalType": "uint256",
          "name": "proposalId",
          "type": "uint256"
        },
        {
          "indexed": true,
          "internalType": "address",
          "name": "voter",
          "type": "address"
        },
        {
          "indexed": false,
          "internalType": "uint256",
          "name": "votes",
          "type": "uint256"
        },
        {
          "indexed": false,
          "internalType": "bool",
          "name": "support",
          "type": "bool"
        }
      ],
      "name": "VoteCast",
      "type": "event"
    },
    {
      "inputs": [
        {
          "internalType": "address",
          "name": "governor",
          "type": "address"
        },
        {
          "internalType": "uint256",
          "name": "power",
          "type": "uint256"
        }
      ],
      "name": "addGovernor",
      "outputs": [],
      "stateMutability": "nonpayable",
      "type": "function"
    },
    {
      "inputs": [
        {
          "internalType": "uint256",
          "name": "proposalId",
          "type": "uint256"
        }
      ],
      "name": "canExecuteProposal",
      "outputs": [
        {
          "internalType": "bool",
          "name": "",
          "type": "bool"
        }
      ],
      "stateMutability": "view",
      "type": "function"
    },
    {
      "inputs": [
        {
          "internalType": "uint256",
          "name": "proposalId",
          "type": "uint256"
        }
      ],
      "name": "cancelProposal",
      "outputs": [],
      "stateMutability": "nonpayable",
      "type": "function"
    },
    {
      "inputs": [
        {
          "internalType": "uint256",
          "name": "proposalId",
          "type": "uint256"
        },
        {
          "internalType": "bool",
          "name": "support",
          "type": "bool"
        }
      ],
      "name": "castVote",
      "outputs": [],
      "stateMutability": "nonpayable",
      "type": "function"
    },
    {
      "inputs": [],
      "name": "config",
      "outputs": [
        {
          "internalType": "uint256",
          "name": "votingDelay",
          "type": "uint256"
        },
        {
          "internalType": "uint256",
          "name": "votingPeriod",
          "type": "uint256"
        },
        {
          "internalType": "uint256",
          "name": "proposalThreshold",
          "type": "uint256"
        },
        {
          "internalType": "uint256",
          "name": "quorumVotes",
          "type": "uint256"
        },
        {
          "internalType": "uint256",
          "name": "executionDelay",
          "type": "uint256"
        }
      ],
      "stateMutability": "view",
      "type": "function"
    },
    {
      "inputs": [
        {
          "internalType": "uint256",
          "name": "proposalId",
          "type": "uint256"
        }
      ],
      "name": "executeProposal",
      "outputs": [],
      "stateMutability": "nonpayable",
      "type": "function"
    },
    {
      "inputs": [],
      "name": "getGovernanceConfig",
      "outputs": [
        {
          "components": [
            {
              "internalType": "uint256",
              "name": "votingDelay",
              "type": "uint256"
            },
            {
              "internalType": "uint256",
              "name": "votingPeriod",
              "type": "uint256"
            },
            {
              "internalType": "uint256",
              "name": "proposalThreshold",
              "type": "uint256"
            },
            {
              "internalType": "uint256",
              "name": "quorumVotes",
              "type": "uint256"
            },
            {
              "internalType": "uint256",
              "name": "executionDelay",
              "type": "uint256"
            }
          ],
          "internalType": "struct GovernanceManager.GovernanceConfig",
          "name": "",
          "type": "tuple"
        }
      ],
      "stateMutability": "view",
      "type": "function"
    },
    {
      "inputs": [
        {
          "internalType": "uint256",
          "name": "proposalId",
          "type": "uint256"
        }
      ],
      "name": "getProposal",
      "outputs": [
        {
          "internalType": "uint256",
          "name": "id",
          "type": "uint256"
        },
        {
          "internalType": "address",
          "name": "proposer",
          "type": "address"
        },
        {
          "internalType": "string",
          "name": "title",
          "type": "string"
        },
        {
          "internalType": "string",
          "name": "description",
          "type": "string"
        },
        {
          "internalType": "address",
          "name": "target",
          "type": "address"
        },
        {
          "internalType": "uint256",
          "name": "startTime",
          "type": "uint256"
        },
        {
          "internalType": "uint256",
          "name": "endTime",
          "type": "uint256"
        },
        {
          "internalType": "uint256",
          "name": "forVotes",
          "type": "uint256"
        },
        {
          "internalType": "uint256",
          "name": "againstVotes",
          "type": "uint256"
        },
        {
          "internalType": "bool",
          "name": "executed",
          "type": "bool"
        },
        {
          "internalType": "bool",
          "name": "canceled",
          "type": "bool"
        }
      ],
      "stateMutability": "view",
      "type": "function"
    },
    {
      "inputs": [],
      "name": "getProposalCount",
      "outputs": [
        {
          "internalType": "uint256",
          "name": "",
          "type": "uint256"
        }
      ],
      "stateMutability": "view",
      "type": "function"
    },
    {
      "inputs": [
        {
          "internalType": "address",
          "name": "governor",
          "type": "address"
        }
      ],
      "name": "getVotingPower",
      "outputs": [
        {
          "internalType": "uint256",
          "name": "",
          "type": "uint256"
        }
      ],
      "stateMutability": "view",
      "type": "function"
    },
    {
      "inputs": [
        {
          "internalType": "address",
          "name": "governor",
          "type": "address"
        }
      ],
      "name": "isAddressGovernor",
      "outputs": [
        {
          "internalType": "bool",
          "name": "",
          "type": "bool"
        }
      ],
      "stateMutability": "view",
      "type": "function"
    },
    {
      "inputs": [
        {
          "internalType": "address",
          "name": "",
          "type": "address"
        }
      ],
      "name": "isGovernor",
      "outputs": [
        {
          "internalType": "bool",
          "name": "",
          "type": "bool"
        }
      ],
      "stateMutability": "view",
      "type": "function"
    },
    {
      "inputs": [],
      "name": "owner",
      "outputs": [
        {
          "internalType": "address",
          "name": "",
          "type": "address"
        }
      ],
      "stateMutability": "view",
      "type": "function"
    },
    {
      "inputs": [],
      "name": "proposalCount",
      "outputs": [
        {
          "internalType": "uint256",
          "name": "",
          "type": "uint256"
        }
      ],
      "stateMutability": "view",
      "type": "function"
    },
    {
      "inputs": [
        {
          "internalType": "uint256",
          "name": "",
          "type": "uint256"
        }
      ],
      "name": "proposals",
      "outputs": [
        {
          "internalType": "uint256",
          "name": "id",
          "type": "uint256"
        },
        {
          "internalType": "address",
          "name": "proposer",
          "type": "address"
        },
        {
          "internalType": "string",
          "name": "title",
          "type": "string"
        },
        {
          "internalType": "string",
          "name": "description",
          "type": "string"
        },
        {
          "internalType": "address",
          "name": "target",
          "type": "address"
        },
        {
          "internalType": "bytes",
          "name": "data",
          "type": "bytes"
        },
        {
          "internalType": "uint256",
          "name": "value",
          "type": "uint256"
        },
        {
          "internalType": "uint256",
          "name": "startTime",
          "type": "uint256"
        },
        {
          "internalType": "uint256",
          "name": "endTime",
          "type": "uint256"
        },
        {
          "internalType": "uint256",
          "name": "forVotes",
          "type": "uint256"
        },
        {
          "internalType": "uint256",
          "name": "againstVotes",
          "type": "uint256"
        },
        {
          "internalType": "bool",
          "name": "executed",
          "type": "bool"
        },
        {
          "internalType": "bool",
          "name": "canceled",
          "type": "bool"
        }
      ],
      "stateMutability": "view",
      "type": "function"
    },
    {
      "inputs": [
        {
          "internalType": "string",
          "name": "title",
          "type": "string"
        },
        {
          "internalType": "string",
          "name": "description",
          "type": "string"
        },
        {
          "internalType": "address",
          "name": "target",
          "type": "address"
        },
        {
          "internalType": "bytes",
          "name": "data",
          "type": "bytes"
        },
        {
          "internalType": "uint256",
          "name": "value",
          "type": "uint256"
        }
      ],
      "name": "propose",
      "outputs": [
        {
          "internalType": "uint256",
          "name": "",
          "type": "uint256"
        }
      ],
      "stateMutability": "nonpayable",
      "type": "function"
    },
    {
      "inputs": [
        {
          "internalType": "address",
          "name": "governor",
          "type": "address"
        }
      ],
      "name": "removeGovernor",
      "outputs": [],
      "stateMutability": "nonpayable",
      "type": "function"
    },
    {
      "inputs": [],
      "name": "renounceOwnership",
      "outputs": [],
      "stateMutability": "nonpayable",
      "type": "function"
    },
    {
      "inputs": [
        {
          "internalType": "address",
          "name": "newOwner",
          "type": "address"
        }
      ],
      "name": "transferOwnership",
      "outputs": [],
      "stateMutability": "nonpayable",
      "type": "function"
    },
    {
      "inputs": [
        {
          "internalType": "uint256",
          "name": "_votingDelay",
          "type": "uint256"
        },
        {
          "internalType": "uint256",
          "name": "_votingPeriod",
          "type": "uint256"
        },
        {
          "internalType": "uint256",
          "name": "_proposalThreshold",
          "type": "uint256"
        },
        {
          "internalType": "uint256",
          "name": "_quorumVotes",
          "type": "uint256"
        },
        {
          "internalType": "uint256",
          "name": "_executionDelay",
          "type": "uint256"
        }
      ],
      "name": "updateGovernanceConfig",
      "outputs": [],
      "stateMutability": "nonpayable",
      "type": "function"
    },
    {
      "inputs": [
        {
          "internalType": "address",
          "name": "governor",
          "type": "address"
        },
        {
          "internalType": "uint256",
          "name": "power",
          "type": "uint256"
        }
      ],
      "name": "updateGovernorPower",
      "outputs": [],
      "stateMutability": "nonpayable",
      "type": "function"
    },
    {
      "inputs": [
        {
          "internalType": "address",
          "name": "",
          "type": "address"
        }
      ],
      "name": "votingPower",
      "outputs": [
        {
          "internalType": "uint256",
          "name": "",
          "type": "uint256"
        }
      ],
      "stateMutability": "view",
      "type": "function"
    }
  ],
  "bytecode": "0x6080346100e55760015f8181558154336001600160a01b0319821681179093559091906001600160a01b03167f8be0079c531659141344cd1fd0a4f28419497f9722a3daafe3b4186f6b6457e08380a360a082016001600160401b038111838210176100d157906040918252620151808084526203f4808060208601526103e89081858701528260806127109788606082015201528260025560035560045583600555600655338152600a602052818120600160ff1982541617905560096020522055604051611b3e90816100ea8239f35b634e487b7160e01b82526041600452602482fd5b5f80fdfe60808060405260049081361015610014575f80fd5b5f3560e01c908163013cf08b14611512575080630d61b519146111ef57806315373e3d14610f905780632329fa55146109f157806334884e02146109605780634abb45471461090a578063715018a6146108a457806379502c5514610863578063824ea8ed146107935780638ac5331e146107325780638b1ce4971461069d5780638da5cb5b14610677578063bb4d44361461063f578063c07473f61461063f578063c08cc02d14610525578063c7f758a814610542578063da35c66414610525578063e0a8f6f5146103ef578063e43581b8146103b2578063eecdac88146102e4578063f2fde38b146101fe5763fbafc34c14610110575f80fd5b346101fa5760a03660031901126101fa5760a08181923560243590610133611827565b6002549060035493816002558360035560443590556064356005556084356006556040519160608352600b60608401527f766f74696e6744656c61790000000000000000000000000000000000000000006080840152602083015260408201527f573f9caccba48441c8720c7a162998e6ad4df94bccadfcb129fae288f87c473b948591a16040519160608352600c60608401527f766f74696e67506572696f640000000000000000000000000000000000000000608084015260208301526040820152a1005b5f80fd5b50346101fa5760203660031901126101fa57610218611811565b610220611827565b6001600160a01b0380911691821561027a57506001548273ffffffffffffffffffffffffffffffffffffffff19821617600155167f8be0079c531659141344cd1fd0a4f28419497f9722a3daafe3b4186f6b6457e05f80a3005b60849060206040519162461bcd60e51b8352820152602660248201527f4f776e61626c653a206e6577206f776e657220697320746865207a65726f206160448201527f64647265737300000000000000000000000000000000000000000000000000006064820152fd5b50346101fa5760203660031901126101fa576102fe611811565b90610307611827565b6001600160a01b038092169161031e83151561187f565b60015416821461036e5750805f52600a60205260405f2060ff19815416905560096020525f60408120557f1ebe834e73d60a5fec822c1e1727d34bc79f2ad977ed504581cc1822fe20fb5b5f80a2005b60649060206040519162461bcd60e51b8352820152601360248201527f43616e6e6f742072656d6f7665206f776e6572000000000000000000000000006044820152fd5b346101fa5760203660031901126101fa576001600160a01b036103d3611811565b165f52600a602052602060ff60405f2054166040519015158152f35b50346101fa5760203660031901126101fa578035906104116008548310611a27565b815f52600760205260405f206001600160a01b03806001830154163314908115610517575b50156104d357600b019081549061045060ff831615611a72565b60ff8260081c1661048f575061ff00191661010017905533907f253042c67143aeb6d431bb762d75e5905f18fa7850b7b9edb31fedb7c362d7e85f80a3005b60649060206040519162461bcd60e51b8352820152601960248201527f50726f706f73616c20616c72656164792063616e63656c6564000000000000006044820152fd5b60648260206040519162461bcd60e51b8352820152601860248201527f4e6f7420617574686f72697a656420746f2063616e63656c00000000000000006044820152fd5b90506001541633145f610436565b346101fa575f3660031901126101fa576020600854604051908152f35b50346101fa5760203660031901126101fa5780356105636008548210611a27565b5f52600760205260405f2080549060ff6001600160a01b038060018401541694830154169160078101546008820154600983015490600a8401549261060960036105fb600b880154976105db604051916105cb836105c48160028501611680565b0384611741565b6105c46040518096819301611680565b6040519c8d9c8d5260208d015260408c61016091829101528c0190611763565b908a820360608c0152611763565b96608089015260a088015260c087015260e0860152610100850152818116151561012085015260081c1615156101408301520390f35b346101fa5760203660031901126101fa576001600160a01b03610660611811565b165f526009602052602060405f2054604051908152f35b346101fa575f3660031901126101fa5760206001600160a01b0360015416604051908152f35b50346101fa575f3660031901126101fa5760a0905f60806040516106c081611711565b82815282602082015282604082015282606082015201526040516106e381611711565b6002549182825260035490602083019182525460408301908152600554916060840192835260806006549401938452604051948552516020850152516040840152516060830152516080820152f35b346101fa5760403660031901126101fa5761074b611811565b6001600160a01b036024359161075f611827565b16805f52600a60205261077860ff60405f205416611915565b6107838215156118ca565b5f52600960205260405f20555f80f35b50346101fa5760203660031901126101fa57356107b36008548210611a27565b5f526007602052602060405f2060088101549081421015918261084a575b508161083a575b81610827575b81610815575b816107f5575b506040519015158152f35b61080a9150600a6009820154910154906119b3565b60055411155f6107ea565b6009810154600a8201541091506107e4565b600b81015460081c60ff161591506107de565b600b81015460ff161591506107d8565b610859919250600654906119b3565b421015905f6107d1565b50346101fa575f3660031901126101fa5760a09060025490600354905460055490600654926040519485526020850152604084015260608301526080820152f35b346101fa575f3660031901126101fa576108bc611827565b5f6001600160a01b0360015473ffffffffffffffffffffffffffffffffffffffff198116600155167f8be0079c531659141344cd1fd0a4f28419497f9722a3daafe3b4186f6b6457e08280a3005b346101fa5760203660031901126101fa5760206001600160a01b038061092e611811565b16805f52600a835260ff60405f205416918215610952575b50506040519015158152f35b600154161490508280610946565b346101fa5760403660031901126101fa57610979611811565b7f83ac20e2637247e58a2d9b27c934067aa1e542c270876c557f5b8e64cf3c88a760206001600160a01b03602435936109b0611827565b16926109bd84151561187f565b6109c88115156118ca565b835f52600a825260405f20600160ff19825416179055600982528060405f2055604051908152a2005b50346101fa5760a03660031901126101fa5767ffffffffffffffff9080358281116101fa57610a2390369083016117f3565b916024358181116101fa57610a3b90369084016117f3565b90604435916001600160a01b0380841684036101fa576064358381116101fa57366023820112156101fa57610a7990369060248189013591016117bd565b335f52600a60205260ff60405f2054168015610f83575b610a9990611915565b610aa16119d4565b335f52600960205260405f2054865411610f3f57865115610efb57825115610eb75781851615610e7357600854955f198714610e605760018701600855865f52600760205260405f2093878555600185019073ffffffffffffffffffffffffffffffffffffffff199133838254161790558951878111610ddc576002870190610b3481610b2e8454611648565b84611960565b806020601f8211600114610dfa575f91610def575b508160011b915f199060031b1c19161790555b8051878111610ddc57806003880192610b7f82610b798654611648565b86611960565b602090601f8311600114610d74575f92610d69575b50508160011b915f199060031b1c19161790555b81850190848816908254161790558151948511610d56575091602096918693610be186610bd86005860154611648565b60058601611960565b8890601f8711600114610cc6579580917ffcbc93e90de1f3909139448eea84876f427c600d8e1706f36918b4c5635c021396975f92610cbb575b50508160011b915f199060031b1c19161760058301555b6084356006830155610c46600254426119b3565b90816007840155600b610c67610c5e600254426119b3565b600354906119b3565b938460088201555f60098201555f600a8201550161ffff198154169055610c9960405194608086526080860190611763565b961688840152604083015260608201528033940390a360015f55604051908152f35b015190505f80610c1b565b9590600584015f52895f20965f5b601f1984168110610d3c57509682917ffcbc93e90de1f3909139448eea84876f427c600d8e1706f36918b4c5635c02139798600194601f19811610610d24575b505050811b016005830155610c32565b01515f1960f88460031b161c191690555f8080610d14565b8282015189556001909801978a9750918b01918b01610cd4565b604190634e487b7160e01b5f525260245ffd5b015190505f80610b94565b9250835f5260205f20905f935b601f1984168510610dc1576001945083601f19811610610da9575b505050811b019055610ba8565b01515f1960f88460031b161c191690555f8080610d9c565b81810151835560209485019460019093019290910190610d81565b604184634e487b7160e01b5f525260245ffd5b90508c01515f610b49565b8d9250835f5260205f20905f935b601f1984168510610e48576001945083601f19811610610e30575b505050811b019055610b5c565b01515f1960f88460031b161c191690555f808e610e23565b8101518255602093840193600190920191018e610e08565b601190634e487b7160e01b5f525260245ffd5b60648660206040519162461bcd60e51b8352820152601660248201527f496e76616c6964207461726765742061646472657373000000000000000000006044820152fd5b60648660206040519162461bcd60e51b8352820152601360248201527f496e76616c6964206465736372697074696f6e000000000000000000000000006044820152fd5b60648660206040519162461bcd60e51b8352820152600d60248201527f496e76616c6964207469746c65000000000000000000000000000000000000006044820152fd5b60648660206040519162461bcd60e51b8352820152601960248201527f496e73756666696369656e7420766f74696e6720706f776572000000000000006044820152fd5b5060015482163314610a90565b50346101fa5760403660031901126101fa578035602435801515908181036101fa57335f52602090600a825260ff60405f20541680156111d6575b610fd490611915565b610fe16008548510611a27565b835f526007825260405f209060078201544210611193576008820154421161115057600c8201335f5280845260ff60405f20541661110d5761103960ff600b85015461102f82821615611a72565b60081c1615611abd565b335f526009845260405f20549687156110ca5750335f52835260405f20600160ff19825416179055600d820183528560405f20555f146110b5576009016110818582546119b3565b90555b6040519384528301527fb898e75d5aac8de2f407e4a683c8d909e832d1e371e3bff0fa3ed934e88d956260403393a3005b600a016110c38582546119b3565b9055611084565b606490856040519162461bcd60e51b8352820152600f60248201527f4e6f20766f74696e6720706f77657200000000000000000000000000000000006044820152fd5b606487856040519162461bcd60e51b8352820152600d60248201527f416c726561647920766f746564000000000000000000000000000000000000006044820152fd5b606486846040519162461bcd60e51b8352820152600c60248201527f566f74696e6720656e64656400000000000000000000000000000000000000006044820152fd5b606486846040519162461bcd60e51b8352820152601260248201527f566f74696e67206e6f74207374617274656400000000000000000000000000006044820152fd5b50610fd46001600160a01b036001541633149050610fcb565b50346101fa57602090816003193601126101fa57803590335f52600a835260ff60405f20541680156114f9575b61122590611915565b6112326008548310611a27565b61123a6119d4565b815f526007835260405f209260088401548042106114b65760065461125e916119b3565b421061147357600b840193845461127860ff821615611a72565b61128860ff8260081c1615611abd565b6009820154600a830154908181111561143057906112a5916119b3565b600554116113ed576001958660ff198093161790556001600160a01b03848301541691600560068201549101604051925f9180546112e281611648565b92818c169182156113d95750506001146113a4575b5050915f939181859403925af13d1561139f573d611314816117a1565b906113226040519283611741565b81525f833d92013e5b1561135c57505033907f9c85b616f29fca57a17eafe71cf9ff82ffef41766e2cf01ea7f8f7878dd3ec245f80a35f55005b606492506040519162461bcd60e51b8352820152601960248201527f50726f706f73616c20657865637574696f6e206661696c6564000000000000006044820152fd5b61132b565b9091505f52845f2085895f925b8484106113c757505050908301905081836112f7565b805484880152019101908987916113b1565b1686525050801515028301905081836112f7565b606484846040519162461bcd60e51b8352820152600e60248201527f51756f72756d206e6f74206d65740000000000000000000000000000000000006044820152fd5b606486866040519162461bcd60e51b8352820152601360248201527f50726f706f73616c206e6f7420706173736564000000000000000000000000006044820152fd5b606492506040519162461bcd60e51b8352820152601760248201527f457865637574696f6e2064656c6179206e6f74206d65740000000000000000006044820152fd5b606483836040519162461bcd60e51b8352820152601060248201527f566f74696e67206e6f7420656e646564000000000000000000000000000000006044820152fd5b506112256001600160a01b03600154163314905061121c565b9050346101fa5760203660031901126101fa5781355f52600760205260405f20918254916001600160a01b039384600182015416948280600284019061155791611680565b036115629084611741565b60405193846115748160038601611680565b0361157f9086611741565b820154604051949116846115968160058601611680565b036115a19086611741565b600683015494600784015490600885015492600986015494600a87015496600b0154976040519b8c9b8c5260208c01526101a08060408d01528b016115e591611763565b8a810360608c01526115f691611763565b9060808a015288810360a08a015261160d91611763565b9560c088015260e087015261010086015261012085015261014084015260ff8116151561016084015260081c60ff1615156101808301520390f35b90600182811c92168015611676575b602083101461166257565b634e487b7160e01b5f52602260045260245ffd5b91607f1691611657565b905f929180549161169083611648565b9182825260019384811690815f146116ee57506001146116b1575b50505050565b90919394505f52602092835f2092845f945b8386106116da57505050500101905f8080806116ab565b8054858701830152940193859082016116c3565b9294505050602093945060ff191683830152151560051b0101905f8080806116ab565b60a0810190811067ffffffffffffffff82111761172d57604052565b634e487b7160e01b5f52604160045260245ffd5b90601f8019910116810190811067ffffffffffffffff82111761172d57604052565b91908251928382525f5b84811061178d575050825f602080949584010152601f8019910116010190565b60208183018101518483018201520161176d565b67ffffffffffffffff811161172d57601f01601f191660200190565b9291926117c9826117a1565b916117d76040519384611741565b8294818452818301116101fa578281602093845f960137010152565b9080601f830112156101fa5781602061180e933591016117bd565b90565b600435906001600160a01b03821682036101fa57565b6001600160a01b0360015416330361183b57565b606460405162461bcd60e51b815260206004820152602060248201527f4f776e61626c653a2063616c6c6572206973206e6f7420746865206f776e65726044820152fd5b1561188657565b606460405162461bcd60e51b815260206004820152601860248201527f496e76616c696420676f7665726e6f72206164647265737300000000000000006044820152fd5b156118d157565b606460405162461bcd60e51b815260206004820152601460248201527f496e76616c696420766f74696e6720706f7765720000000000000000000000006044820152fd5b1561191c57565b606460405162461bcd60e51b815260206004820152600e60248201527f4e6f74206120676f7665726e6f720000000000000000000000000000000000006044820152fd5b90601f811161196e57505050565b5f91825260208220906020601f850160051c830194106119a9575b601f0160051c01915b82811061199e57505050565b818155600101611992565b9092508290611989565b919082018092116119c057565b634e487b7160e01b5f52601160045260245ffd5b60025f54146119e35760025f55565b606460405162461bcd60e51b815260206004820152601f60248201527f5265656e7472616e637947756172643a207265656e7472616e742063616c6c006044820152fd5b15611a2e57565b606460405162461bcd60e51b815260206004820152601760248201527f50726f706f73616c20646f6573206e6f742065786973740000000000000000006044820152fd5b15611a7957565b606460405162461bcd60e51b815260206004820152601960248201527f50726f706f73616c20616c7265616479206578656375746564000000000000006044820152fd5b15611ac457565b606460405162461bcd60e51b815260206004820152601160248201527f50726f706f73616c2063616e63656c65640000000000000000000000000000006044820152fdfea26469706673582212206ae89d607816a309cbd564cce096acf3071cced9b8c47ccc30ded442c3b0635c64736f6c63430008140033",
  "linkReferences": {},
  "deployedLinkReferences": {}
}