{
  "_format": "hh-sol-artifact-1",
  "contractName": "ComplianceChecker",
  "sourceName": "contracts/utility/ComplianceChecker.sol",
  "abi": [
    {
      "inputs": [
        {
          "internalType": "address",
          "name": "_kycDataStorage",
          "type": "address"
        },
        {
          "internalType": "address",
          "name": "_tenantConfigStorage",
          "type": "address"
        },
        {
          "internalType": "address",
          "name": "_didCredentialStorage",
          "type": "address"
        }
      ],
      "stateMutability": "nonpayable",
      "type": "constructor"
    },
    {
      "anonymous": false,
      "inputs": [
        {
          "indexed": true,
          "internalType": "address",
          "name": "writer",
          "type": "address"
        },
        {
          "indexed": false,
          "internalType": "bool",
          "name": "authorized",
          "type": "bool"
        }
      ],
      "name": "AuthorizedWriterUpdated",
      "type": "event"
    },
    {
      "anonymous": false,
      "inputs": [
        {
          "indexed": true,
          "internalType": "address",
          "name": "user",
          "type": "address"
        },
        {
          "indexed": false,
          "internalType": "string",
          "name": "jurisdiction",
          "type": "string"
        },
        {
          "indexed": false,
          "internalType": "bool",
          "name": "isCompliant",
          "type": "bool"
        },
        {
          "indexed": false,
          "internalType": "uint256",
          "name": "riskScore",
          "type": "uint256"
        }
      ],
      "name": "ComplianceChecked",
      "type": "event"
    },
    {
      "anonymous": false,
      "inputs": [
        {
          "indexed": false,
          "internalType": "string",
          "name": "field",
          "type": "string"
        },
        {
          "indexed": false,
          "internalType": "uint256",
          "name": "oldValue",
          "type": "uint256"
        },
        {
          "indexed": false,
          "internalType": "uint256",
          "name": "newValue",
          "type": "uint256"
        }
      ],
      "name": "ComplianceConfigUpdated",
      "type": "event"
    },
    {
      "anonymous": false,
      "inputs": [
        {
          "indexed": false,
          "internalType": "string",
          "name": "jurisdiction",
          "type": "string"
        },
        {
          "indexed": false,
          "internalType": "string",
          "name": "field",
          "type": "string"
        },
        {
          "indexed": false,
          "internalType": "bool",
          "name": "value",
          "type": "bool"
        }
      ],
      "name": "JurisdictionRulesUpdated",
      "type": "event"
    },
    {
      "inputs": [],
      "name": "CONTRACT_NAME",
      "outputs": [
        {
          "internalType": "string",
          "name": "",
          "type": "string"
        }
      ],
      "stateMutability": "view",
      "type": "function"
    },
    {
      "inputs": [],
      "name": "VERSION",
      "outputs": [
        {
          "internalType": "uint256",
          "name": "",
          "type": "uint256"
        }
      ],
      "stateMutability": "view",
      "type": "function"
    },
    {
      "inputs": [
        {
          "internalType": "address",
          "name": "",
          "type": "address"
        }
      ],
      "name": "authorizedWriters",
      "outputs": [
        {
          "internalType": "bool",
          "name": "",
          "type": "bool"
        }
      ],
      "stateMutability": "view",
      "type": "function"
    },
    {
      "inputs": [
        {
          "internalType": "address",
          "name": "user",
          "type": "address"
        },
        {
          "internalType": "string",
          "name": "jurisdiction",
          "type": "string"
        },
        {
          "internalType": "string",
          "name": "tenantId",
          "type": "string"
        }
      ],
      "name": "checkCompliance",
      "outputs": [
        {
          "components": [
            {
              "internalType": "bool",
              "name": "isCompliant",
              "type": "bool"
            },
            {
              "internalType": "string[]",
              "name": "violations",
              "type": "string[]"
            },
            {
              "internalType": "uint256",
              "name": "riskScore",
              "type": "uint256"
            },
            {
              "internalType": "string",
              "name": "jurisdiction",
              "type": "string"
            },
            {
              "internalType": "uint256",
              "name": "expiresAt",
              "type": "uint256"
            }
          ],
          "internalType": "struct ComplianceChecker.ComplianceResult",
          "name": "",
          "type": "tuple"
        }
      ],
      "stateMutability": "view",
      "type": "function"
    },
    {
      "inputs": [],
      "name": "complianceConfig",
      "outputs": [
        {
          "internalType": "uint256",
          "name": "maxRiskScore",
          "type": "uint256"
        },
        {
          "internalType": "uint256",
          "name": "defaultExpiryDuration",
          "type": "uint256"
        },
        {
          "internalType": "bool",
          "name": "allowCrossJurisdiction",
          "type": "bool"
        },
        {
          "internalType": "bool",
          "name": "requireCredentialVerification",
          "type": "bool"
        },
        {
          "internalType": "bool",
          "name": "enableRiskScoring",
          "type": "bool"
        }
      ],
      "stateMutability": "view",
      "type": "function"
    },
    {
      "inputs": [],
      "name": "didCredentialStorage",
      "outputs": [
        {
          "internalType": "contract DIDCredentialStorage",
          "name": "",
          "type": "address"
        }
      ],
      "stateMutability": "view",
      "type": "function"
    },
    {
      "inputs": [],
      "name": "getComplianceConfig",
      "outputs": [
        {
          "components": [
            {
              "internalType": "uint256",
              "name": "maxRiskScore",
              "type": "uint256"
            },
            {
              "internalType": "uint256",
              "name": "defaultExpiryDuration",
              "type": "uint256"
            },
            {
              "internalType": "bool",
              "name": "allowCrossJurisdiction",
              "type": "bool"
            },
            {
              "internalType": "bool",
              "name": "requireCredentialVerification",
              "type": "bool"
            },
            {
              "internalType": "bool",
              "name": "enableRiskScoring",
              "type": "bool"
            }
          ],
          "internalType": "struct ComplianceChecker.ComplianceConfig",
          "name": "",
          "type": "tuple"
        }
      ],
      "stateMutability": "view",
      "type": "function"
    },
    {
      "inputs": [
        {
          "internalType": "address",
          "name": "user",
          "type": "address"
        },
        {
          "internalType": "string",
          "name": "jurisdiction",
          "type": "string"
        },
        {
          "internalType": "string",
          "name": "tenantId",
          "type": "string"
        }
      ],
      "name": "getComplianceViolations",
      "outputs": [
        {
          "internalType": "string[]",
          "name": "",
          "type": "string[]"
        }
      ],
      "stateMutability": "view",
      "type": "function"
    },
    {
      "inputs": [
        {
          "internalType": "string",
          "name": "jurisdiction",
          "type": "string"
        }
      ],
      "name": "getJurisdictionRules",
      "outputs": [
        {
          "components": [
            {
              "internalType": "uint256",
              "name": "maxRiskScore",
              "type": "uint256"
            },
            {
              "internalType": "uint256",
              "name": "expiryDuration",
              "type": "uint256"
            },
            {
              "internalType": "bool",
              "name": "requiresAddressVerification",
              "type": "bool"
            },
            {
              "internalType": "bool",
              "name": "requiresPhoneVerification",
              "type": "bool"
            },
            {
              "internalType": "bool",
              "name": "requiresEmailVerification",
              "type": "bool"
            },
            {
              "internalType": "string[]",
              "name": "requiredCredentialTypes",
              "type": "string[]"
            },
            {
              "internalType": "bool",
              "name": "isActive",
              "type": "bool"
            }
          ],
          "internalType": "struct ComplianceChecker.JurisdictionRules",
          "name": "",
          "type": "tuple"
        }
      ],
      "stateMutability": "view",
      "type": "function"
    },
    {
      "inputs": [
        {
          "internalType": "address",
          "name": "writer",
          "type": "address"
        }
      ],
      "name": "isAuthorizedWriter",
      "outputs": [
        {
          "internalType": "bool",
          "name": "",
          "type": "bool"
        }
      ],
      "stateMutability": "view",
      "type": "function"
    },
    {
      "inputs": [
        {
          "internalType": "address",
          "name": "user",
          "type": "address"
        },
        {
          "internalType": "string",
          "name": "jurisdiction",
          "type": "string"
        },
        {
          "internalType": "string",
          "name": "tenantId",
          "type": "string"
        }
      ],
      "name": "isCompliant",
      "outputs": [
        {
          "internalType": "bool",
          "name": "",
          "type": "bool"
        }
      ],
      "stateMutability": "view",
      "type": "function"
    },
    {
      "inputs": [
        {
          "internalType": "string",
          "name": "",
          "type": "string"
        }
      ],
      "name": "jurisdictionRules",
      "outputs": [
        {
          "internalType": "uint256",
          "name": "maxRiskScore",
          "type": "uint256"
        },
        {
          "internalType": "uint256",
          "name": "expiryDuration",
          "type": "uint256"
        },
        {
          "internalType": "bool",
          "name": "requiresAddressVerification",
          "type": "bool"
        },
        {
          "internalType": "bool",
          "name": "requiresPhoneVerification",
          "type": "bool"
        },
        {
          "internalType": "bool",
          "name": "requiresEmailVerification",
          "type": "bool"
        },
        {
          "internalType": "bool",
          "name": "isActive",
          "type": "bool"
        }
      ],
      "stateMutability": "view",
      "type": "function"
    },
    {
      "inputs": [],
      "name": "kycDataStorage",
      "outputs": [
        {
          "internalType": "contract KYCDataStorage",
          "name": "",
          "type": "address"
        }
      ],
      "stateMutability": "view",
      "type": "function"
    },
    {
      "inputs": [],
      "name": "owner",
      "outputs": [
        {
          "internalType": "address",
          "name": "",
          "type": "address"
        }
      ],
      "stateMutability": "view",
      "type": "function"
    },
    {
      "inputs": [
        {
          "internalType": "address",
          "name": "writer",
          "type": "address"
        },
        {
          "internalType": "bool",
          "name": "authorized",
          "type": "bool"
        }
      ],
      "name": "setAuthorizedWriter",
      "outputs": [],
      "stateMutability": "nonpayable",
      "type": "function"
    },
    {
      "inputs": [],
      "name": "tenantConfigStorage",
      "outputs": [
        {
          "internalType": "contract TenantConfigStorage",
          "name": "",
          "type": "address"
        }
      ],
      "stateMutability": "view",
      "type": "function"
    },
    {
      "inputs": [
        {
          "internalType": "uint256",
          "name": "_maxRiskScore",
          "type": "uint256"
        },
        {
          "internalType": "uint256",
          "name": "_defaultExpiryDuration",
          "type": "uint256"
        },
        {
          "internalType": "bool",
          "name": "_allowCrossJurisdiction",
          "type": "bool"
        },
        {
          "internalType": "bool",
          "name": "_requireCredentialVerification",
          "type": "bool"
        },
        {
          "internalType": "bool",
          "name": "_enableRiskScoring",
          "type": "bool"
        }
      ],
      "name": "updateComplianceConfig",
      "outputs": [],
      "stateMutability": "nonpayable",
      "type": "function"
    },
    {
      "inputs": [
        {
          "internalType": "string",
          "name": "jurisdiction",
          "type": "string"
        },
        {
          "internalType": "uint256",
          "name": "maxRiskScore",
          "type": "uint256"
        },
        {
          "internalType": "uint256",
          "name": "expiryDuration",
          "type": "uint256"
        },
        {
          "internalType": "bool",
          "name": "requiresAddressVerification",
          "type": "bool"
        },
        {
          "internalType": "bool",
          "name": "requiresPhoneVerification",
          "type": "bool"
        },
        {
          "internalType": "bool",
          "name": "requiresEmailVerification",
          "type": "bool"
        },
        {
          "internalType": "string[]",
          "name": "requiredCredentialTypes",
          "type": "string[]"
        },
        {
          "internalType": "bool",
          "name": "isActive",
          "type": "bool"
        }
      ],
      "name": "updateJurisdictionRules",
      "outputs": [],
      "stateMutability": "nonpayable",
      "type": "function"
    }
  ],
  "bytecode": "0x6080346200136c57601f620036c038819003918201601f19168301916001600160401b0383118484101762000b32578084926060946040528339810103126200136c576200004d81620013b1565b906200006a60406200006260208401620013b1565b9201620013b1565b6001600055916001600160a01b0390811691821562001328578116928315620012d55716918215620012815760018060a01b031991338360095416176009553360005260086020526040600020600160ff19825416179055826001541617600155816002541617600255600354161760035560405160a0810181811060018060401b0382111762000b3257600191608091604052606481526301e133806020820152826040820152826060820152015260646004556301e133806005556201010162ffffff19600654161760065562000142620013c6565b6200014c62001391565b60088152674964656e7469747960c01b60208201526200016c8262001410565b52620001788162001410565b506200018362001391565b60078152664164647265737360c81b6020820152620001a28262001434565b52620001ae8162001434565b50620001b962001391565b60038152624b594360e81b6020820152620001d48262001445565b52620001e08162001445565b50620001eb62001371565b90603282526301e13380602083015260016040830152600060608301526001608083015260a0820152600160c0820152602260405161554b60f01b81526007600282015220815181556020820151600182015562000299600282016200026360408501511515829060ff801983541691151516179055565b6060840151815461ff00191690151560081b61ff00161781556080840151815462ff0000191690151560101b62ff000016179055565b60a082015180519068010000000000000000821162000b32576003830154826003850155808310620011fe575b5060200190600383016000526020600020916000905b828210620010d8576200030585600460c0890151151591019060ff801983541691151516179055565b6200030f620013c6565b6200031962001391565b60088152674964656e7469747960c01b6020820152620003398262001410565b52620003458162001410565b506200035062001391565b60078152664164647265737360c81b60208201526200036f8262001434565b526200037b8162001434565b506200038662001391565b60038152624b594360e81b6020820152620003a18262001445565b52620003ad8162001445565b50620003b862001371565b906032825260208201906301e13380825262000466604084016001815260608501600081526200044d60808701916001835260a08801958652600160c0890152602260405161455560f01b815260076002820152209688518855516001880155620004366002880194511515859060ff801983541691151516179055565b51835461ff00191690151560081b61ff0016178355565b51815462ff0000191690151560101b62ff000016179055565b5180519068010000000000000000821162000b3257600383015482600385015580831062001055575b5060200190600383016000526020600020916000905b82821062000f2f57620004ce85600460c0890151151591019060ff801983541691151516179055565b6040516001600160401b0360a082019081119082111762000b325760a081016040526004815260005b6080811062000f1d57506200050b62001391565b60088152674964656e7469747960c01b60208201526200052b8262001410565b52620005378162001410565b506200054262001391565b60078152664164647265737360c81b6020820152620005618262001434565b526200056d8162001434565b506200057862001391565b60038152624b594360e81b6020820152620005938262001445565b526200059f8162001445565b50620005aa62001391565b600381526210535360ea1b6020820152620005c58262001456565b52620005d18162001456565b50620005dc62001371565b90604682526301e13380602083015260016040830152600160608301526001608083015260a0820152600160c0820152602260405161555360f01b81526007600282015220815181556020820151600182015562000654600282016200026360408501511515829060ff801983541691151516179055565b60a082015180519068010000000000000000821162000b3257600383015482600385015580831062000e9a575b5060200190600383016000526020600020916000905b82821062000d7457620006c085600460c0890151151591019060ff801983541691151516179055565b620006ca620013c6565b620006d462001391565b60088152674964656e7469747960c01b6020820152620006f48262001410565b52620007008162001410565b506200070b62001391565b60078152664164647265737360c81b60208201526200072a8262001434565b52620007368162001434565b506200074162001391565b60038152624b594360e81b60208201526200075c8262001445565b52620007688162001445565b506200077362001371565b90603c825260208201906301e133808252620007f1604084016001815260608501600081526200044d60808701916001835260a08801958652600160c0890152602260405161415560f01b815260076002820152209688518855516001880155620004366002880194511515859060ff801983541691151516179055565b5180519068010000000000000000821162000b3257600383015482600385015580831062000cf1575b5060200190600383016000526020600020916000905b82821062000bcb576200085985600460c0890151151591019060ff801983541691151516179055565b62000863620013c6565b6200086d62001391565b60088152674964656e7469747960c01b60208201526200088d8262001410565b52620008998162001410565b50620008a462001391565b60078152664164647265737360c81b6020820152620008c38262001434565b52620008cf8162001434565b50620008da62001391565b60038152624b594360e81b6020820152620008f58262001445565b52620009018162001445565b506200090c62001371565b90602882526301e13380602083015260016040830152600060608301526001608083015260a0820152600160c08201526022604051615a4160f01b81526007600282015220815181556020820151600182015562000984600282016200026360408501511515829060ff801983541691151516179055565b60a082015180519068010000000000000000821162000b3257600383015482600385015580831062000b48575b5060200190600383016000526020600020916000905b82821062000a0057620009f085600460c0890151151591019060ff801983541691151516179055565b6040516122029081620014be8239f35b80518051906001600160401b03821162000b325762000a20865462001467565b601f811162000af0575b50602090601f831160011462000a7b57928260019493602093869560009262000a6f575b5050600019600383901b1c191690841b1787555b01940191019092620009c7565b015190508b8062000a4e565b908660005260206000209160005b601f198516811062000ad7575083602093600196938796938794601f1981161062000abd575b505050811b01875562000a62565b015160001960f88460031b161c191690558b808062000aaf565b9192602060018192868501518155019401920162000a89565b62000b2090876000526020600020601f850160051c8101916020861062000b27575b601f0160051c0190620014a4565b8862000a2a565b909150819062000b12565b634e487b7160e01b600052604160045260246000fd5b600384016000526020600020908382015b818301811062000b6b575050620009b1565b8062000b7a6001925462001467565b8062000b89575b500162000b59565b601f8111831462000ba15750600081555b8862000b81565b60009082825262000bc1601f60208420920160051c8201858301620014a4565b8183555562000b9a565b80518051906001600160401b03821162000b325762000beb865462001467565b601f811162000cbb575b50602090601f831160011462000c4657928260019493602093869560009262000c3a575b5050600019600383901b1c191690841b1787555b0194019101909262000830565b015190508b8062000c19565b908660005260206000209160005b601f198516811062000ca2575083602093600196938796938794601f1981161062000c88575b505050811b01875562000c2d565b015160001960f88460031b161c191690558b808062000c7a565b9192602060018192868501518155019401920162000c54565b62000cea90876000526020600020601f850160051c8101916020861062000b2757601f0160051c0190620014a4565b8862000bf5565b600384016000526020600020908382015b818301811062000d145750506200081a565b8062000d236001925462001467565b8062000d32575b500162000d02565b601f8111831462000d4a5750600081555b8862000d2a565b60009082825262000d6a601f60208420920160051c8201858301620014a4565b8183555562000d43565b80518051906001600160401b03821162000b325762000d94865462001467565b601f811162000e64575b50602090601f831160011462000def57928260019493602093869560009262000de3575b5050600019600383901b1c191690841b1787555b0194019101909262000697565b015190508b8062000dc2565b908660005260206000209160005b601f198516811062000e4b575083602093600196938796938794601f1981161062000e31575b505050811b01875562000dd6565b015160001960f88460031b161c191690558b808062000e23565b9192602060018192868501518155019401920162000dfd565b62000e9390876000526020600020601f850160051c8101916020861062000b2757601f0160051c0190620014a4565b8862000d9e565b600384016000526020600020908382015b818301811062000ebd57505062000681565b8062000ecc6001925462001467565b8062000edb575b500162000eab565b601f8111831462000ef35750600081555b8862000ed3565b60009082825262000f13601f60208420920160051c8201858301620014a4565b8183555562000eec565b806060602080938501015201620004f7565b80518051906001600160401b03821162000b325762000f4f865462001467565b601f81116200101f575b50602090601f831160011462000faa57928260019493602093869560009262000f9e575b5050600019600383901b1c191690841b1787555b01940191019092620004a5565b015190508b8062000f7d565b908660005260206000209160005b601f198516811062001006575083602093600196938796938794601f1981161062000fec575b505050811b01875562000f91565b015160001960f88460031b161c191690558b808062000fde565b9192602060018192868501518155019401920162000fb8565b6200104e90876000526020600020601f850160051c8101916020861062000b2757601f0160051c0190620014a4565b8862000f59565b600384016000526020600020908382015b8183018110620010785750506200048f565b80620010876001925462001467565b8062001096575b500162001066565b601f81118314620010ae5750600081555b886200108e565b600090828252620010ce601f60208420920160051c8201858301620014a4565b81835555620010a7565b80518051906001600160401b03821162000b3257620010f8865462001467565b601f8111620011c8575b50602090601f83116001146200115357928260019493602093869560009262001147575b5050600019600383901b1c191690841b1787555b01940191019092620002dc565b01519050388062001126565b908660005260206000209160005b601f1985168110620011af575083602093600196938796938794601f1981161062001195575b505050811b0187556200113a565b015160001960f88460031b161c1916905538808062001187565b9192602060018192868501518155019401920162001161565b620011f790876000526020600020601f850160051c8101916020861062000b2757601f0160051c0190620014a4565b3862001102565b600384016000526020600020908382015b818301811062001221575050620002c6565b80620012306001925462001467565b806200123f575b50016200120f565b601f81118314620012575750600081555b3862001237565b60009082825262001277601f60208420920160051c8201858301620014a4565b8183555562001250565b60405162461bcd60e51b815260206004820152602660248201527f496e76616c6964204449442063726564656e7469616c2073746f72616765206160448201526564647265737360d01b6064820152608490fd5b60405162461bcd60e51b815260206004820152602560248201527f496e76616c69642074656e616e7420636f6e6669672073746f72616765206164604482015264647265737360d81b6064820152608490fd5b606460405162461bcd60e51b815260206004820152602060248201527f496e76616c6964204b594320646174612073746f7261676520616464726573736044820152fd5b600080fd5b6040519060e082016001600160401b0381118382101762000b3257604052565b60408051919082016001600160401b0381118382101762000b3257604052565b51906001600160a01b03821682036200136c57565b60405190608082016001600160401b0381118382101762000b325760405260038252819060005b60608082101562001409579060209182828701015201620013ed565b5050909150565b8051156200141e5760200190565b634e487b7160e01b600052603260045260246000fd5b8051600110156200141e5760400190565b8051600210156200141e5760600190565b8051600310156200141e5760800190565b90600182811c9216801562001499575b60208310146200148357565b634e487b7160e01b600052602260045260246000fd5b91607f169162001477565b818110620014b0575050565b60008155600101620014a456fe60808060405260048036101561001457600080fd5b60003560e01c91826313caf5cb14610eb9575081631a2f010a14610e6c578163497daa8514610c50578163526241a814610c11578163542a086c14610adf578163614d08f814610a815781638da5cb5b14610a5a5781638fe9989c1461092c57816399a8539e146108805781639ff63526146107c6578163a93303a31461036d578163a977db45146102cc578163ab67dfb11461027c578163ad6e823b14610224578163b015b9b4146101fd578163b367211b1461012f57508063ff3e12ca146101085763ffa1ad74146100e757600080fd5b3461010357600036600319011261010357602060405160018152f35b600080fd5b346101035760003660031901126101035760206001600160a01b0360025416604051908152f35b34610103576000610198610142366110c1565b61015a6001600160a01b03849593979416151561121a565b6101668651151561117e565b60405195869485947f9ff635260000000000000000000000000000000000000000000000000000000086528501611b63565b0381305afa9081156101f1576101ca916020916000916101ce575b500151604051918291602083526020830190611031565b0390f35b6101eb91503d806000833e6101e38183610f64565b810190611ad2565b836101b3565b6040513d6000823e3d90fd5b346101035760003660031901126101035760206001600160a01b0360035416604051908152f35b346101035760203660031901126101035760206001600160a01b038061024861108d565b16806000526008835260ff6040600020541691821561026e575b50506040519015158152f35b600954161490508280610262565b3461010357600061028f610142366110c1565b0381305afa80156101f1576020916000916102b1575b50511515604051908152f35b6102c691503d806000833e6101e38183610f64565b826102a5565b346101035760203660031901126101035780359067ffffffffffffffff821161010357610316602061030360c09436908501610fa2565b8160405193828580945193849201610fe9565b810160078152030190209060ff8254928160018201549360028301549201541692604051948552602085015281811615156040850152818160081c161515606085015260101c1615156080830152151560a0820152f35b346101035761010036600319011261010357803567ffffffffffffffff81116101035761039d9036908301610fa2565b6103a56110a3565b6103ad6110b2565b60a435918215158093036101035760c4359067ffffffffffffffff8211610103573660238301121561010357818601356103e68161111b565b926103f46040519485610f64565b8184526024602085019260051b820101903682116101035760248101925b828410610796575050505060e43593841515809503610103576104416001600160a01b03600954163314611133565b61044d8651151561117e565b6040519361045a85610edd565b6024358552602085019560443587526040860193151584526060860191151582526080860192835260a0860194855260c0860152604051602081816104a58b83815193849201610fe9565b8101600781520301902095855187555160018701556104d76002870193511515849060ff801983541691151516179055565b5115159061ff0062ff000084549251151560101b169260081b169062ffff0019161717905551805190680100000000000000008211610781576003840154826003860155808310610708575b506020016003840160005260206000206000915b8383106105d2577f06ff5112c09f5f0994ace775479bd5dccc73eaf0db0b7d05402cec81a178a33d8761057f888b60c08a0151151591019060ff801983541691151516179055565b604061059581519260608452606084019061100c565b7f72756c657300000000000000000000000000000000000000000000000000000060208483039283828701526005815201526001828401520190a1005b805180519067ffffffffffffffff82116106f3576105f084546111c9565b601f81116106b6575b50602090601f831160011461064657928260019493602093869560009261063b575b5050600019600383901b1c191690841b1785555b01920192019190610537565b015190508d8061061b565b908460005260206000209160005b601f198516811061069e575083602093600196938796938794601f19811610610685575b505050811b01855561062f565b015160001960f88460031b161c191690558d8080610678565b91926020600181928685015181550194019201610654565b6106e390856000526020600020601f850160051c810191602086106106e9575b601f0160051c0190611203565b8a6105f9565b90915081906106d6565b60418a634e487b7160e01b6000525260246000fd5b600385016000526020600020908382015b8183018110610729575050610523565b80610736600192546111c9565b80610743575b5001610719565b601f90818111841461075c575050600081555b8a61073c565b61077860009284845260208420920160051c8201858301611203565b81835555610756565b604186634e487b7160e01b6000525260246000fd5b833567ffffffffffffffff8111610103576020916107bb839260243691870101610fa2565b815201930192610412565b34610103576108256107d7366110c1565b91600060806040516107e881610f0f565b8281526060602082015282604082015260608082015201526108146001600160a01b038216151561121a565b6108208251151561117e565b6113e2565b6040518091602082528051151560208301526080610874610855602084015160a0604087015260c0860190611031565b604084015160608601526060840151601f19868303018487015261100c565b91015160a08301520390f35b346101035760003660031901126101035760a090600060806040516108a481610f0f565b8281528260208201528260408201528260608201520152604051906108c882610f0f565b5490818152600554906020810191825260065491604082019060ff84161515825260ff60806060850194828760081c1615158652019460101c1615158452604051948552516020850152511515604084015251151560608301525115156080820152f35b346101035760a036600319011261010357803560243591604435928315158094036101035760a093849361095e6110a3565b916109676110b2565b9261097e6001600160a01b03600954163314611133565b61ff008654948460055498558660055560ff62ff000060065492151560101b1694169062ffffff19161791151560081b1617176006556040519160608352600c60608401527f6d61785269736b53636f726500000000000000000000000000000000000000006080840152602083015260408201527f653aeceab31b91df87fe59b20c6540d77cd5f613580bbb0a386ca88ed46a11e1948591a16040519160608352601560608401527f64656661756c744578706972794475726174696f6e0000000000000000000000608084015260208301526040820152a1005b346101035760003660031901126101035760206001600160a01b0360095416604051908152f35b34610103576000366003190112610103576101ca604051610aa181610f48565b601181527f436f6d706c69616e6365436865636b6572000000000000000000000000000000602082015260405191829160208352602083019061100c565b3461010357604036600319011261010357610af861108d565b60243580151591828203610103576001600160a01b0390610b1e82600954163314611133565b600260005414610bcd57600260005516928315610b8957507e8ebc621f24e0e9d1fd4ee2f7df9bb80c8d61ee30a9167a4fee6cefcf8c021e91610b7b602092856000526008845260406000209060ff801983541691151516179055565b604051908152a26001600055005b60649060206040519162461bcd60e51b8352820152601660248201527f496e76616c6964207772697465722061646472657373000000000000000000006044820152fd5b60648560206040519162461bcd60e51b8352820152601f60248201527f5265656e7472616e637947756172643a207265656e7472616e742063616c6c006044820152fd5b34610103576020366003190112610103576001600160a01b03610c3261108d565b166000526008602052602060ff604060002054166040519015158152f35b3461010357602036600319011261010357803567ffffffffffffffff8111610103576020610c84610cc39236908501610fa2565b600060c0604051610c9481610edd565b8281528285820152826040820152826060820152826080820152606060a082015201526103038151151561117e565b8101600781520301902090604051610cda81610edd565b8254815260018301546020820152600283015492604082019260ff85161515845260ff6060840195818160081c161515875260101c16151560808401526003820191825492610d288461111b565b93610d366040519586610f64565b80855260208501916000526020600020916000905b828210610dc7575050505060ff610dba939260809260a087019485520154169360c0810194151585526040519687966020885282516020890152602083015160408901525115156060880152511515828701520151151560a08501525160e060c0850152610100840190611031565b9051151560e08301520390f35b60405160008554610dd7816111c9565b8084529060018116908115610e495750600114610e11575b5060019282610e0385946020940382610f64565b815201940191019092610d4b565b6000878152602081209092505b818310610e3357505081016020016001610def565b6001816020925483868801015201920191610e1e565b60ff191660208581019190915291151560051b8401909101915060019050610def565b346101035760003660031901126101035760a0905460ff60055460065490604051938452602084015281811615156040840152818160081c161515606084015260101c1615156080820152f35b34610103576000366003190112610103576020906001600160a01b03600154168152f35b60e0810190811067ffffffffffffffff821117610ef957604052565b634e487b7160e01b600052604160045260246000fd5b60a0810190811067ffffffffffffffff821117610ef957604052565b610120810190811067ffffffffffffffff821117610ef957604052565b6040810190811067ffffffffffffffff821117610ef957604052565b90601f8019910116810190811067ffffffffffffffff821117610ef957604052565b67ffffffffffffffff8111610ef957601f01601f191660200190565b81601f8201121561010357803590610fb982610f86565b92610fc76040519485610f64565b8284526020838301011161010357816000926020809301838601378301015290565b60005b838110610ffc5750506000910152565b8181015183820152602001610fec565b9060209161102581518092818552858086019101610fe9565b601f01601f1916010190565b908082519081815260208091019281808460051b8301019501936000915b84831061105f5750505050505090565b909192939495848061107d600193601f198682030187528a5161100c565b980193019301919493929061104f565b600435906001600160a01b038216820361010357565b60643590811515820361010357565b60843590811515820361010357565b6060600319820112610103576004356001600160a01b0381168103610103579167ffffffffffffffff602435818111610103578361110191600401610fa2565b926044359182116101035761111891600401610fa2565b90565b67ffffffffffffffff8111610ef95760051b60200190565b1561113a57565b606460405162461bcd60e51b815260206004820152600a60248201527f4f6e6c79206f776e6572000000000000000000000000000000000000000000006044820152fd5b1561118557565b606460405162461bcd60e51b815260206004820152601460248201527f496e76616c6964206a7572697364696374696f6e0000000000000000000000006044820152fd5b90600182811c921680156111f9575b60208310146111e357565b634e487b7160e01b600052602260045260246000fd5b91607f16916111d8565b81811061120e575050565b60008155600101611203565b1561122157565b606460405162461bcd60e51b815260206004820152601460248201527f496e76616c6964207573657220616464726573730000000000000000000000006044820152fd5b9061126f8261111b565b61127c6040519182610f64565b828152809261128d601f199161111b565b019060005b82811061129e57505050565b806060602080938501015201611292565b5190811515820361010357565b81601f820112156101035780516112d281610f86565b926112e06040519485610f64565b81845260208284010111610103576111189160208085019101610fe9565b51906001600160a01b038216820361010357565b9080601f830112156101035781519061132a8261111b565b926113386040519485610f64565b828452602092838086019160051b8301019280841161010357848301915b8483106113665750505050505090565b825167ffffffffffffffff8111610103578691611388848480948901016112bc565b815201920191611356565b60001981146113a25760010190565b634e487b7160e01b600052601160045260246000fd5b80518210156113cc5760209160051b010190565b634e487b7160e01b600052603260045260246000fd5b6040805167ffffffffffffffff949193909260209182850187811186821017610ef957865260009384865286519761141989610f0f565b60018952848901968752878901908682528360608b015260808a01878152895160ff60048751928a81818b0195611451818389610fe9565b8101600781520301902001541615611a87576001600160a01b03918b8a8460248b8260015416945194859384927fab47a2f90000000000000000000000000000000000000000000000000000000084521660048301525afa908115611a7d578b91611986575b50805115611939576080810151156118ec5760a081019081514210156118995760600195865190525190526114f9888551928d51809381928b51928391610fe9565b81016007815203019020541061180d575b83516115dc575b5050505060ff60065460081c1661152c575b50505050505090565b61153591611b97565b918251611543575b80611523565b8086979293949597525b83518110156115cc576115c7906115c0865161156983886113b8565b51906115bb8b51927f4d697373696e672063726564656e7469616c3a20000000000000000000000000898501528381516115ab816034948d8686019101610fe9565b8101036014810185520183610f64565b612154565b8652611393565b61154d565b509450505050388080808061153d565b600254169289517fab1dd0c400000000000000000000000000000000000000000000000000000000815287600482015287818061161c602482018661100c565b0381885afa908115611803579089929183916117c9575b501561178357611677948b5180809781947fd2fc78910000000000000000000000000000000000000000000000000000000083528c6004840152602483019061100c565b03915afa9283156117795787936116e4575b5050511161169b575b38808080611511565b8387526116dd85518751906116af82610f48565b601e82527f5269736b2073636f726520746f6f206869676820666f722074656e616e74000086830152612154565b8552611692565b909192503d8088833e6116f78183610f64565b810160c08282031261177557815183811161177157816117189184016112bc565b50868201518381116117715781611730918401611312565b5089820151926060830151908111611771579161175460a092611768948301611312565b50611761608082016112af565b50016112fe565b50903880611689565b8880fd5b8780fd5b89513d89823e3d90fd5b509250505087526116dd855187519061179b82610f48565b601182527f54656e616e74206e6f742061637469766500000000000000000000000000000086830152612154565b80929350898092503d83116117fc575b6117e38183610f64565b8101031261177157906117f689926112af565b38611633565b503d6117d9565b8b513d8b823e3d90fd5b878b5288518a51906060820182811085821117611885578c52602482527f5269736b2073636f726520746f6f206869676820666f72206a75726973646963898301527f74696f6e000000000000000000000000000000000000000000000000000000008c83015261187e9190612154565b895261150a565b60248b634e487b7160e01b81526041600452fd5b5050505050505050505090926118e7929385527f4b5943206578706972656400000000000000000000000000000000000000000084519151926118db84610f48565b600b8452830152612154565b905290565b50505050505050505090926118e7929385527f4b5943206e6f7420616374697665000000000000000000000000000000000000845191519261192d84610f48565b600e8452830152612154565b50505050505050505090926118e7929385527f55736572206e6f74204b59432076657269666965640000000000000000000000845191519261197a84610f48565b60158452830152612154565b90503d808c833e6119978183610f64565b8101908a81830312611a7557805190868211611a79570161012081830312611a75578d51916119c583610f2b565b6119ce826112af565b83528b820151878111611a71578f90826119e99185016112bc565b8d850152808301519084015260608201516060840152611a0b608083016112af565b608084015260a082015160a0840152611a2660c083016112fe565b60c084015260e0820151878111611a715781611a439184016112bc565b60e0840152610100918281015190888211611a6d57611a639291016112bc565b90820152386114b7565b8e80fd5b8d80fd5b8b80fd5b8c80fd5b8d513d8d823e3d90fd5b5050505050505090926118e7929385527f4a7572697364696374696f6e206e6f74206163746976650000000000000000008451915192611ac684610f48565b60178452830152612154565b9060208282031261010357815167ffffffffffffffff92838211610103570160a0818303126101035760405192611b0884610f0f565b611b11826112af565b845260208201518181116101035783611b2b918401611312565b602085015260408201516040850152606082015190811161010357608092611b549183016112bc565b60608401520151608082015290565b91611b89906001600160a01b03611118959316845260606020850152606084019061100c565b91604081840391015261100c565b906020611bb1918160405193828580945193849201610fe9565b8101600781520301902060405190611bc882610edd565b805482526001810154602083015260ff600282015481811615156040850152818160081c161515606085015260101c16151560808301526003810190815491611c108361111b565b92611c1e6040519485610f64565b80845260208401916000526020600020916000905b8282106120af57505050509060ff6004611c5d938360a0870152015416151560c084015251611265565b906000906001600160a01b0393846003541694604051917ffa9cccb8000000000000000000000000000000000000000000000000000000008352166004820152600081602481885afa9081156101f157600091612070575b50805115612064576000959495945b60a08301519687518710156120195790611d3792916000611ce689829b6113b8565b51604051809681927fc405181c00000000000000000000000000000000000000000000000000000000835260406004840152611d25604484018961100c565b8381036003190160248501529061100c565b0381845afa9384156101f157600094611dfc575b5060005b8451811015611df15760c0611d6482876113b8565b5101511580611dda575b611d8057611d7b90611393565b611d4f565b5096919250965060015b15611da0575b611d9990611393565b9495611cc4565b92611dd2611d9991611db68660a08701516113b8565b51611dc182896113b8565b52611dcc81886113b8565b50611393565b939050611d90565b5060a0611de782876113b8565b5101514210611d6e565b509691925096611d8a565b9093503d806000833e611e0f8183610f64565b602082828101031261010357815167ffffffffffffffff811161010357818301601f828501011215610103578083015190611e498261111b565b93611e576040519586610f64565b828552602085019084810160208560051b85840101011161010357602083820101915b60208560051b85840101018310611e98575050505050509238611d4b565b825167ffffffffffffffff811161010357610120838601820188850103601f1901126101035760405191611ecb83610f2b565b60208287860101015167ffffffffffffffff811161010357611ef99060208a870191858a89010101016112bc565b835260408287860101015167ffffffffffffffff811161010357611f299060208a870191858a89010101016112bc565b602084015260608287860101015167ffffffffffffffff811161010357611f5c9060208a870191858a89010101016112bc565b604084015260808287860101015167ffffffffffffffff811161010357611f8f9060208a870191858a89010101016112bc565b6060840152838601820160a081810151608086015260c08201519085015260e090611fbb9082016112af565b60c0850152611fd16101008489880101016112fe565b90840152610120828786010101519267ffffffffffffffff841161010357612008602094938580958c8901928b8a01010101611312565b610100820152815201920191611e7a565b509550505090915061202a81611265565b9160005b82811061203b5750505090565b8061204961205f92846113b8565b5161205482876113b8565b52611dcc81866113b8565b61202e565b5060a001519392505050565b90503d806000833e6120828183610f64565b810160208282031261010357815167ffffffffffffffff8111610103576120a992016112bc565b38611cb5565b604051600085546120bf816111c9565b808452906001811690811561213157506001146120f9575b50600192826120eb85946020940382610f64565b815201940191019092611c33565b6000878152602081209092505b81831061211b575050810160200160016120d7565b6001816020925483868801015201920191612106565b60ff191660208581019190915291151560051b84019091019150600190506120d7565b908151916001928381018091116113a25761216e90611265565b926000815b612194575b5050516121909161218982856113b8565b52826113b8565b5090565b82518110156121c757806121ab6121c192856113b8565b516121b682886113b8565b52611dcc81876113b8565b81612173565b61217856fea2646970667358221220cee1721bfaf1cdaa81836dc8ab0893678b31d451ca06dc74674b902d5b66538764736f6c63430008140033",
  "linkReferences": {},
  "deployedLinkReferences": {}
}