{
  "_format": "hh-sol-artifact-1",
  "contractName": "ComplianceChecker",
  "sourceName": "contracts/utility/ComplianceChecker.sol",
  "abi": [
    {
      "inputs": [
        {
          "internalType": "address",
          "name": "_kycDataStorage",
          "type": "address"
        },
        {
          "internalType": "address",
          "name": "_tenantConfigStorage",
          "type": "address"
        },
        {
          "internalType": "address",
          "name": "_didCredentialStorage",
          "type": "address"
        }
      ],
      "stateMutability": "nonpayable",
      "type": "constructor"
    },
    {
      "anonymous": false,
      "inputs": [
        {
          "indexed": true,
          "internalType": "address",
          "name": "writer",
          "type": "address"
        },
        {
          "indexed": false,
          "internalType": "bool",
          "name": "authorized",
          "type": "bool"
        }
      ],
      "name": "AuthorizedWriterUpdated",
      "type": "event"
    },
    {
      "anonymous": false,
      "inputs": [
        {
          "indexed": true,
          "internalType": "address",
          "name": "user",
          "type": "address"
        },
        {
          "indexed": false,
          "internalType": "string",
          "name": "jurisdiction",
          "type": "string"
        },
        {
          "indexed": false,
          "internalType": "bool",
          "name": "isCompliant",
          "type": "bool"
        },
        {
          "indexed": false,
          "internalType": "uint256",
          "name": "riskScore",
          "type": "uint256"
        }
      ],
      "name": "ComplianceChecked",
      "type": "event"
    },
    {
      "anonymous": false,
      "inputs": [
        {
          "indexed": false,
          "internalType": "string",
          "name": "field",
          "type": "string"
        },
        {
          "indexed": false,
          "internalType": "uint256",
          "name": "oldValue",
          "type": "uint256"
        },
        {
          "indexed": false,
          "internalType": "uint256",
          "name": "newValue",
          "type": "uint256"
        }
      ],
      "name": "ComplianceConfigUpdated",
      "type": "event"
    },
    {
      "anonymous": false,
      "inputs": [
        {
          "indexed": false,
          "internalType": "string",
          "name": "jurisdiction",
          "type": "string"
        },
        {
          "indexed": false,
          "internalType": "string",
          "name": "field",
          "type": "string"
        },
        {
          "indexed": false,
          "internalType": "bool",
          "name": "value",
          "type": "bool"
        }
      ],
      "name": "JurisdictionRulesUpdated",
      "type": "event"
    },
    {
      "inputs": [],
      "name": "CONTRACT_NAME",
      "outputs": [
        {
          "internalType": "string",
          "name": "",
          "type": "string"
        }
      ],
      "stateMutability": "view",
      "type": "function"
    },
    {
      "inputs": [],
      "name": "VERSION",
      "outputs": [
        {
          "internalType": "uint256",
          "name": "",
          "type": "uint256"
        }
      ],
      "stateMutability": "view",
      "type": "function"
    },
    {
      "inputs": [
        {
          "internalType": "address",
          "name": "",
          "type": "address"
        }
      ],
      "name": "authorizedWriters",
      "outputs": [
        {
          "internalType": "bool",
          "name": "",
          "type": "bool"
        }
      ],
      "stateMutability": "view",
      "type": "function"
    },
    {
      "inputs": [
        {
          "internalType": "address",
          "name": "user",
          "type": "address"
        },
        {
          "internalType": "string",
          "name": "jurisdiction",
          "type": "string"
        },
        {
          "internalType": "string",
          "name": "tenantId",
          "type": "string"
        }
      ],
      "name": "checkCompliance",
      "outputs": [
        {
          "components": [
            {
              "internalType": "bool",
              "name": "isCompliant",
              "type": "bool"
            },
            {
              "internalType": "string[]",
              "name": "violations",
              "type": "string[]"
            },
            {
              "internalType": "uint256",
              "name": "riskScore",
              "type": "uint256"
            },
            {
              "internalType": "string",
              "name": "jurisdiction",
              "type": "string"
            },
            {
              "internalType": "uint256",
              "name": "expiresAt",
              "type": "uint256"
            }
          ],
          "internalType": "struct ComplianceChecker.ComplianceResult",
          "name": "",
          "type": "tuple"
        }
      ],
      "stateMutability": "view",
      "type": "function"
    },
    {
      "inputs": [],
      "name": "complianceConfig",
      "outputs": [
        {
          "internalType": "uint256",
          "name": "maxRiskScore",
          "type": "uint256"
        },
        {
          "internalType": "uint256",
          "name": "defaultExpiryDuration",
          "type": "uint256"
        },
        {
          "internalType": "bool",
          "name": "allowCrossJurisdiction",
          "type": "bool"
        },
        {
          "internalType": "bool",
          "name": "requireCredentialVerification",
          "type": "bool"
        },
        {
          "internalType": "bool",
          "name": "enableRiskScoring",
          "type": "bool"
        }
      ],
      "stateMutability": "view",
      "type": "function"
    },
    {
      "inputs": [],
      "name": "didCredentialStorage",
      "outputs": [
        {
          "internalType": "contract DIDCredentialStorage",
          "name": "",
          "type": "address"
        }
      ],
      "stateMutability": "view",
      "type": "function"
    },
    {
      "inputs": [],
      "name": "getComplianceConfig",
      "outputs": [
        {
          "components": [
            {
              "internalType": "uint256",
              "name": "maxRiskScore",
              "type": "uint256"
            },
            {
              "internalType": "uint256",
              "name": "defaultExpiryDuration",
              "type": "uint256"
            },
            {
              "internalType": "bool",
              "name": "allowCrossJurisdiction",
              "type": "bool"
            },
            {
              "internalType": "bool",
              "name": "requireCredentialVerification",
              "type": "bool"
            },
            {
              "internalType": "bool",
              "name": "enableRiskScoring",
              "type": "bool"
            }
          ],
          "internalType": "struct ComplianceChecker.ComplianceConfig",
          "name": "",
          "type": "tuple"
        }
      ],
      "stateMutability": "view",
      "type": "function"
    },
    {
      "inputs": [
        {
          "internalType": "address",
          "name": "user",
          "type": "address"
        },
        {
          "internalType": "string",
          "name": "jurisdiction",
          "type": "string"
        },
        {
          "internalType": "string",
          "name": "tenantId",
          "type": "string"
        }
      ],
      "name": "getComplianceViolations",
      "outputs": [
        {
          "internalType": "string[]",
          "name": "",
          "type": "string[]"
        }
      ],
      "stateMutability": "view",
      "type": "function"
    },
    {
      "inputs": [
        {
          "internalType": "string",
          "name": "jurisdiction",
          "type": "string"
        }
      ],
      "name": "getJurisdictionRules",
      "outputs": [
        {
          "components": [
            {
              "internalType": "uint256",
              "name": "maxRiskScore",
              "type": "uint256"
            },
            {
              "internalType": "uint256",
              "name": "expiryDuration",
              "type": "uint256"
            },
            {
              "internalType": "bool",
              "name": "requiresAddressVerification",
              "type": "bool"
            },
            {
              "internalType": "bool",
              "name": "requiresPhoneVerification",
              "type": "bool"
            },
            {
              "internalType": "bool",
              "name": "requiresEmailVerification",
              "type": "bool"
            },
            {
              "internalType": "string[]",
              "name": "requiredCredentialTypes",
              "type": "string[]"
            },
            {
              "internalType": "bool",
              "name": "isActive",
              "type": "bool"
            }
          ],
          "internalType": "struct ComplianceChecker.JurisdictionRules",
          "name": "",
          "type": "tuple"
        }
      ],
      "stateMutability": "view",
      "type": "function"
    },
    {
      "inputs": [
        {
          "internalType": "address",
          "name": "writer",
          "type": "address"
        }
      ],
      "name": "isAuthorizedWriter",
      "outputs": [
        {
          "internalType": "bool",
          "name": "",
          "type": "bool"
        }
      ],
      "stateMutability": "view",
      "type": "function"
    },
    {
      "inputs": [
        {
          "internalType": "address",
          "name": "user",
          "type": "address"
        },
        {
          "internalType": "string",
          "name": "jurisdiction",
          "type": "string"
        },
        {
          "internalType": "string",
          "name": "tenantId",
          "type": "string"
        }
      ],
      "name": "isCompliant",
      "outputs": [
        {
          "internalType": "bool",
          "name": "",
          "type": "bool"
        }
      ],
      "stateMutability": "view",
      "type": "function"
    },
    {
      "inputs": [
        {
          "internalType": "string",
          "name": "",
          "type": "string"
        }
      ],
      "name": "jurisdictionRules",
      "outputs": [
        {
          "internalType": "uint256",
          "name": "maxRiskScore",
          "type": "uint256"
        },
        {
          "internalType": "uint256",
          "name": "expiryDuration",
          "type": "uint256"
        },
        {
          "internalType": "bool",
          "name": "requiresAddressVerification",
          "type": "bool"
        },
        {
          "internalType": "bool",
          "name": "requiresPhoneVerification",
          "type": "bool"
        },
        {
          "internalType": "bool",
          "name": "requiresEmailVerification",
          "type": "bool"
        },
        {
          "internalType": "bool",
          "name": "isActive",
          "type": "bool"
        }
      ],
      "stateMutability": "view",
      "type": "function"
    },
    {
      "inputs": [],
      "name": "kycDataStorage",
      "outputs": [
        {
          "internalType": "contract KYCDataStorage",
          "name": "",
          "type": "address"
        }
      ],
      "stateMutability": "view",
      "type": "function"
    },
    {
      "inputs": [],
      "name": "owner",
      "outputs": [
        {
          "internalType": "address",
          "name": "",
          "type": "address"
        }
      ],
      "stateMutability": "view",
      "type": "function"
    },
    {
      "inputs": [
        {
          "internalType": "address",
          "name": "writer",
          "type": "address"
        },
        {
          "internalType": "bool",
          "name": "authorized",
          "type": "bool"
        }
      ],
      "name": "setAuthorizedWriter",
      "outputs": [],
      "stateMutability": "nonpayable",
      "type": "function"
    },
    {
      "inputs": [],
      "name": "tenantConfigStorage",
      "outputs": [
        {
          "internalType": "contract TenantConfigStorage",
          "name": "",
          "type": "address"
        }
      ],
      "stateMutability": "view",
      "type": "function"
    },
    {
      "inputs": [
        {
          "internalType": "uint256",
          "name": "_maxRiskScore",
          "type": "uint256"
        },
        {
          "internalType": "uint256",
          "name": "_defaultExpiryDuration",
          "type": "uint256"
        },
        {
          "internalType": "bool",
          "name": "_allowCrossJurisdiction",
          "type": "bool"
        },
        {
          "internalType": "bool",
          "name": "_requireCredentialVerification",
          "type": "bool"
        },
        {
          "internalType": "bool",
          "name": "_enableRiskScoring",
          "type": "bool"
        }
      ],
      "name": "updateComplianceConfig",
      "outputs": [],
      "stateMutability": "nonpayable",
      "type": "function"
    },
    {
      "inputs": [
        {
          "internalType": "string",
          "name": "jurisdiction",
          "type": "string"
        },
        {
          "internalType": "uint256",
          "name": "maxRiskScore",
          "type": "uint256"
        },
        {
          "internalType": "uint256",
          "name": "expiryDuration",
          "type": "uint256"
        },
        {
          "internalType": "bool",
          "name": "requiresAddressVerification",
          "type": "bool"
        },
        {
          "internalType": "bool",
          "name": "requiresPhoneVerification",
          "type": "bool"
        },
        {
          "internalType": "bool",
          "name": "requiresEmailVerification",
          "type": "bool"
        },
        {
          "internalType": "string[]",
          "name": "requiredCredentialTypes",
          "type": "string[]"
        },
        {
          "internalType": "bool",
          "name": "isActive",
          "type": "bool"
        }
      ],
      "name": "updateJurisdictionRules",
      "outputs": [],
      "stateMutability": "nonpayable",
      "type": "function"
    }
  ],
  "bytecode": "0x6080346200131757601f6200360d38819003918201601f19168301916001600160401b0383118484101762000b135780849260609460405283398101031262001317576200004d816200135b565b906200006a604062000062602084016200135b565b92016200135b565b60015f55916001600160a01b03908116918215620012d35781169283156200128057169182156200122c5760018060a01b03199133836009541617600955335f52600860205260405f20600160ff19825416179055826001541617600155816002541617600255600354161760035560405160a0810181811060018060401b0382111762000b1357600191608091604052606481526301e133806020820152826040820152826060820152015260646004556301e133806005556201010162ffffff1960065416176006556200013f62001370565b620001496200133b565b60088152674964656e7469747960c01b60208201526200016982620013b9565b526200017581620013b9565b50620001806200133b565b60078152664164647265737360c81b60208201526200019f82620013db565b52620001ab81620013db565b50620001b66200133b565b60038152624b594360e81b6020820152620001d182620013ec565b52620001dd81620013ec565b50620001e86200131b565b90603282526301e133806020830152600160408301525f60608301526001608083015260a0820152600160c0820152602260405161554b60f01b81526007600282015220815181556020820151600182015562000295600282016200025f60408501511515829060ff801983541691151516179055565b6060840151815461ff00191690151560081b61ff00161781556080840151815462ff0000191690151560101b62ff000016179055565b60a082015180519068010000000000000000821162000b13576003830154826003850155808310620011ad575b5060200190600383015f5260205f20915f905b8282106200108f57620002fe85600460c0890151151591019060ff801983541691151516179055565b6200030862001370565b620003126200133b565b60088152674964656e7469747960c01b60208201526200033282620013b9565b526200033e81620013b9565b50620003496200133b565b60078152664164647265737360c81b60208201526200036882620013db565b526200037481620013db565b506200037f6200133b565b60038152624b594360e81b60208201526200039a82620013ec565b52620003a681620013ec565b50620003b16200131b565b906032825260208201906301e1338082526200045e6040840160018152606085015f81526200044560808701916001835260a08801958652600160c0890152602260405161455560f01b8152600760028201522096885188555160018801556200042e6002880194511515859060ff801983541691151516179055565b51835461ff00191690151560081b61ff0016178355565b51815462ff0000191690151560101b62ff000016179055565b5180519068010000000000000000821162000b1357600383015482600385015580831062001010575b5060200190600383015f5260205f20915f905b82821062000ef257620004c385600460c0890151151591019060ff801983541691151516179055565b6040516001600160401b0360a082019081119082111762000b135760a08101604052600481525f5b6080811062000ee05750620004ff6200133b565b60088152674964656e7469747960c01b60208201526200051f82620013b9565b526200052b81620013b9565b50620005366200133b565b60078152664164647265737360c81b60208201526200055582620013db565b526200056181620013db565b506200056c6200133b565b60038152624b594360e81b60208201526200058782620013ec565b526200059381620013ec565b506200059e6200133b565b600381526210535360ea1b6020820152620005b982620013fd565b52620005c581620013fd565b50620005d06200131b565b90604682526301e13380602083015260016040830152600160608301526001608083015260a0820152600160c0820152602260405161555360f01b81526007600282015220815181556020820151600182015562000648600282016200025f60408501511515829060ff801983541691151516179055565b60a082015180519068010000000000000000821162000b1357600383015482600385015580831062000e61575b5060200190600383015f5260205f20915f905b82821062000d4357620006b185600460c0890151151591019060ff801983541691151516179055565b620006bb62001370565b620006c56200133b565b60088152674964656e7469747960c01b6020820152620006e582620013b9565b52620006f181620013b9565b50620006fc6200133b565b60078152664164647265737360c81b60208201526200071b82620013db565b526200072781620013db565b50620007326200133b565b60038152624b594360e81b60208201526200074d82620013ec565b526200075981620013ec565b50620007646200131b565b90603c825260208201906301e133808252620007e16040840160018152606085015f81526200044560808701916001835260a08801958652600160c0890152602260405161415560f01b8152600760028201522096885188555160018801556200042e6002880194511515859060ff801983541691151516179055565b5180519068010000000000000000821162000b1357600383015482600385015580831062000cc4575b5060200190600383015f5260205f20915f905b82821062000ba6576200084685600460c0890151151591019060ff801983541691151516179055565b6200085062001370565b6200085a6200133b565b60088152674964656e7469747960c01b60208201526200087a82620013b9565b526200088681620013b9565b50620008916200133b565b60078152664164647265737360c81b6020820152620008b082620013db565b52620008bc81620013db565b50620008c76200133b565b60038152624b594360e81b6020820152620008e282620013ec565b52620008ee81620013ec565b50620008f96200131b565b90602882526301e133806020830152600160408301525f60608301526001608083015260a0820152600160c08201526022604051615a4160f01b81526007600282015220815181556020820151600182015562000970600282016200025f60408501511515829060ff801983541691151516179055565b60a082015180519068010000000000000000821162000b1357600383015482600385015580831062000b27575b5060200190600383015f5260205f20915f905b828210620009e957620009d985600460c0890151151591019060ff801983541691151516179055565b6040516121ab9081620014628239f35b80518051906001600160401b03821162000b135762000a0986546200140e565b601f811162000ad3575b50602090601f831160011462000a625792826001949360209386955f9262000a56575b50505f19600383901b1c191690841b1787555b01940191019092620009b0565b015190508b8062000a36565b90865f5260205f20915f5b601f198516811062000aba575083602093600196938796938794601f1981161062000aa1575b505050811b01875562000a49565b01515f1960f88460031b161c191690558b808062000a93565b9192602060018192868501518155019401920162000a6d565b62000b0190875f5260205f20601f850160051c8101916020861062000b08575b601f0160051c019062001449565b8862000a13565b909150819062000af3565b634e487b7160e01b5f52604160045260245ffd5b600384015f5260205f20908382015b818301811062000b485750506200099d565b8062000b57600192546200140e565b8062000b66575b500162000b36565b601f8111831462000b7d57505f81555b8862000b5e565b5f9082825262000b9c601f60208420920160051c820185830162001449565b8183555562000b76565b80518051906001600160401b03821162000b135762000bc686546200140e565b601f811162000c90575b50602090601f831160011462000c1f5792826001949360209386955f9262000c13575b50505f19600383901b1c191690841b1787555b019401910190926200081d565b015190508b8062000bf3565b90865f5260205f20915f5b601f198516811062000c77575083602093600196938796938794601f1981161062000c5e575b505050811b01875562000c06565b01515f1960f88460031b161c191690558b808062000c50565b9192602060018192868501518155019401920162000c2a565b62000cbd90875f5260205f20601f850160051c8101916020861062000b0857601f0160051c019062001449565b8862000bd0565b600384015f5260205f20908382015b818301811062000ce55750506200080a565b8062000cf4600192546200140e565b8062000d03575b500162000cd3565b601f8111831462000d1a57505f81555b8862000cfb565b5f9082825262000d39601f60208420920160051c820185830162001449565b8183555562000d13565b80518051906001600160401b03821162000b135762000d6386546200140e565b601f811162000e2d575b50602090601f831160011462000dbc5792826001949360209386955f9262000db0575b50505f19600383901b1c191690841b1787555b0194019101909262000688565b015190508b8062000d90565b90865f5260205f20915f5b601f198516811062000e14575083602093600196938796938794601f1981161062000dfb575b505050811b01875562000da3565b01515f1960f88460031b161c191690558b808062000ded565b9192602060018192868501518155019401920162000dc7565b62000e5a90875f5260205f20601f850160051c8101916020861062000b0857601f0160051c019062001449565b8862000d6d565b600384015f5260205f20908382015b818301811062000e8257505062000675565b8062000e91600192546200140e565b8062000ea0575b500162000e70565b601f8111831462000eb757505f81555b8862000e98565b5f9082825262000ed6601f60208420920160051c820185830162001449565b8183555562000eb0565b806060602080938501015201620004eb565b80518051906001600160401b03821162000b135762000f1286546200140e565b601f811162000fdc575b50602090601f831160011462000f6b5792826001949360209386955f9262000f5f575b50505f19600383901b1c191690841b1787555b019401910190926200049a565b015190508b8062000f3f565b90865f5260205f20915f5b601f198516811062000fc3575083602093600196938796938794601f1981161062000faa575b505050811b01875562000f52565b01515f1960f88460031b161c191690558b808062000f9c565b9192602060018192868501518155019401920162000f76565b6200100990875f5260205f20601f850160051c8101916020861062000b0857601f0160051c019062001449565b8862000f1c565b600384015f5260205f20908382015b81830181106200103157505062000487565b8062001040600192546200140e565b806200104f575b50016200101f565b601f811183146200106657505f81555b8862001047565b5f9082825262001085601f60208420920160051c820185830162001449565b818355556200105f565b80518051906001600160401b03821162000b1357620010af86546200140e565b601f811162001179575b50602090601f8311600114620011085792826001949360209386955f92620010fc575b50505f19600383901b1c191690841b1787555b01940191019092620002d5565b015190505f80620010dc565b90865f5260205f20915f5b601f198516811062001160575083602093600196938796938794601f1981161062001147575b505050811b018755620010ef565b01515f1960f88460031b161c191690555f808062001139565b9192602060018192868501518155019401920162001113565b620011a690875f5260205f20601f850160051c8101916020861062000b0857601f0160051c019062001449565b5f620010b9565b600384015f5260205f20908382015b8183018110620011ce575050620002c2565b80620011dd600192546200140e565b80620011ec575b5001620011bc565b601f811183146200120357505f81555b5f620011e4565b5f9082825262001222601f60208420920160051c820185830162001449565b81835555620011fc565b60405162461bcd60e51b815260206004820152602660248201527f496e76616c6964204449442063726564656e7469616c2073746f72616765206160448201526564647265737360d01b6064820152608490fd5b60405162461bcd60e51b815260206004820152602560248201527f496e76616c69642074656e616e7420636f6e6669672073746f72616765206164604482015264647265737360d81b6064820152608490fd5b606460405162461bcd60e51b815260206004820152602060248201527f496e76616c6964204b594320646174612073746f7261676520616464726573736044820152fd5b5f80fd5b6040519060e082016001600160401b0381118382101762000b1357604052565b60408051919082016001600160401b0381118382101762000b1357604052565b51906001600160a01b03821682036200131757565b60405190608082016001600160401b0381118382101762000b13576040526003825281905f5b606080821015620013b257906020918282870101520162001396565b5050909150565b805115620013c75760200190565b634e487b7160e01b5f52603260045260245ffd5b805160011015620013c75760400190565b805160021015620013c75760600190565b805160031015620013c75760800190565b90600182811c921680156200143e575b60208310146200142a57565b634e487b7160e01b5f52602260045260245ffd5b91607f16916200141e565b81811062001455575050565b5f81556001016200144956fe608080604052600480361015610013575f80fd5b5f3560e01c91826313caf5cb14610e83575081631a2f010a14610e37578163497daa8514610c21578163526241a814610be4578163542a086c14610ab7578163614d08f814610a5a5781638da5cb5b14610a345781638fe9989c1461090657816399a8539e1461085c5781639ff63526146107a3578163a93303a31461035d578163a977db45146102bc578163ab67dfb11461026f578163ad6e823b14610219578163b015b9b4146101f3578163b367211b1461012957508063ff3e12ca146101035763ffa1ad74146100e4575f80fd5b346100ff575f3660031901126100ff57602060405160018152f35b5f80fd5b346100ff575f3660031901126100ff5760206001600160a01b0360025416604051908152f35b346100ff575f61019161013b36611084565b6101536001600160a01b0384959397941615156111da565b61015f86511515611141565b60405195869485947f9ff635260000000000000000000000000000000000000000000000000000000086528501611b1c565b0381305afa9081156101e8576101c2916020915f916101c6575b500151604051918291602083526020830190610ff5565b0390f35b6101e291503d805f833e6101da8183610f2b565b810190611a8b565b836101ab565b6040513d5f823e3d90fd5b346100ff575f3660031901126100ff5760206001600160a01b0360035416604051908152f35b346100ff5760203660031901126100ff5760206001600160a01b038061023d611050565b16805f526008835260ff60405f205416918215610261575b50506040519015158152f35b600954161490508280610255565b346100ff575f61028161013b36611084565b0381305afa80156101e8576020915f916102a2575b50511515604051908152f35b6102b691503d805f833e6101da8183610f2b565b82610296565b346100ff5760203660031901126100ff5780359067ffffffffffffffff82116100ff5761030660206102f360c09436908501610f69565b8160405193828580945193849201610faf565b810160078152030190209060ff8254928160018201549360028301549201541692604051948552602085015281811615156040850152818160081c161515606085015260101c1615156080830152151560a0820152f35b346100ff576101003660031901126100ff57803567ffffffffffffffff81116100ff5761038d9036908301610f69565b610395611066565b61039d611075565b60a435918215158093036100ff5760c4359067ffffffffffffffff82116100ff57366023830112156100ff57818601356103d6816110de565b926103e46040519485610f2b565b8184526024602085019260051b820101903682116100ff5760248101925b828410610773575050505060e435938415158095036100ff576104316001600160a01b036009541633146110f6565b61043d86511515611141565b6040519361044a85610ea6565b6024358552602085019560443587526040860193151584526060860191151582526080860192835260a0860194855260c0860152604051602081816104958b83815193849201610faf565b8101600781520301902095855187555160018701556104c76002870193511515849060ff801983541691151516179055565b5115159061ff0062ff000084549251151560101b169260081b169062ffff00191617179055518051906801000000000000000082116107605760038401548260038601558083106106eb575b50602001600384015f5260205f205f915b8383106105bf577f06ff5112c09f5f0994ace775479bd5dccc73eaf0db0b7d05402cec81a178a33d8761056c888b60c08a0151151591019060ff801983541691151516179055565b6040610582815192606084526060840190610fd0565b7f72756c657300000000000000000000000000000000000000000000000000000060208483039283828701526005815201526001828401520190a1005b805180519067ffffffffffffffff82116106d8576105dd845461118c565b601f811161069d575b50602090601f83116001146106315792826001949360209386955f92610626575b50505f19600383901b1c191690841b1785555b01920192019190610524565b015190508d80610607565b90845f5260205f20915f5b601f1985168110610685575083602093600196938796938794601f1981161061066d575b505050811b01855561061a565b01515f1960f88460031b161c191690558d8080610660565b9192602060018192868501518155019401920161063c565b6106c890855f5260205f20601f850160051c810191602086106106ce575b601f0160051c01906111c4565b8a6105e6565b90915081906106bb565b60418a634e487b7160e01b5f525260245ffd5b600385015f5260205f20908382015b818301811061070a575050610513565b806107176001925461118c565b80610724575b50016106fa565b601f90818111841461073c5750505f81555b8a61071d565b6107575f9284845260208420920160051c82018583016111c4565b81835555610736565b604186634e487b7160e01b5f525260245ffd5b833567ffffffffffffffff81116100ff57602091610798839260243691870101610f69565b815201930192610402565b346100ff576108016107b436611084565b915f60806040516107c481610ed6565b8281526060602082015282604082015260608082015201526107f06001600160a01b03821615156111da565b6107fc82511515611141565b61139c565b6040518091602082528051151560208301526080610850610831602084015160a0604087015260c0860190610ff5565b604084015160608601526060840151601f198683030184870152610fd0565b91015160a08301520390f35b346100ff575f3660031901126100ff5760a0905f608060405161087e81610ed6565b8281528260208201528260408201528260608201520152604051906108a282610ed6565b5490818152600554906020810191825260065491604082019060ff84161515825260ff60806060850194828760081c1615158652019460101c1615158452604051948552516020850152511515604084015251151560608301525115156080820152f35b346100ff5760a03660031901126100ff57803560243591604435928315158094036100ff5760a0938493610938611066565b91610941611075565b926109586001600160a01b036009541633146110f6565b61ff008654948460055498558660055560ff62ff000060065492151560101b1694169062ffffff19161791151560081b1617176006556040519160608352600c60608401527f6d61785269736b53636f726500000000000000000000000000000000000000006080840152602083015260408201527f653aeceab31b91df87fe59b20c6540d77cd5f613580bbb0a386ca88ed46a11e1948591a16040519160608352601560608401527f64656661756c744578706972794475726174696f6e0000000000000000000000608084015260208301526040820152a1005b346100ff575f3660031901126100ff5760206001600160a01b0360095416604051908152f35b346100ff575f3660031901126100ff576101c2604051610a7981610f0f565b601181527f436f6d706c69616e6365436865636b65720000000000000000000000000000006020820152604051918291602083526020830190610fd0565b346100ff5760403660031901126100ff57610ad0611050565b602435801515918282036100ff576001600160a01b0390610af6826009541633146110f6565b60025f5414610ba05760025f5516928315610b5c57507e8ebc621f24e0e9d1fd4ee2f7df9bb80c8d61ee30a9167a4fee6cefcf8c021e91610b4f602092855f526008845260405f209060ff801983541691151516179055565b604051908152a260015f55005b60649060206040519162461bcd60e51b8352820152601660248201527f496e76616c6964207772697465722061646472657373000000000000000000006044820152fd5b60648560206040519162461bcd60e51b8352820152601f60248201527f5265656e7472616e637947756172643a207265656e7472616e742063616c6c006044820152fd5b346100ff5760203660031901126100ff576001600160a01b03610c05611050565b165f526008602052602060ff60405f2054166040519015158152f35b346100ff5760203660031901126100ff57803567ffffffffffffffff81116100ff576020610c55610c939236908501610f69565b5f60c0604051610c6481610ea6565b8281528285820152826040820152826060820152826080820152606060a082015201526102f381511515611141565b8101600781520301902090604051610caa81610ea6565b8254815260018301546020820152600283015492604082019260ff85161515845260ff6060840195818160081c161515875260101c16151560808401526003820191825492610cf8846110de565b93610d066040519586610f2b565b80855260208501915f5260205f20915f905b828210610d94575050505060ff610d87939260809260a087019485520154169360c0810194151585526040519687966020885282516020890152602083015160408901525115156060880152511515828701520151151560a08501525160e060c0850152610100840190610ff5565b9051151560e08301520390f35b6040515f8554610da38161118c565b8084529060018116908115610e145750600114610ddd575b5060019282610dcf85946020940382610f2b565b815201940191019092610d18565b5f878152602081209092505b818310610dfe57505081016020016001610dbb565b6001816020925483868801015201920191610de9565b60ff191660208581019190915291151560051b8401909101915060019050610dbb565b346100ff575f3660031901126100ff5760a0905460ff60055460065490604051938452602084015281811615156040840152818160081c161515606084015260101c1615156080820152f35b346100ff575f3660031901126100ff576020906001600160a01b03600154168152f35b60e0810190811067ffffffffffffffff821117610ec257604052565b634e487b7160e01b5f52604160045260245ffd5b60a0810190811067ffffffffffffffff821117610ec257604052565b610120810190811067ffffffffffffffff821117610ec257604052565b6040810190811067ffffffffffffffff821117610ec257604052565b90601f8019910116810190811067ffffffffffffffff821117610ec257604052565b67ffffffffffffffff8111610ec257601f01601f191660200190565b81601f820112156100ff57803590610f8082610f4d565b92610f8e6040519485610f2b565b828452602083830101116100ff57815f926020809301838601378301015290565b5f5b838110610fc05750505f910152565b8181015183820152602001610fb1565b90602091610fe981518092818552858086019101610faf565b601f01601f1916010190565b908082519081815260208091019281808460051b8301019501935f915b8483106110225750505050505090565b9091929394958480611040600193601f198682030187528a51610fd0565b9801930193019194939290611012565b600435906001600160a01b03821682036100ff57565b6064359081151582036100ff57565b6084359081151582036100ff57565b60606003198201126100ff576004356001600160a01b03811681036100ff579167ffffffffffffffff6024358181116100ff57836110c491600401610f69565b926044359182116100ff576110db91600401610f69565b90565b67ffffffffffffffff8111610ec25760051b60200190565b156110fd57565b606460405162461bcd60e51b815260206004820152600a60248201527f4f6e6c79206f776e6572000000000000000000000000000000000000000000006044820152fd5b1561114857565b606460405162461bcd60e51b815260206004820152601460248201527f496e76616c6964206a7572697364696374696f6e0000000000000000000000006044820152fd5b90600182811c921680156111ba575b60208310146111a657565b634e487b7160e01b5f52602260045260245ffd5b91607f169161119b565b8181106111cf575050565b5f81556001016111c4565b156111e157565b606460405162461bcd60e51b815260206004820152601460248201527f496e76616c6964207573657220616464726573730000000000000000000000006044820152fd5b9061122f826110de565b61123c6040519182610f2b565b828152809261124d601f19916110de565b01905f5b82811061125d57505050565b806060602080938501015201611251565b519081151582036100ff57565b81601f820112156100ff57805161129181610f4d565b9261129f6040519485610f2b565b818452602082840101116100ff576110db9160208085019101610faf565b51906001600160a01b03821682036100ff57565b9080601f830112156100ff578151906112e9826110de565b926112f76040519485610f2b565b828452602092838086019160051b830101928084116100ff57848301915b8483106113255750505050505090565b825167ffffffffffffffff81116100ff5786916113478484809489010161127b565b815201920191611315565b5f1981146113605760010190565b634e487b7160e01b5f52601160045260245ffd5b80518210156113885760209160051b010190565b634e487b7160e01b5f52603260045260245ffd5b6040805167ffffffffffffffff949193909260209182850187811186821017610ec25786525f938486528651976113d289610ed6565b60018952848901968752878901908682528360608b015260808a01878152895160ff60048751928a81818b019561140a818389610faf565b8101600781520301902001541615611a40576001600160a01b03918b8a8460248b8260015416945194859384927fab47a2f90000000000000000000000000000000000000000000000000000000084521660048301525afa908115611a36578b9161193f575b508051156118f2576080810151156118a55760a081019081514210156118525760600195865190525190526114b2888551928d51809381928b51928391610faf565b8101600781520301902054106117c6575b8351611595575b5050505060ff60065460081c166114e5575b50505050505090565b6114ee91611b50565b9182516114fc575b806114dc565b8086979293949597525b8351811015611585576115809061157986516115228388611374565b51906115748b51927f4d697373696e672063726564656e7469616c3a2000000000000000000000000089850152838151611564816034948d8686019101610faf565b8101036014810185520183610f2b565b6120fe565b8652611352565b611506565b5094505050505f808080806114f6565b600254169289517fab1dd0c40000000000000000000000000000000000000000000000000000000081528760048201528781806115d56024820186610fd0565b0381885afa9081156117bc57908992918391611782575b501561173c57611630948b5180809781947fd2fc78910000000000000000000000000000000000000000000000000000000083528c60048401526024830190610fd0565b03915afa92831561173257879361169d575b50505111611654575b5f8080806114ca565b838752611696855187519061166882610f0f565b601e82527f5269736b2073636f726520746f6f206869676820666f722074656e616e740000868301526120fe565b855261164b565b909192503d8088833e6116b08183610f2b565b810160c08282031261172e57815183811161172a57816116d191840161127b565b508682015183811161172a57816116e99184016112d1565b508982015192606083015190811161172a579161170d60a0926117219483016112d1565b5061171a6080820161126e565b50016112bd565b50905f80611642565b8880fd5b8780fd5b89513d89823e3d90fd5b50925050508752611696855187519061175482610f0f565b601182527f54656e616e74206e6f7420616374697665000000000000000000000000000000868301526120fe565b80929350898092503d83116117b5575b61179c8183610f2b565b8101031261172a57906117af899261126e565b5f6115ec565b503d611792565b8b513d8b823e3d90fd5b878b5288518a5190606082018281108582111761183e578c52602482527f5269736b2073636f726520746f6f206869676820666f72206a75726973646963898301527f74696f6e000000000000000000000000000000000000000000000000000000008c83015261183791906120fe565b89526114c3565b60248b634e487b7160e01b81526041600452fd5b5050505050505050505090926118a0929385527f4b59432065787069726564000000000000000000000000000000000000000000845191519261189484610f0f565b600b84528301526120fe565b905290565b50505050505050505090926118a0929385527f4b5943206e6f742061637469766500000000000000000000000000000000000084519151926118e684610f0f565b600e84528301526120fe565b50505050505050505090926118a0929385527f55736572206e6f74204b59432076657269666965640000000000000000000000845191519261193384610f0f565b601584528301526120fe565b90503d808c833e6119508183610f2b565b8101908a81830312611a2e57805190868211611a32570161012081830312611a2e578d519161197e83610ef2565b6119878261126e565b83528b820151878111611a2a578f90826119a291850161127b565b8d8501528083015190840152606082015160608401526119c46080830161126e565b608084015260a082015160a08401526119df60c083016112bd565b60c084015260e0820151878111611a2a57816119fc91840161127b565b60e0840152610100918281015190888211611a2657611a1c92910161127b565b908201525f611470565b8e80fd5b8d80fd5b8b80fd5b8c80fd5b8d513d8d823e3d90fd5b5050505050505090926118a0929385527f4a7572697364696374696f6e206e6f74206163746976650000000000000000008451915192611a7f84610f0f565b601784528301526120fe565b906020828203126100ff57815167ffffffffffffffff928382116100ff570160a0818303126100ff5760405192611ac184610ed6565b611aca8261126e565b845260208201518181116100ff5783611ae49184016112d1565b60208501526040820151604085015260608201519081116100ff57608092611b0d91830161127b565b60608401520151608082015290565b91611b42906001600160a01b036110db9593168452606060208501526060840190610fd0565b916040818403910152610fd0565b906020611b6a918160405193828580945193849201610faf565b8101600781520301902060405190611b8182610ea6565b805482526001810154602083015260ff600282015481811615156040850152818160081c161515606085015260101c16151560808301526003810190815491611bc9836110de565b92611bd76040519485610f2b565b80845260208401915f5260205f20915f905b82821061205b57505050509060ff6004611c13938360a0870152015416151560c084015251611225565b905f906001600160a01b0393846003541694604051917ffa9cccb80000000000000000000000000000000000000000000000000000000083521660048201525f81602481885afa9081156101e8575f9161201d575b50805115612011575f959495945b60a0830151968751871015611fc75790611ce892915f611c9789829b611374565b51604051809681927fc405181c00000000000000000000000000000000000000000000000000000000835260406004840152611cd66044840189610fd0565b83810360031901602485015290610fd0565b0381845afa9384156101e8575f94611dab575b505f5b8451811015611da05760c0611d138287611374565b5101511580611d89575b611d2f57611d2a90611352565b611cfe565b5096919250965060015b15611d4f575b611d4890611352565b9495611c76565b92611d81611d4891611d658660a0870151611374565b51611d708289611374565b52611d7b8188611374565b50611352565b939050611d3f565b5060a0611d968287611374565b5101514210611d1d565b509691925096611d39565b9093503d805f833e611dbd8183610f2b565b60208282810103126100ff57815167ffffffffffffffff81116100ff57818301601f8285010112156100ff578083015190611df7826110de565b93611e056040519586610f2b565b828552602085019084810160208560051b8584010101116100ff57602083820101915b60208560051b85840101018310611e4657505050505050925f611cfb565b825167ffffffffffffffff81116100ff57610120838601820188850103601f1901126100ff5760405191611e7983610ef2565b60208287860101015167ffffffffffffffff81116100ff57611ea79060208a870191858a890101010161127b565b835260408287860101015167ffffffffffffffff81116100ff57611ed79060208a870191858a890101010161127b565b602084015260608287860101015167ffffffffffffffff81116100ff57611f0a9060208a870191858a890101010161127b565b604084015260808287860101015167ffffffffffffffff81116100ff57611f3d9060208a870191858a890101010161127b565b6060840152838601820160a081810151608086015260c08201519085015260e090611f6990820161126e565b60c0850152611f7f6101008489880101016112bd565b90840152610120828786010101519267ffffffffffffffff84116100ff57611fb6602094938580958c8901928b8a010101016112d1565b610100820152815201920191611e28565b5095505050909150611fd881611225565b915f5b828110611fe85750505090565b80611ff661200c9284611374565b516120018287611374565b52611d7b8186611374565b611fdb565b5060a001519392505050565b90503d805f833e61202e8183610f2b565b81016020828203126100ff57815167ffffffffffffffff81116100ff57612055920161127b565b5f611c68565b6040515f855461206a8161118c565b80845290600181169081156120db57506001146120a4575b506001928261209685946020940382610f2b565b815201940191019092611be9565b5f878152602081209092505b8183106120c557505081016020016001612082565b60018160209254838688010152019201916120b0565b60ff191660208581019190915291151560051b8401909101915060019050612082565b908151916001928381018091116113605761211890611225565b925f815b61213d575b505051612139916121328285611374565b5282611374565b5090565b8251811015612170578061215461216a9285611374565b5161215f8288611374565b52611d7b8187611374565b8161211c565b61212156fea2646970667358221220413abaa1107e7bed4e94d0f5486db698497948a25a4c2881237a42b92751fd6d64736f6c63430008140033",
  "linkReferences": {},
  "deployedLinkReferences": {}
}