{
  "_format": "hh-sol-artifact-1",
  "contractName": "AuthorizationManager",
  "sourceName": "contracts/access/AuthorizationManager.sol",
  "abi": [
    {
      "inputs": [
        {
          "internalType": "address",
          "name": "_auditLogStorage",
          "type": "address"
        }
      ],
      "stateMutability": "nonpayable",
      "type": "constructor"
    },
    {
      "anonymous": false,
      "inputs": [
        {
          "indexed": true,
          "internalType": "address",
          "name": "writer",
          "type": "address"
        },
        {
          "indexed": false,
          "internalType": "bool",
          "name": "authorized",
          "type": "bool"
        }
      ],
      "name": "AuthorizedWriterUpdated",
      "type": "event"
    },
    {
      "anonymous": false,
      "inputs": [
        {
          "indexed": true,
          "internalType": "address",
          "name": "user",
          "type": "address"
        },
        {
          "indexed": false,
          "internalType": "enum AuthorizationManager.Role",
          "name": "role",
          "type": "uint8"
        },
        {
          "indexed": false,
          "internalType": "string[]",
          "name": "tenantIds",
          "type": "string[]"
        },
        {
          "indexed": false,
          "internalType": "address",
          "name": "assignedBy",
          "type": "address"
        },
        {
          "indexed": false,
          "internalType": "uint256",
          "name": "expiresAt",
          "type": "uint256"
        }
      ],
      "name": "RoleAssigned",
      "type": "event"
    },
    {
      "anonymous": false,
      "inputs": [
        {
          "indexed": false,
          "internalType": "enum AuthorizationManager.Role",
          "name": "role",
          "type": "uint8"
        },
        {
          "indexed": false,
          "internalType": "string",
          "name": "field",
          "type": "string"
        },
        {
          "indexed": false,
          "internalType": "bool",
          "name": "value",
          "type": "bool"
        }
      ],
      "name": "RolePermissionsUpdated",
      "type": "event"
    },
    {
      "anonymous": false,
      "inputs": [
        {
          "indexed": true,
          "internalType": "address",
          "name": "user",
          "type": "address"
        },
        {
          "indexed": false,
          "internalType": "enum AuthorizationManager.Role",
          "name": "role",
          "type": "uint8"
        },
        {
          "indexed": false,
          "internalType": "address",
          "name": "revokedBy",
          "type": "address"
        }
      ],
      "name": "RoleRevoked",
      "type": "event"
    },
    {
      "anonymous": false,
      "inputs": [
        {
          "indexed": true,
          "internalType": "address",
          "name": "admin",
          "type": "address"
        },
        {
          "indexed": false,
          "internalType": "bool",
          "name": "isSuperAdmin",
          "type": "bool"
        }
      ],
      "name": "SuperAdminUpdated",
      "type": "event"
    },
    {
      "inputs": [],
      "name": "CONTRACT_NAME",
      "outputs": [
        {
          "internalType": "string",
          "name": "",
          "type": "string"
        }
      ],
      "stateMutability": "view",
      "type": "function"
    },
    {
      "inputs": [],
      "name": "VERSION",
      "outputs": [
        {
          "internalType": "uint256",
          "name": "",
          "type": "uint256"
        }
      ],
      "stateMutability": "view",
      "type": "function"
    },
    {
      "inputs": [
        {
          "internalType": "address",
          "name": "user",
          "type": "address"
        },
        {
          "internalType": "enum AuthorizationManager.Role",
          "name": "role",
          "type": "uint8"
        },
        {
          "internalType": "string[]",
          "name": "tenantIds",
          "type": "string[]"
        },
        {
          "internalType": "uint256",
          "name": "expiresAt",
          "type": "uint256"
        }
      ],
      "name": "assignRole",
      "outputs": [],
      "stateMutability": "nonpayable",
      "type": "function"
    },
    {
      "inputs": [],
      "name": "auditLogStorage",
      "outputs": [
        {
          "internalType": "contract AuditLogStorage",
          "name": "",
          "type": "address"
        }
      ],
      "stateMutability": "view",
      "type": "function"
    },
    {
      "inputs": [
        {
          "internalType": "address",
          "name": "",
          "type": "address"
        }
      ],
      "name": "authorizedWriters",
      "outputs": [
        {
          "internalType": "bool",
          "name": "",
          "type": "bool"
        }
      ],
      "stateMutability": "view",
      "type": "function"
    },
    {
      "inputs": [
        {
          "internalType": "enum AuthorizationManager.Role",
          "name": "role",
          "type": "uint8"
        }
      ],
      "name": "getRolePermissions",
      "outputs": [
        {
          "components": [
            {
              "internalType": "bool",
              "name": "canVerifyKYC",
              "type": "bool"
            },
            {
              "internalType": "bool",
              "name": "canIssueCredentials",
              "type": "bool"
            },
            {
              "internalType": "bool",
              "name": "canManageTenants",
              "type": "bool"
            },
            {
              "internalType": "bool",
              "name": "canManageUsers",
              "type": "bool"
            },
            {
              "internalType": "bool",
              "name": "canViewAuditLogs",
              "type": "bool"
            },
            {
              "internalType": "bool",
              "name": "canManageSystem",
              "type": "bool"
            },
            {
              "internalType": "bool",
              "name": "canAccessAllTenants",
              "type": "bool"
            }
          ],
          "internalType": "struct AuthorizationManager.RolePermissions",
          "name": "",
          "type": "tuple"
        }
      ],
      "stateMutability": "view",
      "type": "function"
    },
    {
      "inputs": [
        {
          "internalType": "address",
          "name": "user",
          "type": "address"
        }
      ],
      "name": "getUserRole",
      "outputs": [
        {
          "components": [
            {
              "internalType": "enum AuthorizationManager.Role",
              "name": "role",
              "type": "uint8"
            },
            {
              "internalType": "string[]",
              "name": "tenantIds",
              "type": "string[]"
            },
            {
              "internalType": "uint256",
              "name": "assignedAt",
              "type": "uint256"
            },
            {
              "internalType": "address",
              "name": "assignedBy",
              "type": "address"
            },
            {
              "internalType": "bool",
              "name": "isActive",
              "type": "bool"
            },
            {
              "internalType": "uint256",
              "name": "expiresAt",
              "type": "uint256"
            }
          ],
          "internalType": "struct AuthorizationManager.UserRole",
          "name": "",
          "type": "tuple"
        }
      ],
      "stateMutability": "view",
      "type": "function"
    },
    {
      "inputs": [
        {
          "internalType": "address",
          "name": "user",
          "type": "address"
        },
        {
          "internalType": "string",
          "name": "tenantId",
          "type": "string"
        }
      ],
      "name": "hasTenantAccess",
      "outputs": [
        {
          "internalType": "bool",
          "name": "",
          "type": "bool"
        }
      ],
      "stateMutability": "view",
      "type": "function"
    },
    {
      "inputs": [
        {
          "internalType": "address",
          "name": "writer",
          "type": "address"
        }
      ],
      "name": "isAuthorizedWriter",
      "outputs": [
        {
          "internalType": "bool",
          "name": "",
          "type": "bool"
        }
      ],
      "stateMutability": "view",
      "type": "function"
    },
    {
      "inputs": [
        {
          "internalType": "address",
          "name": "user",
          "type": "address"
        }
      ],
      "name": "isSuperAdmin",
      "outputs": [
        {
          "internalType": "bool",
          "name": "",
          "type": "bool"
        }
      ],
      "stateMutability": "view",
      "type": "function"
    },
    {
      "inputs": [],
      "name": "owner",
      "outputs": [
        {
          "internalType": "address",
          "name": "",
          "type": "address"
        }
      ],
      "stateMutability": "view",
      "type": "function"
    },
    {
      "inputs": [
        {
          "internalType": "address",
          "name": "user",
          "type": "address"
        }
      ],
      "name": "revokeRole",
      "outputs": [],
      "stateMutability": "nonpayable",
      "type": "function"
    },
    {
      "inputs": [
        {
          "internalType": "enum AuthorizationManager.Role",
          "name": "",
          "type": "uint8"
        }
      ],
      "name": "rolePermissions",
      "outputs": [
        {
          "internalType": "bool",
          "name": "canVerifyKYC",
          "type": "bool"
        },
        {
          "internalType": "bool",
          "name": "canIssueCredentials",
          "type": "bool"
        },
        {
          "internalType": "bool",
          "name": "canManageTenants",
          "type": "bool"
        },
        {
          "internalType": "bool",
          "name": "canManageUsers",
          "type": "bool"
        },
        {
          "internalType": "bool",
          "name": "canViewAuditLogs",
          "type": "bool"
        },
        {
          "internalType": "bool",
          "name": "canManageSystem",
          "type": "bool"
        },
        {
          "internalType": "bool",
          "name": "canAccessAllTenants",
          "type": "bool"
        }
      ],
      "stateMutability": "view",
      "type": "function"
    },
    {
      "inputs": [
        {
          "internalType": "address",
          "name": "writer",
          "type": "address"
        },
        {
          "internalType": "bool",
          "name": "authorized",
          "type": "bool"
        }
      ],
      "name": "setAuthorizedWriter",
      "outputs": [],
      "stateMutability": "nonpayable",
      "type": "function"
    },
    {
      "inputs": [
        {
          "internalType": "address",
          "name": "admin",
          "type": "address"
        },
        {
          "internalType": "bool",
          "name": "isSuperAdminStatus",
          "type": "bool"
        }
      ],
      "name": "setSuperAdmin",
      "outputs": [],
      "stateMutability": "nonpayable",
      "type": "function"
    },
    {
      "inputs": [
        {
          "internalType": "address",
          "name": "",
          "type": "address"
        }
      ],
      "name": "superAdmins",
      "outputs": [
        {
          "internalType": "bool",
          "name": "",
          "type": "bool"
        }
      ],
      "stateMutability": "view",
      "type": "function"
    },
    {
      "inputs": [
        {
          "internalType": "enum AuthorizationManager.Role",
          "name": "role",
          "type": "uint8"
        },
        {
          "internalType": "bool",
          "name": "canVerifyKYC",
          "type": "bool"
        },
        {
          "internalType": "bool",
          "name": "canIssueCredentials",
          "type": "bool"
        },
        {
          "internalType": "bool",
          "name": "canManageTenants",
          "type": "bool"
        },
        {
          "internalType": "bool",
          "name": "canManageUsers",
          "type": "bool"
        },
        {
          "internalType": "bool",
          "name": "canViewAuditLogs",
          "type": "bool"
        },
        {
          "internalType": "bool",
          "name": "canManageSystem",
          "type": "bool"
        },
        {
          "internalType": "bool",
          "name": "canAccessAllTenants",
          "type": "bool"
        }
      ],
      "name": "updateRolePermissions",
      "outputs": [],
      "stateMutability": "nonpayable",
      "type": "function"
    },
    {
      "inputs": [
        {
          "internalType": "address",
          "name": "user",
          "type": "address"
        },
        {
          "internalType": "string[]",
          "name": "tenantIds",
          "type": "string[]"
        }
      ],
      "name": "updateUserTenantAccess",
      "outputs": [],
      "stateMutability": "nonpayable",
      "type": "function"
    },
    {
      "inputs": [
        {
          "internalType": "address",
          "name": "user",
          "type": "address"
        },
        {
          "internalType": "string",
          "name": "permission",
          "type": "string"
        }
      ],
      "name": "userHasPermission",
      "outputs": [
        {
          "internalType": "bool",
          "name": "",
          "type": "bool"
        }
      ],
      "stateMutability": "view",
      "type": "function"
    },
    {
      "inputs": [
        {
          "internalType": "address",
          "name": "user",
          "type": "address"
        },
        {
          "internalType": "enum AuthorizationManager.Role",
          "name": "requiredRole",
          "type": "uint8"
        }
      ],
      "name": "userHasRole",
      "outputs": [
        {
          "internalType": "bool",
          "name": "",
          "type": "bool"
        }
      ],
      "stateMutability": "view",
      "type": "function"
    },
    {
      "inputs": [
        {
          "internalType": "address",
          "name": "",
          "type": "address"
        }
      ],
      "name": "userRoles",
      "outputs": [
        {
          "internalType": "enum AuthorizationManager.Role",
          "name": "role",
          "type": "uint8"
        },
        {
          "internalType": "uint256",
          "name": "assignedAt",
          "type": "uint256"
        },
        {
          "internalType": "address",
          "name": "assignedBy",
          "type": "address"
        },
        {
          "internalType": "bool",
          "name": "isActive",
          "type": "bool"
        },
        {
          "internalType": "uint256",
          "name": "expiresAt",
          "type": "uint256"
        }
      ],
      "stateMutability": "view",
      "type": "function"
    }
  ],
  "bytecode": "0x6080346200046757601f62002b6e38819003918201601f19168301916001600160401b038311848410176200046c578084926020946040528339810103126200046757516001600160a01b0380821691829003620004675760016000558115620004185760018060a01b0319903382600554161760055533600052600660205260406000209060ff199160018382541617905560055416600052600460205260016040600020918254161790556001541617600155620000be62000482565b60018152602081019060008252600060408201526000606082015260016080820152600060a0820152600060c0820152600160005260036020526040600020916200011882511515849060ff801983541691151516179055565b5115159065ff000000000083546040830151151563ff000000606085015115159162ff000064ff000000006080880151151560201b169461ff0066ff00000000000060c060a08b015115159a0151151560301b169960081b169066ffffffffffff001916179160101b16179160181b1617179160281b16171790556200019d62000482565b6000815260208101600181526040820190600082526060830160008152608084016001815260a08501916000835260c08601936000855260026000526003602052620001fd604060002097511515889060ff801983541691151516179055565b5115159461ff0066ff00000000000065ff000000000064ff0000000063ff00000062ff00008c549651151560101b169651151560181b169651151560201b169651151560281b169651151560301b169660081b169066ffffffffffff00191617171717171790556200026e62000482565b6001815260208101600181526040820190600182526060830160018152608084016001815260a08501916000835260c08601936000855260036000526003602052620002ce604060002097511515889060ff801983541691151516179055565b5115159461ff0066ff00000000000065ff000000000064ff0000000063ff00000062ff00008c549651151560101b169651151560181b169651151560201b169651151560281b169651151560301b169660081b169066ffffffffffff00191617171717171790556200033f62000482565b600181526001602082015260408101600181526060820160018152608083016001815260a08401906001825260c085019260018452600460005260036020526020604060002096620003a081511515899060ff801983541691151516179055565b015115159461ff0066ff00000000000065ff000000000064ff0000000063ff00000062ff00008c549651151560101b169651151560181b169651151560201b169651151560281b169651151560301b169660081b169066ffffffffffff00191617171717171790556040516126cb9081620004a38239f35b60405162461bcd60e51b815260206004820152602160248201527f496e76616c6964206175646974206c6f672073746f72616765206164647265736044820152607360f81b6064820152608490fd5b600080fd5b634e487b7160e01b600052604160045260246000fd5b6040519060e082016001600160401b038111838210176200046c5760405256fe6080604052600436101561001257600080fd5b6000803560e01c80631129400e1461153e57806327820851146113d757806344c6f53a1461119257806347683b5914610de95780634dd8a95d14610dbb5780634ff25b1014610d94578063526241a814610d57578063542a086c14610c85578063614d08f814610c2357806374d5e10014610bae57806380e52e3f14610af757806389b1e0b114610ab05780638da5cb5b14610a89578063ad25cb4214610a4c578063ad6e823b14610a02578063c0deb975146108f5578063c780484a146102a1578063df7f453b1461023d578063ebe3bb621461015a578063f0b0bb06146101225763ffa1ad741461010457600080fd5b3461011f578060031936011261011f57602060405160018152f35b80fd5b503461011f5760206101506101363661180f565b9061014b6001600160a01b0382161515611988565b61200f565b6040519015158152f35b503461011f57604036600319011261011f576101746115f4565b61017c611664565b906001600160a01b039061019582600554163314611852565b61019d61189d565b169081156101f95760207fb3418fa54158e9be5887e154d5d62af57cf8cf4c4672dec649aedb19443f806791838552600682526101e981604087209060ff801983541691151516179055565b6040519015158152a26001815580f35b606460405162461bcd60e51b815260206004820152601560248201527f496e76616c69642061646d696e206164647265737300000000000000000000006044820152fd5b503461011f57602036600319011261011f576020906001600160a01b039060ff6040836102686115f4565b1692610275841515611988565b83815260068652205416918215610293575b50506040519015158152f35b600554161490503880610287565b503461011f57608036600319011261011f576102bb6115f4565b600560243510156108f15760443567ffffffffffffffff81116106f7576102e690369060040161178e565b90338352600460205260ff60408420541680156108d8575b6103079061193d565b61031b6001600160a01b0382161515611988565b61032860243515156118f2565b606435158080156108cd575b15610889576001600160a01b0382168452600260205260ff604085205416600581101561087557610867575b60405161036c81611673565b610378602435826119d3565b8360208201524260408201523360608201526001608082015260643560a08201526001600160a01b0383168552600260205260408520908051600581101561085357858585858a9460ff801983541691161781556001810195602081015160208151916103e5838b611a30565b019787526020872087905b8282106107165750505090600460a083604089969501516002850155600384016001600160a01b036060830151168154907fffffffffffffffffffffff00000000000000000000000000000000000000000074ff000000000000000000000000000000000000000060808601511515871b1692161717905501519101556001600160a01b0360015416610594604561048960243561227c565b610492886123c4565b9415610706576040516104a4816116d5565b600581527f4e6576657200000000000000000000000000000000000000000000000000000060208201525b6040519586927f526f6c652061737369676e65643a200000000000000000000000000000000000602085015261050f815180926020602f8801910161161c565b83017f2c2054656e616e74733a20000000000000000000000000000000000000000000602f82015261054b825180936020603a8501910161161c565b017f2c20457870697265733a20000000000000000000000000000000000000000000603a820152610585825180936020878501910161161c565b010360258101855201836116f1565b803b156106f75761060983916040938385519586948593634dac955d60e01b85526001600160a01b038b16600486015260a06024860152600d60a48601527f524f4c455f41535349474e45440000000000000000000000000000000000000060c486015260e0604486015260e485019061163f565b8260208583039260031984016064880152828152601c84016084880152015201925af180156106fb576106e3575b5050604051906080820161064d8360243561160f565b60806020840152835180915260a0830190602060a08260051b86010195019186905b8282106106b8573360408701526064356060870152876001600160a01b0386167f0f8dc0078968a75bbe2c876153f4c68da7c3e10bee1c75a0a282022037166ff7888a0389a280f35b909192956020806106d5600193609f198a82030186528a5161163f565b98019201920190929161066f565b6106ec906116c1565b6106f7578284610637565b8280fd5b6040513d84823e3d90fd5b61071160643561259a565b6104cf565b895180519067ffffffffffffffff821161083f5761073483546119df565b601f8111610804575b50602090601f8311600114610791578b9c8360019485948f9d9e9f9460209592610786575b5050600019600383901b1c191690841b1785555b019b5097999897920191016103f0565b015190503880610762565b90838c5260208c20918c5b601f19851681106107ec57509c6001848e9f949d9e9c9d6020948397968497601f198116106107d3575b505050811b018555610776565b015160001960f88460031b161c191690553880806107c6565b9192602060018192868501518155019401920161079c565b61082f90848d5260208d20601f850160051c81019160208610610835575b601f0160051c0190611a19565b8c61073d565b9091508190610822565b60248b634e487b7160e01b81526041600452fd5b602487634e487b7160e01b81526021600452fd5b61087082611b10565b610360565b602485634e487b7160e01b81526021600452fd5b606460405162461bcd60e51b815260206004820152601360248201527f496e76616c6964206578706972792074696d65000000000000000000000000006044820152fd5b504260643511610334565b506103076001600160a01b0360055416331490506102fe565b5080fd5b503461011f57602036600319011261011f5760043560058110156108f15761095b9060e09260c0604051610928816116a5565b8281528260208201528260408201528260608201528260808201528260a082015201526109568115156118f2565b6115c5565b60405190610968826116a5565b5460ff9182821615159283825260208201818460081c161515815260408301828560101c16151581526060840191838660181c16151583526080850193808760201c161515855260c060a0870196828960281c1615158852019660301c1615158652604051968752511515602087015251151560408601525115156060850152511515608084015251151560a083015251151560c0820152f35b503461011f57602036600319011261011f576020906001600160a01b039060ff604083610a2d6115f4565b1692838152600486522054169182156102935750506040519015158152f35b503461011f57602036600319011261011f5760ff60406020926001600160a01b03610a756115f4565b168152600684522054166040519015158152f35b503461011f578060031936011261011f5760206001600160a01b0360055416604051908152f35b503461011f57604036600319011261011f57610aca6115f4565b60243591600583101561011f5760206101508484610af26001600160a01b0382161515611988565b611f65565b503461011f57602036600319011261011f57610b116115f4565b338252600460205260ff6040832054168015610b95575b610b319061193d565b6001600160a01b038116610b46811515611988565b610b4e61189d565b8252600260205260ff6040832054166005811015610b815790610b75610b7a921515611ac5565b611b10565b6001815580f35b602483634e487b7160e01b81526021600452fd5b50610b316001600160a01b036005541633149050610b28565b503461011f57602036600319011261011f5760a09060406001600160a01b039182610bd76115f4565b1681526002602052209060ff80835416926002810154926004600383015492015493610c06604051809761160f565b602086015281166040850152841c16151560608301526080820152f35b503461011f578060031936011261011f57610c81604051610c43816116d5565b601481527f417574686f72697a6174696f6e4d616e61676572000000000000000000000000602082015260405191829160208352602083019061163f565b0390f35b503461011f57604036600319011261011f57610c9f6115f4565b610ca7611664565b906001600160a01b0390610cc082600554163314611852565b610cc861189d565b16908115610d135760207e8ebc621f24e0e9d1fd4ee2f7df9bb80c8d61ee30a9167a4fee6cefcf8c021e91838552600482526101e981604087209060ff801983541691151516179055565b606460405162461bcd60e51b815260206004820152601660248201527f496e76616c6964207772697465722061646472657373000000000000000000006044820152fd5b503461011f57602036600319011261011f5760ff60406020926001600160a01b03610d806115f4565b168152600484522054166040519015158152f35b503461011f578060031936011261011f5760206001600160a01b0360015416604051908152f35b503461011f576020610150610dcf3661180f565b90610de46001600160a01b0382161515611988565b611e45565b503461011f57604036600319011261011f57610e036115f4565b60243567ffffffffffffffff81116106f757610e2390369060040161178e565b90338352600460205260ff6040842054168015611179575b610e449061193d565b610e586001600160a01b0382161515611988565b6001600160a01b0381168352600260205260ff604084205416600581101561116557610e85901515611ac5565b610e8e8161224d565b6111215791906001600160a01b0383168252600260205260016040832001928151610eb98186611a30565b602083019484526020842084905b828210610feb575050508290610ee86001600160a01b0360015416936123c4565b92610f3c603760405180967f54656e616e742061636365737320757064617465643a200000000000000000006020830152610f2c815180926020868601910161161c565b81010360178101875201856116f1565b803b156106f7576001600160a01b0391836040610fae81519788968795634dac955d60e01b875216600486015260a06024860152601560a48601527f54454e414e545f4143434553535f55504441544544000000000000000000000060c486015260e0604486015260e485019061163f565b8260208583039260031984016064880152828152601c84016084880152015201925af180156106fb57610fdf575080f35b610fe8906116c1565b80f35b865180519067ffffffffffffffff821161110d5761100983546119df565b90601f918281116110d5575b5060209183116001146110645788998360019485946020948d9c9d92611059575b5050600019600383901b1c191690841b1785555b01985095969592019101610ec7565b015190503880611036565b908389526020892091895b601f19851681106110bd5750996001848195946020948d9e84979d9e9d601f198116106110a4575b505050811b01855561104a565b015160001960f88460031b161c19169055388080611097565b9192602060018192868501518155019401920161106f565b6110fe90858b5260208b208480870160051c82019260208810611104575b0160051c0190611a19565b38611015565b925081926110f3565b602488634e487b7160e01b81526041600452fd5b606460405162461bcd60e51b815260206004820152601160248201527f5573657220726f6c6520657870697265640000000000000000000000000000006044820152fd5b602484634e487b7160e01b81526021600452fd5b50610e446001600160a01b036005541633149050610e3b565b503461011f5761010036600319011261011f5760043560058110156108f1576111b9611664565b90604435908115158092036113d357606435928315158094036113cf57608435938415158095036113cb5760a4358015158091036113c75760c4358015158091036113c35760e435918215158093036113bf57338952600660205260ff60408a20541680156113ab575b15611367577f3ccd23dbde7fb454d4d6366c60a3b3ca834adeea0b565d59a7e543988a08c5b09760a0976112588815156118f2565b60405196611265886116a5565b151587526020870190815260408701958652606087019182526080870192835288870193845260c087019485526112b461129e896115c5565b97511515889060ff801983541691151516179055565b5115159461ff0066ff00000000000065ff000000000064ff0000000063ff00000062ff00008c549651151560101b169651151560181b169651151560201b169651151560281b169651151560301b169660081b169066ffffffffffff0019161717171717179055611328604051809261160f565b60606020820152600b60608201527f7065726d697373696f6e73000000000000000000000000000000000000000000608082015260016040820152a180f35b606460405162461bcd60e51b815260206004820152601060248201527f4f6e6c792073757065722061646d696e000000000000000000000000000000006044820152fd5b506001600160a01b03600554163314611223565b8880fd5b8780fd5b8680fd5b8580fd5b8480fd5b8380fd5b503461011f576020806003193601126108f157906113f36115f4565b918160a060405161140381611673565b82815260608482015282604082015282606082015282608082015201526001600160a01b03809316611436811515611988565b82526002815260408220916040519061144e82611673565b61145c60ff855416836119d3565b60019461146a868601611d19565b9484840195865260028101546040850190815260038201549360046060870193858716855260ff608089019760a01c161515875201549560a0810196875260405198888a526114c160e08b01928a8c01905161160f565b519760c060408b0152885180925261010081818c01918460051b8d01019a0193905b8382106115115750505050508697505160608701525116608085015251151560a08401525160c08301520390f35b9091929399838061152f8f938f8f9060ff199083030187525161163f565b9c0192019201909392916114e3565b503461011f57602036600319011261011f5760043590600582101561011f5760e0611568836115c5565b546040519060ff9081811615158352818160081c1615156020840152818160101c1615156040840152818160181c1615156060840152818160201c1615156080840152818160281c16151560a084015260301c16151560c0820152f35b60058110156115de576000526003602052604060002090565b634e487b7160e01b600052602160045260246000fd5b600435906001600160a01b038216820361160a57565b600080fd5b9060058210156115de5752565b60005b83811061162f5750506000910152565b818101518382015260200161161f565b906020916116588151809281855285808601910161161c565b601f01601f1916010190565b60243590811515820361160a57565b60c0810190811067ffffffffffffffff82111761168f57604052565b634e487b7160e01b600052604160045260246000fd5b60e0810190811067ffffffffffffffff82111761168f57604052565b67ffffffffffffffff811161168f57604052565b6040810190811067ffffffffffffffff82111761168f57604052565b90601f8019910116810190811067ffffffffffffffff82111761168f57604052565b67ffffffffffffffff811161168f5760051b60200190565b67ffffffffffffffff811161168f57601f01601f191660200190565b81601f8201121561160a5780359061175e8261172b565b9261176c60405194856116f1565b8284526020838301011161160a57816000926020809301838601378301015290565b9080601f8301121561160a578135906117a682611713565b926117b460405194856116f1565b828452602092838086019160051b8301019280841161160a57848301915b8483106117e25750505050505090565b823567ffffffffffffffff811161160a57869161180484848094890101611747565b8152019201916117d2565b90604060031983011261160a576004356001600160a01b038116810361160a57916024359067ffffffffffffffff821161160a5761184f91600401611747565b90565b1561185957565b606460405162461bcd60e51b815260206004820152600a60248201527f4f6e6c79206f776e6572000000000000000000000000000000000000000000006044820152fd5b6002600054146118ae576002600055565b606460405162461bcd60e51b815260206004820152601f60248201527f5265656e7472616e637947756172643a207265656e7472616e742063616c6c006044820152fd5b156118f957565b606460405162461bcd60e51b815260206004820152600c60248201527f496e76616c696420726f6c6500000000000000000000000000000000000000006044820152fd5b1561194457565b606460405162461bcd60e51b815260206004820152600e60248201527f4e6f7420617574686f72697a65640000000000000000000000000000000000006044820152fd5b1561198f57565b606460405162461bcd60e51b815260206004820152601460248201527f496e76616c6964207573657220616464726573730000000000000000000000006044820152fd5b60058210156115de5752565b90600182811c92168015611a0f575b60208310146119f957565b634e487b7160e01b600052602260045260246000fd5b91607f16916119ee565b818110611a24575050565b60008155600101611a19565b68010000000000000000821161168f57805491808255828110611a5257505050565b600091825260209081832093840193015b838110611a705750505050565b8083611a7e600193546119df565b80611a8c575b505001611a63565b601f8082118514611aa357505081555b8338611a84565b611abc90848452868420920160051c8201858301611a19565b81835555611a9c565b15611acc57565b606460405162461bcd60e51b815260206004820152601060248201527f5573657220686173206e6f20726f6c65000000000000000000000000000000006044820152fd5b9060006001600160a01b03809316908181526020906002825260409160ff838320541691600196875416611b438461227c565b611b93602e875180937f526f6c65207265766f6b65643a2000000000000000000000000000000000000088830152611b83815180928a868601910161161c565b810103600e8101845201826116f1565b813b156106f757611bfe869284928385519586948593634dac955d60e01b85528d600486015260a06024860152600c60a48601527f524f4c455f5245564f4b4544000000000000000000000000000000000000000060c486015260e0604486015260e485019061163f565b828a8583039260031984016064880152828152601c84016084880152015201925af18015611d0f57611d00575b5084815260028252838120968188558088018054906000815581611c95575b5050506004878260027fdc8ee88592cee6126ab42f95859fdf2bbf7b0a614a14d4fb307b601e2b5b0b0598999a01558260038201550155611c8d8351809361160f565b3390820152a2565b60005283600020908101905b81811015611c4a5780611cb58492546119df565b80611cc2575b5001611ca1565b601f90818111600114611cdc575050600081555b38611cbb565b611cf7600092848452898420920160051c8201858301611a19565b81835555611cd6565b611d09906116c1565b38611c2b565b85513d84823e3d90fd5b90815491611d2683611713565b92604091611d36835195866116f1565b81855260009081526020808220938291908188015b858410611d5b5750505050505050565b8151838692895492611d6c846119df565b808252600194808616908115611dda5750600114611da2575b50611d948160019603826116f1565b815201970193019295611d4b565b8b8a52838a20955089905b808210611dc35750810183019450611d94611d85565b865483830186015295850195889490910190611dad565b60ff19168584015250151560051b810183019450611d94611d85565b6000198114611e055760010190565b634e487b7160e01b600052601160045260246000fd5b8051821015611e2f5760209160051b010190565b634e487b7160e01b600052603260045260246000fd5b6001600160a01b038116916000928084526020926002845260ff6040862054166005811015611f515715908115611f34575b8115611f24575b50611f1e578084526002835260ff611e9b816040872054166115c5565b5460301c16611f155783929352600283526001928391611ebf836040862001611d19565b84955b611ed0575b50505050905090565b8051861015611f1057611ee38682611e1b565b5183815191012082518484012014611f0757611f00849596611df6565b9594611ec2565b50505091505090565b611ec7565b50505050600190565b50505090565b611f2e915061224d565b38611e7e565b82865260028552604086206003015460a01c60ff16159150611e77565b602486634e487b7160e01b81526021600452fd5b6001600160a01b038116600091818352600260205260ff60408420541660058110156111655715908115611ff1575b8115611fe1575b50611fdb578152600260205260ff604082205416906005831015611fc7576005821015611fc757501490565b80634e487b7160e01b602492526021600452fd5b50905090565b611feb915061224d565b38611f9b565b8284526002602052604084206003015460a01c60ff16159150611f94565b906001600160a01b0382166000928184526020916002835260ff918260408720541660058110156108535715908115612231575b8115612221575b5061221a57845260028252612064816040862054166115c5565b9060405191612072836116a5565b5494818616151595868452828160081c161515958686860152838260101c16151595866040870152848360181c1615159586606082015260c08685841c16151596876080840152808660281c161515958660a085015260301c16151591015281519101207f0b6d030b9a5e62dca8c6482a503408255930d330077183459ce39d5eececce59811460001461210a575050505050505090565b90919293949596507f63844f61112994bc9ae1e054cf63c71b962ea0c1df3395f5c0d16680d8bcc6aa81146000146121455750505050505090565b909192939495507fd9b0a0205efaaefbf7210cb5bcc30526679b01d8de7f21ca3717f6dfbb67b111811460001461217e57505050505090565b9091929394507f241a8fe525b5f9f7139bda2921af84b6c78765b221880009995774855ecf8b0d81146000146121b5575050505090565b92935090917fe0aa2c54f9dee5114f075edec20860fde1cbc04d824ec9c8f06cefb187ffdd3881036121e75750505090565b7f8a91c8e9f16fc71809d4aefea2810ac0fff79cbd82e4f94254c77b8f88dd7c429192935014612215575090565b905090565b5050505090565b61222b915061224d565b3861204a565b82875260028552604087206003015460a01c8416159150612043565b6001600160a01b031660005260026020526004604060002001548015159081612274575090565b905042101590565b60058110156115de576001811461238a57600281146123505760038114612316576004146122dd576040516122b0816116d5565b600481527f4e4f4e4500000000000000000000000000000000000000000000000000000000602082015290565b6040516122e9816116d5565b600b81527f53555045525f41444d494e000000000000000000000000000000000000000000602082015290565b50604051612323816116d5565b600581527f41444d494e000000000000000000000000000000000000000000000000000000602082015290565b5060405161235d816116d5565b600681527f4953535545520000000000000000000000000000000000000000000000000000602082015290565b50604051612397816116d5565b600881527f5645524946494552000000000000000000000000000000000000000000000000602082015290565b8051156125605760409081516123d9816116d5565b6001928382526020917f5b0000000000000000000000000000000000000000000000000000000000000083820152926000908582905b61246a575b5050509261184f926021927f5d0000000000000000000000000000000000000000000000000000000000000095519582612457889451809285808801910161161c565b83019182015203908101845201826116f1565b815181101561255b5761247d8183611e1b565b516124ba86865180938261249a8184019c8d81519384920161161c565b82016124ae8251809386808501910161161c565b010380845201826116f1565b80968351600019810190811161254757908392918a9594106124e9575b50506124e290611df6565b909161240f565b6124e2929850602261250a9261253f9289519485925180928d85019061161c565b81017f2c200000000000000000000000000000000000000000000000000000000000008b8201520360028101845201826116f1565b9690386124d7565b602486634e487b7160e01b81526011600452fd5b612414565b5060405161256d816116d5565b600281527f5b5d000000000000000000000000000000000000000000000000000000000000602082015290565b801561265b5780816000925b61264557506125b48261172b565b916125c260405193846116f1565b808352601f196125d18261172b565b01908260209236848701375b6125e75750505090565b6000198101908111611e05578092600a9160308383068101809111611e05578651821015611e2f5760f81b7fff000000000000000000000000000000000000000000000000000000000000001660001a9086018401530491826125dd565b9091612652600a91611df6565b929104806125a6565b50604051612668816116d5565b600181527f300000000000000000000000000000000000000000000000000000000000000060208201529056fea264697066735822122088826cb6e89f1782a83a7e39b51d9bc06dad2733d7fc86d82fc3d8b098c14c0d64736f6c63430008140033",
  "linkReferences": {},
  "deployedLinkReferences": {}
}