{
  "_format": "hh-sol-artifact-1",
  "contractName": "AuthorizationManager",
  "sourceName": "contracts/access/AuthorizationManager.sol",
  "abi": [
    {
      "inputs": [
        {
          "internalType": "address",
          "name": "_auditLogStorage",
          "type": "address"
        }
      ],
      "stateMutability": "nonpayable",
      "type": "constructor"
    },
    {
      "anonymous": false,
      "inputs": [
        {
          "indexed": true,
          "internalType": "address",
          "name": "writer",
          "type": "address"
        },
        {
          "indexed": false,
          "internalType": "bool",
          "name": "authorized",
          "type": "bool"
        }
      ],
      "name": "AuthorizedWriterUpdated",
      "type": "event"
    },
    {
      "anonymous": false,
      "inputs": [
        {
          "indexed": true,
          "internalType": "address",
          "name": "user",
          "type": "address"
        },
        {
          "indexed": false,
          "internalType": "enum AuthorizationManager.Role",
          "name": "role",
          "type": "uint8"
        },
        {
          "indexed": false,
          "internalType": "string[]",
          "name": "tenantIds",
          "type": "string[]"
        },
        {
          "indexed": false,
          "internalType": "address",
          "name": "assignedBy",
          "type": "address"
        },
        {
          "indexed": false,
          "internalType": "uint256",
          "name": "expiresAt",
          "type": "uint256"
        }
      ],
      "name": "RoleAssigned",
      "type": "event"
    },
    {
      "anonymous": false,
      "inputs": [
        {
          "indexed": false,
          "internalType": "enum AuthorizationManager.Role",
          "name": "role",
          "type": "uint8"
        },
        {
          "indexed": false,
          "internalType": "string",
          "name": "field",
          "type": "string"
        },
        {
          "indexed": false,
          "internalType": "bool",
          "name": "value",
          "type": "bool"
        }
      ],
      "name": "RolePermissionsUpdated",
      "type": "event"
    },
    {
      "anonymous": false,
      "inputs": [
        {
          "indexed": true,
          "internalType": "address",
          "name": "user",
          "type": "address"
        },
        {
          "indexed": false,
          "internalType": "enum AuthorizationManager.Role",
          "name": "role",
          "type": "uint8"
        },
        {
          "indexed": false,
          "internalType": "address",
          "name": "revokedBy",
          "type": "address"
        }
      ],
      "name": "RoleRevoked",
      "type": "event"
    },
    {
      "anonymous": false,
      "inputs": [
        {
          "indexed": true,
          "internalType": "address",
          "name": "admin",
          "type": "address"
        },
        {
          "indexed": false,
          "internalType": "bool",
          "name": "isSuperAdmin",
          "type": "bool"
        }
      ],
      "name": "SuperAdminUpdated",
      "type": "event"
    },
    {
      "inputs": [],
      "name": "CONTRACT_NAME",
      "outputs": [
        {
          "internalType": "string",
          "name": "",
          "type": "string"
        }
      ],
      "stateMutability": "view",
      "type": "function"
    },
    {
      "inputs": [],
      "name": "VERSION",
      "outputs": [
        {
          "internalType": "uint256",
          "name": "",
          "type": "uint256"
        }
      ],
      "stateMutability": "view",
      "type": "function"
    },
    {
      "inputs": [
        {
          "internalType": "address",
          "name": "user",
          "type": "address"
        },
        {
          "internalType": "enum AuthorizationManager.Role",
          "name": "role",
          "type": "uint8"
        },
        {
          "internalType": "string[]",
          "name": "tenantIds",
          "type": "string[]"
        },
        {
          "internalType": "uint256",
          "name": "expiresAt",
          "type": "uint256"
        }
      ],
      "name": "assignRole",
      "outputs": [],
      "stateMutability": "nonpayable",
      "type": "function"
    },
    {
      "inputs": [],
      "name": "auditLogStorage",
      "outputs": [
        {
          "internalType": "contract AuditLogStorage",
          "name": "",
          "type": "address"
        }
      ],
      "stateMutability": "view",
      "type": "function"
    },
    {
      "inputs": [
        {
          "internalType": "address",
          "name": "",
          "type": "address"
        }
      ],
      "name": "authorizedWriters",
      "outputs": [
        {
          "internalType": "bool",
          "name": "",
          "type": "bool"
        }
      ],
      "stateMutability": "view",
      "type": "function"
    },
    {
      "inputs": [
        {
          "internalType": "enum AuthorizationManager.Role",
          "name": "role",
          "type": "uint8"
        }
      ],
      "name": "getRolePermissions",
      "outputs": [
        {
          "components": [
            {
              "internalType": "bool",
              "name": "canVerifyKYC",
              "type": "bool"
            },
            {
              "internalType": "bool",
              "name": "canIssueCredentials",
              "type": "bool"
            },
            {
              "internalType": "bool",
              "name": "canManageTenants",
              "type": "bool"
            },
            {
              "internalType": "bool",
              "name": "canManageUsers",
              "type": "bool"
            },
            {
              "internalType": "bool",
              "name": "canViewAuditLogs",
              "type": "bool"
            },
            {
              "internalType": "bool",
              "name": "canManageSystem",
              "type": "bool"
            },
            {
              "internalType": "bool",
              "name": "canAccessAllTenants",
              "type": "bool"
            }
          ],
          "internalType": "struct AuthorizationManager.RolePermissions",
          "name": "",
          "type": "tuple"
        }
      ],
      "stateMutability": "view",
      "type": "function"
    },
    {
      "inputs": [
        {
          "internalType": "address",
          "name": "user",
          "type": "address"
        }
      ],
      "name": "getUserRole",
      "outputs": [
        {
          "components": [
            {
              "internalType": "enum AuthorizationManager.Role",
              "name": "role",
              "type": "uint8"
            },
            {
              "internalType": "string[]",
              "name": "tenantIds",
              "type": "string[]"
            },
            {
              "internalType": "uint256",
              "name": "assignedAt",
              "type": "uint256"
            },
            {
              "internalType": "address",
              "name": "assignedBy",
              "type": "address"
            },
            {
              "internalType": "bool",
              "name": "isActive",
              "type": "bool"
            },
            {
              "internalType": "uint256",
              "name": "expiresAt",
              "type": "uint256"
            }
          ],
          "internalType": "struct AuthorizationManager.UserRole",
          "name": "",
          "type": "tuple"
        }
      ],
      "stateMutability": "view",
      "type": "function"
    },
    {
      "inputs": [
        {
          "internalType": "address",
          "name": "user",
          "type": "address"
        },
        {
          "internalType": "string",
          "name": "tenantId",
          "type": "string"
        }
      ],
      "name": "hasTenantAccess",
      "outputs": [
        {
          "internalType": "bool",
          "name": "",
          "type": "bool"
        }
      ],
      "stateMutability": "view",
      "type": "function"
    },
    {
      "inputs": [
        {
          "internalType": "address",
          "name": "writer",
          "type": "address"
        }
      ],
      "name": "isAuthorizedWriter",
      "outputs": [
        {
          "internalType": "bool",
          "name": "",
          "type": "bool"
        }
      ],
      "stateMutability": "view",
      "type": "function"
    },
    {
      "inputs": [
        {
          "internalType": "address",
          "name": "user",
          "type": "address"
        }
      ],
      "name": "isSuperAdmin",
      "outputs": [
        {
          "internalType": "bool",
          "name": "",
          "type": "bool"
        }
      ],
      "stateMutability": "view",
      "type": "function"
    },
    {
      "inputs": [],
      "name": "owner",
      "outputs": [
        {
          "internalType": "address",
          "name": "",
          "type": "address"
        }
      ],
      "stateMutability": "view",
      "type": "function"
    },
    {
      "inputs": [
        {
          "internalType": "address",
          "name": "user",
          "type": "address"
        }
      ],
      "name": "revokeRole",
      "outputs": [],
      "stateMutability": "nonpayable",
      "type": "function"
    },
    {
      "inputs": [
        {
          "internalType": "enum AuthorizationManager.Role",
          "name": "",
          "type": "uint8"
        }
      ],
      "name": "rolePermissions",
      "outputs": [
        {
          "internalType": "bool",
          "name": "canVerifyKYC",
          "type": "bool"
        },
        {
          "internalType": "bool",
          "name": "canIssueCredentials",
          "type": "bool"
        },
        {
          "internalType": "bool",
          "name": "canManageTenants",
          "type": "bool"
        },
        {
          "internalType": "bool",
          "name": "canManageUsers",
          "type": "bool"
        },
        {
          "internalType": "bool",
          "name": "canViewAuditLogs",
          "type": "bool"
        },
        {
          "internalType": "bool",
          "name": "canManageSystem",
          "type": "bool"
        },
        {
          "internalType": "bool",
          "name": "canAccessAllTenants",
          "type": "bool"
        }
      ],
      "stateMutability": "view",
      "type": "function"
    },
    {
      "inputs": [
        {
          "internalType": "address",
          "name": "writer",
          "type": "address"
        },
        {
          "internalType": "bool",
          "name": "authorized",
          "type": "bool"
        }
      ],
      "name": "setAuthorizedWriter",
      "outputs": [],
      "stateMutability": "nonpayable",
      "type": "function"
    },
    {
      "inputs": [
        {
          "internalType": "address",
          "name": "admin",
          "type": "address"
        },
        {
          "internalType": "bool",
          "name": "isSuperAdminStatus",
          "type": "bool"
        }
      ],
      "name": "setSuperAdmin",
      "outputs": [],
      "stateMutability": "nonpayable",
      "type": "function"
    },
    {
      "inputs": [
        {
          "internalType": "address",
          "name": "",
          "type": "address"
        }
      ],
      "name": "superAdmins",
      "outputs": [
        {
          "internalType": "bool",
          "name": "",
          "type": "bool"
        }
      ],
      "stateMutability": "view",
      "type": "function"
    },
    {
      "inputs": [
        {
          "internalType": "enum AuthorizationManager.Role",
          "name": "role",
          "type": "uint8"
        },
        {
          "internalType": "bool",
          "name": "canVerifyKYC",
          "type": "bool"
        },
        {
          "internalType": "bool",
          "name": "canIssueCredentials",
          "type": "bool"
        },
        {
          "internalType": "bool",
          "name": "canManageTenants",
          "type": "bool"
        },
        {
          "internalType": "bool",
          "name": "canManageUsers",
          "type": "bool"
        },
        {
          "internalType": "bool",
          "name": "canViewAuditLogs",
          "type": "bool"
        },
        {
          "internalType": "bool",
          "name": "canManageSystem",
          "type": "bool"
        },
        {
          "internalType": "bool",
          "name": "canAccessAllTenants",
          "type": "bool"
        }
      ],
      "name": "updateRolePermissions",
      "outputs": [],
      "stateMutability": "nonpayable",
      "type": "function"
    },
    {
      "inputs": [
        {
          "internalType": "address",
          "name": "user",
          "type": "address"
        },
        {
          "internalType": "string[]",
          "name": "tenantIds",
          "type": "string[]"
        }
      ],
      "name": "updateUserTenantAccess",
      "outputs": [],
      "stateMutability": "nonpayable",
      "type": "function"
    },
    {
      "inputs": [
        {
          "internalType": "address",
          "name": "user",
          "type": "address"
        },
        {
          "internalType": "string",
          "name": "permission",
          "type": "string"
        }
      ],
      "name": "userHasPermission",
      "outputs": [
        {
          "internalType": "bool",
          "name": "",
          "type": "bool"
        }
      ],
      "stateMutability": "view",
      "type": "function"
    },
    {
      "inputs": [
        {
          "internalType": "address",
          "name": "user",
          "type": "address"
        },
        {
          "internalType": "enum AuthorizationManager.Role",
          "name": "requiredRole",
          "type": "uint8"
        }
      ],
      "name": "userHasRole",
      "outputs": [
        {
          "internalType": "bool",
          "name": "",
          "type": "bool"
        }
      ],
      "stateMutability": "view",
      "type": "function"
    },
    {
      "inputs": [
        {
          "internalType": "address",
          "name": "",
          "type": "address"
        }
      ],
      "name": "userRoles",
      "outputs": [
        {
          "internalType": "enum AuthorizationManager.Role",
          "name": "role",
          "type": "uint8"
        },
        {
          "internalType": "uint256",
          "name": "assignedAt",
          "type": "uint256"
        },
        {
          "internalType": "address",
          "name": "assignedBy",
          "type": "address"
        },
        {
          "internalType": "bool",
          "name": "isActive",
          "type": "bool"
        },
        {
          "internalType": "uint256",
          "name": "expiresAt",
          "type": "uint256"
        }
      ],
      "stateMutability": "view",
      "type": "function"
    }
  ],
  "bytecode": "0x6080346200044e57601f62002b2138819003918201601f19168301916001600160401b0383118484101762000452578084926020946040528339810103126200044e57516001600160a01b03808216918290036200044e5760015f558115620003ff5760018060a01b03199033826005541617600555335f52600660205260405f209060ff1991600183825416179055600554165f526004602052600160405f20918254161790556001541617600155620000b962000466565b6001815260208101905f82525f60408201525f6060820152600160808201525f60a08201525f60c082015260015f52600360205260405f20916200010c82511515849060ff801983541691151516179055565b5115159065ff000000000083546040830151151563ff000000606085015115159162ff000064ff000000006080880151151560201b169461ff0066ff00000000000060c060a08b015115159a0151151560301b169960081b169066ffffffffffff001916179160101b16179160181b1617179160281b16171790556200019162000466565b5f8152602081016001815260408201905f8252606083015f8152608084016001815260a08501915f835260c08601935f855260025f526003602052620001ea60405f2097511515889060ff801983541691151516179055565b5115159461ff0066ff00000000000065ff000000000064ff0000000063ff00000062ff00008c549651151560101b169651151560181b169651151560201b169651151560281b169651151560301b169660081b169066ffffffffffff00191617171717171790556200025b62000466565b6001815260208101600181526040820190600182526060830160018152608084016001815260a08501915f835260c08601935f855260035f526003602052620002b760405f2097511515889060ff801983541691151516179055565b5115159461ff0066ff00000000000065ff000000000064ff0000000063ff00000062ff00008c549651151560101b169651151560181b169651151560201b169651151560281b169651151560301b169660081b169066ffffffffffff00191617171717171790556200032862000466565b600181526001602082015260408101600181526060820160018152608083016001815260a08401906001825260c08501926001845260045f526003602052602060405f20966200038781511515899060ff801983541691151516179055565b015115159461ff0066ff00000000000065ff000000000064ff0000000063ff00000062ff00008c549651151560101b169651151560181b169651151560201b169651151560281b169651151560301b169660081b169066ffffffffffff001916171717171717905560405161269a9081620004878239f35b60405162461bcd60e51b815260206004820152602160248201527f496e76616c6964206175646974206c6f672073746f72616765206164647265736044820152607360f81b6064820152608490fd5b5f80fd5b634e487b7160e01b5f52604160045260245ffd5b6040519060e082016001600160401b03811183821017620004525760405256fe60806040526004361015610011575f80fd5b5f803560e01c80631129400e1461153757806327820851146113d057806344c6f53a1461118b57806347683b5914610de45780634dd8a95d14610db65780634ff25b1014610d8f578063526241a814610d52578063542a086c14610c80578063614d08f814610c1e57806374d5e10014610ba957806380e52e3f14610af257806389b1e0b114610aab5780638da5cb5b14610a84578063ad25cb4214610a47578063ad6e823b146109fd578063c0deb975146108f0578063c780484a1461029e578063df7f453b1461023a578063ebe3bb6214610157578063f0b0bb061461011f5763ffa1ad7414610101575f80fd5b3461011c578060031936011261011c57602060405160018152f35b80fd5b503461011c57602061014d610133366117fe565b906101486001600160a01b0382161515611975565b611fea565b6040519015158152f35b503461011c57604036600319011261011c576101716115e9565b610179611656565b906001600160a01b039061019282600554163314611841565b61019a61188c565b169081156101f65760207fb3418fa54158e9be5887e154d5d62af57cf8cf4c4672dec649aedb19443f806791838552600682526101e681604087209060ff801983541691151516179055565b6040519015158152a26001815580f35b606460405162461bcd60e51b815260206004820152601560248201527f496e76616c69642061646d696e206164647265737300000000000000000000006044820152fd5b503461011c57602036600319011261011c576020906001600160a01b039060ff6040836102656115e9565b1692610272841515611975565b83815260068652205416918215610290575b50506040519015158152f35b600554161490505f80610284565b503461011c57608036600319011261011c576102b86115e9565b600560243510156108ec5760443567ffffffffffffffff81116106f4576102e390369060040161177d565b90338352600460205260ff60408420541680156108d3575b6103049061192a565b6103186001600160a01b0382161515611975565b61032560243515156118df565b606435158080156108c8575b15610884576001600160a01b0382168452600260205260ff604085205416600581101561087057610862575b60405161036981611665565b610375602435826119c0565b8360208201524260408201523360608201526001608082015260643560a08201526001600160a01b0383168552600260205260408520908051600581101561084e57858585858a9460ff801983541691161781556001810195602081015160208151916103e2838b611a1a565b019787526020872087905b8282106107135750505090600460a083604089969501516002850155600384016001600160a01b036060830151168154907fffffffffffffffffffffff00000000000000000000000000000000000000000074ff000000000000000000000000000000000000000060808601511515871b1692161717905501519101556001600160a01b03600154166105916045610486602435612250565b61048f88612398565b9415610703576040516104a1816116c5565b600581527f4e6576657200000000000000000000000000000000000000000000000000000060208201525b6040519586927f526f6c652061737369676e65643a200000000000000000000000000000000000602085015261050c815180926020602f88019101611610565b83017f2c2054656e616e74733a20000000000000000000000000000000000000000000602f820152610548825180936020603a85019101611610565b017f2c20457870697265733a20000000000000000000000000000000000000000000603a8201526105828251809360208785019101611610565b010360258101855201836116e1565b803b156106f45761060683916040938385519586948593634dac955d60e01b85526001600160a01b038b16600486015260a06024860152600d60a48601527f524f4c455f41535349474e45440000000000000000000000000000000000000060c486015260e0604486015260e4850190611631565b8260208583039260031984016064880152828152601c84016084880152015201925af180156106f8576106e0575b5050604051906080820161064a83602435611603565b60806020840152835180915260a0830190602060a08260051b86010195019186905b8282106106b5573360408701526064356060870152876001600160a01b0386167f0f8dc0078968a75bbe2c876153f4c68da7c3e10bee1c75a0a282022037166ff7888a0389a280f35b909192956020806106d2600193609f198a82030186528a51611631565b98019201920190929161066c565b6106e9906116b1565b6106f4578284610634565b8280fd5b6040513d84823e3d90fd5b61070e60643561256c565b6104cc565b895180519067ffffffffffffffff821161083a5761073183546119cc565b601f81116107ff575b50602090601f831160011461078d578b9c8360019485948f9d9e9f9460209592610782575b50505f19600383901b1c191690841b1785555b019b5097999897920191016103ed565b015190505f8061075f565b90838c5260208c20918c5b601f19851681106107e757509c6001848e9f949d9e9c9d6020948397968497601f198116106107cf575b505050811b018555610772565b01515f1960f88460031b161c191690555f80806107c2565b91926020600181928685015181550194019201610798565b61082a90848d5260208d20601f850160051c81019160208610610830575b601f0160051c0190611a04565b8c61073a565b909150819061081d565b60248b634e487b7160e01b81526041600452fd5b602487634e487b7160e01b81526021600452fd5b61086b82611af9565b61035d565b602485634e487b7160e01b81526021600452fd5b606460405162461bcd60e51b815260206004820152601360248201527f496e76616c6964206578706972792074696d65000000000000000000000000006044820152fd5b504260643511610331565b506103046001600160a01b0360055416331490506102fb565b5080fd5b503461011c57602036600319011261011c5760043560058110156108ec576109569060e09260c060405161092381611695565b8281528260208201528260408201528260608201528260808201528260a082015201526109518115156118df565b6115be565b6040519061096382611695565b5460ff9182821615159283825260208201818460081c161515815260408301828560101c16151581526060840191838660181c16151583526080850193808760201c161515855260c060a0870196828960281c1615158852019660301c1615158652604051968752511515602087015251151560408601525115156060850152511515608084015251151560a083015251151560c0820152f35b503461011c57602036600319011261011c576020906001600160a01b039060ff604083610a286115e9565b1692838152600486522054169182156102905750506040519015158152f35b503461011c57602036600319011261011c5760ff60406020926001600160a01b03610a706115e9565b168152600684522054166040519015158152f35b503461011c578060031936011261011c5760206001600160a01b0360055416604051908152f35b503461011c57604036600319011261011c57610ac56115e9565b60243591600583101561011c57602061014d8484610aed6001600160a01b0382161515611975565b611f41565b503461011c57602036600319011261011c57610b0c6115e9565b338252600460205260ff6040832054168015610b90575b610b2c9061192a565b6001600160a01b038116610b41811515611975565b610b4961188c565b8252600260205260ff6040832054166005811015610b7c5790610b70610b75921515611aae565b611af9565b6001815580f35b602483634e487b7160e01b81526021600452fd5b50610b2c6001600160a01b036005541633149050610b23565b503461011c57602036600319011261011c5760a09060406001600160a01b039182610bd26115e9565b1681526002602052209060ff80835416926002810154926004600383015492015493610c016040518097611603565b602086015281166040850152841c16151560608301526080820152f35b503461011c578060031936011261011c57610c7c604051610c3e816116c5565b601481527f417574686f72697a6174696f6e4d616e616765720000000000000000000000006020820152604051918291602083526020830190611631565b0390f35b503461011c57604036600319011261011c57610c9a6115e9565b610ca2611656565b906001600160a01b0390610cbb82600554163314611841565b610cc361188c565b16908115610d0e5760207e8ebc621f24e0e9d1fd4ee2f7df9bb80c8d61ee30a9167a4fee6cefcf8c021e91838552600482526101e681604087209060ff801983541691151516179055565b606460405162461bcd60e51b815260206004820152601660248201527f496e76616c6964207772697465722061646472657373000000000000000000006044820152fd5b503461011c57602036600319011261011c5760ff60406020926001600160a01b03610d7b6115e9565b168152600484522054166040519015158152f35b503461011c578060031936011261011c5760206001600160a01b0360015416604051908152f35b503461011c57602061014d610dca366117fe565b90610ddf6001600160a01b0382161515611975565b611e22565b503461011c57604036600319011261011c57610dfe6115e9565b60243567ffffffffffffffff81116106f457610e1e90369060040161177d565b90338352600460205260ff6040842054168015611172575b610e3f9061192a565b610e536001600160a01b0382161515611975565b6001600160a01b0381168352600260205260ff604084205416600581101561115e57610e80901515611aae565b610e8981612223565b61111a5791906001600160a01b0383168252600260205260016040832001928151610eb48186611a1a565b602083019484526020842084905b828210610fe6575050508290610ee36001600160a01b036001541693612398565b92610f37603760405180967f54656e616e742061636365737320757064617465643a200000000000000000006020830152610f278151809260208686019101611610565b81010360178101875201856116e1565b803b156106f4576001600160a01b0391836040610fa981519788968795634dac955d60e01b875216600486015260a06024860152601560a48601527f54454e414e545f4143434553535f55504441544544000000000000000000000060c486015260e0604486015260e4850190611631565b8260208583039260031984016064880152828152601c84016084880152015201925af180156106f857610fda575080f35b610fe3906116b1565b80f35b865180519067ffffffffffffffff82116111065761100483546119cc565b90601f918281116110ce575b50602091831160011461105e5788998360019485946020948d9c9d92611053575b50505f19600383901b1c191690841b1785555b01985095969592019101610ec2565b015190505f80611031565b908389526020892091895b601f19851681106110b65750996001848195946020948d9e84979d9e9d601f1981161061109e575b505050811b018555611044565b01515f1960f88460031b161c191690555f8080611091565b91926020600181928685015181550194019201611069565b6110f790858b5260208b208480870160051c820192602088106110fd575b0160051c0190611a04565b5f611010565b925081926110ec565b602488634e487b7160e01b81526041600452fd5b606460405162461bcd60e51b815260206004820152601160248201527f5573657220726f6c6520657870697265640000000000000000000000000000006044820152fd5b602484634e487b7160e01b81526021600452fd5b50610e3f6001600160a01b036005541633149050610e36565b503461011c5761010036600319011261011c5760043560058110156108ec576111b2611656565b90604435908115158092036113cc57606435928315158094036113c857608435938415158095036113c45760a4358015158091036113c05760c4358015158091036113bc5760e435918215158093036113b857338952600660205260ff60408a20541680156113a4575b15611360577f3ccd23dbde7fb454d4d6366c60a3b3ca834adeea0b565d59a7e543988a08c5b09760a0976112518815156118df565b6040519661125e88611695565b151587526020870190815260408701958652606087019182526080870192835288870193845260c087019485526112ad611297896115be565b97511515889060ff801983541691151516179055565b5115159461ff0066ff00000000000065ff000000000064ff0000000063ff00000062ff00008c549651151560101b169651151560181b169651151560201b169651151560281b169651151560301b169660081b169066ffffffffffff00191617171717171790556113216040518092611603565b60606020820152600b60608201527f7065726d697373696f6e73000000000000000000000000000000000000000000608082015260016040820152a180f35b606460405162461bcd60e51b815260206004820152601060248201527f4f6e6c792073757065722061646d696e000000000000000000000000000000006044820152fd5b506001600160a01b0360055416331461121c565b8880fd5b8780fd5b8680fd5b8580fd5b8480fd5b8380fd5b503461011c576020806003193601126108ec57906113ec6115e9565b918160a06040516113fc81611665565b82815260608482015282604082015282606082015282608082015201526001600160a01b0380931661142f811515611975565b82526002815260408220916040519061144782611665565b61145560ff855416836119c0565b600194611463868601611cfc565b9484840195865260028101546040850190815260038201549360046060870193858716855260ff608089019760a01c161515875201549560a0810196875260405198888a526114ba60e08b01928a8c019051611603565b519760c060408b0152885180925261010081818c01918460051b8d01019a0193905b83821061150a5750505050508697505160608701525116608085015251151560a08401525160c08301520390f35b909192939983806115288f938f8f9060ff1990830301875251611631565b9c0192019201909392916114dc565b503461011c57602036600319011261011c5760043590600582101561011c5760e0611561836115be565b546040519060ff9081811615158352818160081c1615156020840152818160101c1615156040840152818160181c1615156060840152818160201c1615156080840152818160281c16151560a084015260301c16151560c0820152f35b60058110156115d5575f52600360205260405f2090565b634e487b7160e01b5f52602160045260245ffd5b600435906001600160a01b03821682036115ff57565b5f80fd5b9060058210156115d55752565b5f5b8381106116215750505f910152565b8181015183820152602001611612565b9060209161164a81518092818552858086019101611610565b601f01601f1916010190565b6024359081151582036115ff57565b60c0810190811067ffffffffffffffff82111761168157604052565b634e487b7160e01b5f52604160045260245ffd5b60e0810190811067ffffffffffffffff82111761168157604052565b67ffffffffffffffff811161168157604052565b6040810190811067ffffffffffffffff82111761168157604052565b90601f8019910116810190811067ffffffffffffffff82111761168157604052565b67ffffffffffffffff81116116815760051b60200190565b67ffffffffffffffff811161168157601f01601f191660200190565b81601f820112156115ff5780359061174e8261171b565b9261175c60405194856116e1565b828452602083830101116115ff57815f926020809301838601378301015290565b9080601f830112156115ff5781359061179582611703565b926117a360405194856116e1565b828452602092838086019160051b830101928084116115ff57848301915b8483106117d15750505050505090565b823567ffffffffffffffff81116115ff5786916117f384848094890101611737565b8152019201916117c1565b9060406003198301126115ff576004356001600160a01b03811681036115ff57916024359067ffffffffffffffff82116115ff5761183e91600401611737565b90565b1561184857565b606460405162461bcd60e51b815260206004820152600a60248201527f4f6e6c79206f776e6572000000000000000000000000000000000000000000006044820152fd5b60025f541461189b5760025f55565b606460405162461bcd60e51b815260206004820152601f60248201527f5265656e7472616e637947756172643a207265656e7472616e742063616c6c006044820152fd5b156118e657565b606460405162461bcd60e51b815260206004820152600c60248201527f496e76616c696420726f6c6500000000000000000000000000000000000000006044820152fd5b1561193157565b606460405162461bcd60e51b815260206004820152600e60248201527f4e6f7420617574686f72697a65640000000000000000000000000000000000006044820152fd5b1561197c57565b606460405162461bcd60e51b815260206004820152601460248201527f496e76616c6964207573657220616464726573730000000000000000000000006044820152fd5b60058210156115d55752565b90600182811c921680156119fa575b60208310146119e657565b634e487b7160e01b5f52602260045260245ffd5b91607f16916119db565b818110611a0f575050565b5f8155600101611a04565b68010000000000000000821161168157805491808255828110611a3c57505050565b5f91825260209081832093840193015b838110611a595750505050565b8083611a67600193546119cc565b80611a75575b505001611a4c565b601f8082118514611a8c57505081555b835f611a6d565b611aa590848452868420920160051c8201858301611a04565b81835555611a85565b15611ab557565b606460405162461bcd60e51b815260206004820152601060248201527f5573657220686173206e6f20726f6c65000000000000000000000000000000006044820152fd5b905f6001600160a01b03809316908181526020906002825260409160ff838320541691600196875416611b2b84612250565b611b7b602e875180937f526f6c65207265766f6b65643a2000000000000000000000000000000000000088830152611b6b815180928a8686019101611610565b810103600e8101845201826116e1565b813b156106f457611be6869284928385519586948593634dac955d60e01b85528d600486015260a06024860152600c60a48601527f524f4c455f5245564f4b4544000000000000000000000000000000000000000060c486015260e0604486015260e4850190611631565b828a8583039260031984016064880152828152601c84016084880152015201925af18015611cf257611ce3575b5084815260028252838120968188558088018054905f815581611c7c575b5050506004878260027fdc8ee88592cee6126ab42f95859fdf2bbf7b0a614a14d4fb307b601e2b5b0b0598999a01558260038201550155611c7483518093611603565b3390820152a2565b5f52835f20908101905b81811015611c315780611c9a8492546119cc565b80611ca7575b5001611c86565b601f90818111600114611cc05750505f81555b5f611ca0565b611cda5f92848452898420920160051c8201858301611a04565b81835555611cba565b611cec906116b1565b5f611c13565b85513d84823e3d90fd5b90815491611d0983611703565b92604091611d19835195866116e1565b8185525f9081526020808220938291908188015b858410611d3d5750505050505050565b8151838692895492611d4e846119cc565b808252600194808616908115611dbc5750600114611d84575b50611d768160019603826116e1565b815201970193019295611d2d565b8b8a52838a20955089905b808210611da55750810183019450611d76611d67565b865483830186015295850195889490910190611d8f565b60ff19168584015250151560051b810183019450611d76611d67565b5f198114611de65760010190565b634e487b7160e01b5f52601160045260245ffd5b8051821015611e0e5760209160051b010190565b634e487b7160e01b5f52603260045260245ffd5b6001600160a01b038116915f928084526020926002845260ff6040862054166005811015611f2d5715908115611f10575b8115611f00575b50611efa578084526002835260ff611e77816040872054166115be565b5460301c16611ef15783929352600283526001928391611e9b836040862001611cfc565b84955b611eac575b50505050905090565b8051861015611eec57611ebf8682611dfa565b5183815191012082518484012014611ee357611edc849596611dd8565b9594611e9e565b50505091505090565b611ea3565b50505050600190565b50505090565b611f0a9150612223565b5f611e5a565b82865260028552604086206003015460a01c60ff16159150611e53565b602486634e487b7160e01b81526021600452fd5b6001600160a01b0381165f91818352600260205260ff604084205416600581101561115e5715908115611fcc575b8115611fbc575b50611fb6578152600260205260ff604082205416906005831015611fa2576005821015611fa257501490565b80634e487b7160e01b602492526021600452fd5b50905090565b611fc69150612223565b5f611f76565b8284526002602052604084206003015460a01c60ff16159150611f6f565b906001600160a01b0382165f928184526020916002835260ff9182604087205416600581101561084e5715908115612207575b81156121f7575b506121f05784526002825261203e816040862054166115be565b906040519161204c83611695565b5494818616151595868452828160081c161515958686860152838260101c16151595866040870152848360181c1615159586606082015260c08685841c16151596876080840152808660281c161515958660a085015260301c16151591015281519101207f0b6d030b9a5e62dca8c6482a503408255930d330077183459ce39d5eececce5981145f146120e3575050505050505090565b90919293949596507f63844f61112994bc9ae1e054cf63c71b962ea0c1df3395f5c0d16680d8bcc6aa81145f1461211d5750505050505090565b909192939495507fd9b0a0205efaaefbf7210cb5bcc30526679b01d8de7f21ca3717f6dfbb67b11181145f1461215557505050505090565b9091929394507f241a8fe525b5f9f7139bda2921af84b6c78765b221880009995774855ecf8b0d81145f1461218b575050505090565b92935090917fe0aa2c54f9dee5114f075edec20860fde1cbc04d824ec9c8f06cefb187ffdd3881036121bd5750505090565b7f8a91c8e9f16fc71809d4aefea2810ac0fff79cbd82e4f94254c77b8f88dd7c4291929350146121eb575090565b905090565b5050505090565b6122019150612223565b5f612024565b82875260028552604087206003015460a01c841615915061201d565b6001600160a01b03165f526002602052600460405f2001548015159081612248575090565b905042101590565b60058110156115d5576001811461235e576002811461232457600381146122ea576004146122b157604051612284816116c5565b600481527f4e4f4e4500000000000000000000000000000000000000000000000000000000602082015290565b6040516122bd816116c5565b600b81527f53555045525f41444d494e000000000000000000000000000000000000000000602082015290565b506040516122f7816116c5565b600581527f41444d494e000000000000000000000000000000000000000000000000000000602082015290565b50604051612331816116c5565b600681527f4953535545520000000000000000000000000000000000000000000000000000602082015290565b5060405161236b816116c5565b600881527f5645524946494552000000000000000000000000000000000000000000000000602082015290565b8051156125325760409081516123ad816116c5565b6001928382526020917f5b0000000000000000000000000000000000000000000000000000000000000083820152925f908582905b61243d575b5050509261183e926021927f5d000000000000000000000000000000000000000000000000000000000000009551958261242a8894518092858088019101611610565b83019182015203908101845201826116e1565b815181101561252d576124508183611dfa565b5161248d86865180938261246d8184019c8d815193849201611610565b820161248182518093868085019101611610565b010380845201826116e1565b809683515f19810190811161251957908392918a9594106124bb575b50506124b490611dd8565b90916123e2565b6124b492985060226124dc926125119289519485925180928d850190611610565b81017f2c200000000000000000000000000000000000000000000000000000000000008b8201520360028101845201826116e1565b96905f6124a9565b602486634e487b7160e01b81526011600452fd5b6123e7565b5060405161253f816116c5565b600281527f5b5d000000000000000000000000000000000000000000000000000000000000602082015290565b801561262a5780815f925b61261457506125858261171b565b9161259360405193846116e1565b808352601f196125a28261171b565b01908260209236848701375b6125b85750505090565b5f198101908111611de6578092600a9160308383068101809111611de6578651821015611e0e5760f81b7fff00000000000000000000000000000000000000000000000000000000000000165f1a9086018401530491826125ae565b9091612621600a91611dd8565b92910480612577565b50604051612637816116c5565b600181527f300000000000000000000000000000000000000000000000000000000000000060208201529056fea264697066735822122091705097f472fb703d36fbba6160905f940c0c1c40e2dd928c32a3f3072ff55c64736f6c63430008140033",
  "linkReferences": {},
  "deployedLinkReferences": {}
}