{
  "_format": "hh-sol-artifact-1",
  "contractName": "FeatureFlagsRefactored",
  "sourceName": "contracts/utility/FeatureFlagsRefactored.sol",
  "abi": [
    {
      "inputs": [],
      "stateMutability": "nonpayable",
      "type": "constructor"
    },
    {
      "anonymous": false,
      "inputs": [
        {
          "indexed": true,
          "internalType": "address",
          "name": "writer",
          "type": "address"
        },
        {
          "indexed": false,
          "internalType": "bool",
          "name": "authorized",
          "type": "bool"
        }
      ],
      "name": "AuthorizedWriterUpdated",
      "type": "event"
    },
    {
      "anonymous": false,
      "inputs": [
        {
          "indexed": true,
          "internalType": "string",
          "name": "featureId",
          "type": "string"
        },
        {
          "indexed": false,
          "internalType": "string",
          "name": "name",
          "type": "string"
        },
        {
          "indexed": false,
          "internalType": "enum FeatureFlagsRefactored.FeatureCategory",
          "name": "category",
          "type": "uint8"
        }
      ],
      "name": "FeatureFlagCreated",
      "type": "event"
    },
    {
      "anonymous": false,
      "inputs": [
        {
          "indexed": true,
          "internalType": "string",
          "name": "featureId",
          "type": "string"
        },
        {
          "indexed": false,
          "internalType": "enum FeatureFlagsRefactored.FeatureStatus",
          "name": "status",
          "type": "uint8"
        }
      ],
      "name": "FeatureFlagUpdated",
      "type": "event"
    },
    {
      "inputs": [
        {
          "internalType": "uint256",
          "name": "",
          "type": "uint256"
        }
      ],
      "name": "allFeatureIds",
      "outputs": [
        {
          "internalType": "string",
          "name": "",
          "type": "string"
        }
      ],
      "stateMutability": "view",
      "type": "function"
    },
    {
      "inputs": [
        {
          "internalType": "address",
          "name": "",
          "type": "address"
        }
      ],
      "name": "authorizedWriters",
      "outputs": [
        {
          "internalType": "bool",
          "name": "",
          "type": "bool"
        }
      ],
      "stateMutability": "view",
      "type": "function"
    },
    {
      "inputs": [
        {
          "internalType": "string",
          "name": "featureId",
          "type": "string"
        },
        {
          "internalType": "string",
          "name": "name",
          "type": "string"
        },
        {
          "internalType": "string",
          "name": "description",
          "type": "string"
        },
        {
          "internalType": "enum FeatureFlagsRefactored.FeatureCategory",
          "name": "category",
          "type": "uint8"
        },
        {
          "internalType": "enum FeatureFlagsRefactored.FeatureStatus",
          "name": "status",
          "type": "uint8"
        },
        {
          "internalType": "uint256",
          "name": "rolloutPercentage",
          "type": "uint256"
        },
        {
          "internalType": "string",
          "name": "version",
          "type": "string"
        },
        {
          "internalType": "bool",
          "name": "requiresAuth",
          "type": "bool"
        },
        {
          "internalType": "string",
          "name": "metadata",
          "type": "string"
        }
      ],
      "name": "createFeatureFlag",
      "outputs": [],
      "stateMutability": "nonpayable",
      "type": "function"
    },
    {
      "inputs": [
        {
          "internalType": "string",
          "name": "",
          "type": "string"
        }
      ],
      "name": "featureFlags",
      "outputs": [
        {
          "internalType": "string",
          "name": "featureId",
          "type": "string"
        },
        {
          "internalType": "string",
          "name": "name",
          "type": "string"
        },
        {
          "internalType": "string",
          "name": "description",
          "type": "string"
        },
        {
          "internalType": "enum FeatureFlagsRefactored.FeatureCategory",
          "name": "category",
          "type": "uint8"
        },
        {
          "internalType": "enum FeatureFlagsRefactored.FeatureStatus",
          "name": "status",
          "type": "uint8"
        },
        {
          "internalType": "uint256",
          "name": "rolloutPercentage",
          "type": "uint256"
        },
        {
          "internalType": "uint256",
          "name": "startTime",
          "type": "uint256"
        },
        {
          "internalType": "uint256",
          "name": "endTime",
          "type": "uint256"
        },
        {
          "internalType": "address",
          "name": "createdBy",
          "type": "address"
        },
        {
          "internalType": "string",
          "name": "version",
          "type": "string"
        },
        {
          "internalType": "bool",
          "name": "requiresAuth",
          "type": "bool"
        },
        {
          "internalType": "string",
          "name": "metadata",
          "type": "string"
        }
      ],
      "stateMutability": "view",
      "type": "function"
    },
    {
      "inputs": [
        {
          "internalType": "enum FeatureFlagsRefactored.FeatureCategory",
          "name": "",
          "type": "uint8"
        },
        {
          "internalType": "uint256",
          "name": "",
          "type": "uint256"
        }
      ],
      "name": "featuresByCategory",
      "outputs": [
        {
          "internalType": "string",
          "name": "",
          "type": "string"
        }
      ],
      "stateMutability": "view",
      "type": "function"
    },
    {
      "inputs": [],
      "name": "getAllFeatureIds",
      "outputs": [
        {
          "internalType": "string[]",
          "name": "featureIds",
          "type": "string[]"
        }
      ],
      "stateMutability": "view",
      "type": "function"
    },
    {
      "inputs": [
        {
          "internalType": "string",
          "name": "featureId",
          "type": "string"
        }
      ],
      "name": "getFeatureFlag",
      "outputs": [
        {
          "components": [
            {
              "internalType": "string",
              "name": "featureId",
              "type": "string"
            },
            {
              "internalType": "string",
              "name": "name",
              "type": "string"
            },
            {
              "internalType": "string",
              "name": "description",
              "type": "string"
            },
            {
              "internalType": "enum FeatureFlagsRefactored.FeatureCategory",
              "name": "category",
              "type": "uint8"
            },
            {
              "internalType": "enum FeatureFlagsRefactored.FeatureStatus",
              "name": "status",
              "type": "uint8"
            },
            {
              "internalType": "uint256",
              "name": "rolloutPercentage",
              "type": "uint256"
            },
            {
              "internalType": "uint256",
              "name": "startTime",
              "type": "uint256"
            },
            {
              "internalType": "uint256",
              "name": "endTime",
              "type": "uint256"
            },
            {
              "internalType": "address",
              "name": "createdBy",
              "type": "address"
            },
            {
              "internalType": "string",
              "name": "version",
              "type": "string"
            },
            {
              "internalType": "bool",
              "name": "requiresAuth",
              "type": "bool"
            },
            {
              "internalType": "string",
              "name": "metadata",
              "type": "string"
            }
          ],
          "internalType": "struct FeatureFlagsRefactored.FeatureFlag",
          "name": "featureFlag",
          "type": "tuple"
        }
      ],
      "stateMutability": "view",
      "type": "function"
    },
    {
      "inputs": [
        {
          "internalType": "enum FeatureFlagsRefactored.FeatureCategory",
          "name": "category",
          "type": "uint8"
        }
      ],
      "name": "getFeaturesByCategory",
      "outputs": [
        {
          "internalType": "string[]",
          "name": "featureIds",
          "type": "string[]"
        }
      ],
      "stateMutability": "view",
      "type": "function"
    },
    {
      "inputs": [
        {
          "internalType": "address",
          "name": "writer",
          "type": "address"
        }
      ],
      "name": "isAuthorizedWriter",
      "outputs": [
        {
          "internalType": "bool",
          "name": "",
          "type": "bool"
        }
      ],
      "stateMutability": "view",
      "type": "function"
    },
    {
      "inputs": [
        {
          "internalType": "string",
          "name": "featureId",
          "type": "string"
        }
      ],
      "name": "isFeatureEnabled",
      "outputs": [
        {
          "internalType": "bool",
          "name": "",
          "type": "bool"
        }
      ],
      "stateMutability": "view",
      "type": "function"
    },
    {
      "inputs": [],
      "name": "owner",
      "outputs": [
        {
          "internalType": "address",
          "name": "",
          "type": "address"
        }
      ],
      "stateMutability": "view",
      "type": "function"
    },
    {
      "inputs": [
        {
          "internalType": "address",
          "name": "writer",
          "type": "address"
        },
        {
          "internalType": "bool",
          "name": "authorized",
          "type": "bool"
        }
      ],
      "name": "setAuthorizedWriter",
      "outputs": [],
      "stateMutability": "nonpayable",
      "type": "function"
    },
    {
      "inputs": [
        {
          "internalType": "string",
          "name": "featureId",
          "type": "string"
        },
        {
          "internalType": "uint256",
          "name": "rolloutPercentage",
          "type": "uint256"
        }
      ],
      "name": "updateFeatureFlagRollout",
      "outputs": [],
      "stateMutability": "nonpayable",
      "type": "function"
    },
    {
      "inputs": [
        {
          "internalType": "string",
          "name": "featureId",
          "type": "string"
        },
        {
          "internalType": "enum FeatureFlagsRefactored.FeatureStatus",
          "name": "status",
          "type": "uint8"
        }
      ],
      "name": "updateFeatureFlagStatus",
      "outputs": [],
      "stateMutability": "nonpayable",
      "type": "function"
    }
  ],
  "bytecode": "0x608060405234620002335760016000553360018060a01b0319600154161760015533600052620002236020600281526040600020600160ff198254161790556200004862000238565b601981527f6b79632d616476616e6365642d766572696669636174696f6e0000000000000082820152620001446200007f62000238565b91601983527f416476616e636564204b594320566572696669636174696f6e0000000000000084840152620000b36200026e565b602981527f456e61626c6520616476616e636564204b594320766572696669636174696f6e858201526820666561747572657360b81b6040820152620000f862000238565b9060038252620312e360ec1b9485878401526200011462000238565b93601585527f416476616e636564204b5943206665617475726573000000000000000000000088860152620003dc565b6200014e62000238565b601081526f62617463682d6f7065726174696f6e7360801b838201526200017462000238565b601081526f4261746368204f7065726174696f6e7360801b848201526200019a6200026e565b91602a83527f456e61626c652062617463682070726f63657373696e6720666f72204b59432085840152696f7065726174696f6e7360b01b6040840152620001e162000238565b9360038552858501527f42617463682070726f63657373696e67206665617475726573000000000000006200021562000238565b9560198752860152620003dc565b60405161167b9081620006658239f35b600080fd5b60408051919082016001600160401b038111838210176200025857604052565b634e487b7160e01b600052604160045260246000fd5b60405190606082016001600160401b038111838210176200025857604052565b81519091906001600160401b0381116200025857825460019283821691841c8215620003d3575b60209283821014620003bd57601f81116200036f575b5081601f8411600114620003085750928293918392600094620002fc575b50501b916000199060031b1c1916179055565b015192503880620002e9565b919083601f1981168760005284600020946000905b888383106200035457505050106200033a575b505050811b019055565b015160001960f88460031b161c1916905538808062000330565b8587015188559096019594850194879350908101906200031d565b8560005282600020601f850160051c810191848610620003b2575b601f0160051c019085905b828110620003a5575050620002cb565b6000815501859062000395565b90915081906200038a565b634e487b7160e01b600052602260045260246000fd5b607f16620002b5565b60015460405191959194919391926001600160a01b03909116919061018086018681106001600160401b038211176200025857604052868652602086015260408501526000606085015260016080850152606460a08501524260c0850152600060e0850152610100840152610120830152600161014083015261016082015260405182518160005b8281106200064d575060209181016003815203019020620004878251826200028e565b6200049a6020830151600183016200028e565b620004ad6040830151600283016200028e565b60608201519160088310156200063757600382015490608081015190600482101562000637576200056b94600a9360ff61ff006101609560081b1692169061ffff19161717600385015560a0810151600485015560c0810151600585015560e081015160068501556007840160018060a01b036101008301511660018060a01b031982541617905562000549610120820151600886016200028e565b60098401610140820151151560ff80198354169116179055015191016200028e565b6000805260046020527f17ef568e3e12ab5b9c7254a8d58478811de00f9e6eb34345acd53bf8fd09d3ec8054680100000000000000009291838210156200025857600182018082558210156200062157620005d19183916000526020600020016200028e565b6005549182101562000258576001820180600555821015620006215760056000526200061f917f036b6384b5eca791c62761152d0c79bb0604c104a5fb6f4eb0703f3154bb3db0016200028e565b565b634e487b7160e01b600052603260045260246000fd5b634e487b7160e01b600052602160045260246000fd5b60208092508187010151818501520182906200046456fe6080604052600436101561001257600080fd5b60003560e01c80630214309414610ec95780630cbd889114610e63578063149ac1b914610bcc5780632eae16c214610b32578063526241a814610af3578063542a086c146109a657806372fe6066146108bb5780638da5cb5b146108945780638e31410f14610843578063977ec54d146106e3578063989e35a714610654578063ad6e823b146105fc578063bb6494c8146101355763c8222473146100b657600080fd5b34610130576040366003190112610130576004356008811015610130576100df6024359161124f565b908154811015610130576100f291611157565b61011a57610102610116916111a9565b6040519182916020835260208301906110a0565b0390f35b634e487b7160e01b600052600060045260246000fd5b600080fd5b34610130576101203660031901126101305767ffffffffffffffff60043581811161013057610168903690600401611026565b60243582811161013057610180903690600401611026565b9160443581811161013057610199903690600401611026565b906008606435101561013057600460843510156101305760c435818111610130576101c8903690600401611026565b9060e4359081151582036101305761010435908111610130576101ef903690600401611026565b9133600052600260205260ff6040600020541680156105e3575b61021290611268565b61021a611465565b6001600160a01b0360076040516020818161023b8b8381519384920161107d565b8101600381520301902001541661059f5784511561055b5785511561051757610269606460a43511156112b3565b6040519361027685610fe7565b8585528660208601526040850152610293606435606086016112fe565b6102a26084356080860161130a565b60a43560a08501524260c0850152600060e085015233610100850152610120840152151561014083015261016082015260405160208184516102e7818385890161107d565b810160038152030190206102fc825182611316565b61030d602083015160018301611316565b61031e604083015160028301611316565b60038101606083015160088110156105015760ff8019835416911617815560808301516004811015610501576103f09361035d61016092600a94611426565b60a0810151600485015560c0810151600585015560e08101516006850155600784016001600160a01b03610100830151167fffffffffffffffffffffffff00000000000000000000000000000000000000008254161790556103c761012082015160088601611316565b6103e76101408201511515600986019060ff801983541691151516179055565b01519101611316565b6103fb60643561124f565b908154916801000000000000000092838110156104eb5761042191600182018155611157565b61011a578161042f91611316565b600554918210156104eb5760018201806005558210156104d5576104a7816104a26104bc937f3719f491e5bb0f6f5a25da2d4dd31fdaa1774f54f9eb58941c9156680fbe8e0c9560056000527f036b6384b5eca791c62761152d0c79bb0604c104a5fb6f4eb0703f3154bb3db001611316565b611445565b926040519182916040835260408301906110a0565b6104cb602083016064356110c5565b0390a26001600055005b634e487b7160e01b600052603260045260246000fd5b634e487b7160e01b600052604160045260246000fd5b634e487b7160e01b600052602160045260246000fd5b606460405162461bcd60e51b815260206004820152600c60248201527f496e76616c6964206e616d6500000000000000000000000000000000000000006044820152fd5b606460405162461bcd60e51b815260206004820152601260248201527f496e76616c6964206665617475726520494400000000000000000000000000006044820152fd5b606460405162461bcd60e51b815260206004820152601b60248201527f4665617475726520666c616720616c72656164792065786973747300000000006044820152fd5b506102126001600160a01b036001541633149050610209565b346101305760203660031901126101305760206001600160a01b0380610620611141565b16806000526002835260ff60406000205416918215610646575b50506040519015158152f35b60015416149050828061063a565b34610130576020806003193601126101305760043560088110156101305761067b9061124f565b90815467ffffffffffffffff81116104eb578290604051916106a2848360051b0184611004565b8183526000908152838120938084015b8383106106c7576040518061011687826110df565b60018281926106d5896111a9565b8152019601920191946106b2565b346101305760203660031901126101305760043567ffffffffffffffff811161013057610714903690600401611026565b604051818180935160208193019161072b9261107d565b810160038152036020019020610740816111a9565b61074c600183016111a9565b91610759600282016111a9565b9060038101546004820154906005830154600684015460078501546001600160a01b0316916008860161078b906111a9565b94600987015460ff1696600a016107a1906111a9565b976040519a8b9a610180808d528c016107b9916110a0565b8b810360208d01526107ca916110a0565b8a810360408c01526107db916110a0565b946107ec60608b0160ff83166110c5565b60808a019060081c60ff1690610801916110d2565b60a089015260c088015260e0870152610100860152848103610120860152610828916110a0565b901515610140840152828103610160840152610116916110a0565b3461013057602036600319011261013057600435600554811015610130576101026101169160056000527f036b6384b5eca791c62761152d0c79bb0604c104a5fb6f4eb0703f3154bb3db0016111a9565b346101305760003660031901126101305760206001600160a01b0360015416604051908152f35b346101305760403660031901126101305760043567ffffffffffffffff8111610130576108ec903690600401611026565b6004610977602060243593336000526002825260ff60406000205416801561098d575b61091890611268565b604051906109516001600160a01b03600783519486818187019761093d81838b61107d565b8101600381520301902001541615156114ba565b610959611465565b61096660648711156112b3565b60405193849283925192839161107d565b8101600381520301902001556001600055600080f35b506109186001600160a01b03600154163314905061090f565b34610130576040366003190112610130576109bf611141565b6024359081151590818303610130576001600160a01b039081600154163303610a89576109ea611465565b16918215610a45577e8ebc621f24e0e9d1fd4ee2f7df9bb80c8d61ee30a9167a4fee6cefcf8c021e91610a37602092856000526002845260406000209060ff801983541691151516179055565b604051908152a26001600055005b606460405162461bcd60e51b815260206004820152601660248201527f496e76616c6964207772697465722061646472657373000000000000000000006044820152fd5b608460405162461bcd60e51b815260206004820152602160248201527f4f6e6c79206f776e65722063616e2063616c6c20746869732066756e6374696f60448201527f6e000000000000000000000000000000000000000000000000000000000000006064820152fd5b34610130576020366003190112610130576001600160a01b03610b14611141565b166000526002602052602060ff604060002054166040519015158152f35b346101305760003660031901126101305760055467ffffffffffffffff81116104eb57604051602091610b6a838260051b0183611004565b80825282820160056000527f036b6384b5eca791c62761152d0c79bb0604c104a5fb6f4eb0703f3154bb3db0936000915b838310610bb0576040518061011687826110df565b6001828192610bbe896111a9565b815201960192019194610b9b565b346101305760203660031901126101305760043567ffffffffffffffff811161013057610ca96020610c05610116933690600401611026565b6060610160604051610c1681610fe7565b828152828582015282604082015260008382015260006080820152600060a0820152600060c0820152600060e082015260006101008201528261012082015260006101408201520152610c966001600160a01b03600760405185818651610c808183858b0161107d565b60038183015281010301902001541615156114ba565b816040519382858094519384920161107d565b81016003815203019020610d72600a60405192610cc584610fe7565b610cce816111a9565b8452610cdc600182016111a9565b6020850152610ced600282016111a9565b6040850152610d1860ff6003830154610d0b828216606089016112fe565b60081c166080860161130a565b600481015460a0850152600581015460c0850152600681015460e08501526001600160a01b03600782015416610100850152610d56600882016111a9565b61012085015260ff6009820154161515610140850152016111a9565b61016082015260405191829160208352610160610e42610dd2610dbc610da6855161018060208a01526101a08901906110a0565b6020860151888203601f190160408a01526110a0565b6040850151878203601f190160608901526110a0565b610de4606085015160808801906110c5565b610df6608085015160a08801906110d2565b60a084015160c087015260c084015160e087015260e08401516101008701526001600160a01b0361010085015116610120870152610120840151601f19878303016101408801526110a0565b610140830151151585830152910151838203601f19016101808501526110a0565b346101305760203660031901126101305760043567ffffffffffffffff811161013057610ebf610e996020923690600401611026565b610eba6001600160a01b0360076040518681865161093d8183858b0161107d565b611505565b6040519015158152f35b346101305760403660031901126101305760043567ffffffffffffffff811161013057610efa903690600401611026565b602435906004821015610130576020610fb87fe23fd2767d62d26ded65f37eeb242fe3de957a60b71f6df4872d590d849b729a92336000526002835260ff604060002054168015610fce575b610f4f90611268565b6104a2856003610fa986604051610f906001600160a01b0360078951938581818d0196610f7d81838a61107d565b81018a81520301902001541615156114ba565b610f98611465565b60405180938192895192839161107d565b81018481520301902001611426565b92610fc660405180926110d2565ba26001600055005b50610f4f6001600160a01b036001541633149050610f46565b610180810190811067ffffffffffffffff8211176104eb57604052565b90601f8019910116810190811067ffffffffffffffff8211176104eb57604052565b81601f820112156101305780359067ffffffffffffffff82116104eb576040519261105b601f8401601f191660200185611004565b8284526020838301011161013057816000926020809301838601378301015290565b60005b8381106110905750506000910152565b8181015183820152602001611080565b906020916110b98151809281855285808601910161107d565b601f01601f1916010190565b9060088210156105015752565b9060048210156105015752565b602080820190808352835180925260408301928160408460051b8301019501936000915b8483106111135750505050505090565b9091929394958480611131600193603f198682030187528a516110a0565b9801930193019194939290611103565b600435906001600160a01b038216820361013057565b80548210156104d55760005260206000200190600090565b90600182811c9216801561119f575b602083101461118957565b634e487b7160e01b600052602260045260246000fd5b91607f169161117e565b90604051918260008254926111bd8461116f565b90818452600194858116908160001461122c57506001146111e9575b50506111e792500383611004565b565b9093915060005260209081600020936000915b8183106112145750506111e7935082010138806111d9565b855488840185015294850194879450918301916111fc565b9150506111e794506020925060ff191682840152151560051b82010138806111d9565b6008811015610501576000526004602052604060002090565b1561126f57565b606460405162461bcd60e51b815260206004820152601760248201527f4e6f7420617574686f72697a656420746f2077726974650000000000000000006044820152fd5b156112ba57565b606460405162461bcd60e51b815260206004820152601a60248201527f496e76616c696420726f6c6c6f75742070657263656e746167650000000000006044820152fd5b60088210156105015752565b60048210156105015752565b919091825167ffffffffffffffff81116104eb57611334825461116f565b601f81116113de575b50602080601f831160011461137a57508192939460009261136f575b50508160011b916000199060031b1c1916179055565b015190503880611359565b90601f198316958460005282600020926000905b8882106113c6575050836001959697106113ad575b505050811b019055565b015160001960f88460031b161c191690553880806113a3565b8060018596829496860151815501950193019061138e565b600083815260208120601f840160051c8101926020851061141c575b601f0160051c01915b82811061141157505061133d565b818155600101611403565b90925082906113fa565b9060048110156105015761ff0082549160081b169061ff001916179055565b61145d9060206040519282848094519384920161107d565b810103902090565b600260005414611476576002600055565b606460405162461bcd60e51b815260206004820152601f60248201527f5265656e7472616e637947756172643a207265656e7472616e742063616c6c006044820152fd5b156114c157565b606460405162461bcd60e51b815260206004820152601660248201527f4665617475726520666c6167206e6f7420666f756e64000000000000000000006044820152fd5b602061151e91816040519382858094519384920161107d565b8101600381520301902060405161153481610fe7565b61153d826111a9565b815261154b600183016111a9565b602082015261155c600283016111a9565b604082015260038201549061157760ff8316606083016112fe565b61158b60ff608083019360081c168361130a565b600483015460a0820152600583015460c08201526101606115f0600a60068601549560e085019687526001600160a01b036007820154166101008601526115d4600882016111a9565b61012086015260ff6009820154161515610140860152016111a9565b91015280516004811015610501571561163e57516004811015610501576001146116385751801515908161162e575b5061162957600190565b600090565b905042113861161f565b50600190565b505060009056fea26469706673582212201507f9775a62307f9cdda2710c632f730af63bdf468966b9429fdbbe12f7cdb764736f6c63430008140033",
  "linkReferences": {},
  "deployedLinkReferences": {}
}