{
  "_format": "hh-sol-artifact-1",
  "contractName": "FeatureFlagsRefactored",
  "sourceName": "contracts/utility/FeatureFlagsRefactored.sol",
  "abi": [
    {
      "inputs": [],
      "stateMutability": "nonpayable",
      "type": "constructor"
    },
    {
      "anonymous": false,
      "inputs": [
        {
          "indexed": true,
          "internalType": "address",
          "name": "writer",
          "type": "address"
        },
        {
          "indexed": false,
          "internalType": "bool",
          "name": "authorized",
          "type": "bool"
        }
      ],
      "name": "AuthorizedWriterUpdated",
      "type": "event"
    },
    {
      "anonymous": false,
      "inputs": [
        {
          "indexed": true,
          "internalType": "string",
          "name": "featureId",
          "type": "string"
        },
        {
          "indexed": false,
          "internalType": "string",
          "name": "name",
          "type": "string"
        },
        {
          "indexed": false,
          "internalType": "enum FeatureFlagsRefactored.FeatureCategory",
          "name": "category",
          "type": "uint8"
        }
      ],
      "name": "FeatureFlagCreated",
      "type": "event"
    },
    {
      "anonymous": false,
      "inputs": [
        {
          "indexed": true,
          "internalType": "string",
          "name": "featureId",
          "type": "string"
        },
        {
          "indexed": false,
          "internalType": "enum FeatureFlagsRefactored.FeatureStatus",
          "name": "status",
          "type": "uint8"
        }
      ],
      "name": "FeatureFlagUpdated",
      "type": "event"
    },
    {
      "inputs": [
        {
          "internalType": "uint256",
          "name": "",
          "type": "uint256"
        }
      ],
      "name": "allFeatureIds",
      "outputs": [
        {
          "internalType": "string",
          "name": "",
          "type": "string"
        }
      ],
      "stateMutability": "view",
      "type": "function"
    },
    {
      "inputs": [
        {
          "internalType": "address",
          "name": "",
          "type": "address"
        }
      ],
      "name": "authorizedWriters",
      "outputs": [
        {
          "internalType": "bool",
          "name": "",
          "type": "bool"
        }
      ],
      "stateMutability": "view",
      "type": "function"
    },
    {
      "inputs": [
        {
          "internalType": "string",
          "name": "featureId",
          "type": "string"
        },
        {
          "internalType": "string",
          "name": "name",
          "type": "string"
        },
        {
          "internalType": "string",
          "name": "description",
          "type": "string"
        },
        {
          "internalType": "enum FeatureFlagsRefactored.FeatureCategory",
          "name": "category",
          "type": "uint8"
        },
        {
          "internalType": "enum FeatureFlagsRefactored.FeatureStatus",
          "name": "status",
          "type": "uint8"
        },
        {
          "internalType": "uint256",
          "name": "rolloutPercentage",
          "type": "uint256"
        },
        {
          "internalType": "string",
          "name": "version",
          "type": "string"
        },
        {
          "internalType": "bool",
          "name": "requiresAuth",
          "type": "bool"
        },
        {
          "internalType": "string",
          "name": "metadata",
          "type": "string"
        }
      ],
      "name": "createFeatureFlag",
      "outputs": [],
      "stateMutability": "nonpayable",
      "type": "function"
    },
    {
      "inputs": [
        {
          "internalType": "string",
          "name": "",
          "type": "string"
        }
      ],
      "name": "featureFlags",
      "outputs": [
        {
          "internalType": "string",
          "name": "featureId",
          "type": "string"
        },
        {
          "internalType": "string",
          "name": "name",
          "type": "string"
        },
        {
          "internalType": "string",
          "name": "description",
          "type": "string"
        },
        {
          "internalType": "enum FeatureFlagsRefactored.FeatureCategory",
          "name": "category",
          "type": "uint8"
        },
        {
          "internalType": "enum FeatureFlagsRefactored.FeatureStatus",
          "name": "status",
          "type": "uint8"
        },
        {
          "internalType": "uint256",
          "name": "rolloutPercentage",
          "type": "uint256"
        },
        {
          "internalType": "uint256",
          "name": "startTime",
          "type": "uint256"
        },
        {
          "internalType": "uint256",
          "name": "endTime",
          "type": "uint256"
        },
        {
          "internalType": "address",
          "name": "createdBy",
          "type": "address"
        },
        {
          "internalType": "string",
          "name": "version",
          "type": "string"
        },
        {
          "internalType": "bool",
          "name": "requiresAuth",
          "type": "bool"
        },
        {
          "internalType": "string",
          "name": "metadata",
          "type": "string"
        }
      ],
      "stateMutability": "view",
      "type": "function"
    },
    {
      "inputs": [
        {
          "internalType": "enum FeatureFlagsRefactored.FeatureCategory",
          "name": "",
          "type": "uint8"
        },
        {
          "internalType": "uint256",
          "name": "",
          "type": "uint256"
        }
      ],
      "name": "featuresByCategory",
      "outputs": [
        {
          "internalType": "string",
          "name": "",
          "type": "string"
        }
      ],
      "stateMutability": "view",
      "type": "function"
    },
    {
      "inputs": [],
      "name": "getAllFeatureIds",
      "outputs": [
        {
          "internalType": "string[]",
          "name": "featureIds",
          "type": "string[]"
        }
      ],
      "stateMutability": "view",
      "type": "function"
    },
    {
      "inputs": [
        {
          "internalType": "string",
          "name": "featureId",
          "type": "string"
        }
      ],
      "name": "getFeatureFlag",
      "outputs": [
        {
          "components": [
            {
              "internalType": "string",
              "name": "featureId",
              "type": "string"
            },
            {
              "internalType": "string",
              "name": "name",
              "type": "string"
            },
            {
              "internalType": "string",
              "name": "description",
              "type": "string"
            },
            {
              "internalType": "enum FeatureFlagsRefactored.FeatureCategory",
              "name": "category",
              "type": "uint8"
            },
            {
              "internalType": "enum FeatureFlagsRefactored.FeatureStatus",
              "name": "status",
              "type": "uint8"
            },
            {
              "internalType": "uint256",
              "name": "rolloutPercentage",
              "type": "uint256"
            },
            {
              "internalType": "uint256",
              "name": "startTime",
              "type": "uint256"
            },
            {
              "internalType": "uint256",
              "name": "endTime",
              "type": "uint256"
            },
            {
              "internalType": "address",
              "name": "createdBy",
              "type": "address"
            },
            {
              "internalType": "string",
              "name": "version",
              "type": "string"
            },
            {
              "internalType": "bool",
              "name": "requiresAuth",
              "type": "bool"
            },
            {
              "internalType": "string",
              "name": "metadata",
              "type": "string"
            }
          ],
          "internalType": "struct FeatureFlagsRefactored.FeatureFlag",
          "name": "featureFlag",
          "type": "tuple"
        }
      ],
      "stateMutability": "view",
      "type": "function"
    },
    {
      "inputs": [
        {
          "internalType": "enum FeatureFlagsRefactored.FeatureCategory",
          "name": "category",
          "type": "uint8"
        }
      ],
      "name": "getFeaturesByCategory",
      "outputs": [
        {
          "internalType": "string[]",
          "name": "featureIds",
          "type": "string[]"
        }
      ],
      "stateMutability": "view",
      "type": "function"
    },
    {
      "inputs": [
        {
          "internalType": "address",
          "name": "writer",
          "type": "address"
        }
      ],
      "name": "isAuthorizedWriter",
      "outputs": [
        {
          "internalType": "bool",
          "name": "",
          "type": "bool"
        }
      ],
      "stateMutability": "view",
      "type": "function"
    },
    {
      "inputs": [
        {
          "internalType": "string",
          "name": "featureId",
          "type": "string"
        }
      ],
      "name": "isFeatureEnabled",
      "outputs": [
        {
          "internalType": "bool",
          "name": "",
          "type": "bool"
        }
      ],
      "stateMutability": "view",
      "type": "function"
    },
    {
      "inputs": [],
      "name": "owner",
      "outputs": [
        {
          "internalType": "address",
          "name": "",
          "type": "address"
        }
      ],
      "stateMutability": "view",
      "type": "function"
    },
    {
      "inputs": [
        {
          "internalType": "address",
          "name": "writer",
          "type": "address"
        },
        {
          "internalType": "bool",
          "name": "authorized",
          "type": "bool"
        }
      ],
      "name": "setAuthorizedWriter",
      "outputs": [],
      "stateMutability": "nonpayable",
      "type": "function"
    },
    {
      "inputs": [
        {
          "internalType": "string",
          "name": "featureId",
          "type": "string"
        },
        {
          "internalType": "uint256",
          "name": "rolloutPercentage",
          "type": "uint256"
        }
      ],
      "name": "updateFeatureFlagRollout",
      "outputs": [],
      "stateMutability": "nonpayable",
      "type": "function"
    },
    {
      "inputs": [
        {
          "internalType": "string",
          "name": "featureId",
          "type": "string"
        },
        {
          "internalType": "enum FeatureFlagsRefactored.FeatureStatus",
          "name": "status",
          "type": "uint8"
        }
      ],
      "name": "updateFeatureFlagStatus",
      "outputs": [],
      "stateMutability": "nonpayable",
      "type": "function"
    }
  ],
  "bytecode": "0x608060405234620002305760015f553360018060a01b03196001541617600155335f526200022060206002815260405f20600160ff198254161790556200004562000234565b601981527f6b79632d616476616e6365642d766572696669636174696f6e0000000000000082820152620001416200007c62000234565b91601983527f416476616e636564204b594320566572696669636174696f6e0000000000000084840152620000b062000268565b602981527f456e61626c6520616476616e636564204b594320766572696669636174696f6e858201526820666561747572657360b81b6040820152620000f562000234565b9060038252620312e360ec1b9485878401526200011162000234565b93601585527f416476616e636564204b5943206665617475726573000000000000000000000088860152620003cb565b6200014b62000234565b601081526f62617463682d6f7065726174696f6e7360801b838201526200017162000234565b601081526f4261746368204f7065726174696f6e7360801b848201526200019762000268565b91602a83527f456e61626c652062617463682070726f63657373696e6720666f72204b59432085840152696f7065726174696f6e7360b01b6040840152620001de62000234565b9360038552858501527f42617463682070726f63657373696e67206665617475726573000000000000006200021262000234565b9560198752860152620003cb565b6040516116339081620006498239f35b5f80fd5b60408051919082016001600160401b038111838210176200025457604052565b634e487b7160e01b5f52604160045260245ffd5b60405190606082016001600160401b038111838210176200025457604052565b81519091906001600160401b0381116200025457825460019283821691841c8215620003c2575b60209283821014620003ae57601f811162000363575b5081601f84116001146200030057509282939183925f94620002f4575b50501b915f199060031b1c1916179055565b015192505f80620002e2565b919083601f198116875f52845f20945f905b888383106200034857505050106200032f575b505050811b019055565b01515f1960f88460031b161c191690555f808062000325565b85870151885590960195948501948793509081019062000312565b855f52825f20601f850160051c810191848610620003a3575b601f0160051c019085905b82811062000397575050620002c5565b5f815501859062000387565b90915081906200037c565b634e487b7160e01b5f52602260045260245ffd5b607f16620002af565b60015460405191959194919391926001600160a01b03909116919061018086018681106001600160401b038211176200025457604052868652602086015260408501525f606085015260016080850152606460a08501524260c08501525f60e085015261010084015261012083015260016101408301526101608201526040518251815f5b828110620006315750602091810160038152030190206200047382518262000288565b6200048660208301516001830162000288565b6200049960408301516002830162000288565b60608201519160088310156200061d5760038201549060808101519060048210156200061d576200055794600a9360ff61ff006101609560081b1692169061ffff19161717600385015560a0810151600485015560c0810151600585015560e081015160068501556007840160018060a01b036101008301511660018060a01b0319825416179055620005356101208201516008860162000288565b60098401610140820151151560ff801983541691161790550151910162000288565b5f805260046020527f17ef568e3e12ab5b9c7254a8d58478811de00f9e6eb34345acd53bf8fd09d3ec8054680100000000000000009291838210156200025457600182018082558210156200060957620005ba9183915f5260205f200162000288565b6005549182101562000254576001820180600555821015620006095760055f5262000607917f036b6384b5eca791c62761152d0c79bb0604c104a5fb6f4eb0703f3154bb3db00162000288565b565b634e487b7160e01b5f52603260045260245ffd5b634e487b7160e01b5f52602160045260245ffd5b60208092508187010151818501520182906200045056fe60806040526004361015610011575f80fd5b5f3560e01c80630214309414610e9f5780630cbd889114610e39578063149ac1b914610ba95780632eae16c214610b12578063526241a814610ad5578063542a086c1461098b57806372fe6066146108a45780638da5cb5b1461087e5780638e31410f1461082e578063977ec54d146106ce578063989e35a714610640578063ad6e823b146105ea578063bb6494c81461012e5763c8222473146100b3575f80fd5b3461012a57604036600319011261012a57600435600881101561012a576100dc60243591611214565b90815481101561012a576100ef91611126565b610117576100ff61011391611173565b604051918291602083526020830190611070565b0390f35b634e487b7160e01b5f525f60045260245ffd5b5f80fd5b3461012a5761012036600319011261012a5767ffffffffffffffff60043581811161012a57610161903690600401610ff9565b60243582811161012a57610179903690600401610ff9565b9160443581811161012a57610192903690600401610ff9565b906008606435101561012a576004608435101561012a5760c43581811161012a576101c1903690600401610ff9565b9060e43590811515820361012a576101043590811161012a576101e8903690600401610ff9565b91335f52600260205260ff60405f20541680156105d1575b6102099061122b565b610211611421565b6001600160a01b036007604051602081816102328b8381519384920161104f565b8101600381520301902001541661058d578451156105495785511561050557610260606460a4351115611276565b6040519361026d85610fba565b858552866020860152604085015261028a606435606086016112c1565b610299608435608086016112cd565b60a43560a08501524260c08501525f60e085015233610100850152610120840152151561014083015261016082015260405160208184516102dd818385890161104f565b810160038152030190206102f28251826112d9565b6103036020830151600183016112d9565b6103146040830151600283016112d9565b60038101606083015160088110156104f15760ff80198354169116178155608083015160048110156104f1576103e69361035361016092600a946113e2565b60a0810151600485015560c0810151600585015560e08101516006850155600784016001600160a01b03610100830151167fffffffffffffffffffffffff00000000000000000000000000000000000000008254161790556103bd610120820151600886016112d9565b6103dd6101408201511515600986019060ff801983541691151516179055565b015191016112d9565b6103f1606435611214565b908154916801000000000000000092838110156104dd5761041791600182018155611126565b6101175781610425916112d9565b600554918210156104dd5760018201806005558210156104c95761049c816104976104b1937f3719f491e5bb0f6f5a25da2d4dd31fdaa1774f54f9eb58941c9156680fbe8e0c9560055f527f036b6384b5eca791c62761152d0c79bb0604c104a5fb6f4eb0703f3154bb3db0016112d9565b611401565b92604051918291604083526040830190611070565b6104c060208301606435611095565b0390a260015f55005b634e487b7160e01b5f52603260045260245ffd5b634e487b7160e01b5f52604160045260245ffd5b634e487b7160e01b5f52602160045260245ffd5b606460405162461bcd60e51b815260206004820152600c60248201527f496e76616c6964206e616d6500000000000000000000000000000000000000006044820152fd5b606460405162461bcd60e51b815260206004820152601260248201527f496e76616c6964206665617475726520494400000000000000000000000000006044820152fd5b606460405162461bcd60e51b815260206004820152601b60248201527f4665617475726520666c616720616c72656164792065786973747300000000006044820152fd5b506102096001600160a01b036001541633149050610200565b3461012a57602036600319011261012a5760206001600160a01b038061060e611110565b16805f526002835260ff60405f205416918215610632575b50506040519015158152f35b600154161490508280610626565b3461012a5760208060031936011261012a57600435600881101561012a5761066790611214565b90815467ffffffffffffffff81116104dd5782906040519161068e848360051b0184610fd7565b8183525f908152838120938084015b8383106106b2576040518061011387826110af565b60018281926106c089611173565b81520196019201919461069d565b3461012a57602036600319011261012a5760043567ffffffffffffffff811161012a576106ff903690600401610ff9565b60405181818093516020819301916107169261104f565b81016003815203602001902061072b81611173565b61073760018301611173565b9161074460028201611173565b9060038101546004820154906005830154600684015460078501546001600160a01b0316916008860161077690611173565b94600987015460ff1696600a0161078c90611173565b976040519a8b9a610180808d528c016107a491611070565b8b810360208d01526107b591611070565b8a810360408c01526107c691611070565b946107d760608b0160ff8316611095565b60808a019060081c60ff16906107ec916110a2565b60a089015260c088015260e087015261010086015284810361012086015261081391611070565b90151561014084015282810361016084015261011391611070565b3461012a57602036600319011261012a5760043560055481101561012a576100ff6101139160055f527f036b6384b5eca791c62761152d0c79bb0604c104a5fb6f4eb0703f3154bb3db001611173565b3461012a575f36600319011261012a5760206001600160a01b0360015416604051908152f35b3461012a57604036600319011261012a5760043567ffffffffffffffff811161012a576108d5903690600401610ff9565b600461095e602060243593335f526002825260ff60405f2054168015610972575b6108ff9061122b565b604051906109386001600160a01b03600783519486818187019761092481838b61104f565b810160038152030190200154161515611474565b610940611421565b61094d6064871115611276565b60405193849283925192839161104f565b81016003815203019020015560015f555f80f35b506108ff6001600160a01b0360015416331490506108f6565b3461012a57604036600319011261012a576109a4611110565b602435908115159081830361012a576001600160a01b039081600154163303610a6b576109cf611421565b16918215610a27577e8ebc621f24e0e9d1fd4ee2f7df9bb80c8d61ee30a9167a4fee6cefcf8c021e91610a1a602092855f526002845260405f209060ff801983541691151516179055565b604051908152a260015f55005b606460405162461bcd60e51b815260206004820152601660248201527f496e76616c6964207772697465722061646472657373000000000000000000006044820152fd5b608460405162461bcd60e51b815260206004820152602160248201527f4f6e6c79206f776e65722063616e2063616c6c20746869732066756e6374696f60448201527f6e000000000000000000000000000000000000000000000000000000000000006064820152fd5b3461012a57602036600319011261012a576001600160a01b03610af6611110565b165f526002602052602060ff60405f2054166040519015158152f35b3461012a575f36600319011261012a5760055467ffffffffffffffff81116104dd57604051602091610b49838260051b0183610fd7565b80825282820160055f527f036b6384b5eca791c62761152d0c79bb0604c104a5fb6f4eb0703f3154bb3db0935f915b838310610b8d576040518061011387826110af565b6001828192610b9b89611173565b815201960192019194610b78565b3461012a57602036600319011261012a5760043567ffffffffffffffff811161012a57610c7f6020610be2610113933690600401610ff9565b6060610160604051610bf381610fba565b82815282858201528260408201525f838201525f60808201525f60a08201525f60c08201525f60e08201525f610100820152826101208201525f6101408201520152610c6c6001600160a01b03600760405185818651610c568183858b0161104f565b6003818301528101030190200154161515611474565b816040519382858094519384920161104f565b81016003815203019020610d48600a60405192610c9b84610fba565b610ca481611173565b8452610cb260018201611173565b6020850152610cc360028201611173565b6040850152610cee60ff6003830154610ce1828216606089016112c1565b60081c16608086016112cd565b600481015460a0850152600581015460c0850152600681015460e08501526001600160a01b03600782015416610100850152610d2c60088201611173565b61012085015260ff600982015416151561014085015201611173565b61016082015260405191829160208352610160610e18610da8610d92610d7c855161018060208a01526101a0890190611070565b6020860151888203601f190160408a0152611070565b6040850151878203601f19016060890152611070565b610dba60608501516080880190611095565b610dcc608085015160a08801906110a2565b60a084015160c087015260c084015160e087015260e08401516101008701526001600160a01b0361010085015116610120870152610120840151601f1987830301610140880152611070565b610140830151151585830152910151838203601f1901610180850152611070565b3461012a57602036600319011261012a5760043567ffffffffffffffff811161012a57610e95610e6f6020923690600401610ff9565b610e906001600160a01b036007604051868186516109248183858b0161104f565b6114bf565b6040519015158152f35b3461012a57604036600319011261012a5760043567ffffffffffffffff811161012a57610ed0903690600401610ff9565b60243590600482101561012a576020610f8c7fe23fd2767d62d26ded65f37eeb242fe3de957a60b71f6df4872d590d849b729a92335f526002835260ff60405f2054168015610fa1575b610f239061122b565b610497856003610f7d86604051610f646001600160a01b0360078951938581818d0196610f5181838a61104f565b81018a8152030190200154161515611474565b610f6c611421565b60405180938192895192839161104f565b810184815203019020016113e2565b92610f9a60405180926110a2565ba260015f55005b50610f236001600160a01b036001541633149050610f1a565b610180810190811067ffffffffffffffff8211176104dd57604052565b90601f8019910116810190811067ffffffffffffffff8211176104dd57604052565b81601f8201121561012a5780359067ffffffffffffffff82116104dd576040519261102e601f8401601f191660200185610fd7565b8284526020838301011161012a57815f926020809301838601378301015290565b5f5b8381106110605750505f910152565b8181015183820152602001611051565b906020916110898151809281855285808601910161104f565b601f01601f1916010190565b9060088210156104f15752565b9060048210156104f15752565b602080820190808352835180925260408301928160408460051b8301019501935f915b8483106110e25750505050505090565b9091929394958480611100600193603f198682030187528a51611070565b98019301930191949392906110d2565b600435906001600160a01b038216820361012a57565b80548210156104c9575f5260205f2001905f90565b90600182811c92168015611169575b602083101461115557565b634e487b7160e01b5f52602260045260245ffd5b91607f169161114a565b9060405191825f8254926111868461113b565b9081845260019485811690815f146111f157506001146111b1575b50506111af92500383610fd7565b565b909391505f52602090815f20935f915b8183106111d95750506111af93508201015f806111a1565b855488840185015294850194879450918301916111c1565b9150506111af94506020925060ff191682840152151560051b8201015f806111a1565b60088110156104f1575f52600460205260405f2090565b1561123257565b606460405162461bcd60e51b815260206004820152601760248201527f4e6f7420617574686f72697a656420746f2077726974650000000000000000006044820152fd5b1561127d57565b606460405162461bcd60e51b815260206004820152601a60248201527f496e76616c696420726f6c6c6f75742070657263656e746167650000000000006044820152fd5b60088210156104f15752565b60048210156104f15752565b919091825167ffffffffffffffff81116104dd576112f7825461113b565b601f811161139b575b50602080601f831160011461133b5750819293945f92611330575b50508160011b915f199060031b1c1916179055565b015190505f8061131b565b90601f19831695845f52825f20925f905b8882106113835750508360019596971061136b575b505050811b019055565b01515f1960f88460031b161c191690555f8080611361565b8060018596829496860151815501950193019061134c565b5f83815260208120601f840160051c810192602085106113d8575b601f0160051c01915b8281106113cd575050611300565b8181556001016113bf565b90925082906113b6565b9060048110156104f15761ff0082549160081b169061ff001916179055565b6114199060206040519282848094519384920161104f565b810103902090565b60025f54146114305760025f55565b606460405162461bcd60e51b815260206004820152601f60248201527f5265656e7472616e637947756172643a207265656e7472616e742063616c6c006044820152fd5b1561147b57565b606460405162461bcd60e51b815260206004820152601660248201527f4665617475726520666c6167206e6f7420666f756e64000000000000000000006044820152fd5b60206114d891816040519382858094519384920161104f565b810160038152030190206040516114ee81610fba565b6114f782611173565b815261150560018301611173565b602082015261151660028301611173565b604082015260038201549061153160ff8316606083016112c1565b61154560ff608083019360081c16836112cd565b600483015460a0820152600583015460c08201526101606115aa600a60068601549560e085019687526001600160a01b0360078201541661010086015261158e60088201611173565b61012086015260ff600982015416151561014086015201611173565b910152805160048110156104f157156115f7575160048110156104f1576001146115f1575180151590816115e7575b506115e357600190565b5f90565b905042115f6115d9565b50600190565b50505f9056fea26469706673582212202e7a896b46fa249561b0c88bea7ead5ecb2110aa3bbe66f936a903d0b82d805264736f6c63430008140033",
  "linkReferences": {},
  "deployedLinkReferences": {}
}