{
  "_format": "hh-sol-artifact-1",
  "contractName": "MultisigModifier",
  "sourceName": "contracts/system/MultisigModifier.sol",
  "abi": [
    {
      "inputs": [
        {
          "internalType": "address",
          "name": "_multisigManager",
          "type": "address"
        }
      ],
      "stateMutability": "nonpayable",
      "type": "constructor"
    },
    {
      "anonymous": false,
      "inputs": [
        {
          "indexed": false,
          "internalType": "address",
          "name": "oldManager",
          "type": "address"
        },
        {
          "indexed": false,
          "internalType": "address",
          "name": "newManager",
          "type": "address"
        }
      ],
      "name": "MultisigManagerUpdated",
      "type": "event"
    },
    {
      "inputs": [],
      "name": "multisigManager",
      "outputs": [
        {
          "internalType": "contract MultisigManager",
          "name": "",
          "type": "address"
        }
      ],
      "stateMutability": "view",
      "type": "function"
    },
    {
      "inputs": [],
      "name": "owner",
      "outputs": [
        {
          "internalType": "address",
          "name": "",
          "type": "address"
        }
      ],
      "stateMutability": "view",
      "type": "function"
    },
    {
      "inputs": [
        {
          "internalType": "address",
          "name": "_multisigManager",
          "type": "address"
        }
      ],
      "name": "setMultisigManager",
      "outputs": [],
      "stateMutability": "nonpayable",
      "type": "function"
    }
  ],
  "bytecode": "0x60803461008f57601f61029138819003918201601f19168301916001600160401b038311848410176100945780849260209460405283398101031261008f57516001600160a01b0381169081900361008f576001600055600280546001600160a01b0319908116331790915581610080575b6040516101e690816100ab8239f35b60015416176001553880610071565b600080fd5b634e487b7160e01b600052604160045260246000fdfe608080604052600436101561001357600080fd5b600090813560e01c9081638da5cb5b1461017a575080639fbdb775146101465763f4692e091461004257600080fd5b346101435760203660031901126101435760043573ffffffffffffffffffffffffffffffffffffffff9081811680910361013f57816002541633036100e1577f23e0a616efc76d766195373e42d10e0dcd75d41363639187f5e5e5580726d0fd9160409160015491817fffffffffffffffffffffffff00000000000000000000000000000000000000008416176001558351921682526020820152a180f35b60646040517f08c379a000000000000000000000000000000000000000000000000000000000815260206004820152600a60248201527f4f6e6c79206f776e6572000000000000000000000000000000000000000000006044820152fd5b8280fd5b80fd5b5034610143578060031936011261014357602073ffffffffffffffffffffffffffffffffffffffff60015416604051908152f35b9050346101ac57816003193601126101ac5760209073ffffffffffffffffffffffffffffffffffffffff600254168152f35b5080fdfea2646970667358221220cb68421c64f4be29625ceefb999ab6dbabc2288991a4c803a1d09f69e8dadb1864736f6c63430008140033",
  "linkReferences": {},
  "deployedLinkReferences": {}
}