{
  "_format": "hh-sol-artifact-1",
  "contractName": "MultisigModifier",
  "sourceName": "contracts/system/MultisigModifier.sol",
  "abi": [
    {
      "inputs": [
        {
          "internalType": "address",
          "name": "_multisigManager",
          "type": "address"
        }
      ],
      "stateMutability": "nonpayable",
      "type": "constructor"
    },
    {
      "anonymous": false,
      "inputs": [
        {
          "indexed": false,
          "internalType": "address",
          "name": "oldManager",
          "type": "address"
        },
        {
          "indexed": false,
          "internalType": "address",
          "name": "newManager",
          "type": "address"
        }
      ],
      "name": "MultisigManagerUpdated",
      "type": "event"
    },
    {
      "inputs": [],
      "name": "multisigManager",
      "outputs": [
        {
          "internalType": "contract MultisigManager",
          "name": "",
          "type": "address"
        }
      ],
      "stateMutability": "view",
      "type": "function"
    },
    {
      "inputs": [],
      "name": "owner",
      "outputs": [
        {
          "internalType": "address",
          "name": "",
          "type": "address"
        }
      ],
      "stateMutability": "view",
      "type": "function"
    },
    {
      "inputs": [
        {
          "internalType": "address",
          "name": "_multisigManager",
          "type": "address"
        }
      ],
      "name": "setMultisigManager",
      "outputs": [],
      "stateMutability": "nonpayable",
      "type": "function"
    }
  ],
  "bytecode": "0x60803461008e57601f61028a38819003918201601f19168301916001600160401b038311848410176100925780849260209460405283398101031261008e57516001600160a01b0381169081900361008e5760015f55600280546001600160a01b031990811633179091558161007f575b6040516101e390816100a78239f35b60015416176001555f80610070565b5f80fd5b634e487b7160e01b5f52604160045260245ffdfe6080806040526004361015610012575f80fd5b5f90813560e01c9081638da5cb5b14610177575080639fbdb775146101435763f4692e091461003f575f80fd5b346101405760203660031901126101405760043573ffffffffffffffffffffffffffffffffffffffff9081811680910361013c57816002541633036100de577f23e0a616efc76d766195373e42d10e0dcd75d41363639187f5e5e5580726d0fd9160409160015491817fffffffffffffffffffffffff00000000000000000000000000000000000000008416176001558351921682526020820152a180f35b60646040517f08c379a000000000000000000000000000000000000000000000000000000000815260206004820152600a60248201527f4f6e6c79206f776e6572000000000000000000000000000000000000000000006044820152fd5b8280fd5b80fd5b5034610140578060031936011261014057602073ffffffffffffffffffffffffffffffffffffffff60015416604051908152f35b9050346101a957816003193601126101a95760209073ffffffffffffffffffffffffffffffffffffffff600254168152f35b5080fdfea264697066735822122019e7885708626d40c0aebf69c1ce53222caf3c28cd4d46c2a55a9c884de9486b64736f6c63430008140033",
  "linkReferences": {},
  "deployedLinkReferences": {}
}